:020000040800F2
:100000005816002071020008790200087B020008DF
:100010007D0200087F020008810200080000000045
:100020000000000000000000000000008302000843
:100030008502000800000000870200084D2A000821
:100040008B0200088B0200088B0200088B0200085C
:100050008B0200088B0200088B0200088B0200084C
:100060008B0200088B0200088B0200088B0200083C
:100070008B0200088B0200088B0200088B0200082C
:100080008B0200088B020008B90300088B020008ED
:100090008B0200088B0200088B0200088B0200080C
:1000A000592D00088B0200088B0200088B02000803
:1000B000952D00088B0200088B0200088B020008B7
:1000C0008B0200088B0200088B0200088B020008DC
:1000D0008B0200088B0200088B0200088B020008CC
:1000E0008B0200088B0200088B0200088B020008BC
:1000F0008B0200088B0200088B0200088B020008AC
:100100008B0200088B0200088B0200088B0200089B
:100110008B0200088B0200088B0200088B0200088B
:100120008B0200088B0200088B0200088B0200087B
:100130008B0200088B0200088B0200088B0200086B
:100140008B0200088B0200088B0200088B0200085B
:100150008B0200088B0200088B0200088B0200084B
:100160008B0200088B0200088B0200088B0200083B
:100170008B0200088B0200088B0200088B0200082B
:100180008B0200088B02000800F002F800F060F813
:100190000AA090E8000C82448344AAF10107DA45E2
:1001A00001D100F055F8AFF2090EBAE80F0013F0D4
:1001B000010F18BFFB1A43F00103184788300000F5
:1001C000A830000010F8013B0A4413F0030408BFF4
:1001D00010F8014B1D1108BF10F8015B641E05D01B
:1001E00010F8016B641E01F8016BF9D1002D15D0D8
:1001F00010F8014B03F00C030C2BA1EB04040ABF15
:1002000010F8013BA4EB8314A4EB032405F10103D4
:1002100014F8016B5B1E01F8016BF9D5914238BFF0
:1002200010F8013BD1D3704700230024002500269D
:10023000103A28BF78C1FBD8520728BF30C148BF49
:100240000B6070471FB502F0F7FF1FBD10B510BD62
:1002500000F037F81146FFF7F5FF02F0D5FF00F088
:1002600055F803B4FFF7F2FF03BC00F059F80000A3
:100270000948804709480047FEE7FEE7FEE7FEE73A
:10028000FEE7FEE7FEE7FEE7FEE7FEE70448054976
:10029000054A064B704700006D2A000889010008D6
:1002A0005810002058160020581200205812002024
:1002B000704770477047000000487047F80F0020F3
:1002C00070477546FFF7F8FFAE460500694653468E
:1002D00020F00700854618B020B5FFF7D7FFBDE82E
:1002E00020404FF000064FF000074FF000084FF09D
:1002F000000B21F00701AC46ACE8C009ACE8C0092E
:10030000ACE8C009ACE8C0098D46704710B504469A
:10031000AFF300802046BDE81040FFF7A2BF000009
:1003200001491820ABBEFEE726000200CA43026066
:10033000704700220A12D3430360704721B18268DC
:1003400042F00102826003E0826822F001028260D2
:10035000704700000021084A1168084A1140D0E99E
:1003600000231A4383681A43C3681A431143044A9B
:10037000C2F804137047000004230140E030FCFF82
:10038000002001400A460021816821F470211143B8
:10039000816070470A460021816821F440111143B1
:1003A000816070470246002013680B400BB10120AA
:1003B00000E000207047000010B504210548FFF759
:1003C000F1FF30B104210348FFF7B0FF024801F00C
:1003D0009DFE10BD002001404008002010B50B46D6
:1003E0000021D9B2012404FA01F11AB144680C4386
:1003F000446002E044688C43446010BD30B502465E
:10040000002000235068104C20400D790C6844EA0D
:1004100005242043506090680C4C2040D1E90354DF
:100420002C438D682C434D7944EA45042043906069
:10043000D06A20F470000C7D641EE4B2234340EACD
:100440000350D06230BD0000FFFEFFFCFDF7FFC08F
:10045000F0B504461546002000220026092911DDCA
:10046000E068A1F10A0707EB470C072707FA0CF22F
:100470009043A1F10A0707EB470703FA07F210437D
:10048000E0600CE0206901EB410C072707FA0CF251
:10049000904301EB410703FA07F210432061A06B80
:1004A000C0F30156EF1C06F1010CA7EB0C0707EB9C
:1004B000870C1F2707FA0CF29043EF1C06F1010C82
:1004C000A7EB0C0707EB870701FA07F21043A063BD
:1004D000F0BD21B1426842F48052426003E04268BC
:1004E00022F480524260704710B50A460021002372
:1004F000816B21F44011531E41EA0351816310BD09
:10050000F0B504460D4600200021092D11DDE068FC
:10051000A5F10A0606EB4607072606FA07F1884307
:10052000A5F10A0606EB460603FA06F10843E06069
:100530000CE0206905EB4507072606FA07F188431A
:1005400005EB450603FA06F108432061072A0FDA96
:10055000606B561E06EB86071F2606FA07F18843D6
:10056000561E06EB860605FA06F10843606322E094
:100570000D2A0FDA206BD61F06EB86071F2606FA18
:1005800007F18843D61F06EB860605FA06F10843F5
:10059000206310E0E06AA2F10D0606EB86071F2635
:1005A00006FA07F18843A2F10D0606EB860605FA66
:1005B00006F10843E062F0BD816841F0804181604E
:1005C0007047000038B10849096841F40001074A42
:1005D000C2F8041306E00449096821F40001034A43
:1005E000C2F80413704700000423014000200140BA
:1005F00000B58BB00120FFF7E5FF002009900790C0
:1006000008900A9007A8FFF7A5FE0020019001209E
:100610008DF808008DF80900002003900590012056
:100620008DF8180001A92348FFF7E8FE04230122F2
:1006300000212048FFF764FF04211E48FFF754FF04
:1006400001231A4608211B48FFF702FF012302225B
:1006500006211848FFF7FCFE012303221146154826
:10066000FFF7F6FE0123042209211248FFF7F0FEEE
:1006700000211048FFF72DFF4FF400110D48FFF740
:1006800089FE4FF480310B48FFF77CFE40F20741B2
:100690000848FFF74EFE012240F207410548FFF7E8
:1006A0009DFE01210348FFF749FE0248FFF784FF42
:1006B0000BB000BD0020014010B502F099F90121F6
:1006C000084602F03BF80121022002F037F8012130
:1006D000042002F033F80121082002F02FF8012154
:1006E000102002F02BF80121202002F027F8012130
:1006F000402002F023F80121802002F01FF80121A0
:10070000080202F01BF80121084602F027F8012137
:10071000C80202F023F80121084602F02FF8012157
:10072000080202F02BF80121880302F027F810BD1F
:1007300000B58FB000BF154800F007FB0028FAD1C4
:100740000090019012480290002003900120049034
:10075000002005904FF480600690400007908000D4
:10076000089000010A904012099000200B9001208F
:100770000C9000200D900E906946044800F0F0FAAD
:100780000121024800F0D6FA0FB000BD106402400B
:10079000000000201CB54FF48061B74800F0BAFE9D
:1007A0001020009000208DF8040001208DF8070033
:1007B0006946B24800F037FE4FF480600090012097
:1007C0008DF804008DF8070000208DF805006946BB
:1007D000A94800F028FE012000908DF804000220B6
:1007E0008DF8070000208DF805006946A34800F049
:1007F0001AFE0220009001208DF8040002208DF8DE
:10080000070000208DF8050069469C4800F00BFEAB
:1008100001219A4800F07BFE0221984800F077FE03
:100820000420009000208DF8040001208DF80700BE
:100830006946924800F0F7FD0820009000208DF8EE
:10084000040001208DF8070069468C4800F0EBFD9C
:100850001020009000208DF8040001208DF8070082
:100860006946864800F0DFFD03208DF80400012072
:10087000009000208DF807006946814800F0D3FD04
:1008800003208DF804004020009000208DF8070020
:1008900069467C4800F0C7FD03208DF8040008205D
:1008A000009000208DF807006946764800F0BBFDF7
:1008B00003208DF804000220009000208DF807002E
:1008C00069466F4800F0AFFD02208DF8040000205B
:1008D0008DF806004FF48070009000208DF807001E
:1008E00003208DF805006946664800F09CFD022053
:1008F0008DF8040000208DF806004FF40070009081
:1009000000208DF8070003208DF8050069465D483A
:1009100000F089FD02208DF8040000208DF806000B
:100920004FF48060009000208DF8070003208DF8C0
:1009300005006946534800F076FD02208DF804005A
:1009400000208DF806004FF40050009000208DF834
:10095000070003208DF805006946494800F063FD53
:1009600002208DF8040000208DF806004FF480402E
:10097000009000208DF8070003208DF805006946DF
:100980003F4800F050FD02208DF8040000208DF853
:1009900006004FF40040009000208DF8070003206F
:1009A0008DF805006946364800F03DFD00208DF8C1
:1009B000040001208DF806000003009000208DF84F
:1009C000070003208DF8050069462D4800F02BFD37
:1009D000012208212B4800F06EFD0122092129483F
:1009E00000F069FD01220A21264800F064FD012281
:1009F0000D21234800F05FFD01220E21204800F068
:100A00005AFD01220F211E4800F055FD01220C2144
:100A10001B4800F050FD4FF48060009000208DF8DE
:100A2000040003208DF8050000208DF807006946BA
:100A3000154800F0F8FC4FF40060009000208DF89D
:100A4000040003208DF8050000208DF8070069469A
:100A50000D4800F0E8FC4FF48050009000208DF825
:100A6000040003208DF8050000208DF8070069467A
:100A7000054800F0D8FC1CBD0014024000100240E4
:100A80000004024000000240001C024010B5042196
:100A9000014800F033FD10BD0010024010B50821E0
:100AA000014800F02BFD10BD0010024038B54FF09A
:100AB000FF300521002807DA0A07140E164A00F055
:100AC0000F031B1FD45403E00A07130E134A1354D9
:100AD00000BF4FF4A06001F0ADFD12208DF80000C2
:100AE00003208DF8010000208DF8020001208DF810
:100AF0000300684601F062FD18208DF80000002018
:100B00008DF801008DF8020001208DF80300684681
:100B100001F054FD38BD000018ED00E000E400E0F5
:100B200000B58DB00121374802F061F94FF4007033
:100B3000ADF830002020ADF82A000020ADF82800E4
:100B400001208DF8320041F281400B900AA92D4816
:100B500002F0A0FA7020ADF814000120ADF81600E4
:100B60000420ADF8180000200790ADF82000ADF883
:100B70002200ADF82400ADF8260005A9214802F0B6
:100B800063F905A91F4802F09DF905A91D4802F067
:100B9000EBF95420079005A91A4802F035FA7021A4
:100BA000184802F06DFA4FF40060ADF804004010F0
:100BB000ADF806000020ADF808001520ADF80A00D9
:100BC0004FF48050ADF80C004000ADF80E0000204E
:100BD000ADF8100001A90B4802F0F3F88021094894
:100BE00002F002F901228021064802F024F90121D5
:100BF000044802F0DAF80121024802F004F90DB0CD
:100C000000BD0000000001400EB54FF40070ADF8CB
:100C100008000020ADF80200ADF800008DF80A00D1
:100C2000401E019069464FF0804002F033FA0121E6
:100C3000880702F0DCF80EBD70B504460D460026AC
:100C4000FFF724FF1D494861FFF728FF1B49C861D2
:100C50002E6B2879C0F3400050B96069A8B9A0692B
:100C6000012812D1686820F00200801C68600CE046
:100C70002879C0F3400040B1E06930B9206A01280A
:100C800003D1686820F0020068606069A061E069D3
:100C90002062A068B04201D2A66803E0E068B042DA
:100CA00000D9E668D4E90310711A4843D4E9021266
:100CB000891AB0FBF1F0E86470BD0000F00E00206E
:100CC00010B504466078022810D1207AC0F3800065
:100CD00060B92146094800F017F82146084800F09D
:100CE00013F82146074800F00FF806E000200349FA
:100CF0008860034988600349886010BD1C0F00208C
:100D0000280F0020340F00200A6D03689A420BD38D
:100D10008268521C826043689A420AD38A6822F031
:100D20000402121D8A6004E0826812B18268521EB9
:100D30008260704721B1026842F00102026003E064
:100D4000026822F0010202607047014600200A6832
:100D500002F001020AB1012000E00020704700000B
:100D600010B500220268134B1A40CC680B6823436D
:100D70004C6923438C692343CC6923430C6A234386
:100D80004C6A23438C6A23434C6B23438C6B234371
:100D90001A430260426922F00702D1E90B3423436F
:100DA0001A4342610B6943604B6883608B68C36080
:100DB00010BD00003F801CF010B504469FED110AE5
:100DC000204601F0ABFC9FED0F0A04F1240000F077
:100DD00023FB9FED0C0A84ED0C0AB7EE000A84EDAC
:100DE0000D0A9FED080A84ED0E0A9FED060A84EDB8
:100DF0000F0A94ED240A84ED1B0A9FED020A84ED8C
:100E00001C0A10BD0000000010B504469FED270A23
:100E1000204601F083FC9FED250A04F1240000F038
:100E2000FBFA9FED220A84ED0C0AB7EE000A84ED6E
:100E30000D0A9FED1E0A84ED0E0A9FED1C0A84ED3B
:100E40000F0A002020656065A065E065D4E92501F2
:100E5000B0FBF1F040082066B7EE000A84ED190AF5
:100E60009FED120A84ED1A0A9FED100A84ED1B0A09
:100E70009FED0E0A84ED1C0A9FED0C0A84ED1D0AFD
:100E80009FED0A0A84ED1E0A9FED080A84ED1F0AF1
:100E90009FED060A84ED200A9FED040A84ED210AE5
:100EA0009FED020A84ED220A10BD00000000000040
:100EB00010B504469FED110A204601F02FFC9FED6E
:100EC0000F0A04F1240000F0A7FA9FED0C0A84ED4C
:100ED0000C0AB7EE000A84ED0D0A9FED080A84EDB6
:100EE0000E0A9FED060A84ED0F0A9FED040A84EDB9
:100EF0001A0A9FED020A84ED1B0A10BD00000000D3
:100F000010B504460020A062E0629FED3F0A04F1A4
:100F1000100000F081FA9FED3C0A04F11C0000F083
:100F20007BFA9FED390A683404ED1A0AB7EE000A1D
:100F300004ED190A9FED340A04ED180A9FED320AF8
:100F400004ED170A9FED300A04ED0C0A9FED2E0AFE
:100F500004ED0B0A9FED2C0A04ED0A0A9FED2A0A04
:100F600004ED090A9FED280A84ED030A9FED260A85
:100F700084ED040A00206061D4E91E01B0FBF1F0A9
:100F80004008A061B7EE000A84ED070A9FED1E0A33
:100F900084ED080A9FED1C0A84ED090A9FED1A0AE8
:100FA00084ED0A0A9FED180A84ED0B0A9FED160ADC
:100FB00084ED0C0A9FED140A84ED0D0A9FED120AD0
:100FC00084ED0E0A9FED100A84ED0F0A9FED0E0AC4
:100FD00084ED100A9FED0C0A84ED150A9FED0A0AB4
:100FE00084ED160A9FED080A84ED170A9FED060AA4
:100FF00084ED180A9FED040A84ED190A9FED020A98
:1010000084ED1A0A683C10BD0000000010B52DEDFB
:10101000028B044694ED250AB1EE400AD4ED150A80
:1010200020EE200AD4ED0A0A94ED261A60EE810A19
:1010300094ED161A00EEC10AD4ED240A94ED111AAB
:1010400000EE810AD4ED240A94ED191A00EEC10ACB
:10105000D4ED150A94ED1F1A41EE000AC4ED150AED
:1010600094ED250AB1EE400AD4ED160A20EE200ACE
:10107000D4ED0A0A94ED261A60EE810A94ED151A51
:1010800000EE810AD4ED240A94ED121A00EE810AD2
:10109000D4ED240A94ED1A1A00EEC10AD4ED160A12
:1010A00094ED1F1A41EE000AC4ED160A94ED150ADC
:1010B000D4ED130A30EE600A84ED170A94ED160A97
:1010C000D4ED140A30EE600A84ED180A94ED0B0A90
:1010D000B5EEC00AF1EE10FA04D294ED0B0AB1EEAF
:1010E000400A01E094ED0B0AB0EE408AB4EE000A2B
:1010F000B4EEC08AF1EE10FA08D294ED1D0AF4EEB7
:10110000000A20EE200A84ED040A23E0B5EE000A6E
:10111000B4EEC08AF1EE10FA08D294ED1D0AF5EE95
:10112000000A20EE200A84ED040A13E0B6EE000A5D
:10113000B4EEC08AF1EE10FA08D294ED1D0AF6EE74
:10114000000A20EE200A84ED040A03E094ED1D0A53
:1011500084ED040A94ED170AD4ED200AB4EEE00AF7
:10116000F1EE10FA04DD94ED200A84ED190A15E081
:1011700094ED170AD4ED200AF1EE600AB4EEE00A0D
:10118000F1EE10FA06D294ED200AB1EE400A84ED99
:10119000190A03E094ED170A84ED190A94ED180A70
:1011A000D4ED200AB4EEE00AF1EE10FA04DD94ED7D
:1011B000200A84ED1A0A15E094ED180AD4ED200AED
:1011C000F1EE600AB4EEE00AF1EE10FA06D294ED08
:1011D000200AB1EE400A84ED1A0A03E094ED180AE1
:1011E00084ED1A0A94ED000AB1EE400AD4ED190A12
:1011F00020EE200AD4ED0E0A20EE200A84ED010A2A
:1012000094ED000AD4ED1A0A20EE200AD4ED0F0A5C
:1012100020EE200A84ED020A201D01F015FA94ED5B
:10122000070A84ED0A0A04F1280000F0D2F894EDD0
:101230000D0AD4ED1E0A94ED0A1A00EE810A84ED1F
:101240000D0A07E094ED0D0AF7EE000A30EE600A91
:1012500084ED0D0A94ED0D0AF7EE000AB4EEE00AF3
:10126000F1EE10FAEEDC07E094ED0D0AF7EE000A5D
:1012700030EE200A84ED0D0A94ED0D0AB5EEC00A99
:10128000F1EE10FAF0D304F1340000F067F9BDEC90
:10129000028B10BD10B504469FED110A201D01F010
:1012A0003DFA9FED0F0A04F1280000F0B5F89FED1C
:1012B0000C0A84ED0D0AB7EE000A84ED0E0A9FEDCC
:1012C000080A84ED0F0A9FED060A84ED100A9FEDCF
:1012D000040A84ED150A9FED020A84ED160A10BD7A
:1012E0000000000090ED172AB5EEC02AF1EE10FACA
:1012F00004D290ED172AB1EE422A01E090ED172AB0
:10130000B0EE421A90ED172AB5EEC02AF1EE10FAAF
:1013100002D24FF0FF3100E0012102EE101AB8EEC8
:10132000C20A90ED182AB5EEC02AF1EE10FA04D2E6
:1013300090ED182AB1EE422A01E090ED182AF0EE65
:10134000421A90ED182AB5EEC02AF1EE10FA02D238
:101350004FF0FF3100E0012102EE101AF8EEC20A50
:1013600090ED212AB1EE422A22EE012AD0ED192A6F
:1013700002EE802AD0ED222A90ED233A72EEC32AA3
:1013800090ED0A3A23EE003A62EE832A90ED183A85
:1013900002EEC32A80ED1B2A90ED212AB1EE422AEB
:1013A00022EE212AD0ED1A2A02EEA02AD0ED222A1E
:1013B00090ED233A72EEC32A90ED0A3A23EE203ADA
:1013C00062EE832A90ED173A02EE832A80ED1C2A02
:1013D000704790ED020AD0ED000A20EE200AD0ED11
:1013E000020AB7EE001A71EE600A90ED011A00EEE3
:1013F000810A80ED010A7047C168C1F58071826879
:1014000051430368C2685A4301EB0221091281600B
:10141000816809124160704780ED010A70470A0235
:10142000826041607047F0B50A4600210023002425
:1014300000BF3DE0012505FA01F3156805EA030444
:101440009C4234D105684F000326BE40B543056079
:1014500015794E00B5400668354305601579012DB4
:1014600002D01579022D16D185684F000326BE40A3
:10147000B543856055794E00B54086683543856033
:10148000456801268E40B5434560456896798E4093
:10149000B6B235434560C5684F000326BE40B5432C
:1014A000C560D5794E00B540C6683543C560491C56
:1014B0001029BFD3F0BDF0B5002300244D07ED0E79
:1014C00002FA05F3CE1000F1200555F826504E071C
:1014D000F70E0F26BE40B543CF1000F1200646F8A8
:1014E0002750CE1000F1200555F8265045EA030498
:1014F000CE1000F1200545F82640F0BD0246002040
:1015000013690B400BB1012000E0002070470A0472
:101510008261704781617047044BDB6B0360034B52
:101520001B6C0B60014B5B6C13607047002001402B
:101530000020094948638863C8630846008C4AF65E
:10154000AA21084004490884034844300088C0F3B5
:101550000E00A1F844007047000001400146D1EDA3
:10156000002AB0EE620ADFED332A60EE222AF0EEA6
:10157000620AFDEEE02A12EE900A2F4A02EB800288
:10158000D2ED002AB0EE621A2B4B421C03EB820212
:10159000D2ED002AF0EE621A02EE900AF8EEE22A8C
:1015A00070EEE22AB0EE622A31EEC13AF0EE412A44
:1015B00042EE032AC1ED022AF5EE002A70EE222A3D
:1015C000B0EE620AF7EE002AB4EEE20AF1EE10FA8B
:1015D00005DDF7EE002A70EE622AB0EE620ADFED5A
:1015E000152A60EE222AF0EE620AFDEEE02A12EEE3
:1015F000900A114A02EB8002D2ED002AB0EE621A84
:101600000D4B421C03EB8202D2ED002AF0EE621A6F
:1016100002EE900AF8EEE22A70EEE22AB0EE622ABA
:1016200031EEC13AF0EE412A42EE032AC1ED012A21
:10163000704700000000004408000020B5EEC00A1A
:10164000F1EE10FA15DDB6EE001A20EE011AF0EEFA
:10165000410A10EE100A094901EB600000EE100A81
:1016600080EE801AF6EE001A01EE801AB0EE410A02
:1016700003E0DFED030AB0EE600A7047F51DBD1F01
:101680000000000090ED070AD0ED060AB0EE001A47
:1016900011EE200AD0ED080A30EE600ADFED090AEB
:1016A00020EE200A80ED120A90ED070AD0ED080A1C
:1016B00030EE600ADFED040A20EE200A80ED130A06
:1016C00070470000ABAAAA3E3ACD133F10B50446BE
:1016D0009FED090A84ED130A9FED070A84ED140AB1
:1016E0009FED050A204601F019F89FED030A04F169
:1016F000240001F013F810BD0000000010B50446EE
:1017000094ED120AD4ED1B0A20EE200A84ED170A8C
:1017100094ED120AD4ED1B0A20EE200A84ED180A7B
:1017200094ED170A84ED070A94ED170AB1EE400A0A
:1017300084ED080A94ED130A84ED000A94ED150A6D
:1017400084ED010A204600F07FFF94ED060A84ED47
:10175000190A94ED180A84ED100A94ED180AB1EEF6
:10176000400A84ED110A94ED140A84ED090A94EDFF
:10177000160A84ED0A0A04F1240000F065FF94EDD6
:101780000F0A84ED1A0A10BD90ED0A0AD0ED0E0A78
:1017900060EE200A90ED091A90ED0D0A00EE810A24
:1017A00080ED0D0A07E090ED0D0AF7EE000A30EE2D
:1017B000600A80ED0D0A90ED0D0AF7EE000AB4EE16
:1017C000E00AF1EE10FAEEDC07E090ED0D0AF7EE1C
:1017D000000A30EE200A80ED0D0A90ED0D0AB5EEFC
:1017E000C00AF1EE10FAF0D37047000010B50446BD
:1017F0009FED090A84ED0D0AD4ED000AB0EE600AEF
:10180000204601F03DF8D4ED050AB0EE600A04F17F
:10181000140001F035F810BD0000000010B50446BA
:10182000204600F0BBFF04F1140000F0B7FF94ED78
:101830000A0AD4ED040A20EE200A84ED0C0A10BD39
:1018400090ED090AD0ED010A20EE200AD0ED0A0A37
:1018500090ED021A00EEC10A80ED160A90ED090A19
:10186000D0ED020A20EE200AD0ED0A0A90ED011A0E
:1018700000EE810A80ED170A704790ED120AD0ED54
:10188000010A20EE200AD0ED130A90ED021A00EEB4
:10189000810A80ED140A90ED120AB1EE400AD0EDF3
:1018A000020A20EE200AD0ED130A90ED011A00EE94
:1018B000810A80ED150A704710B504469FED0C0AA9
:1018C00084ED220A9FED0A0A84ED230A9FED080A9F
:1018D000204600F023FF9FED060A04F1240000F0EB
:1018E0001DFF9FED030A04F1480000F0C9FF10BD81
:1018F0000000000010B5044694ED1B0AD4ED1C0A4C
:1019000020EE200AD4ED240AB4EEE00AF1EE10FA3B
:1019100006D294ED1B0AD4ED1C0A20EE200A01E049
:1019200094ED240AD4ED250AB4EEE00AF1EE10FAA3
:1019300016DD94ED1B0AD4ED1C0A20EE200AD4ED2E
:10194000240AB4EEE00AF1EE10FA06D294ED1B0A76
:10195000D4ED1C0A20EE200A04E094ED240A01E0F4
:1019600094ED250A84ED130A04F1480000F016FFF7
:1019700094ED160A84ED000A94ED1D0A84ED010A27
:10198000204600F061FE94ED1E0ADFED190A20EEFC
:10199000200A84ED090AD4ED1F0A60EEA00A94ED36
:1019A000201AD4ED201A41EE210AB0EE600AFFF7AA
:1019B00045FE84ED0A0A04F1240000F045FE94ED92
:1019C0000F0A84ED170A04F15C00FFF7C7FD94EDE0
:1019D000060AD4ED190A20EE200A84ED220A94EDBD
:1019E000060AD4ED180A20EE200A84ED230A10BD61
:1019F0003ACD133F9FED0C0A80ED000AB7EE000AC6
:101A000080ED010A9FED080A80ED020A9FED060AAB
:101A100080ED030A9FED040A80ED160A9FED020A8D
:101A200080ED170A70470000000000000EB59FED22
:101A3000D73AB0EE431A9FEDD53AF0EE431A9FED38
:101A4000D33AB0EE432A9FEDD13AB0EE430A9FED70
:101A5000CF3AF0EE430A9FEDCD3AF0EE432A002153
:101A600000910191029190ED173ADFEDC93A23EE12
:101A7000233AB0EE431AD0ED163AB0EE084AB0EE73
:101A8000413A14EE233AF6EE003A23EE233AD0ED33
:101A9000053A23EE233AF0EE431AD0ED163AB8EEAB
:101AA000084AB0EE413A14EE233AF6EE003A23EE3D
:101AB000233AD0ED053A23EE233AB0EE432A90EDD7
:101AC000053A23EE013AB0EE431A80F84410B5EE21
:101AD000C01AF1EE10FA04DD90F84410491C80F8A9
:101AE0004410F5EEC01AF1EE10FA04DD90F844103F
:101AF000891C80F84410B5EEC02AF1EE10FA04DD1E
:101B000090F84410091D80F8441090F844100729FB
:101B10002FD2DFE801F02E09250417122000B0EEC5
:101B2000610AF0EE410A25E0B1EE613AB0EE430AF7
:101B3000B1EE423AF0EE430A1CE0B0EE410AF0EE9C
:101B4000420A17E0B1EE413AB0EE430AB1EE613A13
:101B5000F0EE430A0EE0B0EE420AF0EE610A09E050
:101B6000B1EE423AB0EE430AB1EE413AF0EE430A2A
:101B700000E000BF00BF30EE203AF0EE432A90EDC7
:101B80001B3AB4EEE23AF1EE10FA0DD290ED1B3AA8
:101B900023EE003AC3EE223AB0EE630A90ED1B3A10
:101BA00033EE403AF0EE430A90F8441007296FD222
:101BB000DFE801F0A51F8A0453386F00F0EE003A09
:101BC000B0EE603A03EE803ADFED723A23EE233A4C
:101BD000D0ED043A23EE233A80ED163A9FED6E3AAB
:101BE00020EE833AD0ED043A23EE233A80ED173A03
:101BF00086E030EEC03ADFED673A23EE233AD0EDCF
:101C0000043A23EE233A80ED163A30EE203ADFED27
:101C1000623A23EE233AD0ED043A23EE233A80EDE4
:101C2000173A6DE0F8EE003AB0EE403A13EEA03A03
:101C3000DFED583A23EE233AD0ED043A23EE233A6F
:101C400080ED163A9FED543A20EE033AD0ED043A77
:101C500023EE233A80ED173A52E0F8EE003AB0EE68
:101C6000403A13EEA03ADFED4B3A23EE233AD0EDA3
:101C7000043A23EE233A80ED163A9FED483A20EEDF
:101C8000033AD0ED043A23EE233A80ED173A37E0D9
:101C900035E030EEC03ADFED3F3A23EE233AD0EDA7
:101CA000043A23EE233A80ED163AB1EE403A33EE91
:101CB000603ADFED393A23EE233AD0ED043A23EED1
:101CC000233A80ED173A1BE0F0EE003AB0EE603AAE
:101CD00003EE803ADFED2F3A23EE233AD0ED043ABB
:101CE00023EE233A80ED163A9FED2C3A20EE833A0C
:101CF000D0ED043A23EE233A80ED173A00E000BF1E
:101D000000BF443090ED0A3A33EE403A33EE603A89
:101D1000F5EE003A23EE233AD0ED0B3AB6EE004A48
:101D200004EE233A8DED003A9DED003AF6EE003ACE
:101D300003EE803A8DED013A9DED013AF6EE003A60
:101D400003EEA03A8DED023A0178154A515C6A46DD
:101D500002EB810191ED003A80ED073A02781049DB
:101D60000831895C6A4602EB810191ED003A80ED11
:101D7000083A02780A491031895C6A4602EB81010F
:101D800091ED003A80ED093A44380EBD00000000A4
:101D9000D7B3DD3FABAAAA3E3ACD133F3ACD13BF2E
:101DA0001008002010B504469FED090A84ED0D0AC5
:101DB000D4ED000AB0EE600A204600F061FDD4EDDB
:101DC000050AB0EE600A04F1140000F059FD10BDE0
:101DD00000000000014600208B694A689A4215D233
:101DE0008B698A689A4211D28B69CA689A420DD26D
:101DF0000A69521C0A610A69521C0A61CB699A423B
:101E000004D10A6822F00202921C0A604A69521C3C
:101E10004A610B6A4A699A4204D10A6822F00402B4
:101E2000121D0A600A78C2F340022AB10A6822F041
:101E300001020A60012008E00A78C2F3800222B1A0
:101E40000A6822F001020A60022070470146002061
:101E50000A7802F001024AB900220A600A614A6166
:101E60000A6822F00102521C0A6000E0012070475B
:101E700070B504460025D4E90901884211D8002034
:101E8000E061D4E9090188422DD1E06A20B1201D2A
:101E9000616800F0F8FC26E0206B20B3606BE06125
:101EA00021E0D4E90A010844616A884207D301208D
:101EB0002062201D00F0BFFCA069E06113E0D4E9BE
:101EC0000A010844216B0844616A884204D3012056
:101ED0002062606BE06106E000206062206820F014
:101EE0000200801C20602078C0F3400020B12068F0
:101EF00020F0010020600125606A401C60622846D5
:101F000070BD014600200A7802F0010252B9002299
:101F10000A604A62CA610A620A6822F00102521C1F
:101F20000A6000E001207047014600200A7802F0B4
:101F300001026AB900220A60CA620A614A618A61C2
:101F40004A628A620A6822F00102521C0A6000E0BA
:101F500001207047014600204B680A691A440A6153
:101F60008B684A691A444A61CB688A691A448A6153
:101F7000CA6A521CCA628B6BCA6A9A4231D1CB6A56
:101F80000A69B2FBF3F20A61CB6A4A69B2FBF3F267
:101F90004A61CB6A8A69B2FBF3F28A610B6B0A6908
:101FA0009A4213D84B6B0A699A420FD30B6B4A695A
:101FB0009A420BD84B6B4A699A4207D30B6B8A69DA
:101FC0009A4203D84B6B8A699A4205D20A6822F07A
:101FD0000402121D0A6004E00A6822F00202921C48
:101FE0000A600A78C2F340022AB10A6822F00102AC
:101FF0000A60012008E00A78C2F3800222B10A6870
:1020000022F001020A600220704710B5044694F8DD
:10201000240000F00100F0B104F5B470FFF716FFE2
:1020200001281DD104F5B470FFF7D4FE20B10128BA
:1020300003D002280DD106E00CE0FFF779FA042066
:1020400084F8200006E0FFF773FA002084F82000EF
:1020500000E000BF04E0FFF76BFA002084F82000E6
:1020600010BD10B5044694F8240000F0010028B11A
:10207000FFF75EFA002084F8200006E004F5C8703F
:10208000FFF73FFF012800D100BF10BD10B5044687
:1020900004F5AD6090ED0B0A84EDE50A04F5487097
:1020A000FFF728FC94EDEA0A04F56E7080ED130A40
:1020B00094EDEB0A80ED140A10BD70B5044604F5EA
:1020C000007004F5AD61D1E90E354A6B096CC0E9C9
:1020D00019350266C1666030FFF7CFFB94EDAC0A9C
:1020E00004F56E7080ED150A94EDAD0A80ED160AC8
:1020F000FFF704FB04F56E7090ED190A84EDA10A58
:1021000090ED1A0A84EDA20A70BD000010B50446D5
:10211000A06A08B10020606294F82000024A52F8D8
:1021200020102046884710BDCC0E002010B5044674
:1021300004F5F070FFF728FB94ED850A84ED980A0A
:1021400004F51870FFF70AFA04F51870FFF795FB0D
:1021500094EDAC0A04F56E7080ED150A94EDAD0AAD
:1021600080ED160AFFF7CAFA04F56E7090ED190AB1
:1021700084EDA10A90ED1A0A84EDA20A10BD10B5F3
:10218000044694F8240000F0010018B1052084F8FA
:10219000200004E0FFF7CCF9002084F8200010BDF7
:1021A0003EB5044694F8240000F00100002852D007
:1021B00000BF002000906A4601A902A8FFF7ACF911
:1021C0000298C4F830010198C4F834010098C4F8AA
:1021D000380100BF04F59670FFF7A6FE012837D13D
:1021E00004F59670FFF7B6FE20B1012803D002284F
:1021F0002CD122E02BE094ED4F0AB8EEC00A84ED1A
:10220000A60A94ED500AB8EEC00A84EDA70A94ED30
:10221000510AB8EEC00A84EDA80A94ED540AB8EE4B
:10222000C00A84EDBE0A94ED550AB8EEC00A84EDEA
:10223000BF0A022084F8200009E0A06A20F0010013
:10224000401CA062002084F8200000E000BF07E0EE
:10225000FFF76EF904E0FFF76BF9002084F8200027
:102260003EBD000010B5044604F5AD6090ED0B0ACC
:1022700084EDE50A04F5F070FFF7D0FA94ED840AD6
:1022800004F56E7080ED130A9FED200A80ED140AAC
:102290004FF4E6700059401C4FF4E6710851091DD7
:1022A0000959884230D394EDE30AD4EDE50A20EED3
:1022B000200AD4ED750AB4EEE00AF1EE10FA20DB44
:1022C000D4F8C801401C4FF4EC71C4F8C801095996
:1022D000884219D300214FF4E67001510020C4F860
:1022E000C801D4EDE50AB0EE001A60EE810AB0EE46
:1022F000600A04F55A7000F0C3FA012084F8210046
:1023000002E00020C4F8C80110BD00000000000079
:1023100010B5044694F8240000F0010018B105201F
:1023200084F8200004E0FFF703F9002084F820007F
:1023300010BD10B5044694F8240000F001000028F8
:102340003ED00020C4F8C80100214FF4E6700151CE
:102350004FF4EE70015104F5F070FFF747FA04F501
:102360000870FFF71FFD04F51870FFF743FB04F535
:102370004870FFF7A1FA04F56E70FFF7A7F904F1B2
:102380002C00FEF7BDFD04F58560FEF73DFD04F56C
:102390009A60FEF711FD04F5AD60FEF77BFF04F2D5
:1023A0000460FEF785FD002084F82100D4F8900138
:1023B00020F00100C4F89001012084F8200001E021
:1023C000FFF7B6F810BD000010B5044694F82400DD
:1023D00000F0010000284BD004F5187000F050F810
:1023E00004F51870FFF74EF994F8210010B9204653
:1023F000FFF79CFE94EDE30A04F5806080ED5A0A35
:1024000094EDAA0A04F5AD6080ED130A94EDAB0AD1
:1024100080ED140A94EDAE0A80ED110A94EDAF0A36
:1024200080ED120AFEF7F2FD04F5AD60FEF75AFFEB
:1024300094F82100012802D12046FFF73EFE04F562
:102440001870FFF7FDF904F5187000F059F800BF97
:102450000A48008C45F2555108430849088407484A
:102460004430008840F40040A1F8440000BF04E07C
:10247000FFF75EF8062084F8200010BD0000014040
:102480003EB50446002000906A4601A902A8FFF765
:1024900043F89DED020AB8EEC00A84ED0B0A9DEDEB
:1024A000010AB8EEC00A84ED0C0A9DED000AB8EEF0
:1024B000C00A84ED0D0A94ED0E0AD4ED0B0A30EE3D
:1024C000600AD4ED1F0A20EE200A84ED060A94ED7E
:1024D0000F0AD4ED0C0A30EE600AD4ED1F0A20EE8C
:1024E000200A84ED070A94ED100AD4ED0D0A30EEAF
:1024F000600AD4ED1F0A20EE200A84ED080A3EBDD2
:1025000010B52DED048B04469FED190AB0EE409AEC
:102510001848FFF78BFA184890EDB80AD0EDB00ACA
:1025200020EE200AB0EE408A90EDB80AD0EDB10A54
:1025300020EE200AF0EE408A90EDB80AD0EDB20A03
:1025400020EE200AB0EE409ABCEEC80A10EE100A47
:10255000BCEEE80A10EE101ABCEEC90A10EE102A02
:10256000064B58639963DA6300BFBDEC048B10BD62
:1025700000000000A00A00204008002000000140E8
:1025800010B5044694F82000052807D194F82100DE
:10259000094A52F82010204688470CE094F82000A1
:1025A000062808D104F5C870FFF762FC012802D1A3
:1025B000002084F8200010BDE80E002070B5002136
:1025C00000230F22C4781CB3174C246804F4E06481
:1025D000C4F5E064C4F30721C1F10404E3B20A4185
:1025E00044789C40E1B28478144021430C07210ECA
:1025F0000E4C05786155047804F01F050124AC40A9
:1026000005786D11AD0005F1E025C5F8004109E040
:10261000047804F01F050124AC40054D06787611BE
:1026200045F8264070BD00000CED00E000E400E03D
:1026300080E100E002490143024A11607047000056
:102640000000FA050CED00E0D0ED000A90ED011A53
:1026500070EEC10AB0EE600AD0ED050A90ED031AE3
:1026600041EE000AC0ED050AD0ED050A90ED071A0B
:10267000F4EEC10AF1EE10FA02D2D0ED050A01E043
:10268000D0ED070A90ED081AF4EEC10AF1EE10FA47
:102690000EDDD0ED050A90ED071AF4EEC10AF1EE59
:1026A00010FA02D2D0ED050A04E0D0ED070A01E0ED
:1026B000D0ED080AC0ED050AD0ED050A90ED021A2A
:1026C00041EE000AC0ED060AD0ED060A90ED071AA9
:1026D000F4EEC10AF1EE10FA02D2D0ED060A01E0E2
:1026E000D0ED070A90ED081AF4EEC10AF1EE10FAE7
:1026F0000EDDD0ED060A90ED071AF4EEC10AF1EEF8
:1027000010FA02D2D0ED060A04E0D0ED070A01E08B
:10271000D0ED080AC0ED060A70470000DFED060A9A
:10272000C0ED000ADFED040AC0ED010A80ED050AE4
:1027300080ED060A704700000000000029B1064A3B
:1027400012680243044B1A6004E0034A1268824391
:10275000014B1A60704700003038024029B1064A28
:1027600012680243044B1A6004E0034A1268824371
:10277000014B1A60704700004038024029B1064AF8
:1027800012680243044B1A6004E0034A1268824351
:10279000014B1A60704700004438024090ED010A76
:1027A000D0ED040AB4EEE00AF1EE10FA1ADD90ED75
:1027B000040AD0ED020A30EE200AD0ED010AB4EE90
:1027C000E00AF1EE10FA08D290ED040AD0ED020A08
:1027D00030EE200A80ED040A2CE090ED010A80ED35
:1027E000040A27E090ED010AD0ED040AB4EEE00AF5
:1027F000F1EE10FA1AD290ED040AD0ED030A30EE91
:10280000200AD0ED010AB4EEE00AF1EE10FA08DD7C
:1028100090ED040AD0ED030A30EE200A80ED040AA0
:1028200008E090ED010A80ED040A03E090ED010A52
:1028300080ED040A70474268910202698A420BDA0D
:10284000836802691A448A4204DA836802691A4476
:10285000026111E001610FE002698A420BDDD0E9FB
:1028600003321A448A4204DDD0E903321A44026179
:1028700002E0016100E00161026992124261704769
:1028800080ED040A70478A020261416170470000CE
:102890000CB50020019000903348006840F480306F
:1028A0003149086000BF3048006800F400300090F3
:1028B0000198401C0190009818B90198B0F5A04FFC
:1028C000F1D12948006800F4003010B101200090D7
:1028D00001E0002000900098012844D122484030B7
:1028E000006840F080502049403108601F4800686F
:1028F00040F440401D4908601B48083000681A49F0
:10290000083108600846006808600846006840F41E
:10291000A05008601648091F0860081F006840F0B2
:102920008070091F086000BF0F48006800F0007049
:102930000028F9D040F205700E4908600A480830B6
:10294000006820F003000849083108600846006864
:1029500040F00200086000BF03480830006800F043
:102960000C000828F8D10CBD00380240007000406F
:1029700008544007003C024010B502461A481B4963
:10298000537863B3137AC3F3C0037BB9D36D046880
:10299000A34208D383685B1C83604468A34207D3C7
:1029A0000023836004E00023836001E00023836050
:1029B000137AC3F300137BB9D36D0C68A34208D814
:1029C0008B685B1C8B604C68A3420BD300238B602D
:1029D00008E000238B6005E000238B6002E0002309
:1029E00083608B6010BD0000400F00204C0F002062
:1029F00030B51349481EB0F1807F01D301201BE0A0
:102A0000481E4FF0E022506150170F22002807DACD
:102A100013071D0E0B4B00F00F04241F1D5503E080
:102A200013071C0E084B1C5400BF00204FF0E0227F
:102A3000906107201061002008B100BFFEE730BDA3
:102A40004090020018ED00E000E400E010B50548F9
:102A500000F06AF9034800F077F80348FFF790FDAB
:102A600010BD0000580F00204008002010B5154888
:102A7000006840F47000134908601348006840F093
:102A800001001149086000200F49083108600E4814
:102A900000680E4908400C4908600D48091D08608F
:102AA000081F006820F48020091F086000200649E4
:102AB0000C310860FFF7ECFE4FF0006001498039EF
:102AC000086010BD88ED00E000380240FFFFF6FE10
:102AD0001030002410B50446207900F00100A8B1A0
:102AE00021460B48FEF7A8F82046FEF7E9F82046F5
:102AF000FFF742FF204600F00FFB204600F048FBA6
:102B000000BF00BF606820F00100606010BD0000E1
:102B1000F00E002070B5044600250A48856CE5607B
:102B200040F6FF75E5620025E56104F10C00FEF753
:102B300063FC04F12C00FEF75FFC04F11C00FEF7BF
:102B40005BFC70BD0020014010B504462046FFF735
:102B5000E1FF00BF604991EDA20ADFED600A20EEBF
:102B6000200ABDEEC00A10EE100A9FED5D0A81ED4D
:102B7000A20A00BF20652169606E4843801260652B
:102B80004FF47A61E06C48438013A06500BF55485C
:102B900090EDE50ADFED540A20EE200ABDEEC00AF2
:102BA00084ED170A206A20660120F7EE000AB0EED5
:102BB000600A411C19B9FFEE000AB0EE600A4949EB
:102BC00081EDE30A81ED820A81ED920A00BFD4ED26
:102BD000040A084690EDB61AF8EEE01A21EE211A22
:102BE000B0EE410A80ED9C0AB7EE001AC1EE001A61
:102BF000C0ED9D1A80EDE60A00F56E7080ED120AB8
:102C000000BF94ED160AF8EEC00AB0EE001A20EEEE
:102C1000811ADFED361AC1EE210A9FED351AC0EE9A
:102C2000811A0846C0EDE41A00BF00BF806A20B1D7
:102C3000A06820F00100401CA060607830B101283D
:102C400012D002281CD0032833D125E0E06E401CAE
:102C5000E066A16E884206D30020E066204600F0C0
:102C600049F80120607025E0A06810B10320607071
:102C700005E02079C0F3400008B10220607019E03F
:102C8000A06810B10320607005E02079C0F3400017
:102C900008B9012060700DE02079C0F3400038B918
:102CA0000020A06000BF0F49886200BF0120607053
:102CB00000E000BF00BF6078022805D100BF0120FE
:102CC0000849486200BF05E000BF0020054948628E
:102CD00000BF00BF10BD0000400C00200000804677
:102CE000000000004008002000007A45000070420B
:102CF0005555054370B5044600250A48856C29469C
:102D000004F10C00FEF78BFB40F6FF75294604F139
:102D10002C00FEF784FB0025294604F11C00FEF779
:102D20007EFB70BD002001400178491CC9B20170D2
:102D30000A2910D300210170017901F0010129B99C
:102D4000416821F00101491C416004E0816821F0E3
:102D50000201891C8160704710B580210C4800F089
:102D600040F800BF00200A4948638863C8630846EA
:102D7000008C4AF6AA2108400549088404484430DA
:102D80000088C0F30E00A1F8440000BF10BD000091
:102D90000000014010B50121880700F043F818B188
:102DA0000121880700F01DF810BD21B1028842F012
:102DB0008002028004E002884FF67F731A4002808E
:102DC00070470A884B881A438B881A43CB881A436A
:102DD0000B891A434B891A438B891A43A0F8442064
:102DE0007047CA4302827047CA430282704721B1CA
:102DF000028842F00102028004E002884FF6FE736E
:102E00001A400280704731B1B0F8442042F40042C9
:102E1000A0F8442005E0B0F84420C2F30E02A0F868
:102E20004420704702460020138A0B400BB101205A
:102E300000E0002070471AB183890B43838102E0D0
:102E400083898B438381704770B50024002200235F
:102E5000058C4FF6FE7635400584028C8388048B02
:102E60004FF68F752C40B51E2C400D882C43751ED7
:102E70002A408D892A434D882A43104DA84202D00A
:102E80000F4DA84213D14FF6F7752A40CD892A433A
:102E90004FF6FB752A408D882A434FF6FF652B407D
:102EA0004FF6FF552B400D8A2B434D8A2B438380D1
:102EB00004838D684563028470BD000000000140FA
:102EC0000004014070B5002400220023058C4FF659
:102ED000EF7635400584028C8388048B48F6FF75B5
:102EE0002C404FF6FF452C400D884FF6FF7606EA42
:102EF00005252C434FF6DF752A408D8906EA051516
:102F00002A434D8806EA05152A43154DA84202D0EA
:102F1000144DA8421DD14FF67F752A40CD894FF63A
:102F2000FF7606EA05152A434FF6BF752A408D88BD
:102F300006EA05152A434FF6FF352B404FF2FF7581
:102F40002B400D8A06EA85052B434D8A06EA850546
:102F50002B43838004838D688563028470BD0000E9
:102F6000000001400004014070B50024002200234D
:102F7000058C4FF6FF6635400584028C8388848B70
:102F80004FF68F752C404FF6FC752C400D882C4366
:102F90004FF6FF552A408D894FF6FF7606EA052544
:102FA0002A434D8806EA05252A43154DA84202D03A
:102FB000144DA8421DD14FF2FF752A40CD894FF61E
:102FC000FF7606EA05252A434FF6FF352A408D880D
:102FD00006EA05252A434EF6FF752B404DF6FF7590
:102FE0002B400D8A06EA05152B434D8A06EA051586
:102FF0002B43838084838D68C563028470BD000089
:10300000000001400004014070B5002200230024AC
:10301000058C4EF6FF7635400584038C8488828BC0
:1030200048F6FF752A404FF6FF452A400D884FF6B7
:10303000FF7606EA05252A434DF6FF752B408D895C
:1030400006EA05352B434D8806EA05352B430A4D24
:10305000A84202D0094DA84208D14BF6FF752C407A
:103060000D8A4FF6FF7606EA85152C43848082830D
:103070008D680564038470BD0000014000040140B8
:1030800082884FF68F731A40828082880A4382803A
:103090007047000000220288184B98420ED0184B4F
:1030A00098420BD0B0F1804F08D0164B984205D013
:1030B000154B984202D0154B984204D14FF68F73AE
:1030C0001A404B881A43124B984207D0114B984232
:1030D00004D04FF6FF431A400B891A4302804B6815
:1030E000C3620B880385054B984202D0044B98427B
:1030F00001D18B7A0386012383827047000001404F
:10310000000401400004004000080040000C0040A2
:10311000001000400014004010B502461A481B4938
:10312000537863B3137AC3F3C0137BB9136E046887
:10313000A34208D383685B1C83604468A34207D31F
:103140000023836004E00023836001E000238360A8
:103150001389C3F300237BB9136E0C68A34208D80C
:103160008B685B1C8B604C68A3420BD300238B6085
:1031700008E000238B6005E000238B6002E0002361
:1031800083608B6010BD0000C80F0020D40F0020AA
:1031900010B502461A481B49537863B3137AC3F338
:1031A00040137BB9536D0468A34208D383685B1C4A
:1031B00083604468A34207D30023836004E00023B4
:1031C000836001E000238360137AC3F380137BB92B
:1031D000536D0C68A34208D88B685B1C8B604C68ED
:1031E000A3420BD300238B6008E000238B6005E033
:1031F00000238B6002E0002383608B6010BD000021
:10320000E00F0020EC0F002072B6FDF755FAFDF735
:10321000C1FAFDF78DFAFDF7EBF9FDF781FCFDF73B
:10322000F3FCFDF743FC62B600BF0248FFF752FC17
:10323000FBE70000580F00204FF04070E1EE100A4D
:10324000704700006432000800000020F80F000002
:10325000C4010008D03A0008F80F00206006000002
:103260002802000892000100FF00920E493CB10ABA
:10327000C93C2BC3163D2EFB483D752B7B3D04A955
:10328000963D80B6AF3D36BDC83D2FBCE13D73B223
:10329000FA3D87CF093E8340163EB5AB223EA210D1
:1032A0002F3ECF6E3B3EC2C5473E0115543E135CD8
:1032B000603E7F9A6C3ECCCF783EC07D823E938E3E
:1032C000883E229A8E3E32A0943E86A09A3EE59A8F
:1032D000A03E128FA63ED47CAC3EEF63B23E2A44A1
:1032E000B83E491DBE3E15EFC33E53B9C93ECA7B29
:1032F000CF3E4136D53E80E8DA3E4F92E03E753310
:10330000E63EBBCBEB3EEA5AF13ECBE0F63E275D14
:10331000FC3EE4E7003F3D9C033F824B063F9BF5AC
:10332000083F6B9A0B3FDA390E3FCDD3103F2A6826
:10333000133FD9F6153FC07F183FC6021B3FD17F10
:103340001D3FCBF61F3F9967223F25D2243F5636BB
:10335000273F1594293F4AEB2B3FDE3B2E3FBB8591
:10336000303FC9C8323FF30400FF00353F233A37EE
:103370003F4268393F3B8F3B3FF9AE3D3F67C73F18
:103380003F70D8413F01E2433F03E4453F65DE47DC
:103390003F12D1493FF8BB4B3F029F4D3F207A4F30
:1033A0003F3D4D513F4918533F31DB543FE5955662
:1033B0003F5348583F6AF2593F1A945B3F532D5D83
:1033C0003F05BE5E3F2146603F97C5613F5A3C6363
:1033D0003F59AA643F880F663FD86B673F3CBF6880
:1033E0003FA7096A3F0C4B6B3F5E836C3F93B26D06
:1033F0003F9ED86E3F73F56F3F0809713F521372BD
:103400003F4714733FDD0B743F0BFA743FC6DE7504
:103410003F07BA763FC58B773FF853783F981279CC
:103420003F9DC7793F02737A3FBE147B3FCDAC7B93
:103430003F283B7C3FC9BF7C3FAC3A7D3FCCAB7D56
:103440003F23137E3FB0707E3F6DC47E3F580E7F9A
:103450003F6D4E7F3FAB847F3F0FB17F3F97D37F60
:103460003F43EC7F3F11FB7F3F3004000080082189
:10347000102118212021282130313842C448215000
:103480002158216021682170217821802188219094
:10349000219821A021A821B021B821C021C821D084
:1034A00021D821E021E821F021F825002508251068
:1034B0002518252025282530253825402548255044
:1034C0002558256025682570257825802588259034
:1034D000259825A025A825B025B825C025C825D024
:1034E00025D825E025E825F025F829002908291008
:1034F00029182920292829302938294029482950E4
:1035000029582960296829702978298029882990D3
:10351000299829A029A829B029B829C029C829D0C3
:1035200029D829E029E829F029F82D00032D0803DE
:103530002D10032D18032D20032D28032D30032DCE
:1035400038032D40032D48032D50032D58032D60C3
:10355000032D68032D70032D78032D80032D880320
:103560002D90032D98032DA0032DA8032DB0032D1E
:10357000B8032DC0032DC8032DD0032DD8032DE093
:10358000032DE8032DF0032DF8035D000412BC1099
:1035900012BC181EBD000412BD281EBD00041EBDB5
:1035A000000412BD401EBD00041EBD00041EBD006F
:1035B000041EBE00041EBE00041EBE00041EBE008B
:1035C0000412BE8012BE881EBE00041EBE00041E71
:1035D000BE000412BEA812BEB012BEB81EBE0004C9
:1035E0001EBE000412BED012BED81EBE000412BE03
:1035F000E812BEF012BEF81EBE00041EBE00041685
:10360000BE1016BE181EBE000416BE281EBE000444
:103610001EBE00041EBE000416BE481EBE00041ED0
:10362000BE000416BF601EBF000416BF701EBF00A0
:10363000041EBF000416BF881EBF00041EBF000486
:1036400016BFA01EBF00041EBF000416BFB816BFE1
:10365000C016BFC816BFD016BFD81EBF00041EBFFD
:10366000000416BFF01EBF00041ABF001ABF081ED8
:10367000BF00041EBF00041EBF00041ABF281ABFEB
:10368000301ABF381EBF00041EBF00041EBF000456
:103690001ABF581ABF601EBF00041EBF00041ABF25
:1036A000781EBF00041EBF00041ABF901ABF981AEC
:1036B000BFA01ABFA81ABFB01EBF00041EBF0004DF
:1036C0001ABFC81EBF00041EBF00041ABFE01ABF05
:1036D000E81ABFF01ABFF81EBF00041EBF00041E88
:1036E000BF10031EBF18031EBF20031EBF00041E11
:1036F000BF00041EBF38031EBF40031EBF48031E89
:10370000BF50031EBF00041EBF60031EBF68031E20
:10371000BF70031EBF00041EBF00041EBF88031E2F
:10372000BF90031EBF00041EBF00041EBFA8031EDF
:10373000BFB0031EBF00041EBFC0031EBFC8031ED0
:10374000BF00041EBFD8031EBFE0031EBF00041E3F
:10375000BFF0031EBFF8031EBF0004310821102173
:1037600018212021282130313842C44821502158C5
:103770002160216821702178218021882190219861
:1037800021A021A821B021B821C021C821D021D851
:1037900021E021E821F021F8250025082510251831
:1037A0002520252825302538254025482550255811
:1037B0002560256825702578258025882590259801
:1037C00025A025A825B025B825C025C825D025D8F1
:1037D00025E025E825F025F82900290829102918D1
:1037E00029202928293029382940294829502958B1
:1037F00029602968297029782980298829902998A1
:1038000029A029A829B029B829C029C829D029D890
:1038100029E029E829F029F82D00032D08032D10AF
:10382000032D18032D20032D28032D30032D3803DD
:103830002D40032D48032D50032D58032D60032DDB
:1038400068032D70032D78032D80032D88032D90A0
:10385000032D98032DA0032DA8032DB0032DB8032D
:103860002DC0032DC8032DD0032DD8032DE0032D2B
:10387000E8032DF0032DF8031DFF073E8005081017
:1038800006010000020205200700020101000207F4
:10389000220214210B12010B110632021133010214
:1038A0001F0022210000254201005C4155550543BF
:1038B00084705144FFFF3F40F9AE6A3B5FAE493D23
:1038C00090C2F53B0001000512CDCC4C3D0C011E11
:1038D00038100C8988083C5177563D09F294042031
:1038E00007143ED00700000400046F1027000110E9
:1038F0000612E29E3D100816084900054252B87EA5
:103900003F54040A19D006000040050000140412B8
:10391000327C160A0C5388137D1180100633030085
:1039200000663C1004AE47018C0712FEFF3C566453
:103930007022C8BD861054214890066766E63D3265
:10394000DC255C1005400874370466B7A810099A96
:1039500099193E53491D38040616B89C2005457632
:10396000743E5F10090C98463D365CCB370401333A
:10397000400566C4201146B6733FA69B443D6F12B6
:10398000033D0108003A0404054200102446CCBC63
:103990000889641C3E71A63E100310050D6BDF3EC6
:1039A000040A2ABE141005A79B443A040236BA88BA
:1039B0002DA8031DAC036AC36408091AEA14363F34
:1039C0004341053C88012224011A407C04DAAC2AD8
:1039D0001003E008ABAA2A408AC3E4701A408B0E99
:1039E00032C004040534EA6F2041B0034204801D54
:1039F000000B2BC842746518000863ECC91840CF4F
:103A0000CCCCA8616C6DD004BC1462539E3EB40F44
:103A10009F3D8FC6F23DA692AB3E7CFAE5140500B1
:103A2000085F02003040A7E9EB9C216461941DA46B
:103A30000531949814C6E5D93DACD3053EF2611624
:103A4000411DE03A3FA8D369C000075EA0400BD7F4
:103A5000233A986194280CEDF80641C5B9273F3008
:103A6000EB3440100B0033230008A12100087F0431
:103A700010060B200008111012C91412630C100656
:103A8000652200088D085E6434055FD80EFC040EC4
:103A900018406C034FA28B5C052D04038FE8A23401
:103AA000051E2E7E035FE803350F73900118294D24
:103AB0000A1D647A023D1910B90882208821086D18
:103AC000D4058FDC05E00583712BC483830F0C00C4
:040000050800018965
:00000001FF
