:020000040800F2
:10000000F02F00208D0200089502000897020008DA
:10001000990200089B0200089D02000800000000F1
:100020000000000000000000000000009F02000827
:10003000A102000800000000A3020008BD12000891
:10004000A7020008A7020008A7020008A7020008EC
:10005000A7020008A7020008A7020008A7020008DC
:10006000A7020008A7020008A7020008A7020008CC
:10007000A7020008A7020008A7020008A7020008BC
:10008000A7020008A7020008491B0020A7020008D9
:10009000A7020008A7020008A7020008A70200089C
:1000A000D5150008A7020008A7020008A70200084B
:1000B000E9150008A7020008A7020008A702000827
:1000C000A7020008A7020008A7020008A70200086C
:1000D000A7020008A7020008A7020008A70200085C
:1000E000A7020008A7020008A7020008A70200084C
:1000F000A7020008A7020008A7020008A70200083C
:10010000A7020008A7020008A7020008A70200082B
:10011000A7020008A7020008A7020008A70200081B
:10012000A7020008A7020008A7020008A70200080B
:10013000A7020008A7020008A7020008A7020008FB
:10014000A7020008A7020008A7020008A7020008EB
:10015000A7020008A7020008A7020008A7020008DB
:10016000A7020008A7020008A7020008A7020008CB
:10017000A7020008A7020008A7020008A7020008BB
:10018000A7020008A702000800F002F800F06EF8CD
:100190000AA090E8000C82448344AAF10107DA45E2
:1001A00001D100F063F8AFF2090EBAE80F0013F0C6
:1001B000010F18BFFB1A43F001031847EC170000AA
:1001C0001C18000010F8013B0A4413F0030408BF98
:1001D00010F8014B1D1108BF10F8015B641E05D01B
:1001E00010F8016B641E01F8016BF9D1002D15D0D8
:1001F00010F8014B03F00C030C2BA1EB04040ABF15
:1002000010F8013BA4EB8314A4EB032405F10103D4
:1002100014F8016B5B1E01F8016BF9D5914238BFF0
:1002200010F8013BD1D37047103A24BF78C878C189
:10023000FAD8520724BF30C830C144BF04680C60EC
:10024000704700000023002400250026103A28BF34
:1002500078C1FBD8520728BF30C148BF0B60704738
:100260001FB501F09BFB1FBD10B510BD00F037F8A6
:100270001146FFF7F5FF01F079FB00F055F803B4E4
:10028000FFF7F2FF03BC00F059F80000094880476F
:1002900009480047FEE7FEE7FEE7FEE7FEE7FEE768
:1002A000FEE7FEE7FEE7FEE704480549054A064B80
:1002B00070470000DD12000889010008F0290020C5
:1002C000F02F0020F02B0020F02B0020704770470B
:1002D000704700000048704790290020704775461D
:1002E000FFF7F8FFAE4605006946534620F00700C9
:1002F000854618B020B5FFF7D7FFBDE820404FF086
:1003000000064FF000074FF000084FF0000B21F0FF
:100310000701AC46ACE8C009ACE8C009ACE8C009CC
:10032000ACE8C0098D46704710B50446AFF30080B5
:100330002046BDE81040FFF7A2BF00000149182089
:10034000ABBEFEE72600020040F2070CC2F2000C32
:10035000604740F2E70CC2F2000C604740F2C93C33
:10036000C2F2000C604740F2B91CC2F2000C6047B8
:1003700040F2A70CC2F2000C604740F2A10CC2F29E
:10038000000C604741F6213CC2F2000C6047CA43B2
:100390000260704700220A12D3430360704721B104
:1003A000826842F00102826003E0826822F001026A
:1003B000826070470021084A1168084A1140D0E95C
:1003C00000231A4383681A43C3681A431143044A3B
:1003D000C2F804137047000004230140E030FCFF22
:1003E000002001400A460021816821F47021114358
:1003F000816070470A460021816821F44011114351
:10040000816070470246002013680B400BB1012049
:1004100000E00020704710B50B460021D9B201243E
:1004200004FA01F11AB144680C43446002E04468E4
:100430008C43446010BD000030B50246002000230C
:100440005068104C20400D790C6844EA0524204384
:10045000506090680C4C2040D1E903542C438D68C7
:100460002C434D7944EA450420439060D06A20F43F
:1004700070000C7D641EE4B2234340EA0350D06256
:1004800030BD0000FFFEFFFCFDF7FFC0F0B50446E5
:100490001546002000220026092911DDE068A1F19F
:1004A0000A0707EB470C072707FA0CF29043A1F164
:1004B0000A0707EB470703FA07F21043E0600CE076
:1004C000206901EB410C072707FA0CF2904301EB7E
:1004D000410703FA07F210432061A06BC0F30156F5
:1004E000EF1C06F1010CA7EB0C0707EB870C1F278D
:1004F00007FA0CF29043EF1C06F1010CA7EB0C0776
:1005000007EB870701FA07F21043A063F0BD21B1A2
:10051000426842F48052426003E0426822F4805212
:100520004260704710B50A4600210023816B21F418
:100530004011531E41EA0351816310BDF0B50446DA
:100540000D4600200021092D11DDE068A5F10A0605
:1005500006EB4607072606FA07F18843A5F10A06C7
:1005600006EB460603FA06F10843E0600CE020695A
:1005700005EB4507072606FA07F1884305EB450614
:1005800003FA06F108432061072A0FDA606B561E52
:1005900006EB86071F2606FA07F18843561E06EB70
:1005A000860605FA06F10843606322E00D2A0FDA99
:1005B000206BD61F06EB86071F2606FA07F1884335
:1005C000D61F06EB860605FA06F10843206310E005
:1005D000E06AA2F10D0606EB86071F2606FA07F170
:1005E0008843A2F10D0606EB860605FA06F10843DC
:1005F000E062F0BD816841F0804181607047000099
:1006000038B10849096841F40001074AC2F80413E7
:1006100006E00449096821F40001034AC2F8041302
:1006200070470000042301400020014000B58BB05A
:100630000120FFF7E5FF00200990079008900A903D
:1006400007A8FFF7B7FE0020019001208DF80800F1
:100650008DF8090000200390059001208DF8180006
:1006600001A92348FFF7E8FE0423012200212048C6
:10067000FFF764FF04211E48FFF754FF01231A46C9
:1006800008211B48FFF702FF012302220621184818
:10069000FFF7FCFE0123032211461548FFF7F6FE83
:1006A0000123042209211248FFF7F0FE002110481F
:1006B000FFF72DFF4FF400110D48FFF79BFE4FF49D
:1006C00080310B48FFF78EFE40F207410848FFF7E4
:1006D00061FE012240F207410548FFF79CFE01211F
:1006E0000348FFF75CFE0248FFF784FF0BB000BD34
:1006F0000020014010B500F0B3FD0121084600F0D4
:100700000BFD0121022000F007FD0121042000F073
:1007100003FD0121082000F0FFFC0121102000F062
:10072000FBFC0121202000F0F7FC0121402000F01B
:10073000F3FC0121802000F0EFFC0121080200F011
:10074000EBFC0121084600F0F7FC0121C80200F093
:10075000F3FC0121084600F0FFFC0121080200F033
:10076000FBFC0121880300F0F7FC10BD00B58FB041
:1007700000BF154800F0B7FA0028FAD100900190A8
:100780001248029000200390012004900020059060
:100790004FF48060069040000790800008900001B0
:1007A0000A904012099000200B9001200C9000202C
:1007B0000D900E906946044800F0A0FA012102480D
:1007C00000F086FA0FB000BD10640240AC1C00209F
:1007D0001CB54FF48061B74800F033FB1020009047
:1007E00000208DF8040001208DF807006946B2480A
:1007F00000F0B0FA4FF48060009001208DF8040002
:100800008DF8070000208DF805006946A94800F022
:10081000A1FA012000908DF8040002208DF8070055
:1008200000208DF805006946A34800F093FA0220E5
:10083000009001208DF8040002208DF807000020B0
:100840008DF8050069469C4800F084FA01219A4819
:1008500000F0F4FA0221984800F0F0FA0420009029
:1008600000208DF8040001208DF8070069469248A9
:1008700000F070FA0820009000208DF8040001209C
:100880008DF8070069468C4800F064FA102000904B
:1008900000208DF8040001208DF807006946864885
:1008A00000F058FA03208DF8040001200090002089
:1008B0008DF807006946814800F04CFA03208DF856
:1008C00004004020009000208DF8070069467C4815
:1008D00000F040FA03208DF804000820009000206A
:1008E0008DF807006946764800F034FA03208DF849
:1008F00004000220009000208DF8070069466F4830
:1009000000F028FA02208DF8040000208DF806007F
:100910004FF48070009000208DF8070003208DF8C0
:1009200005006946664800F015FA02208DF80400BB
:1009300000208DF806004FF40070009000208DF824
:10094000070003208DF8050069465D4800F002FAB3
:1009500002208DF8040000208DF806004FF480601E
:10096000009000208DF8070003208DF805006946EF
:10097000534800F0EFF902208DF8040000208DF8B4
:1009800006004FF40050009000208DF8070003206F
:100990008DF805006946494800F0DCF902208DF821
:1009A000040000208DF806004FF4804000900020E5
:1009B0008DF8070003208DF8050069463F4800F0D8
:1009C000C9F902208DF8040000208DF806004FF4CC
:1009D0000040009000208DF8070003208DF80500EE
:1009E0006946364800F0B6F900208DF80400012071
:1009F0008DF806000003009000208DF8070003200A
:100A00008DF8050069462D4800F0A4F9012208215F
:100A10002B4800F0E7F901220921294800F0E2F90A
:100A200001220A21264800F0DDF901220D21234888
:100A300000F0D8F901220E21204800F0D3F901225C
:100A40000F211E4800F0CEF901220C211B4800F0B6
:100A5000C9F94FF48060009000208DF80400032055
:100A60008DF8050000208DF807006946154800F054
:100A700071F94FF40060009000208DF8040003200D
:100A80008DF8050000208DF8070069460D4800F03C
:100A900061F94FF48050009000208DF8040003208D
:100AA0008DF8050000208DF807006946054800F024
:100AB00051F91CBD00140240001002400004024025
:100AC00000000240001C024010B50421014800F063
:100AD000ACF910BD0010024010B50821014800F02B
:100AE000A4F910BD0010024038B54FF0FF300521C9
:100AF000002807DA0A07140E164A00F00F031B1F1E
:100B0000D45403E00A07130E134A135400BF4FF4E2
:100B1000A06000F0F7FA12208DF8000003208DF895
:100B2000010000208DF8020001208DF803006846C6
:100B300000F0ACFA18208DF8000000208DF80100BC
:100B40008DF8020001208DF80300684600F09EFA3F
:100B500038BD000018ED00E000E400E000B58DB005
:100B60000121374800F06DFD4FF40070ADF8300002
:100B70002020ADF82A000020ADF8280001208DF8D3
:100B8000320041F267000B900AA92D4800F0ACFE3C
:100B90007020ADF814000120ADF816000420ADF867
:100BA000180000200790ADF82000ADF82200ADF845
:100BB0002400ADF8260005A9214800F06FFD05A925
:100BC0001F4800F0A9FD05A91D4800F0F7FD5420BD
:100BD000079005A91A4800F041FE7021184800F05E
:100BE00079FE4FF40060ADF804004010ADF8060047
:100BF0000020ADF808001520ADF80A004FF4805031
:100C0000ADF80C004000ADF80E000020ADF810006B
:100C100001A90B4800F0FFFC8021094800F00EFDFF
:100C200001228021064800F030FD0121044800F037
:100C3000E6FC0121024800F010FD0DB000BD0000EF
:100C4000000001400EB54FF40070ADF80800002020
:100C5000ADF80200ADF800008DF80A00401E0190CA
:100C600069464FF0804000F03FFE0121880700F008
:100C7000E8FC0EBD70B504460D46FFF725FF206168
:100C8000FFF72AFFA0612879C0F3400050B920691E
:100C9000A8B96069012812D1686820F00200801CA0
:100CA00068600CE02879C0F3400040B1A06930B919
:100CB000E069012803D1686820F0020068602069BB
:100CC0006061A069E061B7EE000A85ED0F0A70BDB2
:100CD00021B1026842F00102026003E0026822F0E2
:100CE000010202607047014600200A6802F001021A
:100CF0000AB1012000E000207047000010B500227A
:100D00000268134B1A40CC680B6823434C69234399
:100D10008C692343CC6923430C6A23434C6A2343E5
:100D20008C6A23434C6B23438C6B23431A4302602E
:100D3000426922F00702D1E90B3423431A4342618E
:100D40000B6943604B6883608B68C36010BD000013
:100D50003F801CF0F0B50A4600210023002400BFAC
:100D60003DE0012505FA01F3156805EA03049C42FC
:100D700034D105684F000326BE40B54305601579A0
:100D80004E00B5400668354305601579012D02D047
:100D90001579022D16D185684F000326BE40B54354
:100DA000856055794E00B540866835438560456855
:100DB00001268E40B5434560456896798E40B6B2AF
:100DC00035434560C5684F000326BE40B543C56046
:100DD000D5794E00B540C6683543C560491C102919
:100DE000BFD3F0BDF0B5002300244D07ED0E02FA8D
:100DF00005F3CE1000F1200555F826504E07F70EEA
:100E00000F26BE40B543CF1000F1200646F827500C
:100E1000CE1000F1200555F8265045EA0304CE1007
:100E200000F1200545F82640F0BD02460020136978
:100E30000B400BB1012000E0002070470A048261E2
:100E4000704781617047000010B5044694ED1C0A9C
:100E5000D4ED240AB4EEE00AF1EE10FA02D294EDD9
:100E60001C0A01E094ED240AD4ED250AB4EEE00A50
:100E7000F1EE10FA0EDD94ED1C0AD4ED240AB4EE66
:100E8000E00AF1EE10FA02D294ED1C0A04E094EDAF
:100E9000240A01E094ED250A84ED130A04F14800C8
:100EA000FFF752FA94ED160A84ED000A94ED1D0A3C
:100EB00084ED010A2046FFF74CFA94ED1E0ADFED9F
:100EC000190A20EE200A84ED090AD4ED1F0A60EE0B
:100ED000A00A94ED201AD4ED201A41EE210AB0EEBA
:100EE000600AFFF73BFA84ED0A0A04F12400FFF7D9
:100EF00030FA94ED0F0A84ED170A04F15C00FFF755
:100F000032FA94ED060AD4ED190A20EE200A84ED97
:100F1000220A94ED060AD4ED180A20EE200A84ED88
:100F2000230A10BD3ACD133F10B50446207805289A
:100F30007DD194EDBE0A84ED8E0A607830B101282F
:100F400039D0022838D0032872D175E004F10C00A2
:100F5000FFF7FAF9206A401C2062D4E90A01014433
:100F6000606A0144206A814204D800212162022083
:100F700060701FE0D4E909010144206A814204D86D
:100F80009FED360A84EDAB0A14E0D4E908108142E3
:100F900008D394ED070A84EDAB0A9FED310A84ED86
:100FA000410A07E094ED070A84EDAB0A9FED2D0A94
:100FB00084ED410A4EE04DE004F5E270FFF744FF96
:100FC00094ED930A84EDAA0A94ED940A84EDAB0A99
:100FD00094ED120A84ED8D0A94ED130A84ED850ACE
:100FE00094ED130AB1EE400A84ED860A94ED8E0A60
:100FF000D4ED140AB4EEE00AF1EE10FA19DB606CDD
:10100000401C6064616D884215D300216164012039
:1010100084F8CC0294ED180A84ED850A94ED180A40
:10102000B1EE400A84ED860A0320607003E012E00E
:101030000FE0002161640DE004F5E270FFF704FFAA
:1010400094ED930A84EDAA0A94ED940A84EDAB0A18
:1010500000E000BF00E000BF10BD00000000000085
:10106000DB0FC940E4CB9640DFED050A60EE200AB5
:101070009FED041AC0EE811A0348C0ED8D1A704727
:10108000DB0F494100007042EC24002070B50021C4
:1010900000230F22C4781CB3174C246804F4E064C6
:1010A000C4F5E064C4F30721C1F10404E3B20A41CA
:1010B00044789C40E1B28478144021430C07210E0F
:1010C0000E4C05786155047804F01F050124AC40EE
:1010D00005786D11AD0005F1E025C5F8004109E086
:1010E000047804F01F050124AC40054D0678761104
:1010F00045F8264070BD00000CED00E000E400E083
:1011000080E100E002490143024A1160704700009B
:101110000000FA050CED00E029B1064A126802430E
:10112000044B1A6004E0034A12688243014B1A60C0
:10113000704700003038024029B1064A1268024365
:10114000044B1A6004E0034A12688243014B1A60A0
:10115000704700004038024029B1064A1268024335
:10116000044B1A6004E0034A12688243014B1A6080
:1011700070470000443802400CB5002001900090F8
:101180003348006840F480303149086000BF30487F
:10119000006800F4003000900198401C0190009815
:1011A00018B90198B0F5A04FF1D12948006800F4B2
:1011B000003010B10120009001E000200090009864
:1011C000012844D122484030006840F08050204936
:1011D000403108601F48006840F440401D490860E5
:1011E0001B48083000681A49083108600846006842
:1011F00008600846006840F4A05008601648091FBF
:101200000860081F006840F08070091F086000BF78
:101210000F48006800F000700028F9D040F2057017
:101220000E4908600A480830006820F003000849A9
:10123000083108600846006840F00200086000BFFE
:1012400003480830006800F00C000828F8D10CBDF5
:10125000003802400070004008544007003C024043
:1012600030B51349481EB0F1807F01D301201BE047
:10127000481E4FF0E022506150170F22002807DA75
:1012800013071D0E0B4B00F00F04241F1D5503E028
:1012900013071C0E084B1C5400BF00204FF0E02227
:1012A000906107201061002008B100BFFEE730BD4B
:1012B0004090020018ED00E000E400E010B50548A1
:1012C00000F070F9034800F08BF80348FFF72CFE9C
:1012D00010BD000038290020EC24002010B515486E
:1012E000006840F47000134908601348006840F03B
:1012F00001001149086000200F49083108600E48BC
:1013000000680E4908400C4908600D48091D086036
:10131000081F006820F48020091F0860002006498B
:101320000C310860FFF728FF4FF000600149803959
:10133000086010BD88ED00E000380240FFFFF6FEB7
:101340001030002410B50446207900F0010038B1B7
:1013500004490548FFF78EFC606820F001006060DA
:1013600010BD0000382900201029002010B52DEDF7
:10137000028B0446002008EE100A1848806C08EE24
:10138000100AB8EE480A84ED030A002008EE100A9D
:10139000B8EE480A84ED060A40F6FF7008EE100A1F
:1013A000B8EE480A84ED090A002008EE100AB8EEEB
:1013B000480A84ED0C0A04F10C00FEF7D9FF04F191
:1013C0001800FEF7D5FF04F12400FEF7D1FF04F169
:1013D0003000FEF7CDFFBDEC028B10BD00200140B8
:1013E00010B504462046FFF7C1FFB7EE000A4F488C
:1013F00080ED8C0A80ED280A80ED3C0A00BFD4ED18
:10140000040A9FED4B1AB0EE410A90ED601A21EEEE
:10141000201AB0EE410A80ED450AB7EE001AC1EE7F
:10142000001AC0ED461A80ED8F0A80EDA90A00BFB0
:10143000D4ED0F0A9FED3F1A60EE810AB0EE600A0C
:10144000FFF712FE00BF3948806820B1A06820F085
:101450000100401CA060607830B1012812D0022841
:101460001CD0032848D13AE0606D401C6065216DB6
:10147000884206D300206065204600F061F8012014
:1014800060703AE0A06810B10320607005E0207938
:10149000C0F3400008B1022060702EE0A06810B1D7
:1014A000032060701AE02079C0F34000B0B9D4ED99
:1014B0000F0A9FED211A60EE810AB0EE600AFFF775
:1014C000D3FD00BF194890ED8E0ADFED1C0AB4EE83
:1014D000E00AF1EE10FA01D2012060700DE02079EF
:1014E000C0F3400038B90020A06000BF0F498860F9
:1014F00000BF0120607000E000BF00BF60780228DC
:1015000009D100BF0948406820F00100401C07498C
:10151000486000BF08E000BF0448406820F00100B8
:101520000249486000BF00BF10BD0000EC2400204D
:101530000000000000404E450000E1440000FA4475
:1015400010B52DED028B0446002008EE100A144859
:10155000806C08EE100AB8EE480A04F10C00FEF7A1
:101560000CFF002008EE100AB8EE480A04F118003B
:10157000FEF703FF40F6FF7008EE100AB8EE480AC7
:1015800004F12400FEF7F9FE002008EE100AB8EE80
:10159000480A04F13000FEF7F0FEBDEC028B10BDEE
:1015A000002001400178491CC9B201700A2910D3FA
:1015B00000210170017901F0010129B9416821F090
:1015C0000101491C416004E0816821F00201891C8D
:1015D0008160704710B58021024800F02CF8FEF7BA
:1015E000D1FE10BD0000014010B50121880700F0B8
:1015F00043F818B10121880700F01DF810BD21B192
:10160000028842F08002028004E002884FF67F7375
:101610001A40028070470A884B881A438B881A4305
:10162000CB881A430B891A434B891A438B891A4377
:10163000A0F844207047CA4302827047CA4302821E
:10164000704721B1028842F00102028004E0028862
:101650004FF6FE731A400280704731B1B0F8442053
:1016600042F40042A0F8442005E0B0F84420C2F360
:101670000E02A0F84420704702460020138A0B4057
:101680000BB1012000E0002070471AB183890B43A1
:10169000838102E083898B438381704770B5002486
:1016A00000220023058C4FF6FE7635400584028C1F
:1016B0008388048B4FF68F752C40B51E2C400D8807
:1016C0002C43751E2A408D892A434D882A43104D8C
:1016D000A84202D00F4DA84213D14FF6F7752A4009
:1016E000CD892A434FF6FB752A408D882A434FF651
:1016F000FF652B404FF6FF552B400D8A2B434D8A3B
:101700002B43838004838D684563028470BD000091
:10171000000001400004014070B5002400220023B5
:10172000058C4FF6EF7635400584028C8388048B58
:1017300048F6FF752C404FF6FF452C400D884FF6BC
:10174000FF7606EA05252C434FF6DF752A408D8982
:1017500006EA05152A434D8806EA05152A43154D64
:10176000A84202D0144DA8421DD14FF67F752A40E1
:10177000CD894FF6FF7606EA05152A434FF6BF7569
:101780002A408D8806EA05152A434FF6FF352B407F
:101790004FF2FF752B400D8A06EA85052B434D8AD3
:1017A00006EA85052B43838004838D688563028464
:1017B00070BD0000000001400004014070B500242D
:1017C00000220023058C4FF6FF6635400584028C0D
:1017D0008388848B4FF68F752C404FF6FC752C4018
:1017E0000D882C434FF6FF552A408D894FF6FF7622
:1017F00006EA05252A434D8806EA05252A43154DA4
:10180000A84202D0144DA8421DD14FF2FF752A40C4
:10181000CD894FF6FF7606EA05252A434FF6FF35B8
:101820002A408D8806EA05252A434EF6FF752B408F
:101830004DF6FF752B400D8A06EA05152B434D8AA0
:1018400006EA05152B43838084838D68C563028473
:1018500070BD0000000001400004014070B500228E
:1018600000230024058C4EF6FF7635400584038C5A
:101870008488828B48F6FF752A404FF6FF452A4040
:101880000D884FF6FF7606EA05252A434DF6FF75CB
:101890002B408D8906EA05352B434D8806EA053530
:1018A0002B430A4DA84202D0094DA84208D14BF65D
:1018B000FF752C400D8A4FF6FF7606EA85152C43FE
:1018C000848082838D680564038470BD00000140BC
:1018D0000004014082884FF68F731A40828082880C
:1018E0000A4382807047000000220288184B984209
:1018F0000ED0184B98420BD0B0F1804F08D0164B49
:10190000984205D0154B984202D0154B984204D10D
:101910004FF68F731A404B881A43124B984207D0E8
:10192000114B984204D04FF6FF431A400B891A43DB
:1019300002804B68C3620B880385054B984202D036
:10194000044B984201D18B7A03860123838270472E
:101950000000014000040140000400400008004075
:10196000000C0040001000400014004072B6FEF76A
:10197000C1FEFEF72DFFFEF7F9FEFEF757FEFFF75B
:10198000EDF8FFF75FF9FFF7AFF862B600BF024866
:10199000FFF7D8FCFBE70000382900204FF040702B
:1019A000E1EE100A70470000D8190008000000207E
:1019B000AC1C00002802000884360008AC1C002083
:1019C000E40C0000C40100080C3E0008902900202F
:1019D000600600004402000880ED040A704790EDA4
:1019E000010AD0ED040AB4EEE00AF1EE10FA1ADDB5
:1019F00090ED040AD0ED020A30EE200AD0ED010A83
:101A0000B4EEE00AF1EE10FA08D290ED040AD0ED3F
:101A1000020A30EE200A80ED040A2CE090ED010A63
:101A200080ED040A27E090ED010AD0ED040AB4EE3F
:101A3000E00AF1EE10FA1AD290ED040AD0ED030A92
:101A400030EE200AD0ED010AB4EEE00AF1EE10FA11
:101A500008DD90ED040AD0ED020A30EE600A80ED58
:101A6000040A08E090ED010A80ED040A03E090ED1D
:101A7000010A80ED040A704780ED010A704790ED7D
:101A8000020AD0ED000A20EE200AD0ED020AB7EEDD
:101A9000001A71EE600A90ED011A00EE810A80EDE5
:101AA000010A7047DFEDCE0AC0ED000ADFEDCC0A77
:101AB000C0ED010A80ED050A80ED060A7047D0ED01
:101AC000000A90ED011A70EEC10AB0EE600AD0ED86
:101AD000050A90ED031A41EE000AC0ED050AD0EDAB
:101AE000050A90ED071AF4EEC10AF1EE10FA02D2DF
:101AF000D0ED050A01E0D0ED070A90ED081AF4EEEA
:101B0000C10AF1EE10FA0EDDD0ED050A90ED071ACC
:101B1000F4EEC10AF1EE10FA02D2D0ED050A04E0AB
:101B2000D0ED070A01E0D0ED080AC0ED050AD0EDBE
:101B3000050A90ED021A41EE000AC0ED060AD0ED4A
:101B4000060A90ED071AF4EEC10AF1EE10FA02D27D
:101B5000D0ED060A01E0D0ED070A90ED081AF4EE88
:101B6000C10AF1EE10FA0EDDD0ED060A90ED071A6B
:101B7000F4EEC10AF1EE10FA02D2D0ED060A04E04A
:101B8000D0ED070A01E0D0ED080AC0ED060A704763
:101B90000146D1ED002A9FED933A62EE832AB0EE22
:101BA000620ADFED912A60EE222AF0EE620AFDEE73
:101BB000E02A12EE900A8D4A02EB8002D2ED002A52
:101BC000B0EE621A894B421C03EB8202D2ED002A6E
:101BD000F0EE621A02EE900AF8EEE22A70EEE22AC5
:101BE000B0EE622A31EEC13AF0EE412A42EE032A0B
:101BF000C1ED022AF5EE002A70EE222AB0EE620A4A
:101C0000F7EE002AB4EEE20AF1EE10FA05DDF7EE87
:101C1000002A70EE622AB0EE620ADFED732A60EEEF
:101C2000222AF0EE620AFDEEE02A12EE900A6F4AD6
:101C300002EB8002D2ED002AB0EE621A6B4B421C1E
:101C400003EB8202D2ED002AF0EE621A02EE900A55
:101C5000F8EEE22A70EEE22AB0EE622A31EEC13AE4
:101C6000F0EE412A42EE032AC1ED012A704730B559
:101C7000002200230024DFED5A2AB0EE620AD0EDE4
:101C8000012AF0EE620AD0ED022AB0EE621AF5EEF9
:101C9000C00AF1EE10FA09D1B5EEC01AF1EE10FA51
:101CA00004D1DFED4F2AC0ED032A78E0F5EEC00A3B
:101CB000F1EE10FA04D2F1EE602AF0EE620A02238D
:101CC000B5EEC01AF1EE10FA04D2F1EE412AB0EEF0
:101CD000621A0424B4EEE01AF1EE10FA06DDB0EE5A
:101CE000602AF0EE410AB0EE421A0122D5182544CE
:101CF000E9B2C1EE201AF7EE002A72EEE13ADFED0A
:101D00003C2A9FED3C3A43EE212A9FED3B3A03EEFD
:101D1000A23A63EE212AB0EE620A082939D2DFE83E
:101D200001F004070E151C232A3180ED030A35E06B
:101D3000DFED322A72EEC02AC0ED032A2EE0DFED7D
:101D4000302A72EEC02AC0ED032A27E0DFED2B2AED
:101D500070EE222AC0ED032A20E0DFED2A2A72EE7F
:101D6000C02AC0ED032A19E0DFED272A70EE222AEF
:101D7000C0ED032A12E0DFED222A70EE222AC0ED28
:101D8000032A0BE0DFED202A72EEC02AC0ED032A01
:101D900004E0DFED132AC0ED032A00BF00BF30BD11
:101DA000B5EEC00AF1EE10FA15DDB6EE001A20EE1F
:101DB000011AF0EE410A10EE100A144901EB60001E
:101DC00000EE100A80EE801AF6EE001A01EE801A7C
:101DD000B0EE410A03E0DFED020AB0EE600A7047A0
:101DE0000000000083F9223E00000044B41C0020E3
:101DF000A3927A3E4BC8873DDB0F493FDB0FC93FBB
:101E0000DB0F4940DB0FC940E4CB9640F51DBD1FF9
:101E100010B50446002020709FEDFE0A201DFFF73C
:101E200041FE9FEDFC0A04F12800FFF725FE9FED1F
:101E3000F90A84ED0D0A9FEDF70A84ED0E0A9FED75
:101E4000F50A84ED0F0A9FEDF30A84ED100A9FED69
:101E5000F10A84ED1E0A9FEDEF0A84ED1F0A9FED43
:101E6000ED0A84ED2B0A9FEDEB0A84ED2C0A9FED21
:101E7000E90A84ED290A9FEDE70A84ED2A0A9FED1D
:101E8000E50A84ED270A9FEDE30A84ED280A10BDD8
:101E900010B50446207860B994ED220AD4ED230AE7
:101EA00020EE200A84ED160A94ED260A84ED300A0D
:101EB00003E094ED230A84ED160A94ED110AD4EDA3
:101EC000160AF1EE600A94ED131A00EE810A84ED11
:101ED000170A94ED120AD4ED160AF1EE600A94ED99
:101EE000141A00EE810A84ED180A94ED290AD4ED43
:101EF000170A30EE200AD4ED270A30EE600ADFED33
:101F0000C60A20EE200A84ED290A94ED2A0AD4EDAF
:101F1000180A30EE200AD4ED280A30EE600ADFED10
:101F2000BE0A20EE200A84ED2A0A94ED170A84EDF9
:101F3000270A94ED180A84ED280A94ED2B0AD4EDB3
:101F4000200A94ED291A00EE810A84ED2B0A94ED03
:101F50002C0AD4ED200A94ED2A1A00EE810A84EDB1
:101F60002C0A94ED2B0AD4ED250A94ED131A00EEF9
:101F7000C10A84ED2D0A94ED2C0AD4ED250A94EDC6
:101F8000141A00EEC10A84ED2E0A94ED2D0A20EEFB
:101F9000000AD4ED2E0A94ED2E1A00EE810A84ED8B
:101FA0002F0A94ED300ADFED9D0A20EE200AD4EDD1
:101FB0002F0A9FED9B1A01EE200A84ED300A94ED62
:101FC0001E0AD4ED250A94ED131A00EEC10A84ED21
:101FD000190A94ED1F0AD4ED250A94ED141A00EEA7
:101FE000C10A84ED1A0A94ED190A20EE000AD4ED14
:101FF0001A0A94ED1A1A00EE810AD4ED240A94ED1F
:10200000151A60EE810A94ED241AD4ED151A21EE0A
:10201000211A00EEC10A84ED1B0A94ED210AD4EDC9
:10202000190A20EE200AD4ED300A94ED1B1A70EE46
:10203000C10A20EE200A84ED1C0A94ED210AD4ED99
:102040001A0A20EE200AD4ED300A94ED1B1A70EE25
:10205000C10A20EE200A84ED1D0A94ED170AD4ED82
:102060001C0A70EE200A94ED1E0A94ED201A01EE6F
:10207000200A84ED1E0A94ED180AD4ED1D0A70EEB4
:10208000200A94ED1F0A94ED201A01EE200A84ED37
:102090001F0A94ED1E0AD4ED250A94ED131A00EEE2
:1020A000C10A84ED190A94ED1F0AD4ED250A94EDB6
:1020B000141A00EEC10A84ED1A0A94ED1A0AD4ED3E
:1020C0000E0A20EE200A84ED010A94ED190AD4EDDF
:1020D0000F0A20EE200A84ED020A201DFFF7EFFC14
:1020E00094ED070A84ED0A0A04F12800FFF7C7FC03
:1020F00094ED0D0AD4ED200A94ED0A1A00EE810A3F
:1021000084ED0D0A07E094ED0D0ADFED460A30EE8E
:10211000600A84ED0D0A94ED0D0ADFED420AB4EE7B
:10212000E00AF1EE10FAEEDC07E094ED0D0ADFEDC7
:102130003D0A30EE200A84ED0D0A94ED0D0AB5EE4D
:10214000C00AF1EE10FAF0D304F13400FFF720FDDD
:1021500010BD10B504469FED2F0A2046FFF7A2FCE4
:102160009FED2C0A04F12400FFF786FC9FED290A5D
:1021700084ED0C0A9FED270A84ED140A9FED250AD1
:1021800084ED150A9FED230A84ED180A9FED210ABC
:1021900084ED190A10BD10B5044694ED210AB1EE84
:1021A000400AD4ED140A20EE200AD4ED090A94ED79
:1021B000221A60EE810A94ED151A00EEC10AD4EDE0
:1021C000200A94ED101A00EE810AD4ED200A94ED55
:1021D000181A00EEC10AD4ED140A94ED1A1A41EE51
:1021E000000AC4ED140A94ED210AB1EE400AD4EDC0
:1021F000150A20EE200AD4ED090A94ED221A60EEA9
:10220000810A94ED141A00EE810AD4ED200A94EDAF
:10221000111A09E00000000077BE7F3F3333733F9F
:10222000CDCC4C3DDB0FC94000EE810AD4ED200A35
:1022300094ED191A00EEC10AD4ED150A94ED1A1A9C
:1022400041EE000AC4ED150A94ED140AD4ED120A09
:1022500030EE600A84ED160A94ED150AD4ED130AE7
:1022600030EE600A84ED170A94ED160AD4ED1B0ACD
:10227000B4EEE00AF1EE10FA02D294ED160A01E093
:1022800094ED1B0AD4ED1B0AF1EE600AB4EEE00AED
:10229000F1EE10FA0EDD94ED160AD4ED1B0AB4EE41
:1022A000E00AF1EE10FA02D294ED160A06E094ED7F
:1022B0001B0A03E094ED1B0AB1EE400A84ED180AF4
:1022C00094ED170AD4ED1B0AB4EEE00AF1EE10FA11
:1022D00002D294ED170A01E094ED1B0AD4ED1B0A1B
:1022E000F1EE600AB4EEE00AF1EE10FA0EDD94EDC4
:1022F000170AD4ED1B0AB4EEE00AF1EE10FA02D28E
:1023000094ED170A06E094ED1B0A03E094ED1B0A16
:10231000B1EE400A84ED190A94ED180AD4ED1C0AB6
:1023200094ED161A00EE810A84ED180A94ED190A4C
:10233000D4ED1C0A94ED171A00EE810A84ED190AF7
:1023400094ED180AB1EE400AD4ED0D0A20EE200AF1
:1023500084ED000A94ED190AD4ED0E0A20EE200A4D
:1023600084ED010A2046FFF7AAFB94ED060A84EDEE
:10237000090A04F12400FFF782FB94ED0C0AD4ED66
:102380001A0A94ED091A00EE810A84ED0C0A07E09E
:1023900094ED0C0A5FED5D0A30EE600A84ED0C0AE4
:1023A00094ED0C0A5FED610AB4EEE00AF1EE10FA6A
:1023B000EEDC07E094ED0C0A5FED660A30EE200AD1
:1023C00084ED0C0A94ED0C0AB5EEC00AF1EE10FA99
:1023D000F0D304F13000FFF7DBFB10BD10B504466D
:1023E0009FEDFE0A84ED110AD4ED000AB0EE600AFA
:1023F0002046FFF7F1FAD4ED050AB0EE600A04F1C9
:102400001400FFF7E9FA9FEDF50A04F12800FFF741
:10241000E3FA10BD90ED0F0AD0ED120A60EE200A2B
:1024200090ED091A90ED110A00EE810A80ED110A73
:1024300007E090ED110ADFEDEA0A30EE600A80ED68
:10244000110A90ED110ADFEDE60AB4EEE00AF1EEB2
:1024500010FAEEDC07E090ED110ADFEDE10A30EE54
:10246000200A80ED110A90ED110AB5EEC00AF1EED6
:1024700010FAF0D3704710B504469FEDD80A84EDEA
:10248000110AD4ED000AB0EE600A2046FFF7A4FA64
:10249000D4ED050AB0EE600A04F11400FFF79CFACF
:1024A0009FEDCE0A04F12800FFF796FA10BD90EDDB
:1024B0000F0AD0ED120A60EE200A90ED091A90ED95
:1024C000110A00EE810A80ED110A07E090ED110A71
:1024D000DFEDC30A30EE600A80ED110A90ED110ABB
:1024E000DFEDBF0AB4EEE00AF1EE10FAEEDC07E031
:1024F00090ED110ADFEDBA0A30EE200A80ED110AE4
:1025000090ED110AB5EEC00AF1EE10FAF0D3704763
:1025100090ED070AD0ED060AB0EE001A11EE200A7F
:10252000D0ED080A30EE600ADFEDAE0A20EE200A98
:1025300080ED120A90ED070AD0ED080A30EE600A2D
:10254000DFEDA90A20EE200A80ED130A704790ED16
:10255000120AD0ED010A20EE200AD0ED130A90ED08
:10256000021A00EE810A80ED140A90ED120AB1EE13
:10257000400AD0ED020A20EE200AD0ED130A90EDB9
:10258000011A00EE810A80ED150A704790ED090AE4
:10259000D0ED010A20EE200AD0ED0A0A90ED021AD1
:1025A00000EEC10A80ED160A90ED090AD0ED020A8C
:1025B00020EE200AD0ED0A0A90ED011A00EE810A01
:1025C00080ED170A70479FED850A80ED000A9FEDA8
:1025D000830A80ED010A9FED810A80ED020A9FEDDA
:1025E0007F0A80ED030A9FED7D0A80ED160A9FEDBC
:1025F0007B0A80ED170A70470EB59FED783AB0EE72
:10260000431A9FED763AF0EE431A9FED743AB0EE1E
:10261000432A9FED723AB0EE430A9FED703AF0EE16
:10262000430A9FED6E3AF0EE432A0021009101919A
:10263000029190ED173ADFED6D3A23EE233AB0EEBA
:10264000431AD0ED163AB0EE084AB0EE413A14EE15
:10265000233AF6EE003A23EE233AD0ED053A23EE84
:10266000233AF0EE431AD0ED163AB8EE084AB0EE2F
:10267000413A14EE233AF6EE003A23EE233AD0ED37
:10268000053A23EE233AB0EE432A90ED053A23EEC5
:10269000013AB0EE431A80F84410B5EEC01AF1EEDC
:1026A00010FA04DD90F84410491C80F84410F5EE4F
:1026B000C01AF1EE10FA04DD90F84410891C80F87D
:1026C0004410B5EEC02AF1EE10FA04DD90F8441083
:1026D000091D80F8441090F8441007292FD2DFE834
:1026E00001F02E09250417122000B0EE610AF0EE69
:1026F000410A25E0B1EE613AB0EE430AB1EE423A4A
:10270000F0EE430A1CE0B0EE410AF0EE420A17E098
:10271000B1EE413AB0EE430AB1EE613AF0EE430A4F
:102720000EE0B0EE420AF0EE610A09E0B1EE423A84
:10273000B0EE430AB1EE413AF0EE430A00E000BFCA
:1027400000BF30EE203AF0EE432A90ED1B3AB4EE93
:10275000E23AF1EE10FA0DD290ED1B3A23EE003A78
:10276000C3EE223AB0EE630A90ED1B3A33EE403AE4
:10277000F0EE430A90ED1B3A33EE403A33EE603A06
:10278000F5EE003A23EE233AD0ED1C3AB6EE004ABD
:1027900004EE233A8DED003A9DED003AF6EE003A54
:1027A00003EE803A8DED013A9DED013AF6EE003AE6
:1027B00003EEA03A8DED023A90F8441007297BD23F
:1027C000DFE801F0B12B96045F447B00F0EE003AA5
:1027D000B0EE603A03EE803A0AE00000000000002C
:1027E000DB0FC940ABAAAA3E3ACD133FD7B3DD3FBA
:1027F0005FED043A23EE233AD0ED043A23EE233A78
:1028000080ED163A1FED083A20EE833AD0ED043AF7
:1028100023EE233A80ED173A86E030EEC03A5FEDC2
:102820000F3A23EE233AD0ED043A23EE233A80ED1B
:10283000163A30EE203A5FED143A23EE233AD0ED0B
:10284000043A23EE233A80ED173A6DE0F8EE003AB1
:10285000B0EE403A13EEA03A5FED1E3A23EE233A73
:10286000D0ED043A23EE233A80ED163A1FED223ADA
:1028700020EE033AD0ED043A23EE233A80ED173AE6
:1028800052E0F8EE003AB0EE403A13EEA03A5FEDB7
:102890002B3A23EE233AD0ED043A23EE233A80ED8F
:1028A000163A9FEDFE3A20EE033AD0ED043A23EEBD
:1028B000233A80ED173A37E035E030EEC03A5FED6D
:1028C000373A23EE233AD0ED043A23EE233A80ED53
:1028D000163AB1EE403A33EE603A5FED3D3A23EE00
:1028E000233AD0ED043A23EE233A80ED173A1BE069
:1028F000F0EE003AB0EE603A03EE803A5FED473A10
:1029000023EE233AD0ED043A23EE233A80ED163A33
:102910009FEDE23A20EE833AD0ED043A23EE233ADB
:1029200080ED173A00E000BF00BF10F8441FDC4AFA
:10293000515C6A4602EB810191ED003A80ED073A65
:102940000278D7490831895C6A4602EB810191ED32
:10295000003A80ED083A0278D1491031895C6A4624
:1029600002EB810191ED003A80ED093A44380EBD49
:1029700090F84410CB4A525C00F1840101EB8201D3
:1029800091ED000A80ED060A90F84420C54908310F
:102990008A5C00F1840101EB820191ED000A80ED77
:1029A000070A90F84420BF4910318A5C00F1840185
:1029B00001EB820191ED000A80ED080A70470EB527
:1029C0005FED7A4AF0EE642A5FED7C4AB0EE643A3D
:1029D0005FED7E4AF0EE643A5FED804AB0EE640A45
:1029E0005FED824AF0EE640A5FED844AB0EE644A1D
:1029F00000210091019102915FED884AB0EE641AC6
:102A00005FED8A4AF0EE641A5FED8C4AB0EE642AFC
:102A1000D0ED174A1FED8B5A64EE854AF0EE642A1A
:102A200090ED165AF0EE085AF0EE624A55EE854ADD
:102A3000B6EE005A64EE854A90ED055A64EE854A7A
:102A4000B0EE643A90ED165AF8EE085AF0EE624A8B
:102A500055EE854AB6EE005A64EE854A90ED055A69
:102A600064EE854AF0EE643AD0ED054A64EEA24A7F
:102A7000F0EE642A80F84410F5EEC02AF1EE10FA68
:102A800004DD90F84410491C80F84410B5EEC03ABB
:102A9000F1EE10FA04DD90F84410891C80F844101F
:102AA000F5EEC03AF1EE10FA04DD90F84410091D7D
:102AB00080F8441090F8441007292FD2DFE801F085
:102AC0002E09250417122000B0EE430AF0EE620A28
:102AD00025E0F1EE434AB0EE640AF1EE634AF0EE0F
:102AE000640A1CE0B0EE620AF0EE630A17E0F1EE51
:102AF000624AB0EE640AF1EE434AF0EE640A0EE078
:102B0000B0EE630AF0EE430A09E0F1EE634AB0EE7C
:102B1000640AF1EE624AF0EE640A00E000BF00BF12
:102B200070EE204AB0EE644AD0ED1B4AF4EEC44A7F
:102B3000F1EE10FA0DD2D0ED1B4A64EE804A84EE1D
:102B4000845AB0EE450AD0ED1B4A74EEC04AF0EE4E
:102B5000640AF7EE004A74EEC04A74EEE04AB5EE3D
:102B6000005A64EE854ACDED024ADDED024AB6EE2A
:102B7000005A45EE204ACDED014ADDED014AB6EEA0
:102B8000005A45EE004ACDED004AD0ED1C4AF4EE65
:102B9000C04AF1EE10FA1BDDD0ED1C4AF4EEE04A1B
:102BA000F1EE10FA14DDD0ED1C4A74EEC04AB6EE18
:102BB000005A64EE854AB0EE641AD0ED1C4A74EEF9
:102BC000E04ABEEE005A64EE854AB0EE642A40E068
:102BD000D0ED1C4AF4EEC04AF1EE10FA19DDD0ED4A
:102BE0001C4AF4EEE04AF1EE10FA12D8D0ED1C4A7D
:102BF00074EEC04AB5EE005A64EE854AB0EE641A2F
:102C0000D0ED1C4ABDEE005A64EE854AF0EE641A1F
:102C10001FE0D0ED1C4AF4EEC04AF1EE10FA18D8CD
:102C2000D0ED1C4AF4EEE04AF1EE10FA11DDD0EDE1
:102C30001C4AB5EE005A64EE854AF0EE641AD0EDF7
:102C40001C4A74EEE04ABDEE005A64EE854AB0EECE
:102C5000642ADDED004A74EE814A90ED1D5A74EE4F
:102C6000C54AC0ED2E4ADDED014A74EEA14A90ED51
:102C70001D5A74EEC54AC0ED2F4A90F8441007293A
:102C800075D2DFE801F07475FD04FCDCFB00B0EEEA
:102C9000005AF0EE604A45EE004A05E03ACD13BF17
:102CA000BC240020D42400209FEDFE5A64EE854A07
:102CB000283010ED065A64EE854AC0ED0C4ADFED6F
:102CC000FA4A60EEA44A10ED065A64EE854AC0ED59
:102CD0000D4A017FF54A515C6A4602EB8101D1ED54
:102CE000004A74EE814AC0ED1E4A027FEF49083166
:102CF000895C6A4602EB8101D1ED004A74EEA14A7B
:102D0000C0ED1F4A027FE9491031895C6A4602EB37
:102D10008101D1ED004A74EE824AC0ED204A017F64
:102D2000E24A515C6A4602EB8101D1ED004A74EE41
:102D3000C14AC0ED214A027FDC490831895C6A46FC
:102D400002EB8101D1ED004A74EEE14AC0ED224A66
:102D5000027FD6491031895C6A4602EB8101D1EDD0
:102D6000004A74EEC24AC0ED234A283817E215E241
:102D700070EEC04A9FEDCB5A64EE854A283010EDC4
:102D8000065A64EE854AC0ED0C4A70EE204A9FED6B
:102D9000C65A64EE854A10ED065A64EE854AC0EDC7
:102DA0000D4A017FC14A515C6A4602EB8101D1EDB7
:102DB000004A74EEA14AC0ED1E4A027FBB490831A9
:102DC000895C6A4602EB8101D1ED004A74EE814ACA
:102DD000C0ED1F4A027FB5491031895C6A4602EB9B
:102DE0008101D1ED004A74EE824AC0ED204A017F94
:102DF000AE4A515C6A4602EB8101D1ED004A74EEA5
:102E0000E14AC0ED214A027FA8490831895C6A463F
:102E100002EB8101D1ED004A74EEC14AC0ED224AB5
:102E2000027FA2491031895C6A4602EB8101D1ED33
:102E3000004A74EEC24AC0ED234A2838AFE1B8EE2A
:102E4000005AF0EE404A55EE204A9FED965A64EE45
:102E5000854A283010ED065A64EE854AC0ED0C4ACA
:102E6000DFED914A60EE244A10ED065A64EE854A81
:102E7000C0ED0D4A017F8D4A515C02E0B5E04BE0A8
:102E800023E16A4602EB8101D1ED004A74EE824AE9
:102E9000C0ED1E4A027F85490831895C6A4602EB13
:102EA0008101D1ED004A74EE814AC0ED1F4A027FD4
:102EB0007E491031895C6A4602EB8101D1ED004AFE
:102EC00074EEA14AC0ED204A017F784A515C6A46FF
:102ED00002EB8101D1ED004A74EEC24AC0ED214AF5
:102EE000027F72490831895C6A4602EB8101D1EDAB
:102EF000004A74EEC14AC0ED224A027F6B4910318C
:102F0000895C6A4602EB8101D1ED004A74EEE14A28
:102F1000C0ED234A283842E1B8EE005AF0EE404AAC
:102F200055EE204A9FED5F5A64EE854A283010ED39
:102F3000065A64EE854AC0ED0C4A5FEDA84A60EE81
:102F4000244A10ED065A64EE854AC0ED0D4A017F11
:102F5000564A515C6A4602EB8101D1ED004A74EE9B
:102F6000824AC0ED1E4A027F50490831895C6A4698
:102F700002EB8101D1ED004A74EEA14AC0ED1F4A77
:102F8000027F4A491031895C6A4602EB8101D1ED2A
:102F9000004A74EE814AC0ED204A017F434A515CE9
:102FA0006A4602EB8101D1ED004A74EEC24AC0EDDF
:102FB000214A027F3D490831895C6A4602EB810162
:102FC000D1ED004A74EEE14AC0ED224A027F374952
:102FD0001031895C6A4602EB8101D1ED004A74EE42
:102FE000C14AC0ED234A2838D9E070EEC04A9FEDAF
:102FF0002D5A64EE854A283010ED065A64EE854A53
:10300000C0ED0C4AF1EE404A74EEE04A9FED265ABC
:1030100064EE854A10ED065A64EE854AC0ED0D4A0D
:10302000017F224A515C6A4602EB8101D1ED004AE0
:1030300074EEA14AC0ED1E4A027F1C490831895C2A
:103040006A4602EB8101D1ED004A74EE824AC0ED7E
:103050001F4A027F15491031895C6A4602EB8101E3
:10306000D1ED004A74EE814AC0ED204A017F0F4A3B
:10307000515C6A4602EB8101D1ED004A74EEE14AEF
:10308000C0ED214A027F09490831895C6A4602EB9A
:103090008101D1ED004A74EEC24AC0ED224A027F9E
:1030A000024905E0ABAAAA3E3ACD133FBC2400205A
:1030B0001031895C6A4602EB8101D1ED004A74EE61
:1030C000C14AC0ED234A283869E0B0EE005AF0EE5C
:1030D000604A45EE004A1FED0D5A64EE854A2830DD
:1030E00010ED065A64EE854AC0ED0C4ADFED614AE8
:1030F00060EEA44A10ED065A64EE854AC0ED0D4A12
:10310000017F5D4A515C6A4602EB8101D1ED004AC4
:1031100074EE814AC0ED1E4A027F57490831895C2E
:103120006A4602EB8101D1ED004A74EE824AC0ED9D
:103130001F4A027F50491031895C6A4602EB8101C7
:10314000D1ED004A74EEA14AC0ED204A017F4A4AFF
:10315000515C6A4602EB8101D1ED004A74EEC14A2E
:10316000C0ED214A027F44490831895C6A4602EB7E
:103170008101D1ED004A74EEC24AC0ED224A027FBD
:103180003D491031895C6A4602EB8101D1ED004A6C
:1031900074EEE14AC0ED234A283800E000BF00BFCA
:1031A0000EBD10B504469FED350A2046FEF77AFCA9
:1031B0009FED320A04F12400FEF774FC9FED2F0A04
:1031C00004F14800FEF708FC10BD10B504469FED61
:1031D0002B0A2046FEF766FC9FED280A04F1240026
:1031E000FEF760FC10BD10B5044694ED120AD4ED54
:1031F0001B0A20EE200A84ED170A94ED120AD4ED82
:103200001B0A20EE200A84ED180A94ED170A84EDBB
:10321000070A94ED170AB1EE400A84ED080A94ED0E
:10322000130A84ED000A94ED150A84ED010A204684
:10323000FEF745FC94ED060A84ED190A94ED180A90
:1032400084ED100A94ED180AB1EE400A84ED110ADB
:1032500094ED140A84ED090A94ED160A84ED0A0A25
:1032600004F12400FEF72BFC94ED0F0A84ED1A0AFA
:1032700010BD00003ACD13BFBC24002000000000A8
:1032800010B5044604F16400FFF7A8F804F1B40097
:10329000FFF7F1F804F58270FFF795F904F5E27095
:1032A000FFF77FFF04F51770FFF78FFF04F533700A
:1032B000FEF7AEFD04F56470FEF74BFFD4ED030A94
:1032C000B0EE600A04F10C00FEF786FB9FED870A62
:1032D00084ED410A04F58270FEF75AFC002060700C
:1032E00010BD70B50446A06818B1606820F00100F8
:1032F00060602078072872D2DFE800F0040E606A70
:10330000757FF300606820F0020060602046FFF7E0
:10331000B7FF01202070E6E0207900F00100E0B363
:1033200073480068401C7249086014281CD90020AA
:10333000086094ED4F0AF3EE040A80EE201A84ED43
:103340004F1A94ED500AF3EE040A80EE201A84ED31
:10335000501A94ED510AF3EE040A80EE201A84ED1F
:10336000511A0220207028E094ED4F0AD4ED4C0A47
:1033700030EE200A84ED4F0A94ED500AD4ED4D0A48
:1033800030EE200A84ED500A94ED510AD4ED4E0A35
:1033900030EE200A84ED510A0FE0FFE79FED550A59
:1033A00084ED4F0A9FED530A84ED500A9FED510AB8
:1033B00084ED510A00204E49086094E0207900F025
:1033C000010010B10320207001E0002020708AE08D
:1033D000207900F0010018B10420207002E081E0A3
:1033E000002020707FE0207900F0010010B105205E
:1033F000207001E00020207075E0207900F00100CD
:10340000002866D004F58270FFF782F894ED530A25
:1034100084EDC60A94ED540A84EDC70A94ED930A2C
:1034200084EDC80A94ED570A84EDC40A94ED580A55
:1034300084EDC50A04F53370FEF72AFD607830B1DB
:10344000012809D0022808D003281ED111E004F574
:103450008270FEF79DFB19E018E004F5807004F51A
:103460003371D1E90E354A6B096C061D2CC601611A
:103470000CE004F5807004F53371D1E90E354A6B28
:10348000096C061D2CC6016100E000BF00BF04F5F9
:103490008270FFF75CF894ED550A84EDAC0A94ED68
:1034A000560A84EDAD0A04F51770FFF79CFE94ED03
:1034B000B00A84ED4A0A94EDB10A84ED4B0A04F592
:1034C0008270FFF763F8606820F00200801C606083
:1034D00005E0606820F0020060600020207002E0DB
:1034E000FFE700E000BF00BF70BD0000E4CB9640E6
:1034F0000C29002000000000002058494863886320
:10350000C8630846008C4AF6AA210840534908843B
:10351000524844300088C0F30E00A1F844007047C0
:1035200010B52DED048B9FED4E0AB0EE409A0421AC
:103530004C4800F09DF800287ED00421494800F056
:103540009CF84948011D0A1D464BDB6B00EE103A02
:10355000B8EE400A80ED000A424B1B6C00EE103AB8
:10356000B8EE400A81ED000A3E4B5B6C00EE103A6B
:10357000B8EE400A82ED000A00BFA0F5987090ED09
:103580004F0AD0ED4C0A30EE600AD0ED5F0A20EE13
:10359000200A80ED470A90ED500AD0ED4D0A30EE3A
:1035A000600AD0ED5F0A20EE200A80ED480A90ED17
:1035B000510AD0ED4E0A30EE600AD0ED5F0A20EEDF
:1035C000200A80ED490AFFF78CFE28480079C0F3F5
:1035D000400090B324482C38FFF70EF8234890EDB4
:1035E000610AD0ED590A20EE208A90ED610AD0EDF3
:1035F0005A0A60EE208A90ED610AD0ED5B0A20EE57
:10360000200AB0EE409ABCEEC80A10EE100ABCEEDA
:10361000E80A10EE101ABCEEC90A10EE102A0F4B81
:1036200058639963DA6300BF00BF1846008C45F207
:1036300055510843194601E00CE009E008840748A9
:103640004430008840F40040A1F8440000BF01E08D
:10365000FFF752FFBDEC048B10BD000000000140DD
:1036600000000000002001401C260020EC24002067
:1036700040F2054CC0F6000C604740F28F3CC0F6AB
:10368000000C604792000100FF00920E493CB10A15
:10369000C93C2BC3163D2EFB483D752B7B3D04A931
:1036A000963D80B6AF3D36BDC83D2FBCE13D73B2FF
:1036B000FA3D87CF093E8340163EB5AB223EA210AD
:1036C0002F3ECF6E3B3EC2C5473E0115543E135CB4
:1036D000603E7F9A6C3ECCCF783EC07D823E938E1A
:1036E000883E229A8E3E32A0943E86A09A3EE59A6B
:1036F000A03E128FA63ED47CAC3EEF63B23E2A447D
:10370000B83E491DBE3E15EFC33E53B9C93ECA7B04
:10371000CF3E4136D53E80E8DA3E4F92E03E7533EB
:10372000E63EBBCBEB3EEA5AF13ECBE0F63E275DF0
:10373000FC3EE4E7003F3D9C033F824B063F9BF588
:10374000083F6B9A0B3FDA390E3FCDD3103F2A6802
:10375000133FD9F6153FC07F183FC6021B3FD17FEC
:103760001D3FCBF61F3F9967223F25D2243F563697
:10377000273F1594293F4AEB2B3FDE3B2E3FBB856D
:10378000303FC9C8323FF30400FF00353F233A37CA
:103790003F4268393F3B8F3B3FF9AE3D3F67C73FF4
:1037A0003F70D8413F01E2433F03E4453F65DE47B8
:1037B0003F12D1493FF8BB4B3F029F4D3F207A4F0C
:1037C0003F3D4D513F4918533F31DB543FE595563E
:1037D0003F5348583F6AF2593F1A945B3F532D5D5F
:1037E0003F05BE5E3F2146603F97C5613F5A3C633F
:1037F0003F59AA643F880F663FD86B673F3CBF685C
:103800003FA7096A3F0C4B6B3F5E836C3F93B26DE1
:103810003F9ED86E3F73F56F3F0809713F52137298
:103820003F4714733FDD0B743F0BFA743FC6DE75E0
:103830003F07BA763FC58B773FF853783F981279A8
:103840003F9DC7793F02737A3FBE147B3FCDAC7B6F
:103850003F283B7C3FC9BF7C3FAC3A7D3FCCAB7D32
:103860003F23137E3FB0707E3F6DC47E3F580E7F76
:103870003F6D4E7F3FAB847F3F0FB17F3F97D37F3C
:103880003F43EC7F3F11FB7F3F3004000080082165
:10389000102118212021282130313842C4482150DC
:1038A0002158216021682170217821802188219070
:1038B000219821A021A821B021B821C021C821D060
:1038C00021D821E021E821F021F825002508251044
:1038D0002518252025282530253825402548255020
:1038E0002558256025682570257825802588259010
:1038F000259825A025A825B025B825C025C825D000
:1039000025D825E025E825F025F8290029082910E3
:1039100029182920292829302938294029482950BF
:1039200029582960296829702978298029882990AF
:10393000299829A029A829B029B829C029C829D09F
:1039400029D829E029E829F029F82D00032D0803BA
:103950002D10032D18032D20032D28032D30032DAA
:1039600038032D40032D48032D50032D58032D609F
:10397000032D68032D70032D78032D80032D8803FC
:103980002D90032D98032DA0032DA8032DB0032DFA
:10399000B8032DC0032DC8032DD0032DD8032DE06F
:1039A000032DE8032DF0032DF8035D000412BC1075
:1039B00012BC181EBD000412BD281EBD00041EBD91
:1039C000000412BD401EBD00041EBD00041EBD004B
:1039D000041EBE00041EBE00041EBE00041EBE0067
:1039E0000412BE8012BE881EBE00041EBE00041E4D
:1039F000BE000412BEA812BEB012BEB81EBE0004A5
:103A00001EBE000412BED012BED81EBE000412BEDE
:103A1000E812BEF012BEF81EBE00041EBE00041660
:103A2000BE1016BE181EBE000416BE281EBE000420
:103A30001EBE00041EBE000416BE481EBE00041EAC
:103A4000BE000416BF601EBF000416BF701EBF007C
:103A5000041EBF000416BF881EBF00041EBF000462
:103A600016BFA01EBF00041EBF000416BFB816BFBD
:103A7000C016BFC816BFD016BFD81EBF00041EBFD9
:103A8000000416BFF01EBF00041ABF001ABF081EB4
:103A9000BF00041EBF00041EBF00041ABF281ABFC7
:103AA000301ABF381EBF00041EBF00041EBF000432
:103AB0001ABF581ABF601EBF00041EBF00041ABF01
:103AC000781EBF00041EBF00041ABF901ABF981AC8
:103AD000BFA01ABFA81ABFB01EBF00041EBF0004BB
:103AE0001ABFC81EBF00041EBF00041ABFE01ABFE1
:103AF000E81ABFF01ABFF81EBF00041EBF00041E64
:103B0000BF10031EBF18031EBF20031EBF00041EEC
:103B1000BF00041EBF38031EBF40031EBF48031E64
:103B2000BF50031EBF00041EBF60031EBF68031EFC
:103B3000BF70031EBF00041EBF00041EBF88031E0B
:103B4000BF90031EBF00041EBF00041EBFA8031EBB
:103B5000BFB0031EBF00041EBFC0031EBFC8031EAC
:103B6000BF00041EBFD8031EBFE0031EBF00041E1B
:103B7000BFF0031EBFF8031EBF000431082110214F
:103B800018212021282130313842C44821502158A1
:103B9000216021682170217821802188219021983D
:103BA00021A021A821B021B821C021C821D021D82D
:103BB00021E021E821F021F825002508251025180D
:103BC00025202528253025382540254825502558ED
:103BD00025602568257025782580258825902598DD
:103BE00025A025A825B025B825C025C825D025D8CD
:103BF00025E025E825F025F82900290829102918AD
:103C0000292029282930293829402948295029588C
:103C1000296029682970297829802988299029987C
:103C200029A029A829B029B829C029C829D029D86C
:103C300029E029E829F029F82D00032D08032D108B
:103C4000032D18032D20032D28032D30032D3803B9
:103C50002D40032D48032D50032D58032D60032DB7
:103C600068032D70032D78032D80032D88032D907C
:103C7000032D98032DA0032DA8032DB0032DB80309
:103C80002DC0032DC8032DD0032DD8032DE0032D07
:103C9000E8032DF0032DF8031DFF073E80050810F3
:103CA00006010000020205200700020101000207D0
:103CB000220214210B12010B1106320211330102F0
:103CC0001F0110011007A0400BD7A33B0462BB12D9
:103CD00083F401046D6C08500A88130000D253FB72
:103CE000413224600EDD7EBC43DB0F4940DD7E3C6B
:103CF00043644A4008C92C447CD9A03E3210078056
:103D0000406F12833A0462BA5811301006422FE312
:103D10004D3C04AEBCC808E1286118500918B751E1
:103D2000380000404027115012032802460350017A
:103D300063010019426666663FCCCCCC3D8FC275EC
:103D40003DC20DDC3B510AA53C004003465CC00966
:103D5000813B8E3B6643C838721740412B022AC113
:103D60004825B411040236BE8825F8110462C482C5
:103D700004091A34DC22401474C73D1801222401BE
:103D80001A74A005DAAC2A3F50A4092E348948736E
:103D9000197E45F0100508FCD7450462C5340405BA
:103DA0004ACDCC4C3DDC29A018059A830447540425
:103DB000122E3F52B89E3E90FCC1392F56D439ED99
:103DC000849739CC0009567B09C743894EB840C057
:103DD00049FC600700410AD7A33CAC9810CEAFE67F
:103DE000393EEB28459E755144D0BA4100140AC8AB
:103DF000420000484200806D50072A484398A1A421
:0C3E000001220CA5D44FE8039A03000037
:040000050800018965
:00000001FF
