:020000040800F2
:1000000028130020C51E0008CD1E0008CF1E0008C2
:10001000D11E0008D31E0008D51E000800000000F5
:10002000000000000000000000000000D71E0008D3
:10003000D91E000800000000DB1E0008AD2E0008DD
:10004000DF1E0008DF1E0008DF1E0008DF1E00089C
:10005000DF1E0008DF1E0008DF1E0008DF1E00088C
:10006000DF1E0008DF1E0008DF1E0008DF1E00087C
:10007000DF1E0008DF1E0008DF1E0008DF1E00086C
:10008000DF1E0008DF1E0008851D0008DF1E0008B7
:10009000DF1E0008DF1E0008DF1E0008DF1E00084C
:1000A000A5310008DF1E0008DF1E0008DF1E000863
:1000B000B9310008DF1E0008DF1E0008DF1E00083F
:1000C000DF1E0008DF1E0008DF1E0008DF1E00081C
:1000D000DF1E0008DF1E0008DF1E0008DF1E00080C
:1000E000DF1E0008DF1E0008DF1E0008DF1E0008FC
:1000F000DF1E0008DF1E0008DF1E0008DF1E0008EC
:10010000DF1E0008DF1E0008DF1E0008DF1E0008DB
:10011000DF1E0008DF1E0008DF1E0008DF1E0008CB
:10012000DF1E0008DF1E0008DF1E0008DF1E0008BB
:10013000DF1E0008DF1E0008DF1E0008DF1E0008AB
:10014000DF1E0008DF1E0008DF1E0008DF1E00089B
:10015000DF1E0008DF1E0008DF1E0008DF1E00088B
:10016000DF1E0008DF1E0008DF1E0008DF1E00087B
:10017000DF1E0008DF1E0008DF1E0008DF1E00086B
:10018000DF1E0008DF1E000800F002F800F060F833
:100190000AA090E8000C82448344AAF10107DA45E2
:1001A00001D100F055F8AFF2090EBAE80F0013F0D4
:1001B000010F18BFFB1A43F001031847BC330000BE
:1001C000DC33000010F8013B0A4413F0030408BFBD
:1001D00010F8014B1D1108BF10F8015B641E05D01B
:1001E00010F8016B641E01F8016BF9D1002D15D0D8
:1001F00010F8014B03F00C030C2BA1EB04040ABF15
:1002000010F8013BA4EB8314A4EB032405F10103D4
:1002100014F8016B5B1E01F8016BF9D5914238BFF0
:1002200010F8013BD1D3704700230024002500269D
:10023000103A28BF78C1FBD8520728BF30C148BF49
:100240000B6070471FB503F091F91FBD10B510BDCD
:1002500001F061FE1146FFF7F5FF03F06FF901F0C1
:100260007FFE03B4FFF7F2FF03BC01F083FE000042
:1002700080ED040A704790ED010AD0ED040AB4EE57
:10028000E00AF1EE10FA1ADD90ED040AD0ED020A50
:1002900030EE200AD0ED010AB4EEE00AF1EE10FAD9
:1002A00008D290ED040AD0ED020A30EE200A80ED6B
:1002B000040A2CE090ED010A80ED040A27E090ED9D
:1002C000010AD0ED040AB4EEE00AF1EE10FA1AD2F7
:1002D00090ED040AD0ED030A30EE200AD0ED010AB9
:1002E000B4EEE00AF1EE10FA08DD90ED040AD0ED6C
:1002F000020A30EE600A80ED040A08E090ED010A7F
:1003000080ED040A03E090ED010A80ED040A7047D5
:1003100080ED010A704790ED020AD0ED000A20EE50
:10032000200AD0ED020AB7EE001A71EE600A90EDD5
:10033000011A00EE810A80ED010A7047DFEDCF0A55
:10034000C0ED000ADFEDCD0AC0ED010A80ED050A1F
:1003500080ED060A7047D0ED000A90ED011A70EEAC
:10036000C10AB0EE600AD0ED050A90ED031A41EE25
:10037000000AC0ED050AD0ED050A90ED071AF4EE6B
:10038000C10AF1EE10FA02D2D0ED050A01E0D0ED7B
:10039000070A90ED081AF4EEC10AF1EE10FA0EDD2C
:1003A000D0ED050A90ED071AF4EEC10AF1EE10FA4D
:1003B00002D2D0ED050A04E0D0ED070A01E0D0ED4D
:1003C000080AC0ED050AD0ED050A90ED021A41EECB
:1003D000000AC0ED060AD0ED060A90ED071AF4EE09
:1003E000C10AF1EE10FA02D2D0ED060A01E0D0ED1A
:1003F000070A90ED081AF4EEC10AF1EE10FA0EDDCC
:10040000D0ED060A90ED071AF4EEC10AF1EE10FAEB
:1004100002D2D0ED060A04E0D0ED070A01E0D0EDEB
:10042000080AC0ED060A70470146D1ED002A9FED8B
:10043000943A62EE832AB0EE620ADFED922A60EE11
:10044000222AF0EE620AFDEEE02A12EE900A8E4AAF
:1004500002EB8002D2ED002AB0EE621A8A4B421CF7
:1004600003EB8202D2ED002AF0EE621A02EE900A4D
:10047000F8EEE22A70EEE22AB0EE622A31EEC13ADC
:10048000F0EE412A42EE032AC1ED022AF5EE002ADF
:1004900070EE222AB0EE620A05E0F7EE002A70EE56
:1004A000622AB0EE620AF7EE002AB4EEE20AF1EE3A
:1004B00010FAF2DCDFED732A60EE222AF0EE620A17
:1004C000FDEEE02A12EE900A6F4A02EB8002D2EDB6
:1004D000002AB0EE621A6C4B421C03EB8202D2ED92
:1004E000002AF0EE621A02EE900AF8EEE22A70EEAE
:1004F000E22AB0EE622A31EEC13AF0EE412A42EE33
:10050000032AC1ED012A704730B5002200230024E0
:10051000DFED5A2AB0EE620AD0ED012AF0EE620A4F
:10052000D0ED022AB0EE621AF5EEC00AF1EE10FA32
:1005300009D1B5EEC01AF1EE10FA04D1DFED4F2A61
:10054000C0ED032A78E0F5EEC00AF1EE10FA04D20D
:10055000F1EE602AF0EE620A0223B5EEC01AF1EE67
:1005600010FA04D2F1EE412AB0EE621A0424B4EE7D
:10057000E01AF1EE10FA06DDB0EE602AF0EE410A64
:10058000B0EE421A0122D5182544E9B2C1EE201A74
:10059000F7EE002A72EEE13ADFED3C2A9FED3C3A9D
:1005A00043EE212A9FED3B3A03EEA23A63EE212A65
:1005B000B0EE620A082939D2DFE801F004070E150F
:1005C0001C232A3180ED030A35E0DFED332A72EE79
:1005D000C02AC0ED032A2EE0DFED302A72EEC02AD9
:1005E000C0ED032A27E0DFED2C2A70EE222AC0EDB1
:1005F000032A20E0DFED2A2A72EEC02AC0ED032A8A
:1006000019E0DFED282A70EE222AC0ED032A12E05D
:10061000DFED222A70EE222AC0ED032A0BE0DFED87
:10062000212A72EEC02AC0ED032A04E0DFED132A6E
:10063000C0ED032A00BF00BF30BDB5EEC00AF1EE29
:1006400010FA15DDB6EE001A20EE011AF0EE410A9E
:1006500010EE100A144901EB600000EE100A80EE63
:10066000801AF6EE001A01EE801AB0EE410A03E09D
:10067000DFED020AB0EE600A7047000000000000E3
:1006800083F9223E0000004408000020A3927A3E35
:100690004BC8873DDB0F493FDB0FC93FDB0F4940AC
:1006A000DB0FC940E4CB9640F51DBD1F10B50446D5
:1006B0009FEDFE0A2046FFF741FE9FEDFC0A04F184
:1006C0002400FFF725FE9FEDF90A84ED0C0A9FED4B
:1006D000F70A84ED0D0A9FEDF50A84ED0E0A9FEDF1
:1006E000F30A84ED0F0A94ED210AD4ED220A20EEDC
:1006F000200A84ED150A9FEDED0A84ED1D0A9FED99
:10070000EB0A84ED1E0A9FEDE90A84ED2A0A9FEDAB
:10071000E70A84ED2B0A9FEDE50A84ED280A9FED98
:10072000E30A84ED290A9FEDE10A84ED260A9FED94
:10073000DF0A84ED270A10BD10B5044694ED100AB7
:10074000D4ED150AF1EE600A94ED121A00EE810A5A
:1007500084ED160A94ED110AD4ED150AF1EE600A43
:1007600094ED131A00EE810A84ED170A94ED280A1D
:10077000D4ED160A30EE200AD4ED260A30EE600AD7
:10078000DFEDCB0A20EE200A84ED280A94ED290A39
:10079000D4ED170A30EE200AD4ED270A30EE600AB5
:1007A000DFEDC30A20EE200A84ED290A94ED160A33
:1007B00084ED260A94ED170A84ED270A94ED2A0A9F
:1007C000D4ED1F0A94ED281A00EE810A84ED2A0A5E
:1007D00094ED2B0AD4ED1F0A94ED291A00EE810A3C
:1007E00084ED2B0A94ED2A0AD4ED240A94ED121A12
:1007F00000EEC10A84ED2C0A94ED2B0AD4ED240AF4
:1008000094ED131A00EEC10A84ED2D0A94ED2C0A22
:1008100020EE000AD4ED2D0A94ED2D1A00EE810A87
:1008200084ED2E0A94ED2F0ADFEDA20A20EE200AB5
:10083000D4ED2E0A9FEDA01A01EE200A84ED2F0AB6
:1008400094ED1D0AD4ED240A94ED121A00EEC10AAB
:1008500084ED180A94ED1E0AD4ED240A94ED131ABF
:1008600000EEC10A84ED190A94ED180A20EE000A80
:10087000D4ED190A94ED191A00EE810AD4ED230A79
:1008800094ED141A60EE810A94ED231AD4ED141A33
:1008900021EE211A00EEC10A84ED1A0A94ED200A15
:1008A000D4ED180A20EE200AD4ED2F0A94ED1A1A7E
:1008B00070EEC10A20EE200A84ED1B0A94ED200A96
:1008C000D4ED190A20EE200AD4ED2F0A94ED1A1A5D
:1008D00070EEC10A20EE200A84ED1C0A94ED160A7F
:1008E000D4ED1B0A70EE200A94ED1D0A94ED1F1A38
:1008F00001EE200A84ED1D0A94ED170AD4ED1C0ABE
:1009000070EE200A94ED1E0A94ED1F1A01EE200AE3
:1009100084ED1E0A94ED1D0AD4ED240A94ED121AFA
:1009200000EEC10A84ED180A94ED1E0AD4ED240AE3
:1009300094ED131A00EEC10A84ED190A94ED190A18
:10094000D4ED0D0A20EE200A84ED000A94ED180A79
:10095000D4ED0E0A20EE200A84ED010A2046FFF7AE
:10096000FAFC94ED060A84ED090A04F12400FFF76D
:10097000D2FC94ED0C0AD4ED1F0A94ED091A00EE96
:10098000810A84ED0C0A07E094ED0C0ADFED4B0AB6
:1009900030EE600A84ED0C0A94ED0C0ADFED470A94
:1009A000B4EEE00AF1EE10FAEEDC07E094ED0C0A8A
:1009B000DFED420A30EE200A84ED0C0A94ED0C0AB9
:1009C000B5EEC00AF1EE10FAF0D304F13000FFF7F3
:1009D0002BFD10BD10B504469FED340A2046FFF7ED
:1009E000ADFC9FED320A04F12400FFF791FC9FED6E
:1009F0002F0A84ED0C0A9FED2D0A84ED140A9FED59
:100A00002B0A84ED150A9FED290A84ED180A9FED43
:100A1000270A84ED190A10BD10B5044694ED210A89
:100A2000B1EE400AD4ED140A20EE200AD4ED090AF2
:100A300094ED221A60EE810A94ED151A00EEC10AB7
:100A4000D4ED200A94ED101A00EE810AD4ED200AAC
:100A500094ED181A00EEC10AD4ED140A94ED1A1A96
:100A600041EE000AC4ED140A94ED210AB1EE400AE9
:100A7000D4ED150A20EE200AD4ED090A94ED221ACD
:100A800060EE810A94ED141A00EE810AD4ED200A7A
:100A900094ED111A00EE810AD4ED200A94ED191A92
:100AA00000EEC10AD4ED150A0AE0000000000000C3
:100AB00077BE7F3F3333733FCDCC4C3DDB0FC94016
:100AC00094ED1A1A41EE000AC4ED150A94ED140AC9
:100AD000D4ED120A30EE600A84ED160A94ED150A80
:100AE000D4ED130A30EE600A84ED170A94ED160A6D
:100AF000D4ED1B0AB4EEE00AF1EE10FA02D294ED46
:100B0000160A01E094ED1B0AD4ED1B0AF1EE600A0F
:100B1000B4EEE00AF1EE10FA0EDD94ED160AD4ED13
:100B20001B0AB4EEE00AF1EE10FA02D294ED160AB6
:100B300006E094ED1B0A03E094ED1B0AB1EE400AB7
:100B400084ED180A94ED170AD4ED1B0AB4EEE00AFE
:100B5000F1EE10FA02D294ED170A01E094ED1B0AAF
:100B6000D4ED1B0AF1EE600AB4EEE00AF1EE10FAE1
:100B70000EDD94ED170AD4ED1B0AB4EEE00AF1EE97
:100B800010FA02D294ED170A06E094ED1B0A03E076
:100B900094ED1B0AB1EE400A84ED190A94ED180A8F
:100BA000D4ED1C0A94ED161A00EE810A84ED180AA1
:100BB00094ED190AD4ED1C0A94ED171A00EE810A7F
:100BC00084ED190A94ED180AB1EE400AD4ED0D0A2D
:100BD00020EE200A84ED000A94ED190AD4ED0E0AE5
:100BE00020EE200A84ED010A2046FFF7B4FB94EDC5
:100BF000060A84ED090A04F12400FFF78CFB94ED4A
:100C00000C0AD4ED1A0A94ED091A00EE810A84ED5B
:100C10000C0A07E094ED0C0A5FED580A30EE600A0A
:100C200084ED0C0A94ED0C0A5FED5C0AB4EEE00A68
:100C3000F1EE10FAEEDC07E094ED0C0A5FED610ACC
:100C400030EE200A84ED0C0A94ED0C0AB5EEC00AD1
:100C5000F1EE10FAF0D304F13000FFF7E5FB10BD20
:100C600010B504469FEDFE0A84ED110A9FEDFC0AC3
:100C70002046FFF7FDFA9FEDFA0A04F11400FFF792
:100C8000F7FA9FEDF70A04F12800FFF7F1FA10BD1B
:100C900090ED0F0AD0ED120A60EE200A90ED091ACD
:100CA00090ED110A00EE810A80ED110A07E090ED47
:100CB000110ADFEDEC0A30EE600A80ED110A90EDCA
:100CC000110ADFEDE80AB4EEE00AF1EE10FAEEDC0C
:100CD00007E090ED110ADFEDE30A30EE200A80ED27
:100CE000110A90ED110AB5EEC00AF1EE10FAF0D338
:100CF000704710B504469FEDDA0A84ED110A9FEDA6
:100D0000D80A2046FFF7B4FA9FEDD50A04F1140083
:100D1000FFF7AEFA9FEDD20A04F12800FFF7A8FA18
:100D200010BD90ED0F0AD0ED120A60EE200A90ED92
:100D3000091A90ED110A00EE810A80ED110A07E010
:100D400090ED110ADFEDC70A30EE600A80ED110A5E
:100D500090ED110ADFEDC30AB4EEE00AF1EE10FAED
:100D6000EEDC07E090ED110ADFEDBE0A30EE200A5E
:100D700080ED110A90ED110AB5EEC00AF1EE10FAFD
:100D8000F0D3704790ED070AD0ED060AB0EE001AD6
:100D900011EE200AD0ED080A30EE600ADFEDB20A4B
:100DA00020EE200A80ED120A90ED070AD0ED080A25
:100DB00030EE600ADFEDAD0A20EE200A80ED130A66
:100DC000704790ED120AD0ED010A20EE200AD0ED16
:100DD000130A90ED021A00EE810A80ED140A90EDDC
:100DE000120AB1EE400AD0ED020A20EE200AD0ED40
:100DF000130A90ED011A00EE810A80ED150A704782
:100E000090ED090AD0ED010A20EE200AD0ED0A0A81
:100E100090ED021A00EEC10A80ED160A90ED090A63
:100E2000D0ED020A20EE200AD0ED0A0A90ED011A58
:100E300000EE810A80ED170A70479FED890A80ED68
:100E4000000A9FED870A80ED010A9FED850A80ED7B
:100E5000020A9FED830A80ED030A9FED810A80ED6F
:100E6000160A9FED7F0A80ED170A70470EB59FEDB9
:100E70007C3AB0EE431A9FED7A3AF0EE431A9FEDBA
:100E8000783AB0EE432A9FED763AB0EE430A9FEDF2
:100E9000743AF0EE430A9FED723AF0EE432A0021D5
:100EA00000910191029190ED173ADFED713A23EE36
:100EB000233AB0EE431AD0ED163AB0EE084AB0EE3F
:100EC000413A14EE233AF6EE003A23EE233AD0EDFF
:100ED000053A23EE233AF0EE431AD0ED163AB8EE77
:100EE000084AB0EE413A14EE233AF6EE003A23EE09
:100EF000233AD0ED053A23EE233AB0EE432A90EDA3
:100F0000053A23EE013AB0EE431A80F84410B5EEEC
:100F1000C01AF1EE10FA04DD90F84410491C80F874
:100F20004410F5EEC01AF1EE10FA04DD90F844100A
:100F3000891C80F84410B5EEC02AF1EE10FA04DDE9
:100F400090F84410091D80F8441090F844100729C7
:100F50002FD2DFE801F02E09250417122000B0EE91
:100F6000610AF0EE410A25E0B1EE613AB0EE430AC3
:100F7000B1EE423AF0EE430A1CE0B0EE410AF0EE68
:100F8000420A17E0B1EE413AB0EE430AB1EE613ADF
:100F9000F0EE430A0EE0B0EE420AF0EE610A09E01C
:100FA000B1EE423AB0EE430AB1EE413AF0EE430AF6
:100FB00000E000BF00BF30EE203AF0EE432A90ED93
:100FC0001B3AB4EEE23AF1EE10FA0DD290ED1B3A74
:100FD00023EE003AC3EE223AB0EE630A90ED1B3ADC
:100FE00033EE403AF0EE430A90ED1B3A33EE403ACE
:100FF00033EE603AF5EE003A23EE233AD0ED1C3A98
:10100000B6EE004A04EE233A8DED003A9DED003A2B
:10101000F6EE003A03EE803A8DED013A9DED013A8D
:10102000F6EE003A03EEA03A8DED023A90F8441045
:1010300007297BD2DFE801F0B12B96045F447B00E7
:10104000F0EE003AB0EE603A03EE803ADFED063A99
:1010500023EE233AD0ED043A23EE233A0AE00000CF
:1010600000000000DB0FC940ABAAAA3E3ACD133FF7
:10107000D7B3DD3F80ED163A1FED043A20EE833AF8
:10108000D0ED043A23EE233A80ED173A86E030EEB5
:10109000C03A5FED0B3A23EE233AD0ED043A23EE4B
:1010A000233A80ED163A30EE203A5FED103A23EE07
:1010B000233AD0ED043A23EE233A80ED173A6DE05F
:1010C000F8EE003AB0EE403A13EEA03A5FED1A3A6D
:1010D00023EE233AD0ED043A23EE233A80ED163A7C
:1010E0001FED1E3A20EE033AD0ED043A23EE233AE8
:1010F00080ED173A52E0F8EE003AB0EE403A13EEC7
:10110000A03A5FED273A23EE233AD0ED043A23EEDE
:10111000233A80ED163A9FEDFE3A20EE033AD0EDE9
:10112000043A23EE233A80ED173A37E035E030EE0B
:10113000C03A5FED333A23EE233AD0ED043A23EE82
:10114000233A80ED163AB1EE403A33EE603A5FED65
:10115000393A23EE233AD0ED043A23EE233A80EDD8
:10116000173A1BE0F0EE003AB0EE603A03EE803A38
:101170005FED433A23EE233AD0ED043A23EE233ACF
:1011800080ED163A9FEDE23A20EE833AD0ED043A34
:1011900023EE233A80ED173A00E000BF00BF10F8BD
:1011A000441FDC4A515C6A4602EB810191ED003A32
:1011B00080ED073A0278D7490831895C6A4602EB2C
:1011C000810191ED003A80ED083A0278D149103161
:1011D000895C6A4602EB810191ED003A80ED093AA3
:1011E00044380EBD90F84410CB4A525C00F17801AF
:1011F00001EB820191ED000A80ED060A90F844208F
:10120000C54908318A5C00F1780101EB820191ED5A
:10121000000A80ED070A90F84420BF4910318A5C2B
:1012200000F1780101EB820191ED000A80ED080ADE
:1012300070470EB55FED764AF0EE642A5FED784AAE
:10124000B0EE643A5FED7A4AF0EE643A5FED7C4AC4
:10125000B0EE640A5FED7E4AF0EE640A5FED804A0C
:10126000B0EE644A00210091019102915FED844A41
:10127000B0EE641A5FED864AF0EE641A5FED884ABC
:10128000B0EE642AD0ED174A1FED875A64EE854A06
:10129000F0EE642A90ED165AF0EE085AF0EE624A2B
:1012A00055EE854AB6EE005A64EE854A90ED055A31
:1012B00064EE854AB0EE643A90ED165AF8EE085A9C
:1012C000F0EE624A55EE854AB6EE005A64EE854A63
:1012D00090ED055A64EE854AF0EE643AD0ED054A89
:1012E00064EEA24AF0EE642A80F84410F5EEC02ABB
:1012F000F1EE10FA04DD90F84410491C80F8441017
:10130000B5EEC03AF1EE10FA04DD90F84410891CF5
:1013100080F84410F5EEC03AF1EE10FA04DD90F8D2
:101320004410091D80F8441090F8441007292FD26A
:10133000DFE801F02E09250417122000B0EE430A61
:10134000F0EE620A25E0F1EE434AB0EE640AF1EEF7
:10135000634AF0EE640A1CE0B0EE620AF0EE630A43
:1013600017E0F1EE624AB0EE640AF1EE434AF0EEA5
:10137000640A0EE0B0EE630AF0EE430A09E0F1EE13
:10138000634AB0EE640AF1EE624AF0EE640A00E0ED
:1013900000BF00BF70EE204AB0EE644AD0ED1B4A99
:1013A000F4EEC44AF1EE10FA0DD2D0ED1B4A64EE11
:1013B000804A84EE845AB0EE450AD0ED1B4A74EEA2
:1013C000C04AF0EE640AF7EE004A74EEC04A74EECA
:1013D000E04AB5EE005A64EE854ACDED024ADDEDF5
:1013E000024AB6EE005A45EE204ACDED014ADDED47
:1013F000014AB6EE005A45EE004ACDED004AD0ED66
:101400001C4AF4EEC04AF1EE10FA1BDDD0ED1C4A86
:10141000F4EEE04AF1EE10FA14DDD0ED1C4A74EE61
:10142000C04AB6EE005A64EE854AB0EE641AD0EDBA
:101430001C4A74EEE04ABEEE005A64EE854AB0EEF5
:10144000642A40E0D0ED1C4AF4EEC04AF1EE10FAF6
:1014500019DDD0ED1C4AF4EEE04AF1EE10FA12D894
:10146000D0ED1C4A74EEC04AB5EE005A64EE854ACF
:10147000B0EE641AD0ED1C4ABDEE005A64EE854A07
:10148000F0EE641A1FE0D0ED1C4AF4EEC04AF1EE13
:1014900010FA18D8D0ED1C4AF4EEE04AF1EE10FA3A
:1014A00011DDD0ED1C4AB5EE005A64EE854AF0EE2F
:1014B000641AD0ED1C4A74EEE04ABDEE005A64EEA8
:1014C000854AB0EE642ADDED004A74EE814A90ED63
:1014D0001D5A74EEC54AC0ED2B4ADDED014A74EE8B
:1014E000A14A90ED1D5A74EEC54AC0ED2C4A90F801
:1014F0004410072975D2DFE801F07475FD04FCDCA7
:10150000FB00B0EE005AF0EE604A45EE004A05E0FE
:101510003ACD13BF10080020280800209FEDFE5A86
:1015200064EE854A283010ED065A64EE854AC0ED17
:101530000C4ADFEDFA4A60EEA44A10ED065A64EE5A
:10154000854AC0ED0D4A017FF54A515C6A4602EBBF
:101550008101D1ED004A74EE814AC0ED1B4A027F41
:10156000EF490831895C6A4602EB8101D1ED004AFE
:1015700074EEA14AC0ED1C4A027FE9491031895C32
:101580006A4602EB8101D1ED004A74EE824AC0ED59
:101590001D4A017FE24A515C6A4602EB8101D1EDAE
:1015A000004A74EEC14AC0ED1E4A027FDC49083190
:1015B000895C6A4602EB8101D1ED004A74EEE14A92
:1015C000C0ED1F4A027FD6491031895C6A4602EBA2
:1015D0008101D1ED004A74EEC24AC0ED204A28389C
:1015E00017E215E270EEC04A9FEDCB5A64EE854AD1
:1015F000283010ED065A64EE854AC0ED0C4A70EEB4
:10160000204A9FEDC65A64EE854A10ED065A64EEF4
:10161000854AC0ED0D4A017FC14A515C6A4602EB22
:101620008101D1ED004A74EEA14AC0ED1B4A027F50
:10163000BB490831895C6A4602EB8101D1ED004A61
:1016400074EE814AC0ED1C4A027FB5491031895CB5
:101650006A4602EB8101D1ED004A74EE824AC0ED88
:101660001D4A017FAE4A515C6A4602EB8101D1ED11
:10167000004A74EEE14AC0ED1E4A027FA8490831D3
:10168000895C6A4602EB8101D1ED004A74EEC14AE1
:10169000C0ED1F4A027FA2491031895C6A4602EB05
:1016A0008101D1ED004A74EEC24AC0ED204A2838CB
:1016B000AFE1B8EE005AF0EE404A55EE204A9FEDF9
:1016C000965A64EE854A283010ED065A64EE854A33
:1016D000C0ED0C4ADFED914A60EE244A10ED065A47
:1016E00064EE854AC0ED0D4A017F8D4A515C02E0EF
:1016F000B5E04BE023E16A4602EB8101D1ED004AFF
:1017000074EE824AC0ED1B4A027F85490831895C2C
:101710006A4602EB8101D1ED004A74EE814AC0EDC8
:101720001C4A027F7E491031895C6A4602EB8101C6
:10173000D1ED004A74EEA14AC0ED1D4A017F784AFE
:10174000515C6A4602EB8101D1ED004A74EEC24A57
:10175000C0ED1E4A027F72490831895C6A4602EB7D
:101760008101D1ED004A74EEC14AC0ED1F4A027FEB
:101770006B491031895C6A4602EB8101D1ED004A68
:1017800074EEE14AC0ED204A283842E1B8EE005A32
:10179000F0EE404A55EE204A9FED5F5A64EE854ACE
:1017A000283010ED065A64EE854AC0ED0C4A5FED14
:1017B000A84A60EE244A10ED065A64EE854AC0ED50
:1017C0000D4A017F564A515C6A4602EB8101D1ED18
:1017D000004A74EE824AC0ED1B4A027F504908312C
:1017E000895C6A4602EB8101D1ED004A74EEA14AA0
:1017F000C0ED1C4A027F4A491031895C6A4602EBFF
:101800008101D1ED004A74EE814AC0ED1D4A017F8D
:10181000434A515C6A4602EB8101D1ED004A74EE05
:10182000C24AC0ED1E4A027F3D490831895C6A46C2
:1018300002EB8101D1ED004A74EEE14AC0ED1F4A8E
:10184000027F37491031895C6A4602EB8101D1ED94
:10185000004A74EEC14AC0ED204A2838D9E070EE43
:10186000C04A9FED2D5A64EE854A283010ED065A85
:1018700064EE854AC0ED0C4AF1EE404A74EEE04A4F
:101880009FED265A64EE854A10ED065A64EE854AAD
:10189000C0ED0D4A017F224A515C6A4602EB81018C
:1018A000D1ED004A74EEA14AC0ED1B4A027F1C49EB
:1018B0000831895C6A4602EB8101D1ED004A74EE81
:1018C000824AC0ED1C4A027F15491031895C6A4684
:1018D00002EB8101D1ED004A74EE814AC0ED1D4A50
:1018E000017F0F4A515C6A4602EB8101D1ED004A4B
:1018F00074EEE14AC0ED1E4A027F09490831895C55
:101900006A4602EB8101D1ED004A74EEC24AC0ED95
:101910001F4A027F024905E0ABAAAA3E3ACD133F17
:10192000100800201031895C6A4602EB8101D1ED7C
:10193000004A74EEC14AC0ED204A283869E0B0EE92
:10194000005AF0EE604A45EE004A1FED0D5A64EE73
:10195000854A283010ED065A64EE854AC0ED0C4ADF
:10196000DFED614A60EEA44A10ED065A64EE854A46
:10197000C0ED0D4A017F5D4A515C6A4602EB810170
:10198000D1ED004A74EE814AC0ED1B4A027F5749EF
:101990000831895C6A4602EB8101D1ED004A74EEA0
:1019A000824AC0ED1C4A027F50491031895C6A4668
:1019B00002EB8101D1ED004A74EEA14AC0ED1D4A4F
:1019C000017F4A4A515C6A4602EB8101D1ED004A2F
:1019D00074EEC14AC0ED1E4A027F44490831895C59
:1019E0006A4602EB8101D1ED004A74EEC24AC0EDB5
:1019F0001F4A027F3D491031895C6A4602EB810132
:101A0000D1ED004A74EEE14AC0ED204A283800E0EA
:101A100000BF00BF0EBD10B504469FED350A20463D
:101A2000FEF78CFC9FED320A04F12400FEF786FCE1
:101A30009FED2F0A04F14800FEF71AFC10BD10B507
:101A400004469FED2B0A2046FEF778FC9FED280AFE
:101A500004F12400FEF772FC10BD10B5044694EDAD
:101A6000120AD4ED1B0A20EE200A84ED170A94ED29
:101A7000120AD4ED1B0A20EE200A84ED180A94ED18
:101A8000170A84ED070A94ED170AB1EE400A84EDB7
:101A9000080A94ED130A84ED000A94ED150A84ED0A
:101AA000010A2046FEF757FC94ED060A84ED190A58
:101AB00094ED180A84ED100A94ED180AB1EE400A6C
:101AC00084ED110A94ED140A84ED090A94ED160AC6
:101AD00084ED0A0A04F12400FEF73DFC94ED0F0AA0
:101AE00084ED1A0A10BD00003ACD13BF1008002083
:101AF0000000000010B5044604F15000FFF7B0F8F4
:101B000004F1A000FFF7F5F804F1F000FFF795F9F4
:101B100004F5D270FFF77FFF04F50F70FFF78FFF1A
:101B200004F52B70FEF7C2FD04F55B70FEF752FF63
:101B30000120607010BD70B50446A06818B16068DF
:101B400020F0010060602078072872D2DFE800F002
:101B5000040E606A757FFE00606820F0020060601D
:101B60002046FFF7C7FF01202070F1E0207900F048
:101B70000100E0B377480068401C764908601428EB
:101B80001CD90020086094ED4A0AF3EE040A80EEA6
:101B9000201A84ED4A1A94ED4B0AF3EE040A80EE03
:101BA000201A84ED4B1A94ED4C0AF3EE040A80EEF1
:101BB000201A84ED4C1A0220207028E094ED4A0A85
:101BC000D4ED470A30EE200A84ED4A0A94ED4B0A20
:101BD000D4ED480A30EE200A84ED4B0A94ED4C0A0D
:101BE000D4ED490A30EE200A84ED4C0A0FE0FFE7FD
:101BF0009FED590A84ED4A0A9FED570A84ED4B0A7E
:101C00009FED550A84ED4C0A0020524908609FE080
:101C1000207900F0010010B10320207001E00020C5
:101C2000207095E0207900F0010018B104202070A8
:101C300002E08CE0002020708AE0207900F00100B2
:101C400010B10520207001E00020207080E0207994
:101C500000F00100002872D004F1F000FFF792F8C4
:101C600094ED4E0A84EDBD0A94ED4F0A84EDBE0A50
:101C700094ED8B0A84EDBF0A94ED520A84EDBB0A01
:101C800094ED530A84EDBC0A04F52B70FEF754FD65
:101C9000607830B1012805D0022810D0032828D15F
:101CA0001AE027E004F15000FEF7F2FF94ED250A58
:101CB00084ED3C0A04F1F000FEF7B6FB1AE004F1F3
:101CC000800004F52B71D1E90D350A6BC96BC0E9B1
:101CD0001D350267C1670DE004F1800004F52B712A
:101CE000D1E90D350A6BC96BC0E91D350267C167C3
:101CF00000E000BF00BF04F1F000FFF762F894EDD0
:101D0000500A84EDA40A94ED510A84EDA50A04F565
:101D10000F70FFF7A2FE94EDA80A84ED450A94ED3A
:101D2000A90A84ED460A04F1F000FFF769F860683B
:101D300020F00200801C606007E007E0FFE76068B9
:101D400020F0020060600020207001E000E000BF91
:101D500000BF70BD400C002000000000002053496F
:101D600048638863C8630846008C4AF6AA21084085
:101D70004E4908844D484430008820F40040A1F8C2
:101D80004400704710B50421494800F035F9002897
:101D90007ED00421464800F0F3F84648011D021D9C
:101DA000434BDB6B00EE103AB8EE400A80ED000AC0
:101DB0003F4B1B6C00EE103AB8EE400A81ED000A72
:101DC0003B4B5B6C00EE103AB8EE400A82ED000A25
:101DD00000BFA0F58E7090ED4A0AD0ED470A30EEB4
:101DE000600ADFED350A20EE200A80ED420A90ED10
:101DF0004B0AD0ED480A30EE600ADFED2F0A20EEE4
:101E0000200A80ED430A90ED4C0AD0ED490A30EEED
:101E1000600ADFED290A20EE200A80ED440AFFF770
:101E20008AFE26480079C0F3400090B321482C3840
:101E3000FFF71CF8214890ED540AD0ED550A90EDBB
:101E4000561ADFED1F1A60EE211AFCEEE11A11EEB0
:101E5000900A16494863DFED1A1A60EEA11AFCEEEB
:101E6000E11A11EE900A8863DFED151A61EE211A6E
:101E7000FCEEE11A11EE900AC86300BF00BF0846ED
:101E8000008C45F25551084308490884074801E091
:101E90000AE007E04430008840F40040A1F8440024
:101EA00000BF01E0FFF75AFF10BD00000000014035
:101EB000002001405C090020C20DDC3B40080020EE
:101EC000004003460948804709480047FEE7FEE70F
:101ED000FEE7FEE7FEE7FEE7FEE7FEE7FEE7FEE7DA
:101EE00004480549054A064B70470000C52E000806
:101EF00089010008280D002028130020280F002049
:101F0000280F002070477047704700000048704756
:101F1000C40C002070477546FFF7F8FFAE46050079
:101F20006946534620F00700854618B020B5FFF7F4
:101F3000D7FFBDE820404FF000064FF000074FF0FC
:101F400000084FF0000B21F00701AC46ACE8C009D7
:101F5000ACE8C009ACE8C009ACE8C0098D467047E0
:101F600010B50446AFF300802046BDE81040FEF7F0
:101F700078B9000001491820ABBEFEE72600020038
:101F8000CA430260704700220A12D34303607047BD
:101F900021B1826842F00102826003E0826822F08F
:101FA00001028260704700000021084A1168084A57
:101FB0001140D0E900231A4383681A43C3681A43C7
:101FC0001143044AC2F8041370470000042301407F
:101FD000E030FCFF002001400A460021816821F426
:101FE00070211143816070470A460021816821F405
:101FF00040111143816070470246002013680B4076
:102000000BB1012000E00020704710B50B46002105
:10201000D9B2012404FA01F11AB144680C434460B6
:1020200002E044688C43446010BD000030B50246B5
:10203000002000235068104C20400D790C6844EAC1
:1020400005242043506090680C4C2040D1E9035493
:102050002C438D682C434D7944EA4504204390601D
:10206000D06A20F470000C7D641EE4B2234340EA81
:102070000350D06230BD0000FFFEFFFCFDF7FFC043
:10208000F0B504461546002000220026092911DD7E
:10209000E068A1F10A0707EB470C072707FA0CF2E3
:1020A0009043A1F10A0707EB470703FA07F2104331
:1020B000E0600CE0206901EB410C072707FA0CF205
:1020C000904301EB410703FA07F210432061A06B34
:1020D000C0F30156EF1C06F1010CA7EB0C0707EB50
:1020E000870C1F2707FA0CF29043EF1C06F1010C36
:1020F000A7EB0C0707EB870701FA07F21043A06371
:10210000F0BD21B1426842F48052426003E042686F
:1021100022F480524260704710B50A460021002325
:10212000816B21F44011531E41EA0351816310BDBC
:10213000F0B504460D4600200021092D11DDE068B0
:10214000A5F10A0606EB4607072606FA07F18843BB
:10215000A5F10A0606EB460603FA06F10843E0601D
:102160000CE0206905EB4507072606FA07F18843CE
:1021700005EB450603FA06F108432061072A0FDA4A
:10218000606B561E06EB86071F2606FA07F188438A
:10219000561E06EB860605FA06F10843606322E048
:1021A0000D2A0FDA206BD61F06EB86071F2606FACC
:1021B00007F18843D61F06EB860605FA06F10843A9
:1021C000206310E0E06AA2F10D0606EB86071F26E9
:1021D00006FA07F18843A2F10D0606EB860605FA1A
:1021E00006F10843E062F0BD816841F08041816002
:1021F0007047000038B10849096841F40001074AF6
:10220000C2F8041306E00449096821F40001034AF6
:10221000C2F804137047000004230140002001406D
:1022200000B58BB00120FFF7E5FF00200990079073
:1022300008900A9007A8FFF7B7FE00200190012040
:102240008DF808008DF8090000200390059001200A
:102250008DF8180001A92348FFF7E8FE04230122A6
:1022600000212048FFF764FF04211E48FFF754FFB8
:1022700001231A4608211B48FFF702FF012302220F
:1022800006211848FFF7FCFE0123032211461548DA
:10229000FFF7F6FE0123042209211248FFF7F0FEA2
:1022A00000211048FFF72DFF4FF400110D48FFF7F4
:1022B0009BFE4FF480310B48FFF78EFE40F2074142
:1022C0000848FFF760FE012240F207410548FFF78A
:1022D0009CFE01210348FFF75BFE0248FFF784FFE5
:1022E0000BB000BD0020014010B500F0B1FD012190
:1022F000084600F009FD0121022000F005FD012142
:10230000042000F001FD0121082000F0FDFC012166
:10231000102000F0F9FC0121202000F0F5FC012143
:10232000402000F0F1FC0121802000F0EDFC0121B3
:10233000080200F0E9FC0121084600F0F5FC01214B
:10234000C80200F0F1FC0121084600F0FDFC01216B
:10235000080200F0F9FC0121880300F0F5FC10BD33
:1023600000B58FB000BF154800F0E7FA0028FAD199
:1023700000900190124802900020039001200490E8
:10238000002005904FF48060069040000790800088
:10239000089000010A904012099000200B90012043
:1023A0000C9000200D900E906946044800F0D0FA81
:1023B0000121024800F0B6FA0FB000BD10640240DF
:1023C000000000201CB54FF48061B74800F063FBAB
:1023D0001020009000208DF8040001208DF80700E7
:1023E0006946B24800F0E0FA4FF4806000900120A6
:1023F0008DF804008DF8070000208DF8050069466F
:10240000A94800F0D1FA012000908DF804000220C4
:102410008DF8070000208DF805006946A34800F0FC
:10242000C3FA0220009001208DF8040002208DF8EC
:10243000070000208DF8050069469C4800F0B4FABA
:1024400001219A4800F024FB0221984800F020FB6B
:102450000420009000208DF8040001208DF8070072
:102460006946924800F0A0FA0820009000208DF8FC
:10247000040001208DF8070069468C4800F094FAAA
:102480001020009000208DF8040001208DF8070036
:102490006946864800F088FA03208DF80400012080
:1024A000009000208DF807006946814800F07CFA12
:1024B00003208DF804004020009000208DF80700D4
:1024C00069467C4800F070FA03208DF8040008206B
:1024D000009000208DF807006946764800F064FA05
:1024E00003208DF804000220009000208DF80700E2
:1024F00069466F4800F058FA02208DF80400002069
:102500008DF806004FF48070009000208DF80700D1
:1025100003208DF805006946664800F045FA022060
:102520008DF8040000208DF806004FF40070009034
:1025300000208DF8070003208DF8050069465D48EE
:1025400000F032FA02208DF8040000208DF8060019
:102550004FF48060009000208DF8070003208DF874
:1025600005006946534800F01FFA02208DF8040068
:1025700000208DF806004FF40050009000208DF8E8
:10258000070003208DF805006946494800F00CFA61
:1025900002208DF8040000208DF806004FF48040E2
:1025A000009000208DF8070003208DF80500694693
:1025B0003F4800F0F9F902208DF8040000208DF862
:1025C00006004FF40040009000208DF80700032023
:1025D0008DF805006946364800F0E6F900208DF8D0
:1025E000040001208DF806000003009000208DF803
:1025F000070003208DF8050069462D4800F0D4F946
:10260000012208212B4800F017FA0122092129484C
:1026100000F012FA01220A21264800F00DFA0122E8
:102620000D21234800F008FA01220E21204800F075
:1026300003FA01220F211E4800F0FEF901220C21AD
:102640001B4800F0F9F94FF48060009000208DF8ED
:10265000040003208DF8050000208DF8070069466E
:10266000154800F0A1F94FF40060009000208DF8AB
:10267000040003208DF8050000208DF8070069464E
:102680000D4800F091F94FF48050009000208DF833
:10269000040003208DF8050000208DF8070069462E
:1026A000054800F081F91CBD0014024000100240F2
:1026B0000004024000000240001C024010B504214A
:1026C000014800F0DCF910BD0010024010B50821EF
:1026D000014800F0D4F910BD0010024038B54FF0A9
:1026E000FF300521002807DA0A07140E164A00F009
:1026F0000F031B1FD45403E00A07130E134A13548D
:1027000000BF4FF4A06000F0F5FA12208DF8000031
:1027100003208DF8010000208DF8020001208DF8C3
:102720000300684600F0AAFA18208DF80000002087
:102730008DF801008DF8020001208DF80300684635
:1027400000F09CFA38BD000018ED00E000E400E065
:1027500000B58DB00121374800F05BFD4FF40070EB
:10276000ADF830002020ADF82A000020ADF8280098
:1027700001208DF8320041F267000B900AA92D4824
:1027800000F09AFE7020ADF814000120ADF816009C
:102790000420ADF8180000200790ADF82000ADF837
:1027A0002200ADF82400ADF8260005A9214800F06C
:1027B0005DFD05A91F4800F097FD05A91D4800F023
:1027C000E5FD5420079005A91A4800F02FFE70215E
:1027D000184800F067FE4FF40060ADF804004010A8
:1027E000ADF806000020ADF808001520ADF80A008D
:1027F0004FF48050ADF80C004000ADF80E00002002
:10280000ADF8100001A90B4800F0EDFC802109484B
:1028100000F0FCFC01228021064800F01EFD012191
:10282000044800F0D4FC0121024800F0FEFC0DB089
:1028300000BD0000000001400EB54FF40070ADF87F
:1028400008000020ADF80200ADF800008DF80A0085
:10285000401E019069464FF0804000F02DFE01219E
:10286000880700F0D6FC0EBD70B52DED028B044636
:102870000D469FED2B0AB0EE408A95ED0A0AB0EEA8
:10288000408AFFF71BFF2061FFF720FFA061287936
:10289000C0F3400048B12069A8B96069012812D18D
:1028A000686820F0020068600DE02879C0F34000FD
:1028B00048B9A06938B9E069012804D1686820F0F6
:1028C0000200801C686020696061A069E06194ED8D
:1028D000020AB4EEC80AF1EE10FA04D294ED020A2C
:1028E000B0EE408A0AE094ED030AB4EEC80AF1EEB5
:1028F00010FA03DD94ED030AB0EE408A94ED020A6B
:10290000D4ED030A30EE600AD4ED030A78EE600AD3
:1029100080EE801A85ED0F1ABDEC028B70BD0000B1
:102920000000000021B1026842F00102026003E0F1
:10293000026822F0010202607047014600200A6826
:1029400002F001020AB1012000E0002070470000FF
:1029500010B500220268134B1A40CC680B68234361
:102960004C6923438C692343CC6923430C6A23437A
:102970004C6A23438C6A23434C6B23438C6B234365
:102980001A430260426922F00702D1E90B34234363
:102990001A4342610B6943604B6883608B68C36074
:1029A00010BD00003F801CF0F0B50A460021002356
:1029B000002400BF3DE0012505FA01F3156805EA92
:1029C00003049C4234D105684F000326BE40B54342
:1029D000056015794E00B5400668354305601579E8
:1029E000012D02D01579022D16D185684F000326DE
:1029F000BE40B543856055794E00B5408668354385
:102A00008560456801268E40B543456045689679E6
:102A10008E40B6B235434560C5684F000326BE40C0
:102A2000B543C560D5794E00B540C6683543C5602D
:102A3000491C1029BFD3F0BDF0B5002300244D0779
:102A4000ED0E02FA05F3CE1000F1200555F82650E0
:102A50004E07F70E0F26BE40B543CF1000F12006FB
:102A600046F82750CE1000F1200555F8265045EACB
:102A70000304CE1000F1200545F82640F0BD0246C3
:102A8000002013690B400BB1012000E000207047CB
:102A90000A04826170478161704710B50446204680
:102AA000FDF7E9FB04F11400FDF7E5FB10BD0000A4
:102AB00010B5044694ED1C0AD4ED240AB4EEE00AE5
:102AC000F1EE10FA02D294ED1C0A01E094ED240A12
:102AD000D4ED250AB4EEE00AF1EE10FA0EDD94ED25
:102AE0001C0AD4ED240AB4EEE00AF1EE10FA02D288
:102AF00094ED1C0A04E094ED240A01E094ED250A0B
:102B000084ED130A04F14800FDF7B5FB94ED160AB5
:102B100084ED000A94ED1D0A84ED010A2046FDF7BC
:102B20001AFC94ED1E0ADFED190A20EE200A84ED4E
:102B3000090AD4ED1F0A60EEA00A94ED201AD4ED24
:102B4000201A41EE210AB0EE600AFDF776FD84ED11
:102B50000A0A04F12400FDF7FEFB94ED0F0A84ED50
:102B6000170A04F15C00FDF75FFC94ED060AD4ED52
:102B7000190A20EE200A84ED220A94ED060AD4ED0B
:102B8000180A20EE200A84ED230A10BD3ACD133F27
:102B900010B50446207805286CD194EDB50A84ED73
:102BA000860A607830B1012805D0022846D0032873
:102BB0005ED150E05DE094EDD00A84EDDA0A04F1D4
:102BC0005000FFF76AFF9FED2C0A84EDA20A94EDF6
:102BD000230AD4ED180A20EE200A84EDA30A94ED0E
:102BE000860AF3EE0E0AB4EEE00AF1EE10FA21DBEB
:102BF000D4F8F803401CC4F8F803C8281DD394ED9A
:102C0000CD0A84EDC00AD4EDA30AB0EE600A04F543
:102C1000D270FDF793FBD4ED860AB7EE001A70EE82
:102C2000810AB0EE600A04F5F670FDF721FB022080
:102C3000607002E00020C4F8F8031AE004F5D270D6
:102C4000FFF736FF94ED8B0A84EDA20A94ED8C0A0F
:102C500084EDA30A0DE004F5D270FFF729FF94ED8F
:102C60008B0A84EDA20A94ED8C0A84EDA30A00E09D
:102C700000BF00E000BF10BD0000000070B50021E3
:102C800000230F22C4781CB3174C246804F4E064BA
:102C9000C4F5E064C4F30721C1F10404E3B20A41BE
:102CA00044789C40E1B28478144021430C07210E03
:102CB0000E4C05786155047804F01F050124AC40E2
:102CC00005786D11AD0005F1E025C5F8004109E07A
:102CD000047804F01F050124AC40054D06787611F8
:102CE00045F8264070BD00000CED00E000E400E077
:102CF00080E100E002490143024A11607047000090
:102D00000000FA050CED00E029B1064A1268024302
:102D1000044B1A6004E0034A12688243014B1A60B4
:102D2000704700003038024029B1064A1268024359
:102D3000044B1A6004E0034A12688243014B1A6094
:102D4000704700004038024029B1064A1268024329
:102D5000044B1A6004E0034A12688243014B1A6074
:102D600070470000443802400CB5002001900090EC
:102D70003348006840F480303149086000BF304873
:102D8000006800F4003000900198401C0190009809
:102D900018B90198B0F5A04FF1D12948006800F4A6
:102DA000003010B10120009001E000200090009858
:102DB000012844D122484030006840F0805020492A
:102DC000403108601F48006840F440401D490860D9
:102DD0001B48083000681A49083108600846006836
:102DE00008600846006840F4A05008601648091FB3
:102DF0000860081F006840F08070091F086000BF6D
:102E00000F48006800F000700028F9D040F205700B
:102E10000E4908600A480830006820F0030008499D
:102E2000083108600846006840F00200086000BFF2
:102E300003480830006800F00C000828F8D10CBDE9
:102E4000003802400070004008544007003C024037
:102E500030B51349481EB0F1807F01D301201BE03B
:102E6000481E4FF0E022506150170F22002807DA69
:102E700013071D0E0B4B00F00F04241F1D5503E01C
:102E800013071C0E084B1C5400BF00204FF0E0221B
:102E9000906107201061002008B100BFFEE730BD3F
:102EA0004090020018ED00E000E400E010B5034897
:102EB00000F068F90248FFF76BFE10BD6C0C0020B3
:102EC0004008002010B51548006840F47000134910
:102ED00008601348006840F00100114908600020B4
:102EE0000F49083108600E4800680E4908400C4937
:102EF00008600D48091D0860081F006820F4802044
:102F0000091F0860002006490C310860FFF72CFFFC
:102F10004FF0006001498039086010BD88ED00E085
:102F200000380240FFFFF6FE1030002410B50446C2
:102F30001248806C00EE100AB8EE400A84ED030AD5
:102F40009FED0F0A84ED060A9FED0E0A84ED090A33
:102F50009FED0B0A84ED0C0A04F10C00FDF7DBF980
:102F600004F11800FDF7D7F904F12400FDF7D3F9B7
:102F700004F13000FDF7CFF910BD00000020014042
:102F80000000000000F07F4510B504462046FFF722
:102F9000CDFFB7EE000A444880ED840A80ED230A95
:102FA00080ED370A00BFD4ED040A9FED401A20EEF1
:102FB000810A80ED400AF7EE000A80EE801A80ED6B
:102FC000411A80ED870A80EDA10A00BFD4ED0F0AF7
:102FD0009FED371A20EE810ADFED360A60EE200AF7
:102FE0009FED351AC0EE811AC0ED851A00BF00BFF3
:102FF000806820B1A06820F00100401CA0606078CB
:1030000030B1012812D002281CD0032833D125E08A
:10301000606D401C6065216D884206D300206065AC
:10302000204600F04BF80120607025E0A06810B148
:103030000320607005E02079C0F3400008B1022051
:10304000607019E0A06810B10320607005E020797D
:10305000C0F3400008B9012060700DE02079C0F392
:10306000400038B90020A06000BF0F49886000BF51
:103070000120607000E000BF00BF6078022809D125
:1030800000BF0948406820F00100401C0649486024
:1030900000BF08E000BF0448406820F0010002497A
:1030A000486000BF00BF10BD40080020510AA53C89
:1030B00000404E45D253FB410000704210B504461B
:1030C0000F48806C00EE900AF8EE600AB0EE600ADD
:1030D00004F10C00FDF71CF99FED0A0A04F1180039
:1030E000FDF716F99FED080A04F12400FDF710F929
:1030F0009FED040A04F13000FDF70AF910BD00004D
:10310000002001400000000000F07F4510B504469B
:10311000207900F0010080B32078401C207017490E
:103120001748FFF7A1FB207800F00100F0B92078E4
:1031300000F00200022819D0207800F004000428D2
:1031400014D0207800F0080008280FD0207800F074
:10315000100010280AD0207800F02000202805D088
:10316000207800F04000402800D000BF606820F0C8
:10317000010060600148FFF707FF10BD6C0C0020E4
:10318000440C0020017901F0010129B9416821F0C6
:103190000101491C416004E0816821F00201891CA1
:1031A0008160704710B58021024800F02CF8FEF7CE
:1031B000D5FD10BD0000014010B50121880700F0C9
:1031C00043F818B10121880700F01DF810BD21B1A6
:1031D000028842F08002028004E002884FF67F738A
:1031E0001A40028070470A884B881A438B881A431A
:1031F000CB881A430B891A434B891A438B891A438C
:10320000A0F844207047CA4302827047CA43028232
:10321000704721B1028842F00102028004E0028876
:103220004FF6FE731A400280704731B1B0F8442067
:1032300042F40042A0F8442005E0B0F84420C2F374
:103240000E02A0F84420704702460020138A0B406B
:103250000BB1012000E0002070471AB183890B43B5
:10326000838102E083898B438381704770B500249A
:1032700000220023058C4FF6FE7635400584028C33
:103280008388048B4FF68F752C40B51E2C400D881B
:103290002C43751E2A408D892A434D882A43104DA0
:1032A000A84202D00F4DA84213D14FF6F7752A401D
:1032B000CD892A434FF6FB752A408D882A434FF665
:1032C000FF652B404FF6FF552B400D8A2B434D8A4F
:1032D0002B43838004838D684563028470BD0000A6
:1032E000000001400004014070B5002400220023CA
:1032F000058C4FF6EF7635400584028C8388048B6D
:1033000048F6FF752C404FF6FF452C400D884FF6D0
:10331000FF7606EA05252C434FF6DF752A408D8996
:1033200006EA05152A434D8806EA05152A43154D78
:10333000A84202D0144DA8421DD14FF67F752A40F5
:10334000CD894FF6FF7606EA05152A434FF6BF757D
:103350002A408D8806EA05152A434FF6FF352B4093
:103360004FF2FF752B400D8A06EA85052B434D8AE7
:1033700006EA85052B43838004838D688563028478
:1033800070BD0000000001400004014070B5002441
:1033900000220023058C4FF6FF6635400584028C21
:1033A0008388848B4FF68F752C404FF6FC752C402C
:1033B0000D882C434FF6FF552A408D894FF6FF7636
:1033C00006EA05252A434D8806EA05252A43154DB8
:1033D000A84202D0144DA8421DD14FF2FF752A40D9
:1033E000CD894FF6FF7606EA05252A434FF6FF35CD
:1033F0002A408D8806EA05252A434EF6FF752B40A4
:103400004DF6FF752B400D8A06EA05152B434D8AB4
:1034100006EA05152B43838084838D68C563028487
:1034200070BD0000000001400004014070B50022A2
:1034300000230024058C4EF6FF7635400584038C6E
:103440008488828B48F6FF752A404FF6FF452A4054
:103450000D884FF6FF7606EA05252A434DF6FF75DF
:103460002B408D8906EA05352B434D8806EA053544
:103470002B430A4DA84202D0094DA84208D14BF671
:10348000FF752C400D8A4FF6FF7606EA85152C4312
:10349000848082838D680564038470BD00000140D0
:1034A0000004014082884FF68F731A408280828820
:1034B0000A4382807047000000220288184B98421D
:1034C0000ED0184B98420BD0B0F1804F08D0164B5D
:1034D000984205D0154B984202D0154B984204D122
:1034E0004FF68F731A404B881A43124B984207D0FD
:1034F000114B984204D04FF6FF431A400B891A43F0
:1035000002804B68C3620B880385054B984202D04A
:10351000044B984201D18B7A038601238382704742
:103520000000014000040140000400400008004089
:10353000000C0040001000400014004072B6FEF77E
:10354000D3FEFEF73FFFFEF70BFFFEF769FEFFF726
:10355000FFF8FFF771F9FFF7C1F862B600BF024844
:10356000FFF7D4FDFBE700006C0C00204FF040702B
:10357000E1EE100A704700009835000800000020B6
:10358000C40C0000C4010008143D0008C40C002055
:10359000640600002802000892000100FF00920E5D
:1035A000493CB10AC93C2BC3163D2EFB483D752B47
:1035B0007B3D04A9963D80B6AF3D36BDC83D2FBCCE
:1035C000E13D73B2FA3D87CF093E8340163EB5AB6D
:1035D000223EA2102F3ECF6E3B3EC2C5473E011594
:1035E000543E135C603E7F9A6C3ECCCF783EC07DEB
:1035F000823E938E883E229A8E3E32A0943E86A0D2
:103600009A3EE59AA03E128FA63ED47CAC3EEF6374
:10361000B23E2A44B83E491DBE3E15EFC33E53B9E3
:10362000C93ECA7BCF3E4136D53E80E8DA3E4F9256
:10363000E03E7533E63EBBCBEB3EEA5AF13ECBE0D3
:10364000F63E275DFC3EE4E7003F3D9C033F824B96
:10365000063F9BF5083F6B9A0B3FDA390E3FCDD3FF
:10366000103F2A68133FD9F6153FC07F183FC602A6
:103670001B3FD17F1D3FCBF61F3F9967223F25D2CD
:10368000243F5636273F1594293F4AEB2B3FDE3B1C
:103690002E3FBB85303FC9C8323FF30400FF0035E1
:1036A0003F233A373F4268393F3B8F3B3FF9AE3DBE
:1036B0003F67C73F3F70D8413F01E2433F03E445C6
:1036C0003F65DE473F12D1493FF8BB4B3F029F4D5C
:1036D0003F207A4F3F3D4D513F4918533F31DB5416
:1036E0003FE595563F5348583F6AF2593F1A945B5D
:1036F0003F532D5D3F05BE5E3F2146603F97C5614C
:103700003F5A3C633F59AA643F880F663FD86B67B6
:103710003F3CBF683FA7096A3F0C4B6B3F5E836C21
:103720003F93B26D3F9ED86E3F73F56F3F080971AE
:103730003F5213723F4714733FDD0B743F0BFA7413
:103740003FC6DE753F07BA763FC58B773FF85378A3
:103750003F9812793F9DC7793F02737A3FBE147B31
:103760003FCDAC7B3F283B7C3FC9BF7C3FAC3A7D23
:103770003FCCAB7D3F23137E3FB0707E3F6DC47E58
:103780003F580E7F3F6D4E7F3FAB847F3F0FB17F31
:103790003F97D37F3F43EC7F3F11FB7F3F300400D7
:1037A00000800821102118212021282130313842A1
:1037B000C44821502158216021682170217821803E
:1037C00021882190219821A021A821B021B821C0D1
:1037D00021C821D021D821E021E821F021F82500BD
:1037E0002508251025182520252825302538254091
:1037F0002548255025582560256825702578258081
:1038000025882590259825A025A825B025B825C070
:1038100025C825D025D825E025E825F025F829005C
:103820002908291029182920292829302938294030
:103830002948295029582960296829702978298020
:1038400029882990299829A029A829B029B829C010
:1038500029C829D029D829E029E829F029F82D00FC
:10386000032D08032D10032D18032D20032D2803ED
:103870002D30032D38032D40032D48032D50032DEB
:1038800058032D60032D68032D70032D78032D80C0
:10389000032D88032D90032D98032DA0032DA8033D
:1038A0002DB0032DB8032DC0032DC8032DD0032D3B
:1038B000D8032DE0032DE8032DF0032DF8035D0060
:1038C0000412BC1012BC181EBD000412BD281EBD7F
:1038D00000041EBD000412BD401EBD00041EBD003C
:1038E000041EBD00041EBE00041EBE00041EBE0059
:1038F000041EBE000412BE8012BE881EBE00041E3E
:10390000BE00041EBE000412BEA812BEB012BEB895
:103910001EBE00041EBE000412BED012BED81EBEC3
:10392000000412BEE812BEF012BEF81EBE00041E55
:10393000BE000416BE1016BE181EBE000416BE2819
:103940001EBE00041EBE00041EBE000416BE481E9D
:10395000BE00041EBE000416BF601EBF000416BFDA
:10396000701EBF00041EBF000416BF881EBF0004E7
:103970001EBF000416BFA01EBF00041EBF00041619
:10398000BFB816BFC016BFC816BFD016BFD81EBF5F
:1039900000041EBF000416BFF01EBF00041ABF00C3
:1039A0001ABF081EBF00041EBF00041EBF00041A79
:1039B000BF281ABF301ABF381EBF00041EBF000444
:1039C0001EBF00041ABF581ABF601EBF00041EBFEE
:1039D00000041ABF781EBF00041EBF00041ABF9067
:1039E0001ABF981ABFA01ABFA81ABFB01EBF000402
:1039F0001EBF00041ABFC81EBF00041EBF00041A69
:103A0000BFE01ABFE81ABFF01ABFF81EBF00041EBD
:103A1000BF00041EBF10031EBF18031EBF20031EDD
:103A2000BF00041EBF00041EBF38031EBF40031E9C
:103A3000BF48031EBF50031EBF00041EBF60031E0D
:103A4000BF68031EBF70031EBF00041EBF00041E1C
:103A5000BF88031EBF90031EBF00041EBF00041ECC
:103A6000BFA8031EBFB0031EBF00041EBFC0031EBD
:103A7000BFC8031EBF00041EBFD8031EBFE0031E45
:103A8000BF00041EBFF0031EBFF8031EBF000431B9
:103A90000821102118212021282130313842C44822
:103AA00021502158216021682170217821802188AE
:103AB0002190219821A021A821B021B821C021C89E
:103AC00021D021D821E021E821F021F82500250886
:103AD000251025182520252825302538254025485E
:103AE000255025582560256825702578258025884E
:103AF0002590259825A025A825B025B825C025C83E
:103B000025D025D825E025E825F025F82900290825
:103B100029102918292029282930293829402948FD
:103B200029502958296029682970297829802988ED
:103B30002990299829A029A829B029B829C029C8DD
:103B400029D029D829E029E829F029F82D00032DCA
:103B500008032D10032D18032D20032D28032D30CD
:103B6000032D38032D40032D48032D50032D5803FA
:103B70002D60032D68032D70032D78032D80032DF8
:103B800088032D90032D98032DA0032DA8032DB09D
:103B9000032DB8032DC0032DC8032DD0032DD8034A
:103BA0002DE0032DE8032DF0032DF8031DFF073E44
:103BB000800508100601000002020520070002012E
:103BC00001000207220214210B12010B110632021E
:103BD000113301021F0110011004A040F4446104DC
:103BE0002D58081232165C06D253FB413268085039
:103BF0000E265F0D44DB0F4940DD7EBC4314144CA0
:103C00000909FCD7447CD9A03E8A08100780406F80
:103C100012833A0462BA5611301006422FE34D3C2B
:103C200004AEBCB408E1286118100D18B751380073
:103C3000004040CDCCCC3D27123F10123904023E4B
:103C4000B9500269000110066666663FCCC00005E7
:103C5000438FC2753D50C00892E33A6643C8386648
:103C600013404104022AC14825A811040236BED8D7
:103C700025EC15F062C48200081B2CC914407A3070
:103C800061E4012224011AB46005DAAC2A3FC0AC19
:103C90000973E53A4A9D738A46FC0A100586FD863B
:103CA000460462C63004054ACDCC4C3DCC29901C5C
:103CB00005AD9A2F48680900122E3E3333333E7FFC
:103CC00087A23990FCC1394B5CC738CC0009566AD1
:103CD0007F1B452C626641C049EC600700410AD752
:103CE000A33CACD410A071E139E79C494508210DF3
:103CF000448E31C6FC100BC8420000484200806D63
:103D00004508062A4398A1A801220CA5D44FE80330
:043D10008E0300001E
:040000050800018965
:00000001FF
