:020000040800F2
:10000000283000208D0200089502000897020008A1
:10001000990200089B0200089D02000800000000F1
:100020000000000000000000000000009F02000827
:10003000A102000800000000A30200081D13000830
:10004000A7020008A7020008A7020008A7020008EC
:10005000A7020008A7020008A7020008A7020008DC
:10006000A7020008A7020008A7020008A7020008CC
:10007000A7020008A7020008A7020008A7020008BC
:10008000A7020008A7020008491B0020A7020008D9
:10009000A7020008A7020008A7020008A70200089C
:1000A00041160008A7020008A7020008A7020008DE
:1000B00055160008A7020008A7020008A7020008BA
:1000C000A7020008A7020008A7020008A70200086C
:1000D000A7020008A7020008A7020008A70200085C
:1000E000A7020008A7020008A7020008A70200084C
:1000F000A7020008A7020008A7020008A70200083C
:10010000A7020008A7020008A7020008A70200082B
:10011000A7020008A7020008A7020008A70200081B
:10012000A7020008A7020008A7020008A70200080B
:10013000A7020008A7020008A7020008A7020008FB
:10014000A7020008A7020008A7020008A7020008EB
:10015000A7020008A7020008A7020008A7020008DB
:10016000A7020008A7020008A7020008A7020008CB
:10017000A7020008A7020008A7020008A7020008BB
:10018000A7020008A702000800F002F800F06EF8CD
:100190000AA090E8000C82448344AAF10107DA45E2
:1001A00001D100F063F8AFF2090EBAE80F0013F0C6
:1001B000010F18BFFB1A43F001031847581800003D
:1001C0008818000010F8013B0A4413F0030408BF2C
:1001D00010F8014B1D1108BF10F8015B641E05D01B
:1001E00010F8016B641E01F8016BF9D1002D15D0D8
:1001F00010F8014B03F00C030C2BA1EB04040ABF15
:1002000010F8013BA4EB8314A4EB032405F10103D4
:1002100014F8016B5B1E01F8016BF9D5914238BFF0
:1002200010F8013BD1D37047103A24BF78C878C189
:10023000FAD8520724BF30C830C144BF04680C60EC
:10024000704700000023002400250026103A28BF34
:1002500078C1FBD8520728BF30C148BF0B60704738
:100260001FB501F0D1FB1FBD10B510BD00F037F870
:100270001146FFF7F5FF01F0AFFB00F055F803B4AE
:10028000FFF7F2FF03BC00F059F80000094880476F
:1002900009480047FEE7FEE7FEE7FEE7FEE7FEE768
:1002A000FEE7FEE7FEE7FEE704480549054A064B80
:1002B000704700003513000889010008282A002033
:1002C00028300020282C0020282C00207047704760
:1002D0007047000000487047C429002070477546E9
:1002E000FFF7F8FFAE4605006946534620F00700C9
:1002F000854618B020B5FFF7D7FFBDE820404FF086
:1003000000064FF000074FF000084FF0000B21F0FF
:100310000701AC46ACE8C009ACE8C009ACE8C009CC
:10032000ACE8C0098D46704710B50446AFF30080B5
:100330002046BDE81040FFF7A2BF00000149182089
:10034000ABBEFEE72600020040F2070CC2F2000C32
:10035000604740F2E70CC2F2000C604740F2C93C33
:10036000C2F2000C604740F2B91CC2F2000C6047B8
:1003700040F2A70CC2F2000C604740F2A10CC2F29E
:10038000000C604741F6213CC2F2000C6047CA43B2
:100390000260704700220A12D3430360704721B104
:1003A000826842F00102826003E0826822F001026A
:1003B000826070470021084A1168084A1140D0E95C
:1003C00000231A4383681A43C3681A431143044A3B
:1003D000C2F804137047000004230140E030FCFF22
:1003E000002001400A460021816821F47021114358
:1003F000816070470A460021816821F44011114351
:10040000816070470246002013680B400BB1012049
:1004100000E00020704710B50B460021D9B201243E
:1004200004FA01F11AB144680C43446002E04468E4
:100430008C43446010BD000030B50246002000230C
:100440005068104C20400D790C6844EA0524204384
:10045000506090680C4C2040D1E903542C438D68C7
:100460002C434D7944EA450420439060D06A20F43F
:1004700070000C7D641EE4B2234340EA0350D06256
:1004800030BD0000FFFEFFFCFDF7FFC0F0B50446E5
:100490001546002000220026092911DDE068A1F19F
:1004A0000A0707EB470C072707FA0CF29043A1F164
:1004B0000A0707EB470703FA07F21043E0600CE076
:1004C000206901EB410C072707FA0CF2904301EB7E
:1004D000410703FA07F210432061A06BC0F30156F5
:1004E000EF1C06F1010CA7EB0C0707EB870C1F278D
:1004F00007FA0CF29043EF1C06F1010CA7EB0C0776
:1005000007EB870701FA07F21043A063F0BD21B1A2
:10051000426842F48052426003E0426822F4805212
:100520004260704710B50A4600210023816B21F418
:100530004011531E41EA0351816310BDF0B50446DA
:100540000D4600200021092D11DDE068A5F10A0605
:1005500006EB4607072606FA07F18843A5F10A06C7
:1005600006EB460603FA06F10843E0600CE020695A
:1005700005EB4507072606FA07F1884305EB450614
:1005800003FA06F108432061072A0FDA606B561E52
:1005900006EB86071F2606FA07F18843561E06EB70
:1005A000860605FA06F10843606322E00D2A0FDA99
:1005B000206BD61F06EB86071F2606FA07F1884335
:1005C000D61F06EB860605FA06F10843206310E005
:1005D000E06AA2F10D0606EB86071F2606FA07F170
:1005E0008843A2F10D0606EB860605FA06F10843DC
:1005F000E062F0BD816841F0804181607047000099
:1006000038B10849096841F40001074AC2F80413E7
:1006100006E00449096821F40001034AC2F8041302
:1006200070470000042301400020014000B58BB05A
:100630000120FFF7E5FF00200990079008900A903D
:1006400007A8FFF7B7FE0020019001208DF80800F1
:100650008DF8090000200390059001208DF8180006
:1006600001A92348FFF7E8FE0423012200212048C6
:10067000FFF764FF04211E48FFF754FF01231A46C9
:1006800008211B48FFF702FF012302220621184818
:10069000FFF7FCFE0123032211461548FFF7F6FE83
:1006A0000123042209211248FFF7F0FE002110481F
:1006B000FFF72DFF4FF400110D48FFF79BFE4FF49D
:1006C00080310B48FFF78EFE40F207410848FFF7E4
:1006D00061FE012240F207410548FFF79CFE01211F
:1006E0000348FFF75CFE0248FFF784FF0BB000BD34
:1006F0000020014010B500F0E3FD0121084600F0A4
:100700003BFD0121022000F037FD0121042000F013
:1007100033FD0121082000F02FFD0121102000F001
:100720002BFD0121202000F027FD0121402000F0B9
:1007300023FD0121802000F01FFD0121080200F0AF
:100740001BFD0121084600F027FD0121C80200F031
:1007500023FD0121084600F02FFD0121080200F0D1
:100760002BFD0121880300F027FD10BD00B58FB0DF
:1007700000BF154800F0E7FA0028FAD10090019078
:100780001248029000200390012004900020059060
:100790004FF48060069040000790800008900001B0
:1007A0000A904012099000200B9001200C9000202C
:1007B0000D900E906946044800F0D0FA01210248DD
:1007C00000F0B6FA0FB000BD10640240E01C00203B
:1007D0001CB54FF48061B74800F063FB1020009017
:1007E00000208DF8040001208DF807006946B2480A
:1007F00000F0E0FA4FF48060009001208DF80400D2
:100800008DF8070000208DF805006946A94800F022
:10081000D1FA012000908DF8040002208DF8070025
:1008200000208DF805006946A34800F0C3FA0220B5
:10083000009001208DF8040002208DF807000020B0
:100840008DF8050069469C4800F0B4FA01219A48E9
:1008500000F024FB0221984800F020FB04200090C7
:1008600000208DF8040001208DF8070069469248A9
:1008700000F0A0FA0820009000208DF8040001206C
:100880008DF8070069468C4800F094FA102000901B
:1008900000208DF8040001208DF807006946864885
:1008A00000F088FA03208DF8040001200090002059
:1008B0008DF807006946814800F07CFA03208DF826
:1008C00004004020009000208DF8070069467C4815
:1008D00000F070FA03208DF804000820009000203A
:1008E0008DF807006946764800F064FA03208DF819
:1008F00004000220009000208DF8070069466F4830
:1009000000F058FA02208DF8040000208DF806004F
:100910004FF48070009000208DF8070003208DF8C0
:1009200005006946664800F045FA02208DF804008B
:1009300000208DF806004FF40070009000208DF824
:10094000070003208DF8050069465D4800F032FA83
:1009500002208DF8040000208DF806004FF480601E
:10096000009000208DF8070003208DF805006946EF
:10097000534800F01FFA02208DF8040000208DF883
:1009800006004FF40050009000208DF8070003206F
:100990008DF805006946494800F00CFA02208DF8F0
:1009A000040000208DF806004FF4804000900020E5
:1009B0008DF8070003208DF8050069463F4800F0D8
:1009C000F9F902208DF8040000208DF806004FF49C
:1009D0000040009000208DF8070003208DF80500EE
:1009E0006946364800F0E6F900208DF80400012041
:1009F0008DF806000003009000208DF8070003200A
:100A00008DF8050069462D4800F0D4F9012208212F
:100A10002B4800F017FA01220921294800F012FAA8
:100A200001220A21264800F00DFA01220D21234857
:100A300000F008FA01220E21204800F003FA0122FA
:100A40000F211E4800F0FEF901220C211B4800F086
:100A5000F9F94FF48060009000208DF80400032025
:100A60008DF8050000208DF807006946154800F054
:100A7000A1F94FF40060009000208DF804000320DD
:100A80008DF8050000208DF8070069460D4800F03C
:100A900091F94FF48050009000208DF8040003205D
:100AA0008DF8050000208DF807006946054800F024
:100AB00081F91CBD001402400010024000040240F5
:100AC00000000240001C024010B50421014800F063
:100AD000DCF910BD0010024010B50821014800F0FB
:100AE000D4F910BD0010024038B54FF0FF30052199
:100AF000002807DA0A07140E164A00F00F031B1F1E
:100B0000D45403E00A07130E134A135400BF4FF4E2
:100B1000A06000F027FB12208DF8000003208DF864
:100B2000010000208DF8020001208DF803006846C6
:100B300000F0DCFA18208DF8000000208DF801008C
:100B40008DF8020001208DF80300684600F0CEFA0F
:100B500038BD000018ED00E000E400E000B58DB005
:100B60000121374800F0A3FD4FF40070ADF83000CC
:100B70002020ADF82A000020ADF8280001208DF8D3
:100B8000320041F267000B900AA92D4800F0E2FE06
:100B90007020ADF814000120ADF816000420ADF867
:100BA000180000200790ADF82000ADF82200ADF845
:100BB0002400ADF8260005A9214800F0A5FD05A9EF
:100BC0001F4800F0DFFD05A91D4800F02DFE542050
:100BD000079005A91A4800F077FE7021184800F028
:100BE000AFFE4FF40060ADF804004010ADF8060011
:100BF0000020ADF808001520ADF80A004FF4805031
:100C0000ADF80C004000ADF80E000020ADF810006B
:100C100001A90B4800F035FD8021094800F044FD92
:100C200001228021064800F066FD0121044800F001
:100C30001CFD0121024800F046FD0DB000BD000082
:100C4000000001400EB54FF40070ADF80800002020
:100C5000ADF80200ADF800008DF80A00401E0190CA
:100C600069464FF0804000F075FE0121880700F0D2
:100C70001EFD0EBD70B52DED028B04460D469FED99
:100C80002B0AB0EE408A95ED0A0AB0EE408AFFF7D3
:100C90001BFF2061FFF720FFA0612879C0F340000F
:100CA00050B92069A8B96069012812D1686820F09C
:100CB0000200801C68600CE02879C0F3400040B15D
:100CC000A06930B9E069012803D1686820F002000A
:100CD000686020696061A069E06194ED020AB4EE89
:100CE000C80AF1EE10FA04D294ED020AB0EE408A7E
:100CF0000AE094ED030AB4EEC80AF1EE10FA03DD3F
:100D000094ED030AB0EE408A94ED020AD4ED030A92
:100D100030EE600AD4ED030A78EE600A80EE801AA5
:100D200085ED0F1ABDEC028B70BD000000000000C5
:100D300021B1026842F00102026003E0026822F081
:100D4000010202607047014600200A6802F00102B9
:100D50000AB1012000E000207047000010B5002219
:100D60000268134B1A40CC680B6823434C69234339
:100D70008C692343CC6923430C6A23434C6A234385
:100D80008C6A23434C6B23438C6B23431A430260CE
:100D9000426922F00702D1E90B3423431A4342612E
:100DA0000B6943604B6883608B68C36010BD0000B3
:100DB0003F801CF0F0B50A4600210023002400BF4C
:100DC0003DE0012505FA01F3156805EA03049C429C
:100DD00034D105684F000326BE40B5430560157940
:100DE0004E00B5400668354305601579012D02D0E7
:100DF0001579022D16D185684F000326BE40B543F4
:100E0000856055794E00B5408668354385604568F4
:100E100001268E40B5434560456896798E40B6B24E
:100E200035434560C5684F000326BE40B543C560E5
:100E3000D5794E00B540C6683543C560491C1029B8
:100E4000BFD3F0BDF0B5002300244D07ED0E02FA2C
:100E500005F3CE1000F1200555F826504E07F70E89
:100E60000F26BE40B543CF1000F1200646F82750AC
:100E7000CE1000F1200555F8265045EA0304CE10A7
:100E800000F1200545F82640F0BD02460020136918
:100E90000B400BB1012000E0002070470A04826182
:100EA000704781617047000010B5044694ED1C0A3C
:100EB000D4ED240AB4EEE00AF1EE10FA02D294ED79
:100EC0001C0A01E094ED240AD4ED250AB4EEE00AF0
:100ED000F1EE10FA0EDD94ED1C0AD4ED240AB4EE06
:100EE000E00AF1EE10FA02D294ED1C0A04E094ED4F
:100EF000240A01E094ED250A84ED130A04F1480068
:100F0000FFF722FA94ED160A84ED000A94ED1D0A0B
:100F100084ED010A2046FFF71CFA94ED1E0ADFED6E
:100F2000190A20EE200A84ED090AD4ED1F0A60EEAA
:100F3000A00A94ED201AD4ED201A41EE210AB0EE59
:100F4000600AFFF70BFA84ED0A0A04F12400FFF7A8
:100F500000FA94ED0F0A84ED170A04F15C00FFF724
:100F600002FA94ED060AD4ED190A20EE200A84ED67
:100F7000220A94ED060AD4ED180A20EE200A84ED28
:100F8000230A10BD3ACD133F10B50446207805283A
:100F90007DD194EDBD0A84ED8D0A607830B10128D1
:100FA00039D0022838D0032872D175E004F10C0042
:100FB000FFF7CAF9206A401C2062D4E90A01014403
:100FC000606A0144206A814204D800212162022023
:100FD00060701FE0D4E909010144206A814204D80D
:100FE0009FED360A84EDAA0A14E0D4E90810814284
:100FF00008D394ED070A84EDAA0A9FED310A84ED27
:10100000410A07E094ED070A84EDAA0A9FED2D0A34
:1010100084ED410A4EE04DE004F5E070FFF744FF37
:1010200094ED920A84EDA90A94ED930A84EDAA0A3C
:1010300094ED120A84ED8C0A94ED130A84ED840A6F
:1010400094ED130AB1EE400A84ED850A94ED8D0A01
:10105000D4ED140AB4EEE00AF1EE10FA19DB606C7C
:10106000401C6064616D884215D3002161640120D9
:1010700084F8C80294ED180A84ED840A94ED180AE5
:10108000B1EE400A84ED850A0320607003E012E0AF
:101090000FE0002161640DE004F5E070FFF704FF4C
:1010A00094ED920A84EDA90A94ED930A84EDAA0ABC
:1010B00000E000BF00E000BF10BD00000000000025
:1010C000DB0FC940E4CB9640DFED050A60EE200A55
:1010D0009FED041AC0EE811A0348C0ED8C1A7047C8
:1010E000DB0FC941000070422025002070B50021AF
:1010F00000230F22C4781CB3174C246804F4E06466
:10110000C4F5E064C4F30721C1F10404E3B20A4169
:1011100044789C40E1B28478144021430C07210EAE
:101120000E4C05786155047804F01F050124AC408D
:1011300005786D11AD0005F1E025C5F8004109E025
:10114000047804F01F050124AC40054D06787611A3
:1011500045F8264070BD00000CED00E000E400E022
:1011600080E100E002490143024A1160704700003B
:101170000000FA050CED00E029B1064A12680243AE
:10118000044B1A6004E0034A12688243014B1A6060
:10119000704700003038024029B1064A1268024305
:1011A000044B1A6004E0034A12688243014B1A6040
:1011B000704700004038024029B1064A12680243D5
:1011C000044B1A6004E0034A12688243014B1A6020
:1011D00070470000443802400CB500200190009098
:1011E0003348006840F480303149086000BF30481F
:1011F000006800F4003000900198401C01900098B5
:1012000018B90198B0F5A04FF1D12948006800F451
:10121000003010B10120009001E000200090009803
:10122000012844D122484030006840F080502049D5
:10123000403108601F48006840F440401D49086084
:101240001B48083000681A490831086008460068E1
:1012500008600846006840F4A05008601648091F5E
:101260000860081F006840F08070091F086000BF18
:101270000F48006800F000700028F9D040F20570B7
:101280000E4908600A480830006820F00300084949
:10129000083108600846006840F00200086000BF9E
:1012A00003480830006800F00C000828F8D10CBD95
:1012B000003802400070004008544007003C0240E3
:1012C00030B51349481EB0F1807F01D301201BE0E7
:1012D000481E4FF0E022506150170F22002807DA15
:1012E00013071D0E0B4B00F00F04241F1D5503E0C8
:1012F00013071C0E084B1C5400BF00204FF0E022C7
:10130000906107201061002008B100BFFEE730BDEA
:101310004090020018ED00E000E400E010B5034842
:1013200000F076F90248FFF72FFE10BD6829002073
:101330002025002010B51548006840F470001349BE
:1013400008601348006840F001001149086000205F
:101350000F49083108600E4800680E4908400C49E2
:1013600008600D48091D0860081F006820F48020EF
:10137000091F0860002006490C310860FFF72CFFA8
:101380004FF0006001498039086010BD88ED00E031
:1013900000380240FFFFF6FE1030002410B504466E
:1013A000207900F0010050B105490648FFF762FCC2
:1013B000034800F043F8606820F00100606010BD51
:1013C000682900204029002010B52DED028B04462D
:1013D000002008EE100A1848806C08EE100AB8EEDB
:1013E000480A84ED030A002008EE100AB8EE480A05
:1013F00084ED060A40F6FF7008EE100AB8EE480ABF
:1014000084ED090A002008EE100AB8EE480A84EDBF
:101410000C0A04F10C00FEF7ABFF04F11800FEF714
:10142000A7FF04F12400FEF7A3FF04F13000FEF74C
:101430009FFFBDEC028B10BD0020014010B504469B
:101440002046FFF7C1FFB7EE000A524880ED8B0A35
:1014500080ED280A80ED3C0A00BFD4ED140A94ED1B
:10146000041A20EE810A80ED450AF7EE000A80EEAC
:10147000801A80ED461A80ED8E0A80EDA80A00BF22
:10148000D4ED0F0A9FED441A60EE810AB0EE600AB7
:10149000FFF71AFE00BF3F48806820B1A06820F027
:1014A0000100401CA060607830B1012812D00228F1
:1014B0001CD0032854D146E0A06D401CA065616D8E
:1014C000884206D30020A065204600F06FF8012076
:1014D000607046E0A06810B10320607005E02079DC
:1014E000C0F3400008B1022060703AE0A06810B17B
:1014F0000320607026E02079C0F3400010BBD4EDDB
:101500000F0A9FED261A60EE810AB0EE600AFFF71F
:10151000DBFD00BF1F4890ED8D0ADFED210A20EEB4
:10152000200A9FED201AC0EE010AB1EE001A80EEEB
:10153000810ADFED1D0AB4EEE00AF1EE10FA01D2E5
:10154000012060700DE02079C0F3400038B9002020
:10155000A06000BF0F49886000BF0120607000E0FC
:1015600000BF00BF6078022809D100BF0948406869
:1015700020F00100401C0749486000BF08E000BFA0
:101580000448406820F001000249486000BF00BFE5
:1015900010BD00002025002000C05A450000E14495
:1015A00000007042DB0FC9400000FA4410B52DED79
:1015B000028B0446002008EE100A1448806C08EEE6
:1015C000100AB8EE480A04F10C00FEF7D6FE00201F
:1015D00008EE100AB8EE480A04F11800FEF7CDFE36
:1015E00040F6FF7008EE100AB8EE480A04F1240035
:1015F000FEF7C3FE002008EE100AB8EE480A04F118
:101600003000FEF7BAFEBDEC028B10BD0020014099
:101610000178491CC9B201700A2910D30021017058
:10162000017901F0010129B9416821F00101491C4A
:10163000416004E0816821F00201891C81607047EB
:1016400010B58021024800F02CF8FEF79BFE10BD7B
:101650000000014010B50121880700F043F818B1DF
:101660000121880700F01DF810BD21B1028842F069
:101670008002028004E002884FF67F731A400280E5
:1016800070470A884B881A438B881A43CB881A43C1
:101690000B891A434B891A438B891A43A0F84420BB
:1016A0007047CA4302827047CA430282704721B121
:1016B000028842F00102028004E002884FF6FE73C5
:1016C0001A400280704731B1B0F8442042F4004221
:1016D000A0F8442005E0B0F84420C2F30E02A0F8C0
:1016E0004420704702460020138A0B400BB10120B2
:1016F00000E0002070471AB183890B43838102E028
:1017000083898B438381704770B5002400220023B6
:10171000058C4FF6FE7635400584028C8388048B59
:101720004FF68F752C40B51E2C400D882C43751E2E
:101730002A408D892A434D882A43104DA84202D061
:101740000F4DA84213D14FF6F7752A40CD892A4391
:101750004FF6FB752A408D882A434FF6FF652B40D4
:101760004FF6FF552B400D8A2B434D8A2B43838028
:1017700004838D684563028470BD00000000014051
:101780000004014070B5002400220023058C4FF6B0
:10179000EF7635400584028C8388048B48F6FF750C
:1017A0002C404FF6FF452C400D884FF6FF7606EA99
:1017B00005252C434FF6DF752A408D8906EA05156D
:1017C0002A434D8806EA05152A43154DA84202D042
:1017D000144DA8421DD14FF67F752A40CD894FF692
:1017E000FF7606EA05152A434FF6BF752A408D8815
:1017F00006EA05152A434FF6FF352B404FF2FF75D9
:101800002B400D8A06EA85052B434D8A06EA85059D
:101810002B43838004838D688563028470BD000040
:10182000000001400004014070B5002400220023A4
:10183000058C4FF6FF6635400584028C8388848BC7
:101840004FF68F752C404FF6FC752C400D882C43BD
:101850004FF6FF552A408D894FF6FF7606EA05259B
:101860002A434D8806EA05252A43154DA84202D091
:10187000144DA8421DD14FF2FF752A40CD894FF675
:10188000FF7606EA05252A434FF6FF352A408D8864
:1018900006EA05252A434EF6FF752B404DF6FF75E7
:1018A0002B400D8A06EA05152B434D8A06EA0515DD
:1018B0002B43838084838D68C563028470BD0000E0
:1018C000000001400004014070B500220023002404
:1018D000058C4EF6FF7635400584038C8488828B18
:1018E00048F6FF752A404FF6FF452A400D884FF60F
:1018F000FF7606EA05252A434DF6FF752B408D89B4
:1019000006EA05352B434D8806EA05352B430A4D7B
:10191000A84202D0094DA84208D14BF6FF752C40D1
:101920000D8A4FF6FF7606EA85152C438480828364
:101930008D680564038470BD00000140000401400F
:1019400082884FF68F731A40828082880A43828091
:101950007047000000220288184B98420ED0184BA6
:1019600098420BD0B0F1804F08D0164B984205D06A
:10197000154B984202D0154B984204D14FF68F7305
:101980001A404B881A43124B984207D0114B984289
:1019900004D04FF6FF431A400B891A4302804B686C
:1019A000C3620B880385054B984202D0044B9842D2
:1019B00001D18B7A038601238382704700000140A6
:1019C000000401400004004000080040000C0040FA
:1019D000001000400014004072B6FEF78BFEFEF7C8
:1019E000F7FEFEF7C3FEFEF721FEFFF7B7F8FFF79D
:1019F00029F9FFF779F862B600BF0248FFF7CEFC7D
:101A0000FBE70000682900204FF04070E1EE100A6B
:101A100070470000441A000800000020E01C00008D
:101A20002802000824370008E01C0020E40C000015
:101A3000C4010008B83E0008C42900206406000064
:101A40004402000880ED040A704790ED010AD0EDD1
:101A5000040AB4EEE00AF1EE10FA1ADD90ED040A81
:101A6000D0ED020A30EE200AD0ED010AB4EEE00A11
:101A7000F1EE10FA08D290ED040AD0ED020A30EE31
:101A8000200A80ED040A2CE090ED010A80ED040AA2
:101A900027E090ED010AD0ED040AB4EEE00AF1EE81
:101AA00010FA1AD290ED040AD0ED030A30EE200AA3
:101AB000D0ED010AB4EEE00AF1EE10FA08DD90ED87
:101AC000040AD0ED020A30EE600A80ED040A08E054
:101AD00090ED010A80ED040A03E090ED010A80ED2B
:101AE000040A704780ED010A704790ED020AD0EDBC
:101AF000000A20EE200AD0ED020AB7EE001A71EEBD
:101B0000600A90ED011A00EE810A80ED010A70472B
:101B1000DFEDCE0AC0ED000ADFEDCC0AC0ED010A10
:101B200080ED050A80ED060A7047D0ED000A90EDC1
:101B3000011A70EEC10AB0EE600AD0ED050A90ED10
:101B4000031A41EE000AC0ED050AD0ED050A90ED3A
:101B5000071AF4EEC10AF1EE10FA02D2D0ED050A2E
:101B600001E0D0ED070A90ED081AF4EEC10AF1EE9B
:101B700010FA0EDDD0ED050A90ED071AF4EEC10A59
:101B8000F1EE10FA02D2D0ED050A04E0D0ED070A1A
:101B900001E0D0ED080AC0ED050AD0ED050A90ED90
:101BA000021A41EE000AC0ED060AD0ED060A90EDD9
:101BB000071AF4EEC10AF1EE10FA02D2D0ED060ACD
:101BC00001E0D0ED070A90ED081AF4EEC10AF1EE3B
:101BD00010FA0EDDD0ED060A90ED071AF4EEC10AF8
:101BE000F1EE10FA02D2D0ED060A04E0D0ED070AB9
:101BF00001E0D0ED080AC0ED060A70470146D1EDBC
:101C0000002A9FED933A62EE832AB0EE620ADFED7E
:101C1000912A60EE222AF0EE620AFDEEE02A12EE30
:101C2000900A8D4A02EB8002D2ED002AB0EE621AD1
:101C3000894B421C03EB8202D2ED002AF0EE621ABD
:101C400002EE900AF8EEE22A70EEE22AB0EE622A84
:101C500031EEC13AF0EE412A42EE032AC1ED022AEA
:101C6000F5EE002A70EE222AB0EE620AF7EE002AA4
:101C7000B4EEE20AF1EE10FA05DDF7EE002A70EE9E
:101C8000622AB0EE620ADFED732A60EE222AF0EEDD
:101C9000620AFDEEE02A12EE900A6F4A02EB800221
:101CA000D2ED002AB0EE621A6B4B421C03EB8202AB
:101CB000D2ED002AF0EE621A02EE900AF8EEE22A65
:101CC00070EEE22AB0EE622A31EEC13AF0EE412A1D
:101CD00042EE032AC1ED012A704730B500220023ED
:101CE0000024DFED5A2AB0EE620AD0ED012AF0EEB0
:101CF000620AD0ED022AB0EE621AF5EEC00AF1EEE9
:101D000010FA09D1B5EEC01AF1EE10FA04D1DFEDE8
:101D10004F2AC0ED032A78E0F5EEC00AF1EE10FA82
:101D200004D2F1EE602AF0EE620A0223B5EEC01A88
:101D3000F1EE10FA04D2F1EE412AB0EE621A042458
:101D4000B4EEE01AF1EE10FA06DDB0EE602AF0EE25
:101D5000410AB0EE421A0122D5182544E9B2C1EE7B
:101D6000201AF7EE002A72EEE13ADFED3C2A9FEDF1
:101D70003C3A43EE212A9FED3B3A03EEA23A63EE52
:101D8000212AB0EE620A082939D2DFE801F00407FF
:101D90000E151C232A3180ED030A35E0DFED322ACF
:101DA00072EEC02AC0ED032A2EE0DFED302A72EE7B
:101DB000C02AC0ED032A27E0DFED2B2A70EE222A8D
:101DC000C0ED032A20E0DFED2A2A72EEC02AC0ED22
:101DD000032A19E0DFED272A70EE222AC0ED032A3C
:101DE00012E0DFED222A70EE222AC0ED032A0BE07A
:101DF000DFED202A72EEC02AC0ED032A04E0DFEDF9
:101E0000132AC0ED032A00BF00BF30BDB5EEC00AE3
:101E1000F1EE10FA15DDB6EE001A20EE011AF0EE22
:101E2000410A10EE100A144901EB600000EE100A9E
:101E300080EE801AF6EE001A01EE801AB0EE410A2A
:101E400003E0DFED020AB0EE600A70470000000018
:101E500083F9223E00000044E81C0020A3927A3E51
:101E60004BC8873DDB0F493FDB0FC93FDB0F4940C4
:101E7000DB0FC940E4CB9640F51DBD1F10B50446ED
:101E8000002020709FEDFE0A201DFFF741FE9FED10
:101E9000FC0A04F12800FFF725FE9FEDF90A84ED06
:101EA0000D0A9FEDF70A84ED0E0A9FEDF50A84ED09
:101EB0000F0A9FEDF30A84ED100A9FEDF10A84EDFD
:101EC0001E0A9FEDEF0A84ED1F0A9FEDED0A84EDD7
:101ED0002B0A9FEDEB0A84ED2C0A9FEDE90A84EDB5
:101EE000290A9FEDE70A84ED2A0A9FEDE50A84EDB1
:101EF000270A9FEDE30A84ED280A10BD10B50446B9
:101F0000207860B994ED220AD4ED230A20EE200A4D
:101F100084ED160A94ED260A84ED300A03E094ED70
:101F2000230A84ED160A94ED110AD4ED160AF1EE97
:101F3000600A94ED131A00EE810A84ED170A94EDFD
:101F4000120AD4ED160AF1EE600A94ED141A00EEAE
:101F5000810A84ED180A94ED290AD4ED170A30EEAF
:101F6000200AD4ED270A30EE600ADFEDC60A20EE23
:101F7000200A84ED290A94ED2A0AD4ED180A30EEDD
:101F8000200AD4ED280A30EE600ADFEDBE0A20EE0A
:101F9000200A84ED2A0A94ED170A84ED270A94EDAD
:101FA000180A84ED280A94ED2B0AD4ED200A94ED4A
:101FB000291A00EE810A84ED2B0A94ED2C0AD4ED47
:101FC000200A94ED2A1A00EE810A84ED2C0A94ED81
:101FD0002B0AD4ED250A94ED131A00EEC10A84ED04
:101FE0002D0A94ED2C0AD4ED250A94ED141A00EE76
:101FF000C10A84ED2E0A94ED2D0A20EE000AD4EDDC
:102000002E0A94ED2E1A00EE810A84ED2F0A94ED2B
:10201000300ADFED9D0A20EE200AD4ED2F0A9FED55
:102020009B1A01EE200A84ED300A94ED1E0AD4EDCD
:10203000250A94ED131A00EEC10A84ED190A94EDF5
:102040001F0AD4ED250A94ED141A00EEC10A84ED9E
:102050001A0A94ED190A20EE000AD4ED1A0A94ED3A
:102060001A1A00EE810AD4ED240A94ED151A60EED6
:10207000810A94ED241AD4ED151A21EE211A00EEEE
:10208000C10A84ED1B0A94ED210AD4ED190A20EE51
:10209000200AD4ED300A94ED1B1A70EEC10A20EE2E
:1020A000200A84ED1C0A94ED210AD4ED1A0A20EED0
:1020B000200AD4ED300A94ED1B1A70EEC10A20EE0E
:1020C000200A84ED1D0A94ED170AD4ED1C0A70EE67
:1020D000200A94ED1E0A94ED201A01EE200A84EDE8
:1020E0001E0A94ED180AD4ED1D0A70EE200A94ED34
:1020F0001F0A94ED201A01EE200A84ED1F0A94EDC8
:102100001E0AD4ED250A94ED131A00EEC10A84EDDF
:10211000190A94ED1F0AD4ED250A94ED141A00EE65
:10212000C10A84ED1A0A94ED1A0AD4ED0E0A20EEC3
:10213000200A84ED010A94ED190AD4ED0F0A20EE6D
:10214000200A84ED020A201DFFF7EFFC94ED070A38
:1021500084ED0A0A04F12800FFF7C7FC94ED0D0A8C
:10216000D4ED200A94ED0A1A00EE810A84ED0D0ADE
:1021700007E094ED0D0ADFED460A30EE600A84EDCB
:102180000D0A94ED0D0ADFED420AB4EEE00AF1EE1D
:1021900010FAEEDC07E094ED0D0ADFED3D0A30EEBB
:1021A000200A84ED0D0A94ED0D0AB5EEC00AF1EE99
:1021B00010FAF0D304F13400FFF720FD10BD10B584
:1021C00004469FED2F0A2046FFF7A2FC9FED2C0A44
:1021D00004F12400FFF786FC9FED290A84ED0C0A28
:1021E0009FED270A84ED140A9FED250A84ED150A58
:1021F0009FED230A84ED180A9FED210A84ED190A48
:1022000010BD10B5044694ED210AB1EE400AD4ED9C
:10221000140A20EE200AD4ED090A94ED221A60EE89
:10222000810A94ED151A00EEC10AD4ED200A94ED4E
:10223000101A00EE810AD4ED200A94ED181A00EE6F
:10224000C10AD4ED140A94ED1A1A41EE000AC4ED45
:10225000140A94ED210AB1EE400AD4ED150A20EEDD
:10226000200AD4ED090A94ED221A60EE810A94ED59
:10227000141A00EE810AD4ED200A94ED111A09E037
:102280000000000077BE7F3F3333733FCDCC4C3D21
:10229000DB0FC94000EE810AD4ED200A94ED191A33
:1022A00000EEC10AD4ED150A94ED1A1A41EE000AA7
:1022B000C4ED150A94ED140AD4ED120A30EE600A4A
:1022C00084ED160A94ED150AD4ED130A30EE600A77
:1022D00084ED170A94ED160AD4ED1B0AB4EEE00A59
:1022E000F1EE10FA02D294ED160A01E094ED1B0A09
:1022F000D4ED1B0AF1EE600AB4EEE00AF1EE10FA3A
:102300000EDD94ED160AD4ED1B0AB4EEE00AF1EEF0
:1023100010FA02D294ED160A06E094ED1B0A03E0CF
:1023200094ED1B0AB1EE400A84ED180A94ED170AE9
:10233000D4ED1B0AB4EEE00AF1EE10FA02D294EDED
:10234000170A01E094ED1B0AD4ED1B0AF1EE600AB6
:10235000B4EEE00AF1EE10FA0EDD94ED170AD4EDBA
:102360001B0AB4EEE00AF1EE10FA02D294ED170A5D
:1023700006E094ED1B0A03E094ED1B0AB1EE400A5F
:1023800084ED190A94ED180AD4ED1C0A94ED161A7E
:1023900000EE810A84ED180A94ED190AD4ED1C0AA6
:1023A00094ED171A00EE810A84ED190A94ED180ACB
:1023B000B1EE400AD4ED0D0A20EE200A84ED000AA9
:1023C00094ED190AD4ED0E0A20EE200A84ED010ADC
:1023D0002046FFF7AAFB94ED060A84ED090A04F1F2
:1023E0002400FFF782FB94ED0C0AD4ED1A0A94ED59
:1023F000091A00EE810A84ED0C0A07E094ED0C0A3C
:102400005FED5D0A30EE600A84ED0C0A94ED0C0A73
:102410005FED610AB4EEE00AF1EE10FAEEDC07E0DF
:1024200094ED0C0A5FED660A30EE200A84ED0C0A8A
:1024300094ED0C0AB5EEC00AF1EE10FAF0D304F1F7
:102440003000FFF7DBFB10BD10B504469FEDFE0A20
:1024500084ED110AD4ED000AB0EE600A2046FFF7C1
:10246000F1FAD4ED050AB0EE600A04F11400FFF7AA
:10247000E9FA9FEDF50A04F12800FFF7E3FA10BD31
:1024800090ED0F0AD0ED120A60EE200A90ED091AC5
:1024900090ED110A00EE810A80ED110A07E090ED3F
:1024A000110ADFEDEA0A30EE600A80ED110A90EDC4
:1024B000110ADFEDE60AB4EEE00AF1EE10FAEEDC06
:1024C00007E090ED110ADFEDE10A30EE200A80ED21
:1024D000110A90ED110AB5EEC00AF1EE10FAF0D330
:1024E000704710B504469FEDD80A84ED110AD4ED6B
:1024F000000AB0EE600A2046FFF7A4FAD4ED050A00
:10250000B0EE600A04F11400FFF79CFA9FEDCE0ACA
:1025100004F12800FFF796FA10BD90ED0F0AD0EDF8
:10252000120A60EE200A90ED091A90ED110A00EEF1
:10253000810A80ED110A07E090ED110ADFEDC30A70
:1025400030EE600A80ED110A90ED110ADFEDBF0A4E
:10255000B4EEE00AF1EE10FAEEDC07E090ED110ABD
:10256000DFEDBA0A30EE200A80ED110A90ED110A73
:10257000B5EEC00AF1EE10FAF0D3704790ED070AFD
:10258000D0ED060AB0EE001A11EE200AD0ED080ACE
:1025900030EE600ADFEDAE0A20EE200A80ED120A6E
:1025A00090ED070AD0ED080A30EE600ADFEDA90AC7
:1025B00020EE200A80ED130A704790ED120AD0ED4C
:1025C000010A20EE200AD0ED130A90ED021A00EE67
:1025D000810A80ED140A90ED120AB1EE400AD0EDA6
:1025E000020A20EE200AD0ED130A90ED011A00EE47
:1025F000810A80ED150A704790ED090AD0ED010AB5
:1026000020EE200AD0ED0A0A90ED021A00EEC10A6F
:1026100080ED160A90ED090AD0ED020A20EE200A9C
:10262000D0ED0A0A90ED011A00EE810A80ED170A3A
:1026300070479FED850A80ED000A9FED830A80EDCB
:10264000010A9FED810A80ED020A9FED7F0A80ED6D
:10265000030A9FED7D0A80ED160A9FED7B0A80ED4F
:10266000170A70470EB59FED783AB0EE431A9FED0A
:10267000763AF0EE431A9FED743AB0EE432A9FED9E
:10268000723AB0EE430A9FED703AF0EE430A9FEDC6
:102690006E3AF0EE432A002100910191029190EDF3
:1026A000173ADFED6D3A23EE233AB0EE431AD0ED40
:1026B000163AB0EE084AB0EE413A14EE233AF6EE7E
:1026C000003A23EE233AD0ED053A23EE233AF0EE1A
:1026D000431AD0ED163AB8EE084AB0EE413A14EE7D
:1026E000233AF6EE003A23EE233AD0ED053A23EEF4
:1026F000233AB0EE432A90ED053A23EE013AB0EECC
:10270000431A80F84410B5EEC01AF1EE10FA04DD59
:1027100090F84410491C80F84410F5EEC01AF1EE10
:1027200010FA04DD90F84410891C80F84410B5EECE
:10273000C02AF1EE10FA04DD90F84410091D80F86B
:10274000441090F8441007292FD2DFE801F02E0939
:10275000250417122000B0EE610AF0EE410A25E0D0
:10276000B1EE613AB0EE430AB1EE423AF0EE430AFE
:102770001CE0B0EE410AF0EE420A17E0B1EE413A39
:10278000B0EE430AB1EE613AF0EE430A0EE0B0EE6D
:10279000420AF0EE610A09E0B1EE423AB0EE430AB5
:1027A000B1EE413AF0EE430A00E000BF00BF30EE68
:1027B000203AF0EE432A90ED1B3AB4EEE23AF1EE05
:1027C00010FA0DD290ED1B3A23EE003AC3EE223AF6
:1027D000B0EE630A90ED1B3A33EE403AF0EE430A56
:1027E00090ED1B3A33EE403A33EE603AF5EE003AA4
:1027F00023EE233AD0ED1C3AB6EE004A04EE233A1B
:102800008DED003A9DED003AF6EE003A03EE803A87
:102810008DED013A9DED013AF6EE003A03EEA03A55
:102820008DED023A90F8441007297BD2DFE801F0E1
:10283000B12B96045F447B00F0EE003AB0EE603AB4
:1028400003EE803A0AE0000000000000DB0FC94000
:10285000ABAAAA3E3ACD133FD7B3DD3F5FED043AB2
:1028600023EE233AD0ED043A23EE233A80ED163AD4
:102870001FED083A20EE833AD0ED043A23EE233AD6
:1028800080ED173A86E030EEC03A5FED0F3A23EE66
:10289000233AD0ED043A23EE233A80ED163A30EE97
:1028A000203A5FED143A23EE233AD0ED043A23EEBA
:1028B000233A80ED173A6DE0F8EE003AB0EE403A78
:1028C00013EEA03A5FED1E3A23EE233AD0ED043A20
:1028D00023EE233A80ED163A1FED223A20EE033A1A
:1028E000D0ED043A23EE233A80ED173A52E0F8EEA9
:1028F000003AB0EE403A13EEA03A5FED2B3A23EEE9
:10290000233AD0ED043A23EE233A80ED163A9FEDB8
:10291000FE3A20EE033AD0ED043A23EE233A80ED5E
:10292000173A37E035E030EEC03A5FED373A23EE44
:10293000233AD0ED043A23EE233A80ED163AB1EE75
:10294000403A33EE603A5FED3D3A23EE233AD0ED64
:10295000043A23EE233A80ED173A1BE0F0EE003AFA
:10296000B0EE603A03EE803A5FED473A23EE233A49
:10297000D0ED043A23EE233A80ED163A9FEDE23A89
:1029800020EE833AD0ED043A23EE233A80ED173A55
:1029900000E000BF00BF10F8441FDC4A515C6A46EB
:1029A00002EB810191ED003A80ED073A0278D749B8
:1029B0000831895C6A4602EB810191ED003A80EDB5
:1029C000083A0278D1491031895C6A4602EB8101EC
:1029D00091ED003A80ED093A44380EBD90F844106C
:1029E000CB4A525C00F1800101EB820191ED000ABB
:1029F00080ED060A90F84420C54908318A5C00F150
:102A0000800101EB820191ED000A80ED070A90F848
:102A10004420BF4910318A5C00F1800101EB820142
:102A200091ED000A80ED080A70470EB55FED7A4A15
:102A3000F0EE642A5FED7C4AB0EE643A5FED7E4AC8
:102A4000F0EE643A5FED804AB0EE640A5FED824AD0
:102A5000F0EE640A5FED844AB0EE644A0021009112
:102A6000019102915FED884AB0EE641A5FED8A4AE7
:102A7000F0EE641A5FED8C4AB0EE642AD0ED174A8E
:102A80001FED8B5A64EE854AF0EE642A90ED165ADB
:102A9000F0EE085AF0EE624A55EE854AB6EE005A5C
:102AA00064EE854A90ED055A64EE854AB0EE643ACC
:102AB00090ED165AF8EE085AF0EE624A55EE854A45
:102AC000B6EE005A64EE854A90ED055A64EE854AEA
:102AD000F0EE643AD0ED054A64EEA24AF0EE642AC4
:102AE00080F84410F5EEC02AF1EE10FA04DD90F8FB
:102AF0004410491C80F84410B5EEC03AF1EE10FACB
:102B000004DD90F84410891C80F84410F5EEC03ABA
:102B1000F1EE10FA04DD90F84410091D80F844101D
:102B200090F8441007292FD2DFE801F02E09250480
:102B300017122000B0EE430AF0EE620A25E0F1EE33
:102B4000434AB0EE640AF1EE634AF0EE640A1CE018
:102B5000B0EE620AF0EE630A17E0F1EE624AB0EE00
:102B6000640AF1EE434AF0EE640A0EE0B0EE630A46
:102B7000F0EE430A09E0F1EE634AB0EE640AF1EECA
:102B8000624AF0EE640A00E000BF00BF70EE204A27
:102B9000B0EE644AD0ED1B4AF4EEC44AF1EE10FAEE
:102BA0000DD2D0ED1B4A64EE804A84EE845AB0EE1A
:102BB000450AD0ED1B4A74EEC04AF0EE640AF7EE07
:102BC000004A74EEC04A74EEE04AB5EE005A64EE74
:102BD000854ACDED024ADDED024AB6EE005A45EED9
:102BE000204ACDED014ADDED014AB6EE005A45EE30
:102BF000004ACDED004AD0ED1C4AF4EEC04AF1EE99
:102C000010FA1BDDD0ED1C4AF4EEE04AF1EE10FAAA
:102C100014DDD0ED1C4A74EEC04AB6EE005A64EEE4
:102C2000854AB0EE641AD0ED1C4A74EEE04ABEEE5E
:102C3000005A64EE854AB0EE642A40E0D0ED1C4AAA
:102C4000F4EEC04AF1EE10FA19DDD0ED1C4AF4EEB4
:102C5000E04AF1EE10FA12D8D0ED1C4A74EEC04AE8
:102C6000B5EE005A64EE854AB0EE641AD0ED1C4A07
:102C7000BDEE005A64EE854AF0EE641A1FE0D0ED16
:102C80001C4AF4EEC04AF1EE10FA18D8D0ED1C4AF6
:102C9000F4EEE04AF1EE10FA11DDD0ED1C4AB5EE8B
:102CA000005A64EE854AF0EE641AD0ED1C4A74EEC8
:102CB000E04ABDEE005A64EE854AB0EE642ADDEDCE
:102CC000004A74EE814A90ED1D5A74EEC54AC0ED7B
:102CD0002D4ADDED014A74EEA14A90ED1D5A74EEC5
:102CE000C54AC0ED2E4A90F84410072975D2DFE896
:102CF00001F07475FD04FCDCFB00B0EE005AF0EE50
:102D0000604A45EE004A05E03ACD13BFF0240020AA
:102D1000082500209FEDFE5A64EE854A283010ED0C
:102D2000065A64EE854AC0ED0C4ADFEDFA4A60EEC1
:102D3000A44A10ED065A64EE854AC0ED0D4A017FA3
:102D4000F54A515C6A4602EB8101D1ED004A74EE0E
:102D5000814AC0ED1D4A027FEF490831895C6A460D
:102D600002EB8101D1ED004A74EEA14AC0ED1E4A8A
:102D7000027FE9491031895C6A4602EB8101D1ED9D
:102D8000004A74EE824AC0ED1F4A017FE24A515C5C
:102D90006A4602EB8101D1ED004A74EEC14AC0EDF2
:102DA000204A027FDC490831895C6A4602EB8101D6
:102DB000D1ED004A74EEE14AC0ED214A027FD649C6
:102DC0001031895C6A4602EB8101D1ED004A74EE54
:102DD000C24AC0ED224A283817E215E270EEC04A16
:102DE0009FEDCB5A64EE854A283010ED065A64EE0A
:102DF000854AC0ED0C4A70EE204A9FEDC65A64EE3B
:102E0000854A10ED065A64EE854AC0ED0D4A017FF1
:102E1000C14A515C6A4602EB8101D1ED004A74EE71
:102E2000A14AC0ED1D4A027FBB490831895C6A4650
:102E300002EB8101D1ED004A74EE814AC0ED1E4AD9
:102E4000027FB5491031895C6A4602EB8101D1ED00
:102E5000004A74EE824AC0ED1F4A017FAE4A515CBF
:102E60006A4602EB8101D1ED004A74EEE14AC0ED01
:102E7000204A027FA8490831895C6A4602EB810139
:102E8000D1ED004A74EEC14AC0ED214A027FA24949
:102E90001031895C6A4602EB8101D1ED004A74EE83
:102EA000C24AC0ED224A2838AFE1B8EE005AF0EE2F
:102EB000404A55EE204A9FED965A64EE854A2830E6
:102EC00010ED065A64EE854AC0ED0C4ADFED914ADA
:102ED00060EE244A10ED065A64EE854AC0ED0D4AB4
:102EE000017F8D4A515C02E0B5E04BE023E16A4688
:102EF00002EB8101D1ED004A74EE824AC0ED1D4A19
:102F0000027F85490831895C6A4602EB8101D1ED77
:102F1000004A74EE814AC0ED1E4A027F7E4910319C
:102F2000895C6A4602EB8101D1ED004A74EEA14A48
:102F3000C0ED1F4A017F784A515C6A4602EB81016D
:102F4000D1ED004A74EEC24AC0ED204A027F7249B8
:102F50000831895C6A4602EB8101D1ED004A74EECA
:102F6000C14AC0ED214A027F6B491031895C6A4633
:102F700002EB8101D1ED004A74EEE14AC0ED224A34
:102F8000283842E1B8EE005AF0EE404A55EE204AA9
:102F90009FED5F5A64EE854A283010ED065A64EEC4
:102FA000854AC0ED0C4A5FEDA84A60EE244A10ED58
:102FB000065A64EE854AC0ED0D4A017F564A515CBF
:102FC0006A4602EB8101D1ED004A74EE824AC0EDFF
:102FD0001D4A027F50490831895C6A4602EB810133
:102FE000D1ED004A74EEA14AC0ED1E4A027F4A4963
:102FF0001031895C6A4602EB8101D1ED004A74EE22
:10300000814AC0ED1F4A017F434A515C6A4602EB88
:103010008101D1ED004A74EEC24AC0ED204A027F20
:103020003D490831895C6A4602EB8101D1ED004AD5
:1030300074EEE14AC0ED214A027F37491031895CC4
:103040006A4602EB8101D1ED004A74EEC14AC0ED3F
:10305000224A2838D9E070EEC04A9FED2D5A64EE1E
:10306000854A283010ED065A64EE854AC0ED0C4AB8
:10307000F1EE404A74EEE04A9FED265A64EE854A2E
:1030800010ED065A64EE854AC0ED0D4A017F224AD2
:10309000515C6A4602EB8101D1ED004A74EEA14A0F
:1030A000C0ED1D4A027F1C490831895C6A4602EB6B
:1030B0008101D1ED004A74EE824AC0ED1E4A027FC2
:1030C00015491031895C6A4602EB8101D1ED004A55
:1030D00074EE814AC0ED1F4A017F0F4A515C6A4677
:1030E00002EB8101D1ED004A74EEE14AC0ED204AC5
:1030F000027F09490831895C6A4602EB8101D1ED02
:10310000004A74EEC24AC0ED214A027F024905E03E
:10311000ABAAAA3E3ACD133FF02400201031895CBF
:103120006A4602EB8101D1ED004A74EEC14AC0ED5E
:10313000224A283869E0B0EE005AF0EE604A45EEC7
:10314000004A1FED0D5A64EE854A283010ED065AEC
:1031500064EE854AC0ED0C4ADFED614A60EEA44A98
:1031600010ED065A64EE854AC0ED0D4A017F5D4AB6
:10317000515C6A4602EB8101D1ED004A74EE814A4E
:10318000C0ED1D4A027F57490831895C6A4602EB4F
:103190008101D1ED004A74EE824AC0ED1E4A027FE1
:1031A00050491031895C6A4602EB8101D1ED004A39
:1031B00074EEA14AC0ED1F4A017F4A4A515C6A463B
:1031C00002EB8101D1ED004A74EEC14AC0ED204A04
:1031D000027F44490831895C6A4602EB8101D1EDE6
:1031E000004A74EEC24AC0ED214A027F3D491031C7
:1031F000895C6A4602EB8101D1ED004A74EEE14A36
:10320000C0ED224A283800E000BF00BF0EBD10B557
:1032100004469FED350A2046FEF77AFC9FED320A00
:1032200004F12400FEF774FC9FED2F0A04F148001E
:10323000FEF708FC10BD10B504469FED2B0A204692
:10324000FEF766FC9FED280A04F12400FEF760FCFF
:1032500010BD10B5044694ED120AD4ED1B0A20EE01
:10326000200A84ED170A94ED120AD4ED1B0A20EE11
:10327000200A84ED180A94ED170A84ED070A94EDEC
:10328000170AB1EE400A84ED080A94ED130A84EDA2
:10329000000A94ED150A84ED010A2046FEF745FC6C
:1032A00094ED060A84ED190A94ED180A84ED100ACB
:1032B00094ED180AB1EE400A84ED110A94ED140A57
:1032C00084ED090A94ED160A84ED0A0A04F124003B
:1032D000FEF72BFC94ED0F0A84ED1A0A10BD0000D6
:1032E0003ACD13BFF02400200000000010B50446C2
:1032F00004F16400FFF7A8F804F1B400FFF7F1F857
:1033000004F58270FFF795F904F5E070FFF77FFF91
:1033100004F51670FFF78FFF04F53270FEF7AEFD6F
:1033200004F56370FEF74BFFD4ED030AB0EE600ABC
:1033300004F10C00FEF786FB9FED870A84ED410A3D
:1033400004F58270FEF75AFC0020607010BD70B565
:103350000446A06818B1606820F001006060207821
:10336000072872D2DFE800F0040E606A757FF30070
:10337000606820F0020060602046FFF7B7FF012080
:103380002070E6E0207900F00100E0B373480068A7
:10339000401C7249086014281CD90020086094ED74
:1033A0004F0AF3EE040A80EE201A84ED4F1A94EDD2
:1033B000500AF3EE040A80EE201A84ED501A94EDC0
:1033C000510AF3EE040A80EE201A84ED511A02200D
:1033D000207028E094ED4F0AD4ED4C0A30EE200A1C
:1033E00084ED4F0A94ED500AD4ED4D0A30EE200AD8
:1033F00084ED500A94ED510AD4ED4E0A30EE200AC5
:1034000084ED510A0FE0FFE79FED550A84ED4F0A66
:103410009FED530A84ED500A9FED510A84ED510A45
:1034200000204E49086094E0207900F0010010B1BE
:103430000320207001E0002020708AE0207900F055
:10344000010018B10420207002E081E0002020700B
:103450007FE0207900F0010010B10520207001E02C
:103460000020207075E0207900F00100002866D06F
:1034700004F58270FFF782F894ED530A84EDC50AD3
:1034800094ED540A84EDC60A94ED920A84EDC70ABD
:1034900094ED570A84EDC30A94ED580A84EDC40AEA
:1034A00004F53270FEF72AFD607830B1012809D0AA
:1034B000022808D003281ED111E004F58270FEF71F
:1034C0009DFB19E018E004F5807004F53271D1E934
:1034D0000E354A6B096C061D2CC601610CE004F523
:1034E000807004F53271D1E90E354A6B096C061D06
:1034F0002CC6016100E000BF00BF04F58270FFF739
:103500005CF894ED550A84EDAB0A94ED560A84ED0F
:10351000AC0A04F51670FFF79CFE94EDAF0A84ED3B
:103520004A0A94EDB00A84ED4B0A04F58270FFF765
:1035300063F8606820F00200801C606005E060684D
:1035400020F0020060600020207002E0FFE700E051
:1035500000BF00BF70BD0000E4CB96403C290020B6
:10356000000000000020644948638863C86308467F
:10357000008C4AF6AA2108405F4908845E4844301E
:103580000088C0F30E00A1F84400704710B52DED7F
:10359000048B9FED5A0AB0EE409A0421584800F07F
:1035A000B7F800287DD00421554800F0B6F85548FA
:1035B000011D0A1D524BDB6B00EE103AB8EE400ABB
:1035C00080ED000A4E4B1B6C00EE103AB8EE400A3C
:1035D00081ED000A4A4B5B6C00EE103AB8EE400AEF
:1035E00082ED000A00BFA0F5987090ED4F0AD0ED73
:1035F0004C0A30EE600AD0ED5F0A20EE200A80ED22
:10360000470A90ED500AD0ED4D0A30EE600AD0ED39
:103610005F0A20EE200A80ED480A90ED510AD0EDB5
:103620004E0A30EE600AD0ED5F0A20EE200A80EDEF
:10363000490AFFF78CFE34480079C0F340000028A7
:1036400054D030482C38FFF70DF82F4890ED600A21
:10365000D0ED590A20EE208A90ED600AD0ED5A0A8A
:1036600060EE208A90ED600AD0ED5B0A20EE200A21
:10367000B0EE409AFCEEC81AB8EE610AFCEEE81A09
:10368000F8EE610AFCEEC91AB8EE611ADFED1F1AF6
:1036900060EE211AFCEEE11A11EE900A1649486319
:1036A00000E025E0DFED191A60EEA11AFCEEE11A48
:1036B00011EE900A8863DFED151A61EE211AFCEE17
:1036C000E11A11EE900AC86300BF00BF0846008CE3
:1036D00045F255510843084908840748443000889A
:1036E00040F40040A1F8440000BF01E0FFF73AFFBA
:1036F000BDEC048B10BD0000000001400000000084
:1037000000200140502600202025002000400346D4
:1037100040F2054CC0F6000C604740F28F3CC0F60A
:10372000000C604792000100FF00920E493CB10A74
:10373000C93C2BC3163D2EFB483D752B7B3D04A990
:10374000963D80B6AF3D36BDC83D2FBCE13D73B25E
:10375000FA3D87CF093E8340163EB5AB223EA2100C
:103760002F3ECF6E3B3EC2C5473E0115543E135C13
:10377000603E7F9A6C3ECCCF783EC07D823E938E79
:10378000883E229A8E3E32A0943E86A09A3EE59ACA
:10379000A03E128FA63ED47CAC3EEF63B23E2A44DC
:1037A000B83E491DBE3E15EFC33E53B9C93ECA7B64
:1037B000CF3E4136D53E80E8DA3E4F92E03E75334B
:1037C000E63EBBCBEB3EEA5AF13ECBE0F63E275D50
:1037D000FC3EE4E7003F3D9C033F824B063F9BF5E8
:1037E000083F6B9A0B3FDA390E3FCDD3103F2A6862
:1037F000133FD9F6153FC07F183FC6021B3FD17F4C
:103800001D3FCBF61F3F9967223F25D2243F5636F6
:10381000273F1594293F4AEB2B3FDE3B2E3FBB85CC
:10382000303FC9C8323FF30400FF00353F233A3729
:103830003F4268393F3B8F3B3FF9AE3D3F67C73F53
:103840003F70D8413F01E2433F03E4453F65DE4717
:103850003F12D1493FF8BB4B3F029F4D3F207A4F6B
:103860003F3D4D513F4918533F31DB543FE595569D
:103870003F5348583F6AF2593F1A945B3F532D5DBE
:103880003F05BE5E3F2146603F97C5613F5A3C639E
:103890003F59AA643F880F663FD86B673F3CBF68BB
:1038A0003FA7096A3F0C4B6B3F5E836C3F93B26D41
:1038B0003F9ED86E3F73F56F3F0809713F521372F8
:1038C0003F4714733FDD0B743F0BFA743FC6DE7540
:1038D0003F07BA763FC58B773FF853783F98127908
:1038E0003F9DC7793F02737A3FBE147B3FCDAC7BCF
:1038F0003F283B7C3FC9BF7C3FAC3A7D3FCCAB7D92
:103900003F23137E3FB0707E3F6DC47E3F580E7FD5
:103910003F6D4E7F3FAB847F3F0FB17F3F97D37F9B
:103920003F43EC7F3F11FB7F3F30040000800821C4
:10393000102118212021282130313842C44821503B
:1039400021582160216821702178218021882190CF
:10395000219821A021A821B021B821C021C821D0BF
:1039600021D821E021E821F021F8250025082510A3
:10397000251825202528253025382540254825507F
:10398000255825602568257025782580258825906F
:10399000259825A025A825B025B825C025C825D05F
:1039A00025D825E025E825F025F829002908291043
:1039B000291829202928293029382940294829501F
:1039C000295829602968297029782980298829900F
:1039D000299829A029A829B029B829C029C829D0FF
:1039E00029D829E029E829F029F82D00032D08031A
:1039F0002D10032D18032D20032D28032D30032D0A
:103A000038032D40032D48032D50032D58032D60FE
:103A1000032D68032D70032D78032D80032D88035B
:103A20002D90032D98032DA0032DA8032DB0032D59
:103A3000B8032DC0032DC8032DD0032DD8032DE0CE
:103A4000032DE8032DF0032DF8035D000412BC10D4
:103A500012BC181EBD000412BD281EBD00041EBDF0
:103A6000000412BD401EBD00041EBD00041EBD00AA
:103A7000041EBE00041EBE00041EBE00041EBE00C6
:103A80000412BE8012BE881EBE00041EBE00041EAC
:103A9000BE000412BEA812BEB012BEB81EBE000404
:103AA0001EBE000412BED012BED81EBE000412BE3E
:103AB000E812BEF012BEF81EBE00041EBE000416C0
:103AC000BE1016BE181EBE000416BE281EBE000480
:103AD0001EBE00041EBE000416BE481EBE00041E0C
:103AE000BE000416BF601EBF000416BF701EBF00DC
:103AF000041EBF000416BF881EBF00041EBF0004C2
:103B000016BFA01EBF00041EBF000416BFB816BF1C
:103B1000C016BFC816BFD016BFD81EBF00041EBF38
:103B2000000416BFF01EBF00041ABF001ABF081E13
:103B3000BF00041EBF00041EBF00041ABF281ABF26
:103B4000301ABF381EBF00041EBF00041EBF000491
:103B50001ABF581ABF601EBF00041EBF00041ABF60
:103B6000781EBF00041EBF00041ABF901ABF981A27
:103B7000BFA01ABFA81ABFB01EBF00041EBF00041A
:103B80001ABFC81EBF00041EBF00041ABFE01ABF40
:103B9000E81ABFF01ABFF81EBF00041EBF00041EC3
:103BA000BF10031EBF18031EBF20031EBF00041E4C
:103BB000BF00041EBF38031EBF40031EBF48031EC4
:103BC000BF50031EBF00041EBF60031EBF68031E5C
:103BD000BF70031EBF00041EBF00041EBF88031E6B
:103BE000BF90031EBF00041EBF00041EBFA8031E1B
:103BF000BFB0031EBF00041EBFC0031EBFC8031E0C
:103C0000BF00041EBFD8031EBFE0031EBF00041E7A
:103C1000BFF0031EBFF8031EBF00043108211021AE
:103C200018212021282130313842C4482150215800
:103C3000216021682170217821802188219021989C
:103C400021A021A821B021B821C021C821D021D88C
:103C500021E021E821F021F825002508251025186C
:103C6000252025282530253825402548255025584C
:103C7000256025682570257825802588259025983C
:103C800025A025A825B025B825C025C825D025D82C
:103C900025E025E825F025F829002908291029180C
:103CA00029202928293029382940294829502958EC
:103CB00029602968297029782980298829902998DC
:103CC00029A029A829B029B829C029C829D029D8CC
:103CD00029E029E829F029F82D00032D08032D10EB
:103CE000032D18032D20032D28032D30032D380319
:103CF0002D40032D48032D50032D58032D60032D17
:103D000068032D70032D78032D80032D88032D90DB
:103D1000032D98032DA0032DA8032DB0032DB80368
:103D20002DC0032DC8032DD0032DD8032DE0032D66
:103D3000E8032DF0032DF8031DFF073E8005081052
:103D4000060100000202052007000201010002072F
:103D5000220214210B12010B11063202113301024F
:103D60001FC1011E8048061007A0400BD7233C044A
:103D70006EBC58084007E8030000F401086D6C08A9
:103D8000500A88130000D253FB413224500EDD7ECE
:103D9000BC43DB0F4940DD7E3C43144E5009734267
:103DA000B7447CD9A03E5C1006406F12833A04628F
:103DB000BA5811301006422FE34D3C04A2BC86E1F4
:103DC000286118500918B751380000404027115099
:103DD000120328024603500163010015426666661D
:103DE0003FCCCCCC3D8FC2753DC20DDC3B004003C7
:103DF0004658C0091482DF3AD5E2A6386E13204136
:103E000004022AC1A025B011040236BEE025F41533
:103E1000F86EC4940A00091A8CFFBC3F969FE73DD8
:103E200074012224011A40A005DAAC2A3F10B4081C
:103E3000A15C634A3581C6581005101365460462BB
:103E4000C63404054ACDCC4C3DD8299C2C0538D12C
:103E50005349880900112EEC51B83EFBED6B3956E1
:103E60006A7639FBA30B38D0000956D1E4DF44143D
:103E70007A4341C021AC60099A991941A69BC43C80
:103E8000AC8011587380398EE38A450000C8445CC9
:103E90000BB6BD8E100AC8420000484200806D1C5F
:103EA000032A4843C8A1A401220CAD28035C065193
:083EB0000AA53C64990300001F
:040000050800018965
:00000001FF
