:020000040800F2
:10000000D813002071020008790200087B02000862
:100010007D0200087F020008810200080000000045
:100020000000000000000000000000008302000843
:10003000850200080000000087020008B9260008B9
:100040008B0200088B0200088B0200088B0200085C
:100050008B0200088B0200088B0200088B0200084C
:100060008B0200088B0200088B0200088B0200083C
:100070008B0200088B0200088B0200088B0200082C
:100080008B0200088B020008B90300088B020008ED
:100090008B0200088B0200088B0200088B0200080C
:1000A000A52900088B0200088B0200088B020008BB
:1000B000E12900088B0200088B0200088B0200086F
:1000C0008B0200088B0200088B0200088B020008DC
:1000D0008B0200088B0200088B0200088B020008CC
:1000E0008B0200088B0200088B0200088B020008BC
:1000F0008B0200088B0200088B0200088B020008AC
:100100008B0200088B0200088B0200088B0200089B
:100110008B0200088B0200088B0200088B0200088B
:100120008B0200088B0200088B0200088B0200087B
:100130008B0200088B0200088B0200088B0200086B
:100140008B0200088B0200088B0200088B0200085B
:100150008B0200088B0200088B0200088B0200084B
:100160008B0200088B0200088B0200088B0200083B
:100170008B0200088B0200088B0200088B0200082B
:100180008B0200088B02000800F002F800F060F813
:100190000AA090E8000C82448344AAF10107DA45E2
:1001A00001D100F055F8AFF2090EBAE80F0013F0D4
:1001B000010F18BFFB1A43F001031847E42B00009E
:1001C000042C000010F8013B0A4413F0030408BF9C
:1001D00010F8014B1D1108BF10F8015B641E05D01B
:1001E00010F8016B641E01F8016BF9D1002D15D0D8
:1001F00010F8014B03F00C030C2BA1EB04040ABF15
:1002000010F8013BA4EB8314A4EB032405F10103D4
:1002100014F8016B5B1E01F8016BF9D5914238BFF0
:1002200010F8013BD1D3704700230024002500269D
:10023000103A28BF78C1FBD8520728BF30C148BF49
:100240000B6070471FB502F0A5FD1FBD10B510BDB6
:1002500000F037F81146FFF7F5FF02F083FD00F0DC
:1002600055F803B4FFF7F2FF03BC00F059F80000A3
:100270000948804709480047FEE7FEE7FEE7FEE73A
:10028000FEE7FEE7FEE7FEE7FEE7FEE70448054976
:10029000054A064B70470000D9260008890100086E
:1002A000D80D0020D8130020D80F0020D80F002030
:1002B000704770477047000000487047780D002075
:1002C00070477546FFF7F8FFAE460500694653468E
:1002D00020F00700854618B020B5FFF7D7FFBDE82E
:1002E00020404FF000064FF000074FF000084FF09D
:1002F000000B21F00701AC46ACE8C009ACE8C0092E
:10030000ACE8C009ACE8C0098D46704710B504469A
:10031000AFF300802046BDE81040FFF7A2BF000009
:1003200001491820ABBEFEE726000200CA43026066
:10033000704700220A12D3430360704721B18268DC
:1003400042F00102826003E0826822F001028260D2
:10035000704700000021084A1168084A1140D0E99E
:1003600000231A4383681A43C3681A431143044A9B
:10037000C2F804137047000004230140E030FCFF82
:10038000002001400A460021816821F470211143B8
:10039000816070470A460021816821F440111143B1
:1003A000816070470246002013680B400BB10120AA
:1003B00000E000207047000010B504210548FFF759
:1003C000F1FF30B104210348FFF7B0FF024801F00C
:1003D00065FD10BD002001404008002010B50B460F
:1003E0000021D9B2012404FA01F11AB144680C4386
:1003F000446002E044688C43446010BD30B502465E
:10040000002000235068104C20400D790C6844EA0D
:1004100005242043506090680C4C2040D1E90354DF
:100420002C438D682C434D7944EA45042043906069
:10043000D06A20F470000C7D641EE4B2234340EACD
:100440000350D06230BD0000FFFEFFFCFDF7FFC08F
:10045000F0B504461546002000220026092911DDCA
:10046000E068A1F10A0707EB470C072707FA0CF22F
:100470009043A1F10A0707EB470703FA07F210437D
:10048000E0600CE0206901EB410C072707FA0CF251
:10049000904301EB410703FA07F210432061A06B80
:1004A000C0F30156EF1C06F1010CA7EB0C0707EB9C
:1004B000870C1F2707FA0CF29043EF1C06F1010C82
:1004C000A7EB0C0707EB870701FA07F21043A063BD
:1004D000F0BD21B1426842F48052426003E04268BC
:1004E00022F480524260704710B50A460021002372
:1004F000816B21F44011531E41EA0351816310BD09
:10050000F0B504460D4600200021092D11DDE068FC
:10051000A5F10A0606EB4607072606FA07F1884307
:10052000A5F10A0606EB460603FA06F10843E06069
:100530000CE0206905EB4507072606FA07F188431A
:1005400005EB450603FA06F108432061072A0FDA96
:10055000606B561E06EB86071F2606FA07F18843D6
:10056000561E06EB860605FA06F10843606322E094
:100570000D2A0FDA206BD61F06EB86071F2606FA18
:1005800007F18843D61F06EB860605FA06F10843F5
:10059000206310E0E06AA2F10D0606EB86071F2635
:1005A00006FA07F18843A2F10D0606EB860605FA66
:1005B00006F10843E062F0BD816841F0804181604E
:1005C0007047000038B10849096841F40001074A42
:1005D000C2F8041306E00449096821F40001034A43
:1005E000C2F80413704700000423014000200140BA
:1005F00000B58BB00120FFF7E5FF002009900790C0
:1006000008900A9007A8FFF7A5FE0020019001209E
:100610008DF808008DF80900002003900590012056
:100620008DF8180001A92348FFF7E8FE04230122F2
:1006300000212048FFF764FF04211E48FFF754FF04
:1006400001231A4608211B48FFF702FF012302225B
:1006500006211848FFF7FCFE012303221146154826
:10066000FFF7F6FE0123042209211248FFF7F0FEEE
:1006700000211048FFF72DFF4FF400110D48FFF740
:1006800089FE4FF480310B48FFF77CFE40F20741B2
:100690000848FFF74EFE012240F207410548FFF7E8
:1006A0009DFE01210348FFF749FE0248FFF784FF42
:1006B0000BB000BD0020014010B501F0CFFF0121BB
:1006C000084601F0ADFE0121022001F0A9FE012142
:1006D000042001F0A5FE0121082001F0A1FE012166
:1006E000102001F09DFE0121202001F099FE012142
:1006F000402001F095FE0121802001F091FE0121B2
:10070000080201F08DFE0121084601F099FE012149
:10071000C80201F095FE0121084601F0A1FE012169
:10072000080201F09DFE0121880301F099FE10BD31
:1007300000B58FB000BF154800F0D9FA0028FAD1F3
:100740000090019012480290002003900120049034
:10075000002005904FF480600690400007908000D4
:10076000089000010A904012099000200B9001208F
:100770000C9000200D900E906946044800F0C2FADB
:100780000121024800F0A8FA0FB000BD1064024039
:10079000000000201CB54FF48061B74800F0FBFC5E
:1007A0001020009000208DF8040001208DF8070033
:1007B0006946B24800F078FC4FF480600090012058
:1007C0008DF804008DF8070000208DF805006946BB
:1007D000A94800F069FC012000908DF80400022077
:1007E0008DF8070000208DF805006946A34800F049
:1007F0005BFC0220009001208DF8040002208DF89F
:10080000070000208DF8050069469C4800F04CFC6C
:1008100001219A4800F0BCFC0221984800F0B8FC85
:100820000420009000208DF8040001208DF80700BE
:100830006946924800F038FC0820009000208DF8AE
:10084000040001208DF8070069468C4800F02CFC5C
:100850001020009000208DF8040001208DF8070082
:100860006946864800F020FC03208DF80400012032
:10087000009000208DF807006946814800F014FCC4
:1008800003208DF804004020009000208DF8070020
:1008900069467C4800F008FC03208DF8040008201D
:1008A000009000208DF807006946764800F0FCFBB8
:1008B00003208DF804000220009000208DF807002E
:1008C00069466F4800F0F0FB02208DF8040000201C
:1008D0008DF806004FF48070009000208DF807001E
:1008E00003208DF805006946664800F0DDFB022014
:1008F0008DF8040000208DF806004FF40070009081
:1009000000208DF8070003208DF8050069465D483A
:1009100000F0CAFB02208DF8040000208DF80600CC
:100920004FF48060009000208DF8070003208DF8C0
:1009300005006946534800F0B7FB02208DF804001B
:1009400000208DF806004FF40050009000208DF834
:10095000070003208DF805006946494800F0A4FB14
:1009600002208DF8040000208DF806004FF480402E
:10097000009000208DF8070003208DF805006946DF
:100980003F4800F091FB02208DF8040000208DF814
:1009900006004FF40040009000208DF8070003206F
:1009A0008DF805006946364800F07EFB00208DF882
:1009B000040001208DF806000003009000208DF84F
:1009C000070003208DF8050069462D4800F06CFBF8
:1009D000012208212B4800F0AFFB01220921294800
:1009E00000F0AAFB01220A21264800F0A5FB012203
:1009F0000D21234800F0A0FB01220E21204800F029
:100A00009BFB01220F211E4800F096FB01220C21C6
:100A10001B4800F091FB4FF48060009000208DF89F
:100A2000040003208DF8050000208DF807006946BA
:100A3000154800F039FB4FF40060009000208DF85D
:100A4000040003208DF8050000208DF8070069469A
:100A50000D4800F029FB4FF48050009000208DF8E5
:100A6000040003208DF8050000208DF8070069467A
:100A7000054800F019FB1CBD0014024000100240A4
:100A80000004024000000240001C024010B5042196
:100A9000014800F074FB10BD0010024010B50821A1
:100AA000014800F06CFB10BD0010024038B54FF05B
:100AB000FF300521002807DA0A07140E164A00F055
:100AC0000F031B1FD45403E00A07130E134A1354D9
:100AD00000BF4FF4A06001F01FFC12208DF8000051
:100AE00003208DF8010000208DF8020001208DF810
:100AF0000300684601F0D4FB18208DF800000020A8
:100B00008DF801008DF8020001208DF80300684681
:100B100001F0C6FB38BD000018ED00E000E400E085
:100B200000B58DB00121374801F087FF4FF4007008
:100B3000ADF830002020ADF82A000020ADF82800E4
:100B400001208DF8320041F267000B900AA92D4870
:100B500002F0C6F87020ADF814000120ADF81600C0
:100B60000420ADF8180000200790ADF82000ADF883
:100B70002200ADF82400ADF8260005A9214801F0B7
:100B800089FF05A91F4801F0C3FF05A91D4802F010
:100B900011F85420079005A91A4802F05BF870215B
:100BA000184802F093F84FF40060ADF804004010CC
:100BB000ADF806000020ADF808001520ADF80A00D9
:100BC0004FF48050ADF80C004000ADF80E0000204E
:100BD000ADF8100001A90B4801F019FF8021094868
:100BE00001F028FF01228021064801F04AFF01217F
:100BF000044801F000FF0121024801F02AFF0DB076
:100C000000BD0000000001400EB54FF40070ADF8CB
:100C100008000020ADF80200ADF800008DF80A00D1
:100C2000401E019069464FF0804002F059F80121C2
:100C3000880701F002FF0EBDDFED260AB0EE600A64
:100C4000D1ED0A0AB0EE600A0A79C2F3400252B945
:100C50000269AAB94269012A12D14A6822F0020245
:100C6000921C4A600CE00A79C2F3400242B18269E8
:100C700032B9C269012A03D14A6822F002024A60ED
:100C8000026942618269C261D0ED020AF4EEC00AD3
:100C9000F1EE10FA04D2D0ED020AB0EE600A0AE0DA
:100CA000D0ED030AF4EEC00AF1EE10FA03DDD0ED48
:100CB000030AB0EE600AD0ED020A90ED031A70EE5E
:100CC000C10A90ED031A30EE411AC1EE201AC1EDAF
:100CD0000F1A70470000000021B1026842F00102C3
:100CE000026003E0026822F00102026070470146E0
:100CF00000200A6802F001020AB1012000E0002091
:100D00007047000010B500220268134B1A40CC68EF
:100D10000B6823434C6923438C692343CC692343E9
:100D20000C6A23434C6A23438C6A23434C6B234352
:100D30008C6B23431A430260426922F00702D1E917
:100D40000B3423431A4342610B6943604B68836051
:100D50008B68C36010BD00003F801CF010B50446D6
:100D6000002020709FED110A201D01F049FB9FED2E
:100D70000F0A04F1280000F094F99FED0C0A84EDAD
:100D80000D0AB7EE000A84ED0E0A9FED080A84ED05
:100D90000F0A9FED060A84ED100A94ED260A84EDF1
:100DA0001E0A9FED020A84ED1F0A10BD000000001C
:100DB00010B5044694ED240AB1EE400AD4ED140AAD
:100DC00020EE200AD4ED090A94ED251A60EE810A7E
:100DD00094ED151A00EEC10AD4ED230A94ED101A11
:100DE00000EE810AD4ED230A94ED1A1A00EEC10A2E
:100DF000D4ED140A94ED1C1A41EE000AC4ED140A55
:100E000094ED240AB1EE400AD4ED150A20EE200A32
:100E1000D4ED090A94ED251A60EE810A94ED141AB6
:100E200000EE810AD4ED230A94ED111A00EE810A36
:100E3000D4ED230A94ED1B1A00EEC10AD4ED150A75
:100E400094ED1C1A41EE000AC4ED150A94ED140A43
:100E5000D4ED120A30EE600A84ED160A94ED150AFC
:100E6000D4ED130A30EE600A84ED170A94ED180AE7
:100E7000D4ED1E0A94ED161A00EE810A84ED180ACC
:100E800094ED190AD4ED1E0A94ED171A00EE810AAA
:100E900084ED190A94ED180AD4ED1D0A94ED161A82
:100EA00000EE810A84ED1A0A94ED190AD4ED1D0AA8
:100EB00094ED171A00EE810A84ED1B0A94ED1A0ACC
:100EC000D4ED1F0AB4EEE00AF1EE10FA02D294ED6E
:100ED0001A0A01E094ED1F0AD4ED1F0AF1EE600A30
:100EE000B4EEE00AF1EE10FA0EDD94ED1A0AD4ED3C
:100EF0001F0AB4EEE00AF1EE10FA02D294ED1A0ADB
:100F000006E094ED1F0A03E094ED1F0AB1EE400ADB
:100F100084ED1A0A94ED1B0AD4ED1F0AB4EEE00A20
:100F2000F1EE10FA02D294ED1B0A01E094ED1F0AD3
:100F3000D4ED1F0AF1EE600AB4EEE00AF1EE10FA09
:100F40000EDD94ED1B0AD4ED1F0AB4EEE00AF1EEBB
:100F500010FA02D294ED1B0A06E094ED1F0A03E09A
:100F600094ED1F0AB1EE400A84ED1B0A94ED1A0AB3
:100F7000B1EE400AD4ED0D0A20EE200A84ED000AFD
:100F800094ED1B0AD4ED0E0A20EE200A84ED010A2E
:100F9000204601F0CBF994ED060A84ED090A04F12C
:100FA000240000F06BF894ED0C0AD4ED1C0A94EDCB
:100FB000091A00EE810A84ED0C0A07E094ED0C0A90
:100FC000DFED110A30EE600A84ED0C0A94ED0C0A94
:100FD000DFED0D0AB4EEE00AF1EE10FAEEDC07E008
:100FE00094ED0C0ADFED080A30EE200A84ED0C0ABD
:100FF00094ED0C0AB5EEC00AF1EE10FAF0D304F14C
:10100000300000F0EDF810BDDB0FC94010B504460C
:101010009FED190A204601F0F3F99FED170A04F13C
:10102000240000F03EF89FED140A84ED0C0AB7EEA0
:10103000000A84ED0D0A9FED100A84ED0E0A9FED63
:101040000E0A84ED0F0A9FED0C0A84ED140A9FED41
:101050000A0A84ED150A9FED080A84ED180A9FED2F
:10106000060A84ED190A9FED040A84ED1A0A9FED21
:10107000020A84ED1B0A10BD0000000090ED020A78
:10108000D0ED000A20EE200AD0ED020AB7EE001AD9
:1010900071EE600A90ED011A00EE810A80ED010AFE
:1010A000704780ED010A7047F0B50A460021002321
:1010B000002400BF3DE0012505FA01F3156805EAAB
:1010C00003049C4234D105684F000326BE40B5435B
:1010D000056015794E00B540066835430560157901
:1010E000012D02D01579022D16D185684F000326F7
:1010F000BE40B543856055794E00B540866835439E
:101100008560456801268E40B543456045689679FF
:101110008E40B6B235434560C5684F000326BE40D9
:10112000B543C560D5794E00B540C6683543C56046
:10113000491C1029BFD3F0BDF0B5002300244D0792
:10114000ED0E02FA05F3CE1000F1200555F82650F9
:101150004E07F70E0F26BE40B543CF1000F1200614
:1011600046F82750CE1000F1200555F8265045EAE4
:101170000304CE1000F1200545F82640F0BD0246DC
:10118000002013690B400BB1012000E000207047E4
:101190000A0482617047816170470000044BDB6B79
:1011A0000360034B1B6C0B60014B5B6C136070475F
:1011B000002001400020094948638863C86308464D
:1011C000008C4AF6AA2108400449088403484430A8
:1011D0000088C0F30E00A1F84400704700000140F1
:1011E0000146D1ED002A9FED363A62EE832AB0EE39
:1011F000620ADFED342A60EE222AF0EE620AFDEE8A
:10120000E02A12EE900A304A02EB8002D2ED002A68
:10121000B0EE621A2C4B421C03EB8202D2ED002A84
:10122000F0EE621A02EE900AF8EEE22A70EEE22A7E
:10123000B0EE622A31EEC13AF0EE412A42EE032AC4
:10124000C1ED022AF5EE002A70EE222AB0EE620A03
:10125000F7EE002AB4EEE20AF1EE10FA05DDF7EE41
:10126000002A70EE622AB0EE620ADFED162A60EE06
:10127000222AF0EE620AFDEEE02A12EE900A124AED
:1012800002EB8002D2ED002AB0EE621A0E4B421C35
:1012900003EB8202D2ED002AF0EE621A02EE900A0F
:1012A000F8EEE22A70EEE22AB0EE622A31EEC13A9E
:1012B000F0EE412A42EE032AC1ED012A70470000F8
:1012C00083F9223E0000004408000020B5EEC00A69
:1012D000F1EE10FA15DDB6EE001A20EE011AF0EE6E
:1012E000410A10EE100A094901EB600000EE100AF5
:1012F00080EE801AF6EE001A01EE801AB0EE410A76
:1013000003E0DFED030AB0EE600A7047F51DBD1F74
:101310000000000090ED070AD0ED060AB0EE001ABA
:1013200011EE200AD0ED080A30EE600ADFED090A5E
:1013300020EE200A80ED120A90ED070AD0ED080A8F
:1013400030EE600ADFED040A20EE200A80ED130A79
:1013500070470000ABAAAA3E3ACD133F10B5044631
:101360009FED050A204601F04BF89FED030A04F1BA
:10137000240001F045F810BD0000000010B504463F
:1013800094ED120AD4ED1B0A20EE200A84ED170A10
:1013900094ED120AD4ED1B0A20EE200A84ED180AFF
:1013A00094ED170A84ED070A94ED170AB1EE400A8E
:1013B00084ED080A94ED130A84ED000A94ED150AF1
:1013C00084ED010A204600F0B1FF94ED060A84ED99
:1013D000190A94ED180A84ED100A94ED180AB1EE7A
:1013E000400A84ED110A94ED140A84ED090A94ED83
:1013F000160A84ED0A0A04F1240000F097FF94ED28
:101400000F0A84ED1A0A10BD10B5044604F1280035
:1014100001F036F810BD000010B504469FED0C0A2F
:1014200084ED110AD4ED000AB0EE600A204601F006
:101430009BF8D4ED050AB0EE600A04F1140001F047
:1014400093F89FED030A04F1280001F08DF810BD18
:101450000000000090ED090AD0ED010A20EE200AFC
:10146000D0ED0A0A90ED021A00EEC10A80ED160ACC
:1014700090ED090AD0ED020A20EE200AD0ED0A0A0A
:1014800090ED011A00EE810A80ED170A704790ED89
:10149000120AD0ED010A20EE200AD0ED130A90EDD9
:1014A000021A00EE810A80ED140A90ED120AB1EEE4
:1014B000400AD0ED020A20EE200AD0ED130A90ED8A
:1014C000011A00EE810A80ED150A704710B5044636
:1014D0009FED080A204600F093FF9FED060A04F1F5
:1014E000240000F08DFF9FED030A04F1480001F095
:1014F0003BF810BD0000000010B5044694ED1C0A36
:10150000D4ED240AB4EEE00AF1EE10FA02D294ED22
:101510001C0A01E094ED240AD4ED250AB4EEE00A99
:10152000F1EE10FA0EDD94ED1C0AD4ED240AB4EEAF
:10153000E00AF1EE10FA02D294ED1C0A04E094EDF8
:10154000240A01E094ED250A84ED130A04F1480011
:1015500000F096FF94ED160A84ED000A94ED1D0A42
:1015600084ED010A204600F0E1FE94ED1E0ADFED55
:10157000190A20EE200A84ED090AD4ED1F0A60EE54
:10158000A00A94ED201AD4ED201A41EE210AB0EE03
:10159000600AFFF79BFE84ED0A0A04F1240000F0C4
:1015A000C5FE94ED0F0A84ED170A04F15C00FFF705
:1015B00017FE94ED060AD4ED190A20EE200A84EDF8
:1015C000220A94ED060AD4ED180A20EE200A84EDD2
:1015D000230A10BD3ACD133F9FED0C0A80ED000A9F
:1015E0009FED0A0A80ED010A9FED080A80ED020ACC
:1015F0009FED060A80ED030A9FED040A80ED160AAE
:101600009FED020A80ED170A7047000000000000FD
:101610000EB59FEDD73AB0EE431A9FEDD53AF0EEF6
:10162000431A9FEDD33AB0EE432A9FEDD13AB0EE84
:10163000430A9FEDCF3AF0EE430A9FEDCD3AF0EE2C
:10164000432A002100910191029190ED173ADFEDBC
:10165000C93A23EE233AB0EE431AD0ED163AB0EE73
:10166000084AB0EE413A14EE233AF6EE003A23EE81
:10167000233AD0ED053A23EE233AF0EE431AD0EDAB
:10168000163AB8EE084AB0EE413A14EE233AF6EEB6
:10169000003A23EE233AD0ED053A23EE233AB0EE9A
:1016A000432A90ED053A23EE013AB0EE431A80F852
:1016B0004410B5EEC01AF1EE10FA04DD90F84410B3
:1016C000491C80F84410F5EEC01AF1EE10FA04DD62
:1016D00090F84410891C80F84410B5EEC02AF1EE51
:1016E00010FA04DD90F84410091D80F8441090F8B9
:1016F000441007292FD2DFE801F02E092504171224
:101700002000B0EE610AF0EE410A25E0B1EE613A48
:10171000B0EE430AB1EE423AF0EE430A1CE0B0EEFE
:10172000410AF0EE420A17E0B1EE413AB0EE430A48
:10173000B1EE613AF0EE430A0EE0B0EE420AF0EE8E
:10174000610A09E0B1EE423AB0EE430AB1EE413A25
:10175000F0EE430A00E000BF00BF30EE203AF0EEAA
:10176000432A90ED1B3AB4EEE23AF1EE10FA0DD2B4
:1017700090ED1B3A23EE003AC3EE223AB0EE630A34
:1017800090ED1B3A33EE403AF0EE430A90ED1B3AEF
:1017900033EE403A33EE603AF5EE003A23EE233A68
:1017A000D0ED1C3AB6EE004A04EE233A8DED003A35
:1017B0009DED003AF6EE003A03EE803A8DED013AE7
:1017C0009DED013AF6EE003A03EEA03A8DED023AB5
:1017D00090F8441007296FD2DFE801F0A51F8A04B2
:1017E00053386F00F0EE003AB0EE603A03EE803A04
:1017F000DFED613A23EE233AD0ED043A23EE233AAB
:1018000080ED163A9FED5D3A20EE833AD0ED043A32
:1018100023EE233A80ED173A86E030EEC03ADFED52
:10182000563A23EE233AD0ED043A23EE233A80EDE4
:10183000163A30EE203ADFED513A23EE233AD0ED5E
:10184000043A23EE233A80ED173A6DE0F8EE003AC1
:10185000B0EE403A13EEA03ADFED473A23EE233ADA
:10186000D0ED043A23EE233A80ED163A9FED433A49
:1018700020EE033AD0ED043A23EE233A80ED173AF6
:1018800052E0F8EE003AB0EE403A13EEA03ADFED47
:101890003A3A23EE233AD0ED043A23EE233A80ED90
:1018A000163A9FED373A20EE033AD0ED043A23EE94
:1018B000233A80ED173A37E035E030EEC03ADFEDFD
:1018C0002E3A23EE233AD0ED043A23EE233A80ED6C
:1018D000163AB1EE403A33EE603ADFED283A23EEA5
:1018E000233AD0ED043A23EE233A80ED173A1BE079
:1018F000F0EE003AB0EE603A03EE803ADFED1E3AC9
:1019000023EE233AD0ED043A23EE233A80ED163A43
:101910009FED1B3A20EE833AD0ED043A23EE233AB2
:1019200080ED173A00E000BF00BF10F8441F154AD1
:10193000515C6A4602EB810191ED003A80ED073A75
:10194000027810490831895C6A4602EB810191ED09
:10195000003A80ED083A02780A491031895C6A46FB
:1019600002EB810191ED003A80ED093A44380EBD59
:1019700000000000D7B3DD3FABAAAA3E3ACD133F2B
:101980003ACD13BF1008002090ED0F0AD0ED120AD7
:1019900060EE200A90ED091A90ED110A00EE810A1E
:1019A00080ED110A07E090ED110ADFED100A30EE2C
:1019B000600A80ED110A90ED110ADFED0C0AB4EE19
:1019C000E00AF1EE10FAEEDC07E090ED110ADFED2F
:1019D000070A30EE200A80ED110A90ED110AB5EEEB
:1019E000C00AF1EE10FAF0D370470000DB0FC940D7
:1019F00010B504469FED0C0A84ED110AD4ED000ADF
:101A0000B0EE600A204600F0AFFDD4ED050AB0EE5E
:101A1000600A04F1140000F0A7FD9FED030A04F131
:101A2000280000F0A1FD10BD0000000010B5044624
:101A3000204600F025FD04F1140000F021FD10BD4A
:101A4000014600208B694A689A4215D28B698A68E0
:101A50009A4211D28B69CA689A420DD20A69521C05
:101A60000A610A69521C0A61CB699A4204D10A6868
:101A700022F00202921C0A604A69521C4A610B6AF7
:101A80004A699A4204D10A6822F00402121D0A60CF
:101A90000A78C2F340022AB10A6822F001020A6001
:101AA000012008E00A78C2F3800222B10A6822F01D
:101AB00001020A6002207047014600200A7802F005
:101AC00001024AB900220A600A614A610A6822F0EA
:101AD0000102521C0A6000E00120704770B5044604
:101AE0000025D4E90701884211D80020A061D4E97B
:101AF0000701884229D1606A20B1201D616800F089
:101B000036FD22E0A06A00B3E06AA0611DE0D4E9DE
:101B100008010844E169884205D3201D00F0FDFC5E
:101B20006069A06111E0D4E908010844A16A084491
:101B3000E169884202D3E06AA06106E00020E0612A
:101B4000206820F00200801C20602078C0F3400054
:101B500020B1206820F0010020600125E069401CD0
:101B6000E061284670BD014600200A7802F00102BB
:101B70004AB900220A60CA618A610A6822F0010239
:101B8000521C0A6000E001207047014600200A78DC
:101B900002F001026AB900220A60CA620A614A615F
:101BA0008A614A628A620A6822F00102521C0A6053
:101BB00000E001207047014600204B680A691A4482
:101BC0000A618B684A691A444A61CB688A691A4477
:101BD0008A61CA6A521CCA628B6BCA6A9A4231D144
:101BE000CB6A0A69B2FBF3F20A61CB6A4A69B2FBBB
:101BF000F3F24A61CB6A8A69B2FBF3F28A610B6B3A
:101C00000A699A4213D84B6B0A699A420FD30B6B3D
:101C10004A699A420BD84B6B4A699A4207D30B6BBD
:101C20008A699A4203D84B6B8A699A4205D20A683C
:101C300022F00402121D0A6004E00A6822F0020287
:101C4000921C0A600A78C2F340022AB10A6822F0A4
:101C500001020A60012008E00A78C2F3800222B182
:101C60000A6822F001020A600220704710B504469B
:101C700004F1A00000F004FCB4200059401CB42181
:101C80000851B420005980B99FED1F0A84ED600A05
:101C9000D4ED280AB0EE600A04F1A00000F064FC64
:101CA00094ED2C0A84EDC90A2DE0B4200159B82026
:101CB0000059814208D19FED150A84ED600A94ED28
:101CC0002C0A84EDC90A1EE0B8200159BC20005935
:101CD0000144B4200059814204D19FED0C0A84EDE7
:101CE000C90A10E0B8200159BC2000590144C020A5
:101CF00000590144B4200059814204D10021B4208C
:101D000001510120607010BD00004045000000003E
:101D100010B50446207900F00100E0B104F148005C
:101D2000FFF7CAFE01281AD104F14800FFF788FE28
:101D300020B1012803D002280BD105E00AE0FFF70B
:101D400039FA0420207005E0FFF734FA00202070F3
:101D500000E000BF03E0FFF72DFA0020207010BD67
:101D600010B50446207900F0010020B1FFF722FAF7
:101D70000020207003E004F17000FFF7F4FE10BDB6
:101D800010B50446012084F8440304F50F70FFF7F2
:101D9000B3FB94EDB10A84EDC80A94EDB20A84ED68
:101DA000C90A94ED370A84EDA30A94ED370AB1EE1F
:101DB000400A84EDA40A10BD10B5044604F5C070B5
:101DC000FFF70EFA04F5C070FFF761FB94ED740A9B
:101DD00084EDCA0A94ED750A84EDCB0A04F53570DA
:101DE000FFF7CCFA94EDCE0A84ED690A94EDCF0AA0
:101DF00084ED6A0A10BD000010B5044604F1E0004D
:101E0000FFF702FB04F5797090ED0C0AD4ED460A59
:101E100030EE200A84ED600A07E094ED600ADFED01
:101E20001E0A30EE600A84ED600A94ED600ADFED70
:101E30001A0AB4EEE00AF1EE10FAEEDC07E094EDD7
:101E4000600ADFED150A30EE200A84ED600A94ED99
:101E5000600AB5EEC00AF1EE10FAF0D304F5C070D6
:101E6000FFF7BEF904F5C070FFF711FB94ED740A9B
:101E700084EDCA0A94ED750A84EDCB0A04F5357039
:101E8000FFF77CFA94EDCE0A84ED690A94EDCF0A4F
:101E900084ED6A0A10BD0000DB0FC94010B504468E
:101EA000A06808B1002060602078034A52F8201032
:101EB0002046884710BD0000C00C002010B5044625
:101EC00004F59870FFF760FD94ED5D0A84ED600AFB
:101ED00004F5C070FFF784F99FED040A84ED690AE8
:101EE00094ED500A84ED6A0A10BD00000000000065
:101EF00010B50446207900F0010010B105202070D3
:101F000003E0FFF757F90020207010BD3EB50446EE
:101F1000207900F0010000284DD000BF0020009083
:101F20006A4601A902A8FFF739F9029820610198D1
:101F300060610098A06100BF04F10C00FFF725FE6E
:101F4000012835D104F10C00FFF735FE20B101283E
:101F500003D002282AD121E029E094ED070AB8EE47
:101F6000C00A84ED6E0A94ED080AB8EEC00A84ED4A
:101F70006F0A94ED090AB8EEC00A84ED700A94ED78
:101F80000C0AB8EEC00A84ED850A94ED0D0AB8EE8D
:101F9000C00A84ED860A0220207008E0A06820F0C4
:101FA0000100401CA0600020207000E000BF06E09F
:101FB000FFF700F903E0FFF7FDF8002020703EBDB9
:101FC00010B5044604F59870FFF730FDC82000599D
:101FD000401CC8210851CC210959884236D394EDC0
:101FE000AC0AD4ED340AB4EEE00AF1EE10FA2ADBC2
:101FF000C4200059401CC4210851D42109598842E9
:1020000024D30021C8200151C4200151D4EDC90AB4
:10201000B0EE600A04F50F7000F0F2F9D4EDAC0AEE
:10202000B0EE600A04F5217000F09EFA94ED490AC2
:1020300004F57970D0ED0C0A30EE600A84ED420AA6
:102040000220607002E00021C420015110BD10B5D3
:102050000446207900F0010010B10520207003E053
:10206000FFF7A8F80020207010BD10B504462079B5
:1020700000F0010020B304F1E000FFF7CDF904F512
:102080009870FFF7B5FC04F5C070FFF7A5FA04F5EA
:102090000F70FFF71BFA04F53570FFF75FF904F5D1
:1020A0005170FEF75BFE04F57970FEF7AFFF00207C
:1020B0006070206F20F0010020670120207001E097
:1020C000FFF778F810BD000010B50446207900F045
:1020D000010000283AD004F5C07000F041F804F582
:1020E000C070FFF717F994ED720A04F5797080ED6E
:1020F000120A94ED730A80ED130A94ED760A80EDCE
:10210000100A94ED770A80ED110AFEF751FE60780F
:10211000114A52F820102046884704F5C070FFF796
:1021200099F904F5C07000F05BF800BF0B48008C13
:1021300045F255510843094908840848443000884D
:1021400040F40040A1F8440000BF03E0FFF732F87C
:102150000620207010BD0000E80C002000000140A7
:102160003EB50446002000906A4601A902A8FFF788
:1021700015F89DED020AB8EEC00A84ED0B0A9DED3C
:10218000010AB8EEC00A84ED0C0A9DED000AB8EE13
:10219000C00A84ED0D0A94ED0E0AD4ED0B0A30EE60
:1021A000600AD4ED1E0A20EE200A84ED060A94EDA2
:1021B0000F0AD4ED0C0A30EE600AD4ED1E0A20EEB0
:1021C000200A84ED070A94ED100AD4ED0D0A30EED2
:1021D000600AD4ED1E0A20EE200A84ED080A3EBDF6
:1021E00010B52DED048B04469FED190AB0EE409A10
:1021F0001848FFF70DFA184890ED7F0AD0ED780ADD
:1022000020EE200AB0EE408A90ED7F0AD0ED790AE8
:1022100020EE200AF0EE408A90ED7F0AD0ED7A0A97
:1022200020EE200AB0EE409ABCEEC80A10EE100A6A
:10223000BCEEE80A10EE101ABCEEC90A10EE102A25
:10224000064B58639963DA6300BFBDEC048B10BD85
:1022500000000000C00900204008002000000140EC
:1022600010B50446207805280CD104F5797090ED5E
:102270000A0A84EDAC0A6078084A52F82010204619
:1022800088470AE02078062807D104F17000FFF79C
:1022900025FC012801D10020207010BDDC0C00209D
:1022A00070B5002100230F22C4781CB3174C24689A
:1022B00004F4E064C4F5E064C4F30721C1F104044C
:1022C000E3B20A4144789C40E1B28478144021434F
:1022D0000C07210E0E4C05786155047804F01F059B
:1022E0000124AC4005786D11AD0005F1E025C5F87D
:1022F000004109E0047804F01F050124AC40054DBD
:102300000678761145F8264070BD00000CED00E01F
:1023100000E400E080E100E002490143024A11606C
:10232000704700000000FA050CED00E0D0ED000A57
:1023300090ED011A70EEC10AB0EE600AD0ED050A08
:1023400090ED031A41EE000AC0ED050AD0ED050A32
:1023500090ED071AF4EEC10AF1EE10FA02D2D0EDB8
:10236000050A01E0D0ED070A90ED081AF4EEC10A63
:10237000F1EE10FA0EDDD0ED050A90ED071AF4EE3D
:10238000C10AF1EE10FA02D2D0ED050A04E0D0ED58
:10239000070A01E0D0ED080AC0ED050AD0ED050AF4
:1023A00090ED021A41EE000AC0ED060AD0ED060AD1
:1023B00090ED071AF4EEC10AF1EE10FA02D2D0ED58
:1023C000060A01E0D0ED070A90ED081AF4EEC10A02
:1023D000F1EE10FA0EDDD0ED060A90ED071AF4EEDC
:1023E000C10AF1EE10FA02D2D0ED060A04E0D0EDF7
:1023F000070A01E0D0ED080AC0ED060A70470000A8
:10240000DFED060AC0ED000ADFED040AC0ED010AA7
:1024100080ED050A80ED060A70470000000000000C
:1024200029B1064A12680243044B1A6004E0034AC9
:1024300012688243014B1A60704700003038024036
:1024400029B1064A12680243044B1A6004E0034AA9
:1024500012688243014B1A60704700004038024006
:1024600029B1064A12680243044B1A6004E0034A89
:1024700012688243014B1A607047000044380240E2
:1024800090ED010AD0ED040AB4EEE00AF1EE10FA84
:102490001ADD90ED040AD0ED020A30EE200AD0EDEC
:1024A000010AB4EEE00AF1EE10FA08D290ED040A47
:1024B000D0ED020A30EE200A80ED040A2CE090ED07
:1024C000010A80ED040A27E090ED010AD0ED040A2C
:1024D000B4EEE00AF1EE10FA1AD290ED040AD0ED53
:1024E000030A30EE200AD0ED010AB4EEE00AF1EE64
:1024F00010FA08DD90ED040AD0ED020A30EE600A11
:1025000080ED040A08E090ED010A80ED040A03E082
:1025100090ED010A80ED040A70470269416891421A
:102520000DDD8268016911444268914204DA8268D3
:1025300001691144016116E04168016113E002691B
:10254000416891420DDAD0E9032111444268914279
:1025500004DD82680169891A016104E04168016152
:1025600001E041680161704780ED040A7047016134
:10257000704700000CB500200190009033480068BF
:1025800040F480303149086000BF3048006800F4F2
:10259000003000900198401C0190009818B90198F3
:1025A000B0F5A04FF1D12948006800F4003010B117
:1025B0000120009001E0002000900098012844D103
:1025C00022484030006840F0805020494031086087
:1025D0001F48006840F440401D4908601B4808300F
:1025E00000681A4908310860084600680860084613
:1025F000006840F4A05008601648091F0860081FD2
:10260000006840F08070091F086000BF0F48006834
:1026100000F000700028F9D040F205700E49086003
:102620000A480830006820F00300084908310860B3
:102630000846006840F00200086000BF0348083008
:10264000006800F00C000828F8D10CBD00380240EA
:102650000070004008544007003C024030B5134968
:10266000481EB0F1807F01D301201BE0481E4FF0CF
:10267000E022506150170F22002807DA13071D0EC1
:102680000B4B00F00F04241F1D5503E013071C0E15
:10269000084B1C5400BF00204FF0E022906107203F
:1026A0001061002008B100BFFEE730BD409002007D
:1026B00018ED00E000E400E010B5054800F05AF91C
:1026C000034800F093F80348FFF7CAFD10BD00006F
:1026D0001C0D00204008002010B51548006840F48B
:1026E0007000134908601348006840F00100114968
:1026F000086000200F49083108600E4800680E4944
:1027000008400C4908600D48091D0860081F006852
:1027100020F48020091F0860002006490C31086061
:10272000FFF728FF4FF0006001498039086010BDB5
:1027300088ED00E000380240FFFFF6FE1030002474
:1027400010B50446207900F0010088B1FEF79EF92B
:1027500008490861FEF7A2F9064988612146054843
:10276000FEF76AFA00BF00BF606820F001006060F9
:1027700010BD0000F40C002010B52DED028B0446B6
:10278000002008EE100A1848806C08EE100AB8EE17
:10279000480A84ED030A002008EE100AB8EE480A41
:1027A00084ED060A40F6FF7008EE100AB8EE480AFB
:1027B00084ED090A002008EE100AB8EE480A84EDFC
:1027C0000C0A04F10C00FEF759FC04F11800FEF7A6
:1027D00055FC04F12400FEF751FC04F13000FEF733
:1027E0004DFCBDEC028B10BD0020014010B504462D
:1027F0002046FFF7C1FFB7EE000A414880EDAA0A64
:1028000080ED470A80ED5B0A00BFD4ED140A94ED19
:10281000041A20EE810A80ED640AF7EE000A80EEC9
:10282000801A80ED651A80EDAD0A80EDC70A00BF01
:10283000D4ED0F0A9FED331A20EE810ADFED320A44
:1028400060EE200A9FED311AC0EE811AC0EDAB1A7E
:1028500000BF00BF806820B1A06820F00100401CCC
:10286000A060607830B1012812D002281CD0032863
:1028700033D125E0A06D401CA065616D884206D370
:102880000020A065204600F043F80120607025E09C
:10289000A06810B10320607005E02079C0F340000B
:1028A00008B10220607019E0A06810B103206070C8
:1028B00005E02079C0F3400008B9012060700DE008
:1028C0002079C0F3400038B90020A06000BF0C4957
:1028D000886000BF0120607000E000BF00BF60782A
:1028E000022805D100BF01200549486000BF05E06E
:1028F00000BF00200249486000BF00BF10BD0000BB
:102900004008002000006145DB0FC9410000704213
:1029100010B52DED028B0446002008EE100A144875
:10292000806C08EE100AB8EE480A04F10C00FEF7BD
:10293000B8FB002008EE100AB8EE480A04F11800AF
:10294000FEF7AFFB40F6FF7008EE100AB8EE480A3B
:1029500004F12400FEF7A5FB002008EE100AB8EEF3
:10296000480A04F13000FEF79CFBBDEC028B10BD61
:10297000002001400178491CC9B201700A2910D316
:1029800000210170017901F0010129B9416821F0AC
:102990000101491C416004E0816821F00201891CA9
:1029A0008160704710B580210C4800F040F800BFEE
:1029B00000200A4948638863C8630846008C4AF6C9
:1029C000AA21084005490884044844300088C0F31F
:1029D0000E00A1F8440000BF10BD0000000001403F
:1029E00010B50121880700F043F818B101218807CC
:1029F00000F01DF810BD21B1028842F08002028073
:102A000004E002884FF67F731A40028070470A88FC
:102A10004B881A438B881A43CB881A430B891A4375
:102A20004B891A438B891A43A0F844207047CA4344
:102A300002827047CA430282704721B1028842F085
:102A40000102028004E002884FF6FE731A40028001
:102A5000704731B1B0F8442042F40042A0F844205D
:102A600005E0B0F84420C2F30E02A0F844207047FD
:102A700002460020138A0B400BB1012000E0002029
:102A800070471AB183890B43838102E083898B43AA
:102A90008381704770B5002400220023058C4FF617
:102AA000FE7635400584028C8388048B4FF68F7543
:102AB0002C40B51E2C400D882C43751E2A408D8954
:102AC0002A434D882A43104DA84202D00F4DA842F8
:102AD00013D14FF6F7752A40CD892A434FF6FB757F
:102AE0002A408D882A434FF6FF652B404FF6FF554D
:102AF0002B400D8A2B434D8A2B43838004838D68A2
:102B00004563028470BD00000000014000040140E4
:102B100070B5002400220023058C4FF6EF76354077
:102B20000584028C8388048B48F6FF752C404FF691
:102B3000FF452C400D884FF6FF7606EA05252C430D
:102B40004FF6DF752A408D8906EA05152A434D8820
:102B500006EA05152A43154DA84202D0144DA84295
:102B60001DD14FF67F752A40CD894FF6FF7606EAD4
:102B700005152A434FF6BF752A408D8806EA0515CC
:102B80002A434FF6FF352B404FF2FF752B400D8A3D
:102B900006EA85052B434D8A06EA85052B4383808B
:102BA00004838D688563028470BD000000000140CD
:102BB0000004014070B5002400220023058C4FF66C
:102BC000FF6635400584028C8388848B4FF68F75B1
:102BD0002C404FF6FC752C400D882C434FF6FF55CA
:102BE0002A408D894FF6FF7606EA05252A434D884F
:102BF00006EA05252A43154DA84202D0144DA842E5
:102C00001DD14FF2FF752A40CD894FF6FF7606EAB7
:102C100005252A434FF6FF352A408D8806EA05250B
:102C20002A434EF6FF752B404DF6FF752B400D8A5B
:102C300006EA05152B434D8A06EA05152B438380CA
:102C400084838D68C563028470BD0000000001406C
:102C50000004014070B5002200230024058C4EF6CC
:102C6000FF7635400584038C8488828B48F6FF7597
:102C70002A404FF6FF452A400D884FF6FF7606EAB8
:102C800005252A434DF6FF752B408D8906EA05354B
:102C90002B434D8806EA05352B430A4DA84202D046
:102CA000094DA84208D14BF6FF752C400D8A4FF60E
:102CB000FF7606EA85152C43848082838D6805643F
:102CC000038470BD000001400004014082884FF67B
:102CD0008F731A40828082880A4382807047000086
:102CE00000220288184B98420ED0184B98420BD005
:102CF000B0F1804F08D0164B984205D0154B984242
:102D000002D0154B984204D14FF68F731A404B886E
:102D10001A43124B984207D0114B984204D04FF6F9
:102D2000FF431A400B891A4302804B68C3620B8829
:102D30000385054B984202D0044B984201D18B7A0F
:102D40000386012383827047000001400004014094
:102D50000004004000080040000C0040001000404B
:102D60000014004072B6FDF7A7FCFDF713FDFDF758
:102D7000DFFCFDF73DFCFDF7D3FEFDF745FFFDF75A
:102D800095FE62B600BF0248FFF7DAFCFBE70000E1
:102D90001C0D00204FF04070E1EE100A704700005B
:102DA000C02D000800000020780D0000C4010008BC
:102DB000AC350008780D00206006000028020008ED
:102DC00092000100FF00920E493CB10AC93C2BC39E
:102DD000163D2EFB483D752B7B3D04A9963D80B6E4
:102DE000AF3D36BDC83D2FBCE13D73B2FA3D87CF44
:102DF000093E8340163EB5AB223EA2102F3ECF6E59
:102E00003B3EC2C5473E0115543E135C603E7F9A6F
:102E10006C3ECCCF783EC07D823E938E883E229A17
:102E20008E3E32A0943E86A09A3EE59AA03E128F36
:102E3000A63ED47CAC3EEF63B23E2A44B83E491D68
:102E4000BE3E15EFC33E53B9C93ECA7BCF3E4136A5
:102E5000D53E80E8DA3E4F92E03E7533E63EBBCB8E
:102E6000EB3EEA5AF13ECBE0F63E275DFC3EE4E75E
:102E7000003F3D9C033F824B063F9BF5083F6B9A0A
:102E80000B3FDA390E3FCDD3103F2A68133FD9F6F6
:102E9000153FC07F183FC6021B3FD17F1D3FCBF6B9
:102EA0001F3F9967223F25D2243F5636273F15946E
:102EB000293F4AEB2B3FDE3B2E3FBB85303FC9C845
:102EC000323FF30400FF00353F233A373F42683971
:102ED0003F3B8F3B3FF9AE3D3F67C73F3F70D84117
:102EE0003F01E2433F03E4453F65DE473F12D149DE
:102EF0003FF8BB4B3F029F4D3F207A4F3F3D4D5126
:102F00003F4918533F31DB543FE595563F534858EE
:102F10003F6AF2593F1A945B3F532D5D3F05BE5EF9
:102F20003F2146603F97C5613F5A3C633F59AA64C1
:102F30003F880F663FD86B673F3CBF683FA7096A71
:102F40003F0C4B6B3F5E836C3F93B26D3F9ED86EE0
:102F50003F73F56F3F0809713F5213723F47147377
:102F60003FDD0B743F0BFA743FC6DE753F07BA7640
:102F70003FC58B773FF853783F9812793F9DC779CB
:102F80003F02737A3FBE147B3FCDAC7B3F283B7C36
:102F90003FC9BF7C3FAC3A7D3FCCAB7D3F23137E26
:102FA0003FB0707E3F6DC47E3F580E7F3F6D4E7FB9
:102FB0003FAB847F3F0FB17F3F97D37F3F43EC7F91
:102FC0003F11FB7F3F3004000080082110211821B1
:102FD0002021282130313842C44821502158216015
:102FE000216821702178218021882190219821A0B9
:102FF00021A821B021B821C021C821D021D821E0A9
:1030000021E821F021F82500250825102518252084
:103010002528253025382540254825502558256068
:10302000256825702578258025882590259825A058
:1030300025A825B025B825C025C825D025D825E048
:1030400025E825F025F82900290829102918292024
:103050002928293029382940294829502958296008
:10306000296829702978298029882990299829A0F8
:1030700029A829B029B829C029C829D029D829E0E8
:1030800029E829F029F82D00032D08032D10032D20
:1030900018032D20032D28032D30032D38032D4038
:1030A000032D48032D50032D58032D60032D680375
:1030B0002D70032D78032D80032D88032D90032D73
:1030C00098032DA0032DA8032DB0032DB8032DC008
:1030D000032DC8032DD0032DD8032DE0032DE803C5
:1030E0002DF0032DF8035D000412BC1012BC181E55
:1030F000BD000412BD281EBD00041EBD000412BD8B
:10310000401EBD00041EBD00041EBD00041EBE0006
:10311000041EBE00041EBE00041EBE000412BE80BB
:1031200012BE881EBE00041EBE00041EBE00041295
:10313000BEA812BEB012BEB81EBE00041EBE000461
:1031400012BED012BED81EBE000412BEE812BEF0DF
:1031500012BEF81EBE00041EBE000416BE1016BE2F
:10316000181EBE000416BE281EBE00041EBE0004AB
:103170001EBE000416BE481EBE00041EBE0004167D
:10318000BF601EBF000416BF701EBF00041EBF003C
:103190000416BF881EBF00041EBF000416BFA01E79
:1031A000BF00041EBF000416BFB816BFC016BFC8BC
:1031B00016BFD016BFD81EBF00041EBF000416BF26
:1031C000F01EBF00041ABF001ABF081EBF00041E75
:1031D000BF00041EBF00041ABF281ABF301ABF3830
:1031E0001EBF00041EBF00041EBF00041ABF581AF1
:1031F000BF601EBF00041EBF00041ABF781EBF00C0
:10320000041EBF00041ABF901ABF981ABFA01ABFAD
:10321000A81ABFB01EBF00041EBF00041ABFC81EFC
:10322000BF00041EBF00041ABFE01ABFE81ABFF0B7
:103230001ABFF81EBF00041EBF00041EBF10031EED
:10324000BF18031EBF20031EBF00041EBF00041EC4
:10325000BF38031EBF40031EBF48031EBF50031EDE
:10326000BF00041EBF60031EBF68031EBF70031EA5
:10327000BF00041EBF00041EBF88031EBF90031EB4
:10328000BF00041EBF00041EBFA8031EBFB0031E64
:10329000BF00041EBFC0031EBFC8031EBF00041E24
:1032A000BFD8031EBFE0031EBF00041EBFF0031EF5
:1032B000BFF8031EBF00043108211021182120216E
:1032C000282130313842C4482150215821602168DA
:1032D00021702178218021882190219821A021A886
:1032E00021B021B821C021C821D021D821E021E876
:1032F00021F021F82500250825102518252025284E
:103300002530253825402548255025582560256835
:1033100025702578258025882590259825A025A825
:1033200025B025B825C025C825D025D825E025E815
:1033300025F025F8290029082910291829202928ED
:1033400029302938294029482950295829602968D5
:1033500029702978298029882990299829A029A8C5
:1033600029B029B829C029C829D029D829E029E8B5
:1033700029F029F82D00032D08032D10032D180323
:103380002D20032D28032D30032D38032D40032D30
:1033900048032D50032D58032D60032D68032D7015
:1033A000032D78032D80032D88032D90032D980382
:1033B0002DA0032DA8032DB0032DB8032DC0032D80
:1033C000C8032DD0032DD8032DE0032DE8032DF0E5
:1033D000032DF8031DFF073E8005081006010000BD
:1033E0000202052007000201010002072202142147
:1033F0000B12010B11063202113301021F013A01B7
:10340000000A19150700008505000014241232284F
:103410001E0A9C08138813094E08A8081C0A3303C7
:1034200000006606000051B404AC05AFFFFFFFC406
:10343000085E64CC0822C8616E10DA081007A0404C
:103440000BD7A33B0462BB1283F401046D00092176
:10345000645006DD7EBC4232244005DB0F49401A31
:10346000100780406F12833A0462BA401009D253A9
:10347000FB422FE34D3C04AEBC4409E12861C85037
:103480000818B751380000405012005012032802AB
:10349000460350016301001542D7A3703F8FC275E8
:1034A0003D0AD7233DC20DDC3B0040034658C4090A
:1034B000AF4CD93AD5E22639FA13204104022AC189
:1034C000A025B011040236C0E015FC1244046EC4FD
:1034D000100B00091A8CFFBC3F969FE73DBC0122F0
:1034E00024011AB4A805DAAC2A3FF0A409222DCC95
:1034F00047CD0C4545201005949E6B46046AC62CAA
:1035000004054ACDCC4C3DD8299C18052882984901
:103510005084163FEC51B83EFBED6B39566A763954
:103520004512BD3BFBA30B386000075EC942590B37
:1035300042409C21901C089A999940A69BC49808E7
:10354000634041941408587380398EE38A1C2C0719
:10355000C8445C0BB6BD200310126B2000080D1F81
:103560000008F11E0008111D00084F1012C90412B6
:10357000610C10066D1C0008C11C12810C12B904EC
:1035800012BD2412F92411401009420000484200E3
:10359000806D4C0F2A48430403A1E001220CAD9C2E
:0C35A000044C07510AA53CE803B20300EC
:040000050800018965
:00000001FF
