:020000040800F2
:100000007816002071020008790200087B020008BF
:100010007D0200087F020008810200080000000045
:100020000000000000000000000000008302000843
:10003000850200080000000087020008D93200088D
:100040008B0200088B0200088B0200088B0200085C
:100050008B0200088B0200088B0200088B0200084C
:100060008B0200088B0200088B0200088B0200083C
:100070008B0200088B0200088B0200088B0200082C
:100080008B0200088B020008B90300088B020008ED
:100090008B0200088B0200088B0200088B0200080C
:1000A000E13500088B0200088B0200088B02000873
:1000B0001D3600088B0200088B0200088B02000826
:1000C0008B0200088B0200088B0200088B020008DC
:1000D0008B0200088B0200088B0200088B020008CC
:1000E0008B0200088B0200088B0200088B020008BC
:1000F0008B0200088B0200088B0200088B020008AC
:100100008B0200088B0200088B0200088B0200089B
:100110008B0200088B0200088B0200088B0200088B
:100120008B0200088B0200088B0200088B0200087B
:100130008B0200088B0200088B0200088B0200086B
:100140008B0200088B0200088B0200088B0200085B
:100150008B0200088B0200088B0200088B0200084B
:100160008B0200088B0200088B0200088B0200083B
:100170008B0200088B0200088B0200088B0200082B
:100180008B0200088B02000800F002F800F060F813
:100190000AA090E8000C82448344AAF10107DA45E2
:1001A00001D100F055F8AFF2090EBAE80F0013F0D4
:1001B000010F18BFFB1A43F0010318471039000064
:1001C0003039000010F8013B0A4413F0030408BF63
:1001D00010F8014B1D1108BF10F8015B641E05D01B
:1001E00010F8016B641E01F8016BF9D1002D15D0D8
:1001F00010F8014B03F00C030C2BA1EB04040ABF15
:1002000010F8013BA4EB8314A4EB032405F10103D4
:1002100014F8016B5B1E01F8016BF9D5914238BFF0
:1002200010F8013BD1D3704700230024002500269D
:10023000103A28BF78C1FBD8520728BF30C148BF49
:100240000B6070471FB503F03BFC1FBD10B510BD20
:1002500000F037F81146FFF7F5FF03F019FC00F046
:1002600055F803B4FFF7F2FF03BC00F059F80000A3
:100270000948804709480047FEE7FEE7FEE7FEE73A
:10028000FEE7FEE7FEE7FEE7FEE7FEE70448054976
:10029000054A064B70470000F93200088901000842
:1002A00078100020781600207812002078120020A4
:1002B00070477047704700000048704718100020D2
:1002C00070477546FFF7F8FFAE460500694653468E
:1002D00020F00700854618B020B5FFF7D7FFBDE82E
:1002E00020404FF000064FF000074FF000084FF09D
:1002F000000B21F00701AC46ACE8C009ACE8C0092E
:10030000ACE8C009ACE8C0098D46704710B504469A
:10031000AFF300802046BDE81040FFF7A2BF000009
:1003200001491820ABBEFEE726000200CA43026066
:10033000704700220A12D3430360704721B18268DC
:1003400042F00102826003E0826822F001028260D2
:10035000704700000021084A1168084A1140D0E99E
:1003600000231A4383681A43C3681A431143044A9B
:10037000C2F804137047000004230140E030FCFF82
:10038000002001400A460021816821F470211143B8
:10039000816070470A460021816821F440111143B1
:1003A000816070470246002013680B400BB10120AA
:1003B00000E000207047000010B504210548FFF759
:1003C000F1FF30B104210348FFF7B0FF024802F00B
:1003D00075F910BD002001404008002010B50B4603
:1003E0000021D9B2012404FA01F11AB144680C4386
:1003F000446002E044688C43446010BD30B502465E
:10040000002000235068104C20400D790C6844EA0D
:1004100005242043506090680C4C2040D1E90354DF
:100420002C438D682C434D7944EA45042043906069
:10043000D06A20F470000C7D641EE4B2234340EACD
:100440000350D06230BD0000FFFEFFFCFDF7FFC08F
:10045000F0B504461546002000220026092911DDCA
:10046000E068A1F10A0707EB470C072707FA0CF22F
:100470009043A1F10A0707EB470703FA07F210437D
:10048000E0600CE0206901EB410C072707FA0CF251
:10049000904301EB410703FA07F210432061A06B80
:1004A000C0F30156EF1C06F1010CA7EB0C0707EB9C
:1004B000870C1F2707FA0CF29043EF1C06F1010C82
:1004C000A7EB0C0707EB870701FA07F21043A063BD
:1004D000F0BD21B1426842F48052426003E04268BC
:1004E00022F480524260704710B50A460021002372
:1004F000816B21F44011531E41EA0351816310BD09
:10050000F0B504460D4600200021092D11DDE068FC
:10051000A5F10A0606EB4607072606FA07F1884307
:10052000A5F10A0606EB460603FA06F10843E06069
:100530000CE0206905EB4507072606FA07F188431A
:1005400005EB450603FA06F108432061072A0FDA96
:10055000606B561E06EB86071F2606FA07F18843D6
:10056000561E06EB860605FA06F10843606322E094
:100570000D2A0FDA206BD61F06EB86071F2606FA18
:1005800007F18843D61F06EB860605FA06F10843F5
:10059000206310E0E06AA2F10D0606EB86071F2635
:1005A00006FA07F18843A2F10D0606EB860605FA66
:1005B00006F10843E062F0BD816841F0804181604E
:1005C0007047000038B10849096841F40001074A42
:1005D000C2F8041306E00449096821F40001034A43
:1005E000C2F80413704700000423014000200140BA
:1005F00000B58BB00120FFF7E5FF002009900790C0
:1006000008900A9007A8FFF7A5FE0020019001209E
:100610008DF808008DF80900002003900590012056
:100620008DF8180001A92348FFF7E8FE04230122F2
:1006300000212048FFF764FF04211E48FFF754FF04
:1006400001231A4608211B48FFF702FF012302225B
:1006500006211848FFF7FCFE012303221146154826
:10066000FFF7F6FE0123042209211248FFF7F0FEEE
:1006700000211048FFF72DFF4FF400110D48FFF740
:1006800089FE4FF480310B48FFF77CFE40F20741B2
:100690000848FFF74EFE012240F207410548FFF7E8
:1006A0009DFE01210348FFF749FE0248FFF784FF42
:1006B0000BB000BD0020014010B502F0DFFD0121AC
:1006C000084602F081FC0121022002F07DFC01219C
:1006D000042002F079FC0121082002F075FC0121C0
:1006E000102002F071FC0121202002F06DFC01219C
:1006F000402002F069FC0121802002F065FC01210C
:10070000080202F061FC0121084602F06DFC0121A3
:10071000C80202F069FC0121084602F075FC0121C3
:10072000080202F071FC0121880302F06DFC10BD8B
:1007300000B58FB000BF154800F0FBFA0028FAD1D1
:100740000090019012480290002003900120049034
:10075000002005904FF480600690400007908000D4
:10076000089000010A904012099000200B9001208F
:100770000C9000200D900E906946044800F0E4FAB9
:100780000121024800F0CAFA0FB000BD1064024017
:10079000000000201CB54FF48061B74801F0E8F874
:1007A0001020009000208DF8040001208DF8070033
:1007B0006946B24801F065F84FF48060009001206E
:1007C0008DF804008DF8070000208DF805006946BB
:1007D000A94801F056F8012000908DF8040002208D
:1007E0008DF8070000208DF805006946A34801F048
:1007F00048F80220009001208DF8040002208DF8B6
:10080000070000208DF8050069469C4801F039F882
:1008100001219A4801F0A9F80221984801F0A5F8B1
:100820000420009000208DF8040001208DF80700BE
:100830006946924801F025F80820009000208DF8C4
:10084000040001208DF8070069468C4801F019F872
:100850001020009000208DF8040001208DF8070082
:100860006946864801F00DF803208DF80400012048
:10087000009000208DF807006946814801F001F8DA
:1008800003208DF804004020009000208DF8070020
:1008900069467C4800F0F5FF03208DF8040008202D
:1008A000009000208DF807006946764800F0E9FFC7
:1008B00003208DF804000220009000208DF807002E
:1008C00069466F4800F0DDFF02208DF8040000202B
:1008D0008DF806004FF48070009000208DF807001E
:1008E00003208DF805006946664800F0CAFF022023
:1008F0008DF8040000208DF806004FF40070009081
:1009000000208DF8070003208DF8050069465D483A
:1009100000F0B7FF02208DF8040000208DF80600DB
:100920004FF48060009000208DF8070003208DF8C0
:1009300005006946534800F0A4FF02208DF804002A
:1009400000208DF806004FF40050009000208DF834
:10095000070003208DF805006946494800F091FF23
:1009600002208DF8040000208DF806004FF480402E
:10097000009000208DF8070003208DF805006946DF
:100980003F4800F07EFF02208DF8040000208DF823
:1009900006004FF40040009000208DF8070003206F
:1009A0008DF805006946364800F06BFF00208DF891
:1009B000040001208DF806000003009000208DF84F
:1009C000070003208DF8050069462D4800F059FF07
:1009D000012208212B4800F09CFF0122092129480F
:1009E00000F097FF01220A21264800F092FF012221
:1009F0000D21234800F08DFF01220E21204800F038
:100A000088FF01220F211E4800F083FF01220C21E4
:100A10001B4800F07EFF4FF48060009000208DF8AE
:100A2000040003208DF8050000208DF807006946BA
:100A3000154800F026FF4FF40060009000208DF86C
:100A4000040003208DF8050000208DF8070069469A
:100A50000D4800F016FF4FF48050009000208DF8F4
:100A6000040003208DF8050000208DF8070069467A
:100A7000054800F006FF1CBD0014024000100240B3
:100A80000004024000000240001C024010B5042196
:100A9000014800F061FF10BD0010024010B50821B0
:100AA000014800F059FF10BD0010024038B54FF06A
:100AB000FF300521002807DA0A07140E164A00F055
:100AC0000F031B1FD45403E00A07130E134A1354D9
:100AD00000BF4FF4A06002F0F3F912208DF800007F
:100AE00003208DF8010000208DF8020001208DF810
:100AF0000300684602F0A8F918208DF800000020D5
:100B00008DF801008DF8020001208DF80300684681
:100B100002F09AF938BD000018ED00E000E400E0B2
:100B200000B58DB00121374802F0A5FD4FF40070EB
:100B3000ADF830002020ADF82A000020ADF82800E4
:100B400001208DF8320041F281400B900AA92D4816
:100B500002F0E4FE7020ADF814000120ADF816009C
:100B60000420ADF8180000200790ADF82000ADF883
:100B70002200ADF82400ADF8260005A9214802F0B6
:100B8000A7FD05A91F4802F0E1FD05A91D4802F0D7
:100B90002FFE5420079005A91A4802F079FE702113
:100BA000184802F0B1FE4FF40060ADF804004010A8
:100BB000ADF806000020ADF808001520ADF80A00D9
:100BC0004FF48050ADF80C004000ADF80E0000204E
:100BD000ADF8100001A90B4802F037FD802109484B
:100BE00002F046FD01228021064802F068FD012145
:100BF000044802F01EFD0121024802F048FD0DB03C
:100C000000BD0000000001400EB54FF40070ADF8CB
:100C100008000020ADF80200ADF800008DF80A00D1
:100C2000401E019069464FF0804002F077FE01219E
:100C3000880702F020FD0EBD30B500220A6B0B794B
:100C4000C3F3400353B94369ABB98369012B12D194
:100C50004B6823F002039B1C4B600CE00B79C3F341
:100C6000400343B1C36933B9036A012B03D14B6815
:100C700023F002034B6043698361C36903628368A5
:100C8000934201D2826803E0C368934200D9C268EC
:100C9000D0E90343141B6343D0E90245641BB3FB53
:100CA000F4F3CB6430BD000010B504466078022830
:100CB00010D1207AC0F3800060B92146094800F0C5
:100CC00017F82146084800F013F82146074800F0BD
:100CD0000FF806E000200349886003498860034953
:100CE000886010BD3C0F0020480F0020540F0020EA
:100CF0000A6D03689A420BD38268521C8260436873
:100D00009A420AD38A6822F00402121D8A6004E023
:100D1000826812B18268521E8260704721B10268F7
:100D200042F00102026003E0026822F00102026068
:100D30007047014600200A6802F001020AB1012052
:100D400000E000207047000010B500220268134B3D
:100D50001A40CC680B6823434C6923438C692343B6
:100D6000CC6923430C6A23434C6A23438C6A234394
:100D70004C6B23438C6B23431A430260426922F07D
:100D80000702D1E90B3423431A4342610B694360E4
:100D90004B6883608B68C36010BD00003F801CF00F
:100DA00010B504469FED110A204602F0FDF89FEDB4
:100DB0000F0A04F1240000F05DFD9FED0C0A84EDA4
:100DC0000C0AB7EE000A84ED0D0A9FED080A84EDC7
:100DD0000E0A9FED060A84ED0F0A94ED220A84EDB7
:100DE0001B0A9FED020A84ED1C0A10BD00000000E2
:100DF00010B504469FED270A204602F0D5F89FED76
:100E0000250A04F1240000F035FD9FED220A84ED4F
:100E10000C0AB7EE000A84ED0D0A9FED1E0A84ED60
:100E20000E0A9FED1C0A84ED0F0A00202065606504
:100E3000A065E065D4E92501B0FBF1F0400820662B
:100E4000B7EE000A84ED190A9FED120A84ED1A0A22
:100E50009FED100A84ED1B0A9FED0E0A84ED1C0A1B
:100E60009FED0C0A84ED1D0A9FED0A0A84ED1E0A0F
:100E70009FED080A84ED1F0A9FED060A84ED200A03
:100E80009FED040A84ED210A9FED020A84ED220AF7
:100E900010BD00000000000010B504469FED110ACF
:100EA000204602F081F89FED0F0A04F1240000F0C3
:100EB000E1FC9FED0C0A84ED0C0AB7EE000A84ED0C
:100EC0000D0A9FED080A84ED0E0A9FED060A84EDD7
:100ED0000F0A9FED040A84ED1A0A9FED020A84EDC1
:100EE0001B0A10BD0000000010B50446A06A10B136
:100EF000A06A012810D194ED0C0A84ED040A04F1D3
:100F0000100000F094FC94ED0D0A84ED070A04F142
:100F10001C0000F08CFC0EE1A06A032802D0A06A3D
:100F2000042872D1E06F401CE067D4E91F018842B9
:100F300079D10020E06794ED1B0AD4ED260A30EE4B
:100F4000200AF6EE000A20EE200A84ED220A94ED33
:100F50001B0AD4ED260A30EE600AF6EE000A20EEF7
:100F6000200AD4ED210A20EE200A84ED240A94ED13
:100F70001C0AD4ED270A30EE200AF6EE000A20EE15
:100F8000200A84ED230A94ED1C0AD4ED270A30EEE2
:100F9000600AF6EE000A20EE200AD4ED210A20EEC7
:100FA000200A84ED250A94ED1B0A84ED260A94EDAF
:100FB0001C0A84ED270A94ED220A84ED280A94ED98
:100FC000230A84ED290AD4ED240A60EEA00A94EDE8
:100FD000251AD4ED251A41EE210AB0EE600A00F080
:100FE0005BFD84ED040A04F1100000F020FC94ED98
:100FF000210AF7EE000AB4EE600AF1EE10FA05D10C
:10100000BFEE000A84ED210A0DE015E094ED210AFF
:10101000FFEE000AB4EE600AF1EE10FA03D1B7EE6B
:10102000000A84ED210A94ED210AD4ED370A20EE5E
:10103000200A84ED2A0A7EE0A06A06287BD194ED7E
:101040002B0AD4ED3C0AF1EE600A94ED1B1A00EE77
:10105000810A84ED2D0A94ED2C0AD4ED3C0AF1EEC0
:10106000600A94ED1C1A00EE810A84ED2E0A94EDBC
:101070002F0AD4ED2D0A30EE200AD4ED310A30EEDD
:10108000600AD4ED3B0A20EE200A84ED2F0A94ED8D
:10109000300AD4ED2E0A30EE200AD4ED320A30EEBA
:1010A000600AD4ED3B0A20EE200A84ED300A94ED6C
:1010B0002D0A84ED310A94ED2E0A84ED320A94ED66
:1010C000330AD4ED150A94ED2F1A00EE810A84ED4F
:1010D000330A94ED340AD4ED150A94ED301A00EE7B
:1010E000810A84ED340A94ED330AD4ED3F0A94ED7D
:1010F0001B1A00EEC10A84ED350A94ED340AD4EDD2
:101100003F0A94ED1C1A00EEC10A84ED360AD4EDB4
:10111000350A60EEA00A94ED361AD4ED361A41EE87
:10112000210AB0EE600A00F0B7FC84ED040A04F175
:10113000100000F07CFB10BD10B504460020A0623A
:10114000E0629FED3F0A04F1100000F093FB9FED79
:101150003C0A04F11C0000F08DFB9FED390A683455
:1011600004ED1A0AB7EE000A04ED190A9FED340ADD
:1011700004ED180A9FED320A04ED170A9FED300ABC
:1011800004ED0C0A9FED2E0A04ED0B0A9FED2C0ACC
:1011900004ED0A0A9FED2A0A04ED090A9FED280AC8
:1011A00084ED030A9FED260A84ED040A00206061A5
:1011B000D4E91E01B0FBF1F04008A061B7EE000ACF
:1011C00084ED070A9FED1E0A84ED080A9FED1C0AB4
:1011D00084ED090A9FED1A0A84ED0A0A9FED180AA8
:1011E00084ED0B0A9FED160A84ED0C0A9FED140A9C
:1011F00084ED0D0A9FED120A84ED0E0A9FED100A90
:1012000084ED0F0A9FED0E0A84ED100A9FED0C0A83
:1012100084ED150A9FED0A0A84ED160A9FED080A6F
:1012200084ED170A9FED060A84ED180A9FED040A63
:1012300084ED190A9FED020A84ED1A0A683C10BD7C
:101240000000000010B50446A06A78BB94ED160AB1
:1012500084ED120AE06A401CE062216EE06A884276
:1012600025D1D4ED0E0A94ED180AB8EE400A80EEAE
:10127000801A84ED0E1AD4ED0F0A94ED180AB8EE18
:10128000400A80EE801A84ED0F1A9FED990A04F14E
:10129000100000F0EFFA9FED960A04F11C0000F038
:1012A000E9FA0120A0620020E0621FE110E094ED65
:1012B0000E0AD4ED050A30EE200A84ED0E0A94EDF4
:1012C0000F0AD4ED080A30EE200A84ED0F0A0DE172
:1012D000A06A012850D194ED170A84ED120AE06A41
:1012E000401CE062216EE06A884234D1D4ED100ADD
:1012F00094ED180AB8EE400A80EE801A84ED101AB8
:10130000D4ED110A94ED180AB8EE400A80EE801A66
:1013100084ED111A94ED100AD4ED0E0A30EE600A35
:10132000D4ED110A94ED0F1A70EEC10A80EE201A66
:1013300084ED3C1A9FED6E0A04F1100000F09AFA59
:101340009FED6B0A04F11C0000F094FA0220A062E9
:101350000020E062CAE094ED100AD4ED050A30EEF8
:10136000200A84ED100A94ED110AD4ED080A30EE3B
:10137000200A84ED110AB9E0A06A02280BD1E06AC4
:10138000401CE062E06AB0F57A7F8ED10320A06253
:101390000020E062AAE0A06A032836D1E06A401C7F
:1013A000E062616EE06A884226D1D4ED1D0A94EDB8
:1013B000190AB8EE400A80EE801A84ED1D1A94EDE9
:1013C000390AB8EE400ADFED4B0A20EE200AD4EDD0
:1013D0001D0A20EE200AD4ED370A80EE801A84ED33
:1013E0003D1A9FED430A04F1100000F043FA042077
:1013F000A0620020E06279E094ED1D0AD4ED050AB8
:1014000030EE200A84ED1D0A70E0A06A042846D15F
:1014100094ED160A84ED120AE06A401CE062616EE7
:10142000E06A884232D1D4ED1E0A94ED190AB8EE72
:10143000400A80EE801A84ED1E1A94ED390AB8EE47
:10144000400ADFED2C0A20EE200AD4ED1E0A20EE21
:10145000200AD4ED370A80EE801A84ED3E1A94ED0E
:101460003D0AD4ED3E0A30EE200AF6EE000A20EEE8
:10147000200A84ED3F0A9FED1E0A04F1100000F0DF
:10148000F9F90520A0620020E0622FE094ED1E0A29
:10149000D4ED050A30EE200A84ED1E0A26E0A06A8B
:1014A00005280BD1E06A401CE062E06AB0F57A7F63
:1014B0001CD10620A0620020E06217E0A06A062886
:1014C00014D1E06A401CE062A16EE06A88420DD14E
:1014D00094ED050A84ED400A9FED050A04F1100021
:1014E00000F0C8F90720A0620020E06210BD0000F3
:1014F0000000000000007A4510B5044694ED240A6F
:10150000B1EE400AD4ED150A20EE200AD4ED0A0A05
:1015100094ED251A60EE810A94ED161A00EEC10AC8
:10152000D4ED230A94ED111A00EE810AD4ED230ABA
:1015300094ED191A00EEC10AD4ED150A94ED1E1AA5
:1015400041EE000AC4ED150A94ED240AB1EE400AFA
:10155000D4ED160A20EE200AD4ED0A0A94ED251ADD
:1015600060EE810A94ED151A00EE810AD4ED230A8B
:1015700094ED121A00EE810AD4ED230A94ED1A1AA2
:1015800000EEC10AD4ED160A94ED1E1A41EE000ACF
:10159000C4ED160A94ED150AD4ED130A30EE600A74
:1015A00084ED170A94ED160AD4ED140A30EE600AA1
:1015B00084ED180A94ED170AD4ED1F0AB4EEE00A80
:1015C000F1EE10FA04DD94ED1F0A84ED190A15E01E
:1015D00094ED170AD4ED1F0AF1EE600AB4EEE00AAA
:1015E000F1EE10FA06D294ED1F0AB1EE400A84ED36
:1015F000190A03E094ED170A84ED190A94ED180A0C
:10160000D4ED1F0AB4EEE00AF1EE10FA04DD94ED19
:101610001F0A84ED1A0A15E094ED180AD4ED1F0A8A
:10162000F1EE600AB4EEE00AF1EE10FA06D294EDA3
:101630001F0AB1EE400A84ED1A0A03E094ED180A7D
:1016400084ED1A0A94ED000AB1EE400AD4ED190AAD
:1016500020EE200AD4ED0E0A20EE200A84ED010AC5
:1016600094ED000AD4ED1A0A20EE200AD4ED0F0AF8
:1016700020EE200A84ED020A201D01F02BFC94EDDF
:10168000070A84ED0A0A04F1280000F0D0F894ED6E
:101690000D0AD4ED1D0A94ED0A1A00EE810A84EDBC
:1016A0000D0A07E094ED0D0AF7EE000A30EE600A2D
:1016B00084ED0D0A94ED0D0AF7EE000AB4EEE00A8F
:1016C000F1EE10FAEEDC07E094ED0D0AF7EE000AF9
:1016D00030EE200A84ED0D0A94ED0D0AB5EEC00A35
:1016E000F1EE10FAF0D304F1340000F065F910BD0A
:1016F00010B504469FED110A201D01F055FC9FED29
:101700000F0A04F1280000F0B5F89FED0C0A84EDF3
:101710000D0AB7EE000A84ED0E0A9FED080A84ED6B
:101720000F0A9FED060A84ED100A9FED040A84ED6E
:10173000150A9FED020A84ED160A10BD0000000094
:1017400090ED172AB5EEC02AF1EE10FA04D290ED12
:10175000172AB1EE422A01E090ED172AB0EE421AA4
:1017600090ED172AB5EEC02AF1EE10FA02D24FF032
:10177000FF3100E0012102EE101AB8EEC20A90ED2E
:10178000182AB5EEC02AF1EE10FA04D290ED182A0C
:10179000B1EE422A01E090ED182AF0EE421A90EDE7
:1017A000182AB5EEC02AF1EE10FA02D24FF0FF313E
:1017B00000E0012102EE101AF8EEC20A90ED202A94
:1017C000B1EE422A22EE012AD0ED192A02EE802A39
:1017D000D0ED212A90ED223A72EEC32A90ED0A3A1A
:1017E00023EE003A62EE832A90ED183A02EEC32A05
:1017F00080ED1B2A90ED202AB1EE422A22EE212A0A
:10180000D0ED1A2A02EEA02AD0ED212A90ED223A3C
:1018100072EEC32A90ED0A3A23EE203A62EE832A52
:1018200090ED173A02EE832A80ED1C2A704790ED66
:10183000020AD0ED000A20EE200AD0ED020AB7EE2F
:10184000001A71EE600A90ED011A00EE810A80ED37
:10185000010A7047C168C1F580718268514303680D
:10186000C2685A4301EB02210912816081680912A2
:101870004160704780ED010A70470A028260416052
:101880007047F0B50A4600210023002400BF3DE068
:10189000012505FA01F3156805EA03049C4234D1D9
:1018A00005684F000326BE40B543056015794E001C
:1018B000B5400668354305601579012D02D01579CC
:1018C000022D16D185684F000326BE40B5438560C2
:1018D00055794E00B54086683543856045680126D8
:1018E0008E40B5434560456896798E40B6B2354323
:1018F0004560C5684F000326BE40B543C560D57935
:101900004E00B540C6683543C560491C1029BFD399
:10191000F0BDF0B5002300244D07ED0E02FA05F3EB
:10192000CE1000F1200555F826504E07F70E0F2671
:10193000BE40B543CF1000F1200646F82750CE1028
:1019400000F1200555F8265045EA0304CE1000F1B9
:10195000200545F82640F0BD0246002013690B40E3
:101960000BB1012000E0002070470A04826170473B
:1019700081617047044BDB6B0360034B1B6C0B6096
:10198000014B5B6C13607047002001400020094947
:1019900048638863C8630846008C4AF6AA21084059
:1019A00004490884034844300088C0F30E00A1F8BD
:1019B00044007047000001400146D1ED002AB0EE1E
:1019C000620ADFED332A60EE222AF0EE620AFDEEB3
:1019D000E02A12EE900A2F4A02EB8002D2ED002A92
:1019E000B0EE621A2B4B421C03EB8202D2ED002AAE
:1019F000F0EE621A02EE900AF8EEE22A70EEE22AA7
:101A0000B0EE622A31EEC13AF0EE412A42EE032AEC
:101A1000C1ED022AF5EE002A70EE222AB0EE620A2B
:101A2000F7EE002AB4EEE20AF1EE10FA05DDF7EE69
:101A3000002A70EE622AB0EE620ADFED152A60EE2F
:101A4000222AF0EE620AFDEEE02A12EE900A114A16
:101A500002EB8002D2ED002AB0EE621A0D4B421C5E
:101A600003EB8202D2ED002AF0EE621A02EE900A37
:101A7000F8EEE22A70EEE22AB0EE622A31EEC13AC6
:101A8000F0EE412A42EE032AC1ED012A7047000020
:101A90000000004408000020B5EEC00AF1EE10FA84
:101AA00015DDB6EE001A20EE011AF0EE410A10EE36
:101AB000100A094901EB600000EE100A80EE801A5E
:101AC000F6EE001A01EE801AB0EE410A03E0DFEDF7
:101AD000030AB0EE600A7047F51DBD1F000000004C
:101AE00090ED070AD0ED060AB0EE001A11EE200ABA
:101AF000D0ED080A30EE600ADFED090A20EE200A78
:101B000080ED120A90ED070AD0ED080A30EE600A67
:101B1000DFED040A20EE200A80ED130A7047000072
:101B2000ABAAAA3E3ACD133F10B504469FED090A71
:101B300084ED130A9FED070A84ED140A9FED050A50
:101B4000204601F031FA9FED030A04F1240001F070
:101B50002BFA10BD0000000010B5044694ED120AE7
:101B6000D4ED1B0A20EE200A84ED170A94ED120A28
:101B7000D4ED1B0A20EE200A84ED180A94ED170A12
:101B800084ED070A94ED170AB1EE400A84ED080AC5
:101B900094ED130A84ED000A94ED150A84ED010A10
:101BA000204601F097F994ED060A84ED190A94EDA8
:101BB000180A84ED100A94ED180AB1EE400A84ED7B
:101BC000110A94ED140A84ED090A94ED160A84EDC5
:101BD0000A0A04F1240001F07DF994ED0F0A84ED66
:101BE0001A0A10BD10B52DED028B0446B0EE408AE6
:101BF00094ED120AD4ED1B0A20EE200A20EE080A0A
:101C000084ED170A94ED120AD4ED1B0A20EE200A87
:101C100020EE080A84ED180A94ED170A84ED070AED
:101C200094ED170AB1EE400A84ED080A94ED130A08
:101C300084ED000A94ED150A84ED010A204601F0B6
:101C400049F994ED060A84ED190A94ED180A84ED19
:101C5000100A94ED180AB1EE400A84ED110A94EDD1
:101C6000140A84ED090A94ED160A84ED0A0A04F1B7
:101C7000240001F02FF994ED0F0A84ED1A0ABDEC4F
:101C8000028B10BD10B5044604F1280001F0CCF918
:101C900010BD90ED0F0AD0ED130A60EE200A90ED12
:101CA000091A90ED120A00EE810A80ED120A07E08F
:101CB00090ED120AF7EE000A30EE600A80ED120A8B
:101CC00090ED120AF7EE000AB4EEE00AF1EE10FA17
:101CD000EEDC07E090ED120AF7EE000A30EE200A83
:101CE00080ED120A90ED120AB5EEC00AF1EE10FA7C
:101CF000F0D3704710B504469FED0C0A84ED120A2C
:101D0000D4ED000AB0EE600A204601F0FFF9D4EDF0
:101D1000050AB0EE600A04F1140001F0F7F99FED36
:101D2000030A04F1280001F0F1F910BD00000000E1
:101D300010B50446204601F077F904F1140001F0D3
:101D400073F994ED0F0AD4ED040A20EE200A84ED15
:101D5000110A10BD90ED090AD0ED010A20EE200A0B
:101D6000D0ED0A0A90ED021A00EEC10A80ED160AC3
:101D700090ED090AD0ED020A20EE200AD0ED0A0A01
:101D800090ED011A00EE810A80ED170A704790ED80
:101D9000120AD0ED010A20EE200AD0ED130A90EDD0
:101DA000021A00EE810A80ED140A90ED120AB1EEDB
:101DB000400AD0ED020A20EE200AD0ED130A90ED81
:101DC000011A00EE810A80ED150A704710B504462D
:101DD0009FED0C0A84ED220A9FED0A0A84ED230A86
:101DE0009FED080A204601F0DFF89FED060A04F196
:101DF000240001F0D9F89FED030A04F1480001F036
:101E000085F910BD0000000010B5044694ED1B0AD2
:101E1000D4ED1C0A20EE200AD4ED240AB4EEE00A28
:101E2000F1EE10FA06D294ED1B0AD4ED1C0A20EE56
:101E3000200A01E094ED240AD4ED250AB4EEE00A6C
:101E4000F1EE10FA16DD94ED1B0AD4ED1C0A20EE1B
:101E5000200AD4ED240AB4EEE00AF1EE10FA06D21C
:101E600094ED1B0AD4ED1C0A20EE200A04E094ED48
:101E7000240A01E094ED250A84ED130A04F14800D8
:101E800001F0D2F894ED160A84ED000A94ED1D0AD3
:101E900084ED010A204601F01DF894ED1E0ADFEDE5
:101EA000190A20EE200A84ED090AD4ED1F0A60EE1B
:101EB000A00A94ED201AD4ED201A41EE210AB0EECA
:101EC000600AFFF7E9FD84ED0A0A04F1240001F03D
:101ED00001F894ED0F0A84ED170A04F15C00FFF796
:101EE0006BFD94ED060AD4ED190A20EE200A84ED6C
:101EF000220A94ED060AD4ED180A20EE200A84ED99
:101F0000230A10BD3ACD133F9FED0C0A80ED000A65
:101F10009FED0A0A80ED010A9FED080A80ED020A92
:101F20009FED060A80ED030A9FED040A80ED160A74
:101F30009FED020A80ED170A7047000000000000C4
:101F40000EB59FEDD73AB0EE431A9FEDD53AF0EEBD
:101F5000431A9FEDD33AB0EE432A9FEDD13AB0EE4B
:101F6000430A9FEDCF3AF0EE430A9FEDCD3AF0EEF3
:101F7000432A002100910191029190ED173ADFED83
:101F8000C93A23EE233AB0EE431AD0ED163AB0EE3A
:101F9000084AB0EE413A14EE233AF6EE003A23EE48
:101FA000233AD0ED053A23EE233AF0EE431AD0ED72
:101FB000163AB8EE084AB0EE413A14EE233AF6EE7D
:101FC000003A23EE233AD0ED053A23EE233AB0EE61
:101FD000432A90ED053A23EE013AB0EE431A80F819
:101FE0004410B5EEC01AF1EE10FA04DD90F844107A
:101FF000491C80F84410F5EEC01AF1EE10FA04DD29
:1020000090F84410891C80F84410B5EEC02AF1EE17
:1020100010FA04DD90F84410091D80F8441090F87F
:10202000441007292FD2DFE801F02E0925041712EA
:102030002000B0EE610AF0EE410A25E0B1EE613A0F
:10204000B0EE430AB1EE423AF0EE430A1CE0B0EEC5
:10205000410AF0EE420A17E0B1EE413AB0EE430A0F
:10206000B1EE613AF0EE430A0EE0B0EE420AF0EE55
:10207000610A09E0B1EE423AB0EE430AB1EE413AEC
:10208000F0EE430A00E000BF00BF30EE203AF0EE71
:10209000432A90ED1B3AB4EEE23AF1EE10FA0DD27B
:1020A00090ED1B3A23EE003AC3EE223AB0EE630AFB
:1020B00090ED1B3A33EE403AF0EE430A90ED1B3AB6
:1020C00033EE403A33EE603AF5EE003A23EE233A2F
:1020D000D0ED1C3AB6EE004A04EE233A8DED003AFC
:1020E0009DED003AF6EE003A03EE803A8DED013AAE
:1020F0009DED013AF6EE003A03EEA03A8DED023A7C
:1021000090F8441007296FD2DFE801F0A51F8A0478
:1021100053386F00F0EE003AB0EE603A03EE803ACA
:10212000DFED613A23EE233AD0ED043A23EE233A71
:1021300080ED163A9FED5D3A20EE833AD0ED043AF9
:1021400023EE233A80ED173A86E030EEC03ADFED19
:10215000563A23EE233AD0ED043A23EE233A80EDAB
:10216000163A30EE203ADFED513A23EE233AD0ED25
:10217000043A23EE233A80ED173A6DE0F8EE003A88
:10218000B0EE403A13EEA03ADFED473A23EE233AA1
:10219000D0ED043A23EE233A80ED163A9FED433A10
:1021A00020EE033AD0ED043A23EE233A80ED173ABD
:1021B00052E0F8EE003AB0EE403A13EEA03ADFED0E
:1021C0003A3A23EE233AD0ED043A23EE233A80ED57
:1021D000163A9FED373A20EE033AD0ED043A23EE5B
:1021E000233A80ED173A37E035E030EEC03ADFEDC4
:1021F0002E3A23EE233AD0ED043A23EE233A80ED33
:10220000163AB1EE403A33EE603ADFED283A23EE6B
:10221000233AD0ED043A23EE233A80ED173A1BE03F
:10222000F0EE003AB0EE603A03EE803ADFED1E3A8F
:1022300023EE233AD0ED043A23EE233A80ED163A0A
:102240009FED1B3A20EE833AD0ED043A23EE233A79
:1022500080ED173A00E000BF00BF10F8441F154A98
:10226000515C6A4602EB810191ED003A80ED073A3C
:10227000027810490831895C6A4602EB810191EDD0
:10228000003A80ED083A02780A491031895C6A46C2
:1022900002EB810191ED003A80ED093A44380EBD20
:1022A00000000000D7B3DD3FABAAAA3E3ACD133FF2
:1022B0003ACD13BF1008002010B504469FED0C0A5C
:1022C00084ED120AD4ED000AB0EE600A204600F058
:1022D0001DFFD4ED050AB0EE600A04F1140000F011
:1022E00015FF9FED030A04F1280000F00FFF10BD59
:1022F00000000000014600208B694A689A4215D20E
:102300008B698A689A4211D28B69CA689A420DD247
:102310000A69521C0A610A69521C0A61CB699A4215
:1023200004D10A6822F00202921C0A604A69521C17
:102330004A610B6A4A699A4204D10A6822F004028F
:10234000121D0A600A78C2F340022AB10A6822F01C
:1023500001020A60012008E00A78C2F3800222B17B
:102360000A6822F001020A6002207047014600203C
:102370000A7802F001024AB900220A600A614A6141
:102380000A6822F00102521C0A6000E00120704736
:1023900070B504460025D4E90901884211D800200F
:1023A000E061D4E9090188422DD1E06A20B1201D05
:1023B000616800F0AEFE26E0206B20B3606BE06148
:1023C00021E0D4E90A010844616A884207D3012068
:1023D0002062201D00F075FEA069E06113E0D4E9E1
:1023E0000A010844216B0844616A884204D3012031
:1023F0002062606BE06106E000206062206820F0EF
:102400000200801C20602078C0F3400020B12068CA
:1024100020F0010020600125606A401C60622846AF
:1024200070BD014600200A7802F0010252B9002274
:102430000A604A62CA610A620A6822F00102521CFA
:102440000A6000E001207047014600200A7802F08F
:1024500001026AB900220A60CA620A614A618A619D
:102460004A628A620A6822F00102521C0A6000E095
:1024700001207047014600204B680A691A440A612E
:102480008B684A691A444A61CB688A691A448A612E
:10249000CA6A521CCA628B6BCA6A9A4231D1CB6A31
:1024A0000A69B2FBF3F20A61CB6A4A69B2FBF3F242
:1024B0004A61CB6A8A69B2FBF3F28A610B6B0A69E3
:1024C0009A4213D84B6B0A699A420FD30B6B4A6935
:1024D0009A420BD84B6B4A699A4207D30B6B8A69B5
:1024E0009A4203D84B6B8A699A4205D20A6822F055
:1024F0000402121D0A6004E00A6822F00202921C23
:102500000A600A78C2F340022AB10A6822F0010286
:102510000A60012008E00A78C2F3800222B10A684A
:1025200022F001020A600220704710B5044694F8B8
:10253000240000F00100F0B104F5B670FFF716FFBB
:1025400001281DD104F5B670FFF7D4FE20B1012893
:1025500003D002280DD106E00CE0FFF717FA0420A3
:1025600084F8200006E0FFF711FA002084F820002C
:1025700000E000BF04E0FFF709FA002084F8200023
:1025800010BD10B5044694F8240000F0010028B1F5
:10259000FFF7FCF9002084F8200006E004F5CA707B
:1025A000FFF73FFF012800D100BF10BD10B5044662
:1025B00004F12C00FEF746FE04F5B26090ED0B0A24
:1025C00084EDF10A04F55470FFF71EFC94EDF60A51
:1025D00004F57A7080ED130A94EDF70A80ED140A81
:1025E00010BD10B5044694EDB60A84ED260A94EDAC
:1025F000B70A84ED270A94EDBA0A84ED360A94ED01
:10260000BB0A84ED370A04F12C00FEF76DFC04F5DB
:10261000F470FFF737FB04F5B26090ED0D0AD4EDCE
:10262000880A30EE200A84EDA40A606D072804D1E0
:10263000A06A20F020002030A06207E094EDA40AF8
:10264000F7EE000A30EE600A84EDA40A94EDA40AC5
:10265000F7EE000AB4EEE00AF1EE10FAEEDC07E065
:1026600094EDA40AF7EE000A30EE200A84EDA40AE5
:1026700094EDA40AB5EEC00AF1EE10FAF0D304F519
:102680002470FFF799F904F52470FFF780FB94EDAF
:10269000B80A04F57A7080ED150A94EDB90A80ED58
:1026A000160AFFF759FA04F57A7090ED190A84EDCD
:1026B000AD0A90ED1A0A84EDAE0A10BD10B50446BD
:1026C000A06A08B10020606294F82000024A52F823
:1026D00020102046884710BDEC0E002070B504463F
:1026E00094EDAD0A84ED170A94EDB80A84ED180A4A
:1026F00094EDB60A84ED260A94EDB70A84ED270A14
:1027000004F12C00FEF7F0FB606D10B1606D012844
:1027100028D104F5207004F12C012EC910302EC0F0
:102720001038FFF734FB94ED1D0A04F57A7080ED44
:10273000130A9FEDAA0A80ED140A94EDB80A80ED01
:10274000150A94EDB90A80ED160AFFF705FA04F5AB
:102750007A7090ED190A84EDAD0A90ED1A0A84EDB5
:10276000AE0A3AE1606D022828D104F5207004F128
:102770002C012EC910302EC01038FFF708FB9FED3A
:10278000970A04F57A7080ED130A9FED940A80EDA4
:10279000140A94EDB80A80ED150A94EDB90A80ED9B
:1027A000160AFFF7D9F904F57A7090ED190A84ED4D
:1027B000AD0A90ED1A0A84EDAE0A0EE1606D0328B1
:1027C00038D104F5207004F12C012EC910302EC030
:1027D00094ED330A84EDB60A94ED340A84EDB70A19
:1027E0001038FFF7D4FA9FED7D0A04F57A7080ED7A
:1027F000130A9FED7A0A80ED140A94EDB80A80ED71
:10280000150A94EDB90A80ED160AD4ED450AB0EE2A
:10281000600AFFF7E7F904F57A7090ED190AD4ED34
:10282000350A30EE200A84EDAD0A90ED1A0A84EDE7
:10283000AE0AD2E0606D042838D104F5207004F1AE
:102840002C012EC910302EC094ED330A84EDB60A47
:1028500094ED340A84EDB70A1038FFF798FA9FED2B
:102860005F0A04F57A7080ED130A9FED5C0A80ED33
:10287000140A94EDB80A80ED150A94EDB90A80EDBA
:10288000160AD4ED450AB0EE600AFFF7ABF904F57D
:102890007A7090ED190A84EDAD0A90ED1A0AD4ED24
:1028A000350A30EE200A84EDAE0A96E0606D052808
:1028B0006AD104F5B260FEF71BFF94ED470AD4ED30
:1028C000040A80EE201A04F5B26080ED201A94ED1F
:1028D000480AD4ED050A80EE201A80ED211A94ED05
:1028E000490AD4ED050A80EE201A80ED221A94EDF3
:1028F000050AD4ED480A80EE201A80ED231A94EDE3
:10290000470AD4ED050A60EE200A94ED481A80EEDD
:10291000810AD4ED040A80EE201A80ED241A94ED89
:10292000480AD4ED490A30EE600AD4ED480A80EE38
:10293000201A80ED251A04F5207004F12C012EC90F
:1029400010302EC01038FFF722FA9FED240A04F54C
:102950007A7080ED130A9FED210A80ED140A94ED40
:10296000B80A80ED150A94EDB90A80ED160AFFF752
:10297000F3F804F57A7090ED190A84EDAD0A90ED44
:102980001A0A84EDAE0A28E0606D062825D104F508
:10299000F470FFF77EF994ED8C0A84EDA40A04F537
:1029A0002470FFF709F804F52470FFF7F0F994EDAF
:1029B000B80A04F57A7080ED150A94EDB90A80ED35
:1029C000160AFFF7C9F804F57A7090ED190A84ED3C
:1029D000AD0A90ED1A0A84EDAE0A70BD0000000049
:1029E00010B5044694F8240000F0010018B1052049
:1029F00084F8200004E0FEF7C9FF002084F82000DE
:102A000010BD3EB5044694F8240000F001000028F3
:102A100052D000BF002000906A4601A902A8FEF72C
:102A2000A9FF0298C4F834010198C4F8380100984D
:102A3000C4F83C0100BF04F59870FFF705FD0128BC
:102A400037D104F59870FFF715FD20B1012803D0A8
:102A500002282CD122E02BE094ED500AB8EEC00AF7
:102A600084EDB20A94ED510AB8EEC00A84EDB30ABF
:102A700094ED520AB8EEC00A84EDB40A94ED550AFA
:102A8000B8EEC00A84EDCA0A94ED560AB8EEC00A40
:102A900084EDCB0A022084F8200009E0A06A20F02F
:102AA0000100401CA062002084F8200000E000BF6C
:102AB00007E0FEF76BFF04E0FEF768FF002084F8F4
:102AC00020003EBD10B5044604F12C00FEF7BAFB11
:102AD000606D06285ED104F5B26090ED0B0A84EDBE
:102AE000F10A04F5F470FFF723F99FED2B0A04F5C2
:102AF0007A7080ED130A94ED8B0A80ED140A4FF47E
:102B0000E8700059401C4FF4E8710851091D09593B
:102B100088423FD394EDEF0AD4EDF10A20EE200A6B
:102B2000D4ED760AB4EEE00AF1EE10FA2FDBD4F819
:102B3000CC01401C4FF4EE71C4F8CC010959884215
:102B400028D300214FF4E87001510020C4F8CC01D3
:102B500004F57A70D0ED140AB0EE600A983800F0EF
:102B600023FAD4EDF10AB0EE600A04F5667000F0C5
:102B7000CDFA94ED8C0A04F5B260D0ED0D0A30EE7A
:102B8000600A84ED840A012084F8210002E000201C
:102B9000C4F8CC0110BD00000000000010B50446D0
:102BA00094F8240000F0010018B1052084F82000FA
:102BB00004E0FEF7EBFE002084F8200010BD10B505
:102BC000044694F8240000F0010000283ED00020C4
:102BD000C4F8CC0100214FF4E87001514FF4F070BB
:102BE000015104F5F470FFF785F804F50F70FFF755
:102BF00063FB04F52470FFF787F904F55470FFF7C1
:102C0000E5F804F57A70FEF78FFF04F12C00FEF76B
:102C100093FA04F58B60FEF7EBF804F5A060FEF77D
:102C2000BFF804F5B260FEF763FD04F5C560FEF77A
:102C300033F9002084F82100D4F8940120F0010039
:102C4000C4F89401012084F8200001E0FEF79EFE04
:102C500010BD000010B5044694F8240000F00100F7
:102C600000284BD004F5247000F050F804F52470CF
:102C7000FEF736FF94F8210010B92046FFF72EFD2D
:102C800094EDEF0A04F5806080ED640A94EDB60AD5
:102C900004F5B26080ED130A94EDB70A80ED140AD2
:102CA00094EDBA0A80ED110A94EDBB0A80ED120A88
:102CB000FEF722FC04F5B260FEF742FD94F8210015
:102CC000012802D12046FFF78CFC04F52470FFF7A1
:102CD00041F804F5247000F059F800BF0A48008C50
:102CE00045F2555108430849088407484430008894
:102CF00040F40040A1F8440000BF04E0FEF746FEA7
:102D0000062084F8200010BD000001403EB50446B6
:102D1000002000906A4601A902A8FEF72BFE9DED57
:102D2000020AB8EEC00A84ED0B0A9DED010AB8EE66
:102D3000C00A84ED0C0A9DED000AB8EEC00A84EDCD
:102D40000D0A94ED0E0AD4ED0B0A30EE600AD4EDB4
:102D50001F0A20EE200A84ED060A94ED0F0AD4ED36
:102D60000C0A30EE600AD4ED1F0A20EE200A84ED32
:102D7000070A94ED100AD4ED0D0A30EE600AD4ED86
:102D80001F0A20EE200A84ED080A3EBD10B52DED85
:102D9000048B04469FED190AB0EE409A1848FFF7DD
:102DA000CFF8184890EDC40AD0EDBC0A20EE200AF6
:102DB000B0EE408A90EDC40AD0EDBD0A20EE200AA4
:102DC000F0EE408A90EDC40AD0EDBE0A20EE200A53
:102DD000B0EE409ABCEEC80A10EE100ABCEEE80A4B
:102DE00010EE101ABCEEC90A10EE102A064B5863FA
:102DF0009963DA6300BFBDEC048B10BD00000000D6
:102E0000D00A0020400800200000014010B5044610
:102E100094F82000052807D194F82100094A52F8B7
:102E20002010204688470CE094F82000062808D19E
:102E300004F5CA70FFF7ACFA012802D1002084F82B
:102E4000200010BD080F002070B5002100230F22C4
:102E5000C4781CB3174C246804F4E064C4F5E0643F
:102E6000C4F30721C1F10404E3B20A4144789C4051
:102E7000E1B28478144021430C07210E0E4C0578F2
:102E80006155047804F01F050124AC4005786D11EC
:102E9000AD0005F1E025C5F8004109E0047804F033
:102EA0001F050124AC40054D0678761145F82640F3
:102EB00070BD00000CED00E000E400E080E100E007
:102EC00002490143024A1160704700000000FA0500
:102ED0000CED00E0D0ED000A90ED011A70EEC10A91
:102EE000B0EE600AD0ED050A90ED031A41EE000A3B
:102EF000C0ED050AD0ED050A90ED071AF4EEC10AFF
:102F0000F1EE10FA02D2D0ED050A01E0D0ED070A89
:102F100090ED081AF4EEC10AF1EE10FA0EDDD0EDD4
:102F2000050A90ED071AF4EEC10AF1EE10FA02D28A
:102F3000D0ED050A04E0D0ED070A01E0D0ED080A63
:102F4000C0ED050AD0ED050A90ED021A41EE000A27
:102F5000C0ED060AD0ED060A90ED071AF4EEC10A9C
:102F6000F1EE10FA02D2D0ED060A01E0D0ED070A28
:102F700090ED081AF4EEC10AF1EE10FA0EDDD0ED74
:102F8000060A90ED071AF4EEC10AF1EE10FA02D229
:102F9000D0ED060A04E0D0ED070A01E0D0ED080A02
:102FA000C0ED060A70470000DFED060AC0ED000A1A
:102FB000DFED040AC0ED010A80ED050A80ED060A86
:102FC000704700000000000029B1064A1268024361
:102FD000044B1A6004E0034A12688243014B1A60F2
:102FE000704700003038024029B1064A1268024397
:102FF000044B1A6004E0034A12688243014B1A60D2
:10300000704700004038024029B1064A1268024366
:10301000044B1A6004E0034A12688243014B1A60B1
:10302000704700004438024090ED010AD0ED040AD8
:10303000B4EEE00AF1EE10FA1ADD90ED040AD0EDDC
:10304000020A30EE200AD0ED010AB4EEE00AF1EEF9
:1030500010FA08D290ED040AD0ED020A30EE200AF0
:1030600080ED040A2CE090ED010A80ED040A27E0CF
:1030700090ED010AD0ED040AB4EEE00AF1EE10FA88
:103080001AD290ED040AD0ED030A30EE200AD0EDFA
:10309000010AB4EEE00AF1EE10FA08DD90ED040A40
:1030A000D0ED030A30EE200A80ED040A08E090ED2E
:1030B000010A80ED040A03E090ED010A80ED040AA4
:1030C00070474268910202698A420BDA836802699A
:1030D0001A448A4204DA836802691A44026111E0E0
:1030E00001610FE002698A420BDDD0E903321A4424
:1030F0008A4204DDD0E903321A44026102E0016130
:1031000000E00161026992124261704780ED040A99
:1031100070478A0202614161704700000CB50020CF
:10312000019000903348006840F4803031490860D5
:1031300000BF3048006800F4003000900198401C47
:103140000190009818B90198B0F5A04FF1D1294825
:10315000006800F4003010B10120009001E0002070
:1031600000900098012844D122484030006840F087
:1031700080502049403108601F48006840F44040BA
:103180001D4908601B48083000681A49083108606A
:103190000846006808600846006840F4A0500860CF
:1031A0001648091F0860081F006840F08070091F5A
:1031B000086000BF0F48006800F000700028F9D0D8
:1031C00040F205700E4908600A480830006820F097
:1031D00003000849083108600846006840F0020012
:1031E000086000BF03480830006800F00C000828A1
:1031F000F8D10CBD00380240007000400854400770
:10320000003C024010B502461A481B49537863B38C
:10321000137AC3F3C0037BB9D36D0468A34208D308
:1032200083685B1C83604468A34207D300238360E8
:1032300004E00023836001E000238360137AC3F37A
:1032400000137BB9D36D0C68A34208D88B685B1C54
:103250008B604C68A3420BD300238B6008E00023F3
:103260008B6005E000238B6002E0002383608B60AD
:1032700010BD0000600F00206C0F002030B5134916
:10328000481EB0F1807F01D301201BE0481E4FF0A3
:10329000E022506150170F22002807DA13071D0E95
:1032A0000B4B00F00F04241F1D5503E013071C0EE9
:1032B000084B1C5400BF00204FF0E0229061072013
:1032C0001061002008B100BFFEE730BD4090020051
:1032D00018ED00E000E400E010B5054800F068F9E2
:1032E000034800F07FF80348FFF790FD10BD000091
:1032F000780F00204008002010B51548006840F401
:103300007000134908601348006840F0010011493B
:10331000086000200F49083108600E4800680E4917
:1033200008400C4908600D48091D0860081F006826
:1033300020F48020091F0860002006490C31086035
:10334000FFF7ECFE4FF0006001498039086010BDC6
:1033500088ED00E000380240FFFFF6FE1030002448
:1033600010B50446207900F00100E8B1FDF78EFBAE
:103370000E494861FDF792FB0C49C86121460B4894
:10338000FDF75AFC2046FDF78FFC2046FFF73AFF79
:10339000204600F005FB204600F03EFB00BF00BFCA
:1033A000606820F00100606010BD0000100F002078
:1033B00070B5044600250A48856CE56040F6FF7547
:1033C000E5620025E56104F10C00FEF743FA04F123
:1033D0002C00FEF73FFA04F11C00FEF73BFA70BD2B
:1033E0000020014010B504462046FFF7E1FF00BF72
:1033F0005B4991EDAA0ADFED5B0A20EE200ABDEEE3
:10340000C00A10EE100A9FED580A81EDAA0A00BF0B
:1034100020652169606E4843801260654FF47A61CF
:10342000E06C48438013A06500BF504890EDF10A5E
:10343000DFED4F0A20EE200ABDEEC00A84ED170A28
:10344000206A2066B7EE000A484880EDEF0A80ED5A
:10345000890A80ED9E0A00BFD4ED040A90EDC21ADD
:10346000F8EEE01A21EE211AB0EE410A80EDA80A2A
:10347000B7EE001AC1EE001AC0EDA91A80EDF20AEB
:1034800000F57A7080ED120A00BF94ED160AF8EE8E
:10349000C00AB0EE001A20EE811ADFED361AC1EE36
:1034A000210A9FED351AC0EE811A3048C0EDF01A9E
:1034B00000BF00BF806A20B1A06820F00100401C5E
:1034C000A060607830B1012812D002281CD00328F7
:1034D00033D125E0E06E401CE066A16E884206D341
:1034E0000020E066204600F049F80120607025E0E9
:1034F000A06810B10320607005E02079C0F340009F
:1035000008B10220607019E0A06810B1032060705B
:1035100005E02079C0F3400008B9012060700DE09B
:103520002079C0F3400038B90020A06000BF0F49E7
:10353000886200BF0120607000E000BF00BF6078BB
:10354000022805D100BF01200849486200BF05E0FC
:1035500000BF00200549486200BF00BF10BD000049
:10356000400C0020000080460000000040080020C1
:1035700000007A45000070425555054370B5044679
:1035800000250A48856C294604F10C00FEF775F900
:1035900040F6FF75294604F12C00FEF76EF9002570
:1035A000294604F11C00FEF768F970BD00200140B7
:1035B0000178491CC9B201700A2910D30021017099
:1035C000017901F0010129B9416821F00101491C8B
:1035D000416004E0816821F00201891C816070472C
:1035E00010B580210C4800F040F800BF00200A49C7
:1035F00048638863C8630846008C4AF6AA210840DD
:1036000005490884044844300088C0F30E00A1F83E
:10361000440000BF10BD00000000014010B50121B2
:10362000880700F043F818B10121880700F01DF861
:1036300010BD21B1028842F08002028004E00288BD
:103640004FF67F731A40028070470A884B881A43EE
:103650008B881A43CB881A430B891A434B891A4328
:103660008B891A43A0F844207047CA4302827047EE
:10367000CA430282704721B1028842F001020280EF
:1036800004E002884FF6FE731A400280704731B1A1
:10369000B0F8442042F40042A0F8442005E0B0F81D
:1036A0004420C2F30E02A0F84420704702460020D6
:1036B000138A0B400BB1012000E0002070471AB1C3
:1036C00083890B43838102E083898B438381704725
:1036D00070B5002400220023058C4FF6FE7635409D
:1036E0000584028C8388048B4FF68F752C40B51EA1
:1036F0002C400D882C43751E2A408D892A434D8805
:103700002A43104DA84202D00F4DA84213D14FF6C4
:10371000F7752A40CD892A434FF6FB752A408D88DC
:103720002A434FF6FF652B404FF6FF552B400D8A7D
:103730002B434D8A2B43838004838D684563028429
:1037400070BD0000000001400004014070B500247D
:1037500000220023058C4FF6EF7635400584028C5D
:103760008388048B48F6FF752C404FF6FF452C40AC
:103770000D884FF6FF7606EA05252C434FF6DF75D8
:103780002A408D8906EA05152A434D8806EA051563
:103790002A43154DA84202D0144DA8421DD14FF620
:1037A0007F752A40CD894FF6FF7606EA05152A4334
:1037B0004FF6BF752A408D8806EA05152A434FF655
:1037C000FF352B404FF2FF752B400D8A06EA850529
:1037D0002B434D8A06EA85052B43838004838D683D
:1037E0008563028470BD00000000014000040140B8
:1037F00070B5002400220023058C4FF6FF6635408B
:103800000584028C8388848B4FF68F752C404FF68D
:10381000FC752C400D882C434FF6FF552A408D89AE
:103820004FF6FF7606EA05252A434D8806EA052568
:103830002A43154DA84202D0144DA8421DD14FF283
:10384000FF752A40CD894FF6FF7606EA05252A4303
:103850004FF6FF352A408D8806EA05252A434EF6A5
:10386000FF752B404DF6FF752B400D8A06EA0515B6
:103870002B434D8A06EA05152B43838084838D688C
:10388000C563028470BD00000000014000040140D7
:1038900070B5002200230024058C4EF6FF763540DB
:1038A0000584038C8488828B48F6FF752A404FF686
:1038B000FF452A400D884FF6FF7606EA05252A4384
:1038C0004DF6FF752B408D8906EA05352B434D8853
:1038D00006EA05352B430A4DA84202D0094DA842FD
:1038E00008D14BF6FF752C400D8A4FF6FF7606EA9D
:1038F00085152C43848082838D680564038470BDA4
:10390000000001400004014082884FF68F731A4086
:10391000828082880A4382807047000000220288E9
:10392000184B98420ED0184B98420BD0B0F1804FF4
:1039300008D0164B984205D0154B984202D0154B33
:10394000984204D14FF68F731A404B881A43124B9A
:10395000984207D0114B984204D04FF6FF431A40CB
:103960000B891A4302804B68C3620B880385054BA1
:10397000984202D0044B984201D18B7A03860123EE
:1039800083827047000001400004014000040040B1
:1039900000080040000C00400010004000140040EF
:1039A00010B502461A481B49537863B3137AC3F320
:1039B000C0137BB9136E0468A34208D383685B1CF1
:1039C00083604468A34207D30023836004E000239C
:1039D000836001E0002383601389C3F300237BB974
:1039E000136E0C68A34208D88B685B1C8B604C6814
:1039F000A3420BD300238B6008E000238B6005E01B
:103A000000238B6002E0002383608B6010BD000008
:103A1000E80F0020F40F002010B502461A481B4999
:103A2000537863B3137AC3F340137BB9536D0468BF
:103A3000A34208D383685B1C83604468A34207D316
:103A40000023836004E00023836001E0002383609F
:103A5000137AC3F380137BB9536D0C68A34208D863
:103A60008B685B1C8B604C68A3420BD300238B607C
:103A700008E000238B6005E000238B6002E0002358
:103A800083608B6010BD0000001000200C1000202F
:103A900072B6FCF711FEFCF77DFEFCF749FEFCF761
:103AA000A7FDFDF73DF8FDF7AFF8FCF7FFFF62B6A5
:103AB00000BF0248FFF754FCFBE70000780F00202E
:103AC0004FF04070E1EE100A70470000EC3A000839
:103AD0000000002018100000C40100086043000826
:103AE0001810002060060000280200089200010063
:103AF000FF00920E493CB10AC93C2BC3163D2EFB78
:103B0000483D752B7B3D04A9963D80B6AF3D36BD43
:103B1000C83D2FBCE13D73B2FA3D87CF093E8340DB
:103B2000163EB5AB223EA2102F3ECF6E3B3EC2C525
:103B3000473E0115543E135C603E7F9A6C3ECCCFED
:103B4000783EC07D823E938E883E229A8E3E32A081
:103B5000943E86A09A3EE59AA03E128FA63ED47C63
:103B6000AC3EEF63B23E2A44B83E491DBE3E15EF5F
:103B7000C33E53B9C93ECA7BCF3E4136D53E80E8ED
:103B8000DA3E4F92E03E7533E63EBBCBEB3EEA5A5F
:103B9000F13ECBE0F63E275DFC3EE4E7003F3D9C76
:103BA000033F824B063F9BF5083F6B9A0B3FDA3988
:103BB0000E3FCDD3103F2A68133FD9F6153FC07F83
:103BC000183FC6021B3FD17F1D3FCBF61F3F9967B1
:103BD000223F25D2243F5636273F1594293F4AEBF2
:103BE0002B3FDE3B2E3FBB85303FC9C8323FF3043D
:103BF00000FF00353F233A373F4268393F3B8F3B58
:103C00003FF9AE3D3F67C73F3F70D8413F01E243B8
:103C10003F03E4453F65DE473F12D1493FF8BB4BC8
:103C20003F029F4D3F207A4F3F3D4D513F49185332
:103C30003F31DB543FE595563F5348583F6AF259B0
:103C40003F1A945B3F532D5D3F05BE5E3F214660AA
:103C50003F97C5613F5A3C633F59AA643F880F664E
:103C60003FD86B673F3CBF683FA7096A3F0C4B6B6F
:103C70003F5E836C3F93B26D3F9ED86E3F73F56F8E
:103C80003F0809713F5213723F4714733FDD0B74B5
:103C90003F0BFA743FC6DE753F07BA763FC58B7798
:103CA0003FF853783F9812793F9DC7793F02737A66
:103CB0003FBE147B3FCDAC7B3F283B7C3FC9BF7CE4
:103CC0003FAC3A7D3FCCAB7D3F23137E3FB0707E4F
:103CD0003F6DC47E3F580E7F3F6D4E7F3FAB847F6C
:103CE0003F0FB17F3F97D37F3F43EC7F3F11FB7F77
:103CF0003F300400008008211021182120212821B4
:103D000030313842C4482150215821602168217047
:103D10002178218021882190219821A021A821B0FB
:103D200021B821C021C821D021D821E021E821F0EB
:103D300021F82500250825102518252025282530BF
:103D400025382540254825502558256025682570AB
:103D50002578258025882590259825A025A825B09B
:103D600025B825C025C825D025D825E025E825F08B
:103D700025F829002908291029182920292829305F
:103D8000293829402948295029582960296829704B
:103D90002978298029882990299829A029A829B03B
:103DA00029B829C029C829D029D829E029E829F02B
:103DB00029F82D00032D08032D10032D18032D20A5
:103DC000032D28032D30032D38032D40032D4803E8
:103DD0002D50032D58032D60032D68032D70032DE6
:103DE00078032D80032D88032D90032D98032DA09B
:103DF000032DA8032DB0032DB8032DC0032DC80338
:103E00002DD0032DD8032DE0032DE8032DF0032D35
:103E1000F8035D000412BC1012BC181EBD00041291
:103E2000BD281EBD00041EBD000412BD401EBD0005
:103E3000041EBD00041EBD00041EBE00041EBE0004
:103E4000041EBE00041EBE000412BE8012BE881EE8
:103E5000BE00041EBE00041EBE000412BEA812BE98
:103E6000B012BEB81EBE00041EBE000412BED012A8
:103E7000BED81EBE000412BEE812BEF012BEF81E6E
:103E8000BE00041EBE000416BE1016BE181EBE00E4
:103E90000416BE281EBE00041EBE00041EBE000482
:103EA00016BE481EBE00041EBE000416BF601EBF24
:103EB000000416BF701EBF00041EBF000416BF889A
:103EC0001EBF00041EBF000416BFA01EBF00041EBC
:103ED000BF000416BFB816BFC016BFC816BFD016A5
:103EE000BFD81EBF00041EBF000416BFF01EBF00D7
:103EF000041ABF001ABF081EBF00041EBF00041E24
:103F0000BF00041ABF281ABF301ABF381EBF0004F2
:103F10001EBF00041EBF00041ABF581ABF601EBF98
:103F200000041EBF00041ABF781EBF00041EBF009D
:103F3000041ABF901ABF981ABFA01ABFA81ABFB020
:103F40001EBF00041EBF00041ABFC81EBF00041E0F
:103F5000BF00041ABFE01ABFE81ABFF01ABFF81E6C
:103F6000BF00041EBF00041EBF10031EBF18031EA7
:103F7000BF20031EBF00041EBF00041EBF38031E67
:103F8000BF40031EBF48031EBF50031EBF00041ED8
:103F9000BF60031EBF68031EBF70031EBF00041E68
:103FA000BF00041EBF88031EBF90031EBF00041E77
:103FB000BF00041EBFA8031EBFB0031EBF00041E27
:103FC000BFC0031EBFC8031EBF00041EBFD8031E10
:103FD000BFE0031EBF00041EBFF0031EBFF8031E98
:103FE000BF0004310821102118212021282130315F
:103FF0003842C4482150215821602168217021781D
:10400000218021882190219821A021A821B021B8C8
:1040100021C021C821D021D821E021E821F021F8B8
:104020002500250825102518252025282530253888
:104030002540254825502558256025682570257878
:10404000258025882590259825A025A825B025B868
:1040500025C025C825D025D825E025E825F025F858
:104060002900290829102918292029282930293828
:104070002940294829502958296029682970297818
:10408000298029882990299829A029A829B029B808
:1040900029C029C829D029D829E029E829F029F8F8
:1040A0002D00032D08032D10032D18032D20032DA3
:1040B00028032D30032D38032D40032D48032D50A8
:1040C000032D58032D60032D68032D70032D7803F5
:1040D0002D80032D88032D90032D98032DA0032DF3
:1040E000A8032DB0032DB8032DC0032DC8032DD078
:1040F000032DD8032DE0032DE8032DF0032DF80345
:104100001DFF073E80050810060100000202052081
:104110000700020101000207220214210B12010B09
:1041200011063202113301021F0022210000254234
:1041300001005C415555054384705144FFFF3F40E9
:10414000F9AE6A3B5FAE493D90C2F53B0001000508
:1041500012CDCC4C3D0C011E38100C8988083C5106
:1041600077563D09F294042007143ED0070000045E
:1041700000046F10270001100612E29E3D10084255
:10418000089B2C043F77BE5407014058040A19D0FD
:10419000060000400500001408123280160A108341
:1041A000881381100633030000663C040912AE47F1
:1041B000010052B8FEFF4056647422C8C1861058F0
:1041C000214850069A99993D32202005A79B443AF0
:1041D0002325641005288598380466B8B010099A1C
:1041E00099193E53491D3804A2B85C10053E547A13
:1041F00039040616B9B820054576743E7710090CC7
:1042000098463D365CCB37040246B7540566F42029
:104210001146B6733FA69B443D6F12033D01080053
:104220003A0404054200102446F8BC0889649C3E08
:1042300071A6BE400310050D6B5F3F040A2ABF4004
:1042400025BC11040236BA882DD8031DDC036AC3CD
:104250006C04091A2AA52C3F4341053C180122246D
:10426000091AF47C04DAAC2A3C03E008ABAA2A3F22
:104270008AC364701A40B70E32C034040534EA6F42
:104280002041E0035E04E0031D36032A427461B45A
:10429000000863ECC9983FCFCCCCA86DF804BC14DF
:1042A00062539E3EB40F9F3D8F31E63DA692AB3EDA
:1042B0007CFAE53C0500085F0200B03FA7E9EB94FB
:1042C00061901DC805319094150008CF3D1E5BFD1F
:1042D0003D8F461E4111AF443F882065BEBC223F42
:1042E00028016294280C89590E41AFE4303FB4CEC6
:1042F0003E30101300BF2B0008032A0008E12900FC
:10430000082B2500089D101006552C0008830C1260
:10431000C51812AD145E6450055FD80E18050E184E
:10432000405C034FA28B780529008FE8A250051E40
:104330002E6E035FE803550F73900118293D0A1D87
:10434000646A023D1910B90082208821086DF005C9
:104350008FDC05FC0583712BC483830F0C000000E8
:040000050800018965
:00000001FF
