:020000040800F2
:10000000100E002069020008710200087302000847
:10001000750200087702000879020008000000005D
:100020000000000000000000000000007B0200084B
:100030007D020008000000007F020008B12A0008CD
:10004000830200088302000883020008830200087C
:10005000830200088302000883020008830200086C
:10006000830200088302000883020008830200085C
:10007000830200088302000883020008830200084C
:100080008302000883020008B1030008830200080D
:10009000830200088302000883020008830200082C
:1000A000892D0008830200088302000883020008EB
:1000B000C52D00088302000883020008830200089F
:1000C00083020008830200088302000883020008FC
:1000D00083020008830200088302000883020008EC
:1000E00083020008830200088302000883020008DC
:1000F00083020008830200088302000883020008CC
:1001000083020008830200088302000883020008BB
:1001100083020008830200088302000883020008AB
:10012000830200088302000883020008830200089B
:10013000830200088302000883020008830200088B
:10014000830200088302000883020008830200087B
:10015000830200088302000883020008830200086B
:10016000830200088302000883020008830200085B
:10017000830200088302000883020008830200084B
:10018000830200088302000800F002F800F05CF827
:100190000AA090E8000C82448344AAF10107DA45E2
:1001A00001D100F051F8AFF2090EBAE80F0013F0D8
:1001B000010F18BFFB1A43F001031847B8380000BD
:1001C000D83800000A444FF0000C10F8013B13F03F
:1001D000070408BF10F8014B1D1108BF10F8015BA0
:1001E000641E05D010F8016B641E01F8016BF9D193
:1001F00013F0080F1EBF10F8014BAD1C0C1B09D1EA
:100200006D1E58BF01F801CBFAD505E014F8016B5B
:1002100001F8016B6D1EF9D59142D6D370470000ED
:100220000023002400250026103A28BF78C1FBD8FF
:10023000520728BF30C148BF0B6070471FB503F09D
:1002400013F81FBD10B510BD00F037F81146FFF7C9
:10025000F5FF02F0F1FF00F055F803B4FFF7F2FFED
:1002600003BC00F059F800000948804709480047DE
:10027000FEE7FEE7FEE7FEE7FEE7FEE7FEE7FEE756
:10028000FEE7FEE704480549054A064B70470000B3
:10029000D12A00088901000810080020100E002053
:1002A000100A0020100A00207047704770470000B5
:1002B00000487047B007002070477546FFF7F8FF09
:1002C000AE4605006946534620F00700854618B043
:1002D00020B5FFF7D7FFBDE820404FF000064FF0F4
:1002E00000074FF000084FF0000B21F00701AC466B
:1002F000ACE8C009ACE8C009ACE8C009ACE8C0098A
:100300008D46704710B50446AFF300802046BDE827
:100310001040FFF7A2BF000001491820ABBEFEE766
:1003200026000200CA430260704700220A12D3432B
:100330000360704721B1826842F00102826003E0ED
:10034000826822F001028260704700000021084AA2
:100350001168084A1140D0E900231A4383681A4300
:10036000C3681A431143044AC2F8041370470000DB
:1003700004230140E030FCFF002001400A46002138
:10038000816821F470211143816070470A46002181
:10039000816821F4401111438160704702460020BA
:1003A00013680B400BB1012000E0002070470000F3
:1003B00010B504210548FFF7F1FF30B104210348CF
:1003C000FFF7B0FF024801F019FE10BD0020014008
:1003D0003800002010B50B460021D9B2012404FAE0
:1003E00001F11AB144680C43446002E044688C4354
:1003F000446010BD30B50246002000235068104C08
:1004000020400D790C6844EA052420435060906830
:100410000C4C2040D1E903542C438D682C434D797A
:1004200044EA450420439060D06A20F470000C7DBB
:10043000641EE4B2234340EA0350D06230BD0000A2
:10044000FFFEFFFCFDF7FFC0F0B504461546002097
:1004500000220026092911DDE068A1F10A0707EB57
:10046000470C072707FA0CF29043A1F10A0707EBA4
:10047000470703FA07F21043E0600CE0206901EB44
:10048000410C072707FA0CF2904301EB410703FAEE
:1004900007F210432061A06BC0F30156EF1C06F178
:1004A000010CA7EB0C0707EB870C1F2707FA0CF2D0
:1004B0009043EF1C06F1010CA7EB0C0707EB870735
:1004C00001FA07F21043A063F0BD21B1426842F483
:1004D0008052426003E0426822F4805242607047DA
:1004E00010B50A4600210023816B21F44011531EF0
:1004F00041EA0351816310BDF0B504460D4600206A
:100500000021092D11DDE068A5F10A0606EB46077A
:10051000072606FA07F18843A5F10A0606EB460608
:1005200003FA06F10843E0600CE0206905EB45079B
:10053000072606FA07F1884305EB450603FA06F19C
:1005400008432061072A0FDA606B561E06EB860708
:100550001F2606FA07F18843561E06EB860605FAA3
:1005600006F10843606322E00D2A0FDA206BD61FE4
:1005700006EB86071F2606FA07F18843D61F06EB0F
:10058000860605FA06F10843206310E0E06AA2F14E
:100590000D0606EB86071F2606FA07F18843A2F12F
:1005A0000D0606EB860605FA06F10843E062F0BD8B
:1005B000816841F0804181607047000038B108498E
:1005C000096841F40001074AC2F8041306E004492F
:1005D000096821F40001034AC2F8041370470000BF
:1005E000042301400020014000B58BB00120FFF73B
:1005F000E5FF00200990079008900A9007A8FFF7F0
:10060000A5FE0020019001208DF808008DF809005A
:1006100000200390059001208DF8180001A92348BF
:10062000FFF7E8FE0423012200212048FFF764FFC2
:1006300004211E48FFF754FF01231A4608211B48D6
:10064000FFF702FF0123022206211848FFF7FCFEF4
:100650000123032211461548FFF7F6FE0123042269
:1006600009211248FFF7F0FE00211048FFF72DFF87
:100670004FF400110D48FFF789FE4FF480310B480D
:10068000FFF77CFE40F207410848FFF74EFE0122CB
:1006900040F207410548FFF79DFE01210348FFF79F
:1006A00049FE0248FFF784FF0BB000BD0020014067
:1006B00010B502F0CFF90121084602F0C1F801217E
:1006C000022002F0BDF80121042002F0B9F8012156
:1006D000082002F0B5F80121102002F0B1F8012144
:1006E000202002F0ADF80121402002F0A9F80121FC
:1006F000802002F0A5F80121080202F0A1F80121F2
:10070000084602F0ADF80121C80202F0A9F8012163
:10071000084602F0B5F80121080202F0B1F8012103
:10072000880302F0ADF810BD00B58FB000BF1548CA
:1007300000F007FB0028FAD10090019012480290C7
:100740000020039001200490002005904FF4806069
:100750000690400007908000089000010A90401227
:10076000099000200B9001200C9000200D900E901D
:100770006946044800F0F0FA0121024800F0D6FA78
:100780000FB000BD10640240000000201CB54FF403
:100790008061B74800F06EFF1020009000208DF8B7
:1007A000040001208DF807006946B24800F0EBFE16
:1007B0004FF48060009001208DF804008DF8070050
:1007C00000208DF805006946A94800F0DCFE0120F4
:1007D00000908DF8040002208DF8070000208DF8AD
:1007E00005006946A34800F0CEFE022000900120DB
:1007F0008DF8040002208DF8070000208DF8050018
:1008000069469C4800F0BFFE01219A4800F02FFF86
:100810000221984800F02BFF0420009000208DF862
:10082000040001208DF807006946924800F0ABFEF5
:100830000820009000208DF8040001208DF80700AA
:1008400069468C4800F09FFE1020009000208DF833
:10085000040001208DF807006946864800F093FEE9
:1008600003208DF804000120009000208DF807007F
:100870006946814800F087FE03208DF8040040207F
:10088000009000208DF8070069467C4800F07BFE50
:1008900003208DF804000820009000208DF8070048
:1008A0006946764800F06FFE03208DF804000220B0
:1008B000009000208DF8070069466F4800F063FE45
:1008C00002208DF8040000208DF806004FF480709F
:1008D000009000208DF8070003208DF80500694680
:1008E000664800F050FE02208DF8040000208DF8CC
:1008F00006004FF40070009000208DF807000320E0
:100900008DF8050069465D4800F03DFE02208DF837
:10091000040000208DF806004FF480600090002055
:100920008DF8070003208DF805006946534800F054
:100930002AFE02208DF8040000208DF806004FF4F6
:100940000050009000208DF8070003208DF805006E
:100950006946494800F017FE02208DF80400002087
:100960008DF806004FF48040009000208DF80700BD
:1009700003208DF8050069463F4800F004FE022080
:100980008DF8040000208DF806004FF40040009020
:1009900000208DF8070003208DF8050069463648D1
:1009A00000F0F1FD00208DF8040001208DF8060014
:1009B0000003009000208DF8070003208DF805004B
:1009C00069462D4800F0DFFD012208212B4800F088
:1009D00022FE01220921294800F01DFE01220A21E0
:1009E000264800F018FE01220D21234800F013FED6
:1009F00001220E21204800F00EFE01220F211E4888
:100A000000F009FE01220C211B4800F004FE4FF407
:100A10008060009000208DF8040003208DF8050010
:100A200000208DF807006946154800F0ACFD4FF432
:100A30000060009000208DF8040003208DF8050070
:100A400000208DF8070069460D4800F09CFD4FF42A
:100A50008050009000208DF8040003208DF80500E0
:100A600000208DF807006946054800F08CFD1CBD8C
:100A70000014024000100240000402400000024046
:100A8000001C024010B50421014800F0E7FD10BD34
:100A90000010024010B50821014800F0DFFD10BD34
:100AA0000010024038B54FF0FF300521002807DA6A
:100AB0000A07140E164A00F00F031B1FD45403E05C
:100AC0000A07130E134A135400BF4FF4A06001F03D
:100AD00065FE12208DF8000003208DF80100002033
:100AE0008DF8020001208DF80300684601F01AFE1F
:100AF00018208DF8000000208DF801008DF802000C
:100B000001208DF80300684601F00CFE38BD00009E
:100B100018ED00E000E400E000B58DB00121374899
:100B200002F07DF94FF40070ADF830002020ADF8F0
:100B30002A000020ADF8280001208DF8320041F293
:100B400081400B900AA92D4802F0BCFA7020ADF844
:100B500014000120ADF816000420ADF818000020A4
:100B60000790ADF82000ADF82200ADF82400ADF8F4
:100B7000260005A9214802F07FF905A91F4802F0C7
:100B8000B9F905A91D4802F007FA5420079005A9F4
:100B90001A4802F051FA7021184802F089FA4FF40D
:100BA0000060ADF804004010ADF806000020ADF87C
:100BB00008001520ADF80A004FF48050ADF80C0085
:100BC0004000ADF80E000020ADF8100001A90B4860
:100BD00002F00FF98021094802F01EF9012280215C
:100BE000064802F040F90121044802F0F6F801211C
:100BF000024802F020F90DB000BD000000000140E5
:100C00000EB54FF40070ADF808000020ADF80200FA
:100C1000ADF800008DF80A00401E019069464FF0C3
:100C2000804002F04FFA0121880702F0F8F80EBD6B
:100C300070B504460D460026FFF724FF1D494861A4
:100C4000FFF728FF1B49C8612E6B2879C0F34000CD
:100C500050B96069A8B9A069012812D1686820F06C
:100C60000200801C68600CE02879C0F3400040B1AD
:100C7000E06930B9206A012803D1686820F00200D9
:100C800068606069A061E0692062A068B04201D23A
:100C9000A66803E0E068B04200D9E668D4E9031032
:100CA000711A4843D4E90212891AB0FBF1F0E864E2
:100CB00070BD0000A806002010B504466078022828
:100CC00010D1207AC0F3800060B92146094800F0B5
:100CD00017F82146084800F013F82146074800F0AD
:100CE0000FF806E000200349886003498860034943
:100CF000886010BDD4060020E0060020EC0600202D
:100D00000A6D03689A420BD38268521C8260436862
:100D10009A420AD38A6822F00402121D8A6004E013
:100D2000826812B18268521E8260704721B10268E7
:100D300042F00102026003E0026822F00102026058
:100D40007047014600200A6802F001020AB1012042
:100D500000E000207047000010B500220268134B2D
:100D60001A40CC680B6823434C6923438C692343A6
:100D7000CC6923430C6A23434C6A23438C6A234384
:100D80004C6B23438C6B23431A430260426922F06D
:100D90000702D1E90B3423431A4342610B694360D4
:100DA0004B6883608B68C36010BD00003F801CF0FF
:100DB00010B504460021204601F03AFD002104F15F
:100DC000280000F0DCFB0020A0634FF48041E163C9
:100DD000002121646164D4F8A4008003A06700208E
:100DE000E06710BD10B504460021204601F020FD4B
:100DF000002104F1280000F0C2FB0020A0634FF4A2
:100E00008041E1630021216461646067A06710BDD7
:100E100010B50446206B10B1206B01280CD1A06BDB
:100E2000206104F1100000F09AFBE06B206204F1F5
:100E3000200000F094FBF8E0206B032802D0206B28
:100E4000042857D154F8840F401C2060D4E90001D5
:100E5000843C884247D1002030346065216F606C4B
:100E6000084440102066216F606C401A4010E16D0C
:100E70004843A066616FA06C084440106066616FD3
:100E8000A06C401A4010E16D4843E066606C20673A
:100E9000A06C6067206EA067606EE067A06E404344
:100EA000E16E01FB010000EE900AF8EEE00AB0EE00
:100EB000600A00F04DFCBDEEC00A04ED080A303CAB
:100EC00004F1100000F04BFBD4F88C00012803D192
:100ED000801EC4F88C0006E0D4F88C00401C10B9C9
:100EE0000120C4F88C0054F88C0FA16D4843606257
:100EF0008C3C9AE0206B06287ED1783454F8041C90
:100F0000E06F4843E16BA1EBA03060642168E06FC3
:100F10004843216CA1EBA030A064616D606C401A65
:100F2000E16C01EB0020A16F48430012E064A16D69
:100F3000A06C401A216D01EB0020A16F4843001204
:100F40002065606C6065A06CA06554F81C0CE16CB9
:100F50004843E16D01EB2020E06554F81C0C216D45
:100F60004843216E01EB20202066E06D783CB0F113
:100F7000805F02DAD4F8D40001E04FF08050B0F185
:100F8000704F0ADDD4F8D400B0F1805F02DAD4F8F3
:100F9000D40004E04FF0805001E04FF07040C4F8FE
:100FA000D400D4F8D800B0F1805F02DAD4F8D800C9
:100FB00001E04FF08050B0F1704F0ADDD4F8D80056
:100FC000B0F1805F02DAD4F8D80004E04FF080502E
:100FD00001E04FF07040643460672269D4F89C10DF
:100FE000206F01FB12008013A0676269D4F89C1087
:100FF000606F01FB120000E017E08013E067A06F54
:101000004043E16F01FB010000EE900AF8EEE00AB8
:10101000B0EE600A00F09CFBBDEEC00A04ED150ABC
:10102000643C04F1100000F09AFA10BD10B50446BB
:10103000002020636063002104F1100000F09FFA9B
:10104000002104F1200000F09AFA002020604FF403
:10105000804060600020A060E06020646064A06464
:10106000E064E067C4F88000C4F884007034D4E918
:101070001E01B0FBF1F04008A0610120E0610020FA
:1010800020626062A062E06220636063A063E0634C
:1010900020646065A065E06520666066A066703CBF
:1010A00010BD10B50446206B50BB206E2065606BF0
:1010B000401C6063A16E606B884218D1A16E206CE9
:1010C000B0FBF1F02064A16E606CB0FBF1F06064E5
:1010D000002104F1100000F052FA002104F1200078
:1010E00000F04DFA0120206300206063D5E0216C00
:1010F000606908442064616C606A08446064CCE004
:10110000206B012835D1606E2065606B401C6063E8
:10111000A16E606B884223D1A16EA06CB0FBF1F090
:10112000A064A16EE06CB0FBF1F0E064216CA06CF7
:10113000401A8003626CE16C891A90FBF1F0C4F8EC
:10114000F400002104F1100000F019FA002104F16C
:10115000200000F014FA02202063002060639CE06D
:10116000A16C60690844A064E16C606A0844E064B2
:1011700093E0206B02280BD1606B401C6063606BB6
:10118000B0F57A7FB2D1032020630020606384E051
:10119000206B03282AD1606B401C6063E16E606B9A
:1011A00088421ED1E16EE06FB0FBF1F0E067E16FC5
:1011B000D4F8EC004843D4F8E4108903B1FBF0F014
:1011C00080024FF47A61B0FBF1F0C4F8F80000211E
:1011D00004F1100000F0D3F90420206300206063C4
:1011E0005BE0E16F60690844E06756E0206B04282B
:1011F0002ED1206E2065606B401C6063E16E606BD9
:1012000088421ED154F8800F54F8141CB0FBF1F042
:1012100020602168E06E4843616E8903B1FBF0F005
:1012200080024FF47A61B0FBF1F0E067803C00216E
:1012300004F1100000F0A3F9052020630020606392
:101240002BE0D4F8801060690844C4F8800024E0E2
:10125000206B05280BD1606B401C6063606BB0F5A0
:101260007A7F1AD1062020630020606315E0206B8E
:10127000062812D1606B401C6063216F606B88424E
:101280000BD16069C4F80401002104F1100000F0E2
:1012900076F9072020630020606310BD10B5044676
:1012A0000021201D01F0C4FA002104F12C0000F0FF
:1012B00066F90020E0634FF48041216400216164FD
:1012C000A1642066606610BDF0B5056F002D02DADE
:1012D000056F6D4200E0056F2B46056F002D02DAA9
:1012E0004FF0FF3500E001252946456F002D02DA59
:1012F000456F6D4200E0456F2C46456F002D02DAC8
:101300004FF0FF3500E001252A462C30C56E5D43C5
:10131000AD136D42C66C06FB0156D0E91C57ED1BA0
:10132000876C7D43AD1307687D43AD1301FB1565E5
:101330004565C56E6543AD136D42066D06FB0256ED
:10134000D0E91C57ED1B476C7D43AD1307687D4307
:10135000AD1302FB056585652C38F0BD70B50446FC
:101360002C34E16BE06F484380134142226CD4F887
:1013700080005043801322685043A1EBA031626A81
:10138000A06F504301EBA021E26CA06F5043A1EB92
:10139000A020626E616B02FB00106063216CE06F45
:1013A000484380134142E26BD4F8800050438013DD
:1013B0002268504301EBA031A26AA06F504301EBB9
:1013C000A021226DA06F5043A1EBA020626EA16B03
:1013D00002FB0010A063606B2C3CB0F1805F01DA6F
:1013E000206E01E04FF08050B0F1704F08DD206EAC
:1013F000B0F1805F01DA206E04E04FF0805001E030
:101400004FF070402066606EB0F1805F01DA606E70
:1014100001E04FF08050B0F1704F08DD606EB0F128
:10142000805F01DA606E04E04FF0805001E04FF021
:1014300070406066206E8013A066606E8013E06668
:10144000A16DA06E401A2067E16DE06E401A6067E2
:10145000206B002802DA206B404200E0206B05463A
:10146000B5F5006F04DAD4F88800C110216112E0EC
:10147000B5F5805F04DAD4F88800811021610AE0B4
:10148000B5F5005F04DAD4F888004110216102E06C
:10149000D4F888102161D4F89410206F884203DDBD
:1014A000D4F89400A0670CE0D4F894104942206F5F
:1014B000884204DAD4F894004042A06701E0206F2B
:1014C000A067D4F89410606F884203DDD4F89400CC
:1014D000E0670CE0D4F894104942606F884204DA67
:1014E000D4F894004042E06701E0606FE067216C4F
:1014F000A06F484380132168494248436060616C93
:10150000E06F4843801321684843A060201D01F02C
:101510004FF9206AE06204F12C0000F020F8E26A42
:10152000D4F88C10E06C01FB0200E06403E0E06C96
:10153000A0F18050E064E06CB0F1805FF7DA03E086
:10154000E06C00F18050E064E06C0028F8DBE06CB7
:101550000014E06304F13C0000F0B0F870BDC16815
:10156000C1F58071826851430368C2685A4301EB38
:1015700002210912816081680912416070470A02E4
:10158000826041607047F0B50A46002100230024C4
:1015900000BF3DE0012505FA01F3156805EA0304E3
:1015A0009C4234D105684F000326BE40B543056018
:1015B00015794E00B5400668354305601579012D53
:1015C00002D01579022D16D185684F000326BE4042
:1015D000B543856055794E00B540866835438560D2
:1015E000456801268E40B5434560456896798E4032
:1015F000B6B235434560C5684F000326BE40B543CB
:10160000C560D5794E00B540C6683543C560491CF4
:101610001029BFD3F0BDF0B5002300244D07ED0E17
:1016200002FA05F3CE1000F1200555F826504E07BA
:10163000F70E0F26BE40B543CF1000F1200646F846
:101640002750CE1000F1200555F8265045EA030436
:10165000CE1000F1200545F82640F0BD02460020DE
:1016600013690B400BB1012000E0002070470A0411
:101670008261704781617047044BDB6B0360034BF1
:101680001B6C0B60014B5B6C1360704700200140CA
:101690000020094948638863C8630846008C4AF6FD
:1016A000AA21084004490884034844300088C0F354
:1016B0000E00A1F844007047000001400288C2F308
:1016C0000901028802F440624AB1B2F5806F12D07B
:1016D000B2F5006F1CD0B2F5406F34D126E01B4A42
:1016E00032F91120826040F2FF32521A174B33F95F
:1016F0001220426028E040F2FF32521A134B33F9B5
:10170000122082601A4632F91120524242601BE0D8
:101710000E4A32F911205242826040F2FF32521AD0
:101720000A4B33F91220524242600DE040F2FF3280
:10173000521A064B33F91220524282601A4632F98D
:101740001120426000E000BF00BF70477232000805
:10175000B5EEC00AF1EE10FA15DDB6EE001A20EE75
:10176000011AF0EE410A10EE100A094901EB60007F
:1017700000EE100A80EE801AF6EE001A01EE801AD2
:10178000B0EE410A03E0DFED030AB0EE600A7047F5
:10179000F51DBD1F00000000D0E90612C2EB41019B
:1017A000026A891A40F25552514309138164D0E903
:1017B0000712891A40F63D1251430913C16470475C
:1017C00010B5044600206065A0650021204601F0A8
:1017D0002FF8002104F1280001F02AF810BD10B5FF
:1017E0000446616F206D484380136066616F206D11
:1017F00048438013A066606E2062606E4042606263
:10180000606D2060E06D6060204600F0D1FFE0690F
:10181000E066A16EA164A06E4142E164A06DA06289
:10182000216EE16204F1280000F0C2FF606C2067C5
:1018300010BD426C016B5143C36BC26A01FB0231A4
:10184000C16303E0C16BA1F18051C163C16BB1F110
:10185000805FF7DA03E0C16B01F18051C163C16BB6
:101860000029F8DBC16B09140164704710B5044608
:10187000002020642046216801F037F804F11800A8
:10188000A16901F032F810BD10B50446204601F000
:1018900007F804F1180001F003F86169206B484370
:1018A000A06310BD4268416A51438368826A02FBAB
:1018B0001311891381658268416A51434368826AC2
:1018C00002FB03118913C16570474268816C514363
:1018D0008368C26C02FB031189130165816C494264
:1018E000826851434368C26C02FB0311891341654E
:1018F000704710B504460020C4F89400C4F898005E
:101900000021204600F094FF002104F1280000F09F
:101910008FFF002104F1500000F0E7FF10BD10B56B
:101920000446D4E91E014843D4F89C10884203DAE7
:10193000D4E91E01484301E0D4F89C00D4F8A0107B
:1019400088420DDDD4E91E014843D4F89C1088423A
:1019500003DAD4E91E01484304E0D4F89C0001E016
:10196000D4F8A000606504F1500000F099FF606EAB
:101970002060D4F880006060204600F019FF283411
:1019800040F63D11E06D484300132060206E404357
:10199000616E283C01FB0101E16204F1280000F0C6
:1019A00007FF606CA06604F16800FFF787FE216FF7
:1019B000E06948438013C4F89400E16EE06948434D
:1019C0008013C4F8980010BD002101604FF48041DD
:1019D000416000218160C1608165C1657047000080
:1019E000FEB500BF00BF00BF002100220026002777
:1019F00000970197029741F6B73CC76D07FB0CF7BC
:101A00003B13876D07EB4707FF1A7F10D0F814C010
:101A100007FB0CF73C13876DA7EB8707FF1A7F10B6
:101A2000D0F814C007FB0CF73D1347695F433B1325
:101A3000002780F84470002B04DD90F844707F1C70
:101A400080F84470002C04DD90F84470BF1C80F8CE
:101A50004470002D04DD90F844703F1D80F8447000
:101A600090F84470072F17D2DFE807F01607130429
:101A70000D0A100021461A460FE061426A420CE04E
:101A800019462A4609E05942624206E029462246A2
:101A900003E069425A4200E000BF00BF8E18C76EE3
:101AA000B74205DAC76E4F4397FBF6F1C76E7A1A55
:101AB00090F84470072F7DD2DFE807F09F1D850462
:101AC0004F366900022707FB012740F2555C07FBF0
:101AD0000CF73F13D0F810C007FB0CF73F138765D6
:101AE00040F63D1757433F13D0F810C007FB0CF7E3
:101AF0003F13C76582E0571A40F2555C07FB0CF7AD
:101B00003F13D0F810C007FB0CF73F1387658F1801
:101B100040F63D1C07FB0CF73F13D0F810C007FB45
:101B20000CF73F13C76569E057007F427F1A40F208
:101B3000555C07FB0CF73F13D0F810C007FB0CF700
:101B40003F13876540F63D174F433F13D0F810C051
:101B500007FB0CF73F13C76550E057007F427F1A21
:101B600040F2555C07FB0CF73F13D0F810C007FBA1
:101B70000CF73F13876540F63D174F433F137F42F5
:101B8000D0F810C007FB0CF73F13C76536E0571AB3
:101B900040F2555C07FB0CF73F13D0F810C007FB71
:101BA0000CF73F1387654F42BF1A40F63D1C07FBF9
:101BB0000CF700E021E03F13D0F810C007FB0CF752
:101BC0003F13C7651AE0022707FB012740F2555C67
:101BD00007FB0CF73F13D0F810C007FB0CF73F13BF
:101BE000876540F63D1757433F137F42D0F810C03A
:101BF00007FB0CF73F13C76500E000BF00BFC76ECF
:101C00007F1ABF1ABF10D0F870C007EB6C0700979F
:101C1000009F07EB61070197019F07EB620702979F
:101C200090F84470DFF830C01CF807705DF827703A
:101C3000076690F844C0084F083717F80C705DF835
:101C40002770476690F844C0034F103717F80C70A0
:101C50005DF827708766FEBD0800002010B50446B9
:101C6000002020642046216800F03FFE04F11800A7
:101C7000A16900F03AFE10BD014600208B694A6858
:101C80009A4215D28B698A689A4211D28B69CA68C6
:101C90009A420DD20A69521C0A610A69521C0A61F1
:101CA000CB699A4204D10A6822F00202921C0A60AF
:101CB0004A69521C4A610B6A4A699A4204D10A680D
:101CC00022F00402121D0A600A78C2F340022AB10F
:101CD0000A6822F001020A60012008E00A78C2F3D3
:101CE000800222B10A6822F001020A6002207047D5
:101CF000014600200A7802F001024AB900220A6077
:101D00000A614A610A6822F00102521C0A6000E07E
:101D10000120704770B504460025D4E909018842C6
:101D200011D80020E061D4E9090188422DD1E06A90
:101D300020B1201D616800F0D8FD26E0206B20B3A3
:101D4000606BE06121E0D4E90A010844616A8842DD
:101D500007D301202062201D00F0A2FDA069E061F0
:101D600013E0D4E90A010844216B0844616A8842FF
:101D700004D301202062606BE06106E00020606215
:101D8000206820F00200801C20602078C0F3400012
:101D900020B1206820F0010020600125606A401C0D
:101DA0006062284670BD014600200A7802F00102F8
:101DB00052B900220A604A62CA610A620A6822F0C5
:101DC0000102521C0A6000E0012070470146002019
:101DD0000A7802F001026AB900220A60CA620A6146
:101DE0004A618A614A628A620A6822F00102521CD0
:101DF0000A6000E001207047014600204B680A6934
:101E00001A440A618B684A691A444A61CB688A6934
:101E10001A448A61CA6A521CCA628B6BCA6A9A42A5
:101E200031D1CB6A0A69B2FBF3F20A61CB6A4A6923
:101E3000B2FBF3F24A61CB6A8A69B2FBF3F28A61C0
:101E40000B6B0A699A4213D84B6B0A699A420FD3FB
:101E50000B6B4A699A420BD84B6B4A699A4207D37B
:101E60000B6B8A699A4203D84B6B8A699A4205D2F6
:101E70000A6822F00402121D0A6004E00A6822F0D7
:101E80000202921C0A600A78C2F340022AB10A6870
:101E900022F001020A60012008E00A78C2F3800201
:101EA00022B10A6822F001020A600220704710B5D0
:101EB000044694F8240000F00100F0B104F5B87075
:101EC000FFF716FF01281DD104F5B870FFF7D4FE07
:101ED00020B1012803D002280DD106E00CE0FFF765
:101EE000D7FB042084F8200006E0FFF7D1FB002098
:101EF00084F8200000E000BF04E0FFF7C9FB0020E9
:101F000084F8200010BD10B5044694F8240000F0B9
:101F1000010028B1FFF7BCFB002084F8200006E098
:101F200004F5CC70FFF73FFF012800D100BF10BDC2
:101F300010B5044604F12C00FFF7B3F8D4F83815B7
:101F4000C4F8C01304F55070FFF7E9FC4FF4876044
:101F5000D4F8D4130151001DD4F8D813015110BD89
:101F600070B504464FF432700159A02001514FF46E
:101F700033700159A42001514FF436700159C4F84F
:101F8000E010001D0159C4F8E41004F12C00FEF724
:101F90003FFF04F5207004F5A161D1E91035CA6B4B
:101FA000896C80E82C00C160E06D072804D1A06A2C
:101FB00020F020002030A06204F52070FFF785FC9F
:101FC0004FF4347001594FF4886001514FF435706B
:101FD000015940F24440015104F57970FFF7FFFBCD
:101FE0004FF48A6001594FF42970015140F2544076
:101FF00001594FF42A70015170BD000010B504461C
:10200000A06A08B10020606294F82000024A52F8E9
:1020100020102046884710BD8406002070B5044675
:102020004FF42970015961664FF434700159A1666B
:102030004FF432700159A02001514FF4337001590F
:10204000A420015104F12C00FEF7E2FEE06D10B176
:10205000E06D01282CD104F5207004F12C012EC96B
:102060002EC01038FFF731FC4FF48760E16F01514B
:102070000021001D01514FF4347001594FF4886064
:1020800001514FF43570015940F24440015104F5BB
:102090007970FFF7A4FB4FF48A6001594FF429705F
:1020A000015140F2544001594FF42A7001514BE163
:1020B000E06D02282BD104F5207004F12C012EC90B
:1020C0002EC01038FFF701FC00214FF4876001514A
:1020D000001D01514FF4347001594FF488600151D3
:1020E0004FF43570015940F24440015104F57970C4
:1020F000FFF775FB4FF48A6001594FF429700151C5
:1021000040F2544001594FF42A7001511CE1E06D36
:10211000032838D104F5207004F12C012EC92EC0FB
:102120004FF43270D4F8D4100151001DD4F8D810F7
:10213000015104F52070FFF7C8FB00214FF48760C0
:102140000151001D01514FF4347001594FF4886062
:1021500001514FF43570015940F24440015104F5EA
:102160007970FFF73CFB4FF48A600159D4F8DC002A
:1021700001444FF42970015140F2544001594FF489
:102180002A700151E0E0E06D042838D104F5207098
:1021900004F12C012EC92EC04FF43270D4F8D410A3
:1021A0000151001DD4F8D810015104F52070FFF73B
:1021B0008CFB00214FF487600151001D01514FF449
:1021C000347001594FF4886001514FF43570015952
:1021D00040F24440015104F57970FFF700FB4FF4E1
:1021E0008A6001594FF42970015140F2544001595D
:1021F000D4F8DC0001444FF42A700151A4E0E06DF2
:10220000052871D104F5A160FFF748F8D4F8201132
:10221000C4F8A015D4F8240194ED030ABDEEC00A59
:1022200010EE101A48438112C4F8A415D4F82801FE
:1022300094ED030ABDEEC00A10EE101A4843811255
:10224000C4F8A815D4F8A415D4F8A805084441107A
:10225000C4F82C114FF08071D4F8A40591FBF0F173
:10226000C4F8AC15D4F8A0058103D4F8A40591FBFB
:10227000F0F1C4F8B015D4F8A415D4F8A805081ADC
:102280008103D4F8A40591FBF0F1C4F8B41504F56A
:10229000207004F12C012EC92EC01038FFF715FB59
:1022A00000214FF487600151001D01514FF434703B
:1022B00001594FF4886001514FF43570015940F2D3
:1022C0004440015104F57970FFF789FA4FF48A60B0
:1022D00001594FF42970015140F2544001594FF413
:1022E0002A70015130E0FFE7E06D06282CD104F59B
:1022F000F470FFF79EFA4FF40A700059C4F8800298
:1023000004F52070FFF7DAF904F52070FFF7DDFA25
:102310004FF4347001594FF4886001514FF4357017
:10232000015940F24440015104F57970FFF757FA22
:102330004FF48A6001594FF42970015140F2544022
:1023400001594FF42A70015170BD10B5044694F83C
:10235000240000F0010018B1052084F8200004E0FA
:10236000FFF796F9002084F8200010BD3EB5044622
:1023700094F8240000F0010000284FD000BF002096
:1023800000906A4601A902A8FFF776F90298C4F8FE
:1023900038010198C4F83C010098C4F8400100BF1E
:1023A00004F59A70FFF712FD012834D104F59A70F4
:1023B000FFF722FD20B1012803D0022829D11FE018
:1023C00028E04FF4A27001594FF42E7001514FF4E0
:1023D000A47001594FF42F7001514FF4A6700159A8
:1023E0004FF4307001514FF4AC700159C4F8181318
:1023F000001D0159C4F81C13022084F8200009E0D4
:10240000A06A20F00100401CA062002084F8200097
:1024100000E000BF07E0FFF73BF904E0FFF738F901
:10242000002084F820003EBD10B5044604F12C00C5
:10243000FEF737FEE06D062845D1D4F83815C4F80C
:10244000C01304F5F470FFF71FFA4FF40870015938
:102450004FF4876001510021001D01514FF4EA70D3
:102460000059401C4FF4EA710851091D095988426E
:1024700029D34FF46E700059D4F8C01348434FF479
:10248000EE71095988421BDBD4F8D001401C4FF48F
:10249000F071C4F8D0010959884214D300214FF4D7
:1024A000EA7001510020C4F8D001D4F8C003410003
:1024B00004F5647000F019FA012084F8210002E0AC
:1024C0000020C4F8D00110BD10B5044694F82400D3
:1024D00000F0010018B1052084F8200004E0FFF7A7
:1024E000D7F8002084F8200010BD10B5044694F8F9
:1024F000240000F0010000283AD00020C4F8D001E8
:1025000000214FF4EA7001514FF4F270015104F5CB
:10251000F470FFF7ABF904F50D70FFF79FFB04F5BE
:102520002070FFF751FA04F55070FFF7E2F904F557
:102530007970FFF745F904F12C00FEF777FD04F2FE
:102540005C40FEF735FC04F5A160FEF7A7FE04F53C
:10255000B760FEF747FC002084F82100D4F898010A
:1025600020F00100C4F89801012084F8200001E067
:10257000FFF78EF810BD00003EB5044694F8240025
:1025800000F00100002877D000BF002000906A46CC
:1025900001A902A8FFF770F804F52674029860619B
:1025A0000198A0610098E0616169206A401A616E3B
:1025B000484380122060A169606A401A616E4843F6
:1025C00080126060E169A06A401A616E484380121F
:1025D000A060A4F5267400BF04F52070FFF7DCF8B6
:1025E00094F8210010B92046FFF718FD4FF46E70E3
:1025F0000059C4F808054FF4327001594FF4AC602B
:1026000001514FF43370015940F2645001514FF4BD
:10261000367001594FF4AB6001514FF437700159D6
:1026200040F25C50015104F5A160FEF797FE04F5FD
:10263000A160FEF749FE94F82100012802D120464E
:10264000FFF78EFC04F52070FFF72CF904F52070DD
:1026500000F01AF800BF0B48008C45F255510843B2
:102660000849088407484430008840F40040A1F835
:10267000440000BF05E0FFE7FFF70AF8062084F8F2
:1026800020003EBD000001402DE9F0410746002634
:102690001248FFF7A5F91248D0F800031049D1F805
:1026A000E012484304130E48D0F800030C49D1F857
:1026B000E412484305130A48D0F800030849D1F84A
:1026C000E81248430613224628463146054B5A6312
:1026D0009863D96300BFBDE8F0810000B802002014
:1026E000380000200000014010B5044694F8200096
:1026F000052807D194F82100094A52F820102046F5
:1027000088470CE094F82000062808D104F5CC7026
:10271000FFF700FB012802D1002084F8200010BD43
:10272000A006002070B5002100230F22C4781CB33E
:10273000174C246804F4E064C4F5E064C4F3072192
:10274000C1F10404E3B20A4144789C40E1B28478C8
:10275000144021430C07210E0E4C05786155047876
:1027600004F01F050124AC4005786D11AD0005F1A2
:10277000E025C5F8004109E0047804F01F050124B4
:10278000AC40054D0678761145F8264070BD000036
:102790000CED00E000E400E080E100E002490143CC
:1027A000024A1160704700000000FA050CED00E0DD
:1027B000D0E90023D11AC368826903FB0122826138
:1027C000036A8269B2EB833F01DA826901E0026A3F
:1027D0009203436AB2EB833F09DD036A8269B2EB7D
:1027E000833F01DA826904E0026A920301E0426AEF
:1027F0009203826182699213426182684A4343690B
:1028000003EBA232C261D0E907239A4201DAC2691E
:1028100000E0026A436A9A4207DDD0E907239A4240
:1028200001DAC26902E0026A00E0426AC2617047EE
:1028300000220260426041618A038261C161704787
:1028400029B1064A12680243044B1A6004E0034AA5
:1028500012688243014B1A60704700003038024012
:1028600029B1064A12680243044B1A6004E0034A85
:1028700012688243014B1A607047000040380240E2
:1028800029B1064A12680243044B1A6004E0034A65
:1028900012688243014B1A607047000044380240BE
:1028A0004268910202698A420BDA836802691A441B
:1028B0008A4204DA836802691A44026111E0016104
:1028C0000FE002698A420BDDD0E903321A448A42E2
:1028D00004DDD0E903321A44026102E0016100E044
:1028E000016102699212426170478A02026141618C
:1028F000704700000CB5002001900090334800683C
:1029000040F480303149086000BF3048006800F46E
:10291000003000900198401C0190009818B901986F
:10292000B0F5A04FF1D12948006800F4003010B193
:102930000120009001E0002000900098012844D17F
:1029400022484030006840F0805020494031086003
:102950001F48006840F440401D4908601B4808308B
:1029600000681A490831086008460068086008468F
:10297000006840F4A05008601648091F0860081F4E
:10298000006840F08070091F086000BF0F480068B1
:1029900000F000700028F9D040F205700E49086080
:1029A0000A480830006820F0030008490831086030
:1029B0000846006840F00200086000BF0348083085
:1029C000006800F00C000828F8D10CBD0038024067
:1029D0000070004008544007003C024010B5024619
:1029E0001A481B49537863B3137AC3F3C0037BB906
:1029F000D36D0468A34208D383685B1C836044687A
:102A0000A34207D30023836004E00023836001E036
:102A100000238360137AC3F300137BB9D36D0C6872
:102A2000A34208D88B685B1C8B604C68A3420BD315
:102A300000238B6008E000238B6005E000238B609F
:102A400002E0002383608B6010BD0000F8060020C8
:102A50000407002030B51349481EB0F1807F01D330
:102A600001201BE0481E4FF0E022506150170F225A
:102A7000002807DA13071D0E0B4B00F00F04241F6C
:102A80001D5503E013071C0E084B1C5400BF00200B
:102A90004FF0E022906107201061002008B100BFD4
:102AA000FEE730BD4090020018ED00E000E400E0D9
:102AB00010B5054800F050F9034800F077F80348D6
:102AC000FFF712FE10BD00001007002038000020A4
:102AD00010B51548006840F47000134908601348A9
:102AE000006840F001001149086000200F490831DA
:102AF00008600E4800680E4908400C4908600D48FF
:102B0000091D0860081F006820F48020091F086064
:102B1000002006490C310860FFF7ECFE4FF0006022
:102B200001498039086010BD88ED00E0003802409E
:102B3000FFFFF6FE1030002410B50446207900F0A7
:102B40000100A8B121460B48FEF772F82046FEF7B7
:102B5000B3F82046FFF742FF204600F0F5FA204682
:102B600000F02EFB00BF00BF606820F00100606035
:102B700010BD0000A806002070B5044600250A48D4
:102B8000856CE56040F6FF75E5620025E56104F1BE
:102B90000C00FEF7E4FC04F12C00FEF7E0FC04F16D
:102BA0001C00FEF7DCFC70BD0020014010B504469F
:102BB0002046FFF7E1FF00BF5649D1F84806002143
:102BC000544AC2F8481600BF20652169606E484328
:102BD000801260654FF47A61E06C48438013A06511
:102BE00000BF1046D0F8C00348438013E065206A58
:102BF0002066012101204A1C02B9801E454AC2F804
:102C0000B803C2F81802C2F8640200BF2169D2F802
:102C1000F8224A4390123F4AC2F890024FF0807265
:102C200092FBF0F33B4AC2F89432C2F8C403C2F8F4
:102C3000340400BF94ED160AF8EEC00AB0EE001A94
:102C400060EE810ADFED341A80EEA11ADFED330A5F
:102C500061EE200A9FED321AC0EE811AFDEEE10A04
:102C60001046C0EDEF0A00BF00BF806A20B1A06827
:102C700020F00100401CA060607830B1012812D023
:102C800002281CD0032833D125E0E06E401CE0660A
:102C9000A16E884206D30020E066204600F042F88C
:102CA0000120607025E0A06810B10320607005E08D
:102CB0002079C0F3400008B10220607019E0A068DC
:102CC00010B10320607005E02079C0F3400008B91E
:102CD000012060700DE02079C0F3400038B9002079
:102CE000A06000BF0B49886200BF0120607000E057
:102CF00000BF00BF6078022805D100BF0120054950
:102D0000486200BF05E000BF00200249486200BFE2
:102D100000BF10BD38000020000070420000804657
:102D20005555054370B5044600250A48856C29466B
:102D300004F10C00FEF723FC40F6FF75294604F170
:102D40002C00FEF71CFC0025294604F11C00FEF7B0
:102D500016FC70BD002001400178491CC9B2017009
:102D60000A2910D300210170017901F0010129B96C
:102D7000416821F00101491C416004E0816821F0B3
:102D80000201891C8160704710B580210C4800F059
:102D900040F800BF00200A4948638863C8630846BA
:102DA000008C4AF6AA2108400549088404484430AA
:102DB0000088C0F30E00A1F8440000BF10BD000061
:102DC0000000014010B50121880700F043F818B158
:102DD0000121880700F01DF810BD21B1028842F0E2
:102DE0008002028004E002884FF67F731A4002805E
:102DF00070470A884B881A438B881A43CB881A433A
:102E00000B891A434B891A438B891A43A0F8442033
:102E10007047CA4302827047CA430282704721B199
:102E2000028842F00102028004E002884FF6FE733D
:102E30001A400280704731B1B0F8442042F4004299
:102E4000A0F8442005E0B0F84420C2F30E02A0F838
:102E50004420704702460020138A0B400BB101202A
:102E600000E0002070471AB183890B43838102E0A0
:102E700083898B438381704770B50024002200232F
:102E8000058C4FF6FE7635400584028C8388048BD2
:102E90004FF68F752C40B51E2C400D882C43751EA7
:102EA0002A408D892A434D882A43104DA84202D0DA
:102EB0000F4DA84213D14FF6F7752A40CD892A430A
:102EC0004FF6FB752A408D882A434FF6FF652B404D
:102ED0004FF6FF552B400D8A2B434D8A2B438380A1
:102EE00004838D684563028470BD000000000140CA
:102EF0000004014070B5002400220023058C4FF629
:102F0000EF7635400584028C8388048B48F6FF7584
:102F10002C404FF6FF452C400D884FF6FF7606EA11
:102F200005252C434FF6DF752A408D8906EA0515E5
:102F30002A434D8806EA05152A43154DA84202D0BA
:102F4000144DA8421DD14FF67F752A40CD894FF60A
:102F5000FF7606EA05152A434FF6BF752A408D888D
:102F600006EA05152A434FF6FF352B404FF2FF7551
:102F70002B400D8A06EA85052B434D8A06EA850516
:102F80002B43838004838D688563028470BD0000B9
:102F9000000001400004014070B50024002200231D
:102FA000058C4FF6FF6635400584028C8388848B40
:102FB0004FF68F752C404FF6FC752C400D882C4336
:102FC0004FF6FF552A408D894FF6FF7606EA052514
:102FD0002A434D8806EA05252A43154DA84202D00A
:102FE000144DA8421DD14FF2FF752A40CD894FF6EE
:102FF000FF7606EA05252A434FF6FF352A408D88DD
:1030000006EA05252A434EF6FF752B404DF6FF755F
:103010002B400D8A06EA05152B434D8A06EA051555
:103020002B43838084838D68C563028470BD000058
:10303000000001400004014070B50022002300247C
:10304000058C4EF6FF7635400584038C8488828B90
:1030500048F6FF752A404FF6FF452A400D884FF687
:10306000FF7606EA05252A434DF6FF752B408D892C
:1030700006EA05352B434D8806EA05352B430A4DF4
:10308000A84202D0094DA84208D14BF6FF752C404A
:103090000D8A4FF6FF7606EA85152C4384808283DD
:1030A0008D680564038470BD000001400004014088
:1030B00082884FF68F731A40828082880A4382800A
:1030C0007047000000220288184B98420ED0184B1F
:1030D00098420BD0B0F1804F08D0164B984205D0E3
:1030E000154B984202D0154B984204D14FF68F737E
:1030F0001A404B881A43124B984207D0114B984202
:1031000004D04FF6FF431A400B891A4302804B68E4
:10311000C3620B880385054B984202D0044B98424A
:1031200001D18B7A0386012383827047000001401E
:10313000000401400004004000080040000C004072
:10314000001000400014004010B502461A481B4908
:10315000537863B3137AC3F3C0137BB9136E046857
:10316000A34208D383685B1C83604468A34207D3EF
:103170000023836004E00023836001E00023836078
:103180001389C3F300237BB9136E0C68A34208D8DC
:103190008B685B1C8B604C68A3420BD300238B6055
:1031A00008E000238B6005E000238B6002E0002331
:1031B00083608B6010BD0000800700208C0700201A
:1031C00010B502461A481B49537863B3137AC3F308
:1031D00040137BB9536D0468A34208D383685B1C1A
:1031E00083604468A34207D30023836004E0002384
:1031F000836001E000238360137AC3F380137BB9FB
:10320000536D0C68A34208D88B685B1C8B604C68BC
:10321000A3420BD300238B6008E000238B6005E002
:1032200000238B6002E0002383608B6010BD0000F0
:1032300098070020A407002072B6FDF739FAFDF7C1
:10324000A5FAFDF771FAFDF7CFF9FDF765FCFDF77B
:10325000D7FCFDF727FC62B600BF0248FFF76CFC05
:10326000FBE70000100700204FF04070E1EE100A6D
:1032700070470000190032004B0064007D0096008A
:10328000AF00C900E200FB0014012D0146015F01FF
:1032900078019201AB01C401DD01F6010F022802A1
:1032A00041025B0274028D02A602BF02D802F10243
:1032B0000A0323033D0356036F038803A103BA03E4
:1032C000D303EC0305041E04370451046A04830489
:1032D0009C04B504CE04E7040005190532054B052E
:1032E00064057D059605AF05C805E105FA051306D9
:1032F0002C0645065E0677069006A906C206DB0682
:10330000F4060D0726073F07580771078A07A3072A
:10331000BC07D507EE0707082008390852086B08D4
:1033200084089C08B508CE08E70800091909320985
:103330004B0964097C099509AE09C709E009F90937
:10334000110A2A0A430A5C0A750A8D0AA60ABF0AEC
:10335000D80AF10A090B220B3B0B540B6C0B850BA3
:103360009E0BB60BCF0BE80B010C190C320C4B0C5F
:10337000630C7C0C950CAD0CC60CDE0CF70C100D20
:10338000280D410D590D720D8B0DA30DBC0DD40DE3
:10339000ED0D050E1E0E360E4F0E670E800E980EAA
:1033A000B10EC90EE20EFA0E120F2B0F430F5C0F77
:1033B000740F8C0FA50FBD0FD60FEE0F06101F1048
:1033C00037104F10681080109810B010C910E1101D
:1033D000F91011112A1142115A1172118A11A211F8
:1033E000BB11D311EB1103121B1233124B126312D8
:1033F0007B129412AC12C412DC12F4120C132413BC
:103400003C1354136C1383139B13B313CB13E313A9
:10341000FB1313142B1443145A1472148A14A21499
:10342000BA14D114E9140115191530154815601591
:1034300077158F15A715BE15D615EE1505161D1691
:1034400034164C1664167B169316AA16C216D91695
:10345000F11608171F1737174E1766177D179417A1
:10346000AC17C317DA17F2170918201838184F18B5
:1034700066187D189518AC18C318DA18F1180819D1
:10348000201937194E1965197C199319AA19C119F0
:10349000D819EF19061A1D1A341A4B1A621A791A1A
:1034A0008F1AA61ABD1AD41AEB1A021B181B2F1B4F
:1034B000461B5D1B731B8A1BA11BB71BCE1BE51B89
:1034C000FB1B121C281C3F1C551C6C1C831C991CCC
:1034D000AF1CC61CDC1CF31C091D201D361D4C1D19
:1034E000631D791D8F1DA61DBC1DD21DE81DFE1D6F
:1034F000151E2B1E411E571E6D1E831E991EB01ECB
:10350000C61EDC1EF21E081F1E1F341F491F5F1F30
:10351000751F8B1FA11FB71FCD1FE21FF81F0E20A5
:10352000242039204F2065207B209020A620BB201E
:10353000D120E720FC20122127213D2152216821A2
:103540007D219221A821BD21D221E821FD21122235
:1035500028223D22522267227D229222A722BC22CB
:10356000D122E622FB22102325233A234F23642372
:1035700079238E23A323B823CD23E123F6230B2421
:103580002024342449245E24732487249C24B024DA
:10359000C524DA24EE24032517252C25402554259F
:1035A00069257D259225A625BA25CF25E325F72572
:1035B0000B261F26342648265C267026842698264D
:1035C000AC26C026D426E826FC2610272427382738
:1035D0004C275F27732787279B27AF27C227D6272C
:1035E000EA27FD271128242838284B285F2872282D
:1035F00086289928AD28C028D428E728FA280E293B
:103600002129342947295A296E2981299429A72952
:10361000BA29CD29E029F329062A192A2C2A3F2A7A
:10362000522A652A772A8A2A9D2AB02AC22AD52AAE
:10363000E82AFA2A0D2B202B322B452B572B6A2BED
:103640007C2B8E2BA12BB32BC62BD82BEA2BFC2B40
:103650000F2C212C332C452C572C6A2C7C2C8E2C97
:10366000A02CB22CC42CD62CE82CF92C0B2D1D2D03
:103670002F2D412D522D642D762D882D992DAB2D7A
:10368000BC2DCE2DE02DF12D032E142E252E372E00
:10369000482E5A2E6B2E7C2E8D2E9F2EB02EC12E94
:1036A000D22EE32EF42E052F162F282F382F492F38
:1036B0005A2F6B2F7C2F8D2F9E2FAF2FBF2FD02FE8
:1036C000E12FF12F023013302330343044305530A5
:1036D0006530763086309630A730B730C730D83076
:1036E000E830F83008311831283138314931593152
:1036F0006931793188319831A831B831C831D83140
:10370000E731F7310732163226323632453255323A
:103710006432743283329332A232B132C132D03247
:10372000DF32EE32FE320D331C332B333A33493362
:1037300058336733763385339433A333B233C1338D
:10374000CF33DE33ED33FB330A34193427343634C8
:1037500044345334613470347E348C349B34A93413
:10376000B734C634D434E234F034FE340C351A3570
:10377000283536354435523560356E357C358935DA
:103780009735A535B335C035CE35DC35E935F73558
:10379000043612361F362C363A36473654366236E1
:1037A0006F367C3689369636A436B136BE36CB3681
:1037B000D836E536F136FE360B3718372537313730
:1037C0003E374B375737643771377D378A379637EF
:1037D000A337AF37BB37C837D437E037ED37F937C2
:1037E000053811381D382938353841384D385938A1
:1037F000653871387D3889389438A038AC38B73896
:10380000C338CF38DA38E638F138FD38083913399B
:103810001F392A39353941394C39573962396D39AF
:10382000783983398E399939A439AF39BA39C539DC
:10383000D039DA39E539F039FB39053A103A1A3A14
:10384000253A2F3A3A3A443A4F3A593A633A6D3A5E
:10385000783A823A8C3A963AA03AAA3AB43ABE3AC0
:10386000C83AD23ADC3AE63AF03AFA3A033B0D3B30
:10387000173B203B2A3B343B3D3B473B503B593BAE
:10388000633B6C3B753B7F3B883B913B9A3BA33B47
:10389000AD3BB63BBF3BC83BD13BDA3BE23BEB3BEE
:1038A000F43BFD3B063C0E3C173C203C283C313CA5
:1038B000393C423C4A3C533C5B3C633C6C3C743C72
:1038C0007C3C843C8C3C953C9D3CA53CAD3CB53C53
:1038D000BD3CC53CCC3CD43CDC3CE43CEC3CF33C47
:1038E000FB3C023D0A3D123D193D213D283D2F3D47
:1038F000373D3E3D453D4D3D543D5B3D623D693D5F
:10390000703D773D7E3D853D8C3D933D9A3DA13D8B
:10391000A73DAE3DB53DBB3DC23DC93DCF3DD63DCA
:10392000DC3DE23DE93DEF3DF53DFC3D023E083E1C
:103930000E3E143E1B3E213E273E2D3E333E383E7A
:103940003E3E443E4A3E503E553E5B3E613E663EF4
:103950006C3E713E773E7C3E823E873E8C3E923E80
:10396000973E9C3EA13EA73EAC3EB13EB63EBB3E1E
:10397000C03EC53ECA3ECE3ED33ED83EDD3EE13ED1
:10398000E63EEB3EEF3EF43EF83EFD3E013F063F95
:103990000A3F0E3F133F173F1B3F1F3F233F273F69
:1039A0002B3F2F3F333F373F3B3F3F3F433F473F57
:1039B0004A3F4E3F523F553F593F5D3F603F643F56
:1039C000673F6A3F6E3F713F743F783F7B3F7E3F6A
:1039D000813F843F873F8A3F8D3F903F933F963F93
:1039E000993F9C3F9E3FA13FA43FA63FA93FAC3FCC
:1039F000AE3FB13FB33FB53FB83FBA3FBC3FBF3F1B
:103A0000C13FC33FC53FC73FC93FCB3FCD3FCF3F7E
:103A1000D13FD33FD53FD73FD83FDA3FDC3FDE3FF2
:103A2000DF3FE13FE23FE43FE53FE73FE83FE93F7B
:103A3000EB3FEC3FED3FEE3FEF3FF03FF13FF23F1A
:103A4000F33FF43FF53FF63FF73FF83FF93FF93FCB
:103A5000FA3FFB3FFB3FFC3FFC3FFD3FFD3FFE3F8E
:103A6000FE3FFE3FFF3FFF3FFF3FFF3FFF3FFF3F68
:103A7000FF3F0000943A000800000020B00700005B
:103A8000C4010008483C0008B007002060060000A0
:103A9000200200089122011B0202051114020101FB
:103AA0002A02072A0214290B1A010B19063A0211DD
:103AB0001A0125290F1114254201001B285C4155CC
:103AC00055054384705144FFFF3F40F9AE6A3B5FA8
:103AD000AE493D90C2F53B0A1D0D10011C328823F2
:103AE000590323A704234F094BD00704037210275F
:103AF0001AF684321032080247FA23D00623400512
:103B0000021B143232320A5B88137D312333031ACD
:103B1000663C14AE4701051452B8FEFF726442C8F9
:103B200029B97129484B33075881234F091AC4E03A
:103B3000BC3CFBFF4C1A9918237502CB8BFD180176
:103B40001032881AD194411A1A082396010B406A40
:103B5000FE4C0168233B0F32C432834B0220040326
:103B60004604291AC6F802132F23ED1B053013E46F
:103B7000FFFF2326310B30DACE38D132408AC044E1
:103B80001B852D040123092628011CA3AB2A23CC65
:103B900098031399012A8004C9E402530D69803205
:103BA0008823590323CB1323F80423960723721584
:103BB0001A2F08C12302B00A75D7B0297869A84B1B
:103BC000CC0CA823CF061B5D08C4222523B42E9B52
:103BD00063F18413400102140A0959AC69A023BFA0
:103BE0002123EB2963EDB413EB2414086D231B0888
:103BF0004B0413AF1E1B08C9101379251408071FA7
:103C00001B08290C1A31083264323223D80E3AC804
:103C1000C0011A23A28B69DC23E8A2293C411B2E98
:103C2000BA101980517B900118118A042401180AD6
:103C30003D1910C18B0220882908697C8BDC050C9A
:083C40008B712BC48B830F0C68
:040000050800018965
:00000001FF
