:020000040800F2
:1000000090110020690200087102000873020008C4
:10001000750200087702000879020008000000005D
:100020000000000000000000000000007B0200084B
:100030007D020008000000007F020008B9240008CB
:10004000830200088302000883020008830200087C
:10005000830200088302000883020008830200086C
:10006000830200088302000883020008830200085C
:10007000830200088302000883020008830200084C
:100080008302000883020008ED04000883020008D0
:10009000830200088302000883020008830200082C
:1000A0000D2700088302000883020008830200086D
:1000B0004927000883020008830200088302000821
:1000C00083020008830200088302000883020008FC
:1000D00083020008830200088302000883020008EC
:1000E00083020008830200088302000883020008DC
:1000F00083020008830200088302000883020008CC
:1001000083020008830200088302000883020008BB
:1001100083020008830200088302000883020008AB
:10012000830200088302000883020008830200089B
:10013000830200088302000883020008830200088B
:10014000830200088302000883020008830200087B
:10015000830200088302000883020008830200086B
:10016000830200088302000883020008830200085B
:10017000830200088302000883020008830200084B
:10018000830200088302000800F002F800F05CF827
:100190000AA090E8000C82448344AAF10107DA45E2
:1001A00001D100F051F8AFF2090EBAE80F0013F0D8
:1001B000010F18BFFB1A43F001031847DC3200009F
:1001C000FC3200000A444FF0000C10F8013B13F021
:1001D000070408BF10F8014B1D1108BF10F8015BA0
:1001E000641E05D010F8016B641E01F8016BF9D193
:1001F00013F0080F1EBF10F8014BAD1C0C1B09D1EA
:100200006D1E58BF01F801CBFAD505E014F8016B5B
:1002100001F8016B6D1EF9D59142D6D370470000ED
:100220000023002400250026103A28BF78C1FBD8FF
:10023000520728BF30C148BF0B6070471FB502F09E
:100240001DFD1FBD10B510BD00F0D5F81146FFF71C
:10025000F5FF02F0E9FC00F0F3F803B4FFF7F2FF5A
:1002600003BC00F0F7F80000094880470948004740
:10027000FEE7FEE7FEE7FEE7FEE7FEE7FEE7FEE756
:10028000FEE7FEE704480549054A064B70470000B3
:10029000D924000889010008900B0020901100204B
:1002A000900D0020900D0020032A40F2308010F0C5
:1002B000030C00F0158011F8013BBCF1020F624401
:1002C00098BF11F801CB00F8013B38BF11F8013B92
:1002D000A2F1040298BF00F801CB38BF00F8013B3F
:1002E00011F0030300F02580083AC0F0088051F8AF
:1002F000043B083A51F804CBA0E80810F5E7121DBA
:100300005CBF51F8043B40F8043BAFF30080D207D8
:1003100024BF11F8013B11F801CB48BF11F8012BA4
:1003200024BF00F8013B00F801CB48BF00F8012BC7
:10033000704710B5203AC0F00B80B1E81850203A51
:10034000A0E81850B1E81850A0E81850BFF4F5AF75
:100350005FEA027C24BFB1E81850A0E8185044BFFF
:1003600018C918C0BDE810405FEA827C24BF51F86C
:10037000043B40F8043B08BF7047D20728BF31F860
:10038000023B48BF11F8012B28BF20F8023B48BFB1
:1003900000F8012B70474FF0000200B51346944659
:1003A0009646203922BFA0E80C50A0E80C50B1F1CD
:1003B0002001BFF4F7AF090728BFA0E80C5048BFE1
:1003C0000CC05DF804EB890028BF40F8042B08BF7F
:1003D000704748BF20F8022B11F0804F18BF00F87B
:1003E000012B704770477047704700000048704706
:1003F0002C0B002070477546FFF7F8FFAE4605004E
:100400006946534620F00700854618B020B5FFF72F
:1004100039FFBDE820404FF000064FF000074FF0D5
:1004200000084FF0000B21F00701AC46ACE8C00912
:10043000ACE8C009ACE8C009ACE8C0098D4670471B
:1004400010B50446AFF300802046BDE81040FFF72A
:1004500004BF000001491820ABBEFEE726000200E1
:10046000CA430260704700220A12D34303607047F8
:1004700021B1826842F00102826003E0826822F0CA
:1004800001028260704700000021084A1168084A92
:100490001140D0E900231A4383681A43C3681A4302
:1004A0001143044AC2F804137047000004230140BA
:1004B000E030FCFF002001400A460021816821F461
:1004C00070211143816070470A460021816821F440
:1004D00040111143816070470246002013680B40B1
:1004E0000BB1012000E000207047000010B504218E
:1004F0000E48FFF7F1FFB8B104210C48FFF7B0FF39
:100500000B4801F0ADFB0A48D0F8C8010949086062
:100510000748D0F8CC0148600548D0F8D001886081
:100520000C22012001F0C0FE10BD0000002001409F
:10053000380000200C0B002010B50B460021D9B26A
:10054000012404FA01F11AB144680C43446002E04A
:1005500044688C43446010BD30B50246002000233F
:100560005068104C20400D790C6844EA0524204363
:10057000506090680C4C2040D1E903542C438D68A6
:100580002C434D7944EA450420439060D06A20F41E
:1005900070000C7D641EE4B2234340EA0350D06235
:1005A00030BD0000FFFEFFFCFDF7FFC0F0B50446C4
:1005B0001546002000220026092911DDE068A1F17E
:1005C0000A0707EB470C072707FA0CF29043A1F143
:1005D0000A0707EB470703FA07F21043E0600CE055
:1005E000206901EB410C072707FA0CF2904301EB5D
:1005F000410703FA07F210432061A06BC0F30156D4
:10060000EF1C06F1010CA7EB0C0707EB870C1F276B
:1006100007FA0CF29043EF1C06F1010CA7EB0C0754
:1006200007EB870701FA07F21043A063F0BD21B181
:10063000426842F48052426003E0426822F48052F1
:100640004260704710B50A4600210023816B21F4F7
:100650004011531E41EA0351816310BDF0B50446B9
:100660000D4600200021092D11DDE068A5F10A06E4
:1006700006EB4607072606FA07F18843A5F10A06A6
:1006800006EB460603FA06F10843E0600CE0206939
:1006900005EB4507072606FA07F1884305EB4506F3
:1006A00003FA06F108432061072A0FDA606B561E31
:1006B00006EB86071F2606FA07F18843561E06EB4F
:1006C000860605FA06F10843606322E00D2A0FDA78
:1006D000206BD61F06EB86071F2606FA07F1884314
:1006E000D61F06EB860605FA06F10843206310E0E4
:1006F000E06AA2F10D0606EB86071F2606FA07F14F
:100700008843A2F10D0606EB860605FA06F10843BA
:10071000E062F0BD816841F0804181607047000077
:1007200038B10849096841F40001074AC2F80413C6
:1007300006E00449096821F40001034AC2F80413E1
:1007400070470000042301400020014000B58BB039
:100750000120FFF7E5FF00200990079008900A901C
:1007600007A8FFF791FE0020019001208DF80800F6
:100770008DF8090000200390059001208DF81800E5
:1007800001A92348FFF7E8FE0423012200212048A5
:10079000FFF764FF04211E48FFF754FF01231A46A8
:1007A00008211B48FFF702FF0123022206211848F7
:1007B000FFF7FCFE0123032211461548FFF7F6FE62
:1007C0000123042209211248FFF7F0FE00211048FE
:1007D000FFF72DFF4FF400110D48FFF775FE4FF4A2
:1007E00080310B48FFF768FE40F207410848FFF7E9
:1007F0003AFE012240F207410548FFF79DFE012124
:100800000348FFF735FE0248FFF784FF0BB000BD39
:100810000020014010B501F021FE0121084601F041
:10082000AFFC0121022001F0ABFC0121042001F00A
:10083000A7FC0121082001F0A3FC0121102001F0F8
:100840009FFC0121202001F09BFC0121402001F0B0
:1008500097FC0121802001F093FC0121080201F0A6
:100860008FFC0121084601F09BFC0121C80201F028
:1008700097FC0121084601F0A3FC0121080201F0C8
:100880009FFC0121880301F09BFC10BD00B58FB0D7
:1008900000BF154800F0C0FA0028FAD1009001907E
:1008A000124802900020039001200490002005903F
:1008B0004FF480600690400007908000089000018F
:1008C0000A904012099000200B9001200C9000200B
:1008D0000D900E906946044800F0A8FA01210248E4
:1008E00000F08FFA0FB000BD10640240000000203D
:1008F0001CB54FF48061B74800F0A5FC10200090B3
:1009000000208DF8040001208DF807006946B248E8
:1009100000F022FC4FF48060009001208DF804006C
:100920008DF8070000208DF805006946A94800F001
:1009300013FC012000908DF8040002208DF80700C0
:1009400000208DF805006946A34800F005FC022050
:10095000009001208DF8040002208DF8070000208F
:100960008DF8050069469C4800F0F6FB01219A4885
:1009700000F066FC0221984800F062FC0420009020
:1009800000208DF8040001208DF807006946924888
:1009900000F0E2FB0820009000208DF80400012008
:1009A0008DF8070069468C4800F0D6FB10200090B7
:1009B00000208DF8040001208DF807006946864864
:1009C00000F0CAFB03208DF80400012000900020F5
:1009D0008DF807006946814800F0BEFB03208DF8C2
:1009E00004004020009000208DF8070069467C48F4
:1009F00000F0B2FB03208DF80400082000900020D6
:100A00008DF807006946764800F0A6FB03208DF8B4
:100A100004000220009000208DF8070069466F480E
:100A200000F09AFB02208DF8040000208DF80600EB
:100A30004FF48070009000208DF8070003208DF89F
:100A400005006946664800F087FB02208DF8040027
:100A500000208DF806004FF40070009000208DF803
:100A6000070003208DF8050069465D4800F074FB1F
:100A700002208DF8040000208DF806004FF48060FD
:100A8000009000208DF8070003208DF805006946CE
:100A9000534800F061FB02208DF8040000208DF81F
:100AA00006004FF40050009000208DF8070003204E
:100AB0008DF805006946494800F04EFB02208DF88C
:100AC000040000208DF806004FF4804000900020C4
:100AD0008DF8070003208DF8050069463F4800F0B7
:100AE0003BFB02208DF8040000208DF806004FF437
:100AF0000040009000208DF8070003208DF80500CD
:100B00006946364800F028FB00208DF804000120DB
:100B10008DF806000003009000208DF807000320E8
:100B20008DF8050069462D4800F016FB01220821CA
:100B30002B4800F059FB01220921294800F054FB01
:100B400001220A21264800F04FFB01220D212348F3
:100B500000F04AFB01220E21204800F045FB012253
:100B60000F211E4800F040FB01220C211B4800F021
:100B70003BFB4FF48060009000208DF804000320C0
:100B80008DF8050000208DF807006946154800F033
:100B9000E3FA4FF40060009000208DF80400032079
:100BA0008DF8050000208DF8070069460D4800F01B
:100BB000D3FA4FF48050009000208DF804000320F9
:100BC0008DF8050000208DF807006946054800F003
:100BD000C3FA1CBD00140240001002400004024091
:100BE00000000240001C024010B50421014800F042
:100BF0001EFB10BD0010024010B50821014800F096
:100C000016FB10BD0010024038B54FF0FF30052133
:100C1000002807DA0A07140E164A00F00F031B1FFC
:100C2000D45403E00A07130E134A135400BF4FF4C1
:100C3000A06001F053FA12208DF8000003208DF817
:100C4000010000208DF8020001208DF803006846A5
:100C500001F008FA18208DF8000000208DF801003E
:100C60008DF8020001208DF80300684601F0FAF9C2
:100C700038BD000018ED00E000E400E000B58DB0E4
:100C80000121374801F08DFD4FF40070ADF83000C0
:100C90002020ADF82A000020ADF8280001208DF8B2
:100CA000320041F281400B900AA92D4801F0CCFEA0
:100CB0007020ADF814000120ADF816000420ADF846
:100CC000180000200790ADF82000ADF82200ADF824
:100CD0002400ADF8260005A9214801F08FFD05A9E3
:100CE0001F4801F0C9FD05A91D4801F017FE542059
:100CF000079005A91A4801F061FE7021184801F01B
:100D000099FE4FF40060ADF804004010ADF8060005
:100D10000020ADF808001520ADF80A004FF480500F
:100D2000ADF80C004000ADF80E000020ADF810004A
:100D300001A90B4801F01FFD8021094801F02EFD9B
:100D400001228021064801F050FD0121044801F0F4
:100D500006FD0121024801F030FD0DB000BD00008C
:100D6000000001400EB54FF40070ADF808000020FF
:100D7000ADF80200ADF800008DF80A00401E0190A9
:100D800069464FF0804001F05FFE0121880701F0C5
:100D900008FD0EBD30B500220A6B0B79C3F340038A
:100DA00053B94369ABB98369012B12D14B6823F066
:100DB00002039B1C4B600CE00B79C3F3400343B16F
:100DC000C36933B9036A012B03D14B6823F00203D3
:100DD0004B6043698361C36903628368934201D2B4
:100DE000826803E0C368934200D9C268D0E9034334
:100DF000141B6343D0E90245641BB3FBF4F3CB64DB
:100E000030BD21B1026842F00102026003E00268D5
:100E100022F0010202607047014600200A6802F0D9
:100E200001020AB1012000E00020704710B5002245
:100E30000268134B1A40CC680B6823434C69234368
:100E40008C692343CC6923430C6A23434C6A2343B4
:100E50008C6A23434C6B23438C6B23431A430260FD
:100E6000426922F00702D1E90B3423431A4342615D
:100E70000B6943604B6883608B68C36010BD0000E2
:100E80003F801CF010B504460021204601F070F9A7
:100E9000002104F1280000F05BF90020A0634FF46A
:100EA0008041E163002121646164D4F89C008003E7
:100EB000A0670020E06710BD10B504460021201D8A
:100EC00001F056F9002104F12C0000F041F9002056
:100ED000E0634FF48041216400216164A1642066D5
:100EE000606610BDF0B5056F002D02DA056F6D422A
:100EF00000E0056F2B46056F002D02DA4FF0FF353D
:100F000000E001252946456F002D02DA456F6D424C
:100F100000E0456F2C46456F002D02DA4FF0FF359B
:100F200000E001252A462C30856E5D43AD136D42ED
:100F3000C66C06FB0156D0E91B57ED1B876C7D4341
:100F4000AD1307687D43AD1301FB15654565856EDF
:100F50006543AD136D42066D06FB0256D0E91B5783
:100F6000ED1B476C7D43AD1307687D43AD1302FB5A
:100F7000056585652C38F0BD10B504462C34E16B51
:100F8000A06F484380134142226CE06F50438013AE
:100F900022685043A1EBA031626A606F504301EBBD
:100FA000A021E26C606F5043A1EBA020226E616B28
:100FB00002FB00106063216CA06F48438013414224
:100FC000E26BE06F504380132268504301EBA03185
:100FD000A26A606F504301EBA021226D606F504305
:100FE000A1EBA020226EA16B02FB0010A063606B3E
:100FF0002C3CB0F1805F01DA206E01E04FF08050B0
:10100000B0F1704F08DD206EB0F1805F01DA206E24
:1010100004E04FF0805001E04FF070402066606EB9
:10102000B0F1805F01DA606E01E04FF08050B0F106
:10103000704F08DD606EB0F1805F01DA606E04E031
:101040004FF0805001E04FF070406066206E8013DA
:10105000A066606E8013E066A16DA06E401A2067E6
:10106000E16DE06E401A6067D4F89010206F8842FE
:1010700003DDD4F89000A0670CE0D4F8901049424A
:10108000206F884204DAD4F890004042A06701E063
:10109000206FA067D4F89010606F884203DDD4F809
:1010A0009000E0670CE0D4F890104942606F8842ED
:1010B00004DAD4F890004042E06701E0606FE06736
:1010C000216CA06F48438013216849424843606007
:1010D000616CE06F4843801321684843A060201D85
:1010E00001F006F8206AE06204F12C0000F020F81C
:1010F000E26AD4F88810E06C01FB0200E06403E0CF
:10110000E06CA0F18050E064E06CB0F1805FF7D259
:1011100003E0E06C00F18050E064E06C0028F8DB54
:10112000E06C0014E06304F13C0000F0B1F810BD85
:10113000C168C1F58071826851430368C2685A432F
:1011400001EB022109128160816809124160704738
:101150000A02826041607047F0B50A460021002310
:10116000002400BF3DE0012505FA01F3156805EAFA
:1011700003049C4234D105684F000326BE40B543AA
:10118000056015794E00B540066835430560157950
:10119000012D02D01579022D16D185684F00032646
:1011A000BE40B543856055794E00B54086683543ED
:1011B0008560456801268E40B5434560456896794F
:1011C0008E40B6B235434560C5684F000326BE4029
:1011D000B543C560D5794E00B540C6683543C56096
:1011E000491C1029BFD3F0BDF0B5002300244D07E2
:1011F000ED0E02FA05F3CE1000F1200555F8265049
:101200004E07F70E0F26BE40B543CF1000F1200663
:1012100046F82750CE1000F1200555F8265045EA33
:101220000304CE1000F1200545F82640F0BD02462B
:10123000002013690B400BB1012000E00020704733
:101240000A0482617047816170470000044BDB6BC8
:101250000360034B1B6C0B60014B5B6C13607047AE
:10126000002001400020094948638863C86308469C
:10127000008C4AF6AA2108400449088403484430F7
:101280000088C0F30E00A1F8440070470000014040
:101290000288C2F30901028802F440624AB1B2F541
:1012A000806F12D0B2F5006F1CD0B2F5406F34D110
:1012B00026E01B4A32F91120826040F2FF32521AB6
:1012C000174B33F91220426028E040F2FF32521AE5
:1012D000134B33F9122082601A4632F91120524220
:1012E00042601BE00E4A32F911205242826040F205
:1012F000FF32521A0A4B33F91220524242600DE07B
:1013000040F2FF32521A064B33F9122052428260E9
:101310001A4632F91120426000E000BF00BF70475A
:10132000862C0008D0E90612C2EB4101026A891A34
:1013300040F25552514309138164D0E90712891ACA
:1013400040F63D1251430913C164704710B504467D
:1013500000206065A0650021204600F009FF002103
:1013600004F1280000F004FF10BD10B50446616FC1
:10137000206D484380136066616F206D4843801381
:10138000A066606E2062606E40426062606D2060A8
:10139000E06D6060204600F0ABFEE069E066A16EA3
:1013A000A164A06E4142E164A06DA062216EE16281
:1013B00004F1280000F09CFE606C206710BD10B5A1
:1013C000044604F1300000F00BFF10BDC26D816CCB
:1013D0005143436DC26A01FB0231416503E0416D37
:1013E000A1F180514165416DB1F1805FF7D203E019
:1013F000416D01F180514165416D0029F8DB416D7E
:1014000009148165704710B504460020A065204688
:10141000216800F00AFF04F11800A16900F005FF3F
:10142000002104F1300000F000FF10BD10B50446AB
:10143000204600F0D5FE04F1180000F0D1FE6169ED
:10144000A06C4843206510BD4268416A51438368DF
:10145000826A02FB1311891381658268416A5143D4
:101460004368826A02FB03118913C16570474268B1
:10147000816C51438368C26C02FB031189130165BF
:10148000816C4942826851434368C26C02FB03117C
:1014900089134165704710B504460020C4F89400D4
:1014A000C4F898000021204600F062FE002104F1FB
:1014B000280000F05DFE002104F1500000F0B5FEB0
:1014C00010BD10B50446D4E91E014843D4F89C1061
:1014D000884203DAD4E91E01484301E0D4F89C00B5
:1014E000D4F8A01088420DDDD4E91E014843D4F899
:1014F0009C10884203DAD4E91E01484304E0D4F882
:101500009C0001E0D4F8A000606504F1500000F0F8
:1015100067FE606E2060D4F880006060204600F0B6
:10152000E7FD283440F63D11E06D4843001320608C
:10153000206E4043616E283C01FB0101E16204F131
:10154000280000F0D5FD606CA06604F16800FFF78C
:101550009FFE216FE06948438013C4F89400E16E58
:10156000E06948438013C4F8980010BD0021016071
:1015700041608160C1608165C1657047FEB500BF93
:1015800000BF00BF0021002200260027009701971E
:10159000029741F6B73CC76D07FB0CF73B13876D0D
:1015A00007EB4707FF1A7F10D0F814C007FB0CF7B2
:1015B0003C13876DA7EB8707FF1A7F10D0F814C084
:1015C00007FB0CF73D1347695F433B13002780F887
:1015D0004470002B04DD90F844707F1C80F8447048
:1015E000002C04DD90F84470BF1C80F84470002D7E
:1015F00004DD90F844703F1D80F8447090F844700A
:10160000072F17D2DFE807F0160713040D0A1000A2
:1016100021461A460FE061426A420CE019462A460A
:1016200009E05942624206E02946224603E0694247
:101630005A4200E000BF00BF8E18C76EB74205DAFD
:10164000C76E4F4397FBF6F1C76E7A1AC76E7F1AC3
:10165000BF1ABF10D0F870C007EB6C070097009F4F
:1016600007EB61070197019F07EB6207029790F86C
:101670004470072F7ED2DFE807F09F1D85044F36A8
:101680006900022707FB012740F2555C07FB0CF7B6
:101690003F13D0F810C007FB0CF73F13876540F6E7
:1016A0003D1757433F13D0F810C007FB0CF73F130B
:1016B000C76582E0571A40F2555C07FB0CF73F13F1
:1016C000D0F810C007FB0CF73F1387658F1840F662
:1016D0003D1C07FB0CF73F13D0F810C007FB0CF7BD
:1016E0003F13C76569E057007F427F1A40F2555C9F
:1016F00007FB0CF73F13D0F810C007FB0CF73F13A4
:10170000876540F63D174F433F13D0F810C007FBE5
:101710000CF73F13C76550E057007F427F1A40F235
:10172000555C07FB0CF73F13D0F810C007FB0CF714
:101730003F13876540F63D174F433F137F42D0F874
:1017400010C007FB0CF73F13C76536E0571A40F28D
:10175000555C07FB0CF73F13D0F810C007FB0CF7E4
:101760003F1387654F42BF1A40F63D1C07FB0CF73D
:101770003F1300E020E0D0F810C007FB0CF73F1348
:10178000C7651AE0022707FB012740F2555C07FBFB
:101790000CF73F13D0F810C007FB0CF73F13876519
:1017A00040F63D1757433F137F42D0F810C007FB68
:1017B0000CF73F13C76500E000BF00BF90F844700E
:1017C000DFF830C01CF807705DF82770076690F8E6
:1017D00044C0084F083717F80C705DF8277047664B
:1017E00090F844C0034F103717F80C705DF827705D
:1017F0008766FEBD0800002010B504460020A065E5
:101800002046216800F011FD04F11800A16900F0E4
:101810000CFD002104F1300000F007FD10BD014671
:1018200000208B694A689A4215D28B698A689A426D
:1018300011D28B69CA689A420DD20A69521C0A6198
:101840000A69521C0A61CB699A4204D10A6822F0E3
:101850000202921C0A604A69521C4A610B6A4A6978
:101860009A4204D10A6822F00402121D0A600A7822
:10187000C2F340022AB10A6822F001020A60012084
:1018800008E00A78C2F3800222B10A6822F001025D
:101890000A6002207047014600200A7802F0010227
:1018A0004AB900220A600A614A610A6822F001020C
:1018B000521C0A6000E00120704770B50446002504
:1018C000D4E90801884211D80020E061D4E9080178
:1018D000884229D1A06A20B1201D616800F0A5FCD2
:1018E00022E0E06A00B3206BE0611DE0D4E9090169
:1018F0000844216A884205D3201D00F071FCA069CC
:10190000E06111E0D4E909010844E16A0844216A70
:10191000884202D3206BE06106E00020206220684C
:1019200020F00200801C20602078C0F3400020B12D
:10193000206820F0010020600125206A401C206200
:10194000284670BD014600200A7802F001024AB91B
:1019500000220A600A62CA610A6822F00102521C6F
:101960000A6000E001207047014600200A7802F07A
:1019700001026AB900220A60CA620A614A618A6188
:101980004A628A620A6822F00102521C0A6000E080
:1019900001207047014600204B680A691A440A6119
:1019A0008B684A691A444A61CB688A691A448A6119
:1019B000CA6A521CCA628B6BCA6A9A4231D1CB6A1C
:1019C0000A69B2FBF3F20A61CB6A4A69B2FBF3F22D
:1019D0004A61CB6A8A69B2FBF3F28A610B6B0A69CE
:1019E0009A4213D84B6B0A699A420FD30B6B4A6920
:1019F0009A420BD84B6B4A699A4207D30B6B8A69A0
:101A00009A4203D84B6B8A699A4205D20A6822F03F
:101A10000402121D0A6004E00A6822F00202921C0D
:101A20000A600A78C2F340022AB10A6822F0010271
:101A30000A60012008E00A78C2F3800222B10A6835
:101A400022F001020A600220704710B5044604F13A
:101A5000A40000F0C5FBBC200059401CBC2108516B
:101A6000BC20005978B94FF44060C4F8B00104F1CB
:101A7000A400D4F8A41000F0D8FBB82001594FF40A
:101A8000597001512DE0BC200159C02000598142FC
:101A900008D10020C4F8B001B82001594FF45970A2
:101AA00001511EE0C0200159C42000590144BC204E
:101AB0000059814204D100214FF45970015110E0C6
:101AC000C0200159C42000590144C82000590144D4
:101AD000BC200059814204D10021BC2001510120C9
:101AE000607010BD10B50446207900F00100E0B12F
:101AF00004F14800FFF7CFFE01281AD104F1480095
:101B0000FFF78DFE20B1012803D002280BD105E09C
:101B10000AE0FFF7A7FB0420207005E0FFF7A2FB17
:101B20000020207000E000BF03E0FFF79BFB0020D7
:101B3000207010BD10B50446207900F0010020B1DE
:101B4000FFF790FB0020207003E004F17000FFF726
:101B5000F9FE10BD10B50446D4F85C14C4F8EC12BC
:101B600004F51B70FFF7ADFC4FF45970D4F8001367
:101B70000151001DD4F80413015110BD10B50446E5
:101B800004F5D870FFF784FB04F5D870FFF76FFCFD
:101B90004FF4007001594FF45B7001514FF4017024
:101BA00001594FF45C70015104F54470FFF7DDFBFF
:101BB0004FF45F7001594FF4EA7001514FF46070B7
:101BC00001594FF4EC70015110BD10B5044604F1F9
:101BD000E800FFF7F4FB4FF48D600159D4F82C01B5
:101BE0000844C4F8B00105E0D4F8B001A0F5805075
:101BF000C4F8B001D4F8B001B0F5805FF4DA05E0C4
:101C0000D4F8B00100F58050C4F8B001D4F8B001A8
:101C10000028F5DB04F5D870FFF73AFB04F5D8701F
:101C2000FFF725FC4FF4007001594FF45B70015130
:101C30004FF4017001594FF45C70015104F5447088
:101C4000FFF793FB4FF45F7001594FF4EA700151B5
:101C50004FF4607001594FF4EC70015110BD000059
:101C600010B50446A06808B1002060602078034ADF
:101C700052F820102046884710BD000014050020AF
:101C800010B5044604F1E800FFF7A0FB4FF4A07084
:101C90000059C4F8B00104F5D870FFF7F9FA04F55B
:101CA000D870FFF7E4FB4FF4007001594FF45B70FC
:101CB00001514FF4017001594FF45C70015104F56A
:101CC0004470FFF752FB4FF45F7001594FF4EA7014
:101CD00001514FF4607001594FF4EC70015110BD87
:101CE00010B50446207900F0010010B105202070E5
:101CF00003E0FFF7B7FA0020207010BD3EB50446A0
:101D0000207900F0010000283FD000BF00200090A3
:101D10006A4601A902A8FFF799FA02982061019882
:101D200060610098A06100BF04F10C00FFF71CFE89
:101D3000012827D104F10C00FFF72CFE20B1012867
:101D400003D002281CD113E01BE04FF4F470E169CA
:101D50000151001D216A0151001D616A0151216B71
:101D6000C4F84412616BC4F848120220207008E0E5
:101D7000A06820F00100401CA0600020207000E05E
:101D800000BF06E0FFF76EFA03E0FFF76BFA0020F2
:101D900020703EBD10B50446D4F85C14C4F8EC12B3
:101DA00004F1E800FFF742FB00214FF459700151A4
:101DB0004FF49C7001594FF45A700151D0200059D2
:101DC000401CD0210851D421095988422ED34FF408
:101DD00039700059D4F8EC124843D8210959884287
:101DE00021DBCC200059401CCC210851DC210959B1
:101DF00088421BD30021D0200151CC200151D4F8BE
:101E0000EC02410004F52F7000F00FFA4FF4A070BF
:101E100001594FF48D600059091A4FF48C7001512B
:101E20000220607002E00021CC20015110BD10B5ED
:101E30000446207900F0010010B10520207003E075
:101E4000FFF710FA0020207010BD10B5044620796D
:101E500000F0010068B30021BC200151CC200151E9
:101E6000D0200151E020015104F1E800FFF7CBFA46
:101E700004F5A670FFF7C0FC04F5D870FFF776FBF9
:101E800004F51B70FFF707FB04F54470FFF75EFADB
:101E900004F56270FEF7F6FF04F22C40FFF70CF831
:101EA00000206070206F20F001002067012020706A
:101EB00001E0FFF7D7F910BD3EB50446207900F0E8
:101EC000010000287CD000BF002000906A4601A9D4
:101ED00002A8FFF7BBF904F5E47402986061019869
:101EE000A0610098E0616169206A401A216E484350
:101EF00080122060A169606A401A216E48438012F6
:101F00006060E169A06A401A216E48438012A060B7
:101F1000A4F5E47400BF04F5D870FFF703FA607805
:101F200018B92046FFF72AFE05E06078012802D1A3
:101F30002046FFF7A5FE4FF439700059C4F82C0471
:101F40004FF4FC70015940F2844001514FF4FE708F
:101F500001594FF4916001514FF40270015940F260
:101F60007C4001514FF4037001594FF490600151CE
:101F700004F22C40FFF700F804F22C40FEF7B2FF09
:101F80006078022802D12046FFF71FFE04F5D870C2
:101F9000FFF75AFA04F5D87000F01AF800BF0B48A2
:101FA000008C45F2555108430849088407484430DD
:101FB000008840F40040A1F8440000BF04E0FFE7BF
:101FC000FFF750F9062020703EBD000000000140E0
:101FD0002DE9F041074600261248FFF7CFFA1248D4
:101FE000D0F82C021049D1F81012484304130E48BF
:101FF000D0F82C020C49D1F81412484305130A48B2
:10200000D0F82C020849D1F818124843061322468A
:1020100028463146054B5A639863D96300BFBDE833
:10202000F0810000E801002038000020000001409D
:1020300010B504462078052806D16078084A52F881
:102040002010204688470AE02078062807D104F1AE
:102050007000FFF732FC012801D10020207010BD74
:102060003005002070B5002100230F22C4781CB376
:10207000174C246804F4E064C4F5E064C4F3072159
:10208000C1F10404E3B20A4144789C40E1B284788F
:10209000144021430C07210E0E4C0578615504783D
:1020A00004F01F050124AC4005786D11AD0005F169
:1020B000E025C5F8004109E0047804F01F0501247B
:1020C000AC40054D0678761145F8264070BD0000FD
:1020D0000CED00E000E400E080E100E00249014393
:1020E000024A1160704700000000FA050CED00E0A4
:1020F000D0E90023D11AC368826903FB01228261FF
:10210000036A8269B2EB833F01DA826901E0026A05
:102110009203436AB2EB833F09DD036A8269B2EB43
:10212000833F01DA826904E0026A920301E0426AB5
:102130009203826182699213426182684A434369D1
:1021400003EBA232C261D0E907239A4201DAC269E5
:1021500000E0026A436A9A4207DDD0E907239A4207
:1021600001DAC26902E0026A00E0426AC2617047B5
:1021700000220260426041618A038261C16170474E
:1021800029B1064A12680243044B1A6004E0034A6C
:1021900012688243014B1A607047000030380240D9
:1021A00029B1064A12680243044B1A6004E0034A4C
:1021B00012688243014B1A607047000040380240A9
:1021C00029B1064A12680243044B1A6004E0034A2C
:1021D00012688243014B1A60704700004438024085
:1021E0004268910202698A420BDA836802691A44E2
:1021F0008A4204DA836802691A44026111E00161CB
:102200000FE002698A420BDDD0E903321A448A42A8
:1022100004DDD0E903321A44026102E0016100E00A
:10222000016102699212426170478A020261416152
:10223000704700002DE9F05F05460F46904699462D
:10224000DFF860B000BF9BF8000008B900F03EFC6A
:1022500000BFDFF850A0032D1FD2EFF31181084615
:10226000202181F3118800BF00BF05EB45020AF170
:10227000180101EBC2043DB12760C4F80480C4F822
:10228000089000212161E1600A996161C1B281F386
:10229000118800BF00BF002601E04FF0FF36304636
:1022A000BDE8F09FD40500202DE9F04104460D461D
:1022B00016460E4F00BF387808B900F007FC00BF83
:1022C000EFF311800746202080F3118800BF00BF84
:1022D00032462946204600F00BF88046F8B280F3DB
:1022E000118800BF00BF4046BDE8F081D405002042
:1022F0002DE9F047074688461646C24607EB4701D8
:102300001B4800EBC109D9F8140020B1012811D0F5
:10231000022826D11EE0484600F010FC0546B542D2
:1023200001D2002405E0344632465146484600F0CA
:102330004EFC18E0484600F001FC0546B54201D2CB
:10234000284600E03046044622465146484600F002
:102350003EFC08E032465146484600F0FDFB04468C
:1023600001E0002400BF00BF2046BDE8F087000068
:10237000EC0500200CB50020019000903348006867
:1023800040F480303149086000BF3048006800F4F4
:10239000003000900198401C0190009818B90198F5
:1023A000B0F5A04FF1D12948006800F4003010B119
:1023B0000120009001E0002000900098012844D105
:1023C00022484030006840F0805020494031086089
:1023D0001F48006840F440401D4908601B48083011
:1023E00000681A4908310860084600680860084615
:1023F000006840F4A05008601648091F0860081FD4
:10240000006840F08070091F086000BF0F48006836
:1024100000F000700028F9D040F205700E49086005
:102420000A480830006820F00300084908310860B5
:102430000846006840F00200086000BF034808300A
:10244000006800F00C000828F8D10CBD00380240EC
:102450000070004008544007003C024030B513496A
:10246000481EB0F1807F01D301201BE0481E4FF0D1
:10247000E022506150170F22002807DA13071D0EC3
:102480000B4B00F00F04241F1D5503E013071C0E17
:10249000084B1C5400BF00204FF0E0229061072041
:1024A0001061002008B100BFFEE730BD409002007F
:1024B00018ED00E000E400E010B5054800F00EF96A
:1024C000034800F073F80348FFF7B2FD10BD0000A9
:1024D000680500203800002010B51548006840F459
:1024E0007000134908601348006840F0010011496A
:1024F000086000200F49083108600E4800680E4946
:1025000008400C4908600D48091D0860081F006854
:1025100020F48020091F0860002006490C31086063
:10252000FFF728FF4FF0006001498039086010BDB7
:1025300088ED00E000380240FFFFF6FE1030002476
:1025400010B50446207900F0010088B1FEF74CFB7D
:1025500008494861FEF750FB0649C8612146054815
:10256000FEF718FC00BF00BF606820F0010060604B
:1025700010BD00003C05002070B5044600250A4847
:10258000856CE56040F6FF75E5620025E56104F1C4
:102590000C00FEF7CDFD04F12C00FEF7C9FD04F19F
:1025A0001C00FEF7C5FD70BD0020014010B50446BB
:1025B0002046FFF7E1FF01203A49C1F8E402C1F8E3
:1025C0003001C1F8940100BF2269216E5143881285
:1025D0003449C1F8C0014FF0807191FBF0F23149EC
:1025E000C1F8C421C1F8F002C1F8600300BFE06C7B
:1025F000C1F8E80200BF00BF0846806820B1A068AB
:1026000020F00100401CA060607830B1012812D099
:1026100002281CD0032833D125E0A06E401CA06600
:10262000616E884206D30020A066204600F03CF888
:102630000120607025E0A06810B10320607005E003
:102640002079C0F3400008B10220607019E0A06852
:1026500010B10320607005E02079C0F3400008B994
:10266000012060700DE02079C0F3400038B90020EF
:10267000A06000BF0B49886000BF0120607000E0CF
:1026800000BF00BF6078022805D100BF01200549C6
:10269000486000BF05E000BF00200249486000BF5D
:1026A00000BF10BD3800002070B5044600250A4860
:1026B000856C294604F10C00FEF74AFD40F6FF75D3
:1026C000294604F12C00FEF743FD0025294604F1BC
:1026D0001C00FEF73DFD70BD002001400178491C43
:1026E000C9B201700A2910D300210170017901F0EB
:1026F000010129B9416821F00101491C416004E050
:10270000816821F00201891C8160704710B5802129
:102710000C4800F040F800BF00200A494863886375
:10272000C8630846008C4AF6AA2108400549088477
:10273000044844300088C0F30E00A1F8440000BFF4
:1027400010BD00000000014010B50121880700F015
:1027500043F818B10121880700F01DF810BD21B120
:10276000028842F08002028004E002884FF67F7304
:102770001A40028070470A884B881A438B881A4394
:10278000CB881A430B891A434B891A438B891A4306
:10279000A0F844207047CA4302827047CA430282AD
:1027A000704721B1028842F00102028004E00288F1
:1027B0004FF6FE731A400280704731B1B0F84420E2
:1027C00042F40042A0F8442005E0B0F84420C2F3EF
:1027D0000E02A0F84420704702460020138A0B40E6
:1027E0000BB1012000E0002070471AB183890B4330
:1027F000838102E083898B438381704770B5002415
:1028000000220023058C4FF6FE7635400584028CAD
:102810008388048B4FF68F752C40B51E2C400D8895
:102820002C43751E2A408D892A434D882A43104D1A
:10283000A84202D00F4DA84213D14FF6F7752A4097
:10284000CD892A434FF6FB752A408D882A434FF6DF
:10285000FF652B404FF6FF552B400D8A2B434D8AC9
:102860002B43838004838D684563028470BD000020
:10287000000001400004014070B500240022002344
:10288000058C4FF6EF7635400584028C8388048BE7
:1028900048F6FF752C404FF6FF452C400D884FF64B
:1028A000FF7606EA05252C434FF6DF752A408D8911
:1028B00006EA05152A434D8806EA05152A43154DF3
:1028C000A84202D0144DA8421DD14FF67F752A4070
:1028D000CD894FF6FF7606EA05152A434FF6BF75F8
:1028E0002A408D8806EA05152A434FF6FF352B400E
:1028F0004FF2FF752B400D8A06EA85052B434D8A62
:1029000006EA85052B43838004838D6885630284F2
:1029100070BD0000000001400004014070B50024BB
:1029200000220023058C4FF6FF6635400584028C9B
:102930008388848B4FF68F752C404FF6FC752C40A6
:102940000D882C434FF6FF552A408D894FF6FF76B0
:1029500006EA05252A434D8806EA05252A43154D32
:10296000A84202D0144DA8421DD14FF2FF752A4053
:10297000CD894FF6FF7606EA05252A434FF6FF3547
:102980002A408D8806EA05252A434EF6FF752B401E
:102990004DF6FF752B400D8A06EA05152B434D8A2F
:1029A00006EA05152B43838084838D68C563028402
:1029B00070BD0000000001400004014070B500221D
:1029C00000230024058C4EF6FF7635400584038CE9
:1029D0008488828B48F6FF752A404FF6FF452A40CF
:1029E0000D884FF6FF7606EA05252A434DF6FF755A
:1029F0002B408D8906EA05352B434D8806EA0535BF
:102A00002B430A4DA84202D0094DA84208D14BF6EB
:102A1000FF752C400D8A4FF6FF7606EA85152C438C
:102A2000848082838D680564038470BD000001404A
:102A30000004014082884FF68F731A40828082889A
:102A40000A4382807047000000220288184B984297
:102A50000ED0184B98420BD0B0F1804F08D0164BD7
:102A6000984205D0154B984202D0154B984204D19C
:102A70004FF68F731A404B881A43124B984207D077
:102A8000114B984204D04FF6FF431A400B891A436A
:102A900002804B68C3620B880385054B984202D0C5
:102AA000044B984201D18B7A0386012383827047BD
:102AB0000000014000040140000400400008004004
:102AC000000C0040001000400014004070B5144C91
:102AD000A8212046FDF75FFC03202061606111A062
:102AE000A0611349E1614FF4806121620021A1627C
:102AF0006162E1620BA020660E4961661021A16649
:102B000000212167E1666167002505E0C5F10F003E
:102B10000949085C60556D1C102DF7D370BD00008D
:102B2000D40500205465726D696E616C0000000070
:102B30007C0600207C0A00208634000810B501467F
:102B40000A69CB689A4204D88C68641EE41AA018FB
:102B500001E0D41A601E10BD2DE9F05F04468946DD
:102B600017464FF0000AE56800BFD4F81080A8456A
:102B700003D9A8EB0500461E04E0A5EB0800401CA5
:102B8000A1680E1AA068401BB04201D9304601E08E
:102B9000A068401B0646BE4201D2304600E03846DF
:102BA0000646606800EB050B324649465846FDF77D
:102BB0007BFBB244B144BF1B3544A068A84200D19E
:102BC0000025E560002FD0D15046BDE8F09F2DE9EB
:102BD000F047044689461546E668A068871BAF4261
:102BE0000AD9606800EB060A2A4649465046FDF7B6
:102BF0005BFB7019E06014E0B846606800EB060A01
:102C0000424649465046FDF74FFBA5EB0708D4F86E
:102C100004A009EB070142465046FDF745FBC4F806
:102C20000C80BDE8F087000008B572B6FDF7F2FD34
:102C3000FDF75EFEFDF72AFEFDF788FDFEF71EF8A4
:102C4000FEF790F8FDF7E0FF00208023054A06A17B
:102C500000900120FFF7EEFA62B600BF0648FFF7CA
:102C60006FFCFBE78C0A00204A53636F70655F4975
:102C70003449344934000000680500204FF04070AA
:102C8000E1EE100A70470000190032004B006400AA
:102C90007D009600AF00C900E200FB0014012D0189
:102CA00046015F0178019201AB01C401DD01F6012B
:102CB0000F02280241025B0274028D02A602BF02CB
:102CC000D802F1020A0323033D0356036F0388036E
:102CD000A103BA03D303EC0305041E043704510413
:102CE0006A0483049C04B504CE04E70400051905B6
:102CF00032054B0564057D059605AF05C805E10560
:102D0000FA0513062C0645065E0677069006A90608
:102D1000C206DB06F4060D0726073F0758077107B2
:102D20008A07A307BC07D507EE070708200839085C
:102D300052086B0884089C08B508CE08E70800090B
:102D4000190932094B0964097C099509AE09C709BB
:102D5000E009F909110A2A0A430A5C0A750A8D0A70
:102D6000A60ABF0AD80AF10A090B220B3B0B540B27
:102D70006C0B850B9E0BB60BCF0BE80B010C190CE3
:102D8000320C4B0C630C7C0C950CAD0CC60CDE0CA1
:102D9000F70C100D280D410D590D720D8B0DA30D63
:102DA000BC0DD40DED0D050E1E0E360E4F0E670E2A
:102DB000800E980EB10EC90EE20EFA0E120F2B0FF6
:102DC000430F5C0F740F8C0FA50FBD0FD60FEE0FC6
:102DD00006101F1037104F10681080109810B01098
:102DE000C910E110F91011112A1142115A11721172
:102DF0008A11A211BB11D311EB1103121B12331252
:102E00004B1263127B129412AC12C412DC12F41235
:102E10000C1324133C1354136C1383139B13B3131D
:102E2000CB13E313FB1313142B1443145A1472140F
:102E30008A14A214BA14D114E91401151915301505
:102E40004815601577158F15A715BE15D615EE1503
:102E500005161D1634164C1664167B169316AA1604
:102E6000C216D916F11608171F1737174E1766170F
:102E70007D179417AC17C317DA17F2170918201823
:102E800038184F1866187D189518AC18C318DA183A
:102E9000F1180819201937194E1965197C19931959
:102EA000AA19C119D819EF19061A1D1A341A4B1A82
:102EB000621A791A8F1AA61ABD1AD41AEB1A021BB3
:102EC000181B2F1B461B5D1B731B8A1BA11BB71BEB
:102ED000CE1BE51BFB1B121C281C3F1C551C6C1C2D
:102EE000831C991CAF1CC61CDC1CF31C091D201D77
:102EF000361D4C1D631D791D8F1DA61DBC1DD21DC9
:102F0000E81DFE1D151E2B1E411E571E6D1E831E25
:102F1000991EB01EC61EDC1EF21E081F1E1F341F87
:102F2000491F5F1F751F8B1FA11FB71FCD1FE21FFA
:102F3000F81F0E20242039204F2065207B20902070
:102F4000A620BB20D120E720FC20122127213D21F3
:102F5000522168217D219221A821BD21D221E82181
:102F6000FD21122228223D22522267227D22922216
:102F7000A722BC22D122E622FB22102325233A23BA
:102F80004F23642379238E23A323B823CD23E12366
:102F9000F6230B242024342449245E24732487241C
:102FA0009C24B024C524DA24EE24032517252C25DF
:102FB0004025542569257D259225A625BA25CF25AE
:102FC000E325F7250B261F26342648265C26702687
:102FD00084269826AC26C026D426E826FC26102770
:102FE000242738274C275F27732787279B27AF275E
:102FF000C227D627EA27FD271128242838284B285E
:103000005F28722886289928AD28C028D428E72868
:10301000FA280E292129342947295A296E2981297C
:103020009429A729BA29CD29E029F329062A192AA2
:103030002C2A3F2A522A652A772A8A2A9D2AB02AD0
:10304000C22AD52AE82AFA2A0D2B202B322B452B0F
:10305000572B6A2B7C2B8E2BA12BB32BC62BD82B5B
:10306000EA2BFC2B0F2C212C332C452C572C6A2CB3
:103070007C2C8E2CA02CB22CC42CD62CE82CF92C19
:103080000B2D1D2D2F2D412D522D642D762D882D8C
:10309000992DAB2DBC2DCE2DE02DF12D032E142E10
:1030A000252E372E482E5A2E6B2E7C2E8D2E9F2E9F
:1030B000B02EC12ED22EE32EF42E052F162F282F40
:1030C000382F492F5A2F6B2F7C2F8D2F9E2FAF2FEC
:1030D000BF2FD02FE12FF12F0230133023303430A7
:1030E000443055306530763086309630A730B73072
:1030F000C730D830E830F83008311831283138314D
:10310000493159316931793188319831A831B83133
:10311000C831D831E731F73107321632263236322C
:10312000453255326432743283329332A232B13234
:10313000C132D032DF32EE32FE320D331C332B334C
:103140003A33493358336733763385339433A33373
:10315000B233C133CF33DE33ED33FB330A341934AA
:103160002734363444345334613470347E348C34F0
:103170009B34A934B734C634D434E234F034FE344A
:103180000C351A35283536354435523560356E35AF
:103190007C3589359735A535B335C035CE35DC3529
:1031A000E935F735043612361F362C363A364736AF
:1031B000543662366F367C3689369636A436B1364A
:1031C000BE36CB36D836E536F136FE360B371837F5
:1031D000253731373E374B375737643771377D37AF
:1031E0008A379637A337AF37BB37C837D437E0377E
:1031F000ED37F937053811381D3829383538413859
:103200004D385938653871387D3889389438A03848
:10321000AC38B738C338CF38DA38E638F138FD384B
:10322000083913391F392A39353941394C39573959
:1032300062396D39783983398E399939A439AF3982
:10324000BA39C539D039DA39E539F039FB39053AB7
:10325000103A1A3A253A2F3A3A3A443A4F3A593AFA
:10326000633A6D3A783A823A8C3A963AA03AAA3A58
:10327000B43ABE3AC83AD23ADC3AE63AF03AFA3AC6
:10328000033B0D3B173B203B2A3B343B3D3B473B3D
:10329000503B593B633B6C3B753B7F3B883B913BD1
:1032A0009A3BA33BAD3BB63BBF3BC83BD13BDA3B74
:1032B000E23BEB3BF43BFD3B063C0E3C173C203C29
:1032C000283C313C393C423C4A3C533C5B3C633CEF
:1032D0006C3C743C7C3C843C8C3C953C9D3CA53CCB
:1032E000AD3CB53CBD3CC53CCC3CD43CDC3CE43CBA
:1032F000EC3CF33CFB3C023D0A3D123D193D213DB7
:10330000283D2F3D373D3E3D453D4D3D543D5B3DC8
:10331000623D693D703D773D7E3D853D8C3D933DF1
:103320009A3DA13DA73DAE3DB53DBB3DC23DC93D2A
:10333000CF3DD63DDC3DE23DE93DEF3DF53DFC3D79
:10334000023E083E0E3E143E1B3E213E273E2D3ED1
:10335000333E383E3E3E443E4A3E503E553E5B3E46
:10336000613E663E6C3E713E773E7C3E823E873ECD
:103370008C3E923E973E9C3EA13EA73EAC3EB13E67
:10338000B63EBB3EC03EC53ECA3ECE3ED33ED83E14
:10339000DD3EE13EE63EEB3EEF3EF43EF83EFD3ED6
:1033A000013F063F0A3F0E3F133F173F1B3F1F3FA2
:1033B000233F273F2B3F2F3F333F373F3B3F3F3F8D
:1033C000433F473F4A3F4E3F523F553F593F5D3F86
:1033D000603F643F673F6A3F6E3F713F743F783F95
:1033E0007B3F7E3F813F843F873F8A3F8D3F903FB9
:1033F000933F963F993F9C3F9E3FA13FA43FA63FEE
:10340000A93FAC3FAE3FB13FB33FB53FB83FBA3F36
:10341000BC3FBF3FC13FC33FC53FC73FC93FCB3F95
:10342000CD3FCF3FD13FD33FD53FD73FD83FDA3F06
:10343000DC3FDE3FDF3FE13FE23FE43FE53FE73F88
:10344000E83FE93FEB3FEC3FED3FEE3FEF3FF03F22
:10345000F13FF23FF33FF43FF53FF63FF73FF83FD0
:10346000F93FF93FFA3FFB3FFB3FFC3FFC3FFD3F8D
:10347000FD3FFE3FFE3FFE3FFF3FFF3FFF3FFF3F61
:10348000FF3FFF3FFF3F0000000000005454522068
:103490005245474745530000B8340008000000205B
:1034A000D4050000C4010008F4350008D40500204C
:1034B000BC0B0000200200089122011B0202051132
:1034C000140201012A02072A0214290B1A010B19FE
:1034D000063A02111A0125290F013B23D006234089
:1034E00005021B143232320A338813620823330375
:1034F0001A663C32510510AFFFFFFF726442C8628A
:103500001029301A8D04CB73F9301AF4CB69048179
:10351000296C2930297C410B1C89414423CC0C1A8D
:1035200046940B10BAFC8C295719A3F918C12AEB41
:10353000258A04DC09124C296409127C09326401D1
:1035400068233B0F32C432831B02207F02462923AB
:10355000080D02145B32400430C0FFFF2389410B89
:103560003077BE38091A7C23140A02235209262810
:10357000011CA3AB2A232B0B0214D72A8004C9E415
:1035800002530F23EB011B100C08220923AE071A6C
:103590001E6523FF1A1A6398C12332101A382C09AA
:1035A00072A869A44B6616A423790E1AC36523AFCB
:1035B0001123F3214B50FA80134B1E1408FD1C1BE2
:1035C00008E10413E51A1B082F101AB90413351B60
:1035D0001B084B1013951D1B08550C2A64D0311A7B
:1035E000D84842C80232400A3D19108123022063A4
:0435F000E8030000EC
:040000050800018965
:00000001FF
