:020000040800F2
:10000000700B002049010008530100085501000849
:1000100000000000000000000000000000000000E0
:100020000000000000000000000000005701000870
:1000300000000000000000005901000825350008FC
:10004000000000005D0100085D0100085D0100087E
:100050005D0100085D0100085D010008000000006E
:100060000000000000000000000000000000000090
:10007000D9040008653700088D3700085D010008C5
:100080003D3700085D0100085D0100080000000028
:100090005D0100085D0100085D0100085D010008C8
:1000A000000000005D01000800000000D93B0008CE
:1000B000153C0008000000000000000000000000E7
:1000C00000F002F800F030F80CA030C8083824180E
:1000D0002D18A246671EAB4654465D46AC4201D180
:1000E00000F022F87E460F3E0FCCB6460126334282
:1000F00000D0FB1AA246AB4633431847BC40000071
:10010000DC4000000023002400250026103A01D323
:1001100078C1FBD8520700D330C100D50B607047BF
:100120001FB51FBD10B510BD00F0FCF81146FFF75C
:10013000F7FF03F0CBFF00F014F903B4FFF7F2FF71
:1001400003BC00F01BF90000084909488047094832
:100150000047FEE7FEE7FEE7FEE7FEE7FEE70000FA
:1001600005480649044A064B70470000FFFFFFFFA1
:100170003D350008C100000870070020700B00200A
:100180007007002001E004C0091F0429FBD28B077F
:1001900001D50280801CC90700D002707047002979
:1001A0000BD0C30702D00270401C491E022904D3A1
:1001B000830702D50280801C891EE3E70022EEE758
:1001C0000022DFE7002203098B422CD3030A8B4273
:1001D00011D300239C464EE003460B433CD400223F
:1001E00043088B4231D303098B421CD3030A8B4251
:1001F00001D394463FE0C3098B4201D3CB01C01A1F
:10020000524183098B4201D38B01C01A52414309E9
:100210008B4201D34B01C01A524103098B4201D3D7
:100220000B01C01A5241C3088B4201D3CB00C01A44
:10023000524183088B4201D38B00C01A52414308BC
:100240008B4201D34B00C01A5241411A00D20146E1
:100250005241104670475DE0CA0F00D0494203107A
:1002600000D34042534000229C4603098B422DD3C9
:10027000030A8B4212D3FC22890112BA030A8B4271
:100280000CD3890192118B4208D3890192118B42C0
:1002900004D389013AD0921100E08909C3098B4245
:1002A00001D3CB01C01A524183098B4201D38B0188
:1002B000C01A524143098B4201D34B01C01A52412B
:1002C00003098B4201D30B01C01A5241C3088B4270
:1002D00001D3CB00C01A524183088B4201D38B005B
:1002E000C01A5241D9D243088B4201D34B00C01AE5
:1002F0005241411A00D20146634652415B101046FA
:1003000001D34042002B00D54942704763465B1041
:1003100000D3404201B50020C046C04602BD704730
:1003200070477047754600F025F8AE4605006946EF
:100330005346C008C000854618B020B5FFF710FF2F
:1003400060BC00274908B6460026C0C5C0C5C0C568
:10035000C0C5C0C5C0C5C0C5C0C5403D49008D466B
:10036000704710B50446C046C0462046FFF7E5FE7C
:1003700010BD0000004870470C07002001491820FC
:10038000ABBEFEE726000200704770B58C180578FA
:10039000401C6B075B0F01D10378401C2A1106D16A
:1003A0000278401C03E00678401C0E70491C5B1E5E
:1003B000F9D12B0705D40023521E0DD40B70491C14
:1003C000FAE70378401CCB1A921C03E01D780D70ED
:1003D000491C5B1C521EF9D5A142D8D3002070BD28
:1003E00002688A430260704701468868C007C00FF0
:1003F000012250405040704701469420405802224C
:10040000104040087047014694204058C007C00F74
:100410000122504050407047F8B506460D46286806
:10042000070D3046FFF7E0FF00284ED13046FFF7BA
:10043000EAFF002849D02868B16B032212059143D6
:100440000143B16300BF002434E0002C06D0012C2E
:100450000CD0022C12D0032C20D117E0E100281D73
:1004600042580121304600F028F918E0E100281D2B
:1004700042581649304600F020F910E0E100281DEE
:1004800042581349304600F018F908E0E100281DF1
:1004900042581049304600F010F900E000BF00BF9C
:1004A000E0002B1DC0184268E0001958304600F0EB
:1004B00041F9641CBC42C8DD304600F0F1F800BFD1
:1004C0003046FFF799FF0128FAD0F8BD021100006D
:1004D000032200000433000010B50420492109065E
:1004E00009680140814201D1012100E00021002979
:1004F0000BD00420492109060968814349221206CC
:10050000116000BF014802F0CBF910BD2C000020A3
:1005100070B505460C462068A9681F22D202914397
:100520000143A96000BF2846616800F0FCF8284636
:10053000A16800F09FF82069696801229202914346
:100540000143696000BF2846616900F09AF82846B7
:10055000A16900F09DF8E0696968012212039143E6
:100560000143696000BF2846216A00F0A0F870BD11
:10057000F8B506460D462868070D3046FFF734FFEC
:1005800000283FD13046FFF73EFF00283AD02868C8
:10059000F16A0722120591430143F16200BF002472
:1005A00025E0062C0CDAE0002B1D1A58A0002018BC
:1005B00001235B0318430146304600F01BF90CE0B1
:1005C000E0002B1D1A58A01F8300C01801231B0335
:1005D00018430146304600F00DF9E0002B1DC0180D
:1005E0004268E0001958304600F0A4F8641CBC4290
:1005F000D7DD304600F054F800BF3046FFF7FCFE70
:100600000128FAD0F8BD70B505460C462068A968E7
:100610000F22520491430143A96000BF6068A9689A
:10062000022291430143A96000BF2846A16800F05F
:100630007AF82846E16800F01DF82846216900F0A4
:1006400020F82846616900F023F8A0696968012252
:10065000D20291430143696000BFE06969680722E3
:10066000520391430143696000BF2846216A00F0AC
:100670001EF870BD826801239B029A430A43826080
:10068000704742680123DB059A430A434260704782
:100690004268024B1A400A4342607047E0FD3FFF48
:1006A0009421095802221143942211507047C26DBF
:1006B00020239A430A43C2657047F7B504460D46A6
:1006C000032000051F220146400805E04900C3073A
:1006D000DB0F1943521E40080028F7D10F46974000
:1006E00039460F46384603F041FC0146A06B032211
:1006F00012051040C840461CA06BE906C90EC91C73
:10070000891B8A008A181F21914088430299C906D3
:10071000C90EEA06D20ED21C921B9300D218914049
:100720000843A063FEBD4268FF2301339A430A4396
:1007300042607047F7B50C46172040011F22014662
:10074000400805E04900C307DB0F1943521E40086B
:100750000028F7D10E46964031460E46304603F04B
:1007600005FC01462046172252011040C840810076
:1007700000980C300D181F2000051F22014640086C
:1007800005E04900C307DB0F1943521E400800284B
:10079000F7D10E46964031460E46304603F0E6FB52
:1007A0001F2212052240C240072090402F68874335
:1007B0001F2000051F220146400805E04900C3072D
:1007C000DB0F1943521E40080028F7D10E46964011
:1007D00031460E46304603F0C9FB014620461F2233
:1007E00012051040C84002994907490F81400F4344
:1007F0002F60FEBDF7B507460C46032000031F22FD
:100800000146400805E04900C307DB0F1943521EAB
:1008100040080028F7D10E46964031460E46304635
:1008200003F0A4FB01462046032212031040C840F7
:10083000810038462C300D18E206D20E1F2191405F
:10084000286888430299C906C90EE206D20E914073
:1008500008432860FEBD816808221143816000BF03
:1008600000BF816808221140C9080029F8D100BFE3
:1008700000BF00BF816804221143816000BF00BF38
:1008800081680422114089080029F8D170470000CE
:1008900000B5ADB0242124A8FFF792FC442113A891
:1008A000FFF78EFC0F204004249002202590C00109
:1008B000269000202790289029902A902B902C9009
:1008C00024A949200006FFF79EFE0320000513908F
:1008D0004548149006211591444916910621179117
:1008E0004349189106211991BD2189001A910621C9
:1008F0001B9113A949200006FFF73AFE24210AA8FC
:10090000FFF75EFC242101A8FFF75AFC1720C00264
:100910000A90FF2001300B9000200C900E900F9059
:100920001090119012900AA949200006FFF7F0FDDF
:100930000320000501902C481630029004210391F9
:100940002C490491042105912B490691042107911A
:100950002849163908910421099101A94920000666
:10096000FFF75AFD00BF49200006806801210843B7
:1009700049210906886000BF802049680143492257
:100980001206516000BF04211046FFF729FD4920DF
:100990000006FFF760FF00BF00BF49200006806827
:1009A0000421084080080028F6D100BF4920000635
:1009B00080680905084349210906886000BF00BF17
:1009C00002204921090609680140814201D1012123
:1009D00000E000210029F3D0022149200006FFF7A2
:1009E000FFFC2DB000BD00000E00C00023009000F1
:1009F00027005001260020012800800110B502F0D8
:100A000071FD03204B490968C908C9000143494ADF
:100A1000116000BF00BF48480068012108434649F3
:100A2000086000BF00BF00BF4348006802210840C3
:100A300040080028F7D00320C0043F494968072236
:100A40009204914301433C4A516000BF00BF1046ED
:100A500000680121090608431146086000BF00BF75
:100A600000BF35480068012149060840400E0028B3
:100A7000F6D0002030494968F022914301432E4AC4
:100A8000516000BF101511464968072212029143B8
:100A90000143294A516000BF0020114649680722DE
:100AA000D20291430143244A516000BF0220114603
:100AB0004968890889000143516000BF00BF00BF39
:100AC0001D4840680C2108400828F8D180061A49C2
:100AD0004968024691430143174A516000BF1748D5
:100AE00011464968C24311400143134A516000BF97
:100AF0000F20000402F02CFC0120000602F028FC6C
:100B00000120C00202F034FC012002F029FC022086
:100B100002F026FC0120400302F02AFC012002F032
:100B200027FC0120800302F023FC0120400402F096
:100B300017FC10BD002002400010024000C00080E1
:100B400000B58BB0282101A8FFF73AFB00200190E7
:100B500002900390FF200130049040200590800116
:100B60000690F8200790012008A90870002009903D
:100B70000A9001A9064800F011FB00BF0448006874
:100B8000012108430249086000BF0BB000BD00000E
:100B90000402014000B585B014216846FFF710FB40
:100BA0000120019002900220039000200490042074
:100BB00000906946644800F01DFC082000906946DA
:100BC000614800F017FC02200190002002900220F2
:100BD0000390012004900820009069465B4800F0D3
:100BE00009FC01200490022000906946574800F05B
:100BF00001FC01200490802000906946524800F0DA
:100C0000F9FB012004900420009069464F4800F051
:100C1000F1FB01200490009069464C4800F0EAFB8B
:100C200001200490402000906946474800F0E2FB14
:100C300003200190002002900220039000200490E5
:100C4000012000906946404800F0D4FB402000900D
:100C500069463F4800F0CEFB1020009069463C48B2
:100C600000F0C8FB202000906946384800F0C2FB25
:100C7000022000906946344800F0BCFB2020009020
:100C80006946334800F0B6FB4020009003200190F5
:100C9000002002900490039069460920C00600F0ED
:100CA000A9FB802000900320019000200290049076
:100CB000039069460920C00600F09CFB00200290CA
:100CC0000220039000200490402000900320019017
:100CD00069460920C00600F08DFB802000900320AB
:100CE000019069460920C00600F084FB04200490AE
:100CF0000220019001200290022003900420009025
:100D00006946134800F076FB002002900220009014
:100D100069460F4800F06EFB052004900220019008
:100D2000012002900220039010200090694607489D
:100D300000F060FB002002902020009069460348EC
:100D400000F058FB05B000BD00080048000C00484A
:100D50000004004810B500210D2003F07BF90D20A0
:100D600003F030F90321102003F074F9102003F090
:100D700029F903210C2003F06DF90C2003F022F96E
:100D800002210E2003F066F90E2003F01BF9042166
:100D90001B2003F05FF91B2003F014F904211C2031
:100DA00003F058F91C2003F00DF90521881F03F00A
:100DB00051F90020C04303F005F910BD00B587B01C
:100DC0001C216846FFF7FCF90120800300900420F5
:100DD000019000040290002003900490012040073D
:100DE0000590012006906946064802F0B5F900BF5B
:100DF00004480068012108430249086000BF07B0A9
:100E000000BD00000403014010B5002077490968C7
:100E1000702291430143754A116000BF02201146C0
:100E2000886200BF7248C86200BF0020086300BF2C
:100E3000602201216D4802F029FE002201216B4849
:100E400002F070FE00220421684802F06BFE60226E
:100E50001021664802F01AFE00221021634802F0B9
:100E600061FE00224021614802F05CFE6022FF2109
:100E700001315E4802F00AFE0022FF2101315B4889
:100E800002F050FE002201218902584802F04AFE79
:100E900000205649486300BF00BF886300BF00BF01
:100EA000C86300BF60228914504802F0EFFD0022A1
:100EB000012109034D4802F035FE2D2000014B4968
:100EC000086400BF0121494802F00CFD1021474889
:100ED00002F008FDFF210131444802F003FD012129
:100EE0000903424802F0FEFC002040490968032241
:100EF0001202914301433D4A116000BF6020114638
:100F0000496C090A09020143516400BF50140721CA
:100F100009040022354B5B6C364C234004460C43DD
:100F200014432343314C636400BF20460021012257
:100F30000446603463181C6894431C6000BF00239F
:100F40000215194602F05FFD2848002102220446DE
:100F5000603463181C6814431C6000BF00BF806FBE
:100F6000012108432149886700BF00BF0846806F00
:100F7000022108431D49886700BF00BF0846806FF3
:100F8000042108431949886700BF00BF0846806FE5
:100F9000082108431549886700BF00BF0846406C18
:100FA000510388431149486400BF8814096A01430A
:100FB0000E4A116200BF00BF1046406C0121C903F8
:100FC00008431146486400BF00BF0846006801217D
:100FD00008431146086000BF8021104602F07EFCE5
:100FE0001021024802F07AFC10BD000000340140DC
:100FF0007FBB0000FFDFF0EF00B585B0142168462D
:10100000FFF7DEF8002001900490401E02900020BF
:1010100003908F216846018069460120800702F015
:10102000C1FD00BF01208007006801210843890736
:10103000086000BF0020019004900C48029000203E
:1010400003908F21684601806946094802F0AAFD95
:101050000121074802F0B6FB02200549C968014397
:10106000034AD16000BF05B000BD0000FFFF0000D3
:101070000004004000B585B014216846FFF7A0F8D1
:101080004B20C001009000200190039002900C20A2
:10109000049069461F4802F0D3FE69461E4802F0DC
:1010A000CFFE1E491B4802F07BFE1C492031194827
:1010B00002F076FE1949174802F0CAFD174960315F
:1010C000144802F0C5FD134802F05FFE114802F01B
:1010D00057FE104802F05EFE10490F4802F060FE15
:1010E0000E4920310C4802F05BFE0C490A4802F020
:1010F000AFFD0A496031084802F0AAFD064802F037
:1011000044FE054802F03CFE034802F043FE05B0F1
:1011100000BD0000003801400044004020000010E5
:1011200000BF1948406A012108431749486200BFBF
:1011300000BF00BF1448406A022108404008002850
:10114000F7D000BF11481249086000BF0220486074
:1011500000BF7D200001886000BF00BF00BF0C48B9
:10116000C0688007800F002801D1012000E0002026
:101170000128F3D100BF07480549086000BF00BF40
:101180000548086000BF7047001002405555000038
:1011900000300040AAAA0000CCCC000010B54B687B
:1011A0000A681A438B681A4303681F4C23401A438A
:1011B0000260CB680A691A430368FF24F134A34331
:1011C0001A430260026807231B039A434B691A43C0
:1011D00002600A7F52000B6A1A43144B5B689B083B
:1011E0009B001A43114B5A60104A803A904208D132
:1011F0001A465268F8239A438B691A430B4B5A607C
:1012000009E00A4A52681F231B029A438B695B015B
:101210001A43064B5A60054A1268520852004B6A3C
:101220001A43024B1A6010BDFF7FFCFC8002014094
:1012300010B5024608461378DB07DB0F002B01D1FF
:10124000536010BD13781B07DB0F002B35D000292E
:1012500019D013785B07DB0F002B0DD0146A53688D
:101260001B195360146AD36963435468A3424BD873
:1012700000200023536047E05368002B44D053689C
:101280005B1E536040E013789B07DB0F002B0DD0F3
:10129000146A53681B195360146A136963435468D2
:1012A000A34231D80120002353602DE05368002B66
:1012B0002AD053685B1E536026E0002912D01378B1
:1012C0005B07DB0F002B0AD053685B1C5360D469AB
:1012D0005368A34218D300200023536014E0002376
:1012E000536011E013789B07DB0F002B0AD0536883
:1012F0005B1C536014695368A34205D3012000238B
:10130000536001E00023536000BF9AE70021416071
:10131000704710B504468420005900284CD020782E
:10132000030002F040FE05041B26313C47008421E7
:1013300009598A00211D88580A21FEF743FF882198
:101340000851842109598A00211D88580A21FEF775
:1013500039FF8C200151022020702CE02078401CA5
:10136000C1B2217094200059814201D9022020701D
:1013700021E02078401CC1B22170982000598142A0
:1013800001D90320207016E02078401CC1B22170E2
:1013900094200059814201D9042020700BE020786C
:1013A000401CC1B221709C200059814201D900200B
:1013B000207000E000BF04E0002020700021902099
:1013C000015110BD70B50446094D002C0BD0002111
:1013D00007E0012088402040002801D0481C70BD53
:1013E000491C2029F5DB2846FFF793FF0020F6E78C
:1013F0006C06002070B505460C46102360689843C3
:1014000002462846216800F050F8626811092068F9
:101410006A68824303464B431A436A6000BF28460A
:101420002269216800F00BF82846E268216800F084
:1014300072F82846A268216800F0A3F870BDF7B5DD
:1014400004460D4628461F220146400805E0490093
:10145000C307DB0F1943521E40080028F7D10E4680
:10146000964031460E46304602F080FD81000F2046
:101470008840276A874328461F220146400805E026
:101480004900C307DB0F1943521E40080028F7D15B
:101490000E46964031460E46304602F067FD81000A
:1014A0000298884007432762FEBDF7B504460D4603
:1014B00028461F220146400805E04900C307DB0F0C
:1014C0001943521E40080028F7D10E469640314677
:1014D0000E46304602F04AFD41000320884027684E
:1014E000874328461F220146400805E04900C307FC
:1014F000DB0F1943521E40080028F7D10E469640D4
:1015000031460E46304602F031FD410002988840D7
:1015100007432760FEBDF7B504460D4628461F2247
:101520000146400805E04900C307DB0F1943521E7E
:1015300040080028F7D10E46964031460E46304608
:1015400002F014FD410003208840A7688743284625
:101550001F220146400805E04900C307DB0F19437D
:10156000521E40080028F7D10E46964031460E46DE
:10157000304602F0FBFC4100029888400743A76018
:10158000FEBDF7B504460D4628461F220146400819
:1015900005E04900C307DB0F1943521E400800282D
:1015A000F7D10E46964031460E46304602F0DEFC3C
:1015B000410003208840E768874328461F220146F0
:1015C000400805E04900C307DB0F1943521E4008DD
:1015D0000028F7D10E46964031460E46304602F0BE
:1015E000C5FC4100029888400743E760FEBD826861
:1015F00092130168891AC268514382688918816010
:1016000081688913416070478A0382604160704736
:1016100000B58A785300D218394B9A5C93000A4679
:101620006C32D2588A678A785300D218344BD21859
:10163000527893000A466C32D258CA678A785300AF
:10164000D2182F4BD218927893000A466C32D35896
:10165000802253508A78130002F0A5FC06041E0570
:101660001F06203800BF00BF802252588B6F9A1887
:10167000CB6F5B009A420CD90268521C02608368EF
:1016800002689A4207D9002202600223682253545A
:1016900001E0002202601AE000BF00BF8022525821
:1016A0008B6F9A18CB6F5B009A420CD20268521C67
:1016B0000260836802689A4207D90022026002230E
:1016C0006822535401E00022026000E000BF00BF26
:1016D0006822525C022A12D1CA6B03699A420CD268
:1016E0004268521C4260436942689A4207D900220C
:1016F000426000236922535401E00022426000BD91
:101700000000002010B502460020CB6E5468A342B2
:101710000FD20B6F5468A3420BD24B6F5468A34295
:1017200007D213685B1C136094681368A34200D14E
:10173000012010BD10B50446616A206A884214D8A1
:101740000020E061616A206A88422AD1A06A0028EC
:1017500004D02046216801F0C0FE22E0E06A0028A3
:101760001FD001208003E0611BE0A16A606A40187D
:10177000216A884205D3204601F08AFE6069E06153
:101780000FE0A16A606A4018E16A4018216A884245
:1017900003D301208003E06103E00120A061002069
:1017A0002062206A401C206210BD000000B58A78CB
:1017B0005300D218234BD218527893000A466C3249
:1017C000D258CA678A78130002F0EDFB06041E05A2
:1017D0001F06203800BF00BF84235B5882685A432D
:1017E000CB6F9B039A420CD20268521C0260C36802
:1017F00002689A4207D900220260012368225354EA
:1018000001E0002202601AE000BF00BF84235B58A1
:1018100042685A43CB6F9B039A420CD90268521C10
:101820000260C36802689A4207D90022026001235D
:101830006822535401E00022026000E000BF00BFB4
:1018400000BD00000000002000B58A785300D218C7
:101850003B4B9A5C93000A466C32D2588A678A786E
:101860005300D218364BD218527893000A466C3285
:10187000D258CA678A785300D218314BD21892785E
:1018800093000A466C32D358802253508A78130052
:1018900002F089FB060420052106223C00BF00BFA0
:1018A000802252588B6F9A18C3685A43CB6F9B03A0
:1018B0009A420CD90268521C0260036902689A427B
:1018C00007D90022026002236822535401E000225B
:1018D00002601CE000BF00BF802252588B6F9A1834
:1018E00083685A43CB6F9B039A420CD20268521C06
:1018F0000260036902689A4207D90022026002234B
:101900006822535401E00022026000E000BF00BFE3
:101910006822525C022A12D1CA6B43699A420CD9DE
:101920004268521C4260836942689A4207D9002289
:10193000426001236922535401E00022426000BD4D
:101940000000002070B503460020CC6EDD68AC427C
:101950000BD20C6FDD68AC4207D24C6FDD68AC4235
:1019600003D21C68641C1C605BE0CD6E0C6FA5424A
:101970000DD9CD6E4C6FA54209D90D6F4C6FA542A4
:1019800002D902248C7019E001248C7016E00D6FCE
:101990004C6FA54209D9CD6E4C6FA54202D90324E4
:1019A0008C700BE004248C7008E0CD6E0C6FA542A7
:1019B00002D900248C7001E005248C70CC781C4D79
:1019C0002C5D8D78AC422AD15C68641C5C605D69DA
:1019D0005C68AC4223D900245C609C68002C01D177
:1019E0000A6113E00C69944203D20C69151BCD60A7
:1019F00004E04D6B0C692C1BA518CD60CD689C686C
:101A0000641EA6000C461434A5510A619C68062C7D
:101A100000D101209C68641C9C608C78CC700024F0
:101A20001C601D691C68AC4200D9022070BD00001A
:101A30002400002070B5044601216920015568206A
:101A40000155012009218901611808766369A2699D
:101A50009B18E2699B18226A9B18626A9B18A26A0B
:101A60009918206BFEF7AEFBA42109594843800B5F
:101A7000A06309229201A218D26CA36B5A431046AC
:101A800009229201A218516DFEF79CFBA021095971
:101A900048430546942001592846FEF793FB092147
:101AA0008901611808632046FF308130A16B01F085
:101AB00014FD092080012018016B4120C00020186E
:101AC00001F03BFC092080012018016B2046FF300B
:101AD000993001F032FC092080012018016B20466A
:101AE000FF30D13001F029FC092080012018016B62
:101AF00009208001201801F0F0FC20463830A16B4D
:101B0000FFF782FD092080012018006B092189015F
:101B100061180862092080012018006B09218901E1
:101B200061184862092080012018006B0921890191
:101B300061188862092080012018006B0921890141
:101B40006118C862092080012018806C0921890170
:101B500061184863092080012018C06A09218901A1
:101B60006118496B4843800B09218901611808639A
:101B700070BD70B504460D461646E068B04203D20B
:101B8000E068301AA06004E0E168206B401A801918
:101B9000A060E660216A6162E1692162A169E16198
:101BA0006169A16121696161A06820612169606941
:101BB0000918A0690918E0690918206A0918606AFB
:101BC0000818A062A16AE06AFEF7FCFAA42149594C
:101BD0004843800BA86328463830FFF708FDA86803
:101BE000401CA86070BD10B504466820005D002848
:101BF0000CD0092080012018C06A9021095948435F
:101C0000800BA06420464830FFF7F1FC10BD10B5F2
:101C100004460021692001550121682001556078A2
:101C20002070002121616161A161E1612162616235
:101C3000A162A16020465830FFF7E6FC0021204653
:101C40003830FFF7E1FC002120464830FFF7DCFC8C
:101C500000218C200151A8200151B8200151BC2045
:101C60000151C0200151D0200151F8200151FF2025
:101C700021300151001D0151001D0151FF2039305B
:101C80000151FF2049300151001D0151FF206530F5
:101C90000151001D0151FF2081300159201801F030
:101CA0001CFC092080012018016D2046FF3099306E
:101CB00001F043FB092080012018C16C2046FF3051
:101CC000D13001F03AFB092080012018C16C41207D
:101CD000C000201801F031FB0920800101592018B3
:101CE00001F0FBFB00200921890161180876092019
:101CF00080012018406C0921890161184863002087
:101D00000521C9016118C86210BDF8B504460D4629
:101D1000164600278C20405981198C20415120689B
:101D2000401C2060E1682068884213D18C22505901
:101D30002168FEF747FA8C2148518C204059616890
:101D4000884204D88C204059A168884201D20227D9
:101D500000E001273846F8BD70B50446E56C206AFE
:101D6000A84200D2256A606AA84200D2656AA06AC9
:101D7000A84200D2A56A6560204601F089FB60692F
:101D8000E062207E00281DD1A16BE06A884216D94E
:101D9000636CA26B5A431046E16AFEF713FA606364
:101DA000616C606B884201D9606C6063A16C606B90
:101DB000884224D801202076A06C60631FE0606C0C
:101DC00060631CE0E16BE06A884216D2A36CE26BB0
:101DD0005A431046E16AFEF7F5F96063616C606B87
:101DE000884203D300202076606C6063A16C606B36
:101DF000884204D2A06C606301E0A06C6063616BF8
:101E0000E06A4843800B206370BD0000F8B50446CB
:101E100000200090A06980002250A069030002F019
:101E2000C2F806040A10070D13160320A0610FE084
:101E30000120A0610CE00420A06109E00220A06163
:101E400006E00520A06103E00620A06100E000BFDD
:101E500000BFA069062826D1208885B20023012072
:101E600009E08600A659AE4203D903468600A65B68
:101E7000B5B2461CF0B20628F3D358000B4E8019B9
:101E80000E78805D887001200090002008E08600B8
:101E9000A659276ABE4201D202260096461CF0B21D
:101EA0000628F4D300BF0098F8BD000012000020FF
:101EB000F0B502460025002300244B694C6901203F
:101EC00015E087000E461436F6599E4203D9870066
:101ED0000E461436F35987000E461436F659A642BC
:101EE00003D287000E461436F459461CF0B2062879
:101EF000E7DBA601D0685843864203D288680C28E5
:101F000000D3012588685668B0420AD11068401C89
:101F1000106096681068B04205D900201060012555
:101F200001E000201060886850602846F0BD10B5C0
:101F3000044620684008400020600421206888434F
:101F40002060082120688843206010212068884391
:101F500020604021206888432060802120688843D9
:101F60002060490020688843206049002068884339
:101F70002060C900206888432060490020688843A9
:101F80002060490020688843206049002068884319
:101F90002060C90020688843206049002068884389
:101FA00020604900206888432060490020688843F9
:101FB0002060490020688843206089112068884398
:101FC0002060490020688843206020465030FFF799
:101FD0009DF920467430FFF799F920469830FFF7B5
:101FE00095F92046BC30FFF791F92046FF302930A3
:101FF000FFF78CF92046FF304D30FFF787F9204678
:10200000FF307130FFF782F92046FF309530FFF73F
:102010007DF92046FF30B930FFF778F92046FF30D0
:10202000DD30FFF773F9E01DFF30FA30FFF76EF98E
:10203000892080002018FFF769F94920C000201886
:10204000FFF764F99B2080002018FFF75FF9292033
:1020500000012018FFF75AF910BD10B504469B2166
:10206000890061186068C968884201D3012000E0D6
:1020700000204000022108409B21890009590222CA
:10208000914308439B21890008512068C003C10F78
:102090009B2080002018FFF7CBF829210901611847
:1020A000A068C968884201D3012000E000204000F8
:1020B000022108400521C9016118096902229143E2
:1020C00008430521C9016118086120688003C10F18
:1020D000292000012018FFF7ABF810BD0521C90128
:1020E0004118496B491C0522D201821851630168CD
:1020F00049084900491C0160704770B504460D4607
:10210000E06A40084000401CE0626168A06B8142C8
:1021100001D3012000E000204000022108400222FB
:10212000E16A91430843E0626168606C814201D8D2
:10213000012000E000208000042108400422E16A20
:1021400091430843E06220788006C10F20462C307E
:10215000FFF76EF8206D40084000E907C90F0843FB
:1021600020656168E06D814201D8012000E0002017
:102170004000022108400222216D9143084320655E
:1021800020784006C10F20465030FFF751F8606FAD
:1021900040084000E907C90F0843606780200059E4
:1021A000A168814201D3012000E00020400002210B
:1021B00008400222616F914308436067207800065F
:1021C000C10F20467430FFF733F8982000594008BB
:1021D0004000E907C90F084398210851A42000597D
:1021E000A168814201D3012000E0002040000221CB
:1021F0000840982109590222914308439821085127
:102200002088C005C10F20469830FFF711F8BC2088
:10221000005940084000E907C90F0843BC21085194
:10222000C8200059A168814201D3012000E00020AC
:10223000400002210840BC21095902229143084371
:10224000BC21085120888005C10F2046BC30FEF714
:10225000EFFFE020005940084000401CE0210851F9
:10226000EC200059E168814201D8012000E0002003
:10227000400002210840E02109590222914308430D
:10228000E0210851F8200059E168814201D3012082
:1022900000E00020800004210840E02109590422C8
:1022A00091430843E021085120884005C10F204692
:1022B000E030FEF7BDFFFF20053000594008400028
:1022C000401CFF2105310851FF2011300059E16801
:1022D000814201D3012000E000204000022108409B
:1022E000FF2105310959022291430843FF2105319D
:1022F0000851FF201D300059E168814201D80120BA
:1023000000E00020800004210840FF210531095928
:10231000042291430843FF2105310851208800051C
:10232000C10FE01DFD30FEF783FFFF20293000596B
:1023300040084000E907C90F0843FF21293108512F
:10234000FF20353000592169814201D3012000E08E
:102350000020400002210840FF21293109590222B2
:1023600091430843FF21293108512088C004C10F3F
:102370002046FF302930FEF75BFFFF204D3000592B
:1023800040084000E907C90F0843FF214D310851BB
:10239000FF20593000592169814201D8012000E015
:1023A0000020400002210840FF214D31095902223E
:1023B00091430843FF214D31085120888004C10F0B
:1023C0002046FF304D30FEF733FFFF2071300059BB
:1023D00040084000E907C90F0843FF217131085147
:1023E000616960684843FF217D310959884201D302
:1023F000012000E00020400002210840FF2171314F
:102400000959022291430843FF2171310851208864
:102410004004C10F2046FF307130FEF709FFFF2056
:102420009530005940084000E907C90F0843FF21D3
:1024300095310851FF20A13000596169814201D3D3
:10244000012000E00020400002210840FF219531DA
:102450000959022291430843FF21953108512088F0
:102460000004C10F2046FF309530FEF7E1FE9B20AF
:102470008000005940084000401C9B218900085101
:102480000520C0012018006940084000401C0521BB
:10249000C9016118086170BD4920000680680121EA
:1024A00049050843492109068860704700BF024971
:1024B000086400BF704700000034014010B50020E0
:1024C000064948638863C863FF211231034801F05D
:1024D00074F90349014801F070F910BD003401405E
:1024E0004404000010B50446064844638463C46392
:1024F000FF21123101F061F90349024801F0EAF9C4
:1025000010BD0000003401404404000010B5044632
:1025100007484463002006498863C863552104487E
:1025200001F0D8F905210902014801F046F910BD72
:102530000034014010B504460748446300200649B2
:102540008863C8630549044801F0C4F95021024872
:1025500001F033F910BD0000003401400505000012
:1025600010B50446002008494863084684630020EB
:10257000C8635521044801F0ADF90521090202485C
:1025800001F01BF910BD00000034014010B50446F5
:10259000002008494863084684630020C863552129
:1025A0000901044801F096F90521024801F005F9F6
:1025B00010BD00000034014010B50446002006495B
:1025C000486388630846C463044901F083F95021D5
:1025D000014801F0F2F810BD00340140050500008B
:1025E00010B5044600200749486388630846C46361
:1025F0005521090101F06EF90521024801F0DDF8CD
:1026000010BD00000034014010B504460648446384
:102610008463C463FF21153101F05CF9034902486A
:1026200001F0CBF810BD000000340140410400006F
:1026300010B50446064844638463C463054901F049
:1026400049F9FF211531024801F0B7F810BD00002B
:10265000003401404104000010B5044606484463BC
:102660008463C463FF21423101F034F90349024815
:1026700001F0A3F810BD0000003401401404000074
:1026800010B50446064844638463C463054901F0F9
:1026900021F9FF214231024801F08FF810BD0000FE
:1026A000003401401404000010B504460648446399
:1026B0008463C463054901F00DF9FF2145310248E7
:1026C00001F07BF810BD000000340140110400004F
:1026D00010B50446064844638463C463FF21453152
:1026E00001F0F8F80349024801F067F810BD000056
:1026F0000034014011040000411E024AD16200BFB3
:10270000704700000034014010B50121084801F075
:102710009DF81021064801F099F8FF210131044885
:1027200001F094F801210903014801F08FF810BD70
:10273000003401400021054A51621146486309688E
:1027400001221143014A116070470000000400405B
:1027500004480068400840000249086000204862C0
:10276000704700000004004070B504462079C0079F
:10277000C00F002856D049200006C16B6167304861
:102780000168A1674168E167214608312046D830D9
:10279000FEF7B8FF002804D001280FD002283FD14F
:1027A0003DE0E42109592246083209239B01D21851
:1027B000126C5143880BFFF795FE32E0A8221259A4
:1027C000234608330925AD015B191B6C5A4310469B
:1027D0009C221159FDF7F6FCFF210D3109594843A0
:1027E000810BFF200530015101460A59214608316D
:1027F0002B46C918096E4900501AFFF757FEFF22F1
:1028000001321259D2000F4BD218237A9B00D158B3
:10281000FF220532105988470420207001E000E0B3
:1028200000BF0BE021460831092292018918886C0B
:10283000FFF762FFFFF742FE0020207070BD00002E
:1028400040000049D405002010B504462079C00797
:10285000C00F00280CD021460831092292018918A6
:10286000886CFFF749FFFFF729FE0020207016E073
:10287000FF202930005901280DD1FF212D310959A0
:102880002246083209239B01D218926C5143880BCF
:10289000FFF728FE03E000202070FFF70FFE10BDB9
:1028A00010B504460520C0012018406C002803D054
:1028B000606840084000606020788000024A11583B
:1028C0002046884710BD0000AC05002070B50446C6
:1028D0002079C007C00F00287ED0207A002809D1B7
:1028E00049200006C16B616745480168A1674168DE
:1028F000E16708E049200006C16B61674048416814
:10290000A1670168E16700BF01208007406A0546B2
:102910002A46214608312046C030FFF713F8002828
:1029200004D0012818D002285AD134E000BF35481D
:10293000406A054620460830092189014018406E4A
:10294000411920460830092292018018006C81420A
:1029500001D2FFF7A1FD44E0FFF7D6FE2046083084
:10296000FFF768F821460831092292018918886C1E
:10297000FFF7C2FEA27AD200234BD218237A9B0023
:10298000D1582246083209239B01D218106B884780
:102990000520207025E0214608310922920189187E
:1029A000086CFFF7A9FEE4210959224608320923E1
:1029B0009B01D218126C5143880BFFF777FDE4217D
:1029C00009592246083209239B01D218126C51433F
:1029D000880BFFF787FD00E004E00320207000E093
:1029E00000BF0BE021460831092292018918886C4A
:1029F000FFF782FEFFF762FD0020207070BD00002F
:102A000040000049003401400406002010B504468F
:102A10002079C007C00F002834D0214882682146A1
:102A200008312046B030FFF770F9002804D00128A3
:102A300015D0022824D115E000BF1A48406A21466B
:102A40000831092292018918496E41182046083040
:102A50008018006C814201D2FFF71EFD11E00220B8
:102A600020700EE00520C0012018406C042188432E
:102A7000001D0521C901611848640020207000E094
:102A800000BF0BE021460831092292018918886CA9
:102A9000FFF732FEFFF712FD0020207010BD00008E
:102AA000400000490034014010B50446FFF7F4FC33
:102AB00010BD000010B504462079C007C00F0028E3
:102AC00043D0FFF7FBFC27488268214608312046A7
:102AD000E830FFF79BF9002804D0012810D0022825
:102AE00031D122E0FF2201321259D2001E4BD218FE
:102AF000237A9B00D158FF2205321059884723E0E2
:102B000021460831092292018918C86DFFF7CEFCD1
:102B1000FFF7FAFD21460831092292018918486C15
:102B2000FFF7EAFD052020700EE00520C001201807
:102B3000406C0821884308300521C90161184864A8
:102B40000020207000E000BF0BE021460831092280
:102B500092018918886CFFF7CFFDFFF7AFFC0020CA
:102B6000207010BD40000049D405002010B5044677
:102B70002079C007C00F00283FD0B1208000201866
:102B80000521C9014018406BB12189006118052257
:102B9000D2018918896B884208D310462018406CEE
:102BA00002218843801C11466118486400BF01213E
:102BB000134800F0DBFE1021114800F0D7FEFF2182
:102BC00001310F4800F0D2FE012109030C4800F04A
:102BD000CDFE00BF21460831092292018918086CF8
:102BE000FFF78AFD20460830FFF711F8FFF766FC73
:102BF000FFF752FC0120207001E0FFF75FFC10BDE1
:102C00000034014070B504462079C007C00F002889
:102C10007ED0207A002809D149200006C16B616767
:102C200063480168A1674168E16708E04920000640
:102C3000C16B61675E484168A1670168E1675C48F4
:102C4000816890200151015994200059814208D98E
:102C50009020015994200059081A810098200151B0
:102C600002E00021982001517020005D002807D16A
:102C7000214608312046FF304130FEF797FD0AE03B
:102C80007020005D012806D17120005D8000494A56
:102C900011582046884720460830FEF7A4FF00BFA1
:102CA0004548456A00BF204608300921890140187F
:102CB000006E411920460830092292018018006BED
:102CC00081420ED22046083011464018406E41190C
:102CD000204608308018406B814202D2FFF7DCFBAF
:102CE00058E098200159216620466030FEF77FFCAD
:102CF000A020015920460830FF30FF3002308160AB
:102D0000204608304122D2008018616E416000E008
:102D100041E0204608301146401800F0C1FA204634
:102D200008304121C9004018016A204608300922B4
:102D30009201801881622046083011464018FFF742
:102D40000BF821460831092292018918486BFFF7D8
:102D5000D3FCA27AD200194BD218237A9B00D15807
:102D60002246083209239B01D218106B8847B120F4
:102D700080002018816898200059814205D298204F
:102D80000059B121890061188860B12080002018A5
:102D9000FFF763F90BE021460831092292018918F7
:102DA000886CFFF7A9FCFFF789FB0620207070BD37
:102DB00040000049C80500200034014004060020FE
:102DC00010B50446FFF77AFBB12080002018FFF70A
:102DD00085F910BD10B504467248006BB121890019
:102DE0006118C8606F48C16A8C2001510059810088
:102DF0009C2001510059B121890061184860B1211E
:102E000089006118606C0861B12189006118606DEA
:102E100048612078032804DB2078062801DC0120A3
:102E200000E000200146B12080002018FFF765F97E
:102E30000020B121890061188860207805287DD1A3
:102E400020798007C00F00282CD0204608300921A7
:102E500089014018C0692146083109229201891868
:102E6000496D4843810BFF208D3001512046FF30D2
:102E7000893000F00DFBFF209D300159001D0151EC
:102E8000001D616C01512046FF30A13000F008FAAE
:102E9000FF20C130015920460830092292018018D4
:102EA000016211E020460830092189014018C069FB
:102EB00021460831092292018918C96C4843810BC7
:102EC000204608308018016220794007C00F002892
:102ED00016D0A4200159FF20D9300151001D616D89
:102EE00001512046FF30D93000F0DAF9FF20F930E7
:102EF000015920460830092292018018416232E0CF
:102F000020790007C00F002821D0A4200159A82053
:102F100000594143890BFF20D93001519C200059B1
:102F2000616D4143890BFF20DD3001512046FF30A8
:102F3000D93000F0B5F9FF20F93000E029E001595F
:102F40002046083009229201801841620BE0204699
:102F50000830092189014018C16C20460830092237
:102F6000920180184162214608310846AB22920046
:102F70008018FEF79DFF012813D10520C0012018FD
:102F8000406C1021884310300521C9016118486444
:102F900007E02078062804D12046FF301130FEF7E4
:102FA000C9FB10BD4000004970B5044621460831F8
:102FB0002046FF306D30FEF72BFB7020005D0228AD
:102FC00011D100BF4007406A05462A462146083114
:102FD000081DFEF7CEFDFF2179310A59616B4A4386
:102FE000900BFFF7A7FB70BD7047000010B50446BB
:102FF000207805282DD17020005D02281FD1FFF711
:10300000A7FB032170200155A07A1349095CA17226
:10301000A27AD200114BD218237A9B00D1582246B3
:10302000083209239B01D218106B884721460831CA
:10303000092292018918886EFFF77CFB0BE0702053
:10304000005D032807D1FFF783FB002170200155A5
:1030500001E0FFF77DFB10BD2400002004060020E6
:1030600070B50446214608312046FF305130FEF746
:10307000EBFB7020005D022811D100BF4007406AC1
:1030800005462A4621460831081DFEF772FD2146F5
:103090000831092292018918886EFFF74BFB70BD39
:1030A00010B50446B12080002018FEF740FF10BD87
:1030B00001460520C0010818406C704770B50546F0
:1030C0000C46FF20F530844201DA044603E007484D
:1030D000844200DD0446A0030449FDF77DF829463B
:1030E0000831092292018918C86170BDC409000025
:1030F000416849084900491C4160704741684908D6
:10310000490041607047C16802229143C160704725
:10311000C16849084900C1607047C16889088900D1
:10312000491CC1607047000004498968FF220132D0
:1031300091430143014A9160704700000003014040
:10314000044989680122520791430143014A916071
:10315000704700000003014070B505460C4600BFF3
:103160002868C00F002849D16068042847D1A069A9
:10317000002804D001280DD0022828D11CE000BF6F
:10318000E86880088000801CE86000BF2846FFF7E0
:10319000BFFF1CE02846FFF7B6FF2846FFF7BDFF3C
:1031A0000820E968082291430143E96000BF00213B
:1031B000284600F063F80AE02846FFF7A4FF2846F7
:1031C000FFF7ABFF0421284600F058F800BF00BF0E
:1031D000616820680843A16808432968244A1140AF
:1031E000084328602348854241D1E06800F04CF84C
:1031F0002069FFF799FF6069FFF7A2FF37E0606879
:103200000C281AD12846FFF77EFF2846FFF780FFDB
:10321000A168606808432968174A1140084328607C
:103220001448854223D1E06800F02EF82069FFF7AA
:103230007BFF6069FFF784FF19E02846FFF763FF13
:103240002846FFF765FFA1686068084329680A4AB5
:103250001140084328600748854208D1E06800F023
:1032600013F82069FFF760FF6069FFF769FF70BD21
:10327000F33FF9FF08030140F3FFF9FFC26804239D
:103280009A430A43C2607047044989680122520286
:1032900091430143014A91607047000000030140DF
:1032A00010B543680268D11A036BCB1A82685A437F
:1032B000C3684B43D318426B5218046B6400121B53
:1032C000046962439A184261836942699A4201DA49
:1032D000426900E08269C3699A4207DD83694269F5
:1032E0009A4201DA426902E0826900E0C269426101
:1032F0004369426AD2184262836A9B03426A9A42D5
:1033000001DA426A01E0826A9203C36A9B039A422D
:1033100009DD836A9B03426A9A4201DA426A04E049
:10332000826A920301E0C26A92034262426A921385
:103330000262026B4263016310BD002202604260C0
:1033400042610263426301628A0342627047000085
:10335000024949690143014A516170470010024026
:103360000249C9690143014AD16170470010024016
:10337000024989690143014A916170470010024086
:1033800010B500F069F804494968F02211400909B4
:10339000024A515CC84010BD0010024008410008BC
:1033A00010B5FFF7EDFF05494968072212021140E9
:1033B000090A034A515CC84010BD000000100240D9
:1033C0001841000810B5FFF7DBFF054949680722DF
:1033D000D2021140C90A034A515CC84010BD000026
:1033E000001002401841000800201549154A526893
:1033F00007239B041A40920C002A07D1114A5268F5
:103400001A40920C0A324A43104618E00D4A52689C
:1034100007239B041A40920C012A07D1094A5268DB
:103420001A40920C0B324A43104608E0054A526893
:1034300007239B041A40920C0C324A4310467047F3
:1034400000127A0000100240024840680C21084037
:10345000704700000010024070B500247D252D0249
:103460000A4EFFF7F1FF002804D0082806D00C28E8
:1034700002D000BF344605E02C4603E0FFF7B4FF5E
:10348000044600BF00BF204670BD00000024F400C9
:103490004268910302698A420BDA83680269D21892
:1034A0008A4204DA83680269D218026111E001617C
:1034B0000FE002698A420BDDC3680269D2188A42B2
:1034C00004DDC3680269D218026102E0016100E014
:1034D000016102699213426170478A03026141618E
:1034E0007047000010B50C4C601E0C49884201D991
:1034F00001200CE0601E0A4948610321081F00F00A
:103500006DFD002006498861072008610020002821
:1035100001D000BFFEE710BD80320200FFFFFF00B8
:1035200000E000E010B5034800F07EF80248FFF725
:1035300051FC10BD340600202C00002024480068F7
:103540000121084322490860084640682149084093
:103550001F494860084600681F4908401C49086028
:103560000846006801218904884319490860084613
:1035700040687F2109048843154948609F20000462
:1035800088600120000649690143114A516100BF6A
:1035900012480069032189040843104908610F4853
:1035A00040304069022108430C494031486100BF66
:1035B0000A4840304069022108400228F8D0C80576
:1035C000034949698143024A516100BF70470000C5
:1035D000001002400000FFF8FFFFF6FE4000004927
:1035E00010B504462079C007C00F00280AD000217A
:1035F0000548FFF763FD0020FDF7E4FE6068400822
:103600004000606010BD00002C00002070B5044632
:1036100000250448456BE56020460C30FDF7E7FFC8
:1036200070BD00004000004910B504462046FFF779
:10363000EDFF2D48FFF73CFD002804D0A0684008AE
:103640004000401CA0606078002806D0012813D0FC
:1036500002281FD0032837D12AE0606B401C60632A
:10366000216B606B884206D300206063204600F027
:103670003DF80120607028E0A068002802D00320F7
:10368000607006E020798007C00F002801D002207A
:1036900060701AE0A068002802D00320607006E085
:1036A00020798007C00F002801D1012060700CE054
:1036B00020798007C00F002805D1A0600A48FFF7D5
:1036C000EFFC0120607000E000BF00BF60780228BE
:1036D00003D10548FFF70CFD02E00348FFF70EFD9C
:1036E000204600F011F810BD2C00002070B50446F3
:1036F00000250448456B294620460C30FDF784FF21
:1037000070BD0000400000490178491C017001783B
:103710000A2911D3002101700179C907C90F0029B5
:1037200005D1416849084900491C416004E0022272
:1037300081689143891C81607047000010B50221A7
:10374000064800F057F9002806D00221034800F08F
:1037500031F80348FFF74AFC10BD000000040040A8
:103760002C00002010B58021064800F043F9002805
:1037700006D08021034800F01DF80348FFF720FB26
:1037800010BD0000003401402C00002010B51021B5
:10379000064800F02FF9002806D01021034800F059
:1037A00009F80348FFF780F910BD0000003401401C
:1037B0002C000020CA4302617047026A8A430262F9
:1037C0007047000070B50246012901D100242AE0AB
:1037D000042901D1012426E0102901D1022422E08C
:1037E000402901D103241EE0FF240134A14201D16C
:1037F000042418E00124A402A14201D1052412E00E
:1038000001242403A14201D106240CE00124A403D5
:10381000A14201D1072406E001242404A14201D1E0
:10382000082400E009242346064CE55C14461834BD
:1038300028190468044DEE5C0825B540AC430460CB
:1038400070BD0000524100085C41000870B502469E
:10385000012901D100242AE0042901D1012426E014
:10386000102901D1022422E0402901D103241EE0C5
:10387000FF240134A14201D1042418E00124A40250
:10388000A14201D1052412E001242403A14201D167
:1038900006240CE00124A403A14201D1072406E080
:1038A00001242404A14201D1082400E00924234674
:1038B000064CE55C1446183428190468044DEE5C87
:1038C0000825B540AC43046070BD00008441000889
:1038D0008E410008026A0A4302627047C2680A43C6
:1038E000C260704770B50246012901D100242AE068
:1038F000042901D1012426E0102901D1022422E06B
:10390000402901D103241EE0FF240134A14201D14A
:10391000042418E00124A402A14201D1052412E0EC
:1039200001242403A14201D106240CE00124A403B4
:10393000A14201D1072406E001242404A14201D1BF
:10394000082400E009242346064CE55C144618349C
:1039500028190468044DEE5C0825B5402C4304602A
:1039600070BD0000204100082A41000870B50246E1
:10397000012901D100242AE0042901D1012426E0F3
:10398000102901D1022422E0402901D103241EE0A4
:10399000FF240134A14201D1042418E00124A4022F
:1039A000A14201D1052412E001242403A14201D146
:1039B00006240CE00124A403A14201D1072406E05F
:1039C00001242404A14201D1082400E00924234653
:1039D000064CE55C1446183428190468044DEE5C66
:1039E0000825B5402C43046070BD000084410008E8
:1039F0008E410008024610690840884201D101202A
:103A000070470020FCE7FFB581B0064614463046FB
:103A1000603002994018009020461F22014640085D
:103A200005E04900C307DB0F1943521E4008002878
:103A3000F7D10D46954029460D46284600F096FAE6
:103A4000C106C90E01204002884000990F688743D3
:103A500020461F220146400805E04900C307DB0F4E
:103A60001943521E40080028F7D10D4695402946BB
:103A70000D46284600F07AFAC106C90E049888401F
:103A800007430098076005B0F0BD0000F0B503469D
:103A90001446012901D100252AE0042901D101257C
:103AA00026E0102901D1022522E0402901D1032579
:103AB0001EE0FF250135A94201D1042518E00125AA
:103AC000AD02A94201D1052512E001252D03A9422D
:103AD00001D106250CE00125AD03A94201D107253E
:103AE00006E001252D04A94201D1082500E00925A1
:103AF0002846094D2E5C1D46183572191568074E6B
:103B0000375C074EBE40B543044E365C2746B7408F
:103B10003D431560F0BD0000204100082A41000827
:103B20007300010070B5012901D100242AE00429A5
:103B300001D1012426E0102901D1022422E04029EC
:103B400001D103241EE0FF240134A14201D1042449
:103B500018E00124A402A14201D1052412E00124AD
:103B60002403A14201D106240CE00124A403A142B4
:103B700001D1072406E001242404A14201D1082434
:103B800000E009242346046A054DEE5C0225B54099
:103B9000AC43034DEE5C1546B5402C43046270BD4A
:103BA0003E41000810B50022026870241346A3436A
:103BB0001A464B681A43032424021346A3431A46A9
:103BC000CB681A4302608B68C3620B8883620B69FF
:103BD00003630123436110BD10B50C490C4800F08C
:103BE00006F9012804D10949094800F07DF80BE0E5
:103BF00006496031064800F0FAF8012804D103496B
:103C00002031034800F070F810BD000020000010C3
:103C10000038014010B50C490C4800F0E8F80128C4
:103C200004D10949094800F05FF80BE0064920314A
:103C3000064800F0DCF8012804D10349203103488C
:103C400000F052F810BD00002000001000440040B9
:103C500008B5244A914201D1012200E00022214B03
:103C60005B1C994201D1012300E000231A431D4B44
:103C7000DB1C994201D1012300E000231A43194BB8
:103C8000DB1D994201D1012300E000231A43154BAB
:103C90000F33994201D1012300E000231A43002A87
:103CA00006D00268009200BF4268009200BF17E091
:103CB000012212070A4001231B079A4204D10A017C
:103CC0001209D24302600BE0012252070A4001238D
:103CD0005B079A4204D1C268CB00DB089A43C260FA
:103CE00008BD00000100001008B5244A914201D12E
:103CF000012200E00022214B5B1C994201D10123EB
:103D000000E000231A431D4BDB1C994201D1012323
:103D100000E000231A43194BDB1D994201D1012316
:103D200000E000231A43154B0F33994201D10123C0
:103D300000E000231A43002A06D00268009200BF68
:103D40004268009200BF17E0012212070A400123D7
:103D50001B079A4204D10A011209D24302600BE008
:103D6000012252070A4001235B079A4204D1C2682C
:103D7000CB00DB089A43C26008BD000001000010C0
:103D8000C16804229143C1607047C1680822914311
:103D9000C1607047C168012252031143C16070477E
:103DA000012212070A4001231B079A4205D1C2686B
:103DB0000B011B091A43C26018E0012252070A4096
:103DC00001235B079A4205D10269CB00DB081A4345
:103DD00002610BE0012292070A4001239B079A42ED
:103DE00004D142698B009B081A4342617047024626
:103DF00001200007084001231B0798420BD11068DF
:103E00000B011B0918400B011B09984201D101202D
:103E100070470020FCE701204007084001235B07B2
:103E200098420BD1D068CB00DB081840CB00DB08F0
:103E3000984201D10120EBE70020E9E70020E7E705
:103E40007FB504460D4600260020009001900290A8
:103E50000390FFF701FB0090FFF792FA0190FFF744
:103E60009FFA0290FFF7AEFA039000BFE0680121CD
:103E700049030840400B002824D1E96868680843DA
:103E800029690843E168104A11400843E060A868C6
:103E900021690322120391430143216100BF0B48B2
:103EA000844201D1039E03E00948844200D1029E6E
:103EB000002E07D02868002804D0314620462A6802
:103EC00000F008F87FBD0000F3E9FFFF0038014073
:103ED00000440040F7B582B00C461546A9001922EF
:103EE00062431046FCF76EF906466421FCF76AF956
:103EF0000701A900192262431046FCF763F9064640
:103F0000A900192262431046FCF75CF96421009075
:103F1000FCF758F964214843301A0001323001900F
:103F2000FCF750F9F02108403F18A900192262431C
:103F30001046FCF747F90646A900192262431046CD
:103F4000FCF740F964210090FCF73CF964214843F8
:103F5000301A000132300190FCF734F90007000FED
:103F6000381881B20298816005B0F0BD0246202366
:103F7000110C002901D0103B0A46110A002901D07A
:103F8000083B0A461109002901D01B1F0A46910867
:103F9000002901D09B1E0A465108002901D0981E15
:103FA0007047981AFCE730B47446641E2578641C88
:103FB000AB4204D3635D5B00E31830BC18471D4679
:103FC000F8E70000002805DBC206D20E012191406F
:103FD000014A11607047000000E100E010B50028C0
:103FE00019DB1A4A03231B02D21883089B00D258FC
:103FF0008307DC0EFF23A3409A438B071B0E840725
:10400000E40EA3401A43114B032424021B19840815
:10401000A4001A5118E00E4A03071B0F083B9B0827
:104020009B00D2588307DC0EFF23A3409A438B07E3
:104030001B0E8407E40EA3401A43054B0407240F0C
:10404000083CA408A4001A5110BD000000E100E0E3
:104050001CED00E010B5002819DB1A4A03231B02EF
:10406000D21883089B00D2588307DC0EFF23A3409D
:104070009A438B071B0E8407E40EA3401A43114B8F
:10408000032424021B198408A4001A5118E00E4AC4
:1040900003071B0F083B9B089B00D2588307DC0ECD
:1040A000FF23A3409A438B071B0E8407E40EA34013
:1040B0001A43054B0407240F083CA408A4001A5116
:1040C00010BD000000E100E01CED00E072B6FCF75E
:1040D00095FCFCF75FFDFCF7DBFBFCF795FEFCF7BE
:1040E0006DFEFCF72DFDFCF787FFFCF733FEFCF7B8
:1040F000C1FFFDF715F862B600BF0248FFF770FA7E
:10410000FBE7000034060020000000000000000073
:10411000010203040607080900000000010203046D
:104120000000000004040404383800000800000007
:10413000080000080000080000000800000000025D
:104140000406080A0C0E10140001020304050607F9
:10415000080A0000000004040404383800000800C5
:10416000000008000008000008000000080000002F
:1041700000020406080A0C0E1014000102030405D4
:104180000607080A00000000040404043838000090
:1041900008000000080000080000080000000800F7
:1041A000000000020406080A0C0E101400010203AD
:1041B00004050607080A0000D84100080000002096
:1041C0006C0600008A030008904300086C0600207B
:1041D0000405000004010008111302011A01042C57
:1041E0000201020B1A020D13050315040105021D3D
:1041F000030104050F2B030404720502330E14405F
:10420000420F1AFF01C1E3F401091E1001241A290B
:104210003432F8143C1201547493182364031A7452
:1042200018F21432962914DA021011022220326494
:104230002399091BCC0C0822191485EB51BC7B1463
:10424000AEE0A92CC14B3333386978512974190475
:104250003914CA10AC29141AAA0529346918290C72
:104260004123DB68FC2597FF7819EF29473908417E
:1042700014C2F5288C3E0AD7282240031266065A3B
:10428000A30481095638690C1485EB51FC7B14AEEC
:10429000C0011829382399192380BB1BC05D049ADB
:1042A000125C190823CC0C23D00232F01AE0FDB2C4
:1042B0000A3223023B1F14D34A0172644B6A390C41
:1042C0001963D123872B6924812924B2081A291163
:1042D000E924CBE803245AF814C12934A92432C6AE
:1042E000E31027A9F0411A2C6C69485AF40CE9B480
:1042F0008B3C0F240B14740E240B10999990E92415
:104300000B141E0524A9B412CEFACA2429B4E9D884
:1043100009122401B4A9D8143D5C01F205E9FC237B
:104320005B01091224413204136D2B14080D2A1469
:1043300008CD28140869271B08B50C13052C1B0889
:1043400049101361301408A92F1B08E9044B3126CA
:10435000041AA9041A59041A81041AD1045A090426
:10436000290C2914291C2924130D255B083504293F
:104370000C1A8D041AE1041A61045AB904290C2993
:1043800014291C01180B14D0071063E80300000067
:04000005080000C12E
:00000001FF
