:020000040800F2
:10000000580B002049010008530100085501000861
:1000100000000000000000000000000000000000E0
:100020000000000000000000000000005701000870
:10003000000000000000000059010008ED37000832
:10004000000000005D0100085D0100085D0100087E
:100050005D0100085D0100085D010008000000006E
:100060000000000000000000000000000000000090
:10007000D9040008053B00082D3B00085D0100087D
:10008000DD3A00085D0100085D0100080000000085
:100090005D0100085D0100085D0100085D010008C8
:1000A000000000005D01000800000000753F00082E
:1000B000B93F000800000000000000000000000040
:1000C00000F002F800F030F80CA030C8083824180E
:1000D0002D18A246671EAB4654465D46AC4201D180
:1000E00000F022F87E460F3E0FCCB6460126334282
:1000F00000D0FB1AA246AB4633431847D84700004E
:10010000F84700000023002400250026103A01D300
:1001100078C1FBD8520700D330C100D50B607047BF
:100120001FB51FBD10B510BD00F001F91146FFF756
:10013000F7FF04F073FB00F019F903B4FFF7F2FFC7
:1001400003BC00F01BF90000084909488047094832
:100150000047FEE7FEE7FEE7FEE7FEE7FEE70000FA
:1001600005480649044A064B70470000FFFFFFFFA1
:100170000D380008C100000858070020580B002067
:100180005807002001E004C0091F0429FBD28B0797
:1001900001D50280801CC90700D002707047002979
:1001A0000BD0C30702D00270401C491E022904D3A1
:1001B000830702D50280801C891EE3E70022EEE758
:1001C0000022DFE7002203098B422CD3030A8B4273
:1001D00011D300239C464EE003460B433CD400223F
:1001E00043088B4231D303098B421CD3030A8B4251
:1001F00001D394463FE0C3098B4201D3CB01C01A1F
:10020000524183098B4201D38B01C01A52414309E9
:100210008B4201D34B01C01A524103098B4201D3D7
:100220000B01C01A5241C3088B4201D3CB00C01A44
:10023000524183088B4201D38B00C01A52414308BC
:100240008B4201D34B00C01A5241411A00D20146E1
:100250005241104670475DE0CA0F00D0494203107A
:1002600000D34042534000229C4603098B422DD3C9
:10027000030A8B4212D3FC22890112BA030A8B4271
:100280000CD3890192118B4208D3890192118B42C0
:1002900004D389013AD0921100E08909C3098B4245
:1002A00001D3CB01C01A524183098B4201D38B0188
:1002B000C01A524143098B4201D34B01C01A52412B
:1002C00003098B4201D30B01C01A5241C3088B4270
:1002D00001D3CB00C01A524183088B4201D38B005B
:1002E000C01A5241D9D243088B4201D34B00C01AE5
:1002F0005241411A00D20146634652415B101046FA
:1003000001D34042002B00D54942704763465B1041
:1003100000D3404201B50020C046C04602BD704730
:100320007047704700487047F406002070477546D4
:10033000FFF7F8FFAE46050069465346C008C00007
:10034000854618B020B5FFF70BFF60BC00274908B1
:10035000B6460026C0C5C0C5C0C5C0C5C0C5C0C55D
:10036000C0C5C0C5403D49008D46704710B5044624
:10037000C046C0462046FFF7E0FE10BD01491820E8
:10038000ABBEFEE72600020070B58C180578401C55
:100390006B075B0F01D10378401C2A1106D102784C
:1003A000401C03E00678401C0E70491C5B1EF9D10E
:1003B0002B0705D40023521E0DD40B70491CFAE7FD
:1003C0000378401CCB1A921C03E01D780D70491C69
:1003D0005B1C521EF9D5A142D8D3002070BD026823
:1003E0008A430260704701468868C007C00F012237
:1003F000504050407047014694204058022210401F
:1004000040087047014694204058C007C00F0122A1
:100410005040504070470000F8B506460D46286829
:10042000070D3046FFF7DFFF00284ED13046FFF7BB
:10043000E9FF002849D02868B16B032212059143D7
:100440000143B16300BF002434E0002C06D0012C2E
:100450000CD0022C12D0032C20D117E0E100281D73
:1004600042580121304600F028F918E0E100281D2B
:1004700042581649304600F020F910E0E100281DEE
:1004800042581349304600F018F908E0E100281DF1
:1004900042581049304600F010F900E000BF00BF9C
:1004A000E0002B1DC0184268E0001958304600F0EB
:1004B00041F9641CBC42C8DD304600F0F1F800BFD1
:1004C0003046FFF798FF0128FAD0F8BD021100006E
:1004D000032200000433000010B50420492109065E
:1004E00009680140814201D1012100E00021002979
:1004F0000BD00420492109060968814349221206CC
:10050000116000BF014802F023F910BDD0000020A7
:1005100070B505460C462068A9681F22D202914397
:100520000143A96000BF2846616800F0FCF8284636
:10053000A16800F09FF82069696801229202914346
:100540000143696000BF2846616900F09AF82846B7
:10055000A16900F09DF8E0696968012212039143E6
:100560000143696000BF2846216A00F0A0F870BD11
:10057000F8B506460D462868070D3046FFF733FFED
:1005800000283FD13046FFF73DFF00283AD02868C9
:10059000F16A0722120591430143F16200BF002472
:1005A00025E0062C0CDAE0002B1D1A58A0002018BC
:1005B00001235B0318430146304600F01BF90CE0B1
:1005C000E0002B1D1A58A01F8300C01801231B0335
:1005D00018430146304600F00DF9E0002B1DC0180D
:1005E0004268E0001958304600F0A4F8641CBC4290
:1005F000D7DD304600F054F800BF3046FFF7FBFE71
:100600000128FAD0F8BD70B505460C462068A968E7
:100610000F22520491430143A96000BF6068A9689A
:10062000022291430143A96000BF2846A16800F05F
:100630007AF82846E16800F01DF82846216900F0A4
:1006400020F82846616900F023F8A0696968012252
:10065000D20291430143696000BFE06969680722E3
:10066000520391430143696000BF2846216A00F0AC
:100670001EF870BD826801239B029A430A43826080
:10068000704742680123DB059A430A434260704782
:100690004268024B1A400A4342607047E0FD3FFF48
:1006A0009421095802221143942211507047C26DBF
:1006B00020239A430A43C2657047F7B504460D46A6
:1006C000032000051F220146400805E04900C3073A
:1006D000DB0F1943521E40080028F7D10F46974000
:1006E00039460F46384604F06DF80146A06B0322E8
:1006F00012051040C840461CA06BE906C90EC91C73
:10070000891B8A008A181F21914088430299C906D3
:10071000C90EEA06D20ED21C921B9300D218914049
:100720000843A063FEBD4268FF2301339A430A4396
:1007300042607047F7B50C46172040011F22014662
:10074000400805E04900C307DB0F1943521E40086B
:100750000028F7D10E46964031460E46304604F04A
:1007600031F801462046172252011040C84081004E
:1007700000980C300D181F2000051F22014640086C
:1007800005E04900C307DB0F1943521E400800284B
:10079000F7D10E46964031460E46304604F012F828
:1007A0001F2212052240C240072090402F68874335
:1007B0001F2000051F220146400805E04900C3072D
:1007C000DB0F1943521E40080028F7D10E46964011
:1007D00031460E46304603F0F5FF014620461F2203
:1007E00012051040C84002994907490F81400F4344
:1007F0002F60FEBDF7B507460C46032000031F22FD
:100800000146400805E04900C307DB0F1943521EAB
:1008100040080028F7D10E46964031460E46304635
:1008200003F0D0FF01462046032212031040C840C7
:10083000810038462C300D18E206D20E1F2191405F
:10084000286888430299C906C90EE206D20E914073
:1008500008432860FEBD816808221143816000BF03
:1008600000BF816808221140C9080029F8D100BFE3
:1008700000BF00BF816804221143816000BF00BF38
:1008800081680422114089080029F8D170470000CE
:1008900000B5ADB0242124A8FFF792FC442113A891
:1008A000FFF78EFC0F204004249002202590C00109
:1008B000269000202790289029902A902B902C9009
:1008C00024A949200006FFF79EFE0320000513908F
:1008D0004548149006211591444916910621179117
:1008E0004349189106211991BD2189001A910621C9
:1008F0001B9113A949200006FFF73AFE24210AA8FC
:10090000FFF75EFC242101A8FFF75AFC1720C00264
:100910000A90FF2001300B9000200C900E900F9059
:100920001090119012900AA949200006FFF7F0FDDF
:100930000320000501902C481630029004210391F9
:100940002C490491042105912B490691042107911A
:100950002849163908910421099101A94920000666
:10096000FFF75AFD00BF49200006806801210843B7
:1009700049210906886000BF802049680143492257
:100980001206516000BF04211046FFF728FD4920E0
:100990000006FFF760FF00BF00BF49200006806827
:1009A0000421084080080028F6D100BF4920000635
:1009B00080680905084349210906886000BF00BF17
:1009C00002204921090609680140814201D1012123
:1009D00000E000210029F3D0022149200006FFF7A2
:1009E000FEFC2DB000BD00000E00C00023009000F2
:1009F00027005001260020012800800110B502F0D8
:100A0000D5FE03204B490968C908C9000143494A7A
:100A1000116000BF00BF48480068012108434649F3
:100A2000086000BF00BF00BF4348006802210840C3
:100A300040080028F7D00320C0043F494968072236
:100A40009204914301433C4A516000BF00BF1046ED
:100A500000680121090608431146086000BF00BF75
:100A600000BF35480068012149060840400E0028B3
:100A7000F6D0002030494968F022914301432E4AC4
:100A8000516000BF101511464968072212029143B8
:100A90000143294A516000BF0020114649680722DE
:100AA000D20291430143244A516000BF0220114603
:100AB0004968890889000143516000BF00BF00BF39
:100AC0001D4840680C2108400828F8D180061A49C2
:100AD0004968024691430143174A516000BF1748D5
:100AE00011464968C24311400143134A516000BF97
:100AF0000F20000402F04CFD0120000602F048FD2A
:100B00000120C00202F054FD012002F049FD022044
:100B100002F046FD0120400302F04AFD012002F0F0
:100B200047FD0120800302F043FD0120400402F054
:100B300037FD10BD002002400010024000C00080C0
:100B400000B58BB0282101A8FFF73AFB00200190E7
:100B500002900390FF200130049040200590800116
:100B60000690F8200790012008A90870002009903D
:100B70000A9001A9064800F035FB00BF0448006850
:100B8000012108430249086000BF0BB000BD00000E
:100B90000402014000B585B014216846FFF710FB40
:100BA0000120019002900220039000200490042074
:100BB00000906946644800F042FC082000906946B5
:100BC000614800F03CFC02200190002002900220CD
:100BD0000390012004900820009069465B4800F0D3
:100BE0002EFC01200490022000906946574800F036
:100BF00026FC01200490802000906946524800F0B5
:100C00001EFC012004900420009069464F4800F02B
:100C100016FC01200490009069464C4800F00FFC3F
:100C200001200490402000906946474800F007FCEE
:100C300003200190002002900220039000200490E5
:100C4000012000906946404800F0F9FB40200090E8
:100C500069463F4800F0F3FB1020009069463C488D
:100C600000F0EDFB202000906946384800F0E7FBDB
:100C7000022000906946344800F0E1FB20200090FB
:100C80006946334800F0DBFB4020009003200190D0
:100C9000002002900490039069460920C00600F0ED
:100CA000CEFB802000900320019000200290049051
:100CB000039069460920C00600F0C1FB00200290A5
:100CC0000220039000200490402000900320019017
:100CD00069460920C00600F0B2FB80200090032086
:100CE000019069460920C00600F0A9FB0420049089
:100CF0000220019001200290022003900420009025
:100D00006946134800F09BFB0020029002200090EF
:100D100069460F4800F093FB0520049002200190E3
:100D2000012002900220039010200090694607489D
:100D300000F085FB002002902020009069460348C7
:100D400000F07DFB05B000BD00080048000C004825
:100D50000004004810B500210D2002F0B3FA0D2068
:100D600002F06AFA0321102002F0ACFA102002F01F
:100D700063FA03210C2002F0A5FA0C2002F05CFAC1
:100D800002210E2002F09EFA0E2002F055FA0421F4
:100D90001B2002F097FA1B2002F04EFA04211C20BF
:100DA00002F090FA1C2002F047FA0521881F02F099
:100DB00089FA0020C04302F03FFA10BD00B587B0A9
:100DC0001C216846FFF7FCF90120800300900420F5
:100DD000019000040290002003900490012040073D
:100DE0000590012006906946064802F0CFFA00BF40
:100DF00004480068012108430249086000BF07B0A9
:100E000000BD00000403014010B5002076490968C8
:100E1000702291430143744A116000BF02201146C1
:100E2000886200BF7148C86200BF0020086300BF2D
:100E3000602201216C4802F0B7FF002201216A48BC
:100E400002F0FEFF00220421674802F0F9FF602251
:100E50001021654802F0A8FF00221021624802F02C
:100E6000EFFF00224021604802F0EAFF6022FF21EC
:100E700001315D4802F098FF0022FF2101315A48FC
:100E800002F0DEFF002201218902574802F0D8FF5C
:100E900000205549486300BF00BF886300BF00BF02
:100EA000C86300BF602289144F4802F07DFF002212
:100EB000012109034C4802F0C3FFF0204A490864AD
:100EC00000BF0121484802F099FE1021464802F077
:100ED00095FEFF210131444802F090FE01210903F3
:100EE000414802F08BFE00203F49096803221202AC
:100EF000914301433C4A116000BF60201146496C98
:100F0000090A09020143516400BF50140721090472
:100F10000022354B5B6C364C234004460C43144393
:100F20002343314C636400BF204600210122044664
:100F3000603463181C6894431C6000BF00230215D2
:100F4000194602F0EEFE28480021022204466034D1
:100F500063181C6814431C6000BF00BF806F012130
:100F600008432149886700BF00BF0846806F0221FF
:100F700008431D49886700BF00BF0846806F0421F1
:100F800008431949886700BF00BF0846806F0821E1
:100F900008431549886700BF00BF0846406C5103ED
:100FA00088431149486400BF8814096A01430E4A06
:100FB000116200BF00BF1046406C0121C903084305
:100FC0001146486400BF00BF08460068012108437D
:100FD0001146086000BF8021104602F00BFE102170
:100FE000014802F007FE10BD003401407FBB000045
:100FF000FFDFF0EF00B585B014216846FFF7E0F899
:10100000002001900490401E0290002003908F2148
:101010006846018069460120800702F051FF00BF49
:10102000012080070068012108438907086000BF8C
:101030000020019004900A480290002003908F2124
:10104000684601806946074802F03AFF01200549D9
:10105000C9680143034AD16000BF05B000BD00006C
:10106000FFFF00000004004000B585B01421684671
:10107000FFF7A6F84B20C0010090002001900390DC
:1010800002900C20049069461F4803F0AFF86946AF
:101090001E4803F0ABF81E491B4803F057F81C49E3
:1010A0002031194803F052F81949174802F0A6FFF9
:1010B00017496031144802F0A1FF134803F03BF8D0
:1010C000114803F033F8104803F03AF810490F487C
:1010D00003F03CF80E4920310C4803F037F80C4976
:1010E0000A4802F08BFF0A496031084802F086FF87
:1010F000064803F020F8054803F018F8034803F009
:101100001FF805B000BD0000003801400044004059
:101110002000001000BF1948406A01210843174908
:10112000486200BF00BF00BF1448406A0221084067
:1011300040080028F7D000BF11481249086000BFDE
:101140000220486000BF7D200001886000BF00BF12
:1011500000BF0C48C0688007800F002801D1012023
:1011600000E000200128F3D100BF074805490860CE
:1011700000BF00BF0548086000BF70470010024074
:101180005555000000300040AAAA0000CCCC000059
:1011900070B504460D4600262E6B2068B04205D27D
:1011A000022168688843801C686006E06068B0427D
:1011B00003D90221686888436860A068B04201D200
:1011C000A66803E0E068B04200D9E668E368A26878
:1011D000D11AF31A22695A431046FEF7F3FFE86466
:1011E00070BD000010B54B680A681A438B681A433B
:1011F00003681F4C23401A430260CB680A691A43F4
:101200000368FF24F134A3431A43026002680723F2
:101210001B039A434B691A4302600A7F52000B6A10
:101220001A43144B5B689B089B001A43114B5A608E
:10123000104A803A904208D11A465268F8239A43DD
:101240008B691A430B4B5A6009E00A4A52681F2304
:101250001B029A438B695B011A43064B5A60054A8D
:101260001268520852004B6A1A43024B1A6010BDB2
:10127000FF7FFCFC8002014010B5044600BF12490C
:10128000486B0021104A516300BF20656078022836
:1012900011D1207A4007C00F00280CD121460B48FD
:1012A00000F01AF821460A4800F016F821460948CD
:1012B00000F012F806E000200449886004498860C4
:1012C0000449886010BD000050040020E80500209B
:1012D000F4050020000600200A6D03689A420BD333
:1012E0008268521C826043689A420BD304238A6846
:1012F0009A43121D8A6005E08268002A02D0826843
:10130000521E826070470022002100BF05E00022CB
:1013100000E0521C152AFCD3491C8142F7D37047C8
:1013200010B504468420005900284CD020780300D2
:1013300003F065FA05041B26313C47008421095956
:101340008A00211D88580A21FEF73CFF8821085198
:10135000842109598A00211D88580A21FEF732FF8D
:101360008C200151022020702CE02078401CC1B25A
:10137000217094200059814201D90220207021E07F
:101380002078401CC1B2217098200059814201D9B7
:101390000320207016E02078401CC1B221709420F8
:1013A0000059814201D9042020700BE02078401CB4
:1013B000C1B221709C200059814201D900202070C7
:1013C00000E000BF04E000202070002190200151C7
:1013D00010BD000070B504460D4DA06800280FD068
:1013E00000200AE001228240A1681140002903D0B8
:1013F000411C8422515102E0401C2028F2DB02E013
:101400000021842041512846FFF78AFF70BD00006B
:10141000540600200268C16851430A02FF230133C9
:10142000C168591A8368594351180912816081684B
:101430000912416070470A0282604160704770B5CE
:1014400005460C46102360689843024628462168EA
:1014500000F050F86268110920686A688243034608
:101460004B431A436A6000BF28462269216800F096
:101470000BF82846E268216800F072F82846A26856
:10148000216800F0A3F870BDF7B504460D46284664
:101490001F220146400805E04900C307DB0F19433E
:1014A000521E40080028F7D10E46964031460E469F
:1014B000304603F087F981000F208840276A874370
:1014C00028461F220146400805E04900C307DB0FFC
:1014D0001943521E40080028F7D10E469640314667
:1014E0000E46304603F06EF98100029888400743AB
:1014F0002762FEBDF7B504460D4628461F22014669
:10150000400805E04900C307DB0F1943521E40089D
:101510000028F7D10E46964031460E46304603F07D
:1015200051F94100032088402768874328461F223D
:101530000146400805E04900C307DB0F1943521E6E
:1015400040080028F7D10E46964031460E463046F8
:1015500003F038F941000298884007432760FEBD38
:10156000F7B504460D4628461F220146400805E00F
:101570004900C307DB0F1943521E40080028F7D16A
:101580000E46964031460E46304603F01BF94100A8
:1015900003208840A768874328461F220146400849
:1015A00005E04900C307DB0F1943521E400800281D
:1015B000F7D10E46964031460E46304603F002F90A
:1015C0004100029888400743A760FEBDF7B5044676
:1015D0000D4628461F220146400805E04900C30782
:1015E000DB0F1943521E40080028F7D10E469640E3
:1015F00031460E46304603F0E5F8410003208840AE
:10160000E768874328461F220146400805E0490055
:10161000C307DB0F1943521E40080028F7D10E46BE
:10162000964031460E46304603F0CCF84100029811
:1016300088400743E760FEBD49200006806801211D
:1016400049050843492109068860704700BF0249DF
:10165000086400BF704700000034014010B500204E
:10166000064948638863C863FF211231034802F0CA
:1016700074FA0349014802F070FA10BD00340140C9
:101680004404000010B586B00446142101A8FEF7FA
:1016900097FD022002900020039002200490012078
:1016A00005900820019001A91C48FFF7C8FE012001
:1016B00005900220019001A91848FFF7C0FE012003
:1016C00005908020019001A91548FFF7B8FE012080
:1016D00005900420019001A91048FFF7B0FE0120F9
:1016E0000590019001A90D48FFF7A9FE0120059082
:1016F0004020019001A90A48FFF7A1FE611E094898
:1017000002F00DFB60200749496C090A09020143F8
:10171000044A516400BF06B010BD0000000C004830
:10172000000800480034014010B5044606484463F0
:101730008463C463FF21123102F00FFA03490248A7
:1017400002F054FA10BD00000034014044040000CF
:1017500010B5044607484463002006498863C863FF
:101760005521044802F042FA05210902014802F01D
:10177000F4F910BD0034014010B504460748446335
:10178000002006498863C8630549044802F02EFA20
:101790005021024802F0E1F910BD00000034014080
:1017A0000505000010B504460020084948630846B6
:1017B00084630020C8635521044802F017FA05210C
:1017C0000902024802F0C9F910BD000000340140CE
:1017D00010B5044600200849486308468463002089
:1017E000C86355210901044802F000FA05210248A6
:1017F00002F0B3F910BD00000034014010B50446FA
:1018000000200649486388630846C463044902F01F
:10181000EDF95021014802F0A0F910BD003401405B
:101820000505000010B50446002007494863886399
:101830000846C4635521090102F0D8F90521024880
:1018400002F08BF910BD00000034014010B50446D1
:10185000064844638463C463FF21153102F0C6F96E
:101860000349024802F079F910BD0000003401403C
:101870004104000010B50446064844638463C46311
:10188000054902F0B3F9FF211531024802F065F96C
:1018900010BD0000003401404104000010B50446B2
:1018A000064844638463C463FF21423102F09EF919
:1018B0000349024802F051F910BD00000034014014
:1018C0001404000010B50446064844638463C463EE
:1018D000054902F08BF9FF214231024802F03DF93F
:1018E00010BD0000003401401404000010B504468F
:1018F000064844638463C463054902F077F9FF2115
:101900004531024802F029F910BD000000340140C1
:101910001104000010B50446064844638463C463A0
:10192000FF21453102F062F90349024802F015F93E
:1019300010BD0000003401401104000010B5044641
:10194000611E024802F0EBF910BD000000340140B6
:101950000021054A51621146C862096801221143FB
:10196000014A11607047000000040040044800680C
:1019700040084000024908600020486270470000AB
:1019800000040040002101614161704700B57E22E2
:10199000525C5300D2183A4B9A5C9200A3239B00EE
:1019A000CB189A5842607E22525C5300D218344BB6
:1019B000D21852789200A3239B00CB189A588260C9
:1019C0007E22525C5300D2182D4BD218927892008E
:1019D000A3239B00CB189A58C2607E22525C13004E
:1019E00002F00DFF06041C051D061E3400BF00BFDB
:1019F000C3684268D21883685B009A420BDD0269B3
:101A0000521C0261836902699A4206D9002202616E
:101A100002220A7001E00022026118E000BF00BF4C
:101A2000C3684268D21883685B009A420BDA026985
:101A3000521C0261836902699A4206D9002202613E
:101A400002220A7001E00022026100E000BF00BF34
:101A50000A78022A12D1FF2281325258036A9A422E
:101A60000AD24269521C4261436A42699A4205D9CC
:101A7000002242614A7001E00022426100BD000084
:101A800088040020014600208B694A689A4215D2DA
:101A90008B698A689A4211D28B69CA689A420DD2C0
:101AA0000A69521C0A610A69521C0A61CB699A428E
:101AB00004D102230A689A43921C0A604A69521CA4
:101AC0004A610B6A4A699A4204D104230A689A431C
:101AD000121D0A600A789207D20F002A05D00A6800
:101AE000520852000A60012009E00A785207D20F1A
:101AF000002A04D00A68520852000A600220704787
:101B0000014600200A78D207D20F002A08D10A60C5
:101B10000A614A610A6852085200521C0A6000E0D9
:101B20000120704770B504460E460025216AE06921
:101B3000884213D80020A061216AE06988422BD135
:101B4000606A002804D0201D616801F0E8FD23E0F0
:101B5000A06A002820D0E06AA0611DE0616A206AC6
:101B60004018E169884205D3201D01F0B1FD60698C
:101B7000A06111E0616A206A4018A16A4018E16919
:101B8000884202D3E06AA06106E00020E061022101
:101B900020688843801C206020788007C00F0028C0
:101BA00004D020684008400020600125E069401C06
:101BB000E061284670BD70B504460D4600262078C9
:101BC000C007C00F002811D12060E061A0619520FE
:101BD00080002818C16A95208000281801F0CDFCEB
:101BE000206840084000401C206000E0012630468C
:101BF00070BD70470021C1600161704700B57E2251
:101C0000525C5300D218254BD21852789200A3236D
:101C10009B00CB189A5842600522D2018A1892691B
:101C200082607E22525C130002F0E9FD06041C056E
:101C30001D061E3400BF00BF836882695A43436893
:101C40009B019A420BD2C268521CC260C369C2682F
:101C50009A4206D90022C26001220A7001E00022E5
:101C6000C26018E000BF00BF836842695A434368FE
:101C70009B019A420BD9C268521CC260C369C268F8
:101C80009A4206D90022C26001220A7001E00022B5
:101C9000C26000E000BF00BF00BD0000880400205B
:101CA000014600207047014600200A79D207D20F72
:101CB000002A07D14A608A604A6852085200521CC2
:101CC0004A6000E0012070470021016141617047D6
:101CD00000B57E22525C5300D2183C4B9A5C9200B5
:101CE000A3239B00CB189A5842607E22525C53007B
:101CF000D218364BD21852789200A3239B00CB18EF
:101D00009A5882607E22525C5300D2182F4BD21810
:101D100092789200A3239B00CB189A58C2607E222F
:101D2000525C130002F06BFD06041E051F062038EE
:101D300000BF00BFC3684268D218C3695A438368B2
:101D40009B019A420BD90269521C0261036A026923
:101D50009A4206D90022026102220A7001E00022A2
:101D600002611AE000BF00BFC3684268D2188369ED
:101D70005A4383689B019A420BD20269521C02614A
:101D8000036A02699A4206D90022026102220A709D
:101D900001E00022026100E000BF00BF0A78022AD1
:101DA00013D1FF2281325258436A9A420BD94269B9
:101DB000521C4261836A42699A4206D900224261FA
:101DC00001224A7001E00022426100BD8804002027
:101DD00070B5034600201D6A5C68AC420BD21D6AD8
:101DE0009C68AC4207D21D6ADC68AC4203D21C6915
:101DF000641C1C616EE09D685C68AC420FD9DD68B4
:101E00005C68AC420BD9DD689C68AC4203D9022502
:101E10007E24A5541EE001257E24A5541AE0DD6829
:101E20009C68AC420BD9DD685C68AC4203D90325E1
:101E30007E24A5540EE004257E24A5540AE09D6866
:101E40005C68AC4203D900257E24A55402E0052538
:101E50007E24A5547F24A45C304D2D5D7E24A45C9B
:101E6000A54235D19C69641C9C619D6A9C69AC4209
:101E70002ED900249C61DC69002C02D14C688C6056
:101E800017E08D684C68AC4204D98D684C68641BBF
:101E90004C6305E08D68CC6B641B4D6864194C6322
:101EA0004D6BDC69641EA6000C460C34A5514C68D1
:101EB0008C60DC69062C04D102251C68AC43A41C90
:101EC0001C60DC69641CDC617E24A55C7F24A55455
:101ED00000241C615D6A1C69AC4203D8DD6A5C6940
:101EE000AC4204D904251C68AC43241D1C601C783A
:101EF000A407E40F002C05D01C68640864001C6073
:101F0000012009E01C786407E40F002C04D01C6851
:101F1000640864001C60022070BD0000AC04002056
:101F2000014600200A78D207D20F002A0AD10A609F
:101F30000A614A618A61CA610A6852085200521CE9
:101F40000A6000E00120704770B504460D4601208C
:101F500060702070C020005940084000401CC02123
:101F600008518C221359902212599B18942212590D
:101F70009B18982212599B189C2212599B18A02238
:101F800012599918B8221059FEF71CF9FF2169312E
:101F900009594843810AFF207D300151FF2209324F
:101FA000125903461B595A431046FF221132115948
:101FB000FEF708F9296B484306460520C0012018A2
:101FC00081693046FEF7FEF8EC210851EC200159FA
:101FD000FF2009300059814204D9FF2009300159FE
:101FE000EC200151FF207D3001592046FF30413067
:101FF00001F095FBEC2001592046FF30AD3001F097
:10200000BCFAEC2001592046FF30E53001F0B5FA6A
:10201000EC20015987208000201801F0AEFAEC2056
:1020200001592046C43001F07AFBFF207D30015970
:102030002018FFF700FAEC200159DC200151EC20B8
:102040000159E0200151EC200159E4200151EC201C
:102050000159E8200151FF2005300159F0200151BC
:10206000E8200059F02109594843010BEC200151A7
:1020700070BD70B504460D46A1686068884204D9F9
:10208000A1686068401A606305E0A168E06B401ACF
:102090006168401860632078C007C00F002806D12F
:1020A000E06B6063206840084000401C206060686E
:1020B000A060E1692162A169E1616169A1612169B1
:1020C0006161E1682161606BE060E36822699B18EF
:1020D00062699B18A2699B18E2699B18226A991889
:1020E000A06BFEF76FF8FF21693149594843810A17
:1020F000FF207D3041512818FFF78CF90520C001E1
:102100002818C06A401C0521C9016918C86270BD41
:10211000016849084900016000218160C160002216
:10212000026142618261C261026242628262C26293
:1021300002634163704710B50446207800280DD033
:10214000E82000590521C9016118896A4843010B3B
:10215000FF208D3001512018FFF75CF910BD10B53C
:10216000044600206070012020707D20015D7C20ED
:102170000155FF2041300159201801F0D0FA00210B
:102180002046FF306D30FFF756F900212046FF3022
:102190007D30FFF750F900212046FF308D30FFF7EA
:1021A0004AF900212046FF309D30FFF744F9002115
:1021B0002046FF30AD3001F0E0F900212046FF302D
:1021C000E53001F0DAF9002187208000201801F0C5
:1021D000D4F9002195208000201801F0CEF9201DAF
:1021E000FFF708FD20462430FFF76EFD20465030F3
:1021F000FFF7C8FB20467830FFF7FBFC2046803015
:10220000FFF786FF2046C03000F0E0F82146204668
:10221000FF30293000F0A6F900200521C90161181E
:10222000C860A321890061184860A3218900611852
:1022300088600521C901611888610521C9016118FB
:1022400008620521C901611848620521C9016118A8
:1022500088620521C9016118C86210BD70B50446C5
:1022600000256168A0684018A060E068401CE0603C
:10227000A169E068884217D1E168A068FDF7A2FF74
:10228000A0602169A068884203D86169A06888427B
:1022900005D2042120688843001D206004E002214B
:1022A00020688843801C206020788007C00F0028A9
:1022B00005D02068400840002060012509E0207812
:1022C0004007C00F002804D020684008400020606C
:1022D0000225284670BD014600200A78D207D20F99
:1022E000002A07D10A60CA600A6852085200521CCC
:1022F0000A6000E00120704770B50446A56CE069F3
:10230000A84200D2E569206AA84200D2256A606A24
:10231000A84200D2656AA560201D01F0D9F9606964
:10232000A0622078C007C00F002825D1616BA06A89
:10233000884245D9616C206B884241D9236C626B1D
:102340005A431046A16AFDF73DFF2063216C206BC4
:10235000884201D9206C2063616C206B88422FD8A1
:10236000A16BA06A884204D9206840084000401C44
:102370002060606C206323E0A16BA06A88421FD2BA
:10238000216C206B88421BD2636CA26B5A431046AF
:10239000A16AFDF717FF2063216C206B884209D3E7
:1023A000616BA06A884203D2206840084000206028
:1023B000206C2063616C206B884201D2606C2063CA
:1023C000216BA06A4843000BE06270BD00210160F0
:1023D00000224261016C016370470000F0B50246C3
:1023E0000024D069030002F00AFA06040A10070D5F
:1023F00013160320D0610FE00120D0610CE004200F
:10240000D06109E00220D06106E00520D06103E040
:102410000620D06100E000BF00BFD069062849D186
:10242000908885B2002301200AE08600171DBE595E
:10243000AE4203D903468600BE5BB5B2461CF0B27D
:102440000628F2D358001C4E86197C20405C365C6E
:102450007E20465404261068B0431060022610689F
:10246000B043801C1060002010E08600171DBE598C
:10247000576ABE4208D202271668BE431660042778
:102480001668BE43361D1660461CF0B20628ECD313
:10249000106840084000106010788007C00F0028C6
:1024A00001D0012405E010784007C00F002800D0BB
:1024B000022400BF2046F0BD9A04002001460020FF
:1024C0000A78D207D20F002A07D10A60CA610A68C7
:1024D00052085200521C0A6000E001207047F0B51B
:1024E00002460025002300248C2043584458012034
:1024F00015E087000E468C36F6599E4203D28700BF
:102500000E468C36F35987000E468C36F659A64295
:1025100003D987000E468C36F459461CF0B20628C3
:10252000E7DBA60150695843864200D20125052009
:10253000C0010818C06AD668B0420AD15068401C71
:10254000506016695068B04205D9002050600125DE
:1025500001E0002050600520C0010818C06AD0606A
:102560002846F0BD0022026082604260C2600523FE
:10257000DB01CB18DA62704770B504462079C007DA
:10258000C00F002852D020465C30FFF7B9FA01286E
:1025900029D149200006C16B21662948016861667E
:1025A0004168A16620465C30FFF76CFA002804D031
:1025B00001280CD0022814D10EE080210A59FF21F5
:1025C000FD3109594A43100BFFF7AEF80AE0FFF757
:1025D00045F80420207005E0FFF740F80020207047
:1025E00000E000BF2BE0FF21FD310859FFF7A6F9FD
:1025F00080200159FF20FD30005941430D0B114847
:1026000045638563C563FF21123101F0EFFA0E497E
:102610000C4801F0A2FA00BF80210A59FF21FD31C8
:1026200009594A43100BFFF711F808E0812189008E
:102630000859FFF783F9FFF711F80020207070BDEB
:1026400040000049003401404404000010B5044635
:102650002079C007C00F002802D0002020703EE083
:102660001F488168E01DF9300522D20180180162FF
:10267000E01DF93011464018016AE01DF93080185C
:10268000406A814213DAE01DF93011464018416A70
:10269000E01DF9308018006A091A9920800000595D
:1026A0004143890AE01DF9308018816206E000216B
:1026B000E01DF9300522D20180188162E11DF93157
:1026C0002046D030FFF777FA012808D1E8210A59CF
:1026D0008121890009594A43100BFFF725F810BDE5
:1026E0004000004910B50446FF200230005D800024
:1026F000024A11582046884710BD0000D40400202B
:1027000010B50446FFF732F90321FF2001300155CF
:10271000FF207F30005D0C49095CFF207F300155B0
:102720000246125DD200094BD318821E125D920040
:102730009958FF22ED32105988478921890008599C
:10274000FFF706F910BD0000AC04002020050020B2
:1027500010B50446A068002803D060684008400017
:10276000606020788000024A11582046884710BDDA
:10277000B404002010B50446E11DF931081DFFF72F
:102780003DFA10BD10B504462079C007C00F0028DF
:102790007ED02046B430FFF786FA012879D1204652
:1027A000B430FFF77DFA002804D0012872D0022847
:1027B00071D15FE1B420005D002806D001286BD004
:1027C00002286AD0032869D111E1BB488168E01D65
:1027D000F9300522D20180180162E01DF93011465E
:1027E0004018016AE01DF9308018406A814213DD0B
:1027F000E01DF93011464018016AE01DF9308018DB
:10280000406A091A9920800000594143890AE01D55
:10281000F9308018816206E00021E01DF9300522C0
:10282000D20180188162E01DF9300521C9014018EC
:10283000816A9B2080000151E01DF930FF306D302E
:10284000FEF7E8FD952080000159E01DF930FF30CA
:102850008130C162E01DF930FF306D304168E01D0C
:10286000F930FF30AD304160E01DF930FF30AD3060
:1028700000F030FEE01DF930FF30AD30016AFF207E
:10288000C9300151FF21913101512046FF3006E04E
:1028900007E1FBE0CDE0F7E03CE06DE0C6E0C530ED
:1028A00000F016FFFF20D5300159FF20E93001511B
:1028B0000159FF20FD3000594143090BFF20ED3045
:1028C0000151FF227F32125DD2007C4BD318FF22D0
:1028D0007D32125D92009958024610598847FF21B7
:1028E000ED310A59872189000959501AFEF7AEFEC9
:1028F000BC200059401CBC210851C4210959884200
:1029000007D90021BC200151FEF7A8FE0121B42007
:1029100001558CE0B0221359FF22FD321259534366
:102920001846E21DF9320523DB01D2189169FDF743
:1029300049FCAC2109594843010BA4200151FF2255
:102940007F32125D5E4B9A5CD2005E4BD318FF2241
:102950007D32125D92009958A42210598847A42113
:102960000A598721890009594900501AFEF76EFE5D
:102970000221B42001555AE0FEF770FE0A20FEF74E
:10298000C2FC4D48816888200151B0221359FF22B2
:10299000FD32125953431846E21DF9320523DB017B
:1029A000D2189169FDF70EFCAC2109594843010B7F
:1029B000A4200151FF227F32125D434B9A5CD2006A
:1029C000404BD318FF227D32125D92009958A42209
:1029D00010598847A4210A598721890009594900BB
:1029E000501AFEF733FE0321B42001551FE0FEF715
:1029F00035FE0A20FEF787FC2F4881688C200151A4
:102A0000015988200059814207D9FF207F30005D9D
:102A10002B49095CFF207F3001554321C90008592B
:102A2000FEF714FE0021B420015500E000BF00BFF6
:102A30002BE0012149020859FEF780FF00BF012168
:102A4000224801F08FF81021204801F08BF8FF2177
:102A500001311E4801F086F8012109031B4801F0ED
:102A600081F800BF4321C9000859FEF7EFFD062099
:102A700020700AE02021A06888432030A060FEF783
:102A8000EDFD0020207000E000BF13E0FF21FD31CC
:102A90000859FEF753FF4321C9000859FEF7D6FD38
:102AA00008E0812189000859FEF748FFFEF7D6FDAE
:102AB0000020207010BD00004000004920050020CB
:102AC000AC040020F0040020A604002000340140E3
:102AD00010B504462079C007C00F00285DD02046FD
:102AE0002830FFF71DFA012852D1FF207D30005D0C
:102AF000002809D149200006C16BE1622C48016819
:102B000021634168616308E049200006C16BE1620E
:102B10002748416821630168616300BF0120800785
:102B2000416AFF2085300151E21DF93211468031A2
:102B300020462830FFF74CF9002804D0012805D0A2
:102B4000022823D11FE0FEF777FD20E0214628313F
:102B5000E01DF930FFF7F8F9812189000859FEF7E7
:102B6000EDFEFF227F32125DD200124BD318FF22FE
:102B70007D32125D92009958FF22ED32105988473C
:102B80000620207003E00320207000E000BF0DE06D
:102B9000FEF764FDFEF750FD08E081218900085929
:102BA000FEF7CCFEFEF75AFD0020207010BD00009D
:102BB000400000492005002010B504462079C007D8
:102BC000C00F00283AD00720C0012018006B03284E
:102BD00004D30221A0688843801CA06020460C30EA
:102BE000FFF779FB012824D119488168216120462B
:102BF0000C30FFF733FB002804D0012805D0022851
:102C000015D10CE0FEF718FD12E0E01DF9300522A9
:102C1000D2018018616941620220207008E0082119
:102C2000A06888430830A0600020207000E000BF4A
:102C30000DE0FEF713FDFEF7FFFC08E0812189009F
:102C40000859FEF77BFEFEF709FD0020207010BD3D
:102C50004000004910B50446FEF7EEFC10BD000030
:102C600010B504462079C007C00F00285ED0FEF7DB
:102C7000F5FCB0221359FF22FD3212595343184676
:102C8000E21DF9320523DB01D2189169FDF79AFAAA
:102C9000AC2109594843010BA4200151204684303E
:102CA000FFF70CFC01282ED125488168A02000598F
:102CB0008200204688308150E11DF931001FFFF766
:102CC0008DFB002804D0012810D0022819D110E073
:102CD000A0221259D2001B4BD318FF227D32125D65
:102CE00092009958A422105988470BE005202070C3
:102CF00008E01021A06888431030A06000202070F8
:102D000000E000BF1BE0A4221059FF227D32125DBB
:102D100092000C4B99588847A4210A5987218900B1
:102D200009594900501AFEF791FC08E081218900F9
:102D30000859FEF703FEFEF791FC0020207010BD3D
:102D400040000049F004002010B504462079C00777
:102D5000C00F002820D0FF21FD310859FEF792FC5A
:102D600000BF01210D4800F08DFF10210B4800F03D
:102D700089FFFF210131094800F084FF0121090387
:102D8000064800F07FFF00BFFEF768FCE01DF93049
:102D9000FFF7E5F90120207010BD0000003401406C
:102DA00070B504462079C007C00F00287ED0FF20F0
:102DB0007D30005D002817D149200006C16BE01D61
:102DC000F9300522D2018018C1606E480168E01D0B
:102DD000F930A3229200801841606A484168E01DE2
:102DE000F9308018816016E049200006C16BE01DB3
:102DF000F9300522D2018018C16062484168E01DA7
:102E0000F930A3229200801841605E480168E01DFD
:102E1000F930801881605B488168E01DF930052237
:102E2000D20180180162E01DF93011464018016A94
:102E3000E01DF9308018406A814213DDE01DF93051
:102E400011464018016AE01DF9308018406A091ADD
:102E50009920800000594143890AE01DF93080180B
:102E6000816206E00021E01DF9300522D2018018C0
:102E70008162FF200130005D8000434A11582046E6
:102E80008847E01DF930FFF756F900BF3F48456A13
:102E900000BF8720800000594119FF20ED30005904
:102EA00081420DD211204001005900E05FE041193C
:102EB000FF20F1300059814202D2FEF7BDFB55E000
:102EC000E01DF9300521C9014018816A9B2080006E
:102ED0000151E01DF930FF306D30FEF79BFA95206F
:102EE00080000159E01DF930FF308130C162E01DE2
:102EF000F930FF306D304168E01DF930FF30AD3002
:102F00004160E01DF930FF30AD3000F0E3FAE01D24
:102F1000F930FF30AD30016AFF20E5300151204625
:102F2000FF30C130FFF7E8F9FF21F1310859FEF712
:102F300005FDFF227F32125DD200154BD318FF2210
:102F40007D32125D92009958FF22ED321059884768
:102F50000720C0012018406B804207DA0720C0011B
:102F60002018406B0721C9016118486308E08121DE
:102F700089000859FEF7E2FCFEF770FB072020707D
:102F800070BD000040000049E00400200034014012
:102F90002005002010B50446FEF760FB0720C001A5
:102FA0002018006B401C0721C90161180863042127
:102FB000A0688843001DA06010BD70B5044620784D
:102FC00006287ED120798007C00F00283DD021201F
:102FD00000010159001D0059091AFF20D93000597C
:102FE000414385208000005980030818810BE01DB3
:102FF000F930FF3041304160E01DF930FF304130A1
:1030000000F066FBE01DF930FF3041300169E01D42
:10301000F930FF3081304166E01DF930FF307D30FE
:103020004168E01DF930FF30E5304160E01DF930C6
:10303000FF30E53000F04EFAE01DF930FF30E530AA
:10304000016AFF20DD30015112E04120C00001592A
:10305000001D0059091AFF20D9300059414383202F
:103060008000005980030818810BFF20DD300151DA
:1030700020794007C00F002824D04B20C000015900
:10308000E01DF930FF30FF300230C161E01DF93042
:10309000FF308D304168E01DF930872292008018A2
:1030A0004160E01DF9301146401800F013FAE01DB0
:1030B000F930872189004018016AFF20E130015171
:1030C0003CE04AE020790007C00F002830D04B20B8
:1030D000C00001591320400100594143890BE01DF4
:1030E000F930FF30FF300230C161E01DF930FF30B0
:1030F0008D304068E11DF9310522D2018918C96976
:1031000048438113E01DF930872292008018416006
:10311000E01DF9301146401800F0DCF9E01DF930EF
:10312000872189004018016AFF20E130015105E044
:103130004120C0000159FF20E1300151E11DF9316A
:103140000846FF302930FFF7CAF9C507ED0FA06820
:10315000400840002843A0600CE02078072809D1EF
:10316000E11DF9312046D030FEF7DCFC012801D109
:103170000020207070BD10B50446E11DF9310846ED
:103180005030FEF703FCFF200130005D022815D10E
:1031900000BF4007416AFF2085300151E11DF93130
:1031A00008468030FEF765FFFF216D310A59FF2187
:1031B000B53109594A439009FEF7CAFB10BD704763
:1031C00010B504462078062808D1FF200130005DA4
:1031D0008000044A11582046884701E0FEF7C6FBEC
:1031E00010BD0000E004002010B50446E11DF931D7
:1031F00008462430FEF76CFDFF200130005D0228F8
:1032000010D100BF4007416AFF2085300151E11D08
:10321000F93108468030FEF72CFF892189000859D2
:10322000FEF796FB10BD10B504460021FF200130CB
:103230000155FEF79BFB10BDC206D20E0121914045
:10324000014A11607047000000E100E010B500285D
:1032500019DA1A4A03071B0F083B9B089B00D25838
:103260008307DC0EFF23A3409A438B071B0E8407C2
:10327000E40EA3401A43114B0407240F083CA40892
:10328000A4001A5118E00E4A03231B02D218830827
:103290009B00D2588307DC0EFF23A3409A438B0781
:1032A0001B0E8407E40EA3401A43054B032424029B
:1032B0001B198408A4001A5110BD00001CED00E089
:1032C00000E100E010B5002819DA1A4A03071B0FC5
:1032D000083B9B089B00D2588307DC0EFF23A340CA
:1032E0009A438B071B0E8407E40EA3401A43114B2D
:1032F0000407240F083CA408A4001A5118E00E4A41
:1033000003231B02D21883089B00D2588307DC0ECC
:10331000FF23A3409A438B071B0E8407E40EA340B0
:103320001A43054B032424021B198408A4001A51D4
:1033300010BD00001CED00E000E100E0C1680222C9
:103340009143C1607047C16849084900C160704736
:10335000C16889088900491CC160704704498968AF
:10336000FF22013291430143014A916070470000FE
:103370000003014004498968012252079143014337
:10338000014A9160704700000003014070B5054696
:103390000C4600BF2868C00F002849D16068042887
:1033A00047D1A069002804D001280DD0022828D1D7
:1033B0001CE000BFE86880088000801CE86000BF57
:1033C0002846FFF7C0FF1CE02846FFF7B7FF284656
:1033D000FFF7BEFF0820E968082291430143E96036
:1033E00000BF0021284600F063F80AE02846FFF7F6
:1033F000A5FF2846FFF7ACFF0421284600F058F847
:1034000000BF00BF616820680843A16808432968BD
:10341000244A1140084328602348854241D1E0688E
:1034200000F04CF82069FFF799FF6069FFF7A2FFF1
:1034300037E060680C281AD12846FFF77FFF28463E
:10344000FFF781FFA168606808432968174A1140A7
:10345000084328601448854223D1E06800F02EF824
:103460002069FFF77BFF6069FFF784FF19E02846BA
:10347000FFF764FF2846FFF766FFA168606808430E
:1034800029680A4A1140084328600748854208D144
:10349000E06800F013F82069FFF760FF6069FFF74C
:1034A00069FF70BDF33FF9FF08030140F3FFF9FF27
:1034B000C26804239A430A43C2607047044989687A
:1034C0000122520291430143014A9160704700007A
:1034D0000003014010B543680268D11A036BCB1A90
:1034E00082685A43C3684B43D318426B5218046B2B
:1034F0006400121B046962439A18426183699B034A
:1035000042699A4201DA426901E082699203C36921
:103510009B039A4209DD83699B0342699A4201DA5F
:10352000426904E08269920301E0C2699203426148
:103530004369426AD2184262836A9B03426A9A4292
:1035400001DA426A01E0826A9203C36A9B039A42EB
:1035500009DD836A9B03426A9A4201DA426A04E007
:10356000826A920301E0C26A92034262426A921343
:103570000262026B4263016310BD0022026042607E
:1035800042610263426301628A0342627047000043
:10359000024949690143014A5161704700100240E4
:1035A0000249C9690143014AD161704700100240D4
:1035B000024989690143014A916170470010024044
:1035C00010B500F069F804494968F0221140090972
:1035D000024A515CC84010BD001002405848000823
:1035E00010B5FFF7EDFF05494968072212021140A7
:1035F000090A034A515CC84010BD00000010024097
:103600006848000810B5FFF7DBFF05494968072245
:10361000D2021140C90A034A515CC84010BD0000E3
:10362000001002406848000800201549154A5268F9
:1036300007239B041A40920C002A07D1114A5268B2
:103640001A40920C0A324A43104618E00D4A52685A
:1036500007239B041A40920C012A07D1094A526899
:103660001A40920C0B324A43104608E0054A526851
:1036700007239B041A40920C0C324A4310467047B1
:1036800000127A0000100240024840680C210840F5
:10369000704700000010024070B500247D252D0207
:1036A0000A4EFFF7F1FF002804D0082806D00C28A6
:1036B00002D000BF344605E02C4603E0FFF7B4FF1C
:1036C000044600BF00BF204670BD00000024F40087
:1036D0000269416891420DDD82680169891842687A
:1036E000914204DA826801698918016116E0416833
:1036F000016113E00269416891420DDAC268016913
:1037000089184268914204DD82680169891A016161
:1037100004E04168016101E04168016170470161B5
:103720007047000010B502461D481E4900BF1E4BE1
:103730005B6893655378002B2ED0137A1B07DB0F41
:10374000002B0FD1936D0468A34208D383685B1CE0
:1037500083604468A34207D30023836004E000230E
:10376000836001E000238360137ADB06DB0F002B0C
:103770000FD1936D0C68A34208D88B685B1C8B60DB
:103780004C68A3420BD300238B6008E000238B60BE
:1037900005E000238B6002E0002383608B6010BD96
:1037A0000C060020180600204C03002010B50C4C1D
:1037B000601E0C49884201D901200CE0601E0A49B4
:1037C00048610321081FFFF741FD00200649886179
:1037D000072008610020002801D000BFFEE710BDCF
:1037E00080320200FFFFFF0000E000E010B5054856
:1037F00000F05AF9034800F0B1F80348FFF7DDFB89
:1038000010BD000050050020D000002024480068B2
:1038100001210843224908600846406821490840C0
:103820001F494860084600681F4908401C49086055
:103830000846006801218904884319490860084640
:1038400040687F2109048843154948609F2000048F
:1038500088600120000649690143114A516100BF97
:1038600012480069032189040843104908610F4880
:1038700040304069022108430C494031486100BF93
:103880000A4840304069022108400228F8D0C805A3
:10389000034949698143024A516100BF70470000F2
:1038A000001002400000FFF8FFFFF6FE4000004954
:1038B00010B504462079C007C00F002823D0214648
:1038C0001148FDF765FC00F03BFD00F095FD00F0B0
:1038D0000FFE00F083FE0D4800F032FF0B48FDF7AD
:1038E000CBFC0A48FFF71EFF084800F003FB07481F
:1038F000FDF770FD00BF06480649086000BF60681C
:1039000040084000606010BDBC050020500500204C
:10391000AAAA00000030004010B504460E48C06A54
:10392000E0600D48006BE0610B48406BE0620A48C4
:10393000806BE06320460C30FDF76CFD20461C30A8
:10394000FDF768FD20462C30FDF764FD20463C3035
:10395000FDF760FD10BD00004000004910B50446B1
:103960002046FFF7D9FF0120002803D100223C495F
:103970004A7702E001223A494A7700BF226E206965
:103980004243910A374A9061D16100BFE06C3449EB
:103990006031886100BF00BF33488068002804D0D0
:1039A000A06840084000401CA0606078002806D055
:1039B000012812D002281ED0032837D129E0A06E9A
:1039C000401CA066616E884206D30020A066204697
:1039D00000F04CF80120607029E0A068002802D0B7
:1039E0000320607006E020798007C00F002801D016
:1039F000022060701BE0A068002802D003206070E5
:103A000006E020798007C00F002801D101206070F6
:103A10000DE020798007C00F002806D1A06000BF0C
:103A20001149886000BF0120607000E000BF00BF46
:103A30006078022809D100BF0B4840684008400068
:103A4000401C0949486000BF08E000BF06484068C4
:103A5000400840000449486000BF00BF10BD00009E
:103A60003002002050040020D000002010B5044691
:103A70000C48C16A20460C30FDF7DDFC0948016B9B
:103A800020461C30FDF7D7FC0648416B20462C3001
:103A9000FDF7D1FC0348816B20463C30FDF7CBFCA1
:103AA00010BD0000400000490178491CC9B20170F6
:103AB0000A2911D3002101700179C907C90F002912
:103AC00005D1416849084900491C416004E00222CF
:103AD00081689143891C81607047000010B5012105
:103AE000064800F013F9002806D00121034800F031
:103AF00031F80348FFF764FB10BD000000040040EC
:103B0000D000002010B58021064800F0FFF8002802
:103B100006D08021034800F01DF80348FFF73AFA69
:103B200010BD000000340140D000002010B510216D
:103B3000064800F0EBF8002806D01021034800F0FA
:103B400009F80348FFF786F810BD00000034014073
:103B5000D0000020CA4302617047026A8A430262B1
:103B60007047000070B50246012901D100242AE007
:103B7000042901D1012426E0102901D1022422E0E8
:103B8000402901D103241EE0FF240134A14201D1C8
:103B9000042418E00124A402A14201D1052412E06A
:103BA00001242403A14201D106240CE00124A40332
:103BB000A14201D1072406E001242404A14201D13D
:103BC000082400E009242346064CE55C144618341A
:103BD00028190468044DEE5C0825B540AC43046028
:103BE00070BD0000A2480008AC480008026A0A4301
:103BF00002627047C2680A43C260704770B50246ED
:103C0000012901D100242AE0042901D1012426E060
:103C1000102901D1022422E0402901D103241EE011
:103C2000FF240134A14201D1042418E00124A4029C
:103C3000A14201D1052412E001242403A14201D1B3
:103C400006240CE00124A403A14201D1072406E0CC
:103C500001242404A14201D1082400E009242346C0
:103C6000064CE55C1446183428190468044DEE5CD3
:103C70000825B5402C43046070BD00007048000862
:103C80007A48000870B50246012901D100242AE0D3
:103C9000042901D1012426E0102901D1022422E0C7
:103CA000402901D103241EE0FF240134A14201D1A7
:103CB000042418E00124A402A14201D1052412E049
:103CC00001242403A14201D106240CE00124A40311
:103CD000A14201D1072406E001242404A14201D11C
:103CE000082400E009242346064CE55C14461834F9
:103CF00028190468044DEE5C0825B5402C43046087
:103D000070BD0000A2480008AC48000802461069D7
:103D10000840884201D1012070470020FCE7C162C1
:103D20007047FFB581B006461446304660300299B0
:103D30004018009020461F220146400805E0490037
:103D4000C307DB0F1943521E40080028F7D10D4668
:103D5000954029460D46284600F034FDC106C90E9F
:103D600001204002884000990F68874320461F22A7
:103D70000146400805E04900C307DB0F1943521E06
:103D800040080028F7D10D46954029460D462846A3
:103D900000F018FDC106C90E04988840074300983A
:103DA000076005B0F0BD0000F0B5034614460129D8
:103DB00001D100252AE0042901D1012526E010299E
:103DC00001D1022522E0402901D103251EE0FF2573
:103DD0000135A94201D1042518E00125AD02A9420F
:103DE00001D1052512E001252D03A94201D10625A7
:103DF0000CE00125AD03A94201D1072506E001250C
:103E00002D04A94201D1082500E009252846094DC5
:103E10002E5C1D46183572191568074E375C074E23
:103E2000BE40B543044E365C2746B7403D4315605F
:103E3000F0BD0000704800087A48000873000100D7
:103E400070B5012901D100242AE0042901D10124FF
:103E500026E0102901D1022422E0402901D10324C7
:103E60001EE0FF240134A14201D1042418E0012402
:103E7000A402A14201D1052412E001242403A1429D
:103E800001D106240CE00124A403A14201D107249E
:103E900006E001242404A14201D1082400E0092401
:103EA0002346046A054DEE5C0225B540AC43034D44
:103EB000EE5C1546B5402C43046270BD8E48000888
:103EC00010B50022026870241346A3431A464B68BB
:103ED0001A43032424021346A3431A46CB681A4309
:103EE00002608B68C3620B8883620B6903630123E2
:103EF000436110BD10B502461C481D49136AD365C5
:103F00005378002B2ED0137A1B06DB0F002B0FD11A
:103F1000D36D0468A34208D383685B1C8360446844
:103F2000A34207D30023836004E00023836001E001
:103F3000002383601389DB05DB0F002B0FD1D36DCA
:103F40000C68A34208D88B685B1C8B604C68A3424A
:103F50000BD300238B6008E000238B6005E0002377
:103F60008B6002E0002383608B6010BD240600207C
:103F70003006002010B50E490E4800F00EF9012859
:103F800006D10B490B4800F085F800F091FA0DE0DE
:103F900007496031074800F000F9012806D10449BB
:103FA0002031044800F076F800F090FB10BD0000CE
:103FB000200000100038014010B50E490E4800F0F6
:103FC000ECF8012806D10B490B4800F063F800F02B
:103FD0007FFA0DE007492031074800F0DEF801289C
:103FE00006D104492031044800F054F800F08AFB5F
:103FF00010BD0000200000100044004008B5244A15
:10400000914201D1012200E00022214B5B1C994228
:1040100001D1012300E000231A431D4BDB1C994210
:1040200001D1012300E000231A43194BDB1D994203
:1040300001D1012300E000231A43154B0F339942AD
:1040400001D1012300E000231A43002A06D00268B0
:10405000009200BF4268009200BF17E001221207E1
:104060000A4001231B079A4204D10A011209D243D4
:1040700002600BE0012252070A4001235B079A42CB
:1040800004D1C268CB00DB089A43C26008BD0000BF
:104090000100001008B5244A914201D1012200E03C
:1040A0000022214B5B1C994201D1012300E0002337
:1040B0001A431D4BDB1C994201D1012300E0002370
:1040C0001A43194BDB1D994201D1012300E0002363
:1040D0001A43154B0F33994201D1012300E000230D
:1040E0001A43002A06D00268009200BF426800927C
:1040F00000BF17E0012212070A4001231B079A4262
:1041000004D10A011209D24302600BE001225207D6
:104110000A4001235B079A4204D1C268CB00DB0846
:104120009A43C26008BD000001000010C16804226B
:104130009143C1607047C16808229143C1607047D4
:10414000C168012252031143C16070470122120766
:104150000A4001231B079A4205D1C2680B011B09C3
:104160001A43C26018E0012252070A4001235B078C
:104170009A4205D10269CB00DB081A4302610BE0C9
:10418000012292070A4001239B079A4204D1426907
:104190008B009B081A4342617047024601200007CA
:1041A000084001231B0798420BD110680B011B0923
:1041B00018400B011B09984201D1012070470020D3
:1041C000FCE701204007084001235B0798420BD120
:1041D000D068CB00DB081840CB00DB08984201D147
:1041E0000120EBE70020E9E70020E7E77FB5044680
:1041F0000D46002600200090019002900390FFF7EA
:104200004BFA0090FFF7DCF90190FFF7E9F9029013
:10421000FFF7F8F9039000BFE06801214903084067
:10422000400B002824D1E9686868084329690843DD
:10423000E168104A11400843E060A8682169032240
:10424000120391430143216100BF0B48844201D115
:10425000039E03E00948844200D1029E002E07D04D
:104260002868002804D0314620462A6800F008F863
:104270007FBD0000F3E9FFFF00380140004400402B
:10428000F7B582B00C461546A900192262431046C4
:10429000FBF798FF06466421FBF794FF0701A9008E
:1042A000192262431046FBF78DFF0646A90019222A
:1042B00062431046FBF786FF64210090FBF782FF04
:1042C00064214843301A000132300190FBF77AFF35
:1042D000F02108403F18A900192262431046FBF75D
:1042E00071FF0646A900192262431046FBF76AFFD8
:1042F00064210090FBF766FF64214843301A0001F7
:1043000032300190FBF75EFF0007000F381881B2D2
:104310000298816005B0F0BD0348C068042188435D
:104320000149C86070470000003801400348C06878
:10433000042188430149C8607047000000440040E0
:1043400010B52B4C2078002806D001281BD002285D
:1043500036D0032849D142E02079C007C00F002899
:1043600010D0E06D401CE06503280BD90020E0650B
:1043700000BF2048C068042108431E49C86000BF30
:104380000120207032E0616D606C884203D3FFF73A
:10439000C3FF03202070E16C606C88420DD1606C1B
:1043A00000280AD0E06D401CE065032805D90020F4
:1043B000E065FFF7B1FF02202070606CE06415E05B
:1043C0000020E06460646068400840006060022192
:1043D00060688843801C60600020207006E0002038
:1043E0006064E064E065207000E000BF00BF10BDC5
:1043F000000000200038014010B52B4C2078002828
:1044000006D001281BD0022836D0032849D142E02B
:104410002079C007C00F002810D0E06D401CE06577
:1044200003280BD90020E06500BF2048C0680421A4
:1044300008431E49C86000BF0120207032E0616D52
:10444000606C884203D3FFF771FF03202070E16C9A
:10445000606C88420DD1606C00280AD0E06D401C71
:10446000E065032805D90020E065FFF75FFF022023
:104470002070606CE06415E00020E06460646068B7
:10448000400840006060022160688843801C6060D2
:104490000020207006E000206064E064E065207089
:1044A00000E000BF00BF10BD6800002000440040D5
:1044B000054806494968CAB2436C591C4164014623
:1044C0000831CA5470470000000000200038014045
:1044D000054806494968CAB2436C591C4164014603
:1044E0000831CA54704700006800002000440040B2
:1044F00038484178002906D0012951D0022956D0E8
:10450000032964D15BE001798907C90F00293BD0F9
:10451000016E491CFF22F5320166914234D9002117
:104520000166816401650122836C591C8164014626
:104530002631CA540322836C591C816401462631FA
:10454000CA540522836C591C816401462631CA5421
:104550000722836C591C816401462631CA54092202
:10456000836C591C816401462631CA542621095C9A
:10457000194A516000BF1146C96808221143164A02
:10458000D16000BF01214170416E491C7D22D200E3
:104590004166914203D9002141660321417017E031
:1045A000426CC16C914201D10221417010E041681E
:1045B00049084900491C41600021417008E04168F8
:1045C00049084900491C41600021417000E000BFDA
:1045D00000BF704700000020003801403848417893
:1045E000002906D0012951D0022956D0032964D1CF
:1045F0005BE001798907C90F00293BD0016E491C96
:10460000FF22F5320166914234D9002101668164AE
:1046100001650122836C591C816401462631CA540C
:104620000322836C591C816401462631CA54052239
:10463000836C591C816401462631CA540722836C5D
:10464000591C816401462631CA540922836C591CC5
:10465000816401462631CA542621095C194A5160F9
:1046600000BF1949C96808221143174AD16000BF29
:1046700001214170416E491C7D22D2004166914268
:1046800003D9002141660321417017E0426CC16CDF
:10469000914201D10221417010E04168490849006E
:1046A000491C41600021417008E041684908490007
:1046B000491C41600021417000E000BF00BF70470D
:1046C0006800002000380140004400400B48016DA4
:1046D000491C024626320165515C094A5160826CD0
:1046E000016D914208D100BF0549C9680822914374
:1046F000034AD16000BF00BF7047000000000020E7
:10470000003801400B48016D491C02462632016504
:10471000515C094A5160826C016D914208D100BF21
:104720000649C96808229143044AD16000BF00BF0E
:10473000704700006800002000380140004400403D
:1047400010B51E491E4A0469036E63439B0A436504
:104750004378002B2ED0037A9B06DB0F002B0FD162
:10476000436D0C68A34208D38B685B1C8B604C685C
:10477000A34207D300238B6004E000238B6001E099
:1047800000238B60037A5B06DB0F002B0FD1436D98
:104790001468A34208D893685B1C93605468A342D2
:1047A0000BD30023936008E00023936005E000230F
:1047B000936002E000238B60936010BD3C060020F4
:1047C0004806002002462023110C002901D0103B8E
:1047D0000A46110A002901D0083B0A46110900299E
:1047E00001D01B1F0A469108002901D09B1E0A46D2
:1047F0005108002901D0981E7047981AFCE730B480
:104800007446641E2578641CAB4204D3635D5B0070
:10481000E31830BC18471D46F8E7000072B6FCF7F5
:10482000EDF8FCF7B7F9FCF733F8FCF7EDFAFCF715
:10483000C5FAFCF785F9FCF7DDFBFCF78BFAFCF712
:1048400013FCFCF767FC62B600BF0248FFF730F8C4
:10485000FBE7000050050020000000000000000001
:104860000102030406070809000000000102030416
:1048700000000000040404043838000008000000B0
:104880000800000800000800000008000000000206
:104890000406080A0C0E10140001020304050607A2
:1048A000080A00000000040404043838000008006E
:1048B00000000800000800000800000008000000D8
:1048C00000020406080A0C0E10140001020304057D
:1048D0000607080AF44800080000002054060000FB
:1048E000880300089C4A00085406002004050000C4
:1048F0000401000801545A1E0401600916680217D9
:104900000E23340323A40102231432322928320255
:104910001AE8382A9C0909192C320A33881302260E
:104920000829541A998CE9582918294C290829046E
:10493000411A33082366063251C5AFFFFFFF6320DB
:104940004E2B102705011A32335A0DD0011832258B
:104950006A1B2419C8021B142924296F2998091AD3
:104960002801281440420F19DB39DC72CC0912F0FF
:1049700001141A668D2333031B80BB0419C54BC079
:10498000129D3948222023110132F0690402130AD2
:1049900032C8321F292C4132285AD87C238B2E232F
:1049A000690C1A1A641AE4ED1A0254E34E1BF21948
:1049B000092A105AA30481A97C5169CCF129AB19A9
:1049C0001B3908092A3809367009363801251302BF
:1049D000011A01042C0201020B1A020D1305031522
:1049E000040105021D030104050F2B030404320515
:1049F00013492D1408B92B1408D12A140879251449
:104A000008612C140885271B08A118134D261408CB
:104A1000E9311B0877041ABF041A75181AE5141A2D
:104A200001081B2732104A18041AED041A9D041AB3
:104A3000C5041B15193819082904290C2914291C27
:104A400029241B5117645904290C1AD1041A25185A
:104A50001AA5085AFD04290C2914291C01180A3D1D
:104A600019108123022063E8033264323223D80E06
:104A700042C8021A40238B2E720A4B4D363C418BA2
:104A80000F3E508B3816185A3860412920690C8B1C
:0C4A9000DC050C8BC030548B69110C004D
:04000005080000C12E
:00000001FF
