:020000040800F2
:10000000500B002049010008530100085501000869
:1000100000000000000000000000000000000000E0
:100020000000000000000000000000005701000870
:1000300000000000000000005901000869350008B8
:10004000000000005D0100085D0100085D0100087E
:100050005D0100085D0100085D010008000000006E
:100060000000000000000000000000000000000090
:10007000D904000881380008A93800085D0100088B
:10008000593800085D0100085D010008000000000B
:100090005D0100085D0100085D0100085D010008C8
:1000A000000000005D01000800000000553B000852
:1000B000993B000800000000000000000000000064
:1000C00000F002F800F030F80CA030C8083824180E
:1000D0002D18A246671EAB4654465D46AC4201D180
:1000E00000F022F87E460F3E0FCCB6460126334282
:1000F00000D0FB1AA246AB463343184788430000A2
:10010000A84300000023002400250026103A01D354
:1001100078C1FBD8520700D330C100D50B607047BF
:100120001FB51FBD10B510BD00F001F91146FFF756
:10013000F7FF04F063F900F019F903B4FFF7F2FFD9
:1001400003BC00F01BF90000084909488047094832
:100150000047FEE7FEE7FEE7FEE7FEE7FEE70000FA
:1001600005480649044A064B70470000FFFFFFFFA1
:1001700089350008C100000850070020500B0020FE
:100180005007002001E004C0091F0429FBD28B079F
:1001900001D50280801CC90700D002707047002979
:1001A0000BD0C30702D00270401C491E022904D3A1
:1001B000830702D50280801C891EE3E70022EEE758
:1001C0000022DFE7002203098B422CD3030A8B4273
:1001D00011D300239C464EE003460B433CD400223F
:1001E00043088B4231D303098B421CD3030A8B4251
:1001F00001D394463FE0C3098B4201D3CB01C01A1F
:10020000524183098B4201D38B01C01A52414309E9
:100210008B4201D34B01C01A524103098B4201D3D7
:100220000B01C01A5241C3088B4201D3CB00C01A44
:10023000524183088B4201D38B00C01A52414308BC
:100240008B4201D34B00C01A5241411A00D20146E1
:100250005241104670475DE0CA0F00D0494203107A
:1002600000D34042534000229C4603098B422DD3C9
:10027000030A8B4212D3FC22890112BA030A8B4271
:100280000CD3890192118B4208D3890192118B42C0
:1002900004D389013AD0921100E08909C3098B4245
:1002A00001D3CB01C01A524183098B4201D38B0188
:1002B000C01A524143098B4201D34B01C01A52412B
:1002C00003098B4201D30B01C01A5241C3088B4270
:1002D00001D3CB00C01A524183088B4201D38B005B
:1002E000C01A5241D9D243088B4201D34B00C01AE5
:1002F0005241411A00D20146634652415B101046FA
:1003000001D34042002B00D54942704763465B1041
:1003100000D3404201B50020C046C04602BD704730
:100320007047704700487047F006002070477546D8
:10033000FFF7F8FFAE46050069465346C008C00007
:10034000854618B020B5FFF70BFF60BC00274908B1
:10035000B6460026C0C5C0C5C0C5C0C5C0C5C0C55D
:10036000C0C5C0C5403D49008D46704710B5044624
:10037000C046C0462046FFF7E0FE10BD01491820E8
:10038000ABBEFEE72600020070B58C180578401C55
:100390006B075B0F01D10378401C2A1106D102784C
:1003A000401C03E00678401C0E70491C5B1EF9D10E
:1003B0002B0705D40023521E0DD40B70491CFAE7FD
:1003C0000378401CCB1A921C03E01D780D70491C69
:1003D0005B1C521EF9D5A142D8D3002070BD026823
:1003E0008A430260704701468868C007C00F012237
:1003F000504050407047014694204058022210401F
:1004000040087047014694204058C007C00F0122A1
:100410005040504070470000F8B506460D46286829
:10042000070D3046FFF7DFFF00284ED13046FFF7BB
:10043000E9FF002849D02868B16B032212059143D7
:100440000143B16300BF002434E0002C06D0012C2E
:100450000CD0022C12D0032C20D117E0E100281D73
:1004600042580121304600F028F918E0E100281D2B
:1004700042581649304600F020F910E0E100281DEE
:1004800042581349304600F018F908E0E100281DF1
:1004900042581049304600F010F900E000BF00BF9C
:1004A000E0002B1DC0184268E0001958304600F0EB
:1004B00041F9641CBC42C8DD304600F0F1F800BFD1
:1004C0003046FFF798FF0128FAD0F8BD021100006E
:1004D000032200000433000010B50420492109065E
:1004E00009680140814201D1012100E00021002979
:1004F0000BD00420492109060968814349221206CC
:10050000116000BF014802F07BF910BDD00000204F
:1005100070B505460C462068A9681F22D202914397
:100520000143A96000BF2846616800F0FCF8284636
:10053000A16800F09FF82069696801229202914346
:100540000143696000BF2846616900F09AF82846B7
:10055000A16900F09DF8E0696968012212039143E6
:100560000143696000BF2846216A00F0A0F870BD11
:10057000F8B506460D462868070D3046FFF733FFED
:1005800000283FD13046FFF73DFF00283AD02868C9
:10059000F16A0722120591430143F16200BF002472
:1005A00025E0062C0CDAE0002B1D1A58A0002018BC
:1005B00001235B0318430146304600F01BF90CE0B1
:1005C000E0002B1D1A58A01F8300C01801231B0335
:1005D00018430146304600F00DF9E0002B1DC0180D
:1005E0004268E0001958304600F0A4F8641CBC4290
:1005F000D7DD304600F054F800BF3046FFF7FBFE71
:100600000128FAD0F8BD70B505460C462068A968E7
:100610000F22520491430143A96000BF6068A9689A
:10062000022291430143A96000BF2846A16800F05F
:100630007AF82846E16800F01DF82846216900F0A4
:1006400020F82846616900F023F8A0696968012252
:10065000D20291430143696000BFE06969680722E3
:10066000520391430143696000BF2846216A00F0AC
:100670001EF870BD826801239B029A430A43826080
:10068000704742680123DB059A430A434260704782
:100690004268024B1A400A4342607047E0FD3FFF48
:1006A0009421095802221143942211507047C26DBF
:1006B00020239A430A43C2657047F7B504460D46A6
:1006C000032000051F220146400805E04900C3073A
:1006D000DB0F1943521E40080028F7D10F46974000
:1006E00039460F46384603F05DFE0146A06B0322F3
:1006F00012051040C840461CA06BE906C90EC91C73
:10070000891B8A008A181F21914088430299C906D3
:10071000C90EEA06D20ED21C921B9300D218914049
:100720000843A063FEBD4268FF2301339A430A4396
:1007300042607047F7B50C46172040011F22014662
:10074000400805E04900C307DB0F1943521E40086B
:100750000028F7D10E46964031460E46304603F04B
:1007600021FE01462046172252011040C840810058
:1007700000980C300D181F2000051F22014640086C
:1007800005E04900C307DB0F1943521E400800284B
:10079000F7D10E46964031460E46304603F002FE33
:1007A0001F2212052240C240072090402F68874335
:1007B0001F2000051F220146400805E04900C3072D
:1007C000DB0F1943521E40080028F7D10E46964011
:1007D00031460E46304603F0E5FD014620461F2215
:1007E00012051040C84002994907490F81400F4344
:1007F0002F60FEBDF7B507460C46032000031F22FD
:100800000146400805E04900C307DB0F1943521EAB
:1008100040080028F7D10E46964031460E46304635
:1008200003F0C0FD01462046032212031040C840D9
:10083000810038462C300D18E206D20E1F2191405F
:10084000286888430299C906C90EE206D20E914073
:1008500008432860FEBD816808221143816000BF03
:1008600000BF816808221140C9080029F8D100BFE3
:1008700000BF00BF816804221143816000BF00BF38
:1008800081680422114089080029F8D170470000CE
:1008900000B5ADB0242124A8FFF792FC442113A891
:1008A000FFF78EFC0F204004249002202590C00109
:1008B000269000202790289029902A902B902C9009
:1008C00024A949200006FFF79EFE0320000513908F
:1008D0004548149006211591444916910621179117
:1008E0004349189106211991BD2189001A910621C9
:1008F0001B9113A949200006FFF73AFE24210AA8FC
:10090000FFF75EFC242101A8FFF75AFC1720C00264
:100910000A90FF2001300B9000200C900E900F9059
:100920001090119012900AA949200006FFF7F0FDDF
:100930000320000501902C481630029004210391F9
:100940002C490491042105912B490691042107911A
:100950002849163908910421099101A94920000666
:10096000FFF75AFD00BF49200006806801210843B7
:1009700049210906886000BF802049680143492257
:100980001206516000BF04211046FFF728FD4920E0
:100990000006FFF760FF00BF00BF49200006806827
:1009A0000421084080080028F6D100BF4920000635
:1009B00080680905084349210906886000BF00BF17
:1009C00002204921090609680140814201D1012123
:1009D00000E000210029F3D0022149200006FFF7A2
:1009E000FEFC2DB000BD00000E00C00023009000F2
:1009F00027005001260020012800800110B502F0D8
:100A000093FD03204B490968C908C9000143494ABD
:100A1000116000BF00BF48480068012108434649F3
:100A2000086000BF00BF00BF4348006802210840C3
:100A300040080028F7D00320C0043F494968072236
:100A40009204914301433C4A516000BF00BF1046ED
:100A500000680121090608431146086000BF00BF75
:100A600000BF35480068012149060840400E0028B3
:100A7000F6D0002030494968F022914301432E4AC4
:100A8000516000BF101511464968072212029143B8
:100A90000143294A516000BF0020114649680722DE
:100AA000D20291430143244A516000BF0220114603
:100AB0004968890889000143516000BF00BF00BF39
:100AC0001D4840680C2108400828F8D180061A49C2
:100AD0004968024691430143174A516000BF1748D5
:100AE00011464968C24311400143134A516000BF97
:100AF0000F20000402F00AFC0120000602F006FCB0
:100B00000120C00202F012FC012002F007FC0220CA
:100B100002F004FC0120400302F008FC012002F076
:100B200005FC0120800302F001FC0120400402F0DA
:100B3000F5FB10BD002002400010024000C0008004
:100B400000B58BB0282101A8FFF73AFB00200190E7
:100B500002900390FF200130049040200590800116
:100B60000690F8200790012008A90870002009903D
:100B70000A9001A9064800F023FB00BF0448006862
:100B8000012108430249086000BF0BB000BD00000E
:100B90000402014000B585B014216846FFF710FB40
:100BA0000120019002900220039000200490042074
:100BB00000906946644800F022FC082000906946D5
:100BC000614800F01CFC02200190002002900220ED
:100BD0000390012004900820009069465B4800F0D3
:100BE0000EFC01200490022000906946574800F056
:100BF00006FC01200490802000906946524800F0D5
:100C0000FEFB012004900420009069464F4800F04C
:100C1000F6FB01200490009069464C4800F0EFFB81
:100C200001200490402000906946474800F0E7FB0F
:100C300003200190002002900220039000200490E5
:100C4000012000906946404800F0D9FB4020009008
:100C500069463F4800F0D3FB1020009069463C48AD
:100C600000F0CDFB202000906946384800F0C7FB1B
:100C7000022000906946344800F0C1FB202000901B
:100C80006946334800F0BBFB4020009003200190F0
:100C9000002002900490039069460920C00600F0ED
:100CA000AEFB802000900320019000200290049071
:100CB000039069460920C00600F0A1FB00200290C5
:100CC0000220039000200490402000900320019017
:100CD00069460920C00600F092FB802000900320A6
:100CE000019069460920C00600F089FB04200490A9
:100CF0000220019001200290022003900420009025
:100D00006946134800F07BFB00200290022000900F
:100D100069460F4800F073FB052004900220019003
:100D2000012002900220039010200090694607489D
:100D300000F065FB002002902020009069460348E7
:100D400000F05DFB05B000BD00080048000C004845
:100D50000004004810B500210D2002F071F90D20AB
:100D600002F028F90321102002F06AF9102002F0A5
:100D700021F903210C2002F063F90C2002F01AF98A
:100D800002210E2002F05CF90E2002F013F904217A
:100D90001B2002F055F91B2002F00CF904211C2045
:100DA00002F04EF91C2002F005F90521881F02F01F
:100DB00047F90020C04302F0FDF810BD00B587B030
:100DC0001C216846FFF7FCF90120800300900420F5
:100DD000019000040290002003900490012040073D
:100DE0000590012006906946064802F08DF900BF83
:100DF00004480068012108430249086000BF07B0A9
:100E000000BD00000403014010B500206D490968D1
:100E10007022914301436B4A116000BF02201146CA
:100E2000886200BF6848C86200BF0020086300BF36
:100E300060220121634802F0A7FD002201216148E0
:100E400002F0EEFD002204215E4802F0E9FD60227E
:100E500010215C4802F098FD00221021594802F050
:100E6000DFFD00224021574802F0DAFD6022FF2119
:100E70000131544802F088FD0022FF210131514820
:100E800002F0CEFD0022012189024E4802F0C8FD89
:100E900000204C49486300BF00BF886300BF00BF0B
:100EA000C86300BF60228914464802F06DFD00222D
:100EB00001210903434802F0B3FDF02041490864D1
:100EC00000BF0020096803221202914301433D4AFA
:100ED000116000BF60201146496C090A09020143F4
:100EE000516400BF5014072109040022354B5B6C8C
:100EF000364C234004460C4314432343314C636473
:100F000000BF2046002101220446603463181C689B
:100F100094431C6000BF00230215194602F0F2FC46
:100F20002848002102220446603463181C681443D8
:100F30001C6000BF00BF806F012108432149886702
:100F400000BF00BF0846806F022108431D49886723
:100F500000BF00BF0846806F042108431949886715
:100F600000BF00BF0846806F082108431549886705
:100F700000BF00BF0846406C5103884311494864D4
:100F800000BF8814096A01430E4A116200BF00BF06
:100F90001046406C0121C90308431146486400BF54
:100FA00000BF08460068012108431146086000BFE1
:100FB0008021104602F097FC1021024802F093FCB9
:100FC00010BD0000003401407FBB0000FFDFF0EFE8
:100FD00000B585B014216846FFF7F2F800200190B3
:100FE0000490401E0290002003908F2168460180EB
:100FF00069460120800702F053FD00BF01208007F1
:101000000068012108438907086000BF00200190A3
:1010100004900A480290002003908F2168460180C6
:101020006946074802F03CFD01200549C9680143B3
:10103000034AD16000BF05B000BD0000FFFF000003
:101040000004004000B585B014216846FFF7B8F8E9
:101050004B20C001009000200190039002900C20D2
:10106000049069461F4802F0B1FE69461E4802F02E
:10107000ADFE1E491B4802F059FE1C49203119489B
:1010800002F054FE1949174802F0A8FD17496031D3
:10109000144802F0A3FD134802F03DFE114802F08F
:1010A00035FE104802F03CFE10490F4802F03EFEAB
:1010B0000E4920310C4802F039FE0C490A4802F072
:1010C0008DFD0A496031084802F088FD064802F0AB
:1010D00022FE054802F01AFE034802F021FE05B088
:1010E00000BD000000380140004400402000001016
:1010F00000BF1948406A012108431749486200BFF0
:1011000000BF00BF1448406A022108404008002880
:10111000F7D000BF11481249086000BF02204860A4
:1011200000BF7D200001886000BF00BF00BF0C48E9
:10113000C0688007800F002801D1012000E0002056
:101140000128F3D100BF07480549086000BF00BF70
:101150000548086000BF7047001002405555000068
:1011600000300040AAAA0000CCCC000070B50446B4
:101170000D4600262E6B2068B04205D20221686819
:101180008843801C686006E06068B04203D9022191
:10119000686888436860A068B04201D2A66803E02E
:1011A000E068B04200D9E668E368A268D11AF31A91
:1011B00022695A431046FFF705F8E86470BD000045
:1011C00010B54B680A681A438B681A4303681F4CB2
:1011D00023401A430260CB680A691A430368FF245C
:1011E000F134A3431A430260026807231B039A43A6
:1011F0004B691A4302600A7F52000B6A1A43144B70
:101200005B689B089B001A43114B5A60104A803A56
:10121000904208D11A465268F8239A438B691A43C0
:101220000B4B5A6009E00A4A52681F231B029A437B
:101230008B695B011A43064B5A60054A12685208D3
:1012400052004B6A1A43024B1A6010BDFF7FFCFC30
:101250008002014010B5044600BF1249086E00210B
:10126000104A116600BF20656078022811D1207AEB
:101270004007C00F00280CD121460B4800F01AF897
:1012800021460A4800F016F82146094800F012F8F5
:1012900006E00020044988600449886004498860A9
:1012A00010BD000050040020E4050020F0050020DF
:1012B000FC0500200A6D03689A420BD38268521C19
:1012C000826043689A420BD304238A689A43121DB2
:1012D0008A6005E08268002A02D08268521E82601D
:1012E000704710B504468420005900284CD020785F
:1012F000030003F074F805041B26313C47008421E9
:1013000009598A00211D88580A21FEF75BFF8821B0
:101310000851842109598A00211D88580A21FEF7A5
:1013200051FF8C200151022020702CE02078401CBD
:10133000C1B2217094200059814201D9022020704D
:1013400021E02078401CC1B22170982000598142D0
:1013500001D90320207016E02078401CC1B2217012
:1013600094200059814201D9042020700BE020789C
:10137000401CC1B221709C200059814201D900203B
:10138000207000E000BF04E00020207000219020C9
:10139000015110BD70B504460D4DA06800280FD056
:1013A00000200AE001228240A1681140002903D0F8
:1013B000411C8422515102E0401C2028F2DB02E053
:1013C0000021842041512846FFF78BFF70BD0000AB
:1013D000500600200268C16851430A02FF2301330E
:1013E000C168591A8368594351180912816081688C
:1013F0000912416070470A0282604160704770B50F
:1014000005460C461023606898430246284621682A
:1014100000F050F86268110920686A688243034648
:101420004B431A436A6000BF28462269216800F0D6
:101430000BF82846E268216800F072F82846A26896
:10144000216800F0A3F870BDF7B504460D462846A4
:101450001F220146400805E04900C307DB0F19437E
:10146000521E40080028F7D10E46964031460E46DF
:10147000304602F097FF81000F208840276A87439B
:1014800028461F220146400805E04900C307DB0F3C
:101490001943521E40080028F7D10E4696403146A7
:1014A0000E46304602F07EFF8100029888400743D6
:1014B0002762FEBDF7B504460D4628461F220146A9
:1014C000400805E04900C307DB0F1943521E4008DE
:1014D0000028F7D10E46964031460E46304602F0BF
:1014E00061FF4100032088402768874328461F2268
:1014F0000146400805E04900C307DB0F1943521EAF
:1015000040080028F7D10E46964031460E46304638
:1015100002F048FF41000298884007432760FEBD63
:10152000F7B504460D4628461F220146400805E04F
:101530004900C307DB0F1943521E40080028F7D1AA
:101540000E46964031460E46304602F02BFF4100D3
:1015500003208840A768874328461F220146400889
:1015600005E04900C307DB0F1943521E400800285D
:10157000F7D10E46964031460E46304602F012FF35
:101580004100029888400743A760FEBDF7B50446B6
:101590000D4628461F220146400805E04900C307C2
:1015A000DB0F1943521E40080028F7D10E46964023
:1015B00031460E46304602F0F5FE410003208840D9
:1015C000E768874328461F220146400805E0490096
:1015D000C307DB0F1943521E40080028F7D10E46FF
:1015E000964031460E46304602F0DCFE410002983D
:1015F00088400743E760FEBD49200006806801215E
:1016000049050843492109068860704700BF02491F
:10161000086400BF704700000034014001208007CB
:10162000406A704710B50020064948638863C86364
:10163000FF211231034802F04EF90349014802F03C
:101640004AF910BD003401404404000010B586B0D2
:101650000446142101A8FEF7B3FD022002900020E9
:10166000039002200490012005900820019001A918
:101670001C48FFF7C4FE012005900220019001A93B
:101680001848FFF7BCFE012005908020019001A9B9
:101690001548FFF7B4FE012005900420019001A930
:1016A0001048FFF7ACFE01200590019001A90D48FC
:1016B000FFF7A5FE012005904020019001A90A48EE
:1016C000FFF79DFE611E094802F01AF960200749E4
:1016D000496C090A09020143044A516400BF06B07B
:1016E00010BD0000000C0048000800480034014014
:1016F00010B50446064844638463C463FF21123175
:1017000002F0E9F80349024802F0E9F810BD0000D0
:10171000003401404404000010B504460748446307
:10172000002006498863C8635521044802F0D7F8B1
:1017300005210902014802F0CEF810BD0034014035
:1017400010B5044607484463002006498863C8630F
:101750000549044802F0C3F85021024802F0BBF8E2
:1017600010BD0000003401400505000010B504461E
:10177000002008494863084684630020C863552157
:10178000044802F0ACF805210902024802F0A3F86F
:1017900010BD00000034014010B504460020084987
:1017A0004863084684630020C86355210901044842
:1017B00002F095F80521024802F08DF810BD0000F6
:1017C0000034014010B50446002006494863886390
:1017D0000846C463044902F082F85021014802F02F
:1017E0007AF810BD003401400505000010B504462C
:1017F00000200749486388630846C46355210901EE
:1018000002F06DF80521024802F065F810BD0000F5
:101810000034014010B50446611E024802F070F821
:1018200010BD0000003401400021054A51621146FC
:10183000C862096801221143014A11607047000023
:101840000004004004480068400840000249086065
:101850000020486270470000000400400021016140
:101860004161704700B5C222525C5300D2183A4B16
:101870009A5C9200B5239B00CB189A584260C22212
:10188000525C5300D218344BD21852789200B523D0
:101890009B00CB189A588260C222525C5300D21827
:1018A0002D4BD21892789200B5239B00CB189A58F2
:1018B000C260C222525C130002F091FD06041C05B6
:1018C0001D061E3400BF00BFC3684268D21883687B
:1018D0005B009A420BDD0269521C02618369026956
:1018E0009A4206D90022026102220A7001E0002217
:1018F000026118E000BF00BFC3684268D218836865
:101900005B009A420BDA0269521C02618369026928
:101910009A4206D90022026102220A7001E00022E6
:10192000026100E000BF00BF0A78022A13D1FF2243
:10193000C9325258036A9A420BD24269521C426120
:10194000436A42699A4206D90022426101224A70E2
:1019500001E00022426100BDB404002001460020E5
:101960008B694A689A4215D28B698A689A4211D269
:101970008B69CA689A420DD20A69521C0A610A69C7
:10198000521C0A61CB699A4204D102230A689A4325
:10199000921C0A604A69521C4A610B6A4A699A425F
:1019A00004D104230A689A43121D0A600A78920738
:1019B000D20F002A05D00A68520852000A6001209E
:1019C00009E00A785207D20F002A04D00A685208A8
:1019D00052000A6002207047014600200A78D207B0
:1019E000D20F002A08D10A600A614A610A685208C7
:1019F0005200521C0A6000E00120704770B5044696
:101A00000E460025216AE069884213D80020A061B3
:101A1000216AE06988422BD1606A002804D0201D29
:101A2000616801F03AFD23E0A06A002820D0E06A56
:101A3000A0611DE0616A206A4018E169884205D30F
:101A4000201D01F003FD6069A06111E0616A206A58
:101A50004018A16A4018E169884202D3E06AA06197
:101A600006E00020E061022120688843801C20609D
:101A700020788007C00F002804D02068400840006C
:101A800020600125E069401CE061284670BD70B50A
:101A900004460D4600262078C007C00F002811D14B
:101AA0002060E061A061A72080002818C16AA720FB
:101AB0008000281801F01FFC206840084000401CEE
:101AC000206000E00126304670BD704700210161B2
:101AD000416181617047000000B5C222525C530031
:101AE000D218554B9A5C9200B5239B00CB189A589C
:101AF0004260C222525C5300D2184F4BD218527827
:101B00009200B5239B00CB189A588260C222525C87
:101B10005300D218484BD21892789200B5239B00FC
:101B2000CB189A58C260C222525C130002F057FCD4
:101B3000060437053806396A00BF00BFC36842682B
:101B4000D218036A5A4383689B019A420CD90269EE
:101B5000521C0261436A02699A421FD90022426103
:101B6000026102220A7019E04269521C4261836AD2
:101B700042699A4210D900224261FF2275325258BE
:101B8000521CFF2375335A50C222525C2B4B9B5C74
:101B9000C222535401220A700022026133E000BFC6
:101BA00000BFC3684268D218C3695A4383689B0167
:101BB0009A420CD20269521C0261436A02699A423B
:101BC0001FD900224261026102220A7019E04269B3
:101BD000521C4261836A42699A4210D900224261D2
:101BE000FF2275325258521CFF2375335A50C222BD
:101BF000525C124B9B5CC222535401220A70002299
:101C0000026100E000BF00BF0A78022A13D1FF2260
:101C1000C9325258C36A9A420BD98269521C8261F6
:101C2000036B82699A4206D90022826101224A70BE
:101C300001E00022826100BDB4040020D204002033
:101C40000021C1600161704700B5C222525C53009F
:101C5000D2182D4BD21852789200B5239B00CB1886
:101C60009A5842600522D2018A18126E8260C222FE
:101C7000525C130002F0B3FB06041C051D061E3463
:101C800000BF00BF836882695A4343689B019A4240
:101C90000BD2C268521CC260C369C2689A4206D99C
:101CA0000022C26001220A7001E00022C26018E036
:101CB00000BF00BF836842695A4343689B019A4250
:101CC0000BD9C268521CC260C369C2689A4206D965
:101CD0000022C26001220A7001E00022C26000E01E
:101CE00000BF00BF4A78002A08D10269521C026175
:101CF000036A02699A4201D901220A700A78012A0C
:101D000001D10022026100BDB40400200021016164
:101D1000416181617047000000B5C222525C5300EE
:101D2000D218474B9A5C9200B5239B00CB189A5867
:101D30004260C222525C5300D218414BD2185278F2
:101D40009200B5239B00CB189A588260C222525C45
:101D50005300D2183A4BD21892789200B5239B00C8
:101D6000CB189A58C260C222525C130002F037FBB3
:101D700006041E051F06203800BF00BFC368426866
:101D8000D218036A5A4383689B019A420BD90269AD
:101D9000521C0261436A02699A4206D9002202611A
:101DA00002220A7001E0002202611AE000BF00BFB7
:101DB000C3684268D218C3695A4383689B019A4238
:101DC0000BD20269521C0261436A02699A4206D927
:101DD0000022026102220A7001E00022026100E09A
:101DE00000BF00BF0A78022A14D1FF22C93252581C
:101DF000036B9A420CD94269521C4261436B42699F
:101E00009A4207D900224261826102224A7001E0AF
:101E100000224261FF22C9325258836A9A420BD291
:101E20008269521C8261C36A82699A4206D9002281
:101E3000426182614A7001E00022826100BD0000BF
:101E4000B404002070B5034600201D6A5C68AC42F3
:101E50000BD21D6A9C68AC4207D21D6ADC68AC429A
:101E600003D21C69641C1C616EE09D685C68AC4216
:101E70000FD9DD685C68AC420BD9DD689C68AC4268
:101E800003D90225C224A5541EE00125C224A5546D
:101E90001AE0DD689C68AC420BD9DD685C68AC4236
:101EA00003D90325C224A5540EE00425C224A55459
:101EB0000AE09D685C68AC4203D90025C224A554A1
:101EC00002E00525C224A554C324A45C304D2D5D39
:101ED000C224A45CA54235D19C69641C9C619D6AA6
:101EE0009C69AC422ED900249C61DC69002C02D193
:101EF0004C688C6017E08D684C68AC4204D98D68E2
:101F00004C68641B4C6305E08D68CC6B641B4D68AA
:101F100064194C634D6BDC69641EA6000C460C34DE
:101F2000A5514C688C60DC69062C04D102251C6824
:101F3000AC43A41C1C60DC69641CDC61C224A55C8D
:101F4000C324A55400241C615D6A1C69AC4203D8FB
:101F5000DD6A5C69AC4204D904251C68AC43241DCD
:101F60001C601C78A407E40F002C05D01C686408D2
:101F700064001C60012009E01C786407E40F002C59
:101F800004D01C68640864001C60022070BD00005E
:101F9000D8040020014600200A78D207D20F002A78
:101FA0000AD10A600A614A618A61CA610A685208F4
:101FB0005200521C0A6000E00120704770B50446D0
:101FC0000D460220607003202070FF20053000596C
:101FD00040084000401CFF2105310851D022135910
:101FE000D42212599B18D82212599B18DC2212595C
:101FF0009B18E02212599B18E42212599918FC22CE
:102000001059FEF7DFF8FF21B13109594843810A21
:10201000FF20C5300151FF224D32125903461B5992
:102020005A431046FF2255321159FEF7CBF8296B5F
:10203000484306460520C0012018016E3046FEF7D1
:10204000C1F8FF213131085108460159FF204D30B8
:102050000059814205D9FF204D300159FF20313010
:102060000151FF20C53001592046FF30893001F071
:1020700014FAFF20313001592046FF30F53001F0CD
:102080003AF9FF20313001598B208000201801F0EF
:1020900032F9FF203130015999208000201801F0D9
:1020A0002AF9FF20313001592046FF30093001F074
:1020B000F4F9FF20C53001592018FFF79CF9FF20E3
:1020C00031300159FF2021300151FF2031300159B9
:1020D000FF2025300151FF2031300159FF202930E8
:1020E0000151FF2031300159001F0151FF204930BB
:1020F0000159FF2035300151FF202D300059FF21BB
:10210000353109594843010BFF203130015170BD71
:1021100070B504460D46A1686068884204D9A1687C
:102120006068401A606305E0A168E06B401A61686E
:10213000401860632078C007C00F002806D1E06B0C
:102140006063206840084000401C20606068A06018
:10215000E1692162A169E1616169A161216961614E
:10216000E1682161606BE060E36822699B18626945
:102170009B18A2699B18E2699B18226A9918A06BA8
:10218000FEF720F8FF21B13149594843810AFF2069
:10219000C53041512818FFF71DF90520C001281846
:1021A000406F401C0521C9016918486770BD01686E
:1021B00049084900016000218160C160002202617C
:1021C00042618261C261026242628262C2620263F1
:1021D0004163704710B50446207800280ED0FF20D8
:1021E0002D3000590521C9016118096F4843010BC1
:1021F000FF20D53001512018FFF7ECF810BD10B5C5
:1022000004460020607001202070C120015DC020C4
:102210000155FF2089300159201801F03EF90021B5
:102220002046FF30B530FFF7E6F800212046FF30AA
:10223000C530FFF7E0F800212046FF30D530FFF72A
:10224000DAF800212046FF30E530FFF7D4F800210E
:102250002046FF30F53001F04EF800218B20800041
:10226000201801F048F8002199208000201801F082
:1022700042F80021A7208000201801F03CF8201D22
:10228000FFF7DEFC20462830FFF720FC20465C30BC
:10229000FFF73CFD20469430FFF7E0FA2046BC30C3
:1022A000FFF713FC2046C430FFF781FFE01DFD302F
:1022B00000F0E0F821462046FF306D3000F0B1F923
:1022C00000200521C90161184865B5218900611800
:1022D0004860B5218900611888600521C90161182D
:1022E00008660521C901611888660521C9016118C0
:1022F000C8660521C901611808670521C90161186F
:10230000486710BD70B5044600256168A068401894
:10231000A060E068401CE060A169E068884217D1D5
:10232000E168A068FDF74EFFA0602169A0688842BF
:1023300003D86169A068884205D2042120688843D7
:10234000001D206004E0022120688843801C20607A
:1023500020788007C00F002805D020684008400082
:102360002060012509E020784007C00F002804D034
:1023700020684008400020600225284670BD0146C4
:1023800000200A78D207D20F002A07D10A60CA605B
:102390000A6852085200521C0A6000E0012070478F
:1023A00070B50446A56CE069A84200D2E569206AD0
:1023B000A84200D2256A606AA84200D2656AA56078
:1023C000201D01F043F86069A0622078C007C00FAB
:1023D000002825D1616BA06A884245D9616C206BC9
:1023E000884241D9236C626B5A431046A16AFDF7BB
:1023F000E9FE2063216C206B884201D9206C2063A8
:10240000616C206B88422FD8A16BA06A884204D9E6
:10241000206840084000401C2060606C206323E07E
:10242000A16BA06A88421FD2216C206B88421BD20C
:10243000636CA26B5A431046A16AFDF7C3FE20638A
:10244000216C206B884209D3616BA06A884203D259
:102450002068400840002060206C2063616C206B85
:10246000884201D2606C2063216BA06A4843000B54
:10247000E06270BD0021016000224261016C0163D5
:1024800070470000F0B502460024D069030001F057
:10249000A6FF06040A10070D13160320D0610FE0F3
:1024A0000120D0610CE00420D06109E00220D0615D
:1024B00006E00520D06103E00620D06100E000BF07
:1024C00000BFD069062849D1908885B20023012039
:1024D0000AE08600171DBE59AE4203D903468600A6
:1024E000BE5BB5B2461CF0B20628F2D358001C4EB3
:1024F0008619C020405C365CC22046540426106811
:10250000B043106002261068B043801C10600020A9
:1025100010E08600171DBE59576ABE4208D2022736
:102520001668BE43166004271668BE43361D166043
:10253000461CF0B20628ECD310684008400010603A
:1025400010788007C00F002801D0012405E0107822
:102550004007C00F002800D0022400BF2046F0BD75
:10256000C6040020014600200A78D207D20F002AB4
:1025700007D10A60CA610A6852085200521C0A60F8
:1025800000E001207047F0B502460025002300243A
:102590004878002807D116699068B0423AD30020E5
:1025A0009060012536E0D02043584458012015E0C2
:1025B00087000E46D036F6599E4203D287000E465B
:1025C000D036F35987000E46D036F659A64203D9C5
:1025D00087000E46D036F459461CF0B20628E7DBD9
:1025E000A60190695843864200D201250520C0010A
:1025F0000818406FD668B0420AD15068401C50603D
:1026000056695068B04205D900205060012501E0AC
:10261000002050600520C0010818406FD060284697
:10262000F0BD0022026082604260C2600523DB01CF
:10263000CB185A677047000070B504462079C00770
:10264000C00F002852D020465C30FFF7C5F90128A2
:1026500029D149200006C16B2166264801686166C0
:102660004168A16620465C30FFF778F9002804D065
:1026700001280CD0022814D10EE080210A598921AA
:10268000890009594A43100BFFF732F80AE0FEF7B8
:10269000C9FF0420207005E0FEF7C4FF0020207071
:1026A00000E000BF24E0892189000859FEF7CEFF31
:1026B0008020015989208000005941430D0B0E48AC
:1026C00045638563C563FF21123101F008F90B49A9
:1026D000094801F000F900BF80210A5989218900C9
:1026E00009594A43100BFEF791FF01E000202070CA
:1026F00070BD000040000049003401404404000067
:1027000010B504462079C007C00F002802D0002071
:10271000207040E0204881682046E4300522D20144
:10272000801881662046E43011464018816E2046AC
:10273000E4308018C06E814215DA2046E43011463C
:102740004018C16E2046E4308018806E091A204679
:10275000E430FF308130C06A4143890A2046E430CA
:102760008018016706E000212046E4300522D201EE
:10277000801801672146E4312046B430FFF787F91D
:10278000012808D1CC210A598B21890009594A43D3
:10279000100BFEF7ADFF10BD4000004910B5044618
:1027A000E520005D8000024A11582046884710BD90
:1027B000FC04002010B50446FFF744F80321E42090
:1027C0000155FF20A730005D0B49095CFF20A730B1
:1027D00001550246125DD200084BD318821E125DCD
:1027E00092009958852292001059884793218900B8
:1027F0000859FFF719F810BDD80400201C05002067
:1028000010B504460720C0012018C06D032804D36A
:102810000221A0688843801CA060A068002803D023
:10282000606840084000606020788000024A1158CB
:102830002046884710BD0000E004002010B5044683
:102840002146E431081DFFF7FFF910BD10B504461D
:102850002079C007C00F002861D020462830FFF73C
:1028600099FB012856D1FF20A530005D002809D131
:1028700049200006C16BE1622A4801682163416872
:10288000616308E049200006C16BE16225484168A8
:10289000216301686163FEF7C1FE0146FF20AD3090
:1028A00001512246E4321146C43120462830FFF758
:1028B000C9FA002804D0012805D0022828D124E034
:1028C000FEF79AFE25E0214628312046E430FFF746
:1028D00075FB8B2189000859FEF7B8FEFF22A7324D
:1028E000125DD200104BD318FF22A532125D920068
:1028F00099588522920010598847932189000859D8
:10290000FEF792FF0520207003E00320207000E016
:1029100000BF06E0FEF786FEFEF76EFE01E0002037
:10292000207010BD400000491C05002010B5044671
:102930002079C007C00F00282ED020460C30FFF7AA
:102940001EFD012824D115488168216120460C30E4
:10295000FFF7D8FC002804D0012805D0022815D1A3
:102960000CE0FEF749FE12E02046E4300522D201D9
:1029700080186169C1660220207008E00821A06803
:1029800088430830A0600020207000E000BF03E012
:10299000FEF748FEFEF730FE10BD00004000004983
:1029A00010B50446FEF728FE10BD000010B5044621
:1029B0002079C007C00F00286AD0FEF733FEB0228E
:1029C0001359892292001259534318462246E43281
:1029D0000523DB01D218116EFDF7F4FBAC21095978
:1029E0004843010BA420015120468430FFF7BAFD73
:1029F00001283AD128488168A02000598200204649
:102A0000883081502146E431001FFFF73BFD00284C
:102A100004D0012810D0022825D11AE0A022125992
:102A2000D2001E4BD318FF22A532125D9200995896
:102A3000A4221059884717E04521C9000859FEF71C
:102A400005FE092189010859FEF7E0FD05202070E7
:102A50000AE01021A06888431030A060FEF7E2FD74
:102A60000020207000E000BF14E0A4221059FF22D3
:102A7000A532125D9200094B99588847A4210A5942
:102A80009121890009594900501AFEF7BFFD01E064
:102A90000020207010BD0000400000491C050020EF
:102AA00010B504462079C007C00F00280CD089213A
:102AB00089000859FEF7CAFDFEF7B4FD2046E43050
:102AC000FFF79DFB0120207010BD000070B504468B
:102AD0002079C007C00F00287ED0FF20A530005D00
:102AE000002817D149200006C16B2046E43005229A
:102AF000D20180184165704801682046E430B52253
:102B00009200801841606C4841682046E43080188B
:102B1000816016E049200006C16B2046E4300522A2
:102B2000D20180184165644841682046E430B522EE
:102B3000920080184160604801682046E4308018A7
:102B400081605D4881682046E4300522D20180180A
:102B500081662046E43011464018816E2046E430FC
:102B60008018C06E814215DD2046E43011464018C1
:102B7000816E2046E4308018C06E091A2046E43089
:102B8000FF308130C06A4143890A2046E430801812
:102B9000016706E000212046E4300522D2018018BA
:102BA0000167E420005D8000444A115820468847B0
:102BB0002046E430FFF70EFB00BF4148456A00BFE6
:102BC00091208000005941198520800000598142E0
:102BD0000DD24920C00000E064E0005941194320B3
:102BE000C0000059814202D2FEF706FD59E020469E
:102BF000E4300521C9014018016F2046E430FF3060
:102C0000813041632046E430FF30B530FEF7E2FB0F
:102C10002046E430FF308130C1692046E430FF3087
:102C2000813041672046E430FF30B53041682046AE
:102C3000E430FF30F53041602046E430FF30F530BD
:102C400000F006FB2046E430FF30F530016A8320B7
:102C5000800001512046FF30E930FFF7A1FB4321FE
:102C6000C9000859FEF7D6FDFF22A732125DD20037
:102C7000144BD318FF22A532125D92009958852279
:102C80009200105988470720C0012018006E80422A
:102C900007DA0720C0012018006E0721C90161185A
:102CA000086608E08B2189000859FEF7B3FDFEF79E
:102CB000B9FC0620207070BD400000490C050020C2
:102CC000003401401C05002010B50446FEF7AAFCA4
:102CD0000720C0012018C06D401C0721C9016118E0
:102CE000C8650421A0688843001DA06010BD70B5B0
:102CF0000446207805287ED120798007C00F00285F
:102D000040D04720C0000159001D0059091A012078
:102D10004002005941438F20800000598003081869
:102D2000810B2046E430FF30893041602046E4309A
:102D3000FF30893000F08AFB2046E430FF308930D4
:102D400001692046E430FF30FF300230C162204686
:102D5000E430FF30C53041682046E4308B229200D9
:102D6000801841602046E4301146401800F070FAA7
:102D70002046E4308B2189004018016A81208000C0
:102D8000015112E0232000010159001D0059091AC8
:102D900001204002005941438D20800000598003EA
:102DA0000818810B81208000015120794007C00F55
:102DB000002827D02046E430FF308130016A2046C9
:102DC000E430FF30FF30023041662046E430FF300F
:102DD000D53041682046E430992292008018416045
:102DE0002046E4301146401800F032FA2046E43024
:102DF0009921890000E054E04018016A4120C00098
:102E000001513FE020790007C00F002834D0204650
:102E1000E430FF308130016A2046E430FF308130F9
:102E2000806A4143890B2046E430FF30FF30023096
:102E300041662046E430FF30D53040682146E43119
:102E40000522D2018918496E484381132046E43097
:102E500099229200801841602046E43011464018C3
:102E600000F0F6F92046E430992189004018016A03
:102E70004120C000015105E02320000101594120FB
:102E8000C00001512146E4310846FF306D30FFF7A4
:102E90007AFBC507ED0FA068400840002843A060FA
:102EA0000CE02078062809D12146E4312046B430D0
:102EB000FEF7A4FD012801D10020207070BD10B5DF
:102EC00004462146E43108469430FEF7CBFCE4206A
:102ED000005D022815D1FEF7A1FB0146FF20AD30B1
:102EE00001512146E4310846C430FFF711F9FF21B2
:102EF00095310A59FF21DD3109594A439009FEF7FE
:102F000093FC10BD704710B504462146E4310846D5
:102F10002830FEF7E1FDE420005D022810D1FEF725
:102F20007DFB0146FF20AD3001512146E4310846CA
:102F3000C430FFF7EDF8932189000859FEF774FCBF
:102F400010BD000010B504462078052807D1E42004
:102F5000005D8000034A11582046884701E0FEF7D3
:102F600071FC10BD0C05002010B504462146E4316B
:102F700008465C30FEF7D0FEE420005D022810D148
:102F8000FEF74CFB0146FF20AD3001512146E431F4
:102F90000846C430FFF7BCF8932189000859FEF7B2
:102FA00043FC10BD10B504460021E4200155FEF796
:102FB00049FC10BDC206D20E01219140014A1160A8
:102FC0007047000000E100E010B5002819DA1A4A45
:102FD00003071B0F083B9B089B00D2588307DC0E9E
:102FE000FF23A3409A438B071B0E8407E40EA340E4
:102FF0001A43114B0407240F083CA408A4001A51DB
:1030000018E00E4A03231B02D21883089B00D258F3
:103010008307DC0EFF23A3409A438B071B0E840714
:10302000E40EA3401A43054B032424021B19840811
:10303000A4001A5110BD00001CED00E000E100E00A
:1030400010B5002819DA1A4A03071B0F083B9B0822
:103050009B00D2588307DC0EFF23A3409A438B07C3
:103060001B0E8407E40EA3401A43114B0407240FE0
:10307000083CA408A4001A5118E00E4A03231B02BE
:10308000D21883089B00D2588307DC0EFF23A3408D
:103090009A438B071B0E8407E40EA3401A43054B8B
:1030A000032424021B198408A4001A5110BD000037
:1030B0001CED00E000E100E0C16802229143C16024
:1030C0007047C16849084900C1607047C1688908F4
:1030D0008900491CC160704704498968FF22013298
:1030E00091430143014A9160704700000003014091
:1030F000044989680122520791430143014A9160C2
:10310000704700000003014070B505460C4600BF43
:103110002868C00F002849D16068042847D1A069F9
:10312000002804D001280DD0022828D11CE000BFBF
:10313000E86880088000801CE86000BF2846FFF730
:10314000C0FF1CE02846FFF7B7FF2846FFF7BEFF89
:103150000820E968082291430143E96000BF00218B
:10316000284600F063F80AE02846FFF7A5FF284646
:10317000FFF7ACFF0421284600F058F800BF00BF5D
:10318000616820680843A16808432968244A1140FF
:10319000084328602348854241D1E06800F04CF89C
:1031A0002069FFF799FF6069FFF7A2FF37E06068C9
:1031B0000C281AD12846FFF77FFF2846FFF781FF2A
:1031C000A168606808432968174A114008432860CD
:1031D0001448854223D1E06800F02EF82069FFF7FB
:1031E0007BFF6069FFF784FF19E02846FFF764FF63
:1031F0002846FFF766FFA1686068084329680A4A05
:103200001140084328600748854208D1E06800F073
:1032100013F82069FFF760FF6069FFF769FF70BD71
:10322000F33FF9FF08030140F3FFF9FFC2680423ED
:103230009A430A43C26070470449896801225202D6
:1032400091430143014A916070470000000301402F
:1032500010B543680268D11A036BCB1A82685A43CF
:10326000C3684B43D318426B5218046B6400121BA3
:10327000046962439A18426183699B0342699A42D6
:1032800001DA426901E082699203C3699B039A42B1
:1032900009DD83699B0342699A4201DA426904E0CD
:1032A0008269920301E0C269920342614369426A02
:1032B000D2184262836A9B03426A9A4201DA426AE6
:1032C00001E0826A9203C36A9B039A4209DD836A22
:1032D0009B03426A9A4201DA426A04E0826A9203DC
:1032E00001E0C26A92034262426A92130262026B76
:1032F0004263016310BD00220260426042610263CA
:10330000426301628A0342627047000002494969D0
:103310000143014A51617047001002400249C969E6
:103320000143014AD1617047001002400249896996
:103330000143014A916170470010024010B500F04E
:1033400069F804494968F02211400909024A515CB0
:10335000C84010BD001002403844000810B5FFF707
:10336000EDFF05494968072212021140090A034A84
:10337000515CC84010BD00000010024048440008E5
:1033800010B5FFF7DBFF054949680722D20211405B
:10339000C90A034A515CC84010BD00000010024039
:1033A0004844000800201549154A526807239B0429
:1033B0001A40920C002A07D1114A52681A40920C06
:1033C0000A324A43104618E00D4A526807239B040C
:1033D0001A40920C012A07D1094A52681A40920CED
:1033E0000B324A43104608E0054A526807239B0403
:1033F0001A40920C0C324A431046704700127A0071
:1034000000100240024840680C210840704700004C
:103410000010024070B500247D252D020A4EFFF7F2
:10342000F1FF002804D0082806D00C2802D000BFE5
:10343000344605E02C4603E0FFF7B4FF044600BF26
:1034400000BF204670BD00000024F40002694168FE
:1034500091420DDD8268016989184268914204DA5F
:10346000826801698918016116E04168016113E011
:103470000269416891420DDAC2680169891842689F
:10348000914204DD82680169891A016104E04168A2
:10349000016101E04168016170470161704700000E
:1034A00010B502461D481E4900BF1E4B5B68936560
:1034B0005378002B2ED0137A1B07DB0F002B0FD174
:1034C000936D0468A34208D383685B1C83604468DF
:1034D000A34207D30023836004E00023836001E05C
:1034E00000238360137ADB06DB0F002B0FD1936D73
:1034F0000C68A34208D88B685B1C8B604C68A342A5
:103500000BD300238B6008E000238B6005E00023D1
:103510008B6002E0002383608B6010BD08060020F2
:10352000140600207803002010B50C4C601E0C49D6
:10353000884201D901200CE0601E0A49486103213C
:10354000081FFFF741FD0020064988610720086138
:103550000020002801D000BFFEE710BD803202002D
:10356000FFFFFF0000E000E010B5054800F05AF949
:10357000034800F0B1F80348FFF7B9FB10BD0000A5
:103580004C050020D0000020244800680121084399
:103590002249086008464068214908401F494860A0
:1035A000084600681F4908401C4908600846006832
:1035B00001218904884319490860084640687F2131
:1035C00009048843154948609F2000048860012051
:1035D000000649690143114A516100BF1248006960
:1035E000032189040843104908610F4840304069AD
:1035F000022108430C494031486100BF0A4840306D
:103600004069022108400228F8D0C80503494969E9
:103610008143024A516100BF704700000010024020
:103620000000FFF8FFFFF6FE4000004910B5044619
:103630002079C007C00F002823D021461148FDF78C
:1036400095FD00F06DFC00F0C7FC00F041FD00F0BE
:10365000B5FD0D4800F064FE0B48FDF7FBFD0A4880
:10366000FFF71EFF084800F035FA0748FDF792FE05
:1036700000BF06480649086000BF60684008400077
:10368000606010BDB80500204C050020AAAA00000B
:103690000030004010B504460E48C06AE0600D4896
:1036A000006BE0610B48406BE0620A48806BE063AE
:1036B00020460C30FDF78EFE20461C30FDF78AFEBA
:1036C00020462C30FDF786FE20463C30FDF782FE7A
:1036D00010BD00004000004910B504462046FFF729
:1036E000D9FF0020002803D100223C494A7002E0A3
:1036F00001223A494A7000BF226E20694243910A72
:10370000374A1066516600BFE06C34494431886125
:1037100000BF00BF33488068002804D0A06840087C
:103720004000401CA0606078002806D0012812D01C
:1037300002281ED0032837D129E0A06E401CA066C5
:10374000616E884206D30020A066204600F04CF847
:103750000120607029E0A068002802D0032060707A
:1037600006E020798007C00F002801D00220607099
:103770001BE0A068002802D00320607006E02079DA
:103780008007C00F002801D1012060700DE0207972
:103790008007C00F002806D1A06000BF11498860D3
:1037A00000BF0120607000E000BF00BF6078022809
:1037B00009D100BF0B48406840084000401C09493F
:1037C000486000BF08E000BF06484068400840006D
:1037D0000449486000BF00BF10BD00007402002013
:1037E00034040020D000002010B504460C48C16A03
:1037F00020460C30FDF7FFFD0948016B20461C30C8
:10380000FDF7F9FD0648416B20462C30FDF7F3FD2E
:103810000348816B20463C30FDF7EDFD10BD0000F4
:10382000400000490178491CC9B201700A2911D32E
:10383000002101700179C907C90F002905D141682C
:1038400049084900491C416004E002228168914313
:10385000891C81607047000010B50121064800F006
:1038600046F8002806D00121034800F031F803484B
:10387000FFF768FB10BD000000040040D0000020EE
:1038800010B58021064800F032F8002806D08021CB
:10389000034800F01DF80348FFF716FA10BD0000BA
:1038A00000340140D000002010B51021064800F07F
:1038B0001EF8002806D01021034800F009F803483C
:1038C000FFF76EF810BD000000340140D00000206A
:1038D000CA4302617047026A8A4302627047026A01
:1038E0000A4302627047C2680A43C26070470246D8
:1038F00010690840884201D1012070470020FCE790
:10390000C1627047FFB581B006461446304660304C
:1039100002994018009020461F220146400805E009
:103920004900C307DB0F1943521E40080028F7D196
:103930000D46954029460D46284600F033FDC10648
:10394000C90E01204002884000990F688743204635
:103950001F220146400805E04900C307DB0F194359
:10396000521E40080028F7D10D46954029460D46C5
:10397000284600F017FDC106C90E04988840074389
:103980000098076005B0F0BDF0B503461446012964
:1039900001D100252AE0042901D1012526E01029C2
:1039A00001D1022522E0402901D103251EE0FF2597
:1039B0000135A94201D1042518E00125AD02A94233
:1039C00001D1052512E001252D03A94201D10625CB
:1039D0000CE00125AD03A94201D1072506E0012530
:1039E0002D04A94201D1082500E009252846094DEA
:1039F0002E5C1D46183572191568074E375C074E48
:103A0000BE40B543044E365C2746B7403D43156083
:103A1000F0BD0000504400085A4400087300010043
:103A200070B5012901D100242AE0042901D1012423
:103A300026E0102901D1022422E0402901D10324EB
:103A40001EE0FF240134A14201D1042418E0012426
:103A5000A402A14201D1052412E001242403A142C1
:103A600001D106240CE00124A403A14201D10724C2
:103A700006E001242404A14201D1082400E0092425
:103A80002346046A054DEE5C0225B540AC43034D68
:103A9000EE5C1546B5402C43046270BD6E440008D0
:103AA00010B50022026870241346A3431A464B68DF
:103AB0001A43032424021346A3431A46CB681A432D
:103AC00002608B68C3620B8883620B690363012306
:103AD000436110BD10B502461C481D49136AD365E9
:103AE0005378002B2ED0137A1B06DB0F002B0FD13F
:103AF000D36D0468A34208D383685B1C8360446869
:103B0000A34207D30023836004E00023836001E025
:103B1000002383601389DB05DB0F002B0FD1D36DEE
:103B20000C68A34208D88B685B1C8B604C68A3426E
:103B30000BD300238B6008E000238B6005E000239B
:103B40008B6002E0002383608B6010BD20060020A4
:103B50002C06002010B50E490E4800F00EF9012881
:103B600006D10B490B4800F085F800F091FA0DE002
:103B700007496031074800F000F9012806D10449DF
:103B80002031044800F076F800F090FB10BD0000F2
:103B9000200000100038014010B50E490E4800F01A
:103BA000ECF8012806D10B490B4800F063F800F04F
:103BB0007FFA0DE007492031074800F0DEF80128C0
:103BC00006D104492031044800F054F800F08AFB83
:103BD00010BD0000200000100044004008B5244A39
:103BE000914201D1012200E00022214B5B1C99424D
:103BF00001D1012300E000231A431D4BDB1C994235
:103C000001D1012300E000231A43194BDB1D994227
:103C100001D1012300E000231A43154B0F339942D1
:103C200001D1012300E000231A43002A06D00268D4
:103C3000009200BF4268009200BF17E00122120705
:103C40000A4001231B079A4204D10A011209D243F8
:103C500002600BE0012252070A4001235B079A42EF
:103C600004D1C268CB00DB089A43C26008BD0000E3
:103C70000100001008B5244A914201D1012200E060
:103C80000022214B5B1C994201D1012300E000235B
:103C90001A431D4BDB1C994201D1012300E0002394
:103CA0001A43194BDB1D994201D1012300E0002387
:103CB0001A43154B0F33994201D1012300E0002331
:103CC0001A43002A06D00268009200BF42680092A0
:103CD00000BF17E0012212070A4001231B079A4286
:103CE00004D10A011209D24302600BE001225207FB
:103CF0000A4001235B079A4204D1C268CB00DB086B
:103D00009A43C26008BD000001000010C16804228F
:103D10009143C1607047C16808229143C1607047F8
:103D2000C168012252031143C1607047012212078A
:103D30000A4001231B079A4205D1C2680B011B09E7
:103D40001A43C26018E0012252070A4001235B07B0
:103D50009A4205D10269CB00DB081A4302610BE0ED
:103D6000012292070A4001239B079A4204D142692B
:103D70008B009B081A4342617047024601200007EE
:103D8000084001231B0798420BD110680B011B0947
:103D900018400B011B09984201D1012070470020F7
:103DA000FCE701204007084001235B0798420BD144
:103DB000D068CB00DB081840CB00DB08984201D16B
:103DC0000120EBE70020E9E70020E7E77FB50446A4
:103DD0000D46002600200090019002900390FFF70E
:103DE00019FB0090FFF7AAFA0190FFF7B7FA0290CB
:103DF000FFF7C6FA039000BFE068012149030840BD
:103E0000400B002824D1E968686808432969084301
:103E1000E168104A11400843E060A8682169032264
:103E2000120391430143216100BF0B48844201D139
:103E3000039E03E00948844200D1029E002E07D071
:103E40002868002804D0314620462A6800F008F887
:103E50007FBD0000F3E9FFFF00380140004400404F
:103E6000F7B582B00C461546A900192262431046E8
:103E7000FCF7A8F906466421FCF7A4F90701A9009C
:103E8000192262431046FCF79DF90646A900192243
:103E900062431046FCF796F964210090FCF792F912
:103EA00064214843301A000132300190FCF78AF94E
:103EB000F02108403F18A900192262431046FCF780
:103EC00081F90646A900192262431046FCF77AF9E7
:103ED00064210090FCF776F964214843301A000110
:103EE00032300190FCF76EF90007000F381881B2EC
:103EF0000298816005B0F0BD0348C0680421884382
:103F00000149C86070470000003801400348C0689C
:103F1000042188430149C860704700000044004004
:103F200010B52B4C2078002806D001281BD0022881
:103F300036D0032849D142E02079C007C00F0028BD
:103F400010D0E06D401CE06503280BD90020E0652F
:103F500000BF2048C068042108431E49C86000BF54
:103F60000120207032E0616D606C884203D3FFF75E
:103F7000C3FF03202070E16C606C88420DD1606C3F
:103F800000280AD0E06D401CE065032805D9002018
:103F9000E065FFF7B1FF02202070606CE06415E07F
:103FA0000020E064606460684008400060600221B6
:103FB00060688843801C60600020207006E000205C
:103FC0006064E064E065207000E000BF00BF10BDE9
:103FD000000000200038014010B52B4C207800284C
:103FE00006D001281BD0022836D0032849D142E050
:103FF0002079C007C00F002810D0E06D401CE0659C
:1040000003280BD90020E06500BF2048C0680421C8
:1040100008431E49C86000BF0120207032E0616D76
:10402000606C884203D3FFF771FF03202070E16CBE
:10403000606C88420DD1606C00280AD0E06D401C95
:10404000E065032805D90020E065FFF75FFF022047
:104050002070606CE06415E00020E06460646068DB
:10406000400840006060022160688843801C6060F6
:104070000020207006E000206064E064E0652070AD
:1040800000E000BF00BF10BD6800002000440040F9
:10409000054806494968CAB2436C591C4164014647
:1040A0000831CA5470470000000000200038014069
:1040B000054806494968CAB2436C591C4164014627
:1040C0000831CA54704700006800002000440040D6
:1040D00038484178002906D0012951D0022956D00C
:1040E000032964D15BE001798907C90F00293BD01E
:1040F000016E491CFF22F5320166914234D900213C
:104100000166816401650122836C591C816401464A
:104110002631CA540322836C591C8164014626311E
:10412000CA540522836C591C816401462631CA5445
:104130000722836C591C816401462631CA54092226
:10414000836C591C816401462631CA542621095CBE
:10415000194A516000BF1146C96808221143164A26
:10416000D16000BF01214170416E491C7D22D20007
:104170004166914203D9002141660321417017E055
:10418000426CC16C914201D10221417010E0416842
:1041900049084900491C41600021417008E041681C
:1041A00049084900491C41600021417000E000BFFE
:1041B00000BF7047000000200038014038484178B7
:1041C000002906D0012951D0022956D0032964D1F3
:1041D0005BE001798907C90F00293BD0016E491CBA
:1041E000FF22F5320166914234D9002101668164D3
:1041F00001650122836C591C816401462631CA5431
:104200000322836C591C816401462631CA5405225D
:10421000836C591C816401462631CA540722836C81
:10422000591C816401462631CA540922836C591CE9
:10423000816401462631CA542621095C194A51601D
:1042400000BF1949C96808221143174AD16000BF4D
:1042500001214170416E491C7D22D200416691428C
:1042600003D9002141660321417017E0426CC16C03
:10427000914201D10221417010E041684908490092
:10428000491C41600021417008E04168490849002B
:10429000491C41600021417000E000BF00BF704731
:1042A0006800002000380140004400400B48016DC8
:1042B000491C024626320165515C094A5160826CF4
:1042C000016D914208D100BF0549C9680822914398
:1042D000034AD16000BF00BF70470000000000200B
:1042E000003801400B48016D491C02462632016529
:1042F000515C094A5160826C016D914208D100BF46
:104300000649C96808229143044AD16000BF00BF32
:104310007047000068000020003801400044004061
:1043200010B51E491E4A0469036E63439B0A436528
:104330004378002B2ED0037A9B06DB0F002B0FD186
:10434000436D0C68A34208D38B685B1C8B604C6880
:10435000A34207D300238B6004E000238B6001E0BD
:1043600000238B60037A5B06DB0F002B0FD1436DBC
:104370001468A34208D893685B1C93605468A342F6
:104380000BD30023936008E00023936005E0002333
:10439000936002E000238B60936010BD380600201C
:1043A0004406002002462023110C002901D0103BB6
:1043B0000A46110A002901D0083B0A4611090029C2
:1043C00001D01B1F0A469108002901D09B1E0A46F6
:1043D0005108002901D0981E7047981AFCE730B4A4
:1043E0007446641E2578641CAB4204D3635D5B0095
:1043F000E31830BC18471D46F8E7000072B6FCF71A
:10440000FDFAFCF7C7FBFCF743FAFCF7FDFCFCF7F1
:10441000D5FCFCF795FBFCF7DBFDFCF79BFCFCF700
:1044200011FEFCF765FE62B600BF0248FFF7FEF81A
:10443000FBE700004C050020000000000000000029
:10444000010203040607080900000000010203043A
:1044500000000000040404043838000008000000D4
:10446000080000080000080000000800000000022A
:104470000406080A0C0E10140001020304050607C6
:10448000080A0000A44400080000002050060000B4
:10449000880300083446000850060020000500008C
:1044A0000401000801545A1E04016009166802172D
:1044B0000E23340323A401022314323229283202AA
:1044C0001AE8382A9C0909192C320A338813022663
:1044D0000829541A998C69581A33102366063251E8
:1044E000C5AFFFFFFF72C82B102705011A32335AE0
:1044F0000DB41AF45C011C32259A1BE04BCC04F07D
:1045000009263429B0393019F0091A38292C29B371
:1045100029DC091E6001241440420F1AFF01417278
:10452000CC32515AAF14011C1A668D29B81B80BBBE
:104530000419CD4BC0129D3948222023110132F0BD
:10454000690402130A320532C8321F293041322869
:104550005AD880238B2E23690C1A1A681AE4F11A90
:104560000258E34E1BF219092A105AA30481A97CB0
:104570005169D0F129AB191B3908092A380936705D
:1045800009363801251302011A01042C0201020B1D
:104590001A020D15040305042A05131B03050F2B2E
:1045A000030404320513A12A14082D2914084D28E8
:1045B000140839261B08AD0C1ACD14130127140852
:1045C000072F1B08690413BF2E1B0805081A3D247A
:1045D0001A9D181AB5041AA5101319175B0841047F
:1045E000290C1A99041AED041A6D045AC504290CF1
:1045F0002914291C01180A3D191079F7222063E8B3
:10460000033264323223D80E42C8021A40238B2E62
:10461000720A4B4D363C418B0F3E508B3816185A60
:104620003860412920690C8BDC050C8BC030548B21
:0446300069110C0000
:04000005080000C12E
:00000001FF
