:020000040800F2
:10000000180A0020490100085301000855010008A2
:1000100000000000000000000000000000000000E0
:100020000000000000000000000000005701000870
:1000300000000000000000005901000871320008B3
:10004000000000005D0100085D0100085D0100087E
:100050005D0100085D0100085D010008000000006E
:100060000000000000000000000000000000000090
:10007000D9040008C1350008E93500085D01000811
:10008000993500085D0100085D01000800000000CE
:100090005D0100085D0100085D0100085D010008C8
:1000A000000000005D01000800000000B13A0008F7
:1000B000ED3A000800000000000000000000000011
:1000C00000F002F800F030F80CA030C8083824180E
:1000D0002D18A246671EAB4654465D46AC4201D180
:1000E00000F022F87E460F3E0FCCB6460126334282
:1000F00000D0FB1AA246AB4633431847104000001D
:10010000304000000023002400250026103A01D3CF
:1001100078C1FBD8520700D330C100D50B607047BF
:100120001FB51FBD10B510BD00F001F91146FFF756
:10013000F7FF03F075FF00F019F903B4FFF7F2FFC2
:1001400003BC00F01BF90000084909488047094832
:100150000047FEE7FEE7FEE7FEE7FEE7FEE70000FA
:1001600005480649044A064B70470000FFFFFFFFA1
:1001700091320008C100000818060020180A00206B
:100180001806002001E004C0091F0429FBD28B07D8
:1001900001D50280801CC90700D002707047002979
:1001A0000BD0C30702D00270401C491E022904D3A1
:1001B000830702D50280801C891EE3E70022EEE758
:1001C0000022DFE7002203098B422CD3030A8B4273
:1001D00011D300239C464EE003460B433CD400223F
:1001E00043088B4231D303098B421CD3030A8B4251
:1001F00001D394463FE0C3098B4201D3CB01C01A1F
:10020000524183098B4201D38B01C01A52414309E9
:100210008B4201D34B01C01A524103098B4201D3D7
:100220000B01C01A5241C3088B4201D3CB00C01A44
:10023000524183088B4201D38B00C01A52414308BC
:100240008B4201D34B00C01A5241411A00D20146E1
:100250005241104670475DE0CA0F00D0494203107A
:1002600000D34042534000229C4603098B422DD3C9
:10027000030A8B4212D3FC22890112BA030A8B4271
:100280000CD3890192118B4208D3890192118B42C0
:1002900004D389013AD0921100E08909C3098B4245
:1002A00001D3CB01C01A524183098B4201D38B0188
:1002B000C01A524143098B4201D34B01C01A52412B
:1002C00003098B4201D30B01C01A5241C3088B4270
:1002D00001D3CB00C01A524183088B4201D38B005B
:1002E000C01A5241D9D243088B4201D34B00C01AE5
:1002F0005241411A00D20146634652415B101046FA
:1003000001D34042002B00D54942704763465B1041
:1003100000D3404201B50020C046C04602BD704730
:100320007047704700487047B40500207047754615
:10033000FFF7F8FFAE46050069465346C008C00007
:10034000854618B020B5FFF70BFF60BC00274908B1
:10035000B6460026C0C5C0C5C0C5C0C5C0C5C0C55D
:10036000C0C5C0C5403D49008D46704710B5044624
:10037000C046C0462046FFF7E0FE10BD01491820E8
:10038000ABBEFEE72600020070B58C180578401C55
:100390006B075B0F01D10378401C2A1106D102784C
:1003A000401C03E00678401C0E70491C5B1EF9D10E
:1003B0002B0705D40023521E0DD40B70491CFAE7FD
:1003C0000378401CCB1A921C03E01D780D70491C69
:1003D0005B1C521EF9D5A142D8D3002070BD026823
:1003E0008A430260704701468868C007C00F012237
:1003F000504050407047014694204058022210401F
:1004000040087047014694204058C007C00F0122A1
:100410005040504070470000F8B506460D46286829
:10042000070D3046FFF7DFFF00284ED13046FFF7BB
:10043000E9FF002849D02868B16B032212059143D7
:100440000143B16300BF002434E0002C06D0012C2E
:100450000CD0022C12D0032C20D117E0E100281D73
:1004600042580121304600F028F918E0E100281D2B
:1004700042581649304600F020F910E0E100281DEE
:1004800042581349304600F018F908E0E100281DF1
:1004900042581049304600F010F900E000BF00BF9C
:1004A000E0002B1DC0184268E0001958304600F0EB
:1004B00041F9641CBC42C8DD304600F0F1F800BFD1
:1004C0003046FFF798FF0128FAD0F8BD021100006E
:1004D000032200000433000010B50420492109065E
:1004E00009680140814201D1012100E00021002979
:1004F0000BD00420492109060968814349221206CC
:10050000116000BF014802F02DF810BD000000206E
:1005100070B505460C462068A9681F22D202914397
:100520000143A96000BF2846616800F0FCF8284636
:10053000A16800F09FF82069696801229202914346
:100540000143696000BF2846616900F09AF82846B7
:10055000A16900F09DF8E0696968012212039143E6
:100560000143696000BF2846216A00F0A0F870BD11
:10057000F8B506460D462868070D3046FFF733FFED
:1005800000283FD13046FFF73DFF00283AD02868C9
:10059000F16A0722120591430143F16200BF002472
:1005A00025E0062C0CDAE0002B1D1A58A0002018BC
:1005B00001235B0318430146304600F01BF90CE0B1
:1005C000E0002B1D1A58A01F8300C01801231B0335
:1005D00018430146304600F00DF9E0002B1DC0180D
:1005E0004268E0001958304600F0A4F8641CBC4290
:1005F000D7DD304600F054F800BF3046FFF7FBFE71
:100600000128FAD0F8BD70B505460C462068A968E7
:100610000F22520491430143A96000BF6068A9689A
:10062000022291430143A96000BF2846A16800F05F
:100630007AF82846E16800F01DF82846216900F0A4
:1006400020F82846616900F023F8A0696968012252
:10065000D20291430143696000BFE06969680722E3
:10066000520391430143696000BF2846216A00F0AC
:100670001EF870BD826801239B029A430A43826080
:10068000704742680123DB059A430A434260704782
:100690004268024B1A400A4342607047E0FD3FFF48
:1006A0009421095802221143942211507047C26DBF
:1006B00020239A430A43C2657047F7B504460D46A6
:1006C000032000051F220146400805E04900C3073A
:1006D000DB0F1943521E40080028F7D10F46974000
:1006E00039460F46384603F0EBFB0146A06B032268
:1006F00012051040C840461CA06BE906C90EC91C73
:10070000891B8A008A181F21914088430299C906D3
:10071000C90EEA06D20ED21C921B9300D218914049
:100720000843A063FEBD4268FF2301339A430A4396
:1007300042607047F7B50C46172040011F22014662
:10074000400805E04900C307DB0F1943521E40086B
:100750000028F7D10E46964031460E46304603F04B
:10076000AFFB01462046172252011040C8408100CD
:1007700000980C300D181F2000051F22014640086C
:1007800005E04900C307DB0F1943521E400800284B
:10079000F7D10E46964031460E46304603F090FBA8
:1007A0001F2212052240C240072090402F68874335
:1007B0001F2000051F220146400805E04900C3072D
:1007C000DB0F1943521E40080028F7D10E46964011
:1007D00031460E46304603F073FB014620461F2289
:1007E00012051040C84002994907490F81400F4344
:1007F0002F60FEBDF7B507460C46032000031F22FD
:100800000146400805E04900C307DB0F1943521EAB
:1008100040080028F7D10E46964031460E46304635
:1008200003F04EFB01462046032212031040C8404D
:10083000810038462C300D18E206D20E1F2191405F
:10084000286888430299C906C90EE206D20E914073
:1008500008432860FEBD816808221143816000BF03
:1008600000BF816808221140C9080029F8D100BFE3
:1008700000BF00BF816804221143816000BF00BF38
:1008800081680422114089080029F8D170470000CE
:1008900000B5ADB0242124A8FFF792FC442113A891
:1008A000FFF78EFC0F204004249002202590C00109
:1008B000269000202790289029902A902B902C9009
:1008C00024A949200006FFF79EFE0320000513908F
:1008D0004548149006211591444916910621179117
:1008E0004349189106211991BD2189001A910621C9
:1008F0001B9113A949200006FFF73AFE24210AA8FC
:10090000FFF75EFC242101A8FFF75AFC1720C00264
:100910000A90FF2001300B9000200C900E900F9059
:100920001090119012900AA949200006FFF7F0FDDF
:100930000320000501902C481630029004210391F9
:100940002C490491042105912B490691042107911A
:100950002849163908910421099101A94920000666
:10096000FFF75AFD00BF49200006806801210843B7
:1009700049210906886000BF802049680143492257
:100980001206516000BF04211046FFF728FD4920E0
:100990000006FFF760FF00BF00BF49200006806827
:1009A0000421084080080028F6D100BF4920000635
:1009B00080680905084349210906886000BF00BF17
:1009C00002204921090609680140814201D1012123
:1009D00000E000210029F3D0022149200006FFF7A2
:1009E000FEFC2DB000BD00000E00C00023009000F2
:1009F00027005001260020012800800110B502F0D8
:100A000017FC03204B490968C908C9000143494A3A
:100A1000116000BF00BF48480068012108434649F3
:100A2000086000BF00BF00BF4348006802210840C3
:100A300040080028F7D00320C0043F494968072236
:100A40009204914301433C4A516000BF00BF1046ED
:100A500000680121090608431146086000BF00BF75
:100A600000BF35480068012149060840400E0028B3
:100A7000F6D0002030494968F022914301432E4AC4
:100A8000516000BF101511464968072212029143B8
:100A90000143294A516000BF0020114649680722DE
:100AA000D20291430143244A516000BF0220114603
:100AB0004968890889000143516000BF00BF00BF39
:100AC0001D4840680C2108400828F8D180061A49C2
:100AD0004968024691430143174A516000BF1748D5
:100AE00011464968C24311400143134A516000BF97
:100AF0000F20000402F094FA0120000602F090FAA0
:100B00000120C00202F09CFA012002F091FA0220BA
:100B100002F08EFA0120400302F092FA012002F066
:100B20008FFA0120800302F08BFA0120400402F0CA
:100B30007FFA10BD002002400010024000C000807B
:100B400000B58BB0282101A8FFF73AFB00200190E7
:100B500002900390FF200130049040200590800116
:100B60000690F8200790012008A90870002009903D
:100B70000A9001A9064800F039FB00BF044800684C
:100B8000012108430249086000BF0BB000BD00000E
:100B90000402014000B585B014216846FFF710FB40
:100BA0000120019002900220039000200490042074
:100BB00000906946644800F02EFC082000906946C9
:100BC000614800F028FC02200190002002900220E1
:100BD0000390012004900820009069465B4800F0D3
:100BE0001AFC01200490022000906946574800F04A
:100BF00012FC01200490802000906946524800F0C9
:100C00000AFC012004900420009069464F4800F03F
:100C100002FC01200490009069464C4800F0FBFB68
:100C200001200490402000906946474800F0F3FB03
:100C300003200190002002900220039000200490E5
:100C4000012000906946404800F0E5FB40200090FC
:100C500069463F4800F0DFFB1020009069463C48A1
:100C600000F0D9FB202000906946384800F0D3FB03
:100C7000022000906946344800F0CDFB202000900F
:100C80006946334800F0C7FB4020009003200190E4
:100C9000002002900490039069460920C00600F0ED
:100CA000BAFB802000900320019000200290049065
:100CB000039069460920C00600F0ADFB00200290B9
:100CC0000220039000200490402000900320019017
:100CD00069460920C00600F09EFB8020009003209A
:100CE000019069460920C00600F095FB042004909D
:100CF0000220019001200290022003900420009025
:100D00006946134800F087FB002002900220009003
:100D100069460F4800F07FFB0520049002200190F7
:100D2000012002900220039010200090694607489D
:100D300000F071FB002002902020009069460348DB
:100D400000F069FB05B000BD00080048000C004839
:100D50000004004810B500210D2003F025F90D20F6
:100D600003F0DAF80321102003F01EF9102003F03D
:100D7000D3F803210C2003F017F90C2003F0CCF872
:100D800002210E2003F010F90E2003F0C5F8042113
:100D90001B2003F009F91B2003F0BEF804211C20DE
:100DA00003F002F91C2003F0B7F80521881F03F0B7
:100DB000FBF80020C04303F0AFF810BD00B587B0CA
:100DC0001C216846FFF7FCF90120800300900420F5
:100DD000019000040290002003900490012040073D
:100DE0000590012006906946064802F01DF800BFF4
:100DF00004480068012108430249086000BF07B0A9
:100E000000BD00000403014010B5002076490968C8
:100E1000702291430143744A116000BF02201146C1
:100E2000886200BF7148C86200BF0020086300BF2D
:100E3000602201216C4802F057FD002201216A481E
:100E400002F09EFD00220421674802F099FD602215
:100E50001021654802F048FD00221021624802F08E
:100E60008FFD00224021604802F08AFD6022FF21B0
:100E700001315D4802F038FD0022FF2101315A485E
:100E800002F07EFD002201218902574802F078FD20
:100E900000205549486300BF00BF886300BF00BF02
:100EA000C86300BF602289144F4802F01DFD002274
:100EB000012109034C4802F063FDF0204A4908640F
:100EC00000BF0121484802F03BFC1021464802F0D7
:100ED00037FCFF210131444802F032FC01210903B3
:100EE000414802F02DFC00203F490968032212020C
:100EF000914301433C4A116000BF60201146496C98
:100F0000090A09020143516400BF50140721090472
:100F10000022354B5B6C364C234004460C43144393
:100F20002343314C636400BF204600210122044664
:100F3000603463181C6894431C6000BF00230215D2
:100F4000194602F08EFC2848002102220446603433
:100F500063181C6814431C6000BF00BF806F012130
:100F600008432149886700BF00BF0846806F0221FF
:100F700008431D49886700BF00BF0846806F0421F1
:100F800008431949886700BF00BF0846806F0821E1
:100F900008431549886700BF00BF0846406C5103ED
:100FA00088431149486400BF8814096A01430E4A06
:100FB000116200BF00BF1046406C0121C903084305
:100FC0001146486400BF00BF08460068012108437D
:100FD0001146086000BF8021104602F0ADFB1021D1
:100FE000014802F0A9FB10BD003401407FBB0000A6
:100FF000FFDFF0EF00B585B014216846FFF7E0F899
:10100000002001900490401E0290002003908F2148
:101010006846018069460120800702F0F1FC00BFAC
:10102000012080070068012108438907086000BF8C
:101030000020019004900C480290002003908F2122
:10104000684601806946094802F0DAFC0121074838
:1010500002F0E6FA02200549C9680143034AD1605B
:1010600000BF05B000BD0000FFFF0000000400400D
:1010700000B585B014216846FFF7A2F84B20C001E7
:10108000009000200190039002900C20049069468B
:101090001F4802F041FE69461E4802F03DFE1E490F
:1010A0001B4802F0E9FD1C492031194802F0E4FD1B
:1010B0001949174802F038FD17496031144802F009
:1010C00033FD134802F0CDFD114802F0C5FD104874
:1010D00002F0CCFD10490F4802F0CEFD0E49203140
:1010E0000C4802F0C9FD0C490A4802F01DFD0A49EE
:1010F0006031084802F018FD064802F0B2FD0548CC
:1011000002F0AAFD034802F0B1FD05B000BD0000E9
:1011100000380140004400402000001000BF194882
:10112000406A012108431749486200BF00BF00BF61
:101130001448406A0221084040080028F7D000BF48
:1011400011481249086000BF0220486000BF7D209E
:101150000001886000BF00BF00BF0C48C068800766
:10116000800F002801D1012000E000200128F3D1E8
:1011700000BF07480549086000BF00BF0548086078
:1011800000BF70470010024055550000003000407D
:10119000AAAA0000CCCC000070B504460D4600267B
:1011A0002E6B2068B04205D2022168688843801CFB
:1011B000686006E06068B04203D90221686888432D
:1011C0006860A068B04201D2A66803E0E068B0425F
:1011D00000D9E668E368A268D11AF31A22695A4373
:1011E0001046FEF7EFFFE86470BD000010B54B68D5
:1011F0000A681A438B681A4303681F4C23401A433A
:101200000260CB680A691A430368FF24F134A343E0
:101210001A430260026807231B039A434B691A436F
:1012200002600A7F52000B6A1A43144B5B689B08EA
:101230009B001A43114B5A60104A803A904208D1E1
:101240001A465268F8239A438B691A430B4B5A602B
:1012500009E00A4A52681F231B029A438B695B010B
:101260001A43064B5A60054A1268520852004B6AEC
:101270001A43024B1A6010BDFF7FFCFC8002014044
:1012800010B504466078022811D1207A4007C00FBB
:1012900000280CD121460A4800F018F821460948D8
:1012A00000F014F82146084800F010F806E000208D
:1012B00003498860034988600349886010BD0000C5
:1012C0003804002044040020500400200A6D036804
:1012D0009A420BD38268521C826043689A420BD3B5
:1012E00004238A689A43121D8A6005E08268002AF6
:1012F00002D08268521E8260704710B50446842076
:10130000005900284CD02078030002F0F6FD0504B7
:101310001B26313C4700842109598A00211D885829
:101320000A21FEF74FFF88210851842109598A00BC
:10133000211D88580A21FEF745FF8C20015102200B
:1013400020702CE02078401CC1B2217094200059FC
:10135000814201D90220207021E02078401CC1B2D6
:10136000217098200059814201D90320207016E095
:101370002078401CC1B2217094200059814201D9CB
:10138000042020700BE02078401CC1B221709C200A
:101390000059814201D90020207000E000BF04E024
:1013A0000020207000219020015110BD70B504462E
:1013B0000D4DA06800280FD000200AE001228240D5
:1013C000A1681140002903D0411C8422515102E040
:1013D000401C2028F2DB02E00021842041512846F5
:1013E000FFF78BFF70BD0000140500200268C16884
:1013F00051430A02FF230133C168591A83685943D4
:1014000051180912816081680912416070470A020F
:1014100082604160704770B505460C4610236068D5
:10142000984302462846216800F050F86268110986
:1014300020686A68824303464B431A436A6000BFD0
:1014400028462269216800F00BF82846E2682168E6
:1014500000F072F82846A268216800F0A3F870BD79
:10146000F7B504460D4628461F220146400805E010
:101470004900C307DB0F1943521E40080028F7D16B
:101480000E46964031460E46304602F019FD810068
:101490000F208840276A874328461F2201464008BC
:1014A00005E04900C307DB0F1943521E400800281E
:1014B000F7D10E46964031460E46304602F000FD0A
:1014C00081000298884007432762FEBDF7B50446B5
:1014D0000D4628461F220146400805E04900C30783
:1014E000DB0F1943521E40080028F7D10E469640E4
:1014F00031460E46304602F0E3FC410003208840AE
:101500002768874328461F220146400805E0490016
:10151000C307DB0F1943521E40080028F7D10E46BF
:10152000964031460E46304602F0CAFC4100029811
:10153000884007432760FEBDF7B504460D462846A0
:101540001F220146400805E04900C307DB0F19438D
:10155000521E40080028F7D10E46964031460E46EE
:10156000304602F0ADFC410003208840A768874365
:1015700028461F220146400805E04900C307DB0F4B
:101580001943521E40080028F7D10E4696403146B6
:101590000E46304602F094FC410002988840074312
:1015A000A760FEBDF7B504460D4628461F2201463A
:1015B000400805E04900C307DB0F1943521E4008ED
:1015C0000028F7D10E46964031460E46304602F0CE
:1015D00077FC410003208840E768874328461F22A4
:1015E0000146400805E04900C307DB0F1943521EBE
:1015F00040080028F7D10E46964031460E46304648
:1016000002F05EFC4100029888400743E760FEBD9F
:10161000492000068068012149050843492109063F
:101620008860704700BF0249086400BF704700002F
:101630000034014010B50020064948638863C86340
:10164000FF211231034801F0E6FF0349014801F090
:10165000E2FF10BD003401404404000010B5044610
:10166000064844638463C463FF21123101F0D3FF51
:101670000349024802F05CF810BD0000003401404C
:101680004404000010B5044607484463002006499E
:101690008863C8635521044802F04AF8052109020D
:1016A000014801F0B8FF10BD0034014010B50446F8
:1016B00007484463002006498863C8630549044815
:1016C00002F036F85021024801F0A5FF10BD0000DD
:1016D000003401400505000010B50446002008490B
:1016E0004863084684630020C8635521044802F01B
:1016F0001FF805210902024801F08DFF10BD00000E
:101700000034014010B504460020084948630846EB
:1017100084630020C86355210901044802F008F8D9
:101720000521024801F077FF10BD000000340140A0
:1017300010B5044600200649486388630846C46320
:10174000044901F0F5FF5021014801F064FF10BD8C
:10175000003401400505000010B50446002007498B
:10176000486388630846C4635521090101F0E0FF1E
:101770000521024801F04FFF10BD00000034014078
:1017800010B50446064844638463C463FF211531E1
:1017900001F0CEFF0349024801F03DFF10BD0000FB
:1017A000003401404104000010B50446064844637B
:1017B0008463C463054901F0BBFFFF211531024872
:1017C00001F029FF10BD0000003401404104000079
:1017D00010B50446064844638463C463FF21423164
:1017E00001F0A6FF0349024801F015FF10BD0000FB
:1017F000003401401404000010B504460648446358
:101800008463C463054901F093FFFF21423102481C
:1018100001F001FF10BD000000340140140400007D
:1018200010B50446064844638463C463054901F067
:101830007FFFFF214531024801F0EDFE10BD0000A1
:10184000003401401104000010B50446064844630A
:101850008463C463FF21453101F06AFF03490248F4
:1018600001F0D9FE10BD0000003401401104000059
:10187000411E024AD16200BF70470000003401409F
:101880000021054A5162114648630968012211434B
:10189000014A1160704700000004004004480068DD
:1018A000400840000249086000204862704700007C
:1018B00000040040002101614161704700B57E22B3
:1018C000525C5300D2183A4B9A5C920009239B0158
:1018D000CB189A5842607E22525C5300D218344B87
:1018E000D2185278920009239B01CB189A58826033
:1018F0007E22525C5300D2182D4BD218927892005F
:1019000009239B01CB189A58C2607E22525C1300B7
:1019100002F0F3FA06041C051D061E3400BF00BFCA
:10192000C3684268D21883685B009A420BDD026983
:10193000521C0261836902699A4206D9002202613F
:1019400002220A7001E00022026118E000BF00BF1D
:10195000C3684268D21883685B009A420BDA026956
:10196000521C0261836902699A4206D9002202610F
:1019700002220A7001E00022026100E000BF00BF05
:101980000A78022A12D1FF227D325258036A9A4203
:101990000AD24269521C4261436A42699A4205D99D
:1019A000002242614A7001E00022426100BD000055
:1019B00058030020014600208B694A689A4215D2DC
:1019C0008B698A689A4211D28B69CA689A420DD291
:1019D0000A69521C0A610A69521C0A61CB699A425F
:1019E00004D102230A689A43921C0A604A69521C75
:1019F0004A610B6A4A699A4204D104230A689A43ED
:101A0000121D0A600A789207D20F002A05D00A68D0
:101A1000520852000A60012009E00A785207D20FEA
:101A2000002A04D00A68520852000A600220704757
:101A3000014600200A78D207D20F002A08D10A6096
:101A40000A614A610A6852085200521C0A6000E0AA
:101A50000120704710B50446A16A606A884213D815
:101A60000020E061A16A606A88422FD1E06A002804
:101A700004D0201D616801F098FB27E0206B00284E
:101A800024D0606BE06121E0E16AA06A4018616ADD
:101A9000884207D301202062201D01F061FBA0696C
:101AA000E06113E0E16AA06A4018216B4018616AA6
:101AB000884204D301202062606BE06106E00020D0
:101AC0006062022120688843801C2060606A401C9C
:101AD000606210BD014600200A78D207D20F002AAA
:101AE00009D10A604A62CA610A620A685208520051
:101AF000521C0A6000E00120704770470021C1605D
:101B00000161704700B57E22525C5300D218244B0D
:101B1000D2185278920009239B01CB189A58426040
:101B200093229200525882607E22525C130002F08F
:101B3000E4F906041C051D061E3400BF00BF8368BF
:101B400082695A4343689B019A420BD2C268521C75
:101B5000C260C369C2689A4206D90022C2600122EB
:101B60000A7001E00022C26018E000BF00BF836875
:101B700042695A4343689B019A420BD9C268521C7E
:101B8000C260C369C2689A4206D90022C2600122BB
:101B90000A7001E00022C26000E000BF00BF00BD8B
:101BA00058030020002101614161704700B57E2289
:101BB000525C5300D2183C4B9A5C920009239B0163
:101BC000CB189A5842607E22525C5300D218364B92
:101BD000D2185278920009239B01CB189A58826040
:101BE0007E22525C5300D2182F4BD218927892006A
:101BF00009239B01CB189A58C2607E22525C1300C5
:101C000002F07BF906041E051F06203800BF00BF46
:101C1000C3684268D218C3695A4383689B019A42D9
:101C20000BD90269521C0261036A02699A4206D901
:101C30000022026102220A7001E0002202611AE021
:101C400000BF00BFC3684268D21883695A438368E3
:101C50009B019A420BD20269521C0261036A02691B
:101C60009A4206D90022026102220A7001E0002293
:101C7000026100E000BF00BF0A78022A13D1FF22F0
:101C80007D325258436A9A420BD94269521C4261D2
:101C9000836A42699A4206D90022426101224A704F
:101CA00001E00022426100BD5803002070B50346E8
:101CB00000201D6A5C68AC420BD21D6A9C68AC4275
:101CC00007D21D6ADC68AC4203D21C69641C1C612B
:101CD0006EE09D685C68AC420FD9DD685C68AC4220
:101CE0000BD9DD689C68AC4203D902257E24A5543B
:101CF0001EE001257E24A5541AE0DD689C68AC42F4
:101D00000BD9DD685C68AC4203D903257E24A55459
:101D10000EE004257E24A5540AE09D685C68AC4270
:101D200003D900257E24A55402E005257E24A55470
:101D30007F24A45C304D2D5D7E24A45CA54235D16A
:101D40009C69641C9C619D6A9C69AC422ED90024EC
:101D50009C61DC69002C02D14C688C6017E08D68B6
:101D60004C68AC4204D98D684C68641B4C6205E039
:101D70008D680C6B641B4D6864194C624D6ADC699C
:101D8000641EA6000C460C34A5514C688C60DC69BE
:101D9000062C04D102251C68AC43A41C1C60DC6921
:101DA000641CDC617E24A55C7F24A55400241C6196
:101DB0005D6A1C69AC4203D8DD6A5C69AC4204D937
:101DC00004251C68AC43241D1C601C78A407E40F88
:101DD000002C05D01C68640864001C60012009E028
:101DE0001C786407E40F002C04D01C6864086400AD
:101DF0001C60022070BD00007C0300200146002012
:101E00000A78D207D20F002A0AD10A600A614A6111
:101E10008A61CA610A6852085200521C0A6000E0D6
:101E20000120704770B504460D4601206070207097
:101E3000B420005940084000401CB42108518C22B5
:101E40001359902212599B18942212599B189822C8
:101E500012599B189C2212599B18A02212599918AA
:101E6000AC221059FEF7AEF9FF21653109594843FC
:101E7000810AFF2079300151FF22013212590346B5
:101E80001B595A431046FF2209321159FEF79AF99D
:101E9000296B484306469320800001593046FEF7DF
:101EA00091F9E4210851E4200159FF200130005943
:101EB000814204D9FF2001300159E4200151FF2063
:101EC000793001592046FF30393001F06EF9E420B5
:101ED00001592046FF30993001F097F8E42001596C
:101EE0002046FF30D13001F090F8E4200159412024
:101EF000C000201801F089F8E42001592046B830CC
:101F000001F053F9FF20793001592018FFF77FFACB
:101F1000E4200159D4200151E4200159D820015175
:101F2000E4200159DC200151E4200159E020015155
:101F3000FC200159E8200151E0200059E82109590D
:101F40004843010BE420015170BD70B504460D46B5
:101F5000A1686068884204D9A1686068401A60621C
:101F600005E0A168206B401A616840186062207823
:101F7000C007C00F002806D1206B606220684008AF
:101F80004000401C20606068A060E1692162A16996
:101F9000E1616169A16121696161E1682161606A52
:101FA000E060E1682069091860690918A0690918EA
:101FB000E0690918206A0818A062A16AE06AFEF7C1
:101FC00001F9FF21653149594843810AFF207930E1
:101FD00041512818FFF70AFA132040014059401CCC
:101FE00013214901485170BD016849084900016049
:101FF00000218160C1600022026142618261C26190
:1020000002624162704710B50446207800280CD067
:10201000E02000599721890009594843010BFF200E
:10202000893001512018FFF7E1F910BD10B50446C1
:1020300000206070012020707D20015D7C20015512
:10204000FF2039300159201801F0AFF80021204657
:10205000FF306930FFF7DBF900212046FF3079308F
:10206000FFF7D5F900212046FF308930FFF7CFF97F
:1020700000212046FF30993000F0C7FF00212046A4
:10208000FF30D13000F0C1FF00214120C0002018F6
:1020900000F0BBFF201DFFF731FD20462430FFF785
:1020A00081FD20465030FFF705FC20467830FFF7D1
:1020B00024FD20468030FFF797FF2046B43000F023
:1020C000C8F821462046FF30213000F09BF900215E
:1020D000092080010151002009218901611848600F
:1020E0000921890161188860002193208000015135
:1020F000952080000151001D0151001D015110BDAE
:1021000070B5044600256168A0684018A060E068CA
:10211000401CE060A169E068884217D1E168A068CE
:10212000FEF750F8A0602169A068884203D8616971
:10213000A068884205D2042120688843001D2060E1
:1021400004E0022120688843801C206020788007FA
:10215000C00F002805D020684008400020600125FD
:1021600009E020784007C00F002804D0206840080C
:10217000400020600225284670BD014600200A78F4
:10218000D207D20F002A08D10A60CA608A600A68A2
:1021900052085200521C0A6000E00120704770B5DE
:1021A0000446E56C206AA84200D2256A606AA8420B
:1021B00000D2656AA06AA84200D2A56AA560201D67
:1021C00000F0CEFFA069E0622078C007C00F0028B1
:1021D0001DD1A16BE06A884235D9636CA26B5A436A
:1021E0001046E16AFDF7EEFF6063616C606B884248
:1021F00001D9606C6063A16C606B884223D8206851
:1022000040084000401C2060A06C60631BE0E16B54
:10221000E06A884217D2A36CE26B5A431046E16A27
:10222000FDF7D0FF6063616C606B884205D3206866
:10223000400840002060606C6063A16C606B884265
:1022400001D2A06C6063616BE06A4843000B2063BD
:1022500070BD0021016000228261416C41637047C2
:10226000F0B502460024D069030001F046FE0604E2
:102270000A10070D13160320D0610FE00120D06172
:102280000CE00420D06109E00220D06106E00520C6
:10229000D06103E00620D06100E000BF00BFD0693C
:1022A000062849D1908885B2002301200AE08600E3
:1022B000171DBE59AE4203D903468600BE5BB5B2B8
:1022C000461CF0B20628F2D358001C4E86197C201A
:1022D000405C365C7E20465404261068B043106093
:1022E00002261068B043801C1060002010E08600B9
:1022F000171DBE59576ABE4208D202271668BE4350
:10230000166004271668BE43361D1660461CF0B2E0
:102310000628ECD310684008400010601078800751
:10232000C00F002801D0012405E010784007C00F3D
:10233000002800D0022400BF2046F0BD6A03002020
:10234000014600200A78D207D20F002A07D10A607E
:10235000CA610A6852085200521C0A6000E001205B
:102360007047F0B502460025002300248C20435816
:102370004458012015E087000E468C36F6599E42DF
:1023800003D287000E468C36F35987000E468C36F2
:10239000F659A64203D987000E468C36F459461CDE
:1023A000F0B20628E7DBA60150695843864200D206
:1023B0000125132040014058D668B04219D1506819
:1023C000401C50609068401C906016695068B04294
:1023D00002D9002050600125906864280CD90020A3
:1023E00090600026FF207D304650001D465002259B
:1023F00002E0002050609060132040014058D060FF
:102400002846F0BD0022026042608260C260002364
:10241000132252015350704770B504462079C0070B
:10242000C00F002852D020465C30FFF701FB012886
:1024300029D149200006C16B2166294801686166DF
:102440004168A16620465C30FFF7B4FA002804D04A
:1024500001280CD0022814D10EE080210A59FF2156
:10246000E13109594A43100BFFF7F8F80AE0FFF78A
:10247000E1F80420207005E0FFF7DCF80020207070
:1024800000E000BF2BE0FF21E1310859FFF7F0F930
:1024900080210A59FF21E13109594A43100BFFF706
:1024A000C1F880200159FF20E130005941430D0B54
:1024B0000C4845638563C563FF21123101F038F98B
:1024C0000949084801F0A7F800BF08E0FF21E931F9
:1024D0000859FFF7CDF9FFF7ADF80020207070BD67
:1024E00040000049003401404404000010B5044697
:1024F0002079C007C00F00280FD0FF21E93108590B
:10250000FFF7B6F9FFF796F8B420005940084000ED
:10251000B42108510020207023E02046B430FFF79A
:10252000D9FA01280FD1D4200059012809D1D0218E
:102530000A59FF21E93109594A43100BFFF78EF878
:1025400001E0FFF777F8B420005B8007C00F002898
:1025500007D0B420005940084000B42108510020A1
:10256000207010BD10B50446A068002803D0606834
:1025700040084000606020788000024A11582046E0
:10258000884710BD8403002070B504462079C00739
:10259000C00F00286AD020462830FFF72FFC012802
:1025A0005FD1FF206930005D002809D14920000675
:1025B000C16BE1623248016821634168616308E0F0
:1025C00049200006C16BE1622D4841682163016822
:1025D000616300BF01208007416AFF207130015113
:1025E0002246EC321146803120462830FFF75EFB50
:1025F000002804D0012812D0022830D12CE000BFDE
:102600002048406A05468120800000594119FF207A
:10261000E1300059814201D2FEF7FAFF20E0214665
:1026200028312046EC30FFF7FDFBFF21E931085946
:10263000FFF71EF9FF226B32125DD200124BD31846
:10264000FF226932125D92009958FF22D13210594F
:1026500088470520207003E00320207000E000BFC1
:102660000DE0FEF7E7FFFEF7D3FF08E0FF21E931B9
:102670000859FFF7FDF8FEF7DDFF0020207070BD60
:102680004000004900340140DC03002070B50446DE
:102690002079C007C00F002847D00320000220186F
:1026A000006D032804D30421A0688843001DA060A6
:1026B00020460C30FFF761FD012831D120488168A8
:1026C000216120460C30FFF71BFD002804D00128B3
:1026D00012D0022822D119E000BF1A48406A0546EC
:1026E0008120800000594119FF20E13000598142CA
:1026F00001D2FEF78DFF12E02046EC30FF30FF30B4
:102700000230616981650220207008E0A0684008FD
:102710004000401CA0600020207000E000BF0DE0E1
:10272000FEF788FFFEF774FF08E0FF21E931085942
:10273000FFF79EF8FEF77EFF0020207070BD0000BE
:10274000400000490034014010B50446FEF760FF28
:1027500010BD000010B504462079C007C00F002846
:102760007ED0FEF767FFB0221359FF22E1321259E3
:10277000534318462246EC32FF32FF320232D16C0C
:10278000FDF720FDAC2109594843010BA42001515C
:1027900020468430FFF7D4FD01284CD138488168A9
:1027A000A020005982002046883081502146EC311B
:1027B000001FFFF755FD002804D0012810D0022883
:1027C00037D12EE0A0221259D2002E4BD318FF226F
:1027D0006932125D92009958A4221059884729E065
:1027E000FF21FD310859FEF71DFF00BF01212648DA
:1027F00000F05AFF1021244800F056FFFF2101315C
:10280000214800F051FF012109031F4800F04CFF4F
:1028100000BFFF21E5310859FFF72AF80520207095
:1028200008E01021A06888431030A06000202070CC
:1028300000E000BF22E0A4210A5901214902095900
:102840004B00C918501AFEF7EDFEA0221259D20013
:102850000C4BD318FF226932125D9200995800E0A8
:1028600003E0A4221059884708E0FF21E931085904
:10287000FEF7FEFFFEF7DEFE0020207010BD000018
:1028800040000049AC0300200034014010B504466C
:102890002079C007C00F00281FD000BF01211048B9
:1028A00000F092FF10210E4800F08EFFFF21013151
:1028B0000B4800F089FF01210903094800F084FF5B
:1028C00000BFFF21E1310859FEF7D2FF2046EC306E
:1028D000FFF7ACFB0120207001E0FEF7ABFE10BD5E
:1028E0000034014070B504462079C007C00F0028AD
:1028F00073D0FF206930005D002817D14920000601
:10290000C16B2046EC30FF30FF30023001647B4861
:1029100001682046EC300922920180184160774816
:1029200041682046EC308018816016E0492000069E
:10293000C16B2046EC30FF30FF30023001646F483D
:1029400041682046EC3009229201801841606B48B2
:1029500001682046EC308018816068488168204614
:10296000EC30FF30FF30023041652046EC30FF3064
:10297000FF300230416D2046EC30FF30FF30023036
:10298000806D814218DD2046EC30FF30FF30023090
:10299000416D2046EC30FF30FF300230806D091A67
:1029A000932080000059414389122046EC30FF30CB
:1029B000FF300230C16506E000212046EC30FF30D8
:1029C000FF300230C165EC20005D002806D12146B1
:1029D000EC31081DFFF796F80BE085E0EC20005D78
:1029E000012806D1ED20005D8000454A115820469F
:1029F00088472046EC30FFF706FB00BF4148456A98
:102A000000BF401500594119FF20D13000598142C3
:102A10000BD28120800000594119FF20D530005988
:102A2000814202D2FEF7F4FD5DE02046EC30FF303B
:102A3000FF300230C16D9520800001512046EC30FE
:102A4000FF306930FEF7D2FC8F208000015920460C
:102A5000EC30FF30813081612046EC30FF3069304E
:102A600041682046EC30FF30993041602046EC3020
:102A7000FF30993000F07CFA2046EC30FF3099307E
:102A8000016AFF20C93001512046FF30A130FFF715
:102A900086FBFF21D5310859FEF7EAFEFF226B3293
:102AA000125DD200184BD318FF226932125D9200DA
:102AB0009958FF22D132105988470320000220186C
:102AC000416D2046EC30FF30FF300230C06D814256
:102AD00009DA2046EC30FF30FF300230C06D0321B0
:102AE00009026118486508E0FF21E9310859FEF73D
:102AF000BFFEFEF79FFD0620207070BD400000491C
:102B0000A003002000340140DC03002010B504467F
:102B1000FEF790FD032000022018006D401C0321E9
:102B20000902611808650221A0688843801CA06022
:102B300010BD10B50446207805287ED12079800785
:102B4000C00F00283DD0FF20F5300159001D00596D
:102B5000091AFF20BD3000594143FF20F9300059C8
:102B600080030818810B2046EC30FF30393041607B
:102B70002046EC30FF30393000F0F2FA2046EC30DD
:102B8000FF30393041692046EC30FF30813001653B
:102B90002046EC30FF30793041682046EC30FF3081
:102BA000D13041602046EC30FF30D13000F0E0F908
:102BB0002046EC30FF30D130016AFF20C130015196
:102BC00012E0FF20ED300159001D0059091AFF20C5
:102BD000BD3000594143FF20F130005980030818EF
:102BE000810BFF20C130015120794007C00F002820
:102BF00024D00920800101592046EC30FF30FF30FD
:102C0000023081602046EC30FF3089304168204638
:102C1000EC304122D200801841602046EC30114651
:102C2000401800F0A5F92046EC304121C9004018B9
:102C3000016AFF20C53001513BE049E020790007DF
:102C4000C00F00282FD0092080010159001D005914
:102C5000414389132046EC30FF30FF300230816061
:102C60002046EC30FF30893041682046EC30FF30A0
:102C7000FF300230006D414389132046EC30412281
:102C8000D200801841602046EC301146401800F018
:102C90006FF92046EC304121C9004018016AFF203D
:102CA000C530015105E0FF20ED300159FF20C5304E
:102CB00001512146EC310846FF302130FFF751FB2E
:102CC00001280CD10821A06888430830A06006E0E4
:102CD0002078062803D12046B430FEF7BBFE10BD95
:102CE00010B504462146EC3108465030FEF7E6FDAB
:102CF000EC20005D022815D100BF4007416AFF208B
:102D0000713001512146EC3108468030FFF71DF942
:102D1000FF2159310A59FF21953109594A43900A37
:102D2000FEF7AEFD10BD704710B5044620780528AB
:102D30002DD1EC20005D02281FD1FEF7AFFD03214D
:102D4000EC200155FF206B30005D1249095CFF202B
:102D50006B3001550246125DD2000F4BD318821E14
:102D6000125D92009958FF22D132105988474121B3
:102D7000C9000859FEF784FD0BE0EC20005D032834
:102D800007D1FEF78BFD0021EC20015501E0FEF795
:102D900085FD10BD7C030020DC03002010B5044637
:102DA0002146EC3108462430FEF700FFEC20005DA0
:102DB000022810D100BF4007416AFF207130015145
:102DC0002146EC3108468030FFF7BFF84121C900A9
:102DD0000859FEF755FD10BDC16802229143C1603C
:102DE0007047C16849084900C1607047C1688908D7
:102DF0008900491CC160704704498968FF2201327B
:102E000091430143014A9160704700000003014073
:102E1000044989680122520791430143014A9160A4
:102E2000704700000003014070B505460C4600BF26
:102E30002868C00F002849D16068042847D1A069DC
:102E4000002804D001280DD0022828D11CE000BFA2
:102E5000E86880088000801CE86000BF2846FFF713
:102E6000C0FF1CE02846FFF7B7FF2846FFF7BEFF6C
:102E70000820E968082291430143E96000BF00216E
:102E8000284600F063F80AE02846FFF7A5FF284629
:102E9000FFF7ACFF0421284600F058F800BF00BF40
:102EA000616820680843A16808432968244A1140E2
:102EB000084328602348854241D1E06800F04CF87F
:102EC0002069FFF799FF6069FFF7A2FF37E06068AC
:102ED0000C281AD12846FFF77FFF2846FFF781FF0D
:102EE000A168606808432968174A114008432860B0
:102EF0001448854223D1E06800F02EF82069FFF7DE
:102F00007BFF6069FFF784FF19E02846FFF764FF45
:102F10002846FFF766FFA1686068084329680A4AE7
:102F20001140084328600748854208D1E06800F056
:102F300013F82069FFF760FF6069FFF769FF70BD54
:102F4000F33FF9FF08030140F3FFF9FFC2680423D0
:102F50009A430A43C26070470449896801225202B9
:102F600091430143014A9160704700000003014012
:102F700010B543680268D11A036BCB1A82685A43B2
:102F8000C3684B43D318426B5218046B6400121B86
:102F9000046962439A184261836942699A4201DA7C
:102FA000426900E08269C3699A4207DD8369426928
:102FB0009A4201DA426902E0826900E0C269426134
:102FC0004369426AD2184262836A9B03426A9A4208
:102FD00001DA426A01E0826A9203C36A9B039A4261
:102FE00009DD836A9B03426A9A4201DA426A04E07D
:102FF000826A920301E0C26A92034262426A9213B9
:103000000262026B4263016310BD002202604260F3
:1030100042610263426301628A03426270470000B8
:10302000024949690143014A516170470010024059
:103030000249C9690143014AD16170470010024049
:10304000024989690143014A9161704700100240B9
:1030500010B500F069F804494968F02211400909E7
:10306000024A515CC84010BD001002405C4000089C
:1030700010B5FFF7EDFF054949680722120211401C
:10308000090A034A515CC84010BD0000001002400C
:103090006C40000810B5FFF7DBFF054949680722BF
:1030A000D2021140C90A034A515CC84010BD000059
:1030B000001002406C40000800201549154A526873
:1030C00007239B041A40920C002A07D1114A526828
:1030D0001A40920C0A324A43104618E00D4A5268D0
:1030E00007239B041A40920C012A07D1094A52680F
:1030F0001A40920C0B324A43104608E0054A5268C7
:1031000007239B041A40920C0C324A431046704726
:1031100000127A0000100240024840680C2108406A
:10312000704700000010024070B500247D252D027C
:103130000A4EFFF7F1FF002804D0082806D00C281B
:1031400002D000BF344605E02C4603E0FFF7B4FF91
:10315000044600BF00BF204670BD00000024F400FC
:103160004268910202698A420BDA83680269D218C6
:103170008A4204DA83680269D218026111E00161AF
:103180000FE002698A420BDDC3680269D2188A42E5
:1031900004DDC3680269D218026102E0016100E047
:1031A000016102699212426170478A0202614161C3
:1031B0007047000010B502461B481C495378002B8D
:1031C0002ED0137A1B07DB0F002B0FD1D36D0468B1
:1031D000A34208D383685B1C83604468A34207D37F
:1031E0000023836004E00023836001E00023836008
:1031F000137ADB06DB0F002B0FD1D36D0C68A342D3
:1032000008D88B685B1C8B604C68A3420BD30023EF
:103210008B6008E000238B6005E000238B6002E0F8
:10322000002383608B6010BD5C04002068040020D4
:1032300010B50C4C601E0C49884201D901200CE0ED
:10324000601E0A4948610321081F00F071FE00203A
:1032500006498861072008610020002801D000BFCE
:10326000FEE710BD80320200FFFFFF0000E000E03B
:1032700010B5054800F076F9034800F0A1F80348BE
:10328000FFF757FC10BD0000740400200000002070
:103290002448006801210843224908600846406824
:1032A000214908401F494860084600681F490840F6
:1032B0001C490860084600680121890488431949AF
:1032C0000860084640687F21090488431549486022
:1032D0009F20000488600120000649690143114ACB
:1032E000516100BF12480069032189040843104955
:1032F00008610F4840304069022108430C494031C1
:10330000486100BF0A484030406902210840022855
:10331000F8D0C805034949698143024A516100BF99
:1033200070470000001002400000FFF8FFFFF6FEAB
:103330004000004910B504462079C007C00F00289E
:103340001BD021460D48FDF727FF0D4800F07AFD00
:103350000B48FDF795FF0A48FFF72CFF084800F0DF
:1033600069FB0748FEF722F800BF064806490860D7
:1033700000BF606840084000606010BD0C04002081
:1033800074040020AAAA00000030004070B5044672
:1033900000250A48C56AE560456BE562056BE56195
:1033A00020460C30FEF722F820462C30FEF71EF89F
:1033B00020461C30FEF71AF870BD0000400000499E
:1033C00070B504462046FFF7E1FF00BF5349486D42
:1033D0000021524A516500BF20652169606E484353
:1033E0008012606500BF10469C3840687D2149010D
:1033F00048438013E065206A206601200021421CBA
:10340000002A00D10121464A517700BF2069434973
:103410001439C864FF390139C96D41438A123F49E3
:1034200014390A6500BFA56D642D00DA64252946AC
:10343000643988033B49FCF7CFFE014638485430D5
:10344000C16100BF00BFFF38A1388068002804D0E8
:10345000A06840084000401CA0606078002806D0AA
:10346000012818D0022824D003283DD12FE0E06E97
:10347000401CE066A16E88420CD37D214901E06CBE
:1034800048438013A0650020E066204600F04EF817
:103490000120607029E0A068002802D0032060703D
:1034A00006E020798007C00F002801D0022060705C
:1034B0001BE0A068002802D00320607006E020799D
:1034C0008007C00F002801D1012060700DE0207935
:1034D0008007C00F002806D1A06000BF1249886095
:1034E00000BF0120607000E000BF00BF60780228CC
:1034F00009D100BF0C48406840084000401C0A4900
:10350000486000BF08E000BF07484068400840002E
:103510000549486000BF00BF70BD000000030020E7
:103520004C0100203C0F00000000002070B5044654
:1035300000250B48C56A294620460C30FDF767FF79
:103540000748456B294620462C30FDF760FF0448AC
:10355000056B294620461C30FDF759FF70BD000061
:10356000400000490178491CC9B201700A2911D3F1
:10357000002101700179C907C90F002905D14168EF
:1035800049084900491C416004E0022281689143D6
:10359000891C81607047000010B50221064800F0C8
:1035A00057F9002806D00221034800F031F80348FB
:1035B000FFF7BAFB10BD000000040040000000202F
:1035C00010B58021064800F043F9002806D080217C
:1035D000034800F01DF80348FFF798FA10BD0000FB
:1035E000003401400000002010B51021064800F012
:1035F0002FF9002806D01021034800F009F80348ED
:10360000FFF7A2F810BD00000034014000000020C8
:10361000CA4302617047026A8A430262704700002F
:1036200070B50246012901D100242AE0042901D104
:10363000012426E0102901D1022422E0402901D1F1
:1036400003241EE0FF240134A14201D1042418E028
:103650000124A402A14201D1052412E00124240383
:10366000A14201D106240CE00124A403A14201D10E
:10367000072406E001242404A14201D1082400E02B
:1036800009242346064CE55C1446183428190468BE
:10369000044DEE5C0825B540AC43046070BD0000ED
:1036A000A6400008B040000870B50246012901D1CB
:1036B00000242AE0042901D1012426E0102901D1A7
:1036C000022422E0402901D103241EE0FF2401341A
:1036D000A14201D1042418E00124A402A14201D195
:1036E000052412E001242403A14201D106240CE0A8
:1036F0000124A403A14201D1072406E001242404EB
:10370000A14201D1082400E009242346064CE55CCF
:103710001446183428190468044DEE5C0825B54099
:10372000AC43046070BD0000D8400008E2400008CF
:10373000026A0A4302627047C2680A43C260704765
:1037400070B50246012901D100242AE0042901D1E3
:10375000012426E0102901D1022422E0402901D1D0
:1037600003241EE0FF240134A14201D1042418E007
:103770000124A402A14201D1052412E00124240362
:10378000A14201D106240CE00124A403A14201D1ED
:10379000072406E001242404A14201D1082400E00A
:1037A00009242346064CE55C14461834281904689D
:1037B000044DEE5C0825B5402C43046070BD00004C
:1037C000744000087E40000870B50246012901D10E
:1037D00000242AE0042901D1012426E0102901D186
:1037E000022422E0402901D103241EE0FF240134F9
:1037F000A14201D1042418E00124A402A14201D174
:10380000052412E001242403A14201D106240CE086
:103810000124A403A14201D1072406E001242404C9
:10382000A14201D1082400E009242346064CE55CAE
:103830001446183428190468044DEE5C0825B54078
:103840002C43046070BD0000D8400008E24000082E
:10385000024610690840884201D1012070470020CB
:10386000FCE7FFB581B00646144630466030029949
:103870004018009020461F220146400805E04900FC
:10388000C307DB0F1943521E40080028F7D10D462D
:10389000954029460D46284600F012FBC106C90E88
:1038A00001204002884000990F68874320461F226C
:1038B0000146400805E04900C307DB0F1943521ECB
:1038C00040080028F7D10D46954029460D46284668
:1038D00000F0F6FAC106C90E049888400743009824
:1038E000076005B0F0BD0000F0B50346144601299D
:1038F00001D100252AE0042901D1012526E0102963
:1039000001D1022522E0402901D103251EE0FF2537
:103910000135A94201D1042518E00125AD02A942D3
:1039200001D1052512E001252D03A94201D106256B
:103930000CE00125AD03A94201D1072506E00125D0
:103940002D04A94201D1082500E009252846094D8A
:103950002E5C1D46183572191568074E375C074EE8
:10396000BE40B543044E365C2746B7403D43156024
:10397000F0BD0000744000087E40000873000100A4
:1039800070B5012901D100242AE0042901D10124C4
:1039900026E0102901D1022422E0402901D103248C
:1039A0001EE0FF240134A14201D1042418E00124C7
:1039B000A402A14201D1052412E001242403A14262
:1039C00001D106240CE00124A403A14201D1072463
:1039D00006E001242404A14201D1082400E00924C6
:1039E0002346046A054DEE5C0225B540AC43034D09
:1039F000EE5C1546B5402C43046270BD9240000851
:103A000010B50022026870241346A3431A464B687F
:103A10001A43032424021346A3431A46CB681A43CD
:103A200002608B68C3620B8883620B6903630123A6
:103A3000436110BD10B502461B481C495378002B4A
:103A40002ED0137A1B06DB0F002B0FD1136E0468E8
:103A5000A34208D383685B1C83604468A34207D3F6
:103A60000023836004E00023836001E0002383607F
:103A70001389DB05DB0F002B0FD1136E0C68A342FB
:103A800008D88B685B1C8B604C68A3420BD3002367
:103A90008B6008E000238B6005E000238B6002E070
:103AA000002383608B6010BDE4040020F00400203C
:103AB00010B50C490C4800F006F9012804D1094959
:103AC000094800F07DF80BE006496031064800F037
:103AD000FAF8012804D103492031034800F070F8B6
:103AE00010BD0000200000100038014010B50C4946
:103AF0000C4800F0E8F8012804D10949094800F011
:103B00005FF80BE006492031064800F0DCF8012898
:103B100004D103492031034800F052F810BD0000E1
:103B2000200000100044004008B5244A914201D111
:103B3000012200E00022214B5B1C994201D10123AC
:103B400000E000231A431D4BDB1C994201D10123E5
:103B500000E000231A43194BDB1D994201D10123D8
:103B600000E000231A43154B0F33994201D1012382
:103B700000E000231A43002A06D00268009200BF2A
:103B80004268009200BF17E0012212070A40012399
:103B90001B079A4204D10A011209D24302600BE0CA
:103BA000012252070A4001235B079A4204D1C268EE
:103BB000CB00DB089A43C26008BD00000100001082
:103BC00008B5244A914201D1012200E00022214B94
:103BD0005B1C994201D1012300E000231A431D4BD5
:103BE000DB1C994201D1012300E000231A43194B49
:103BF000DB1D994201D1012300E000231A43154B3C
:103C00000F33994201D1012300E000231A43002A17
:103C100006D00268009200BF4268009200BF17E021
:103C2000012212070A4001231B079A4204D10A010C
:103C30001209D24302600BE0012252070A4001231D
:103C40005B079A4204D1C268CB00DB089A43C2608A
:103C500008BD000001000010C16804229143C1604A
:103C60007047C16808229143C1607047C168012252
:103C700052031143C1607047012212070A40012319
:103C80001B079A4205D1C2680B011B091A43C26087
:103C900018E0012252070A4001235B079A4205D12E
:103CA0000269CB00DB081A4302610BE00122920794
:103CB0000A4001239B079A4204D142698B009B086A
:103CC0001A43426170470246012000070840012361
:103CD0001B0798420BD110680B011B0918400B0100
:103CE0001B09984201D1012070470020FCE7012008
:103CF0004007084001235B0798420BD1D068CB00F6
:103D0000DB081840CB00DB08984201D10120EBE72B
:103D10000020E9E70020E7E77FB504460D460026CE
:103D200000200090019002900390FFF7FDF90090B1
:103D3000FFF78EF90190FFF79BF90290FFF7AAF9C0
:103D4000039000BFE068012149030840400B0028B0
:103D500024D1E9686868084329690843E168104A82
:103D600011400843E060A8682169032212039143CF
:103D70000143216100BF0B48844201D1039E03E04F
:103D80000948844200D1029E002E07D028680028EE
:103D900004D0314620462A6800F008F87FBD0000B4
:103DA000F3E9FFFF0038014000440040F7B582B05E
:103DB0000C461546A900192262431046FCF702FA88
:103DC00006466421FCF7FEF90701A90019226243A7
:103DD0001046FCF7F7F90646A9001922624310467F
:103DE000FCF7F0F964210090FCF7ECF964214843FA
:103DF000301A000132300190FCF7E4F9F02108405C
:103E00003F18A900192262431046FCF7DBF9064669
:103E1000A900192262431046FCF7D4F964210090EE
:103E2000FCF7D0F964214843301A00013230019088
:103E3000FCF7C8F90007000F381881B202988160BA
:103E400005B0F0BD10B502461B481C495378002B45
:103E50002ED0137A9B06DB0F002B0FD1536D046815
:103E6000A34208D383685B1C83604468A34207D3E2
:103E70000023836004E00023836001E0002383606B
:103E8000137A5B06DB0F002B0FD1536D0C68A34236
:103E900008D88B685B1C8B604C68A3420BD3002353
:103EA0008B6008E000238B6005E000238B6002E05C
:103EB000002383608B6010BDFC04002008050020F7
:103EC00002462023110C002901D0103B0A46110A9A
:103ED000002901D0083B0A461109002901D01B1F07
:103EE0000A469108002901D09B1E0A465108002964
:103EF00001D0981E7047981AFCE730B47446641ECF
:103F00002578641CAB4204D3635D5B00E31830BCCE
:103F100018471D46F8E70000002805DBC206D20E50
:103F200001219140014A11607047000000E100E06A
:103F300010B5002819DB1A4A03231B02D218830884
:103F40009B00D2588307DC0EFF23A3409A438B07C4
:103F50001B0E8407E40EA3401A43114B03242402D2
:103F60001B198408A4001A5118E00E4A03071B0FFE
:103F7000083B9B089B00D2588307DC0EFF23A3401D
:103F80009A438B071B0E8407E40EA3401A43054B8C
:103F90000407240F083CA408A4001A5110BD000017
:103FA00000E100E01CED00E010B5002819DB1A4A22
:103FB00003231B02D21883089B00D2588307DC0E10
:103FC000FF23A3409A438B071B0E8407E40EA340F4
:103FD0001A43114B032424021B198408A4001A510C
:103FE00018E00E4A03071B0F083B9B089B00D258A2
:103FF0008307DC0EFF23A3409A438B071B0E840725
:10400000E40EA3401A43054B0407240F083CA40800
:10401000A4001A5110BD000000E100E01CED00E01A
:1040200072B6FCF7EBFCFCF7B5FDFCF731FCFCF7D6
:10403000EBFEFCF7C3FEFCF783FDFCF7DBFFFCF7B0
:1040400089FEFDF715F8FDF769F862B600BF024872
:10405000FFF770F9FBE70000740400200000000087
:104060000000000001020304060708090000000028
:1040700001020304000000000404040438380000B6
:104080000800000008000008000008000000080008
:10409000000000020406080A0C0E101400010203BE
:1040A00004050607080A0000000004040404383868
:1040B00000000800000008000008000008000000E0
:1040C0000800000000020406080A0C0E101400018B
:1040D000020304050607080A0000000004040404A3
:1040E0003838000008000000080000080000080040
:1040F00000000800000000020406080A0C0E10145C
:104100000001020304050607080A00002C4100080C
:10411000000000201405000088030008B8420008D1
:104120001405002004050000040100084102170ED8
:1041300023340323A4010223143296292832021ABD
:10414000E8380B1C38052C320A338813022608295C
:1041500054292C69581A331023660614AE470105FA
:104160001452B8FEFF726442C8021A1032335A0D5C
:10417000BC011832256A1B24194C29EC011829248A
:10418000322A0B1CCC0C28011C1440420F1AFF01D0
:104190004172CC091AEC01101A66852366061B8051
:1041A000BB0419BD1BC012E85A0F4C2240239901D1
:1041B00032F0690402130A23D007321F292C091296
:1041C000801A69E023A7041BC929F44A2004E3C22A
:1041D000F5F219091A105AA3048114C2F5287C3E7D
:1041E0000AD77079C0F1299F5A1008092A38093670
:1041F0007001251302011A01042C0201020B1A029C
:104200000D13050315040105021D030104050F2B01
:104210000304043205138D2814088D2614088925FB
:1042200014081924140855271B08E5141AED0C135B
:104230009D2D1408E12C1B0827084BA917041321F6
:10424000181B08D1081AF9041A490C1A8108290404
:10425000290C2914291C29241385165B08AD04296F
:104260000C1A05181A59041AD90C1A3108290429EC
:104270000C2914291C3264323223D80E42C8021A87
:1042800040238B2E720A234D36293C41230F3E7367
:10429000E8037B900118118A042401180A3D1910C3
:1042A000C18B0220882908697C8BDC050C8BC0300F
:0842B000C48B69110C00000031
:04000005080000C12E
:00000001FF
