:020000040800F2
:10000000200B0020A5070008AF070008B107000873
:1000100000000000000000000000000000000000E0
:10002000000000000000000000000000B30700080E
:100030000000000000000000B50700089937000824
:1000400000000000B9070008B9070008B907000858
:10005000B9070008B9070008B90700080000000048
:100060000000000000000000000000000000000090
:10007000250D0008ED3A0008153B0008B9070008F7
:10008000C53A0008B9070008B907000800000000D9
:10009000B9070008B9070008B9070008B907000840
:1000A00000000000B907000800000000C13D000882
:1000B000053E0008000000000000000000000000F5
:1000C00000F002F800F030F80CA030C8083824180E
:1000D0002D18A246671EAB4654465D46AC4201D180
:1000E00000F022F87E460F3E0FCCB6460126334282
:1000F00000D0FB1AA246AB4633431847E84600003F
:10010000084700000023002400250026103A01D3F0
:1001100078C1FBD8520700D330C100D50B607047BF
:100120001FB51FBD10B510BD00F027FD1146FFF72C
:10013000F7FF04F09BFA00F03FFD03B4FFF7F2FF76
:1001400003BC00F041FD000070B50446A068002823
:1001500001D0002060602078030004F078FA0705E1
:100160001146ADFEFDFCFB00FE4801F06FFF01F003
:1001700059FF2046E43002F036FD0120207009E3EB
:100180002079C007C00F00282ED020460C3002F086
:10019000EAFD012824D1F4488168216120460C3011
:1001A00002F0A4FD002804D0012805D0022815D1B2
:1001B0000CE001F04CFE12E02046E4300522D201B2
:1001C00080186169C1640220207008E00221A068E3
:1001D0008843801CA0600020207000E000BF03E086
:1001E00001F020FF01F033FED4E22079C007C00FF8
:1001F00000285ED02046283002F0ACFB012853D105
:10020000FF20A530005D002809D149200006C16B00
:10021000E162D548016821634168616308E04920D3
:100220000006C16BE162D0484168216301686163E7
:1002300001F020FE0146FF20AD3001512246E4329C
:100240001146C4312046283002F0DCFA002804D0E0
:10025000012805D0022825D121E001F0F8FD22E097
:10026000214628312046E43002F088FB4B208001F3
:1002700001F0ECFEFF22A732125DD200BB4BD31877
:10028000FF22A532125D92009958852292001059E2
:1002900088470A2001F0BEFF0520207003E00320FC
:1002A000207000E000BF06E001F0BCFE01F0CFFDD1
:1002B00001E0002020706DE22079C007C00F002807
:1002C0004FD020465C3002F07DF8012827D149202C
:1002D0000006C16B2166A448016861664168A16699
:1002E00020465C3002F030F8002804D001280AD003
:1002F000022812D10CE0802109599A4A5143080B77
:1003000001F0F6FE0AE001F08DFE0420207005E009
:1003100001F088FE0020207000E000BF23E091483B
:1003200001F094FE802000598E494843050B904807
:1003300045638563C563FF21123103F006FC8D49D7
:100340008B4803F0FEFB00BF80210959854A5143C9
:10035000080B03E01DE2E2E171E005E001F082FD3F
:1003600001E00020207015E22079C007C00F0028AE
:1003700062D001F057FE2246E4320523DB01D21899
:10038000516CB0221259774B5A43104600F048FA8C
:10039000AC2109594843010BA42001512046843067
:1003A00002F0DEFD012837D16F488168A020005996
:1003B00082002046883081502146E431001F02F03F
:1003C00055FD002804D0012810D0022822D117E0C2
:1003D000A0221259D200654BD318FF22A532125D1C
:1003E00092009958A4221059884714E04B20C0016C
:1003F00001F02CFEF02001F035FD052020700AE010
:100400001021A06888431030A06001F00BFE00208E
:10041000207000E000BF11E0A4221059FF22A53295
:10042000125D9200514B99588847A42109590846FA
:10043000F03801F017FD01E000202070AAE12079DA
:10044000C007C00F002879D0FF20A530005D00282C
:1004500017D149200006C16B2046E4300522D201A5
:1004600080188163404801682046E4305722D2005A
:10047000801841603C4841682046E4308018816023
:1004800016E049200006C16B2046E4300522D20167
:1004900080188163344841682046E4305722D200F6
:1004A00080184160304801682046E430801881603F
:1004B0002D4881682046E4300522D20180188164ED
:1004C0002046E43011464018816C2046E430801804
:1004D000C06C814212DD2046E43011464018816C28
:1004E0002046E4308018C06C081A01034018400010
:1004F000810A2046E4308018016506E0002120468C
:10050000E4300522D20180180165E420005D002856
:1005100005D12146E431081D02F076F87DE0E420A3
:10052000005D012879D1E520005D002807D0012871
:100530002DD0022848D003286DD16BE0E6E021469B
:10054000E4310846283001F0AFFFE420005D0228C6
:100550001CD101F08FFC0146FF20AD300151214636
:10056000E43109E080BB000040000049F0040020B5
:1005700000340140440400000846C43002F0B4FADC
:100580000A2001F047FE0421E420015544E0214601
:10059000E43108465C3002F09FF8E420005D022858
:1005A00011D101F067FC0146FF20AD300151214619
:1005B000E4310846C43002F097FA0A2001F02AFE1E
:1005C0000421E420015527E02146E4310846943017
:1005D00001F03EFEE420005D022818D101F04AFC43
:1005E0000146FF20AD3001512146E4310846C430B8
:1005F00002F07AFAFF2195310A59FF21DD310959BC
:100600004A43900901F006FE0421E420015503E06D
:1006100003E000E000E000BF00BF2046E43002F04D
:10062000D0FA00BF5C48406A0146F0318520800066
:10063000005981420CD200BF5748406A0146F03150
:100640004320C0000059814202D201F000FC65E065
:100650002046E4300521C9014018016D2046E430F0
:10066000FF30813081612046E430FF30993001F065
:10067000D7FA2046E430FF30813081682046E430EC
:10068000FF30813081652046E430FF309930416889
:100690002046E430FF30D93041602046E430FF305E
:1006A000D93002F0EDFE2046E430FF30D930016A47
:1006B0008320800001512046FF30E93002F064FBC6
:1006C0004320C0000559691E334803F04FFA00BFAC
:1006D000FF22A732125DD200304BD318FF22A53281
:1006E000125D920099588522920010598847072080
:1006F000C0012018C06B804210DA0720C00120180A
:10070000C06B0721C9016118C86307E001F08AFCCA
:100710004B20800101F09AFC062020703AE02079FD
:10072000C007C00F002802D00220207030E01C4813
:1007300081682046E4300522D20180188164204679
:10074000E43011464018816C2046E4308018C06CBB
:10075000814212DA2046E43011464018C16C20462E
:10076000E4308018806C081A010340184000810AA8
:100770002046E4308018016506E000212046E43080
:100780000522D20180180165CC21085901F0B0FC86
:1007900000E000BF00BF70BD00340140F004002045
:1007A0004000004908490948804709480047FEE7DA
:1007B000FEE7FEE7FEE7FEE7FEE700000548064924
:1007C000044A064B70470000FFFFFFFFB1370008E7
:1007D000C100000820070020200B00202007002077
:1007E00001E004C0091F0429FBD28B0701D5028058
:1007F000801CC90700D00270704700290BD0C307C6
:1008000002D00270401C491E022904D3830702D57E
:100810000280801C891EE3E70022EEE70022DFE76A
:10082000002203098B422CD3030A8B4211D30023ED
:100830009C464EE003460B433CD4002243088B42C7
:1008400031D303098B421CD3030A8B4201D3944654
:100850003FE0C3098B4201D3CB01C01A5241830947
:100860008B4201D38B01C01A524143098B4201D301
:100870004B01C01A524103098B4201D30B01C01A2C
:100880005241C3088B4201D3CB00C01A52418308A6
:100890008B4201D38B00C01A524143088B4201D3D3
:1008A0004B00C01A5241411A00D201465241104633
:1008B00070475DE0CA0F00D04942031000D34042A8
:1008C000534000229C4603098B422DD3030A8B42DE
:1008D00012D3FC22890112BA030A8B420CD389017C
:1008E00092118B4208D3890192118B4204D3890162
:1008F0003AD0921100E08909C3098B4201D3CB01A0
:10090000C01A524183098B4201D38B01C01A524154
:1009100043098B4201D34B01C01A524103098B4258
:1009200001D30B01C01A5241C3088B4201D3CB0043
:10093000C01A524183088B4201D38B00C01A524126
:10094000D9D243088B4201D34B00C01A5241411AFD
:1009500000D20146634652415B10104601D340422B
:10096000002B00D54942704763465B1000D34042DC
:1009700001B50020C046C04602BD704770477047B1
:10098000F0B5FF252D04C609C209FF2704462E40F5
:100990000137CB093E4348402A402B400746002AF6
:1009A0006BD0002B69D0AA4267D0AB4265D000283B
:1009B00000DA32460125ED0529432C4309022002C5
:1009C000090AD21A4B0C7F24E31A434C000A7C44D8
:1009D000E35C7D242404121914145B00A2188842DD
:1009E00001D3521C00E0400049420C465C432411F4
:1009F0005C43DB016415E318040A5C43C502200D67
:100A00000C4644436419250A5D432303EC0C0D4650
:100A1000654300030019EB184C42A34201D35B1855
:100A2000401CD4052018002B07D05B00C91804D344
:100A3000401C002901D1400840003F2189048A421E
:100A400009D3002A08DC1106090F04D00321490745
:100A50004018C00FC007F0BD0122410012068918DE
:100A60007F2252069142F6D205214907C84201D59C
:100A70009010F0BDFF20C005F0BD002F00DA324617
:100A80001648AA4207D2AB4205D21902090E17D066
:100A9000F80FC007F0BDFF2563002D06AB42F9D863
:100AA0004900A942F6D8AB4201D1A942F2D0A942ED
:100AB00001D1002101E061004908D0050843F0BDE3
:100AC0001102090EFBD0FF200243D005F0BD0A46FB
:100AD0000146104654E70000D03D00000000C07FF2
:100AE0000102C21504D00123DB071943002A0ADBE7
:100AF0009E239A1A02D40846D0407047FF22410034
:100B00001206914201D900207047C017C0437047B8
:100B10001F22030C02D10F2200041CD0030E01D1AE
:100B20000002083A030F01D10001121F830F01D107
:100B30008000921E002801DB4000521ED205511891
:100B4000021251181922904004D3491C002801D1E7
:100B50004908490008467047C10FC90700D0404204
:100B6000012292071143D3E701218907D0E7000052
:100B700000487047C006002070477546FFF7F8FF31
:100B8000AE46050069465346C008C000854618B009
:100B900020B5FFF713FE60BC00274908B6460026C3
:100BA000C0C5C0C5C0C5C0C5C0C5C0C5C0C5C0C51D
:100BB000403D49008D46704710B50446C046C046CA
:100BC0002046FFF7BAFA10BD01491820ABBEFEE778
:100BD0002600020070B58C180578401C6B075B0F6F
:100BE00001D10378401C2A1106D10278401C03E091
:100BF0000678401C0E70491C5B1EF9D12B0705D4EA
:100C00000023521E0DD40B70491CFAE70378401CD8
:100C1000CB1A921C03E01D780D70491C5B1C521E00
:100C2000F9D5A142D8D3002070BD02688A43026082
:100C3000704701468868C007C00F012250405040ED
:100C400070470146942040580222104040087047E7
:100C5000014694204058C007C00F01225040504028
:100C600070470000F8B506460D462868070D304667
:100C7000FFF7DFFF00284ED13046FFF7E9FF0028DD
:100C800049D02868B16B0322120591430143B16337
:100C900000BF002434E0002C06D0012C0CD0022C24
:100CA00012D0032C20D117E0E100281D4258012169
:100CB000304600F028F918E0E100281D4258164996
:100CC000304600F020F910E0E100281D4258134999
:100CD000304600F018F908E0E100281D425810499C
:100CE000304600F010F900E000BF00BFE0002B1D0F
:100CF000C0184268E0001958304600F041F9641C01
:100D0000BC42C8DD304600F0F1F800BF3046FFF7C6
:100D100098FF0128FAD0F8BD02110000032200005C
:100D20000433000010B50420492109060968014078
:100D3000814201D1012100E0002100290BD00420D3
:100D4000492109060968814349221206116000BF42
:100D50000148FFF7F9F910BDD000002070B5054635
:100D60000C462068A9681F22D20291430143A96062
:100D700000BF2846616800F0FCF82846A16800F032
:100D80009FF82069696801229202914301436960DA
:100D900000BF2846616900F09AF82846A16900F072
:100DA0009DF8E0696968012212039143014369607B
:100DB00000BF2846216A00F0A0F870BDF8B50646CD
:100DC0000D462868070D3046FFF733FF00283FD156
:100DD0003046FFF73DFF00283AD02868F16A072225
:100DE000120591430143F16200BF002425E0062C67
:100DF0000CDAE0002B1D1A58A000201801235B0319
:100E000018430146304600F01BF90CE0E0002B1DB2
:100E10001A58A01F8300C01801231B031843014662
:100E2000304600F00DF9E0002B1DC0184268E000CC
:100E30001958304600F0A4F8641CBC42D7DD304697
:100E400000F054F800BF3046FFF7FBFE0128FAD04F
:100E5000F8BD70B505460C462068A9680F225204FB
:100E600091430143A96000BF6068A96802229143D1
:100E70000143A96000BF2846A16800F07AF828461F
:100E8000E16800F01DF82846216900F020F82846A6
:100E9000616900F023F8A06969680122D2029143D8
:100EA0000143696000BFE06969680722520391430A
:100EB0000143696000BF2846216A00F01EF870BD3A
:100EC000826801239B029A430A438260704742680A
:100ED0000123DB059A430A43426070474268024B94
:100EE0001A400A4342607047E0FD3FFF94210958D1
:100EF00002221143942211507047C26D20239A435D
:100F00000A43C2657047F7B504460D460320000545
:100F10001F220146400805E04900C307DB0F1943C3
:100F2000521E40080028F7D10F46974039460F4619
:100F3000384603F06FFB0146A06B032212051040F8
:100F4000C840461CA06BE906C90EC91C891B8A0053
:100F50008A181F21914088430299C906C90EEA06E2
:100F6000D20ED21C921B9300D21891400843A0636A
:100F7000FEBD4268FF2301339A430A434260704733
:100F8000F7B50C46172040011F220146400805E036
:100F90004900C307DB0F1943521E40080028F7D150
:100FA0000E46964031460E46304603F033FB01466E
:100FB0002046172252011040C840810000980C3092
:100FC0000D181F2000051F220146400805E04900BA
:100FD000C307DB0F1943521E40080028F7D10E4605
:100FE000964031460E46304603F014FB1F22120590
:100FF0002240C240072090402F6887431F200005F1
:101000001F220146400805E04900C307DB0F1943D2
:10101000521E40080028F7D10E46964031460E4633
:10102000304603F0F7FA014620461F221205104011
:10103000C84002994907490F81400F432F60FEBD08
:10104000F7B507460C46032000031F22014640085F
:1010500005E04900C307DB0F1943521E4008002872
:10106000F7D10E46964031460E46304603F0D2FA8E
:1010700001462046032212031040C8408100384632
:101080002C300D18E206D20E1F21914028688843AB
:101090000299C906C90EE206D20E914008432860A3
:1010A000FEBD816808221143816000BF00BF8168D6
:1010B00008221140C9080029F8D100BF00BF00BFB5
:1010C000816804221143816000BF00BF816804224F
:1010D000114089080029F8D17047000000B5ADB073
:1010E000242124A8FFF79AFB442113A8FFF796FBBD
:1010F0000F204004249002202590C001269000205B
:101100002790289029902A902B902C9024A9492050
:101110000006FFF79EFE032000051390454814903B
:1011200006211591444916910621179143491891BA
:1011300006211991BD2189001A9106211B9113A93D
:1011400049200006FFF73AFE24210AA8FFF766FBB4
:10115000242101A8FFF762FB1720C0020A90FF209C
:1011600001300B9000200C900E900F901090119079
:1011700012900AA949200006FFF7F0FD03200005A0
:1011800001902C4816300290042103912C490491BF
:10119000042105912B49069104210791284916390C
:1011A00008910421099101A949200006FFF75AFD81
:1011B00000BF492000068068012108434921090633
:1011C000886000BF802049680143492212065160AF
:1011D00000BF04211046FFF728FD49200006FFF755
:1011E00060FF00BF00BF492000068068042108405E
:1011F00080080028F6D100BF492000068068090554
:10120000084349210906886000BF00BF0220492128
:10121000090609680140814201D1012100E0002155
:101220000029F3D0022149200006FFF7FEFC2DB073
:1012300000BD00000E00C0002300900027005001F8
:10124000260020012800800110B502F085FA032055
:101250004B490968C908C9000143494A116000BFE8
:1012600000BF48480068012108434649086000BFA4
:1012700000BF00BF43480068022108404008002822
:10128000F7D00320C0043F494968072292049143E4
:1012900001433C4A516000BF00BF10460068012175
:1012A000090608431146086000BF00BF00BF35486B
:1012B0000068012149060840400E0028F6D00020B1
:1012C00030494968F022914301432E4A516000BFE2
:1012D0001015114649680722120291430143294A19
:1012E000516000BF0020114649680722D202914395
:1012F0000143244A516000BF022011464968890811
:1013000089000143516000BF00BF00BF1D48406815
:101310000C2108400828F8D180061A49496802467D
:1013200091430143174A516000BF1748114649686D
:10133000C24311400143134A516000BF0F20000413
:1013400002F0FCF80120000602F0F8F80120C002CB
:1013500002F004F9012002F0F9F8022002F0F6F898
:101360000120400302F0FAF8012002F0F7F8012012
:10137000800302F0F3F80120400402F0E7F810BD0A
:10138000002002400010024000C0008000B58BB079
:10139000282101A8FFF742FA002001900290039053
:1013A000FF20013004904020059080010690F82035
:1013B0000790012008A90870002009900A9001A94F
:1013C000064800F023FB00BF0448006801210843E1
:1013D0000249086000BF0BB000BD000004020140DC
:1013E00000B585B014216846FFF718FA0120019076
:1013F000029002200390002004900420009069468F
:10140000644800F022FC082000906946614800F022
:101410001CFC022001900020029002200390012079
:1014200004900820009069465B4800F00EFC012003
:101430000490022000906946574800F006FC012005
:101440000490802000906946524800F0FEFB012085
:1014500004900420009069464F4800F0F6FB0120FC
:101460000490009069464C4800F0EFFB0120049086
:10147000402000906946474800F0E7FB03200190B8
:101480000020029002200390002004900120009090
:101490006946404800F0D9FB4020009069463F482B
:1014A00000F0D3FB1020009069463C4800F0CDFBD3
:1014B000202000906946384800F0C7FB02200090C9
:1014C0006946344800F0C1FB20200090694633484B
:1014D00000F0BBFB40200090032001900020029010
:1014E0000490039069460920C00600F0AEFB8020FE
:1014F0000090032001900020029004900390694620
:101500000920C00600F0A1FB0020029002200390F9
:10151000002004904020009003200190694609209B
:10152000C00600F092FB80200090032001906946E5
:101530000920C00600F089FB0420049002200190DD
:101540000120029002200390042000906946134875
:1015500000F07BFB002002900220009069460F48BB
:1015600000F073FB052004900220019001200290FE
:1015700002200390102000906946074800F065FBA8
:1015800000200290202000906946034800F05DFB97
:1015900005B000BD00080048000C004800040048E9
:1015A00010B500210D2001F063FE0D2001F01AFEA0
:1015B0000121102001F05CFE102001F013FE01213A
:1015C0000C2001F055FE0C2001F00CFE02210E2033
:1015D00001F04EFE0E2001F005FE04211B2001F05B
:1015E00047FE1B2001F0FEFD04211C2001F040FEFF
:1015F0001C2001F0F7FD0521881F01F039FE0020B5
:10160000C04301F0EFFD10BD00B587B01C21684656
:10161000FFF704F9012080030090042001900004EA
:1016200002900020039004900120400705900120C3
:1016300006906946064801F07FFE00BF0448006836
:10164000012108430249086000BF07B000BD000047
:101650000403014010B500206D49096870229143D0
:1016600001436B4A116000BF02201146886200BF2F
:101670006848C86200BF0020086300BF60220121E3
:10168000634802F0B7FA00220121614802F0FEFA35
:10169000002204215E4802F0F9FA602210215C4821
:1016A00002F0A8FA00221021594802F0EFFA0022B5
:1016B0004021574802F0EAFA6022FF2101315448E4
:1016C00002F098FA0022FF210131514802F0DEFABF
:1016D0000022012189024E4802F0D8FA00204C492C
:1016E000486300BF00BF886300BF00BFC86300BF7E
:1016F00060228914464802F07DFA00220121090384
:10170000434802F0C3FAF0204149086400BF88153D
:10171000096803221202914301433D4A116000BF50
:1017200048201146496C090A09020143516400BF6F
:101730005014072109040022354B5B6C364C2340C2
:1017400004460C4314432343314C636400BF2046DA
:10175000002101220446603463181C6894431C6015
:1017600000BF00230215194602F002FA28480021A2
:1017700002220446603463181C6814431C6000BFD6
:1017800000BF806F012108432149886700BF00BF67
:101790000846806F022108431D49886700BF00BFCB
:1017A0000846806F042108431949886700BF00BFBD
:1017B0000846806F082108431549886700BF00BFAD
:1017C0000846406C510388431149486400BF88149F
:1017D000096A01430E4A116200BF00BF1046406C07
:1017E0000121C90308431146486400BF00BF0846F1
:1017F0000068012108431146086000BF802110469F
:1018000002F0A7F91021024802F0A3F910BD000070
:10181000003401407FBB0000FFDFF0EF00B585B072
:1018200014216846FEF7FAFF002001900490401E44
:101830000290002003908F216846018069460120B4
:10184000800702F063FA00BF0120800700680121D1
:1018500008438907086000BF0020019004900A48EF
:101860000290002003908F21684601806946074856
:1018700002F04CFA01200549C9680143034AD160CE
:1018800000BF05B000BD0000FFFF000000040040E5
:1018900000B585B014216846FEF7C0FF4B20C0019B
:1018A000009000200190039002900C200490694663
:1018B0001F4802F0C1FB69461E4802F0BDFB1E49ED
:1018C0001B4802F069FB1C492031194802F064FBF7
:1018D0001949174802F0B8FA17496031144802F064
:1018E000B3FA134802F04DFB114802F045FB1048D3
:1018F00002F04CFB10490F4802F04EFB0E4920311C
:101900000C4802F049FB0C490A4802F09DFA0A49CA
:101910006031084802F098FA064802F032FB0548A8
:1019200002F02AFB034802F031FB05B000BD0000C5
:1019300000380140004400402000001000BF19485A
:10194000406A012108431749486200BF00BF00BF39
:101950001448406A0221084040080028F7D000BF20
:1019600011481249086000BF0220486000BF7D2076
:101970000001886000BF00BF00BF0C48C06880073E
:10198000800F002801D1012000E000200128F3D1C0
:1019900000BF07480549086000BF00BF0548086050
:1019A00000BF704700100240555500000030004055
:1019B000AAAA0000CCCC000070B504460D46002653
:1019C0002E6B2068B04205D2022168688843801CD3
:1019D000686006E06068B04203D902216868884305
:1019E0006860A068B04201D2A66803E0E068B04237
:1019F00000D9E668E368A268D11AF31A22695A434B
:101A00001046FEF70DFFE86470BD000010B54B688E
:101A10000A681A438B681A4303681F4C23401A4311
:101A20000260CB680A691A430368FF24F134A343B8
:101A30001A430260026807231B039A434B691A4347
:101A400002600A7F52000B6A1A43144B5B689B08C2
:101A50009B001A43114B5A60104A803A904208D1B9
:101A60001A465268F8239A438B691A430B4B5A6003
:101A700009E00A4A52681F231B029A438B695B01E3
:101A80001A43064B5A60054A1268520852004B6AC4
:101A90001A43024B1A6010BDFF7FFCFC800201401C
:101AA00010B5044600BF1249C86B0021104AD1632B
:101AB00000BF20656078022811D1207A4007C00F4E
:101AC00000280CD121460B4800F01AF821460A489C
:101AD00000F016F82146094800F012F806E0002050
:101AE00004498860044988600449886010BD00008A
:101AF00050040020B4050020C0050020CC050020C3
:101B00000A6D03689A420BD38268521C8260436854
:101B10009A420BD304238A689A43121D8A6005E017
:101B20008268002A02D08268521E8260704710B517
:101B300004468420005900284CD02078030002F08D
:101B400086FD05041B26313C4700842109598A0083
:101B5000211D88580A21FEF763FE8821085184213F
:101B600009598A00211D88580A21FEF759FE8C2048
:101B70000151022020702CE02078401CC1B221705D
:101B800094200059814201D90220207021E0207860
:101B9000401CC1B2217098200059814201D9032014
:101BA000207016E02078401CC1B2217094200059AA
:101BB000814201D9042020700BE02078401CC1B282
:101BC00021709C200059814201D90020207000E042
:101BD00000BF04E00020207000219020015110BDC2
:101BE00070B504460D4DA06800280FD000200AE013
:101BF00001228240A1681140002903D0411C8422A7
:101C0000515102E0401C2028F2DB02E00021842038
:101C100041512846FFF78BFF70BD000020060020D1
:101C20000268C16851430A02FF230133C168591A8F
:101C3000836859435118090A81608168091241601B
:101C400070470A0282604160704770B505460C46D5
:101C500010236068984302462846216800F055F832
:101C60006268110920686A68824303464B431A433D
:101C70006A6000BF28462269216800F00EF82846F5
:101C8000E268216800F077F82846A268216800F031
:101C9000A8F870BD0A0482617047F7B504460D4686
:101CA00028461F220146400805E04900C307DB0F14
:101CB0001943521E40080028F7D10E46964031467F
:101CC0000E46304602F0A6FC81000F208840276AAD
:101CD000874328461F220146400805E04900C30704
:101CE000DB0F1943521E40080028F7D10E469640DC
:101CF00031460E46304602F08DFC81000298884045
:101D000007432762FEBD81617047F7B504460D4663
:101D100028461F220146400805E04900C307DB0FA3
:101D20001943521E40080028F7D10E46964031460E
:101D30000E46304602F06EFC4100032088402768C2
:101D4000874328461F220146400805E04900C30793
:101D5000DB0F1943521E40080028F7D10E4696406B
:101D600031460E46304602F055FC4100029888404C
:101D700007432760FEBDF7B504460D4628461F22DF
:101D80000146400805E04900C307DB0F1943521E16
:101D900040080028F7D10E46964031460E463046A0
:101DA00002F038FC410003208840A768874328469A
:101DB0001F220146400805E04900C307DB0F194315
:101DC000521E40080028F7D10E46964031460E4676
:101DD000304602F01FFC4100029888400743A7608C
:101DE000FEBDF7B504460D4628461F2201464008B1
:101DF00005E04900C307DB0F1943521E40080028C5
:101E0000F7D10E46964031460E46304602F002FCAF
:101E1000410003208840E768874328461F22014687
:101E2000400805E04900C307DB0F1943521E400874
:101E30000028F7D10E46964031460E46304602F055
:101E4000E9FB4100029888400743E760FEBD492056
:101E50000006806801214905084349210906886078
:101E60007047000000BF0249086400BF70470000CF
:101E70000034014001208007406A704710B50446D5
:101E80000D48446300200C498863C86301210A4857
:101E900001F05BFEFF211131074801F052FE0421E1
:101EA0000648FFF7F7FE01210448FFF72CFF402109
:101EB0000348FFF7EFFE10BD00340140000C00485E
:101EC0000008004810B504460D48446300200C4942
:101ED0008863C86301210A4801F037FEFF211131F0
:101EE000074801F02EFE04210648FFF7D3FE01212A
:101EF0000448FFF7CFFE40210348FFF704FF10BD61
:101F000000340140000C00480008004810B50446A9
:101F100000200E494863084684630020C8631021EE
:101F20000A4801F012FEFF210231084801F009FEC3
:101F300004210748FFF7E7FE01210548FFF7AAFE45
:101F400040210448FFF7A6FE10BD00000034014008
:101F5000000C00480008004810B5044600200E4957
:101F60004863084684630020C86310210A4801F0D2
:101F7000ECFDFF210231084801F0E3FD0421074890
:101F8000FFF788FE01210548FFF784FE4021044841
:101F9000FFF7B9FE10BD000000340140000C0048FE
:101FA0000008004810B5044600200C4948638863C7
:101FB0000846C463811501F0C8FD1121074801F0EE
:101FC000C0FD04210648FFF79EFE01210448FFF7EB
:101FD00061FE40210348FFF75DFE10BD0034014063
:101FE000000C00480008004810B5044600200A49CB
:101FF000486388630846C463811501F0A6FD042187
:102000000648FFF747FE01210448FFF77CFE402108
:102010000348FFF73FFE10BD00340140000C0048AC
:102020000008004810B50020064948638863C8636B
:10203000FF211231034801F084FD0349014801F0FA
:1020400080FD10BD003401404404000010B586B08E
:102050000446142101A8FEF7E1FB022002900020B3
:10206000039002200490012005900820019001A90E
:102070001C48FFF7EAFD012005900220019001A90C
:102080001848FFF7E2FD012005908020019001A98A
:102090001548FFF7DAFD012005900420019001A901
:1020A0001048FFF7D2FD01200590019001A90D48CD
:1020B000FFF7CBFD012005904020019001A90A48BF
:1020C000FFF7C3FD611E094801F050FD4820074994
:1020D000496C090A09020143044A516400BF06B071
:1020E00010BD0000000C004800080048003401400A
:1020F00010B50446064844638463C463FF2112316B
:1021000001F01FFD0349024801F01FFD10BD000052
:10211000003401404404000010B5044607484463FD
:10212000002006498863C8635521044801F00DFD6D
:1021300005210902014801F004FD10BD00340140F1
:1021400010B5044607484463002006498863C86305
:102150000549044801F0F9FC5021024801F0F1FC66
:1021600010BD0000003401400505000010B5044614
:10217000002008494863084684630020C86355214D
:10218000044801F0E2FC05210902024801F0D9FCF3
:1021900010BD00000034014010B50446002008497D
:1021A0004863084684630020C86355210901044838
:1021B00001F0CBFC0521024801F0C3FC10BD00007A
:1021C0000034014010B50446002006494863886386
:1021D0000846C463044901F0B8FC5021014801F0ED
:1021E000B0FC10BD003401400505000010B50446E8
:1021F00000200749486388630846C46355210901E4
:1022000001F0A3FC0521024801F09BFC10BD000079
:10221000003401400021054A51621146C862096834
:1022200001221143014A1160704700000004004080
:1022300004480068400840000249086000204862E5
:1022400070470000000400400021016141617047B7
:1022500000B5C222525C5300D2183A4B9A5C9200ED
:102260005723DB00CB189A584260C222525C5300BD
:10227000D218344BD218527892005723DB00CB1877
:102280009A588260C222525C5300D2182D4BD21849
:10229000927892005723DB00CB189A58C260C22272
:1022A000525C130002F0D3F906041C051D061E340F
:1022B00000BF00BFC3684268D21883685B009A42BF
:1022C0000BDD0269521C0261836902699A4206D9D8
:1022D0000022026102220A7001E00022026118E07D
:1022E00000BF00BFC3684268D21883685B009A428F
:1022F0000BDA0269521C0261836902699A4206D9AB
:102300000022026102220A7001E00022026100E064
:1023100000BF00BF0A78022A13D1FF22AD32525803
:10232000036A9A420BD24269521C4261436A426973
:102330009A4206D90022426101224A7001E000223D
:10234000426100BD94040020014600208B694A6868
:102350009A4215D28B698A689A4211D28B69CA68EF
:102360009A420DD20A69521C0A610A69521C0A611A
:10237000CB699A4204D102230A689A43921C0A60EC
:102380004A69521C4A610B6A4A699A4204D1042381
:102390000A689A43121D0A600A789207D20F002A2F
:1023A00005D00A68520852000A60012009E00A7844
:1023B0005207D20F002A04D00A68520852000A605D
:1023C00002207047014600200A78D207D20F002A67
:1023D00008D10A600A614A610A6852085200521C18
:1023E0000A6000E00120704770B504460E460025E3
:1023F000E069401CE061216AE069884202D2002065
:10240000A0611DE0616A206A4018E169884205D92F
:10241000201D01F033F96069A06111E0616A206A52
:102420004018A16A4018E169884202D9E06AA061B7
:1024300006E00020E061022120688843801C2060C3
:1024400020788007C00F002804D020684008400092
:1024500020600125284670BD70B504460D46002653
:102460002078C007C00F002814D12060E061201D33
:10247000616801F02AF90520C0012818C16A052009
:10248000C001281801F04FF8206840084000401CA7
:10249000206000E00126304670BD704700210161D8
:1024A000416181617047000000B5C222525C530057
:1024B000D218514B9A5C92005723DB00CB189A58E4
:1024C0004260C222525C5300D2184B4BD218527851
:1024D00092005723DB00CB189A588260C222525CCC
:1024E0005300D218444BD218927892005723DB0045
:1024F000CB189A58C260C222525C130002F0A7F8AF
:1025000006042A052B062C5000BF00BFC368426892
:10251000D218036A5A4383689B019A420CD9026914
:10252000521C0261436A02699A4212D90022426136
:10253000026102220A700CE04269521C4261836A05
:1025400042699A4203D90022426103220A700022A2
:10255000026126E000BF00BFC3684268D218C369A9
:102560005A4383689B019A420CD20269521C026151
:10257000436A02699A4212D9002242610261022230
:102580000A700CE04269521C4261836A42699A42B5
:1025900003D90022426103220A700022026100E096
:1025A00000BF00BF0A78022A13D1FF22AD32525871
:1025B000C36A9A420BD98269521C8261036B826999
:1025C0009A4206D90022826101224A7001E000226B
:1025D00082610A78032A0ED1FF2261325258521CBE
:1025E000FF2361335A50C222525C044B9B5CC222CF
:1025F000535401220A7000BD94040020B20400204C
:102600000021C1600161704700B5C222525C5300D5
:10261000D2182D4BD218527892005723DB00CB18DA
:102620009A5842600522D2018A18526C8260C222F6
:10263000525C130002F00BF806041C051D061E3444
:1026400000BF00BF836882695A4343689B019A4276
:102650000BD2C268521CC260C369C2689A4206D9D2
:102660000022C26001220A7001E00022C26018E06C
:1026700000BF00BF836842695A4343689B019A4286
:102680000BD9C268521CC260C369C2689A4206D99B
:102690000022C26001220A7001E00022C26000E054
:1026A00000BF00BF4A78002A08D10269521C0261AB
:1026B000036A02699A4201D901220A700A78012A42
:1026C00001D10022026100BD9404002000210161BB
:1026D000416181617047000000B5C222525C530025
:1026E000D218474B9A5C92005723DB00CB189A58BC
:1026F0004260C222525C5300D218414BD218527829
:1027000092005723DB00CB189A588260C222525C99
:102710005300D2183A4BD218927892005723DB001C
:10272000CB189A58C260C222525C130001F08FFF8E
:1027300006041E051F06203800BF00BFC36842689C
:10274000D218036A5A4383689B019A420BD90269E3
:10275000521C0261436A02699A4206D90022026150
:1027600002220A7001E0002202611AE000BF00BFED
:10277000C3684268D218C3695A4383689B019A426E
:102780000BD20269521C0261436A02699A4206D95D
:102790000022026102220A7001E00022026100E0D0
:1027A00000BF00BF0A78022A14D1FF22AD3252586E
:1027B000036B9A420CD94269521C4261436B4269D5
:1027C0009A4207D900224261826102224A7001E0E6
:1027D00000224261FF22AD325258836A9A420BD2E4
:1027E0008269521C8261C36A82699A4206D90022B8
:1027F000426182614A7001E00022826100BD0000F6
:102800009404002070B5034600201D6A5C68AC4249
:102810000BD21D6A9C68AC4207D21D6ADC68AC42D0
:1028200003D21C69641C1C616EE09D685C68AC424C
:102830000FD9DD685C68AC420BD9DD689C68AC429E
:1028400003D90225C224A5541EE00125C224A554A3
:102850001AE0DD689C68AC420BD9DD685C68AC426C
:1028600003D90325C224A5540EE00425C224A5548F
:102870000AE09D685C68AC4203D90025C224A554D7
:1028800002E00525C224A554C324A45C304D2D5D6F
:10289000C224A45CA54235D19C69641C9C619D6ADC
:1028A0009C69AC422ED900249C61DC69002C02D1C9
:1028B0004C688C6017E08D684C68AC4204D98D6818
:1028C0004C68641B4C6305E08D68CC6B641B4D68E1
:1028D00064194C634D6BDC69641EA6000C460C3415
:1028E000A5514C688C60DC69062C04D102251C685B
:1028F000AC43A41C1C60DC69641CDC61C224A55CC4
:10290000C324A55400241C615D6A1C69AC4203D831
:10291000DD6A5C69AC4204D904251C68AC43241D03
:102920001C601C78A407E40F002C05D01C68640808
:1029300064001C60012009E01C786407E40F002C8F
:1029400004D01C68640864001C60022070BD000094
:10295000B8040020014600200A78D207D20F002ACE
:102960000AD10A600A614A618A61CA610A6852082A
:102970005200521C0A6000E001207047FEB5044678
:102980000D460220607005202070FF2005300059A0
:1029900040084000401CFF2105310851D022135946
:1029A000D42212599B18D82212599B18DC22125992
:1029B0009B18E02212599B18E42212599918FC2204
:1029C0001059FDF72DFF0090FEF7CEF807468D2138
:1029D000C90501F069FE43490190FDF7D1FF0646A4
:1029E000FEF77EF8FF21A9310851FF224932125922
:1029F0000B461B595A431046FF2251321159FDF71D
:102A00000FFF296B484306460520C0012018416C82
:102A10003046FDF705FFFF213131085108460159C5
:102A2000FF2049300059814205D9FF204930015922
:102A3000FF2031300151FF20A93001592046FF30DD
:102A4000753000F042FEFF20313001592046FF3042
:102A5000D93000F068FDFF203130015921200001FC
:102A6000201800F060FDFF20313001594920C000DE
:102A7000201800F058FDFF20313001592046FF306A
:102A8000093000F022FEFF20A93001592018FFF77D
:102A9000D8F8FF2031300159FF2021300151FF20AB
:102AA00031300159FF2025300151FF2031300159CB
:102AB000FF2029300151FF2031300159001F015101
:102AC000FF2045300159FF2035300151FF202D30C6
:102AD0000059FF21353109594843010BFF2031309E
:102AE0000151FEBD5555D044FEB504460D46A168C2
:102AF0006068884204D9A1686068401A606305E094
:102B0000A168E06B401A6168401860632078C007D4
:102B1000C00F002805D16063206840084000401CB9
:102B200020606068A060E1692162A169E16161697A
:102B3000A16121696161E1682161606BE0602369E5
:102B4000E268D2186369D218A369D218E369D2186F
:102B5000236AD118A06BFDF763FE0090FEF704F81E
:102B600007468D21C90501F09FFD0B490190FDF736
:102B700007FF0646FDF7B4FFFF21A9314851681849
:102B8000FFF74EF80520C0012818406D401C0521B4
:102B9000C90169184865FEBD5555D044016849080A
:102BA0004900016000218160C16000220261426130
:102BB0008261C261026242628262C26202634163F6
:102BC000704710B50446FF202D3000590521C9017A
:102BD0006118096D4843010BFF20B93001512018DD
:102BE000FFF71EF810BD10B50446002060700120EC
:102BF0002070C120015DC0200155FF2075300159B2
:102C0000201800F062FD00212046FF309930FFF7C8
:102C100018F800212046FF30A930FFF712F80021F4
:102C20002046FF30B930FFF70CF800212046FF3076
:102C3000C930FFF706F800212046FF30D93000F0F8
:102C400072FC002121200001201800F06CFC002102
:102C50004920C000201800F066FC00210520C001BA
:102C6000201800F060FC201DFFF7CAFC2046283029
:102C7000FFF714FC20465C30FFF728FD2046943017
:102C8000FFF7E2FA2046BC30FFF707FC2046C430CD
:102C9000FFF784FFE01DFD3000F0E0F821462046FC
:102CA000FF30593000F0C2F900200521C901611838
:102CB00088635721C900611848605721C90061180D
:102CC00088600521C901611848640521C90161189E
:102CD00088640521C9016118C8640521C90161180A
:102CE00008650521C9016118486510BD70B5044625
:102CF00000256168A0684018A060E068401CE060A2
:102D0000A169E068884217D1E168A068FDF788FDF5
:102D1000A0602169A068884203D86169A0688842E0
:102D200005D2042120688843001D206004E00221B0
:102D300020688843801C206020788007C00F00280E
:102D400005D02068400840002060012509E0207877
:102D50004007C00F002804D02068400840002060D1
:102D60000225284670BD014600200A78D207D20FFE
:102D7000002A07D10A60CA600A6852085200521C31
:102D80000A6000E00120704770B50446656CE06998
:102D9000A84200D2E569206AA84200D2256A606A8A
:102DA000A84200D2656AA560201D00F067FC60693A
:102DB000A0622078C007C00F002825D1616BA06AEF
:102DC000884245D9216C206B884241D9E36B626B04
:102DD0005A431046A16AFDF723FD2063E16B206B87
:102DE000884201D9E06B2063216C206B88422FD888
:102DF000A16BA06A884204D9206840084000401CAA
:102E00002060206C206323E0A16BA06A88421FD25F
:102E1000E16B206B88421BD2236CA26B5A43104695
:102E2000A16AFDF7FDFC2063E16B206B884209D3AA
:102E3000616BA06A884203D220684008400020608D
:102E4000E06B2063216C206B884201D2206C2063F0
:102E5000216BA06A4843000BE06270BD0021016055
:102E600000224261C16B016370470000F0B5024669
:102E70000024D069401CD061D069062867D155680C
:102E80000023012009E08600171DBE59AE4202D979
:102E900003468600BD59461CF0B20628F3D35800FD
:102EA0002C4E8619C020405C365CC2204654405CE3
:102EB000294E305C8600101D8059C226765C274F53
:102EC000BE5DB600171DBE59B04206D9C220405C97
:102ED000214E365CC220465405E0C220405C1F4EA5
:102EE000365CC220465404261068B04310600226A7
:102EF0001068B043801C1060002010E08600171D91
:102F0000BE59576ABE4208D202271668BE431660F1
:102F100004271668BE43361D1660461CF0B206280C
:102F2000ECD310788007C00F002805D01068400847
:102F300040001060012409E010784007C00F00280D
:102F400004D01068400840001060022400BF2046F2
:102F5000F0BD0000A6040020B8040020B204002048
:102F6000014600200A78D207D20F002A08D10A6051
:102F70000722CA610A6852085200521C0A6006E021
:102F8000CA69072A02D10022CA6100E00120704705
:102F9000F0B502460025002300244878002807D118
:102FA00016699068B0423AD300209060012536E05F
:102FB000D02043584458012015E087000E46D036F3
:102FC000F6599E4203D287000E46D036F359870049
:102FD0000E46D036F659A64203D987000E46D036A3
:102FE000F459461CF0B20628E7DBA6019069584365
:102FF000864200D201250520C0010818406DD66820
:10300000B0420AD15068401C506056695068B042C6
:1030100005D900205060012501E000205060052006
:10302000C0010818406DD0602846F0BD0022026043
:1030300082604260C2600523DB01CB185A6570478D
:1030400010B50446FEF703FF10BD10B50446FEF7A9
:10305000E9FF10BD70B504462078052874D18D2095
:1030600080000159001D0059091A01204002005931
:1030700041434720C000005980030818810B2046B7
:10308000E430FF30753041602046E430FF30753069
:1030900000F0F4FA2046E430FF3075300169204634
:1030A000E430FF30FF30023001612046E430FF3071
:1030B000A93041682046E430212212018018416085
:1030C0002046E4301146401800F0DAF92046E4309A
:1030D000212109014018016A812080000151204608
:1030E000E430FF308130C1682046E430FF30FF30EB
:1030F000023081642046E430FF30B9304168204618
:10310000E4304922D200801841602046E430114664
:10311000401800F0B5F92046E4304921C9004018B4
:10312000016A4120C00001512146E4310846FF30C8
:103130005930FFF72DFFC507ED0FA068400840008C
:103140002843A06015E0FFE72078062811D121462A
:10315000E4312046B430FFF77FF9012809D1214638
:10316000E4312046B430FFF73FF9012801D10020B7
:10317000207070BD10B50446207805282BD1E420BE
:10318000005D04281DD1FFF753F80521E420015507
:10319000FF20A730005D1149095CFF20A7300155D1
:1031A0000246125DD2000E4BD318821E125D9200B1
:1031B000995885229200105988470A20FFF72AF86B
:1031C0000BE0E420005D052807D10021E420015533
:1031D000FFF72EF801E0FFF72BF810BDB804002030
:1031E000F0040020C206D20E01219140014A116074
:1031F0007047000000E100E010B5002819DA1A4A13
:1032000003071B0F083B9B089B00D2588307DC0E6B
:10321000FF23A3409A438B071B0E8407E40EA340B1
:103220001A43114B0407240F083CA408A4001A51A8
:1032300018E00E4A03231B02D21883089B00D258C1
:103240008307DC0EFF23A3409A438B071B0E8407E2
:10325000E40EA3401A43054B032424021B198408DF
:10326000A4001A5110BD00001CED00E000E100E0D8
:1032700010B5002819DA1A4A03071B0F083B9B08F0
:103280009B00D2588307DC0EFF23A3409A438B0791
:103290001B0E8407E40EA3401A43114B0407240FAE
:1032A000083CA408A4001A5118E00E4A03231B028C
:1032B000D21883089B00D2588307DC0EFF23A3405B
:1032C0009A438B071B0E8407E40EA3401A43054B59
:1032D000032424021B198408A4001A5110BD000005
:1032E0001CED00E000E100E0C16802229143C160F2
:1032F0007047C16849084900C1607047C1688908C2
:103300008900491CC160704704498968FF22013265
:1033100091430143014A916070470000000301405E
:10332000044989680122520791430143014A91608F
:10333000704700000003014070B505460C4600BF11
:103340002868C00F002849D16068042847D1A069C7
:10335000002804D001280DD0022828D11CE000BF8D
:10336000E86880088000801CE86000BF2846FFF7FE
:10337000C0FF1CE02846FFF7B7FF2846FFF7BEFF57
:103380000820E968082291430143E96000BF002159
:10339000284600F063F80AE02846FFF7A5FF284614
:1033A000FFF7ACFF0421284600F058F800BF00BF2B
:1033B000616820680843A16808432968244A1140CD
:1033C000084328602348854241D1E06800F04CF86A
:1033D0002069FFF799FF6069FFF7A2FF37E0606897
:1033E0000C281AD12846FFF77FFF2846FFF781FFF8
:1033F000A168606808432968174A1140084328609B
:103400001448854223D1E06800F02EF82069FFF7C8
:103410007BFF6069FFF784FF19E02846FFF764FF30
:103420002846FFF766FFA1686068084329680A4AD2
:103430001140084328600748854208D1E06800F041
:1034400013F82069FFF760FF6069FFF769FF70BD3F
:10345000F33FF9FF08030140F3FFF9FFC2680423BB
:103460009A430A43C26070470449896801225202A4
:1034700091430143014A91607047000000030140FD
:1034800010B543680268D11A036BCB1A82685A439D
:10349000C3684B43D318426B5218046B6400121B71
:1034A000046962439A18426183699B0342699A42A4
:1034B00001DA426901E082699203C3699B039A427F
:1034C00009DD83699B0342699A4201DA426904E09B
:1034D0008269920301E0C269920342614369426AD0
:1034E000D2184262836A9B03426A9A4201DA426AB4
:1034F00001E0826A9203C36A9B039A4209DD836AF0
:103500009B03426A9A4201DA426A04E0826A9203A9
:1035100001E0C26A92034262426A92130262026B43
:103520004263016310BD0022026042604261026397
:10353000426301628A03426270470000024949699E
:103540000143014A51617047001002400249C969B4
:103550000143014AD1617047001002400249896964
:103560000143014A916170470010024010B500F01C
:1035700069F804494968F02211400909024A515C7E
:10358000C84010BD001002405847000810B5FFF7B2
:10359000EDFF05494968072212021140090A034A52
:1035A000515CC84010BD0000001002406847000890
:1035B00010B5FFF7DBFF054949680722D202114029
:1035C000C90A034A515CC84010BD00000010024007
:1035D0006847000800201549154A526807239B04D4
:1035E0001A40920C002A07D1114A52681A40920CD4
:1035F0000A324A43104618E00D4A526807239B04DA
:103600001A40920C012A07D1094A52681A40920CBA
:103610000B324A43104608E0054A526807239B04D0
:103620001A40920C0C324A431046704700127A003E
:1036300000100240024840680C210840704700001A
:103640000010024070B500247D252D020A4EFFF7C0
:10365000F1FF002804D0082806D00C2802D000BFB3
:10366000344605E02C4603E0FFF7B4FF044600BFF4
:1036700000BF204670BD00000024F40002694168CC
:1036800091420DDD8268016989184268914204DA2D
:10369000826801698918016116E04168016113E0DF
:1036A0000269416891420DDAC2680169891842686D
:1036B000914204DD82680169891A016104E0416870
:1036C000016101E0416801617047016170470000DC
:1036D00010B502461D481E4900BF1E4B5B6893652E
:1036E0005378002B2ED0137A1B07DB0F002B0FD142
:1036F000936D0468A34208D383685B1C83604468AD
:10370000A34207D30023836004E00023836001E029
:1037100000238360137ADB06DB0F002B0FD1936D40
:103720000C68A34208D88B685B1C8B604C68A34272
:103730000BD300238B6008E000238B6005E000239F
:103740008B6002E0002383608B6010BDD8050020F1
:10375000E40500205C03002010B50C4C601E0C49F1
:10376000884201D901200CE0601E0A49486103210A
:10377000081FFFF741FD0020064988610720086106
:103780000020002801D000BFFEE710BD80320200FB
:10379000FFFFFF0000E000E010B5034800F080F9F3
:1037A0000248FFF757FC10BD20050020D000002084
:1037B00024480068012108432249086008464068FF
:1037C000214908401F494860084600681F490840D1
:1037D0001C4908600846006801218904884319498A
:1037E0000860084640687F210904884315494860FD
:1037F0009F20000488600120000649690143114AA6
:10380000516100BF1248006903218904084310492F
:1038100008610F4840304069022108430C4940319B
:10382000486100BF0A484030406902210840022830
:10383000F8D0C805034949698143024A516100BF74
:1038400070470000001002400000FFF8FFFFF6FE86
:103850004000004910B504460E48C06AE0600D48BB
:10386000006BE0610B48406BE0620A48806BE063EC
:1038700020460C30FEF7D4F920461C30FEF7D0F974
:1038800020462C30FEF7CCF920463C30FEF7C8F934
:1038900010BD00004000004910B504462046FFF767
:1038A000D9FF0020002803D1002236494A7002E0E7
:1038B000012234494A7000BF20693349486400BF7F
:1038C000E06CFF397D39886100BF00BF2F488068F8
:1038D000002804D0A06840084000401CA060607828
:1038E000002806D0012812D002281ED0032837D184
:1038F00029E0606E401C6066216E884206D300207D
:103900006066204600F044F80120607029E0A0685D
:10391000002802D00320607006E020798007C00FE5
:10392000002801D0022060701BE0A068002802D0AF
:103930000320607006E020798007C00F002801D1C5
:10394000012060700DE020798007C00F002806D1AB
:10395000A06000BF0D49886000BF0120607000E0DA
:1039600000BF00BF6078022805D100BF01200749D1
:10397000486000BF05E000BF00200449486000BF68
:1039800000BF10BD7402002034040020D0000020CD
:1039900010B504460C48C16A20460C30FEF751F9B8
:1039A0000948016B20461C30FEF74BF90648416B75
:1039B00020462C30FEF745F90348816B20463C3009
:1039C000FEF73FF910BD00004000004910B5044665
:1039D0002079C007C00F002859D02078401C2070E3
:1039E00021462B48FDF7E8FF2078C007C00F0028CC
:1039F00004D000F0CBFB00F025FC41E02078022150
:103A00000840022804D100F099FC00F00DFD37E0D9
:103A1000207804210840042832D02078082108406A
:103A2000082803D11B4800F0B1FD29E020781021BF
:103A30000840102803D11748FEF732F820E020781C
:103A400020210840202803D11248FFF741FE17E04B
:103A5000207840210840402803D10E48FEF7C0F8E6
:103A60000EE0207880210840802803D1094800F02A
:103A700067F905E000BF08480849086000BF00BFBB
:103A800060684008400060600248FFF705FF10BD15
:103A90008805002020050020AAAA00000030004070
:103AA0000179C907C90F002905D1416849084900B2
:103AB000491C416004E0022281689143891C8160B5
:103AC0007047000010B50121064800F046F80028B4
:103AD00006D00121034800F031F80348FFF74AFB04
:103AE00010BD000000040040D000002010B580216F
:103AF000064800F032F8002806D08021034800F084
:103B00001DF80348FFF7A1FA10BD00000034014082
:103B1000D000002010B51021064800F01EF8002843
:103B200006D01021034800F009F80348FFF788FA8F
:103B300010BD000000340140D0000020CA430261E3
:103B40007047026A8A4302627047026A0A4302624D
:103B50007047C2680A43C260704702461069084055
:103B6000884201D1012070470020FCE7C162704704
:103B7000FFB581B0064614463046603002994018C1
:103B8000009020461F220146400805E04900C30777
:103B9000DB0F1943521E40080028F7D10D4695400F
:103BA00029460D46284600F035FDC106C90E012004
:103BB0004002884000990F68874320461F22014633
:103BC000400805E04900C307DB0F1943521E4008B7
:103BD0000028F7D10D46954029460D46284600F0AD
:103BE00019FDC106C90E0498884007430098076074
:103BF00005B0F0BDF0B503461446012901D10025FA
:103C00002AE0042901D1012526E0102901D102254D
:103C100022E0402901D103251EE0FF250135A942FC
:103C200001D1042518E00125AD02A94201D10525E5
:103C300012E001252D03A94201D106250CE0012542
:103C4000AD03A94201D1072506E001252D04A942B3
:103C500001D1082500E009252846094D2E5C1D46A6
:103C6000183572191568074E375C074EBE40B543CC
:103C7000044E365C2746B7403D431560F0BD00005A
:103C8000704700087A4700087300010070B50129E9
:103C900001D100242AE0042901D1012426E01029C1
:103CA00001D1022422E0402901D103241EE0FF2497
:103CB0000134A14201D1042418E00124A402A1424C
:103CC00001D1052412E001242403A14201D10624DC
:103CD0000CE00124A403A14201D1072406E0012441
:103CE0002404A14201D1082400E009242346046AE7
:103CF000054DEE5C0225B540AC43034DEE5C154628
:103D0000B5402C43046270BD8E47000810B50022F8
:103D1000026870241346A3431A464B681A430324CF
:103D200024021346A3431A46CB681A4302608B68E9
:103D3000C3620B8883620B6903630123436110BD77
:103D400010B502461C481D49136AD3655378002BF1
:103D50002ED0137A1B06DB0F002B0FD1D36D046816
:103D6000A34208D383685B1C83604468A34207D3E3
:103D70000023836004E00023836001E0002383606C
:103D80001389DB05DB0F002B0FD1D36D0C68A34229
:103D900008D88B685B1C8B604C68A3420BD3002354
:103DA0008B6008E000238B6005E000238B6002E05D
:103DB000002383608B6010BDF0050020FC0500200F
:103DC00010B50E490E4800F00EF9012806D10B4936
:103DD0000B4800F085F800F091FA0DE007496031DA
:103DE000074800F000F9012806D1044920310448B1
:103DF00000F076F800F090FB10BD000020000010ED
:103E00000038014010B50E490E4800F0ECF80128CA
:103E100006D10B490B4800F063F800F07FFA0DE083
:103E200007492031074800F0DEF8012806D104498F
:103E30002031044800F054F800F08AFB10BD000067
:103E4000200000100044004008B5244A914201D1EE
:103E5000012200E00022214B5B1C994201D1012389
:103E600000E000231A431D4BDB1C994201D10123C2
:103E700000E000231A43194BDB1D994201D10123B5
:103E800000E000231A43154B0F33994201D101235F
:103E900000E000231A43002A06D00268009200BF07
:103EA0004268009200BF17E0012212070A40012376
:103EB0001B079A4204D10A011209D24302600BE0A7
:103EC000012252070A4001235B079A4204D1C268CB
:103ED000CB00DB089A43C26008BD0000010000105F
:103EE00008B5244A914201D1012200E00022214B71
:103EF0005B1C994201D1012300E000231A431D4BB2
:103F0000DB1C994201D1012300E000231A43194B25
:103F1000DB1D994201D1012300E000231A43154B18
:103F20000F33994201D1012300E000231A43002AF4
:103F300006D00268009200BF4268009200BF17E0FE
:103F4000012212070A4001231B079A4204D10A01E9
:103F50001209D24302600BE0012252070A400123FA
:103F60005B079A4204D1C268CB00DB089A43C26067
:103F700008BD000001000010C16804229143C16027
:103F80007047C16808229143C1607047C16801222F
:103F900052031143C1607047012212070A400123F6
:103FA0001B079A4205D1C2680B011B091A43C26064
:103FB00018E0012252070A4001235B079A4205D10B
:103FC0000269CB00DB081A4302610BE00122920771
:103FD0000A4001239B079A4204D142698B009B0847
:103FE0001A4342617047024601200007084001233E
:103FF0001B0798420BD110680B011B0918400B01DD
:104000001B09984201D1012070470020FCE70120E4
:104010004007084001235B0798420BD1D068CB00D2
:10402000DB081840CB00DB08984201D10120EBE708
:104030000020E9E70020E7E77FB504460D460026AB
:1040400000200090019002900390FFF7FBFA00908F
:10405000FFF78CFA0190FFF799FA0290FFF7A8FAA0
:10406000039000BFE068012149030840400B00288D
:1040700024D1E9686868084329690843E168104A5F
:1040800011400843E060A8682169032212039143AC
:104090000143216100BF0B48844201D1039E03E02C
:1040A0000948844200D1029E002E07D028680028CB
:1040B00004D0314620462A6800F008F87FBD000091
:1040C000F3E9FFFF0038014000440040F7B582B03B
:1040D0000C461546A900192262431046FCF7A0FBC6
:1040E00006466421FCF79CFB0701A90019226243E4
:1040F0001046FCF795FB0646A900192262431046BC
:10410000FCF78EFB64210090FCF78AFB6421484396
:10411000301A000132300190FCF782FBF021084098
:104120003F18A900192262431046FCF779FB0646A6
:10413000A900192262431046FCF772FB642100902B
:10414000FCF76EFB64214843301A000132300190C5
:10415000FCF766FB0007000F381881B202988160F7
:1041600005B0F0BD0348C068042188430149C86018
:1041700070470000003801400348C06804218843AC
:104180000149C860704700000044004010B52B4C46
:104190002078002806D001281BD0022836D003281A
:1041A00049D142E02079C007C00F002810D0E06D4F
:1041B000401CE06503280BD90020E06500BF2048C3
:1041C000C068042108431E49C86000BF0120207058
:1041D00032E0616D606C884203D3FFF7C3FF0320B8
:1041E0002070E16C606C88420DD1606C00280AD0B0
:1041F000E06D401CE065032805D90020E065FFF76D
:10420000B1FF02202070606CE06415E00020E064E3
:104210006064606840084000606002216068884314
:10422000801C60600020207006E000206064E06474
:10423000E065207000E000BF00BF10BD000000205E
:104240000038014010B52B4C2078002806D00128FA
:104250001BD0022836D0032849D142E02079C0077C
:10426000C00F002810D0E06D401CE06503280BD97A
:104270000020E06500BF2048C068042108431E49B3
:10428000C86000BF0120207032E0616D606C884220
:1042900003D3FFF771FF03202070E16C606C88424C
:1042A0000DD1606C00280AD0E06D401CE065032849
:1042B00005D90020E065FFF75FFF02202070606CE9
:1042C000E06415E00020E06460646068400840003D
:1042D0006060022160688843801C6060002020705C
:1042E00006E000206064E064E065207000E000BF4C
:1042F00000BF10BD6800002000440040054806498A
:104300004968CAB2436C591C416401460831CA5419
:1043100070470000000000200038014005480649B1
:104320004968CAB2436C591C416401460831CA54F9
:104330007047000068000020004400403848417881
:10434000002906D0012951D0022956D0032964D171
:104350005BE001798907C90F00293BD0016E491C38
:10436000FF22F5320166914234D900210166816451
:1043700001650122836C591C816401462631CA54AF
:104380000322836C591C816401462631CA540522DC
:10439000836C591C816401462631CA540722836C00
:1043A000591C816401462631CA540922836C591C68
:1043B000816401462631CA542621095C194A51609C
:1043C00000BF1146C96808221143164AD16000BFD8
:1043D00001214170416E491C7D22D200416691420B
:1043E00003D9002141660321417017E0426CC16C82
:1043F000914201D10221417010E041684908490011
:10440000491C41600021417008E0416849084900A9
:10441000491C41600021417000E000BF00BF7047AF
:10442000000000200038014038484178002906D0BB
:10443000012951D0022956D0032964D15BE00179CA
:104440008907C90F00293BD0016E491CFF22F532B4
:104450000166914234D9002101668164016501221F
:10446000836C591C816401462631CA540322836C33
:10447000591C816401462631CA540522836C591C9B
:10448000816401462631CA540722836C591C816419
:1044900001462631CA540922836C591C81640146A5
:1044A0002631CA542621095C194A516000BF1949B6
:1044B000C96808221143174AD16000BF0121417029
:1044C000416E491C7D22D2004166914203D90021F0
:1044D00041660321417017E0426CC16C914201D1E9
:1044E0000221417010E0416849084900491C4160BF
:1044F0000021417008E0416849084900491C4160B9
:104500000021417000E000BF00BF7047680000203C
:1045100000380140004400400B48016D491C024630
:1045200026320165515C094A5160826C016D9142ED
:1045300008D100BF0549C96808229143034AD160E8
:1045400000BF00BF7047000000000020003801409D
:104550000B48016D491C024626320165515C094A2F
:104560005160826C016D914208D100BF0649C96853
:1045700008229143044AD16000BF00BF7047000089
:1045800068000020003801400044004010B5024699
:104590001E481F4913691C031B195B009B0A5365C6
:1045A0005378002B2ED0137A9B06DB0F002B0FD1F4
:1045B000536D0468A34208D383685B1C836044681E
:1045C000A34207D30023836004E00023836001E05B
:1045D00000238360137A5B06DB0F002B0FD1536D32
:1045E0000C68A34208D88B685B1C8B604C68A342A4
:1045F0000BD300238B6008E000238B6005E00023D1
:104600008B6002E0002383608B6010BD08060020F1
:104610001406002002462023110C002901D0103B73
:104620000A46110A002901D0083B0A46110900294F
:1046300001D01B1F0A469108002901D09B1E0A4683
:104640005108002901D0981E7047981AFCE730B431
:104650007446641E2578641CAB4204D3635D5B0022
:10466000E31830BC18471D46F8E7000072B6FCF7A7
:10467000EBFDFCF7B5FEFCF731FDFCF7EBFFFCF7BB
:10468000C3FFFCF783FEFDF7C9F8FCF789FFFDF7D0
:10469000FFF8FDF753F962B600BF0248FFF796F93D
:1046A000FBE700002005002070B5420064414B008C
:1046B0005C41120E39D01B0E38D0FF2A3CD0FF2BA4
:1046C0003AD040024902400A490A060045184E43C2
:1046D000000A090AD2184843ED017F3A0104731A0F
:1046E0004019190C4318990F04D001215B084907A0
:1046F0005B1A521CD80904D3401CF50301D19D0656
:1047000007D0FF2A08D2D50506D0E4072043401978
:1047100070BD0125A843F4E7002A01DCE00770BD65
:104720002402FF202043C00570BD1B0EFF2A03D0CA
:10473000FF2B01D0E00770BDFF2645003606B542CD
:1047400006D84D00B54203D8D218FF2A00D0E7E7BB
:10475000004870BD0000C07F0000000000000000A5
:104760000102030406070809000000000102030417
:1047700000000000040404043838000008000000B1
:104780000800000800000800000008000000000207
:104790000406080A0C0E10140001020304050607A3
:1047A000080A8182838485868788898B8C8D8E8F89
:1047B000919293959697999A9C9D9FA0A2A3A5A745
:1047C000A8AAACAEB0B2B3B5B7B9BCBEC0C2C5C77B
:1047D000C9CCCED1D4D7D9DCDFE2E6E9ECF0F3F7EF
:1047E000FAFE000004480008000000202006000037
:1047F000D40B00086C4900082006002000050000CA
:104800000401000801545A1E040160092E68233473
:104810000323A4010223143232292832021AE83871
:104820002A9C0909192C320A331027022608295418
:104830001A998C69581A33102366063251EDAFFF6E
:10484000FFFF2C7908021A1032335A0DB41AF45CA7
:10485000011C32259A1BE04BCC04F009263429B008
:10486000393019F0091A38292C29B329DC091E60BE
:1048700001241440420F1AFF014172CC32515AAF49
:1048800014011C1A668D29B81A80C94BC0129939B7
:1048900044222003128901320532C8321F692029BF
:1048A000CC5AF06C234517234F091A8D1CDAE4DD2E
:1048B000F219092A105AA304813228AAD8E069B84B
:1048C000F129A329A069CB092638093670093638A1
:1048D00001211302011A01042C0201020B1A020D1C
:1048E00015040305042A05131B03050F2B030404F9
:1048F0003205137D1E5B08C504290C13591F1B08C4
:10490000E9041A0D045AA504290C2914291C1319A9
:10491000215B084104290C1A99041AED041A6D044C
:104920005AC504290C2914291C01180A3D191081A3
:1049300063E8033264323223D80E42C8021A40239D
:104940008B2E593711234D36721F230F3E633801CA
:104950001BCC4C10712A621C71B20A2914720723F5
:0C496000C0307206236911194B51000091
:04000005080000C12E
:00000001FF
