:020000040800F2
:10000000E01300205501000877010008790100087D
:1000100000000000000000000000000000000000E0
:100020000000000000000000000000007B0100084C
:1000300000000000000000007D010008412F0008C2
:100040008101000881010008810100088101000888
:100050008101000881010008810100088101000878
:1000600000000000810100088101000881010008F2
:1000700075020008653200088532000800000000A3
:10008000A932000881010008000000008101000879
:100090008101000881010008810100088101000838
:1000A0008101000881010008810100085533000822
:1000B00081010008000000000000000000000000B6
:1000C00081010008000000008101000800F002F832
:1000D00000F030F80CA030C8083824182D18671E1E
:1000E000A246AB4654465D46AC4201D100F022F830
:1000F0007E460F3EB6460FCC0126334200D0FB1A97
:100100003343A246AB461847684F0000884F0000B3
:100110000023002400250026103A01D378C1FBD823
:10012000520700D330C100D50B6070471FB51FBD0B
:1001300010B510BD00F041F81146FFF7F7FF03F0CE
:10014000AFFE00F059F803B4FFF7F2FF03BC00F074
:100150005FF800000E4802680E480240120C92023E
:100160000D4940F2000001C1121F002AFBD10B48CB
:1001700080470B480047FEE7FEE7FEE7FEE7FEE7A5
:10018000FEE7000007480849084A094B704700008D
:10019000E0F7FF1F0000FFFF000000205D2F0008B8
:1001A000CD000008E00B0020E0130020E00F00204D
:1001B000E00F0020704770477047754600F024F844
:1001C000AE46050069465346C008C000854618B0D3
:1001D00020B5FFF7D7FF60BCB64600260027C0C594
:1001E000C0C5C0C5C0C5C0C5C0C5C0C5C0C5403DEF
:1001F000490849008D46704710B50446C046C046C0
:100200002046FFF7A0FF10BD00487047C006002041
:1002100001491820ABBEFEE726000200704770B50A
:100220008C180578401C6B075B0F01D10378401CCC
:100230002A1106D10278401C03E00678401C0E709B
:10024000491C5B1EF9D12B0705D40023521E0DD487
:100250000B70491CFAE70378401CCB1A921C03E090
:100260001D780D70491C5B1C521EF9D5A142D8D3D4
:10027000002070BD80B5042003F0BEFA38B1FFE75E
:10028000042003F0AFFA024802F0BEF8FFE780BD99
:100290004400002080B586B040F200100121039197
:1002A00003F0CAFB0020009003F078F903980221C4
:1002B000049103F03FF90098042105910322029272
:1002C00003F0ECFA029A0398114603F0E7FA039957
:1002D000084603F08DF9039807210191490403F0C2
:1002E000C5F903F071F90498059903F023F9009812
:1002F000039A052103F0E4F9039A0621104603F05E
:10030000DFF90199039A049803F0DAF90298039A45
:10031000082103F0D5F90399049803F069F90498CA
:1003200047F2000103F0A2F9059803F033FA03F055
:1003300053F940F2E83001F0A9FF03F0DFF806B00E
:1003400080BD80B582B00190012003F055FB02B062
:1003500080BD000080B584B00420029004F03EF916
:1003600002F0BCFD40F20060009004F02DF8264839
:1003700004F02AF8254804F027F8254804F024F86A
:10038000244804F021F840F2087004F01DF80098A9
:1003900004F01AF8029803F0D5FD0020019004F053
:1003A00049F81D4804F010F81C4804F00DF81C48EA
:1003B00004F00AF840F2005004F006F804F04AF89D
:1003C00040F2002004F052F840F2004004F04EF8F1
:1003D0000198039003F07CFE0390012003F078FE67
:1003E0000390022003F074FE0390032003F070FEDC
:1003F00001460298039103F06BFE0390052003F081
:1004000067FE039004B080BD1105000012050000D6
:100410000B060000010700000E0600000C0600009D
:100420000906000080B588B00020009003F088FB2A
:1004300000980F49019101A908760E4A0392012202
:100440004A7640F20022029240F600020492887638
:100450000222059243F20002069203F09FFB0098ED
:1004600003F060FB009803F04FFB08B080BDC0466E
:100470004C240140C007002083B0029001910092FB
:1004800003B0704780B590B00920C00608900022E4
:100490000D9201230B93194603F076FC08980B9BF1
:1004A0000D9A114603F0B7FC08980B9903F064FC11
:1004B00008980D9A02210A9140F20013019303F06B
:1004C00063FC019B08980D9903220E9203F0A3FC94
:1004D00008980A990D9A40F20023029303F054FC05
:1004E000029B08980D990E9A03F095FC08980A99BA
:1004F0000D9A40F20043039303F046FC039B0898D7
:100500000D990E9A03F087FC019A08980A9903F056
:10051000D3FB029A08980A9903F0CEFB039A089835
:100520000A9903F0C9FB0A990D9A47480C9042F2C8
:100530000003049303F028FC049B0C980D990E9A79
:1005400003F069FC0A990C980D9A44F20003059394
:1005500003F01AFC059B0C980D990E9A03F05BFCB6
:100560000A990C980D9A48F20003069303F00CFCCC
:10057000069B0C980D990E9A03F04DFC049A0A996B
:100580000C9803F099FB059A0A990C9803F094FBD8
:10059000069A0A990C9803F08FFB0A990C980D9A09
:1005A00041F20003079303F0EFFB079A0A990C98B6
:1005B00003F082FB08980D9A0E99202303F0E4FBC8
:1005C00008980D9A0E994023099303F0DDFB0898D3
:1005D0000D9A0E9980230F9303F0D6FB0B9B0C987A
:1005E0000D9A0E9903F0D0FB08980D9A0E991023DE
:1005F00003F0CAFB08980D9A0E99082303F0C4FB78
:10060000099A0C980D9903F057FB0C980D990F9AC5
:1006100003F052FB099B0A990B9A0C9803F0B4FB68
:10062000099B0C980D990E9A03F0F5FB0A990B9A09
:100630000C980F9B03F0A8FB0C980D990E9A0F9B3A
:1006400003F0E9FB10B080BD0004004880B584B021
:100650000D200021029103F04DFC10200221019198
:1006600003F048FC01990C2003F044FC0E2001210A
:1006700003F040FC0298C0430321039103F03AFCCD
:1006800003991B2003F036FC04B080BD80B598B000
:1006900060480B9004F03EFA11A8009004F08AFB29
:1006A00000990B98012206920A80002204924A8047
:1006B0008A80594B139340F20023CB800A7304F0D5
:1006C000AFFA15A8019004F014FA019A0499069B58
:1006D0000B9813800423089353809180D18011815B
:1006E000518103F0C3FF019A06990B9803F0BEFFF6
:1006F000019A0B980221079103F0B8FF049A0B9816
:10070000114604F07DF904990B986022029204F0DE
:1007100027F904990B980822099204F09BF9049A8E
:1007200006990B9804F06CF9029A06990B9804F05C
:1007300017F90699099A0B9804F08CF9049A07990D
:100740000B9804F05DF9029A07990B9804F008F9E8
:100750000799099A0B9804F07DF9049A0B980321E4
:10076000039104F04DF9029A03990B9804F0F8F8FC
:100770000399099A0B9804F06DF928490868284AEA
:10078000104008600DA8059003F05CFF049A0599DD
:100790000B9840F600030B8040F200434B805A2335
:1007A0008B80CA8044F200030B814A8141F200022F
:1007B0008A8103F032FF06990B9804F0E2FA0B9855
:1007C00004F025FA40F2E83001F060FD06990B983C
:1007D00004F0AEFA07990B9804F0AAFA08990B985E
:1007E00004F0A6FA09990B9804F0A2FA0B981021CC
:1007F0000A9104F09DFA0B9880210C9104F098FA6C
:100800000A990B9804F08AFA0B980C9904F086FA6E
:1008100018B080BD002C0140A08C0000202C0140AD
:10082000AAFAFFFF7047000080B58CB008A90391B9
:100830004720019008800020049048808880254A45
:1008400002920A92C88008732348009004F0E8F9E5
:10085000009804F0DCF9019B029A039904980B803C
:10086000488088800A92C88008731C48069004F06B
:10087000D7F9049906980122059204F0C1F8049969
:100880000698602204F06CF8049A0698114604F069
:10089000E1F8069803F0B8FE0599069804F048FAC6
:1008A00006980221079104F043FA0698042104F007
:1008B0003FFA0698082104F03BFA0698102104F04C
:1008C00037FA069804F09AF90698079904F026FA80
:1008D0000CB080BDFFFF000000200040000400407D
:1008E00080B582B01348019004F0D0FA019842F22A
:1008F000805104F073FA01980021009104F05BFB31
:100900000099019804F09FFB0099019804F077FB8F
:100910000198042104F064FB0198052104F0E9FA30
:100920000198062104F0E5FA019804F0D9FA02B022
:1009300080BDC0460038014084B00290019101980A
:10094000009002980078C00730B9FFE702990020B4
:1009500048600098039091E0029800780007C00F6B
:1009600000284DD0FFE7019820B3FFE702980078F8
:100970004007C00F98B1FFE702990A6A48688018DB
:10098000486002994868CA69096A5143884205D398
:10099000FFE70020009002994860FFE709E0029815
:1009A000406828B1FFE702994868401E4860FFE7A9
:1009B000FFE724E0029800788007C00FA0B1FFE7AE
:1009C00002990A6A486880184860029948680A696A
:1009D000096A5143884206D3FFE70120009002993B
:1009E00000204860FFE709E00298406828B1FFE76F
:1009F00002994868401E4860FFE7FFE7FFE73AE0DA
:100A00000198D8B1FFE7029800784007C00F80B185
:100A1000FFE702994868401C486002994868C96924
:100A2000884205D3FFE70020009002994860FFE765
:100A300003E0029900204860FFE71BE0029800787D
:100A40008007C00F88B1FFE702994868401C4860E2
:100A5000029948680969884206D3FFE7012000909F
:100A6000029900204860FFE703E0029900204860F7
:100A7000FFE7FFE7FFE700980390FFE7039804B064
:100A8000704781B0009000990020486001B0704725
:100A900010B582B00190019884214058002871D08F
:100AA000FFE7019800780090042869D800998A002F
:100AB00001A080188746C04600F008B800F020B8B2
:100AC00000F02EB800F03CB800F04AB8019B84203A
:100AD00019588900591849680A22B1FBF2F1882493
:100AE000195101990858800008184068B0FBF2F3CA
:100AF0005A43801A8C22885001990220087040E0E5
:100B000001990878401C0870C0B201999422895854
:100B1000884204D9FFE7019902200870FFE730E01E
:100B200001990878401C0870C0B201999822895830
:100B3000884204D9FFE7019903200870FFE720E00D
:100B400001990878401C0870C0B201999422895814
:100B5000884204D9FFE7019904200870FFE710E0FC
:100B600001990878401C0870C0B201999C228958EC
:100B7000884204D9FFE7019900200870FFE700E0F0
:100B8000FFE706E001990020087001999022885043
:100B9000FFE702B010BD000080B584B0029012489B
:100BA00001900298B8B1FFE700200090FFE700989D
:100BB0001F280FDCFFE702980099C840C00720B14A
:100BC000FFE70098401C03900BE0FFE70098401CF3
:100BD0000090ECE7FFE70198FFF75AFF0020039031
:100BE000FFE7039804B080BD2007002010B581B056
:100BF00000900099CB680A6888688413121B5A43D6
:100C000080188860009988688013486001B010BD22
:100C100082B001900091009880030199886000984B
:100C20000199486002B0704710B583B002900191FD
:100C3000019B9878032211464143C848415C8900D2
:100C40005918C96E9967019B9C78114661434118F8
:100C5000497889005918C96ED96701998B785A4328
:100C60008018807880000818C06E80228850019813
:100C700080780090A0B1FFE70098012832D0FFE70C
:100C8000009802280CD0FFE7009803282AD0FFE73D
:100C90000098042804D0FFE70098052822D043E0FC
:100CA000019AD06F4100906F8023D25880188842FB
:100CB00013D9FFE702990868401C08600299086888
:100CC0008968884208D9FFE70299002008600199E5
:100CD000682202208854FFE703E0029900200860A0
:100CE000FFE722E0019AD06F4100906F8023D25835
:100CF0008018884213D2FFE702990868401C0860F8
:100D0000029908688968884208D9FFE7029900209B
:100D100008600199682202208854FFE703E00299E5
:100D200000200860FFE700E0FFE701986821405CD1
:100D300002281ED1FFE70198C06B02990969884219
:100D400012D2FFE702994868401C4860029948683F
:100D50004969884207D9FFE7029900204860019954
:100D600069228854FFE703E0029900204860FFE70A
:100D7000FFE703B010BDC04683B002900191694601
:100D8000002008700198C06E0299496888421DD2FF
:100D9000FFE70198006F02994968884216D2FFE781
:100DA0000198406F0299496888420FD2FFE7029983
:100DB0000868401C0860029908688968884204D164
:100DC000FFE7694601200870FFE7FFE76846007803
:100DD00003B0704780B582B001900199086A496AF2
:100DE00088421ED8FFE701990020C8610199086A6E
:100DF000496A884214D1FFE70198806A28B1FFE769
:100E00000198016802F05DF809E00198C06A28B114
:100E1000FFE7019944F20000C861FFE7FFE7FFE741
:100E200026E0019A106A516A926A8918884207D8A6
:100E3000FFE7019802F002F801994869C86116E0DD
:100E4000019A106A516A936AC918D26A891888424D
:100E500005D8FFE7019944F20000C86106E0019956
:100E600001208861019900200862FFE7FFE7FFE7A2
:100E70000199086A401C086202B080BD83B00290EC
:100E8000019101998878032242438C488018407868
:100E900080000818C06EC867019880780090A0B1E3
:100EA000FFE70098012833D0FFE7009802280CD014
:100EB000FFE7009803282BD0FFE70098042804D010
:100EC000FFE70098052823D045E00198C16F89030A
:100ED000029A92688423C0585043884213D2FFE795
:100EE00002990868401C086002990868C96888422D
:100EF00008D9FFE7029900200860019968220120C3
:100F00008854FFE703E0029900200860FFE723E030
:100F10000198C16F8903029A52688423C0585043D4
:100F2000884213D9FFE702990868401C08600299BB
:100F30000868C968884208D9FFE70299002008605C
:100F40000199682201208854FFE703E002990020FC
:100F50000860FFE700E0FFE703B0704700000020F3
:100F600010B583B002900191019B9878032211463D
:100F700041435248415C89005918C96E9967019BE9
:100F80009C78114661434118497889005918C96E07
:100F9000D96701998B785A438018807880000818A7
:100FA000C06E80228850019880780090A0B1FFE741
:100FB0000098012835D0FFE7009802280CD0FFE701
:100FC000009803282DD0FFE70098042804D0FFE7FD
:100FD0000098052825D049E0019BD86F810302982D
:100FE000C268986F80241B59C0185043884213D997
:100FF000FFE702990868401C0860029908680969BF
:10100000884208D9FFE70299002008600199682208
:1010100002208854FFE703E0029900200860FFE700
:1010200025E0019BD86F810302988268986F802425
:101030001B59C0185043884213D2FFE70299086831
:10104000401C0860029908680969884208D9FFE7CE
:101050000299002008600199682202208854FFE765
:1010600003E0029900200860FFE700E0FFE7019835
:101070006821405C02281FD1FFE70198C06B0299EC
:101080004969884213D9FFE702994868401C4860C3
:10109000029948688969884208D9FFE702990020C7
:1010A00048600199692201208854FFE703E0029912
:1010B00000204860FFE7FFE703B010BD00000020FC
:1010C00084B0039002910192694600200870029852
:1010D000C06E0399C968884213D2FFE70298006F77
:1010E0000399C96888420CD2FFE70298406F0399C0
:1010F000C968884205D2FFE703990868401C086068
:1011000091E00299C86E096F884215D9FFE70299EC
:10111000C86E496F88420FD9FFE70299086F496F7F
:10112000884204D9FFE702990220887003E00299FF
:1011300001208870FFE724E00299086F496F884218
:101140000FD9FFE70299C86E496F884204D9FFE7BB
:1011500002990320887003E0029904208870FFE759
:101160000EE00299C86E096F884204D9FFE7029920
:101170000020887003E0029905208870FFE7FFE7F0
:10118000FFE70299CA782F48805C8978884246D167
:10119000FFE703994868401C48600399486849691B
:1011A00088423BD9FFE70399002048600398806894
:1011B00020B9FFE70198029908611EE001980299A1
:1011C0000969884206D9FFE7019802990A69801ADD
:1011D000C86007E00299486B0A69801A019A801872
:1011E000C860FFE702980399896889004118C068C0
:1011F0000861019802990861FFE703988068062852
:1012000004D1FFE7694601200870FFE70399886869
:10121000401C886002998878C870FFE7FFE703994F
:1012200000200860FFE7039908680969884204D92B
:10123000FFE7694602200870FFE76846007804B0BF
:101240007047C046EC05002010B582B001900199AE
:10125000692201208854019968228854019940F23A
:10126000582288540199A4200A58086B4B698C694C
:101270001B19CC691B190C6A1B194C6A1B198C6A47
:101280001B19B0FBF3F05043800B8863019940F2C7
:101290008C200A58886B504340F294228A58B0FB45
:1012A000F2F2A0200858504394228A58B0FBF2F082
:1012B00040F2702200928850019940F28010081884
:1012C000896B01F0FEFD009A019940F20820081890
:1012D000895801F09CFD009A019940F29810081875
:1012E000895801F094FD009A019940F2D010081835
:1012F000895801F08CFD009A019940F240200818AD
:10130000895801F0DEFD019908463830896BFFF7F6
:101310007FFC009A0199885840F26023C8500199D7
:10132000885840F26423C8500199885840F26823D5
:10133000C8500199885840F26C23C850019C40F273
:101340008820215840F2742021500199CB58085828
:101350005843800B885002B010BD80B584B0039014
:101360000291019201980399C968884206D9FFE762
:1013700001980399CA68801A886007E00399086B8E
:10138000CA68801A019A80188860FFE7019803995B
:10139000C8600399086A48620399C869086203999A
:1013A0008869C86103994869886103990869486137
:1013B000039988680861039908694A6980188A69ED
:1013C0008018CA6980180A6A80184A6A8018886278
:1013D0000299A4200A58039BD86A9B6AB0FBF3F0D9
:1013E0005043800B886302983830FFF7FFFB029967
:1013F0008868401C886004B080BD80B582B00190D0
:1014000001986821405C70B1FFE7019940F26C20BF
:101410000A58902008585043800B8864019848303F
:10142000FFF7E4FBFFE702B080BD80B584B0039016
:1014300003986922002102918154039A68230120B4
:10144000D054039A50781070039801610398416159
:10145000039881610398C161039801620398416216
:10146000039881620398816003985830FFF7D0FB9E
:10147000029903983830FFF7CBFB02990398483064
:10148000FFF7C6FB029803998C2288500399A82283
:1014900088500399B82288500399BC228850039938
:1014A000C02288500399D02288500399F82288508E
:1014B000039940F220128850039940F22412885078
:1014C000039940F228128850039940F2381288504C
:1014D000039940F248128850039940F24C12885008
:1014E000039940F264128850039940F268128850C0
:1014F000039940F280128818895801F0E2FC0399A0
:1015000040F29810081840F29022895801F07FFCB0
:10151000039940F2D010081840F28C2201928958A9
:1015200001F075FC019A039940F2082008188958C7
:1015300001F06DFC039940F240228818895801F0AF
:10154000C0FC0298039940F258228854039A40F252
:101550008421515840F27423D150039940F2AC22B7
:10156000885004B080BD84B0039002910192694616
:1015700000200870019B02998C228858C01888505E
:1015800003990868401C086003990868C968884284
:1015900020D1FFE703980368029A8C215058B0FBD2
:1015A000F3F050500298405803994968884208D88F
:1015B000FFE702988C21405803998968884204D239
:1015C000FFE769460220087003E0694601200870C1
:1015D000FFE7FFE76846007804B0704780B582B047
:1015E00001900198C06C009000980199096A8842A6
:1015F00004D9FFE70198006A0090FFE7009801997D
:10160000496A884204D9FFE70198406A0090FFE7E1
:1016100000980199896A884204D9FFE70198806A95
:101620000090FFE7009801994860019801F006FCDE
:1016300001994869C8620198007E58BBFFE701998B
:10164000C86A896B884220D9FFE701998A6B486C88
:101650005043CA6AB0FBF2F048630199486B496C89
:10166000884204D9FFE70199486C4863FFE7019974
:10167000486B896C884207D8FFE7019901200876FA
:101680000199886C4863FFE703E00199486C48635F
:10169000FFE72AE00199C86AC96B884220D2FFE7B8
:1016A0000199CA6B886C5043CA6AB0FBF2F0486378
:1016B0000199486B496C884207D3FFE701990020E4
:1016C00008760199486C4863FFE70199486B896C7B
:1016D000884204D2FFE70199886C4863FFE703E082
:1016E0000199886C4863FFE7FFE70199CA6A486B74
:1016F0005043800B086302B080BD000089B00890A1
:101700000791069205A900200870069808998A6931
:1017100092008850089880690090052828D8009980
:101720008A0001A08018874600F00AB800F010B8BF
:1017300000F016B800F008B800F00EB800F014B8C9
:1017400008990320886114E008990120886110E05D
:101750000899042088610CE008990220886108E05B
:1017600008990520886104E008990620886100E056
:10177000FFE708988069062854D1FFE708980068B9
:1017800004A9088003A90020087002A9012008709C
:10179000FFE702A8007805281BD8FFE7089802A9F0
:1017A00009788900405804A9098888420BD9FFE7C5
:1017B000029803A90870089802A90978890040587E
:1017C00004A90880FFE7FFE70298401C02A90870FF
:1017D000DFE703A8007841001448401807990A7809
:1017E000805C887005A90120087001A9002008709C
:1017F000FFE701A80078052813D8FFE7089901A89A
:10180000007880000858096A884204D2FFE705A9D9
:1018100002200870FFE7FFE70198401C01A908704B
:10182000E7E7FFE705A8007809B070472406002025
:1018300086B00590049103A90020087002900190E1
:10184000049840690290049840690190694601201B
:101850000870FFE76846007805282ADCFFE7029851
:1018600004996A461278920089184969884208D218
:10187000FFE704986946097889004018406902909A
:10188000FFE7019804996A4612789200891849691D
:10189000884208D9FFE7049869460978890040180A
:1018A00040690190FFE7FFE70098401C6946087017
:1018B000D0E7019881010598C26802985043884298
:1018C00009D9FFE7049880680C2804D3FFE703A92F
:1018D00001200870FFE704988068059949688842EC
:1018E00012D1FFE705990868401C0860059908684F
:1018F0008968884207D9FFE705990020086003A995
:1019000001200870FFE703E0059900200860FFE769
:10191000049880680599486003A8007806B070476D
:10192000F0B585B0049004990878FE23184008703B
:1019300004990878FB2202921040087004990878F4
:10194000F7273840087004990878EF26304008706F
:1019500004990878BF2420400870049908787F22F1
:101960000092104008700499487818404870049913
:101970004878FD22104048700499487830404870FB
:1019800004994878DF252840487004994878204019
:101990004870009904980190407808400199487077
:1019A00002990498039080780840039988700499FC
:1019B0008878384088700499887830408870049915
:1019C0008878284088700499887820408870049925
:1019D0008878184088700499887810408870049836
:1019E0005030FFF74EF804987430FFF74AF8049827
:1019F0009830FFF746F80498BC30FFF742F8049897
:101A000040F228114018FFF73CF8049840F24C11BE
:101A10004018FFF736F8049840F270114018FFF7AD
:101A200030F8049840F294114018FFF72AF804980F
:101A300040F2B8114018FFF724F8049840F2DC1186
:101A40004018FFF71EF8049840F200214018FFF7F5
:101A500018F8049840F224214018FFF712F804986F
:101A600040F248214018FFF70CF8049840F26C212E
:101A70004018FFF706F8049840F290214018FFF74D
:101A800000F805B0F0BDB0B58AB00990099804908F
:101A9000416840F26C2205928018C26801200690CD
:101AA000002307939142089001D207980890069A64
:101AB0000598049B089C195C6400FD25009529404D
:101AC000091919540999081889781140FEF734FF4B
:101AD0000698099A0192916840F290230293D218D5
:101AE000D2689142039001D2079803900298019A1C
:101AF000009C039B115C5B002140C918115409999B
:101B0000081889788907C90FFEF716FF0AB0B0BD1B
:101B100081B00090009940F2B4228858401C88504F
:101B20000099087801221043087001B0704770B521
:101B3000B0B02F902E912F9A2C232993D15C0120A5
:101B40002A900143D1542F9A2B9251682C32D2689B
:101B500000232C9391422D9001D22C982D902A98FD
:101B60002B9A299B2D9CD15C6400FD25269529404C
:101B70000919D1542F9A279251682C3292699142B7
:101B8000289001D92C9828902799299A289B885C1D
:101B90009B00FB2420942040C01888542F990846AD
:101BA0002C3009788906C90FFEF7C6FE2A982EA99F
:101BB00021910C782F9A50232293D15C0440FE256A
:101BC000239529400919D1542F9A249251685032F3
:101BD000D2689142259001D92C982590239D249973
:101BE000229A269C259B885C5B002040C018885464
:101BF0002F990846503009784906C90FFEF79CFE18
:101C000021992A980C782F9A74231D93D15C044053
:101C100029400919D1542F9A1E9291687432D268C2
:101C200091421F9001D22C981F90239D1E991D9ABE
:101C3000269C1F9B885C5B002040C01888542F990D
:101C4000084674300978C909FEF776FE21992A986A
:101C50000C782F9A98231A93D15C044029400919D3
:101C6000D1542F9A1B9291689832D26891421C905D
:101C700001D22C981C902A9A239D1B991A9B269E70
:101C80001C9CC85C640030400019C8542F99084659
:101C9000983049781140FEF74FFE21992A980C7828
:101CA0002F9ABC231793D15C044029400919D154C1
:101CB0002F9A18929168BC32D2689142199001D241
:101CC0002C9819901899179A269C199B885C5B0090
:101CD0002040C01888542F990846BC30497889079D
:101CE000C90FFEF729FE2A982F9AE0231493D15C9E
:101CF0000143D1542F9A1592D168E032D2689142B3
:101D0000169001D92C9816902A98159A149B269D06
:101D1000169CD15C640029400919D1542F9A129263
:101D2000D168E03292699142139001D22C981390BD
:101D30001299149A209C139B885C9B002040C01829
:101D400088542F990846E03049784907C90FFEF7B3
:101D5000F3FD2A982F9A40F204130F93D15C0143AC
:101D6000D1542F9A1092D168D218D2689142119012
:101D700001D22C9811902A980F9B109A269D119CA5
:101D8000D15C640029400919D1542F9A0D92D16871
:101D9000D218926991420E9001D92C980E90239DF1
:101DA0000F980D9A209C0E9B115C9B002140C91836
:101DB00011542F99081849780907C90FFEF7BCFD7F
:101DC00021992A980C782F9A40F228130A93D15C13
:101DD000044029400919D1542F9A0B921169D21845
:101DE000D26891420C9001D22C980C90239D0A98B5
:101DF0000B9A269C0C9B115C5B002140C918115466
:101E00002F9908184978C906C90FFEF795FD219941
:101E10002A980C782F9A40F24C130793D15C044017
:101E200029400919D1542F9A08921169D218D26801
:101E30009142099001D92C980990239D0798089AFE
:101E4000269C099B115C5B002140C91811542F99F5
:101E5000081849788906C90FFEF76EFD21992A985E
:101E60000C782F9A40F270130493D15C04402940FF
:101E70000919D1542F9A0592546851696143D218B7
:101E8000D2689142069001D22C980690239D049826
:101E9000059A269C069B115C5B002140C9181154D1
:101EA0002F99081849784906C90FFEF745FD219971
:101EB0002A980C782F9A40F294130193D15C044035
:101EC00029400919D1542F9A02925169D218D26827
:101ED0009142039001D22C9803900198029A269C7B
:101EE000039B115C5B002140C91811542F990818FD
:101EF0004978C909FEF720FD2A9B2F9940F26C22F0
:101F0000885C184388542F9940F29022885C1843CB
:101F1000885430B070BD00000349086801225205A2
:101F2000104308607047C0460824014081B000900B
:101F300000980249086001B07047C046402C01403B
:101F4000014800687047C04624200040A449002092
:101F50000860A4490860A4490860A4490868024AC6
:101F6000104008607047C046AAFAFFFF81B0009099
:101F700000989B49086000989A49086000989A491F
:101F800008609A49086840F2111290430860086896
:101F9000024A1043086001B07047C0464404000084
:101FA00081B0009000988E4908608E49002008603A
:101FB0008D4908608D49086840F2005290430860DE
:101FC000086855221043086001B0704781B0009046
:101FD00000988349086083490020086082490860AE
:101FE000824908685022904308600868234A1043D9
:101FF000086001B07047C04681B000907849002069
:1020000008600099774A1160774908607749086845
:1020100040F200529043086008685522104308605F
:1020200001B0704781B000906D49002008600099B0
:102030006C4A11606C4908606C490868052290433D
:102040000860086840F250521043086001B07047C1
:1020500081B00090624900200860624908600098E1
:102060006149086061490868502290430860086827
:10207000024A1043086001B07047C04605050000E1
:1020800081B00090564900200860564908600098C9
:10209000554908605549086805229043086008685A
:1020A00040F250521043086001B0704781B0009078
:1020B00000984B49086000984A49086000984A49CE
:1020C00008604A490868054A10400860086840F2FC
:1020D00014121043086001B07047C046BEFBFFFFFA
:1020E00081B0009000983E49086000983D49086022
:1020F00000983D4908603D49086840F21412904339
:1021000008600868024A1043086001B07047C04682
:102110004104000081B000900098314908600098A7
:102120003049086000983049086030490868054A1D
:1021300010400860086840F241121043086001B086
:102140007047C046EBFBFFFF81B000900098244928
:1021500008600098234908600098234908602349D3
:10216000086840F24112904308600868024A104330
:10217000086001B07047C0461404000081B00090B0
:102180000098174908600098164908600098164999
:1021900008601649086840F24412904308600868D5
:1021A000024A1043086001B07047C04611040000A5
:1021B00081B0009000980A490860009809490860B9
:1021C00000980949086009490868094A10400860F0
:1021D000086840F244121043086001B07047C046DE
:1021E000342C0140382C01403C2C0140202C014073
:1021F000EEFBFFFF014800687047C046242C0140F9
:1022000081B000900098401E0149086001B07047FD
:102210002C2C01400A490868034A104008600A490A
:102220000868104008607047F7F7FFFF0449086826
:10223000044A104308600449086810430860704766
:10224000182C0140080800001C2C014081B00090AF
:102250000D49002008600098044908600949086891
:1022600001221043086001B07047C04634040040AA
:10227000044908680122904308600349002008606F
:102280007047C046000400402404004083B0029020
:1022900000200190FFE701980299884210D2FFE7E1
:1022A00000200090FFE7009828B9FFE7FFE70098BB
:1022B000401C0090F7E7FFE70198401C0190EAE717
:1022C00003B0704780B584B0039003980079C007CD
:1022D00000285AD0FFE7A748006803994867A74835
:1022E000006803998867A44800680399C867039841
:1022F00001460831D830FEF73FFD0146029140B15A
:10230000FFE7029801280FD0FFE70298022839D092
:1023100039E00398E421415840F28822805848432C
:10232000800BFFF723FE2FE0039AA820115840F2FC
:102330008820105848439C215158B0FBF1F140F2DD
:102340000C1010584843810B40F2041001901150BA
:102350000399085840F2A82289584900401AFFF70B
:10236000E5FD019A039840F200114158CB00DD4988
:10237000C918037A9B00C9588058884703990420DC
:10238000087001E000E0FFE70BE0039840F29021C5
:102390004058FFF735FFFFF7D9FD0399002008707B
:1023A000FFE704B080BDC04680B582B001900198BF
:1023B0000079C00760B1FFE7019840F290214058D2
:1023C000FFF71EFFFFF7C2FD01990020087019E01A
:1023D000019840F22811405801280CD1FFE70198DC
:1023E00040F22C11415840F2902280584843800B13
:1023F000FFF7BCFD05E0019900200870FFF7A6FD7E
:10240000FFE7FFE702B080BD80B582B00190019880
:1024100040F2C421405830B1FFE701990879FE220B
:1024200010400871FFE7019801788A000249895835
:10243000884702B080BDC046C405002080B588B082
:10244000079007980079C00700B985E00798007ADF
:1024500068B9FFE747480068079948674748006838
:1024600007998867444800680799C8670CE04148A5
:1024700000680799486740480068079988673F489F
:1024800000680799C867FFE707980146083103917C
:10249000C0300490FFF754FD039902460498FEF7FC
:1024A0000FFE0146059140B1FFE70598012817D0BE
:1024B000FFE7059802282FD04CE0FFF79BFE06901F
:1024C0000698079940F2AC228A58801840F2882278
:1024D0008958884203D2FFE7FFF71EFDFFE73AE085
:1024E000FFF798FE07980830FEF7AEFE079840F217
:1024F00090214058FFF784FE0798817ACA0020494E
:102500008918027A9200895840F2782280588847C8
:102510000799052008701EE0079840F28821029173
:102520004058FFF76DFE029A0798E4210191415847
:1025300080584843800BFFF7F9FC0199029A0798ED
:10254000415880584843800BFFF710FD079903203E
:10255000087000E0FFE70BE0079840F29021405838
:10256000FFF74EFEFFF7F2FC079900200870FFE727
:1025700008B080BD3C240140442401404024014077
:102580001400002080B582B0019001980079C00746
:10259000B0B3FFE7019801460831B030DE4A126857
:1025A000FEF7E1FF0146009140B1FFE700980128E6
:1025B00015D0FFE70098022815D01FE0FFF71AFE9C
:1025C000019940F2AC228A58801840F2882289583A
:1025D000884203D2FFE7FFF79FFCFFE70FE0019976
:1025E000022008700BE0019940F2C422885C0423A9
:1025F0001843885401990020087000E0FFE70BE0C1
:10260000019840F290214058FFF7FAFDFFF79EFC39
:10261000019900200870FFE702B080BD80B582B04C
:102620000190FFF779FC02B080BD000080B582B058
:10263000019001980079C007002844D0FFE7FFF718
:1026400085FC019801460831E830B34A1268FFF76B
:1026500055F80146009140B1FFE70098012813D0DA
:10266000FFE70098022821D02BE0019840F20011EA
:102670004158CA001B498918027A9200895840F2D1
:102680000412805888471DE0019840F2A421405868
:10269000FFF74CFCFFF7BEFD019840F28C2140583B
:1026A000FFF7AEFD0199052008700BE0019940F29B
:1026B000C422885C082318438854019900200870BC
:1026C00000E0FFE70BE0019840F290214058FFF74F
:1026D00097FDFFF73BFC019900200870FFE702B06F
:1026E00080BDC046F405002080B582B001900198FD
:1026F0000079C00728B3FFE7019940F278500858E5
:10270000124A8958884208D3FFE7019940F2C4224F
:10271000885C022318438854FFE7FFF787FD019880
:1027200040F288214058FFF76BFD01980830FEF712
:102730007CFEFFF70BFCFFF7EFFB0199012008700F
:1027400002E0FFF703FCFFE702B080BD7C0500005C
:1027500080B584B0039003980079C00700B9C6E043
:102760000398007A68B9FFE76848006803994867EA
:102770006848006803998867654800680399C867D6
:102780000CE0624800680399486761480068039953
:102790008867604800680399C867FFE75E4801687A
:1027A000039A90201150039908589422895888421E
:1027B0000AD9FFE703999020085894228A58801A72
:1027C00080009822885004E00399982200208850C5
:1027D000FFE703987021405C48B9FFE70398014682
:1027E000083140F240128018FEF748FB0EE00398D3
:1027F0007021405C012808D1FFE703987121415CFA
:102800008A00464989588847FFE7FFE70398083060
:10281000FEF7F3FDFFF7EEFC02900298039940F2F9
:10282000A8228A58801840F27822895888420FD20C
:10283000FFE70298039940F2AC228A58801840F2D0
:102840007C228958884203D2FFE7FFF765FB4DE001
:102850000399982001900858086603986030FEF7A5
:10286000C5F9039AA020105840F210215050039A45
:10287000506E40F21423D0500398401800F03EFAF6
:10288000039940F23020085840F270228850039893
:1028900040F248214018FEF7A1FE039840F27C2147
:1028A0004058FFF7ADFC0398817ACA00D9498918CE
:1028B000027A9200895840F2782280588847019A1B
:1028C000039940F2CC2008588958884207D2FFE784
:1028D00003999820085840F2CC228850FFE70398CB
:1028E00040F2C4214018FFF7CEF8FFE70BE0039851
:1028F00040F290214058FFF783FCFFF727FB039934
:1029000006200870FFE704B080BDC0463C240140AB
:10291000442401404024014048240140E0050020B7
:1029200080B582B00190FFF711FB019840F2C421FD
:102930004018FFF7EDF802B080BD000010B586B07A
:1029400005907A494A687A480240059B40F2D024B3
:102950001A5109680140059A8C201150059A1058A7
:1029600081009C2011500599085840F2C8228850D7
:102970000599486C40F2D42288500599486D40F280
:10298000D8228850059840F2C4214118039101785B
:102990000020032904900DDBFFE705980178012052
:1029A000002201920729029001DB0198029002980F
:1029B0000490FFE70398049901221140FFF7B7F84C
:1029C000059940F2CC22002088500598007805280F
:1029D00000D09BE0059800798007C00F50B3FFE757
:1029E000059940F264200A5840F29C200858504350
:1029F000800B40F28C128850059840F288114018E4
:102A000000F01CFA059A40F29C10105840F2A011F8
:102A10005050059A506C40F2A413D05005984018BD
:102A200000F06CF9059940F2C010085840F2682295
:102A300088500CE0059940F264200A5840F2942036
:102A400008585043800B40F268228850FFE70598F1
:102A500000794007C00FB8B1FFE7059AA4201058CD
:102A600040F2D8115050059A506D40F2DC13D0500E
:102A70000598401800F042F9059940F2F8100858FE
:102A800040F26C2288502DE0059800790007C00FB5
:102A9000F8B1FFE7059AA4201158A8201058484320
:102AA000800B40F2D8115050059A536D9C2010585D
:102AB0005843800B40F2DC13D0500598401800F0CA
:102AC0001DF9059940F2F810085840F26C22885020
:102AD00007E0059940F29420085840F26C22885093
:102AE000FFE7FFE705980146083140F2B42280185D
:102AF000FEF79EFE012808D1FFE7059940F2C422A7
:102B0000885C102318438854FFE70CE00598007890
:102B1000062807D1FFE7059840F210114018FEF78C
:102B200059F9FFE7FFE706B010BDC046C007002017
:102B3000FF0F000080B584B0039003980146083170
:102B400040F26C128018FEF76FF803987021405C19
:102B5000022817D1FFE703980146083101910C3094
:102B60000290FFF7EDF9019902460298FEF7F5FB96
:102B7000039840F278114158406B4843800BFFF7AF
:102B800065FBFFE704B080BD81B0009001B07047E5
:102B900080B582B0019001980078052833D1FFE715
:102BA00001987021405C02281ED1FFE7FFF760FB0F
:102BB000019970220320885401998A7A1448805C14
:102BC00088720198817ACA0012498918027A9200A3
:102BD000895840F2782280588847019840F2B02105
:102BE0004058FFF733FB0DE001987021405C03284B
:102BF00007D1FFE7FFF73CFB0199702200208854C2
:102C0000FFE7FFE702E0FFF733FBFFE702B080BD1D
:102C1000EC0500201400002080B584B003900398D8
:102C20000146083140F250128018FEF799F90398D6
:102C30007021405C022814D1FFE703980146083157
:102C400001910C300290FFF77BF90199024602983E
:102C5000FEF783FB039840F2B0214058FFF7F6FAE5
:102C6000FFE704B080BD80B582B00190019840F2CA
:102C7000C4214018FEF754FE02B080BD81B0009020
:102C8000009840F2C421405801B0704782B00190D2
:102C90000091009840F2F311884204DCFFE740F213
:102CA000F410009008E000980949884203DBFFE730
:102CB00008480090FFE7FFE700988003054990FB74
:102CC000F1F0019940F26422885002B07047C0468A
:102CD000C5090000C409000081B00090009908797E
:102CE00001221043087101B0704781B00090009933
:102CF0000879FE221040087101B07047B0B588B065
:102D00000790079908684968401A069007998B68E8
:102D1000069A0C6B101B5843CD6813466B43C018C2
:102D20000B694D6B52196400121B5A43801848619D
:102D3000079948698969884204DAFFE7079840697A
:102D4000059003E0079880690590FFE705980799CB
:102D5000C969884211DDFFE7079948698969884296
:102D600004DAFFE707984069049003E00798806958
:102D70000490FFE70498039003E00798C06903906C
:102D8000FFE703980799486107994A69486A8018DC
:102D900048620799486A896A8903884204DAFFE72A
:102DA0000798406A029004E00798806A80030290C6
:102DB000FFE702980799C96A8903884213DDFFE794
:102DC0000799486A896A8903884204DAFFE7079805
:102DD000406A019004E00798806A80030190FFE751
:102DE0000198009004E00798C06A80030090FFE714
:102DF0000098079948620799486A80130862079902
:102E0000086B486306980799086308B0B0BD82B0A4
:102E10000190009101990020086001994860019992
:102E20004861019908630199486300980199086213
:102E3000009880030199486202B0704782B0019007
:102E400001984068800300900098019909698842C0
:102E500013DDFFE70098019A11699268891888428A
:102E600006DDFFE701998A6808698018086103E0B8
:102E7000009801990861FFE71DE000980199096930
:102E8000884213DAFFE70098019A1169D26889181D
:102E9000884206DAFFE70199CA6808698018086164
:102EA00003E0009801990861FFE703E000980199A9
:102EB0000861FFE7FFE7019908698013486102B0E4
:102EC000704782B0019000910098800301990861D9
:102ED00000980199486102B07047000080B504482D
:102EE00000F008F810B1FFE7FFE7FEE780BDC0463D
:102EF0004019010080B584B002900298401E000E77
:102F000018B1FFE70120039011E00298401E094923
:102F1000086000200190C043032100F097FA019857
:102F200005490860054A072111600390FFE70398EF
:102F300004B080BD14E000E018E000E010E000E024
:102F400080B5054800F0D0F8E048FFF7F7FCB2483C
:102F5000FDF7F7F980BDC0463006002080B586B089
:102F600042490868012210430860FFE73F480068B3
:102F70008007002801D4FFE7F8E73D4800680C21EE
:102F80000840082835D1FFE7FFE739490868049071
:102F90000498F022904304900498802210430490F7
:102FA0000498086000200590FFE705987F2805D861
:102FB000FFE7FFE70598401C0590F6E72C490868F5
:102FC00004900498F02290430490049890221043B7
:102FD00004900498086000200590FFE705987F287A
:102FE00005D8FFE7FFE70598401C0590F6E7FFE7E7
:102FF000FFE71F490191086803229043086064209D
:1030000000F068FA0199194A10681A4B18401060CC
:103010000868194A104008600868184A104008609B
:10302000174908680F22904308601649086840F263
:103030000312904308600868012202921304984327
:1030400008600868D307984308600F4908689043F0
:1030500008600E4900200390086001F0BBFA029856
:103060000399C00600F05CFF06B080BD001002406E
:1030700004100240FFFFF2FE0C00FF08FFFFC277C2
:103080002C10024030100240341002400810024060
:1030900080B582B0019001980079C00770B1FFE758
:1030A0008A4800210091FFF7F1FD0098FDF774FDBB
:1030B00001990879FE2210400871FFE702B080BD37
:1030C00080B582B001900020009053488068534939
:1030D0000840009000980199C86001980C30FDF7F5
:1030E00085FD02B080BDC04680B582B001900198D8
:1030F000FFF7E6FF7548FFF7C1FD30B1FFE7019923
:10310000087A012210430872FFE701984078009086
:1031100003285BD800998A0001A080188746C04622
:1031200000F006B800F019B800F02BB800F03DB878
:103130000199486B401C48630199486B096B8842B0
:103140000AD3FFE7019900204863019800F052F884
:10315000019901204870FFE739E00198806820B1AB
:10316000FFE70199032048700AE001980079800781
:10317000C00F20B1FFE7019902204870FFE7FFE789
:1031800025E00198806820B1FFE70199032048708D
:103190000AE0019800798007C00F20B9FFE7019984
:1031A00001204870FFE7FFE711E0019800798007F0
:1031B000C00F50B9FFE70199002088604348FFF72E
:1031C00052FD019901204870FFE700E0FFE70198F8
:1031D0004078022804D1FFE73C48FFF77DFD03E07B
:1031E0003A48FFF782FDFFE7019800F019F802B0B6
:1031F00080BDC04680B582B0019000200090064896
:10320000806806490840009001980C300099FDF74D
:10321000FFFC02B080BDC046C0070020FF0F0000C9
:1032200081B0009000990878401C087000980078E0
:103230000A2815D3FFE7009900200870009800794C
:10324000C00730B9FFE700990879012210430871DF
:1032500005E00099087A022210430872FFE7FFE7B1
:1032600001B0704780B50F48802101F06AFD40B180
:10327000FFE70C48802101F05BFD1448FFF750FB8D
:10328000FFE780BD80B50748102101F05AFD40B12D
:10329000FFE70448102101F04BFD0C48FFF7BEF991
:1032A000FFE780BD002C014080B50748022101F0F6
:1032B00048FD40B1FFE70448022101F039FD034811
:1032C000FFF766FCFFE780BD0004004044000020DB
:1032D00080B52E48002101F083FE80BD80B52B48CB
:1032E000002101F0A1FE80BD80B582B01748019099
:1032F0000199086B096C884209D2FFE7064800680B
:10330000019B1A6B9918521C1A63087202E0FFF7AE
:10331000DFFFFFE702B080BD2438014080B582B0F6
:103320000A480190019AD16B5018491CD163007F63
:10333000074908600199C86B496B884203D1FFE7D0
:10334000FFF7CCFFFFE702B080BDC0466806002053
:103350002838014080B50D480D4901F0FBFD38B11A
:10336000FFE70A480A4901F0D5FDFFF7BDFFFFE777
:103370000648084901F0EEFD38B1FFE7034805496A
:1033800001F0C8FDFFF7CAFFFFE780BD003801402C
:10339000050005070600060781B001466846017072
:1033A000007840B200280DD4FFE76846007841B2AB
:1033B0001F200A4602400120904049098900024A24
:1033C0008850FFE701B0704700E100E070B582B0BF
:1033D000024601A802700091007840B2002817D47C
:1033E000FFE701A9087840B20322D3431840384AC6
:1033F0008058097849B28C07E50EFF24AC40A04301
:10340000009CA401E4B2AC402043194088501AE06B
:1034100001A908780F24204008380322D34318401C
:103420002A4A8058097849B28D07EE0EFF25B5402B
:10343000A843009DAD01EDB2B540284321400839B5
:1034400019408850FFE702B070BDC04670B582B029
:10345000024601A802700091007840B2002817D4FB
:10346000FFE701A9087840B20322D3431840184A65
:103470008058097849B28C07E50EFF24AC40A04380
:10348000009CA401E4B2AC402043194088501AE0EB
:1034900001A908780F24204008380322D34318409C
:1034A0000A4A8058097849B28D07EE0EFF25B540CB
:1034B000A843009DAD01EDB2B54028432140083935
:1034C00019408850FFE702B070BDC0461CED00E017
:1034D00000E400E082B0019000200090FFE7009837
:1034E000019A0A215143884205D2FFE7FFE700987D
:1034F000401C0090F3E702B0704700006F49086875
:10350000082210430860FFE76C48006800070028A5
:1035100001D5FFE7F8E7694908680422104308600D
:10352000FFE7664800684007002801D5FFE7F8E795
:103530007047C04683B0024602A80270019100782D
:103540000090012804D0FFE7009802280FD01DE06A
:1035500011490A680F20000582430A60019A12058A
:103560000C4BD21802400868104308600FE08849ED
:103570000A680320000582430A60019A1205054B80
:10358000D218024008681043086000E0FFE703B06B
:103590007047C0460000F0FF2C24014081B000902D
:1035A000009838B1FFE74549086840F6000210432B
:1035B000086006E04149086840F600029043086050
:1035C000FFE701B07047C0463C49086840F200126E
:1035D000104308607047C04638480068C00730B9DB
:1035E000FFE736490868012210430860FFE770478B
:1035F00082B001AA1070684601700078D0B1FFE770
:1036000001A80078C00738B1FFE72C4908680122FB
:10361000120510430860FFE701A800788007002822
:1036200007D5FFE72549086848F200021043086003
:10363000FFE719E001A80078C00738B1FFE71F498C
:1036400008680122120590430860FFE701A800788E
:103650008007002807D5FFE7F649086848F200020E
:1036600090430860FFE7FFE702B0704783B002466F
:1036700002A80270019100780090012804D0FFE7B1
:10368000009802280BD015E0EA4908680722520486
:1036900090430860019A0868104308600BE0E54910
:1036A000086847F2000290430860019A08681043D6
:1036B000086000E0FFE703B07047C04608240140FF
:1036C000F0B586B005AE307004A801700392304AA0
:1036D000116803231B051940090D02AD29701168FB
:1036E000019129783378C91A052423464B430F21C9
:1036F000CB1A1F279F40019BBB43019303782D7872
:103700003678AD1B6C43091B8B400199194301911D
:10371000019911600078092817D8FFE7B5490868B2
:10372000009004AB1C7803200246624307249440B7
:10373000009AA2430092039A1B7858438240009853
:1037400010430090009808601FE004A80078122839
:1037500019D8FFE7A6490868009004AB1C7803203D
:10376000024662431E3A07249440009AA243009204
:10377000039A1B7858431E388240009810430090EB
:103780000098086000E0FFE7FFE706B0F0BDC04624
:103790003824014081B0009068460078C00730B1FD
:1037A000FFE7D0490868402210430860FFE76846F9
:1037B00000788007002806D5FFE7CA49086820225C
:1037C00010430860FFE7684600784007002806D5E8
:1037D000FFE7C4490868802210430860FFE701B092
:1037E0007047C04681B00090009A2B49086890430A
:1037F000086001B07047C04684B0039002A9002061
:10380000087003980090012808D0FFE7009802286C
:1038100017D0FFE70098042826D038E01E4800683B
:10382000012108400190AF4800684006002807D5F4
:10383000FFE7019820B1FFE702A901200870FFE728
:1038400026E015480068022108400190A54800685C
:103850008006002807D5FFE7019820B1FFE702A9FD
:1038600001200870FFE713E00B48006804210840BE
:1038700001909C4800680006002807D5FFE70198E2
:1038800020B1FFE702A901200870FFE700E0FFE791
:1038900002A8007804B070470024014010B585B03C
:1038A000034604A8037003AB197002920078052840
:1038B00018D8FFE74D490868019004AB1C78052033
:1038C000024662431F249440019AA243019203AA34
:1038D00012781B7858438240019810430190019858
:1038E000086040E004A800780B281AD8FFE73E499A
:1038F0000868019004AB1C780520024662431E3A1A
:103900001F249440019AA243019203AA12781B78C3
:1039100058431E3882400198104301900198086076
:1039200020E004A800780F281AD8FFE72D4908687E
:10393000019004AB1C780520024662433C3A1F24E8
:103940009440019AA243019203AA12781B7858432B
:103950003C3882400198104301900198086000E0D3
:10396000FFE7FFE7FFE703A80078092817D8FFE77C
:1039700020490868009003AB1C780320024662438C
:1039800007249440009AA2430092029A1B7858435D
:103990008240009810430090009808601FE003A840
:1039A0000078122819D8FFE711490868009003AB86
:1039B0001C780320024662431E3A07249440009A72
:1039C000A2430092029A1B7858431E388240009806
:1039D000104300900098086000E0FFE7FFE705B0A3
:1039E00010BDC0462C240140302401403424014045
:1039F0000C2401401024014081B00146684601704A
:103A00000078C00738B1FFE73749086801229205FE
:103A100010430860FFE7684600788007002807D554
:103A2000FFE7314908680122520510430860FFE7AB
:103A300001B070470824014082B0019068460170CF
:103A4000007830B3FFE701A84078C00738B1FFE73E
:103A50002449086840F2001210430860FFE701A8FB
:103A600040784007002807D5FFE71E49086840F264
:103A7000004210430860FFE701A800788007002893
:103A800006D5FFE718490868022210430860FFE7DF
:103A900025E001A84078C00738B1FFE71149086860
:103AA00040F2001290430860FFE701A84078400709
:103AB000002807D5FFE70B49086840F20042904311
:103AC0000860FFE701A800788007002806D5FFE717
:103AD00005490868022290430860FFE7FFE702B04B
:103AE0007047C046042401400824014081B00146CB
:103AF000684601700078142141436E4A88580123BA
:103B00009843885001B0704781B001466846017003
:103B1000007814214143674A88580123184388508C
:103B200001B0704781B001466846017000781421E9
:103B30004143604A885820231843885001B0704799
:103B4000B0B581B001466846017001781422134671
:103B50004B43584C19590125A94319510178134673
:103B60004B4300211951047813466343504C1951BB
:103B70000478134663434C4C195103785A434B4B1A
:103B8000D150007880000F2282400349086810431A
:103B9000086001B0B0BDC04604000240B0B584B0BA
:103BA000024603A80090027002910078FFF79EFF82
:103BB000009B029800681C7814210A4662433A4C24
:103BC0001051029880681C780A466243374C1051A5
:103BD0000298008A1C780A466243354C10511A78C4
:103BE00008465043334A80580190019843F60074C8
:103BF000A043019002984468C5682C43406904437F
:103C000001982043019001981B78594388500298ED
:103C1000007E01280AD1FFE703A800781421414360
:103C2000244A885840231843885009E003A80078A4
:103C3000142141431F4A8858402398438850FFE786
:103C40000298407E01280AD1FFE703A800781421DA
:103C50004143184A885880231843885009E003A834
:103C6000007814214143134A885880239843885090
:103C7000FFE70298807E50B9FFE703A8007814217F
:103C800041430C4A885810239843885009E003A800
:103C9000007814214143074A88581023184388505C
:103CA000FFE704B0B0BDC04610000240140002405F
:103CB0000C0002400800024086B005900491039277
:103CC0000598006A01900598406A009002A90020BA
:103CD0000880FFE702A8008807281DD8FFE702A890
:103CE00001880398C840C00780B1FFE702A8018897
:103CF00089000F228A40019991430191049900881B
:103D000080008140019808430190FFE7FFE7029897
:103D1000401C02A90880DDE702A908200880FFE70F
:103D200002A800880F281FD8FFE702A8018803987F
:103D3000C840C00790B1FFE702A801888900203978
:103D40000F228A40009991430091049900888000D5
:103D500020388140009808430090FFE7FFE7029871
:103D6000401C02A90880DBE70198059908620098C9
:103D70000599486206B0704782B0019000910098A2
:103D80000199886202B0704787B00690059104924D
:103D900003930698006801900698C068009002A9F5
:103DA00000200880FFE702A800880F282BD8FFE733
:103DB00002A801880398C840C007F0B1FFE702A835
:103DC00001884900032213468B40019999430191D0
:103DD000059B018849008B40019919430191018895
:103DE00049008A400099914300910499008840005D
:103DF0008140009808430090FFE7FFE70298401CCD
:103E000002A90880CFE701980699086000980699F2
:103E1000C86007B0704710B586B0059004A801705F
:103E2000039202930078012806D1FFE7029A0599D0
:103E300048681043486005E0029A05994868904335
:103E40004860FFE705988068009001A9002008807D
:103E5000FFE701A800880F281DD8FFE701A8018807
:103E60000298C840C00780B1FFE701A80188490057
:103E700003228A40009991430091039900884000F1
:103E80008140009808430090FFE7FFE70198401C3D
:103E900001A90880DDE700980599886006B010BD8B
:103EA00080B582B00020019072B6FCF753FAFCF79F
:103EB000E9FAFCF7EFF9FCF7B5FAFCF7E7FBFCF7DA
:103EC000B3FCFCF7C3FBFCF70BFDFCF7ABFC0649AE
:103ED00008461C300831054AFCF7CEFA62B6FFE707
:103EE0000348FFF7D5F8FBE768060020E00700204D
:103EF0003006002080B584B00A46014603A8019030
:103F0000017002A90A70007840B20978FFF75EFAE2
:103F10000198007840B2FFF73FFA04B080BD00007E
:103F200082B00190009101980099044A1140084321
:103F300003490860BFF34F8F02B0704780FFFF1F37
:103F400008ED00E082B0014601A801705D4A1168E9
:103F50004CF20003994311605B4A11685B4B1940B6
:103F6000116000780090092800D9A7E000998A0024
:103F700001A080188746C04600F012B800F01CB8B7
:103F800000F026B800F02EB800F03BB800F046B8BC
:103F900000F056B800F061B800F071B800F07CB8DD
:103FA000494908680122120490430860086840F2F9
:103FB00000129043086082E043490868012212041D
:103FC00010430860086840F200129043086076E0F1
:103FD000F64908680860F949086840F20012104381
:103FE00008606CE0F14908680860F449086801223B
:103FF000D20710430860086840F2001210430860BE
:104000005DE0EA49086844F2000210430860EB49A9
:10401000086840F200121043086050E0E349086865
:1040200044F2000210430860E44908680122D20704
:1040300010430860086840F20012104308603EE038
:10404000DA49086848F2000210430860DB49086852
:1040500040F200121043086031E0D449086848F289
:10406000000210430860FA4908680122D207104391
:104070000860086840F20012104308601FE0CB4956
:1040800008684CF2000210430860F149086840F2E9
:1040900000121043086012E0C44908684CF20002A4
:1040A00010430860EA4908680122D20710430860FB
:1040B000086840F200121043086000E0FFE702B019
:1040C0007047C0460410024030100240FFFEFE7FE1
:1040D0009DB01CA90870002002901B901A901990A6
:1040E00018901790169015901490139012901190AC
:1040F00010900F900E900D900C90AA490B91AA4928
:104100000A91099008900791069005910490A7489C
:1041100000680C21084080081B901B98039040B158
:10412000FFE70398012807D0FFE70398022806D08D
:1041300044E0A148179044E09F48179041E09B4815
:1041400001680F2292041140890C1191006801212D
:10415000C9060840C00E10901098012804D1FFE74E
:104160001198113011900BE011980F2803D1FFE73F
:104170001020119003E01198801C1190FFE7FFE7D9
:104180008A480068012109040840000C0F900F982C
:1041900070B1FFE7874800680F210840401C0E906F
:1041A0000E998548B0FBF1F111984843179004E04F
:1041B00011997F4848431790FFE702E07E48179027
:1041C000FFE77A480168C9B209090D910D9A08A95B
:1041D000895C0C9117990C9AD1401691016840F2B4
:1041E00000721140090A0D910D9A06A9895C0C9183
:1041F00016990C9AD1401591006843F600010840C9
:10420000C00A0D900D9904A8405C0C9016980C996A
:10421000C84014901CA800780190052800D9BCE083
:1042200001998A0001A080188746C04600F00AB8AC
:1042300000F00BB800F00CB800F00DB800F00EB8AC
:1042400000F07DB817981890A8E016981890A5E08F
:1042500015981890A2E0149818909FE07C48006888
:1042600040F20011084088420FD0FFE7784800680C
:10427000012109040840884203D0FFE75148139008
:1042800002E04F481390FFE756E0CF48006880B245
:10429000800B1A906E480068C00F19901A98009011
:1042A000032847D800998A0001A080188746C04695
:1042B00000F006B800F012B800F01EB800F02CB8FC
:1042C000199820B9FFE714984008139005E0169854
:1042D0000321B0FBF1F01390FFE72CE0199820B90F
:1042E000FFE714988008139005E016980521B0FBAD
:1042F000F1F01390FFE71EE0199830B9FFE714982A
:104300000621B0FBF1F0139005E016980721B0FBF1
:10431000F1F01390FFE70EE0199820B9FFE7149829
:10432000C008139005E016980921B0FBF1F0139036
:10433000FFE700E0FFE7FFE7139818902EE04448FE
:104340000068800718B9FFE71498129022E04048EF
:10435000006803210840012803D1FFE71798129055
:1043600017E03B48006803210840022804D1FFE71A
:1043700048F2000012900BE0354800680321084025
:10438000032803D1FFE70C48129000E0FFE7FFE7A6
:10439000FFE7FFE71298189000E0FFE718981DB0BC
:1043A0007047C046060708090102030404100240D2
:1043B00000093D002C10024000127A00301002402B
:1043C000003FAB01809FD50081B001466846018067
:1043D00000881F220146114001238B408109784A41
:1043E00088581843885001B07047C04681B00146D4
:1043F0006846018000881F220146114001238B403E
:1044000081096F4A88589843885001B07047C04668
:1044100081B001466846018000881F220146114094
:1044200001238B408109664A88581843885001B09F
:104430007047C04681B00090054908680322904348
:104440000860009A08681043086001B07047C046D1
:104450003010024080B582B040F200300190FFF78A
:10446000D7FF0198FFF7C2FF02B080BD81B0009076
:10447000009A034908681043086001B07047C046BD
:104480000000014087B00020069005904C49086864
:10449000012210430860FFE70698401C0690484838
:1044A0000068022108400590FFE70599002001906F
:1044B00041B9FFE7069840F20051401A411E884179
:1044C0000190FFE70198C0070028E5D1FFE73C48CD
:1044D00000688007002802D4FFE7FFE7FEE73949BC
:1044E0000868022210430522904308603649009173
:1044F000086890221043086008680860086808602F
:104500000868324A104008600868314A1043086061
:104510002B4908680122120610430860FFE728486B
:1045200000688001002801D4FFE7F8E72649086801
:1045300004900498032290430490049802221043AC
:10454000049004980860FFE71F4800680C210840A9
:10455000082801D0FFE7F7E7FFE700200390FFE717
:1045600003987F2805D8FFE7FFE70398401C0390D6
:10457000F6E71549086802900298F02290430290ED
:104580000298802210430290029808600020039055
:10459000FFE703987F2805D8FFE7FFE70398401C53
:1045A0000390F6E70849086802900298F0229043C9
:1045B00002900298029002980860FFE707B07047E7
:1045C000001002400020024004100240FFFFC2F72A
:1045D0000000040880B5FFF755FF80BD81B0009052
:1045E0000098042806D1FFE7064908680422104312
:1045F000086005E003490868042290430860FFE76B
:1046000001B0704710E000E081B0009000990868A8
:1046100080229043086001B0704782B00190009101
:10462000009908884A8810438A881043CA88104332
:104630000A8910434A8910438989084301994864CB
:1046400002B0704781B00090009900200880009966
:104650004880009988800099C88000990881009955
:1046600048810099888101B07047000084B00390B0
:1046700002A80180019200880090032800D964E11B
:1046800000998A0001A080188746C04600F006B84D
:1046900000F063B800F0CBB800F023B90399086AC2
:1046A000012290430862039988690322904388613C
:1046B000019802880399086A104308620399086AFE
:1046C000022290430862019882880399086A104385
:1046D000086203989E4988420FD0FFE703989D49DE
:1046E00088420AD0FFE703989B49884205D0FFE73C
:1046F00003989A4988422FD1FFE70399086A042258
:1047000090430862019842880399086A104308623E
:104710000399086A0822904308620198C2880399A5
:10472000086A104308620399486840F200129043F7
:1047300048600198028903994868104348600399CA
:10474000486840F2002290434860019842890399EA
:10475000486810434860FFE7F8E00399086A1022B0
:10476000904308620399886940F20032904388615F
:104770000198008802010399086A104308620399AE
:10478000086A2022904308620198808802010399F8
:10479000086A1043086203986D49884233D1FFE7E5
:1047A0000399086A402290430862019840880201F8
:1047B0000399086A104308620399086A80229043AB
:1047C00008620198C08802010399086A10430862D0
:1047D0000399486840F2004290434860019800897C
:1047E000820003994868104348600399486840F67E
:1047F000000290434860019840898200039948680C
:1048000010434860FFE70398F64988420ED1FFE75E
:104810000399486840F2004290434860019800893B
:1048200082000399486810434860FFE78EE00399CF
:10483000086A40F20012904308620399C869032293
:104840009043C8610198008802020399086A1043E6
:1048500008620399086A40F20022904308620198B6
:10486000808802020399086A104308620398DC49B1
:10487000884235D1FFE70399086A40F2004290432D
:1048800008620198408802020399086A104308628E
:104890000399086A40F60002904308620198C088B4
:1048A00002020399086A104308620399486841F2BA
:1048B000000290434860019800890201039948680A
:1048C000104348600399486842F2000290434860F0
:1048D0000198408902010399486810434860FFE746
:1048E00034E00399086A41F2000290430862039998
:1048F000C86940F200329043C86101980088020301
:104900000399086A104308620399086A42F2000298
:10491000904308620198808802030399086A104353
:1049200008620398F74988420ED1FFE70399486867
:1049300044F2000290434860019800898201039983
:10494000486810434860FFE700E0FFE704B07047A5
:10495000002C01400040014000440140004801405B
:1049600084B0039002A8018001A90A800088009009
:10497000032841D800998A0001A080188746C046C4
:1049800000F006B800F010B800F01CB800F026B82F
:104990000399886970229043886101A8028803996D
:1049A00088691043886128E00399886947F200020A
:1049B0009043886101A80088020203998869104326
:1049C00088611AE00399C86970229043C86101A800
:1049D00002880399C8691043C8610EE00399C86949
:1049E00047F200029043C86101A8008802020399BF
:1049F000C8691043C86100E0FFE704B070470000D9
:104A000084B0039002A801800192008800900328DE
:104A10001CD800998A0001A08018874600F006B8CB
:104A200000F008B800F00AB800F00CB8019803993B
:104A300048630CE001980399886308E001980399A2
:104A4000C86304E001980399086400E0FFE704B03C
:104A50007047000084B0039002A8018001A90A8079
:104A600000880090032841D800998A0001A080188E
:104A70008746C04600F006B800F010B800F01CB839
:104A800000F026B80399886908229043886101A83C
:104A90000288039988691043886128E0039988692E
:104AA00040F600029043886101A800880202039941
:104AB0008869104388611AE00399C8690822904305
:104AC000C86101A802880399C8691043C8610EE053
:104AD0000399C86940F600029043C86101A80088A4
:104AE00002020399C8691043C86100E0FFE704B0FF
:104AF000704781B00090009900200880009948809C
:104B0000009988800099C88000990881009948819F
:104B100001B0704780B58AB00990099808907A4929
:104B2000884226D0FFE708982C49884229D0FFE721
:104B30000898764988422CD0FFE708987149884246
:104B40000FD0FFE70898724988422BD0FFE70898FA
:104B5000704988422FD0FFE708986F49884232D0C9
:104B600039E025480790FFF753FC0798FFF73EFC14
:104B700032E020480690FFF74BFC0698FFF736FC22
:104B80002AE01B480590FFF743FC0598FFF72EFC31
:104B900022E040F208400490FFF73AFC0498FFF747
:104BA00025FC19E040F210300390FFF731FC039828
:104BB000FFF71CFC10E00D480290FFF729FC02985B
:104BC000FFF714FC08E008480190FFF721FC01986A
:104BD000FFF70CFC00E0FFE70AB080BD00100040CA
:104BE000002C0140004001401203000011030000AE
:104BF00004040000010400000B03000081B00090D9
:104C00000099086801229043086001B0704781B0A4
:104C100000900099086801221043086001B07047B5
:104C200082B00190009100980088019988620198F3
:104C30003449884205D0FFE701983349884212D1B0
:104C4000FFE7019908687022904308600098428845
:104C500001990868104308600098828801990868E3
:104C600010430860FFE7009880680199C8620198C6
:104C70002449884219D0FFE701982349884214D07B
:104C8000FFE70198214988420FD0FFE701982049AA
:104C900088420AD0FFE701981E49884205D0FFE705
:104CA00001981D4988420DD1FFE70199086840F23B
:104CB0000032904308600098C28801990868104348
:104CC0000860FFE701980F4988420FD0FFE701987D
:104CD0000F4988420AD0FFE701980E49884205D063
:104CE000FFE701980C49884205D1FFE70098007B57
:104CF00001990863FFE7019948690122104348615F
:104D000002B07047002C0140000400400020004029
:104D100000400140004401400048014082B0019041
:104D20000091009A0199C8681043C86002B07047AA
:104D300082B0019000910098C0430199086102B0CF
:104D4000704784B003900291694600200870039870
:104D5000C0680299084001900398006902990842CE
:104D600007D0FFE7019820B1FFE7694601200870EE
:104D700003E0694600200870FFE76846007804B049
:104D8000704782B00190684601700078012807D111
:104D9000FFE70199486C48F200021043486406E0BE
:104DA0000199486C48F2000290434864FFE702B062
:104DB0007047000081B000900099002008800099A1
:104DC000488000998880009A034991600099C880C2
:104DD0000099087301B07047FFFF000080B588B0EC
:104DE0000790069100200590049003900290079888
:104DF0000190374988420AD0FFE701983549884237
:104E00000AD1FFE70520FFF763F9059005E00220CE
:104E1000FFF75EF9059000E0FFE7079800680004DF
:104E2000002818D5FFE70598400006994A08801821
:104E3000B0FBF1F0029002981349084004900298E8
:104E40000007400F039004A8008803A909880843BD
:104E50000799C86016E0059806994A088018B0FBC3
:104E6000F1F00290029808490840049002980F213E
:104E70000840039004A8008803A9098808430799FB
:104E8000C860FFE708B080BDF0FF000080B584B0C7
:104E90000390039802900E4988420DD0FFE70298D4
:104EA0000C49884210D1FFE70C480190FFF7B0FA97
:104EB0000198FFF79BFA08E007480090FFF7A8FA6F
:104EC0000098FFF793FA00E0FFE704B080BDC0460A
:104ED0000044004000380140110400000E030000AF
:104EE00081B000900099086801221043086001B069
:104EF000704782B001906846018000881F220146F9
:104F0000114001238B400199820988581843885029
:104F100002B0704782B00190009100980C4988421D
:104F200008D1FFE70199D022885848F2000398433E
:104F300088500BE000981F2109040840000C012252
:104F400082400199086A10430862FFE702B0704787
:104F500009340F3410B585B00490039100200290FD
:104F60000190049803A9098889094058039C1F23CC
:104F70001C4001210A46A240104002900498039A66
:104F8000920D8058039A1B041A40120C914008405D
:104F90000190019838B1FFE7029820B1FFE7694618
:104FA0000120087003E0694600200870FFE76846AA
:104FB000007805B010BD82B0019000910199086899
:104FC0000122904308600199086840F20062904312
:104FD0000860009A019908681043086002B07047A1
:104FE00082B0019000910199086804229043086002
:104FF000009A019908681043086002B0704782B0B7
:10500000019000910199086801229043086001997C
:10501000486843F2000290434860009A019948684A
:105020001043486002B0704782B00190009101992E
:105030000868082290430860009A019908681043A4
:10504000086002B0704782B0019000910199086831
:105050000122904308600199086841F200029043E0
:105060000860009A019908681043086002B0704710
:105070009050000800000020C00600001E0200083A
:1050800058520008C0060020200D00001001000842
:10509000111302011A01042C0201020B1202220157
:1050A00013A11F5B08CD04290C1325201B088104C4
:1050B0001AF90C1A51082904290C2914291C410237
:1050C000330E1440420FE3FFFF1AF480092A100147
:1050D0002423330323AA0223641E547493181AA2B0
:1050E000141AB24CF21432962914192FB910110265
:1050F000222032642399091BCC0C0822191485EB59
:1051000051DC7B14AEE2892CB9A44A33386978515A
:10511000297419043914CA10AC291429D429346902
:1051200018290C4123DB68FC2597FF7819EF2947E4
:1051300039084114C2F5288C3E0AD72822400312B0
:1051400066065AA30481095638690C1485EB51FC94
:105150007B14AEC00118293829FC23A08C235046AB
:105160009B201C5C1908291C1A68F532B423D00254
:10517000B20A3223023B1F23AA2472644BBC220CC6
:10518000196BD18BD30424812924B2080B1033036B
:10519000241AE814A9241AAABC2914C12934A92460
:1051A0001A2224E31027A9F0411A2C7D69485AF4E9
:1051B0000CE9B48B3C0F240B14740E240B1099993A
:1051C00090E9240B141E0524A9B4FC24BC3D242919
:1051D000B4E9D809122401B4A9D8239826F205E924
:1051E000FC1ABBF809122441320413E9261408857D
:1051F0002514083D241408C5221B082D101351271F
:105200001408A9231408192C1408352B1B08890429
:105210002D010203044813E1202A0804137D211BF9
:105220000815041A49041AB1041AAD142904290CEA
:105230002914291C29241402050315040105022B35
:1052400003016F01150B14D007101AE8BC81023B53
:08525000015A140401100000D2
:04000005080000CD22
:00000001FF
