:020000040800F2
:1000000068130020550100087701000879010008F5
:1000100000000000000000000000000000000000E0
:100020000000000000000000000000007B0100084C
:1000300000000000000000007D010008F930000809
:100040008101000881010008810100088101000888
:100050008101000881010008810100088101000878
:1000600000000000810100088101000881010008F2
:10007000B5020008BD340008E134000800000000AB
:10008000053500088101000800000000810100081A
:100090008101000881010008810100088101000838
:1000A0008101000881010008810100088101000828
:1000B00081010008000000000000000000000000B6
:1000C00081010008000000008101000800F002F832
:1000D00000F030F80CA030C8083824182D18671E1E
:1000E000A246AB4654465D46AC4201D100F022F830
:1000F0007E460F3EB6460FCC0126334200D0FB1A97
:100100003343A246AB4618476C5300008C530000A3
:100110000023002400250026103A01D378C1FBD823
:10012000520700D330C100D50B6070471FB51FBD0B
:1001300010B510BD00F061F81146FFF7F7FF03F0AE
:10014000FFFF00F079F803B4FFF7F2FF03BC00F003
:100150007FF800000E4802680E480240120C92021E
:100160000D4940F2000001C1121F002AFBD10B48CB
:1001700080470B480047FEE7FEE7FEE7FEE7FEE7A5
:10018000FEE7000007480849084A094B704700008D
:10019000E0F7FF1F0000FFFF0000002015310008FE
:1001A000CD000008680B002068130020680F0020B5
:1001B000680F002001E004C0091F0429FBD28B074F
:1001C00001D50280801CC90700D002707047002949
:1001D0000BD0C30702D00270401C491E022904D371
:1001E000830702D50280801C891EE3E70022EEE728
:1001F0000022DFE7704770477047754600F024F82B
:10020000AE46050069465346C008C000854618B092
:1002100020B5FFF7B7FF60BCB64600260027C0C573
:10022000C0C5C0C5C0C5C0C5C0C5C0C5C0C5403DAE
:10023000490849008D46704710B50446C046C0467F
:100240002046FFF780FF10BD00487047D006002011
:1002500001491820ABBEFEE726000200704770B5CA
:100260008C180578401C6B075B0F01D10378401C8C
:100270002A1106D10278401C03E00678401C0E705B
:10028000491C5B1EF9D12B0705D40023521E0DD447
:100290000B70491CFAE70378401CCB1A921C03E050
:1002A0001D780D70491C5B1C521EF9D5A142D8D394
:1002B000002070BD80B5042003F068FB38B1FFE773
:1002C000042003F059FB024802F0DEF8FFE780BD8E
:1002D0004400002080B586B040F200100121039157
:1002E00003F074FC0020009003F022FA039802212E
:1002F000049103F0E9F90098042105910322029288
:1003000003F096FB029A0398114603F091FB0399C0
:10031000084603F037FA039807210191490403F0D6
:100320006FFA03F01BFA0498059903F0CDF90098D1
:10033000039A052103F08EFA039A0621104603F072
:1003400089FA0199039A049803F084FA0298039AAF
:10035000082103F07FFA0399049803F013FA049834
:1003600047F2000103F04CFA059803F0DDFA03F0C0
:10037000FDF940F2E83001F0C9FF03F089F906B059
:1003800080BD80B582B00190012003F0FFFB02B078
:1003900080BD000080B584B00420029004F064FBAE
:1003A00002F078FE40F20060009004F05DF926480B
:1003B00004F05AF9254804F057F9254804F054F997
:1003C000244804F051F940F2087004F04DF9009807
:1003D00004F04AF9029803F005FF0020019004F0B0
:1003E00079F91D4804F040F91C4804F03DF91C4817
:1003F00004F03AF940F2005004F036F904F06FFAD4
:1004000040F2002004F078FA40F2004004F074FA60
:100410000198039003F0ACFF0390012003F0A8FFC4
:100420000390022003F0A4FF0390032003F0A0FF39
:1004300001460298039103F09BFF0390052003F00F
:1004400097FF039004B080BD110500001205000065
:100450000B060000010700000E0600000C0600005D
:100460000906000080B588B00020009003F040FC31
:1004700000980F49019101A908760E4A03920122C2
:100480004A7640F20022029240F6000204928876F8
:100490000222059243F20002069203F067FC0098E4
:1004A00003F018FC009803F0F9FB08B080BDC046CB
:1004B0004C2401403007002010B592B011901091EB
:1004C0000F920320019003F013FC08A8059003F09D
:1004D000F9FC01980599012204928A76119B0A93EE
:1004E0004A76002206920B9214230C93324B089307
:1004F0000A76099241F200020D9203F037FC0420C3
:10050000039003F0F5FB0398049B0599069A8A76FD
:10051000109C0A944B760B9206230C93274B08935E
:100520000A76099242F200020D9203F01FFC019834
:1005300003F0C2FB019803F0B3FC039803F0BCFB8B
:10054000039803F0ADFC1E480290802104F01DFFCB
:10055000019803F0A3FB0298402104F007FF0398E1
:1005600003F09CFB0220079003F0C2FB059803F008
:10057000A9FC049B0599069A07988B760F9C0A9410
:100580004B760B9240F200430C930E4B08930A7685
:1005900009920D9203F0EAFB079803F08DFB079890
:1005A00003F07EFC0699084804F0A4F8079803F0CD
:1005B00075FB12B010BDC0462838014024380140F8
:1005C000003801400C3001400030014080B5C54882
:1005D000022103F011FD80BD80B5C248042103F063
:1005E0000BFD80BD80B5BF4840F2004103F004FD23
:1005F00080BDC04680B5BB4840F6000103F0FCFC5E
:1006000080BDC04680B592B00920C0060A90002285
:100610000E9201230D93194603F006FD0A980D9BD7
:100620000E9A114603F047FD0A980D9903F0D4FC89
:100630000A980D990E9A0223119303F0F5FC0A987B
:100640000E9A119B114603F036FD0A98119903F09A
:10065000C3FC0A980D990E9A0423009303F0E4FC5E
:10066000009B0A980E9A114603F025FD00990A98FE
:1006700003F0B2FC0E99119B9A4810901A4603F0B1
:10068000D3FC009B0E991098119A03F0CDFC0E99A3
:100690001098119A40F20043019303F0C5FC0E99A3
:1006A0001098119A40F6000303F0BEFC0A980E9AC7
:1006B000119940F200130C9303F0B6FC0A980C9BBE
:1006C0000E990322089203F0F6FC0A980E9A1199EB
:1006D00040F200230F9303F0A7FC089A0A980E99A2
:1006E0000F9B03F0E8FC019B0A980E9A119903F006
:1006F0009BFC019B089A0A980E9903F0DCFC0A986F
:100700000C9A119903F008FC0A980F9A119903F0BA
:1007100003FC019A0A98119903F0FEFB0E9A1098B7
:10072000119942F20003029303F07EFC029B089AA7
:100730000E99109803F0BFFC0E9A1098119944F28C
:100740000003039303F070FC039B089A0E99109822
:1007500003F0B1FC0E9A1098119948F200030B9324
:1007600003F062FC089A0B9B0E99109803F0A3FC0F
:10077000029A1098119903F0CFFB039A10981199DF
:1007800003F0CAFB0B9A1098119903F0C5FB0E9A5F
:100790001098119941F20003049303F045FC049A68
:1007A0001098119903F0B8FB08990A980E9A202323
:1007B000099303F039FC08990A980E9A402305938F
:1007C00003F032FC08990A980E9A8023069303F0EE
:1007D0002BFC08990D9B0E9A109803F025FC0899A4
:1007E0000A980E9A102303F01FFC08990A980E9A93
:1007F0000823079303F018FC059A0E99109803F04C
:100800008BFB069A0E99109803F086FB059B0D9AB8
:100810001098119903F008FC059B089A0E991098FE
:1008200003F049FC069B0D9A1098119903F0FCFB0C
:10083000069B089A0E99109803F03DFC079A0E99B2
:10084000109803F069FB079B0E9A1098119903F01A
:10085000EBFB079B089A0E99109803F02CFC099A61
:100860000E99109803F058FB099B0E9A1098119955
:1008700003F0DAFB089A099B0E99109803F01BFC11
:100880000A980B9B0D990E9A03F0CEFB0A980B9BCE
:100890000E9A114603F00FFC0A980B9903F09CFB8B
:1008A0000C9B0D990E9A109803F0BEFB0C9B0E9AB0
:1008B0001098114603F0FFFB0C99109803F08CFB85
:1008C0000D990E9A0F9B109803F0AEFB0E9A0F9B9A
:1008D0001098114603F0EFFB1098119903F07CFB80
:1008E00012B080BD0004004880B582B0019001982C
:1008F000012806D1FFE70920C006012103F074FB9F
:1009000005E00920C006012103F066FBFFE702B005
:1009100080BD80B582B00D200021019103F03AFC2A
:1009200010200321009103F035FC00990C2003F006
:1009300031FC0E20022103F02DFC0198C04305215B
:1009400003F028FC02B080BD80B598B060480B90E1
:1009500004F026FB11A8009004F072FC00990B989B
:10096000012206920A80002204924A808A80594B12
:10097000139340F20023CB800A7304F097FB15A871
:10098000019004F0FCFA019A0499069B0B981380DD
:100990000423089353809180D1801181518104F008
:1009A000ABF8019A06990B9804F0A6F8019A0B98F7
:1009B0000221079104F0A0F8049A0B98114604F064
:1009C00065FA04990B986022029204F00FFA0499D8
:1009D0000B980822099204F083FA049A06990B985E
:1009E00004F054FA029A06990B9804F0FFF906995C
:1009F000099A0B9804F074FA049A07990B9804F07A
:100A000045FA029A07990B9804F0F0F90799099AA8
:100A10000B9804F065FA049A0B980321039104F0F3
:100A200035FA029A03990B9804F0E0F90399099AB0
:100A30000B9804F055FA28490868284A10400860C5
:100A40000DA8059004F044F8049A05990B9840F617
:100A500000030B8040F200434B805A238B80CA80F6
:100A600044F200030B814A8141F200028A8104F0C2
:100A70001AF806990B9804F0CAFB0B9804F00DFBCA
:100A800040F2E83001F042FC06990B9804F096FB26
:100A900007990B9804F092FB08990B9804F08EFBD1
:100AA00009990B9804F08AFB0B9810210A9104F025
:100AB00085FB0B9880210C9104F080FB0A990B9820
:100AC00004F072FB0B980C9904F06EFB18B080BD1B
:100AD000002C0140A08C0000202C0140AAFAFFFF4E
:100AE00080B582B001900198012806D1FFE7254822
:100AF00040F2002103F078FA05E0224840F200219C
:100B000003F06AFAFFE702B080BDC04680B58AB044
:100B10001048029003F00CFE03A8019003F0CAFEF7
:100B2000019902980022049240F20413039340F2C8
:100B3000007305930323089340F2002306932823B0
:100B40000993079203F01AFE029803F0E8FD0AB039
:100B500080BDC0460030014080B582B00190019850
:100B6000012806D1FFE7074840F2001103F03CFAE4
:100B700005E0044840F2001103F02EFAFFE702B04E
:100B800080BDC0460004004880B58CB008A9039120
:100B90004720019008800020049048808880254AE2
:100BA00002920A92C88008732348009004F07EFAEB
:100BB000009804F072FA019B029A039904980B8042
:100BC000488088800A92C88008731C48069004F008
:100BD0006DFA049906980122059204F057F90499D8
:100BE0000698602204F002F9049A0698114604F06F
:100BF00077F9069803F04EFF0599069804F0DEFA9F
:100C000006980221079104F0D9FA0698042104F00D
:100C1000D5FA0698082104F0D1FA0698102104F0BC
:100C2000CDFA069804F030FA0698079904F0BCFA59
:100C30000CB080BDFFFF0000002000400004004019
:100C400080B582B01148019004F066FB0198E12163
:100C5000C90204F009FB01980021009104F0ADFBEA
:100C60000099019804F0F1FB0099019804F0C9FB88
:100C70000198042104F0B6FB0198082104F0D6FB8A
:100C8000019804F091FB02B080BDC04600380140DD
:100C900084B0029001910198009002980078C007FA
:100CA00030B9FFE70299002048600098039091E076
:100CB000029800780007C00F00284DD0FFE7019888
:100CC00020B3FFE7029800784007C00F98B1FFE714
:100CD00002990A6A48688018486002994868CA6997
:100CE000096A5143884205D3FFE70020009002992A
:100CF0004860FFE709E00298406828B1FFE70299E1
:100D00004868401E4860FFE7FFE724E0029800784B
:100D10008007C00FA0B1FFE702990A6A48688018EF
:100D20004860029948680A69096A5143884206D3B3
:100D3000FFE701200090029900204860FFE709E0EA
:100D40000298406828B1FFE702994868401E486051
:100D5000FFE7FFE7FFE73AE00198D8B1FFE7029825
:100D600000784007C00F80B1FFE702994868401C37
:100D7000486002994868C969884205D3FFE70020A6
:100D8000009002994860FFE703E002990020486064
:100D9000FFE71BE0029800788007C00F88B1FFE7EB
:100DA00002994868401C486002994868096988426D
:100DB00006D3FFE701200090029900204860FFE77A
:100DC00003E0029900204860FFE7FFE7FFE7009893
:100DD0000390FFE7039804B0704781B0009000993A
:100DE0000020486001B0704710B581B000900099B4
:100DF000CB680A6888688413121B5A43801888607D
:100E0000009988688013486001B010BD82B00190DD
:100E100000910098800301998860009801994860CA
:100E200002B0704710B583B002900191019B987891
:100E3000032211464143C848415C89005918C96ED4
:100E40009967019B9C781146614341184978890054
:100E50005918C96ED96701998B785A4380188078E0
:100E600080000818C06E8022885001988078009019
:100E7000A0B1FFE70098012832D0FFE700980228D0
:100E80000CD0FFE7009803282AD0FFE70098042839
:100E900004D0FFE70098052822D043E0019AD06FE4
:100EA0004100906F8023D2588018884213D9FFE701
:100EB00002990868401C086002990868896888429D
:100EC00008D9FFE7029900200860019968220220F2
:100ED0008854FFE703E0029900200860FFE722E062
:100EE000019AD06F4100906F8023D25880188842B9
:100EF00013D2FFE702990868401C0860029908684D
:100F00008968884208D9FFE70299002008600199A2
:100F1000682202208854FFE703E00299002008605D
:100F2000FFE700E0FFE701986821405C02281ED13E
:100F3000FFE70198C06B02990969884212D2FFE766
:100F400002994868401C486002994868496988428B
:100F500007D9FFE702990020486001996922885467
:100F6000FFE703E0029900204860FFE7FFE703B0D6
:100F700010BDC04683B00290019169460020087000
:100F80000198C06E0299496888421DD2FFE7019816
:100F9000006F02994968884216D2FFE70198406FB6
:100FA0000299496888420FD2FFE702990868401CFD
:100FB0000860029908688968884204D1FFE7694699
:100FC00001200870FFE7FFE76846007803B070472C
:100FD00080B582B001900199086A496A88421ED89A
:100FE000FFE701990020C8610199086A496A8842AF
:100FF00014D1FFE70198806A28B1FFE701980168E2
:1010000001F079FF09E00198C06A28B1FFE7019972
:1010100044F20000C861FFE7FFE7FFE726E0019A1E
:10102000106A516A926A8918884207D8FFE70198C6
:1010300001F01EFF01994869C86116E0019A106A23
:10104000516A936AC918D26A8918884205D8FFE79D
:10105000019944F20000C86106E00199012088610D
:10106000019900200862FFE7FFE7FFE70199086A9E
:10107000401C086202B080BD83B0029001910199CA
:101080008878032242438C488018407880000818F2
:10109000C06EC867019880780090A0B1FFE7009803
:1010A000012833D0FFE7009802280CD0FFE7009812
:1010B00003282BD0FFE70098042804D0FFE700980E
:1010C000052823D045E00198C16F8903029A9268F0
:1010D0008423C0585043884213D2FFE7029908681E
:1010E000401C086002990868C968884208D9FFE76F
:1010F0000299002008600199682201208854FFE7C6
:1011000003E0029900200860FFE723E00198C16F27
:101110008903029A52688423C0585043884213D9E5
:10112000FFE702990868401C086002990868C968CE
:10113000884208D9FFE702990020086001996822D7
:1011400001208854FFE703E0029900200860FFE7D0
:1011500000E0FFE703B070470000002010B583B047
:1011600002900191019B9878032211464143524815
:10117000415C89005918C96E9967019B9C7811469A
:1011800061434118497889005918C96ED967019996
:101190008B785A438018807880000818C06E8022AF
:1011A0008850019880780090A0B1FFE7009801284E
:1011B00035D0FFE7009802280CD0FFE700980328FD
:1011C0002DD0FFE70098042804D0FFE700980528F9
:1011D00025D049E0019BD86F81030298C268986FBF
:1011E00080241B59C0185043884213D9FFE7029945
:1011F0000868401C0860029908680969884208D993
:10120000FFE70299002008600199682202208854B3
:10121000FFE703E0029900200860FFE725E0019B5B
:10122000D86F810302988268986F80241B59C01878
:101230005043884213D2FFE702990868401C0860B7
:10124000029908680969884208D9FFE702990020D5
:1012500008600199682202208854FFE703E00299A0
:1012600000200860FFE700E0FFE701986821405C8C
:1012700002281FD1FFE70198C06B02994969884293
:1012800013D9FFE702994868401C486002994868F2
:101290008969884208D9FFE70299002048600199CE
:1012A000692201208854FFE703E00299002048608A
:1012B000FFE7FFE703B010BD0000002084B00390FB
:1012C000029101926946002008700298C06E03994D
:1012D000C968884213D2FFE70298006F0399C96872
:1012E00088420CD2FFE70298406F0399C968884290
:1012F00005D2FFE703990868401C086091E0029955
:10130000C86E096F884215D9FFE70299C86E496F08
:1013100088420FD9FFE70299086F496F884204D9C4
:10132000FFE702990220887003E00299012088708B
:10133000FFE724E00299086F496F88420FD9FFE761
:101340000299C86E496F884204D9FFE702990320C9
:10135000887003E0029904208870FFE70EE002998C
:10136000C86E096F884204D9FFE70299002088708F
:1013700003E0029905208870FFE7FFE7FFE7029985
:10138000CA782F48805C8978884246D1FFE7039964
:101390004868401C486003994868496988423BD9BD
:1013A000FFE70399002048600398806820B9FFE7B1
:1013B0000198029908611EE0019802990969884222
:1013C00006D9FFE7019802990A69801AC86007E008
:1013D0000299486B0A69801A019A8018C860FFE771
:1013E00002980399896889004118C06808610198CA
:1013F00002990861FFE703988068062804D1FFE797
:10140000694601200870FFE703998868401C8860DE
:1014100002998878C870FFE7FFE703990020086009
:10142000FFE7039908680969884204D9FFE769461C
:1014300002200870FFE76846007804B07047C04695
:10144000EC05002010B582B00190019969220120BD
:101450008854019968228854019940F2582288548E
:101460000199A4200A58086B4B698C691B19CC6937
:101470001B190C6A1B194C6A1B198C6A1B19B0FBCF
:10148000F3F05043800B8863019940F28C200A5896
:10149000886B504340F294228A58B0FBF2F2A020AD
:1014A0000858504394228A58B0FBF2F040F2702260
:1014B00000928850019940F280100818896B01F061
:1014C0001AFD009A019940F208200818895801F085
:1014D000B8FC009A019940F298100818895801F058
:1014E000B0FC009A019940F2D0100818895801F018
:1014F000A8FC009A019940F240200818895801F090
:10150000FAFC019908463830896BFFF77FFC009A96
:101510000199885840F26023C8500199885840F2D8
:101520006423C8500199885840F26823C850019933
:10153000885840F26C23C850019C40F28820215802
:1015400040F2742021500199CB5808585843800B21
:10155000885002B010BD80B584B003900291019212
:1015600001980399C968884206D9FFE70198039951
:10157000CA68801A886007E00399086BCA68801AF5
:10158000019A80188860FFE701980399C860039961
:10159000086A48620399C869086203998869C86142
:1015A00003994869886103990869486103998868C3
:1015B0000861039908694A6980188A698018CA69AC
:1015C00080180A6A80184A6A801888620299A420E2
:1015D0000A58039BD86A9B6AB0FBF3F05043800B18
:1015E000886302983830FFF7FFFB02998868401C37
:1015F000886004B080BD80B582B0019001986821F8
:10160000405C70B1FFE7019940F26C200A589020CD
:1016100008585043800B886401984830FFF7E4FB7A
:10162000FFE702B080BD80B584B0039003986922C3
:10163000002102918154039A68230120D054039A17
:10164000507810700398016103984161039881619B
:101650000398C16103980162039841620398816213
:101660000398816003985830FFF7D0FB02990398E4
:101670003830FFF7CBFB029903984830FFF7C6FBE1
:10168000029803998C2288500399A82288500399C4
:10169000B82288500399BC2288500399C0228850F0
:1016A0000399D02288500399F8228850039940F278
:1016B00020128850039940F224128850039940F276
:1016C00028128850039940F238128850039940F24A
:1016D00048128850039940F24C128850039940F206
:1016E00064128850039940F268128850039940F2BE
:1016F00080128818895801F0FEFB039940F2981077
:10170000081840F29022895801F09BFB039940F29F
:10171000D010081840F28C220192895801F091FBF8
:10172000019A039940F208200818895801F089FBB2
:10173000039940F240228818895801F0DCFB029896
:10174000039940F258228854039A40F28421515858
:1017500040F27423D150039940F2AC22885004B077
:1017600080BD84B003900291019269460020087008
:10177000019B02998C228858C018885003990868E8
:10178000401C086003990868C968884220D1FFE7B7
:1017900003980368029A8C215058B0FBF3F0505024
:1017A0000298405803994968884208D8FFE7029890
:1017B0008C21405803998968884204D2FFE7694622
:1017C0000220087003E0694601200870FFE7FFE788
:1017D0006846007804B0704780B582B001900198E7
:1017E000C06C009000980199096A884204D9FFE70B
:1017F0000198006A0090FFE700980199496A8842C1
:1018000004D9FFE70198406A0090FFE7009801992A
:10181000896A884204D9FFE70198806A0090FFE74F
:10182000009801994860019801F022FB01994869EC
:10183000C8620198007E58BBFFE70199C86A896BAE
:10184000884220D9FFE701998A6B486C5043CA6AE5
:10185000B0FBF2F048630199486B496C884204D9A7
:10186000FFE70199486C4863FFE70199486B896C71
:10187000884207D8FFE70199012008760199886C12
:101880004863FFE703E00199486C4863FFE72AE0FB
:101890000199C86AC96B884220D2FFE70199CA6BD7
:1018A000886C5043CA6AB0FBF2F048630199486BF8
:1018B000496C884207D3FFE7019900200876019917
:1018C000486C4863FFE70199486B896C884204D2F1
:1018D000FFE70199886C4863FFE703E00199886C92
:1018E0004863FFE7FFE70199CA6A486B5043800BE2
:1018F000086302B080BD000089B00890079106928D
:1019000005A900200870069808998A6992008850F5
:10191000089880690090052828D800998A0001A0BD
:101920008018874600F00AB800F010B800F016B82A
:1019300000F008B800F00EB800F014B808990320C1
:10194000886114E008990120886110E0089904205A
:1019500088610CE008990220886108E00899052058
:10196000886104E008990620886100E0FFE7089894
:101970008069062854D1FFE70898006804A9088008
:1019800003A90020087002A901200870FFE702A83F
:10199000007805281BD8FFE7089802A90978890074
:1019A000405804A9098888420BD9FFE7029803A987
:1019B0000870089802A909788900405804A908808D
:1019C000FFE7FFE70298401C02A90870DFE703A8C1
:1019D000007841001448401807990A78805C8870A4
:1019E00005A90120087001A900200870FFE701A8DF
:1019F0000078052813D8FFE7089901A8007880002F
:101A00000858096A884204D2FFE705A90220087035
:101A1000FFE7FFE70198401C01A90870E7E7FFE72F
:101A200005A8007809B0704724060020F0B585B0FD
:101A3000049004990878FE231840087004990878E7
:101A4000FB2202921040087004990878F72738406A
:101A5000087004990878EF263040087004990878D7
:101A6000BF2420400870049908787F22009210401B
:101A70000870049948781840487004994878FD2205
:101A8000104048700499487830404870049948786C
:101A9000DF25284048700499487820404870009914
:101AA0000498019040780840019948700299049880
:101AB00003908078084003998870049988783840AA
:101AC0008870049988783040887004998878284014
:101AD0008870049988782040887004998878184024
:101AE0008870049988781040887004985030FFF707
:101AF00074F904987430FFF770F904989830FFF780
:101B00006CF90498BC30FFF768F9049840F228118A
:101B10004018FFF762F9049840F24C114018FFF7A3
:101B20005CF9049840F270114018FFF756F90498D8
:101B300040F294114018FFF750F9049840F2B811A0
:101B40004018FFF74AF9049840F2DC114018FFF7FB
:101B500044F9049840F200214018FFF73EF9049838
:101B600040F224214018FFF738F9049840F2482148
:101B70004018FFF732F9049840F26C214018FFF743
:101B80002CF9049840F290214018FFF726F905B08F
:101B9000F0BD81B00090009940F2B4228858401CFA
:101BA00088500099087801221043087001B07047EE
:101BB00070B5B0B02F902E912F9A2C232993D15C21
:101BC00001202A900143D1542F9A2B9251682C3234
:101BD000D26800232C9391422D9001D22C982D9005
:101BE0002A982B9A299B2D9CD15C6400FD25269573
:101BF00029400919D1542F9A279251682C329269A1
:101C00009142289001D92C9828902799299A289BAD
:101C1000885C9B00FB2420942040C01888542F9996
:101C200008462C3009788906C90FFFF731F82A9841
:101C30002EA921910C782F9A50232293D15C044035
:101C4000FE25239529400919D1542F9A24925168D1
:101C50005032D2689142259001D92C982590239D2D
:101C60002499229A269C259B885C5B002040C01802
:101C700088542F990846503009784906C90FFFF754
:101C800007F821992A980C782F9A74231D93D15C18
:101C9000044029400919D1542F9A1E929168743238
:101CA000D26891421F9001D22C981F90239D1E99BB
:101CB0001D9A269C1F9B885C5B002040C01888549E
:101CC0002F99084674300978C909FEF7E1FF219978
:101CD0002A980C782F9A98231A93D15C04402940B3
:101CE0000919D1542F9A1B9291689832D268914267
:101CF0001C9001D22C981C902A9A239D1B991A9B08
:101D0000269E1C9CC85C640030400019C8542F9962
:101D10000846983049781140FEF7BAFF21992A9871
:101D20000C782F9ABC231793D15C044029400919E1
:101D3000D1542F9A18929168BC32D268914219906E
:101D400001D22C9819901899179A269C199B885C97
:101D50005B002040C01888542F990846BC30497851
:101D60008907C90FFEF794FF2A982F9AE02314934E
:101D7000D15C0143D1542F9A1592D168E032D268D8
:101D80009142169001D92C9816902A98159A149B76
:101D9000269D169CD15C640029400919D1542F9AC4
:101DA0001292D168E03292699142139001D22C983C
:101DB00013901299149A209C139B885C9B002040DE
:101DC000C01888542F990846E03049784907C90F50
:101DD000FEF75EFF2A982F9A40F204130F93D15C0E
:101DE0000143D1542F9A1092D168D218D2689142EF
:101DF000119001D22C9811902A980F9B109A269D31
:101E0000119CD15C640029400919D1542F9A0D927C
:101E1000D168D218926991420E9001D92C980E90F7
:101E2000239D0F980D9A209C0E9B115C9B002140D6
:101E3000C91811542F99081849780907C90FFEF7D6
:101E400027FF21992A980C782F9A40F228130A9399
:101E5000D15C044029400919D1542F9A0B92116981
:101E6000D218D26891420C9001D22C980C90239DEC
:101E70000A980B9A269C0C9B115C5B002140C918A8
:101E800011542F9908184978C906C90FFEF700FFA9
:101E900021992A980C782F9A40F24C130793D15C21
:101EA000044029400919D1542F9A08921169D21877
:101EB000D2689142099001D92C980990239D0798E6
:101EC000089A269C099B115C5B002140C91811549B
:101ED0002F99081849788906C90FFEF7D9FE21996C
:101EE0002A980C782F9A40F270130493D15C044026
:101EF00029400919D1542F9A0592546851696143B8
:101F0000D218D2689142069001D22C980690239D57
:101F10000498059A269C069B115C5B002140C91819
:101F200011542F99081849784906C90FFEF7B0FED9
:101F300021992A980C782F9A40F294130193D15C3E
:101F4000044029400919D1542F9A02925169D2189C
:101F5000D2689142039001D22C9803900198029A82
:101F6000269C039B115C5B002140C91811542F99DA
:101F700008184978C909FEF78BFE2A9B2F9940F271
:101F80006C22885C184388542F9940F29022885C18
:101F90001843885430B070BD0349086801225205C7
:101FA000104308607047C0460824014081B000908B
:101FB00000980249086001B07047C046402C0140BB
:101FC000014800687047C04624200040A449002012
:101FD0000860A4490860A4490860A4490868024A46
:101FE000104008607047C046AAFAFFFF81B0009019
:101FF00000989B49086000989A49086000989A499F
:1020000008609A49086840F2111290430860086815
:10201000024A1043086001B07047C0464404000003
:1020200081B0009000988E4908608E4900200860B9
:102030008D4908608D49086840F20052904308605D
:10204000086855221043086001B0704781B00090C5
:10205000009883490860834900200860824908602D
:10206000824908685022904308600868234A104358
:10207000086001B07047C04681B0009078490020E8
:1020800008600099774A11607749086077490868C5
:1020900040F20052904308600868552210430860DF
:1020A00001B0704781B000906D4900200860009930
:1020B0006C4A11606C4908606C49086805229043BD
:1020C0000860086840F250521043086001B0704741
:1020D00081B0009062490020086062490860009861
:1020E00061490860614908685022904308600868A7
:1020F000024A1043086001B07047C0460505000061
:1021000081B0009056490020086056490860009848
:1021100055490860554908680522904308600868D9
:1021200040F250521043086001B0704781B00090F7
:1021300000984B49086000984A49086000984A494D
:1021400008604A490868054A10400860086840F27B
:1021500014121043086001B07047C046BEFBFFFF79
:1021600081B0009000983E49086000983D490860A1
:1021700000983D4908603D49086840F214129043B8
:1021800008600868024A1043086001B07047C04602
:102190004104000081B00090009831490860009827
:1021A0003049086000983049086030490868054A9D
:1021B00010400860086840F241121043086001B006
:1021C0007047C046EBFBFFFF81B0009000982449A8
:1021D0000860009823490860009823490860234953
:1021E000086840F24112904308600868024A1043B0
:1021F000086001B07047C0461404000081B0009030
:102200000098174908600098164908600098164918
:1022100008601649086840F2441290430860086854
:10222000024A1043086001B07047C0461104000024
:1022300081B0009000980A49086000980949086038
:1022400000980949086009490868094A104008606F
:10225000086840F244121043086001B07047C0465D
:10226000342C0140382C01403C2C0140202C0140F2
:10227000EEFBFFFF014800687047C046242C014078
:1022800081B000900098401E0149086001B070477D
:102290002C2C01400A490868034A104008600A498A
:1022A0000868104008607047F7F7FFFF04490868A6
:1022B000044A1043086004490868104308607047E6
:1022C000182C0140080800001C2C014081B000902F
:1022D0000D49002008600098044908600949086811
:1022E00001221043086001B07047C046340400402A
:1022F00004490868012290430860034900200860EF
:102300007047C046000400402404004083B002909F
:1023100000200190FFE701980299884210D2FFE760
:1023200000200090FFE7009828B9FFE7FFE700983A
:10233000401C0090F7E7FFE70198401C0190EAE796
:1023400003B0704780B584B0039003980079C0074C
:1023500000285AD0FFE7A148006803994867A148C0
:102360000068039988679E4800680399C8670398C6
:1023700001460831D830FEF7FDFD0146029140B11B
:10238000FFE7029801280FD0FFE70298022839D012
:1023900039E00398E421415840F2882280584843AC
:1023A000800BFFF723FE2FE0039AA820115840F27C
:1023B0008820105848439C215158B0FBF1F140F25D
:1023C0000C1010584843810B40F20410019011503A
:1023D0000399085840F2A82289584900401AFFF78B
:1023E000E5FD019A039840F200114158CB00D7490E
:1023F000C918037A9B00C95880588847039904205C
:10240000087001E000E0FFE70BE0039840F2902144
:102410004058FFF735FFFFF7D9FD039900200870FA
:10242000FFE704B080BDC04680B582B0019001983E
:102430000079C00760B1FFE7019840F29021405851
:10244000FFF71EFFFFF7C2FD01990020087019E099
:10245000019840F22811405801280CD1FFE701985B
:1024600040F22C11415840F2902280584843800B92
:10247000FFF7BCFD05E0019900200870FFF7A6FDFD
:10248000FFE7FFE702B080BD80B582B00190019800
:1024900001788A0002498958884702B080BDC04649
:1024A000C405002080B588B0079007980079C00760
:1024B00000B985E00798007A68B9FFE747480068E7
:1024C0000799486747480068079988674448006843
:1024D0000799C8670CE04148006807994867404879
:1024E0000068079988673F4800680799C867FFE751
:1024F0000798014608310391C0300490FFF760FD52
:10250000039902460498FEF7D9FE0146059140B1B1
:10251000FFE70598012817D0FFE7059802282FD07C
:102520004CE0FFF7A7FE06900698079940F2AC2210
:102530008A58801840F288228958884203D2FFE7DF
:10254000FFF72AFDFFE73AE0FFF7A4FE07980830FF
:10255000FEF778FF079840F290214058FFF790FE71
:102560000798817ACA0020498918027A920089580E
:1025700040F27822805888470799052008701EE0AD
:10258000079840F2882102914058FFF779FE029A9D
:102590000798E4210191415880584843800BFFF788
:1025A00005FD0199029A0798415880584843800BCD
:1025B000FFF71CFD07990320087000E0FFE70BE020
:1025C000079840F290214058FFF75AFEFFF7FEFCB3
:1025D000079900200870FFE708B080BD3C24014047
:1025E00044240140402401401400002080B582B002
:1025F000019001980079C007B0B3FFE70198014648
:102600000831B030DB4A1268FFF7ABF801460091A1
:1026100040B1FFE70098012815D0FFE70098022895
:1026200015D01FE0FFF726FE019940F2AC228A5830
:10263000801840F288228958884203D2FFE7FFF7CA
:10264000ABFCFFE70FE00199022008700BE0019955
:1026500040F2C422885C0423184388540199002066
:10266000087000E0FFE70BE0019840F2902140582D
:10267000FFF706FEFFF7AAFC019900200870FFE7AC
:1026800002B080BD80B582B00190FFF785FC02B03A
:1026900080BD000080B582B0019001980079C0072C
:1026A000002844D0FFE7FFF791FC0198014608316C
:1026B000E830B04A1268FFF71FF90146009140B1B7
:1026C000FFE70098012813D0FFE70098022821D0E7
:1026D0002BE0019840F200114158CA001B498918AB
:1026E000027A9200895840F20412805888471DE00F
:1026F000019840F2A4214058FFF758FCFFF7CAFDAB
:10270000019840F28C214058FFF7BAFD019905204D
:1027100008700BE0019940F2C422885C082318433A
:10272000885401990020087000E0FFE70BE0019851
:1027300040F290214058FFF7A3FDFFF747FC0199B5
:1027400000200870FFE702B080BDC046F4050020FD
:1027500080B582B0019001980079C00728B3FFE7E7
:10276000019940F278500858124A8958884208D393
:10277000FFE7019940F2C422885C02231843885481
:10278000FFE7FFF793FD019840F288214058FFF7DB
:1027900077FD01980830FEF746FFFFF717FCFFF7BB
:1027A000FBFB01990120087002E0FFF70FFCFFE737
:1027B00002B080BD7C05000080B584B00390039812
:1027C0000079C00700B9C0E00398007A68B9FFE754
:1027D00065480068039948676548006803998867F9
:1027E000624800680399C8670CE05F480068039975
:1027F00048675E480068039988675D4800680399E8
:10280000C867FFE75B480168039A9020115003995D
:1028100008589422895888420AD9FFE703999020E2
:10282000085894228A58801A80009822885004E020
:102830000399982200208850FFE703987021405C9C
:1028400048B9FFE703980146083140F2401280186A
:10285000FEF712FC0EE003987021405C012808D1BD
:10286000FFE703987121415C8A00434989588847F2
:10287000FFE7FFE703980830FEF7BDFEFFF7FAFC1D
:1028800002900298039940F2A8228A58801840F2D8
:102890007822895888420FD2FFE70298039940F2C4
:1028A000AC228A58801840F27C228958884203D290
:1028B000FFE7FFF771FB47E0039998200190085864
:1028C000086603986030FEF78FFA039AA02010582C
:1028D00040F210215050039A506E40F21423D05011
:1028E0000398401800F024FA039940F23020085869
:1028F00040F270228850039840F248214018FEF7B9
:102900006BFF039840F27C214058FFF7B9FC039815
:10291000817ACA00CC498918027A9200895840F21B
:10292000782280588847019A039940F2CC200858B1
:102930008958884207D2FFE703999820085840F247
:10294000CC228850FFE7FFE70BE0039840F290218C
:102950004058FFF795FCFFF739FB039906200870F4
:10296000FFE704B080BDC0463C2401404424014040
:102970004024014048240140E005002080B582B099
:102980000190FFF723FB019840F2C4214018FFF7A4
:1029900000F902B080BD000010B586B00590704906
:1029A0004A6870480240059B40F2D0241A510968D9
:1029B0000140059A8C201150059A105881009C20E6
:1029C00011500599085840F2C82288500599486C62
:1029D00040F2D42288500599486D40F2D8228850A0
:1029E000059840F2C4214118039101780020032981
:1029F00004900DDBFFE70598017801200022019289
:102A00000729029001DB0198029002980490FFE7E9
:102A10000398049901221140FFF7CAF8059940F282
:102A2000CC220020885005980078052800D088E046
:102A3000059800798007C00F50B3FFE7059940F271
:102A400064200A5840F29C2008585043800B40F202
:102A50008C128850059840F28811401800F008FA4E
:102A6000059A40F29C10105840F2A0115050059A5F
:102A7000506C40F2A413D0500598401800F058F95B
:102A8000059940F2C010085840F2682288500CE0C6
:102A9000059940F264200A5840F2942008585043A7
:102AA000800B40F268228850FFE7059800794007C4
:102AB000C00FB8B1FFE7059AA420105840F2D81112
:102AC0005050059A506D40F2DC13D05005984018D4
:102AD00000F02EF9059940F2F810085840F26C22E7
:102AE00088502DE0059800790007C00FF8B1FFE786
:102AF000059AA4201158A82010584843800B40F292
:102B0000D8115050059A536D9C2010585843800B93
:102B100040F2DC13D0500598401800F009F90599EF
:102B200040F2F810085840F26C22885007E00599EE
:102B300040F29420085840F26C228850FFE7FFE7EB
:102B40000CE005980078062807D1FFE7059840F2C9
:102B500010114018FEF73CFAFFE7FFE706B010BD82
:102B600030070020FF0F000080B584B00390039869
:102B70000146083140F26C128018FEF753F90398B1
:102B80007021405C022817D1FFE703980146083105
:102B900001910C300290FFF713FA01990246029856
:102BA000FEF7D9FC039840F278114158406B484336
:102BB000800BFFF78BFBFFE704B080BD81B0009076
:102BC00001B0704780B582B0019001980078052867
:102BD00033D1FFE701987021405C02281ED1FFE746
:102BE000FFF786FB019970220320885401998A7AA5
:102BF0001448805C88720198817ACA001249891849
:102C0000027A9200895840F27822805888470198C9
:102C100040F2B0214058FFF759FB0DE001987021B8
:102C2000405C032807D1FFE7FFF762FB01997022A0
:102C300000208854FFE7FFE702E0FFF759FBFFE7BA
:102C400002B080BDEC0500201400002080B584B0E7
:102C5000039003980146083140F250128018FEF7A5
:102C60007DFA03987021405C022814D1FFE7039895
:102C70000146083101910C300290FFF7A1F901994A
:102C800002460298FEF767FC039840F2B0214058D4
:102C9000FFF71CFBFFE704B080BD80B582B0019058
:102CA000019840F2C4214018FEF7C0FE02B080BD7A
:102CB00081B00090009840F2C421405801B07047A4
:102CC00082B001900091009840F2F311884204DC38
:102CD000FFE740F2F410009008E0009809498842AC
:102CE00003DBFFE708480090FFE7FFE70098800359
:102CF000054990FBF1F0019940F26422885002B03E
:102D00007047C046C5090000C409000081B00090AA
:102D10000099087901221043087101B0704781B011
:102D2000009000990879FE221040087101B07047A8
:102D3000B0B588B00790079908684968401A0690AE
:102D400007998B68069A0C6B101B5843CD68134685
:102D50006B43C0180B694D6B52196400121B5A4328
:102D600080184861079948698969884204DAFFE751
:102D700007984069059003E0079880690590FFE790
:102D800005980799C969884211DDFFE707994869E5
:102D90008969884204DAFFE707984069049003E0F4
:102DA000079880690490FFE70498039003E0079870
:102DB000C0690390FFE703980799486107994A693A
:102DC000486A801848620799486A896A8903884274
:102DD00004DAFFE70798406A029004E00798806AE7
:102DE00080030290FFE702980799C96A8903884225
:102DF00013DDFFE70799486A896A8903884204DA84
:102E0000FFE70798406A019004E00798806A800312
:102E10000190FFE70198009004E00798C06A8003E2
:102E20000090FFE70098079948620799486A801365
:102E300008620799086B486306980799086308B009
:102E4000B0BD82B001900091019900200860019905
:102E500048600199486101990863019948630098A5
:102E600001990862009880030199486202B0704796
:102E700082B0019001984068800300900098019909
:102E80000969884213DDFFE70098019A1169926889
:102E90008918884206DDFFE701998A680869801869
:102EA000086103E0009801990861FFE71DE00098C0
:102EB00001990969884213DAFFE70098019A1169BC
:102EC000D2688918884206DAFFE70199CA6808695A
:102ED0008018086103E0009801990861FFE703E0AA
:102EE000009801990861FFE7FFE7019908698013DD
:102EF000486102B0704782B0019000910098800351
:102F00000199086100980199486102B0704700007A
:102F100080B584B00390029102200190012100F05D
:102F200013FF019800F0ACFE0198039900F0A6FF92
:102F30000198029900F0DEFF019800F0AFFE03480F
:102F4000002101F0D7FB04B080BDC0460030014035
:102F500080B582B033480168491C01600068019067
:102F60000A281CD0FFE7019814281CD0FFE701981D
:102F70001E281CD0FFE7019828281CD0FFE70198E5
:102F800032281CD0FFE701983C281CD0FFE70198AD
:102F900046281CD0FFE7019864283BD03EE0002083
:102FA000FDF7DAFD3BE00120FDF7D6FD37E0E2203A
:102FB00000F065F833E02C2000F061F82FE02E20BF
:102FC00000F05DF82BE02F2000F059F827E0A22058
:102FD00000F055F8C02000F052F8A02000F04FF8A3
:102FE000402000F04CF8812000F049F81B2000F050
:102FF00046F82F2000F043F8AF2000F040F80A48D0
:1030000040F20041FDF7F2F800F010F805496420A5
:10301000086004E003496420086000E0FFE702B0B4
:1030200080BDC046500700206507002005480068A5
:1030300038B9FFE704490020087002490120086000
:10304000FFE77047540700206407002080B584B074
:10305000039002A8018001A80270007820B1FFE768
:103060000020FDF73DFD03E00120FDF739FDFFE7FE
:10307000039802A90988FFF74BFF04B080BD80B513
:1030800082B0014601A8017001221146FFF7DEFF60
:1030900002B080BD80B5044800F008F810B1FFE729
:1030A000FFE7FEE780BDC0464019010080B584B04F
:1030B00002900298401E000E18B1FFE70120039015
:1030C00011E00298401E0949086000200190C043A9
:1030D000032100F085FA019805490860054A072197
:1030E00011600390FFE7039804B080BD14E000E096
:1030F00018E000E010E000E080B5054800F01EF99F
:10310000F648FFF749FCDA48FDF73BF980BDC046B9
:103110003006002080B586B042490868012210437D
:103120000860FFE73F4800688007002801D4FFE7F8
:10313000F8E73D4800680C210840082835D1FFE732
:10314000FFE73949086804900498F02290430490FE
:103150000498802210430490049808600020059091
:10316000FFE705987F2805D8FFE7FFE70598401C93
:103170000590F6E72C49086804900498F0229043E3
:103180000490049890221043049004980860002052
:103190000590FFE705987F2805D8FFE7FFE705982A
:1031A000401C0590F6E7FFE7FFE71F49019108681B
:1031B000032290430860642000F056FA0199194AEE
:1031C00010681A4B184010600868194A10400860CF
:1031D0000868184A10400860174908680F22904391
:1031E00008601649086840F20312904308600868B6
:1031F000012202921304984308600868D307984399
:1032000008600F490868904308600E490020039049
:10321000086001F025FC02980399C00600F0D0FF79
:1032200006B080BD0010024004100240FFFFF2FE15
:103230000C00FF08FFFFC2772C1002403010024044
:10324000341002400810024080B582B0019001980D
:103250000079C007002852D0FFE7FFF779FEFDF79D
:10326000B5F948B1FFE7274927480860019908796F
:10327000022210430871FFE7FDF7AEF948B1FFE7FE
:1032800020490020086001990879FD22104008714A
:10329000FFE7FDF7A7F960B9FFE71C4800680128C0
:1032A00007D1FFE71749086840F2F4128018086058
:1032B000FFE7FDF79FF978B9FFE715480068012897
:1032C0000AD1FFE70F4940F2F4100860019908792C
:1032D000022210430871FFE7FDF784F90B490860EB
:1032E000FDF788F90A490860064801688E48FFF72B
:1032F000E7FC01990879FE2210400871FFE702B04F
:1033000080BDC04660070020C409000058070020A7
:103310005C07002080B582B00190002000905448E6
:10332000806854490840009000980199C86001984D
:103330000C30FDF759FD02B080BDC04680B582B0AB
:1033400001900198FFF7E6FF7748FFF7B1FC30B135
:10335000FFE70199087A012210430872FFE70198FC
:103360004078009003285BD800998A0001A080185B
:103370008746C04600F006B800F019B800F02BB838
:1033800000F03DB80199486B401C48630199486BB7
:10339000096B88420AD3FFE701990020486301982E
:1033A00000F052F8019901204870FFE739E00198D8
:1033B000806820B1FFE70199032048700AE0019876
:1033C00000798007C00F20B1FFE701990220487003
:1033D000FFE7FFE725E00198806820B1FFE701994A
:1033E000032048700AE0019800798007C00F20B9D7
:1033F000FFE7019901204870FFE7FFE711E001981E
:1034000000798007C00F50B9FFE70199002088605C
:103410004548FFF742FC019901204870FFE700E0B2
:10342000FFE701984078022804D1FFE73E48FFF704
:103430006DFC03E03C48FFF772FCFFE7019800F0E9
:103440001BF802B080BDC04680B582B0019000205C
:1034500000900748806807490840009001980C30A8
:103460000099FDF7D3FC0120FDF73EFA02B080BDC4
:1034700030070020FF0F000081B00090009908780D
:10348000401C0870009800780A2815D3FFE70099BF
:103490000020087000980079C00730B9FFE7009954
:1034A000087901221043087105E00099087A022288
:1034B00010430872FFE7FFE701B0704780B510487E
:1034C000802101F084FE40B1FFE70D48802101F02A
:1034D00075FE1548FFF752FAFFE780BD4400002053
:1034E00080B50748102101F072FE40B1FFE70448A3
:1034F000102101F063FE0C48FFF7C4F8FFE780BD20
:10350000002C014080B50748022101F060FE40B167
:10351000FFE70448022101F051FE0348FFF752FB88
:10352000FFE780BD000400404400002081B0014658
:1035300068460170007840B200280DD4FFE7684665
:10354000007841B21F200A460240012090404909FC
:103550008900024A8850FFE701B0704700E100E0AF
:1035600070B582B0024601A802700091007840B2A6
:10357000002817D4FFE701A9087840B20322D343FB
:103580001840384A8058097849B28C07E50EFF2464
:10359000AC40A043009CA401E4B2AC4020431940DD
:1035A00088501AE001A908780F2420400838032227
:1035B000D34318402A4A8058097849B28D07EE0E45
:1035C000FF25B540A843009DAD01EDB2B5402843AD
:1035D0002140083919408850FFE702B070BDC0464D
:1035E00070B582B0024601A802700091007840B226
:1035F000002817D4FFE701A9087840B20322D3437B
:103600001840184A8058097849B28C07E50EFF2403
:10361000AC40A043009CA401E4B2AC40204319405C
:1036200088501AE001A908780F24204008380322A6
:10363000D34318400A4A8058097849B28D07EE0EE4
:10364000FF25B540A843009DAD01EDB2B54028432C
:103650002140083919408850FFE702B070BDC046CC
:103660001CED00E000E400E082B00190002000903A
:10367000FFE70098019A0A215143884205D2FFE7EB
:10368000FFE70098401C0090F3E702B0704700008D
:103690006F490868082210430860FFE76C4800681B
:1036A0000007002801D5FFE7F8E769490868042208
:1036B00010430860FFE7664800684007002801D50E
:1036C000FFE7F8E77047C04683B0024602A80270E1
:1036D000019100780090012804D0FFE700980228AB
:1036E0000FD01DE011490A680F20000582430A60CF
:1036F000019A12050C4BD21802400868104308606A
:103700000FE088490A680320000582430A60019A95
:103710001205054BD218024008681043086000E00B
:10372000FFE703B07047C0460000F0FF2C240140C3
:1037300081B00090009838B1FFE74549086840F62D
:1037400000021043086006E04149086840F60002A4
:1037500090430860FFE701B07047C0463C490868E5
:1037600040F20012104308607047C04638480068B5
:10377000C00730B9FFE736490868012210430860E6
:10378000FFE7704782B001AA1070684601700078A8
:10379000D0B1FFE701A80078C00738B1FFE72C4996
:1037A00008680122120510430860FFE701A80078AD
:1037B0008007002807D5FFE72549086848F200027E
:1037C00010430860FFE719E001A80078C00738B18E
:1037D000FFE71F4908680122120590430860FFE7D0
:1037E00001A800788007002807D5FFE7F649086898
:1037F00048F2000290430860FFE7FFE702B070471D
:1038000083B0024602A8027001910078009001285E
:1038100004D0FFE7009802280BD015E0EA490868B9
:103820000722520490430860019A08681043086018
:103830000BE0E549086847F2000290430860019AEE
:1038400008681043086000E0FFE703B07047C04617
:1038500008240140F0B586B005AE307004A80170B0
:103860000392304A116803231B051940090D02AD6C
:1038700029701168019129783378C91A05242346E3
:103880004B430F21CB1A1F279F40019BBB43019342
:1038900003782D783678AD1B6C43091B8B4001995A
:1038A00019430191019911600078092817D8FFE7A1
:1038B000B5490868009004AB1C78032002466243B7
:1038C00007249440009AA2430092039A1B7858431D
:1038D0008240009810430090009808601FE004A800
:1038E0000078122819D8FFE7A6490868009004ABB1
:1038F0001C780320024662431E3A07249440009A33
:10390000A2430092039A1B7858431E3882400098C5
:10391000104300900098086000E0FFE7FFE706B062
:10392000F0BDC0463824014081B000906846007860
:10393000C00730B1FFE7D049086840221043086053
:10394000FFE7684600788007002806D5FFE7CA49E8
:103950000868202210430860FFE7684600784007A7
:10396000002806D5FFE7C449086880221043086094
:10397000FFE701B07047C04681B00090009A2B4924
:1039800008689043086001B07047C04684B0039057
:1039900002A90020087003980090012808D0FFE7D2
:1039A0000098022817D0FFE70098042826D038E0B6
:1039B0001E480068012108400190AF480068400699
:1039C000002807D5FFE7019820B1FFE702A90120F1
:1039D0000870FFE726E015480068022108400190C2
:1039E000A54800688006002807D5FFE7019820B1A8
:1039F000FFE702A901200870FFE713E00B48006809
:103A00000421084001909C4800680006002807D562
:103A1000FFE7019820B1FFE702A901200870FFE746
:103A200000E0FFE702A8007804B0704700240140DE
:103A300010B585B0034604A8037003AB1970029259
:103A40000078052818D8FFE74D490868019004ABB5
:103A50001C780520024662431F249440019AA24329
:103A6000019203AA12781B785843824001981043B0
:103A700001900198086040E004A800780B281AD84B
:103A8000FFE73E490868019004AB1C780520024618
:103A900062431E3A1F249440019AA243019203AA52
:103AA00012781B7858431E388240019810430190C9
:103AB0000198086020E004A800780F281AD8FFE7D2
:103AC0002D490868019004AB1C780520024662432A
:103AD0003C3A1F249440019AA243019203AA12780F
:103AE0001B7858433C38824001981043019001985C
:103AF000086000E0FFE7FFE7FFE703A80078092878
:103B000017D8FFE720490868009003AB1C78032012
:103B10000246624307249440009AA2430092029A0C
:103B20001B7858438240009810430090009808602A
:103B30001FE003A80078122819D8FFE71149086888
:103B4000009003AB1C780320024662431E3A072410
:103B50009440009AA2430092029A1B7858431E3860
:103B600082400098104300900098086000E0FFE752
:103B7000FFE705B010BDC0462C24014030240140B1
:103B8000342401400C2401401024014081B001463E
:103B9000684601700078C00738B1FFE73749086808
:103BA0000122920510430860FFE76846007880070D
:103BB000002807D5FFE73149086801225205104364
:103BC0000860FFE701B070470824014082B001900F
:103BD00068460170007830B3FFE701A84078C0075D
:103BE00038B1FFE72449086840F20012104308602A
:103BF000FFE701A840784007002807D5FFE71E49E6
:103C0000086840F2004210430860FFE701A800780E
:103C10008007002806D5FFE71849086802221043EC
:103C20000860FFE725E001A84078C00738B1FFE74A
:103C30001149086840F2001290430860FFE701A8AC
:103C400040784007002807D5FFE70B49086840F295
:103C5000004290430860FFE701A800788007002831
:103C600006D5FFE705490868022290430860FFE790
:103C7000FFE702B07047C046042401400824014019
:103C800081B00146684601700078142141438C4A96
:103C9000885801239843885001B0704781B001468D
:103CA00068460170007814214143854A88580123F1
:103CB0001843885001B0704781B0014668460170D2
:103CC0000078142141437E4A885820239843885025
:103CD00001B0704781B00146684601700078142138
:103CE0004143774A885820231843885001B07047D1
:103CF000B0B581B0014668460170017814221346C0
:103D00004B436F4C19590125A943195101781346AA
:103D10004B43002119510478134663437D4C1951DC
:103D2000047813466343544C195103785A435B4B50
:103D3000D150007880000F2282400B490868104360
:103D4000086001B0B0BDC04682B0024601A8027052
:103D50000091009A0078800082400349086810436F
:103D6000086002B07047C04604000240B0B584B09D
:103D7000024603A80090027002910078FFF780FFCE
:103D8000009B029800681C7814210A4662433A4C52
:103D90001051029880681C780A4662433F4C1051CB
:103DA0000298008A1C780A4662435A4C10511A78CD
:103DB00008465043424A80580190019843F60074E7
:103DC000A043019002984468C5682C4340690443AD
:103DD00001982043019001981B785943885002981C
:103DE000007E01280AD1FFE703A80078142141438F
:103DF000334A885840231843885009E003A80078C4
:103E0000142141432E4A8858402398438850FFE7A5
:103E10000298407E01280AD1FFE703A80078142108
:103E20004143274A885880231843885009E003A853
:103E3000007814214143224A8858802398438850AF
:103E4000FFE70298807E50B9FFE703A800781421AD
:103E500041431B4A885810239843885009E003A81F
:103E6000007814214143164A88581023184388507B
:103E7000FFE704B0B0BDC0461000024083B000911F
:103E80000246009802A90A70019001980A7814214C
:103E90005143024A885003B07047C04614000240A4
:103EA00081B0014668460170007814214143044AFC
:103EB000885844F200039843885001B07047C046C8
:103EC0000800024081B0009000990020086000992D
:103ED000486000990876009988600099C860009948
:103EE000487600990861009988760099486101B088
:103EF0007047000083B000910246009802A90A7042
:103F0000019001A800880A7814215143014A885081
:103F100003B070470C00024086B0059004910392F4
:103F20000598006A01900598406A009002A9002057
:103F30000880FFE702A8008807281DD8FFE702A82D
:103F400001880398C840C00780B1FFE702A8018834
:103F500089000F228A4001999143019104990088B8
:103F600080008140019808430190FFE7FFE7029835
:103F7000401C02A90880DDE702A908200880FFE7AD
:103F800002A800880F281FD8FFE702A8018803981D
:103F9000C840C00790B1FFE702A801888900203916
:103FA0000F228A4000999143009104990088800073
:103FB00020388140009808430090FFE7FFE702980F
:103FC000401C02A90880DBE7019805990862009867
:103FD0000599486206B0704782B001900091009840
:103FE0000199886202B0704782B0019000910098F8
:103FF0000199886102B0704783B0029001916946CF
:1040000000200870029800690199084204D0FFE777
:1040100069460120087003E0694600200870FFE748
:104020006846007803B0704787B006900591049207
:1040300003930698006801900698C068009002A952
:1040400000200880FFE702A800880F282BD8FFE790
:1040500002A801880398C840C007F0B1FFE702A892
:1040600001884900032213468B400199994301912D
:10407000059B018849008B400199194301910188F2
:1040800049008A40009991430091049900884000BA
:104090008140009808430090FFE7FFE70298401C2A
:1040A00002A90880CFE70198069908600098069950
:1040B000C86007B0704710B586B0059004A80170BD
:1040C000039202930078012806D1FFE7029A05992E
:1040D00048681043486005E0029A05994868904393
:1040E0004860FFE705988068009001A900200880DB
:1040F000FFE701A800880F281DD8FFE701A8018865
:104100000298C840C00780B1FFE701A801884900B4
:1041100003228A400099914300910399008840004E
:104120008140009808430090FFE7FFE70198401C9A
:1041300001A90880DDE700980599886006B010BDE8
:1041400080B582B00020019072B6FCF723F9FCF72D
:1041500059FAFCF7BFF8FCF785F9FCF7F5FBFCF71B
:1041600013FDFCF7D6FBFCF76BFDFCF7CFFC064913
:10417000084626300831054AFCF79EF962B6FFE78B
:104180000348FFF761F8FBE7680600206507002099
:104190003006002080B584B00A46014603A801908D
:1041A000017002A90A70007840B20978FFF7D8F9C7
:1041B0000198007840B2FFF7B9F904B080BD000063
:1041C00082B00190009101980099044A114008437F
:1041D00003490860BFF34F8F02B0704780FFFF1F95
:1041E00008ED00E082B0014601A801705D4A116847
:1041F0004CF20003994311605B4A11685B4B194014
:10420000116000780090092800D9A7E000998A0081
:1042100001A080188746C04600F012B800F01CB814
:1042200000F026B800F02EB800F03BB800F046B819
:1042300000F056B800F061B800F071B800F07CB83A
:10424000494908680122120490430860086840F256
:1042500000129043086082E043490868012212047A
:1042600010430860086840F200129043086076E04E
:10427000F64908680860F949086840F200121043DE
:1042800008606CE0F14908680860F4490868012298
:10429000D20710430860086840F20012104308601B
:1042A0005DE0EA49086844F2000210430860EB4907
:1042B000086840F200121043086050E0E3490868C3
:1042C00044F2000210430860E44908680122D20762
:1042D00010430860086840F20012104308603EE096
:1042E000DA49086848F2000210430860DB490868B0
:1042F00040F200121043086031E0D449086848F2E7
:10430000000210430860FA4908680122D2071043EE
:104310000860086840F20012104308601FE0CB49B3
:1043200008684CF2000210430860F149086840F246
:1043300000121043086012E0C44908684CF2000201
:1043400010430860EA4908680122D2071043086058
:10435000086840F200121043086000E0FFE702B076
:104360007047C0460410024030100240FFFEFE7F3E
:104370009DB01CA90870002002901B901A90199003
:104380001890179016901590149013901290119009
:1043900010900F900E900D900C90AA490B91AA4985
:1043A0000A91099008900791069005910490A748FA
:1043B00000680C21084080081B901B98039040B1B6
:1043C000FFE70398012807D0FFE70398022806D0EB
:1043D00044E0A148179044E09F48179041E09B4873
:1043E00001680F2292041140890C1191006801218B
:1043F000C9060840C00E10901098012804D1FFE7AC
:104400001198113011900BE011980F2803D1FFE79C
:104410001020119003E01198801C1190FFE7FFE736
:104420008A480068012109040840000C0F900F9889
:1044300070B1FFE7874800680F210840401C0E90CC
:104440000E998548B0FBF1F111984843179004E0AC
:1044500011997F4848431790FFE702E07E48179084
:10446000FFE77A480168C9B209090D910D9A08A9B8
:10447000895C0C9117990C9AD1401691016840F211
:1044800000721140090A0D910D9A06A9895C0C91E0
:1044900016990C9AD1401591006843F60001084026
:1044A000C00A0D900D9904A8405C0C9016980C99C8
:1044B000C84014901CA800780190052800D9BCE0E1
:1044C00001998A0001A080188746C04600F00AB80A
:1044D00000F00BB800F00CB800F00DB800F00EB80A
:1044E00000F07DB817981890A8E016981890A5E0ED
:1044F00015981890A2E0149818909FE07C480068E6
:1045000040F20011084088420FD0FFE77848006869
:10451000012109040840884203D0FFE75148139065
:1045200002E04F481390FFE756E04848006880B229
:10453000800B1A906E480068C00F19901A9800906E
:10454000032847D800998A0001A080188746C046F2
:1045500000F006B800F012B800F01EB800F02CB859
:10456000199820B9FFE714984008139005E01698B1
:104570000321B0FBF1F01390FFE72CE0199820B96C
:10458000FFE714988008139005E016980521B0FB0A
:10459000F1F01390FFE71EE0199830B9FFE7149887
:1045A0000621B0FBF1F0139005E016980721B0FB4F
:1045B000F1F01390FFE70EE0199820B9FFE7149887
:1045C000C008139005E016980921B0FBF1F0139094
:1045D000FFE700E0FFE7FFE7139818902EE044485C
:1045E0000068800718B9FFE71498129022E040484D
:1045F000006803210840012803D1FFE717981290B3
:1046000017E03B48006803210840022804D1FFE777
:1046100048F2000012900BE0354800680321084082
:10462000032803D1FFE70C48129000E0FFE7FFE703
:10463000FFE7FFE71298189000E0FFE718981DB019
:104640007047C0460607080901020304041002402F
:1046500000093D002C10024000127A003010024088
:10466000003FAB01809FD50081B0014668460180C4
:1046700000881F220146114001238B408109F34A23
:1046800088581843885001B07047C04681B0014631
:104690006846018000881F220146114001238B409B
:1046A0008109EA4A88589843885001B07047C0464B
:1046B00081B001466846018000881F2201461140F2
:1046C00001238B408109E14A88581843885001B082
:1046D0007047C04681B000900549086803229043A6
:1046E0000860009A08681043086001B07047C0462F
:1046F0003010024082B0019068460170007830B9F5
:10470000FFE70199486802221043486005E00199DB
:104710004868012210434860FFE702B0704781B04B
:1047200000900099086840221043086001B070476B
:1047300080B584B00390039802900E4988420ED051
:10474000FFE702985A49884211D1FFE740F20C3046
:104750000190FFF7ADFF0198FFF798FF08E00648CA
:104760000090FFF7A5FF0098FFF790FF00E0FFE73C
:1047700004B080BD003800400E04000086B00590F3
:10478000049103A90120087000200290019000907C
:10479000059800680290029843F240010840029098
:1047A000059800680190019843F640010840019087
:1047B00005984068009000983C4908400090059892
:1047C0003B4988423DD1FFE70498016802980843BD
:1047D0000290049841680298084302900498C168C6
:1047E00002980843029004980169029808430290D5
:1047F00004984169029808430290049881690298DC
:10480000084302900498806840F2007188420BD0FF
:10481000FFE70498806840F60071884204D0FFE703
:1048200003A90020087008E00498816840F60000A1
:104830000140029808430290FFE70298059908603A
:1048400029E00498016801980843019004984168A0
:104850000198084301900498C168019808430190A9
:1048600004980169019808430190049841690198EE
:1048700008430190049881690198084301900198C8
:104880000599086004988168009808430090009892
:1048900005994860FFE70599C86940F60002904312
:1048A000C86103A8007806B07047C046FFF000005A
:1048B0000030014081B0009000990020086000990C
:1048C0004860009A40F2007191600099C8600099B8
:1048D0000861009948610099886101B0704780B50E
:1048E00082B040F200300190FFF7E2FE0198FFF73E
:1048F000CDFE02B080BD000081B00090009A034957
:1049000008681043086001B07047C04600000140CD
:1049100087B00020069005904C490868012210439A
:104920000860FFE70698401C06904848006802218E
:1049300008400590FFE705990020019041B9FFE785
:10494000069840F20051401A411E88410190FFE74D
:104950000198C0070028E5D1FFE73C4800688007C0
:10496000002802D4FFE7FFE7FEE739490868022282
:104970001043052290430860364900910868902250
:104980001043086008680860086808600868324AD0
:10499000104008600868314A104308602B490868D5
:1049A0000122120610430860FFE7284800688001D2
:1049B000002801D4FFE7F8E7264908680490049826
:1049C0000322904304900498022210430490049818
:1049D0000860FFE71F4800680C210840082801D044
:1049E000FFE7F7E7FFE700200390FFE703987F2842
:1049F00005D8FFE7FFE70398401C0390F6E7154949
:104A0000086802900298F022904302900298802257
:104A1000104302900298086000200390FFE703987B
:104A20007F2805D8FFE7FFE70398401C0390F6E7CF
:104A30000849086802900298F02290430290029878
:104A4000029002980860FFE707B07047001002402C
:104A50000020024004100240FFFFC2F700000408DB
:104A600080B5FFF755FF80BD81B000900098042805
:104A700006D1FFE70649086804221043086005E0F4
:104A800003490868042290430860FFE701B07047BB
:104A900010E000E081B00090009908688022904307
:104AA000086001B0704782B00190009100990888B9
:104AB0004A8810438A881043CA8810430A891043E1
:104AC0004A891043898908430199486402B07047B4
:104AD00081B00090009900200880009948800099DA
:104AE00088800099C88000990881009948810099C0
:104AF000888101B07047000084B0039002A8018053
:104B0000019200880090032800D964E100998A008E
:104B100001A080188746C04600F006B800F063B8D0
:104B200000F0CBB800F023B90399086A0122904342
:104B3000086203998869032290438861019802887A
:104B40000399086A104308620399086A0222904395
:104B50000862019882880399086A104308620398E2
:104B60009E4988420FD0FFE703989D4988420AD0AA
:104B7000FFE703989B49884205D0FFE703989A49CD
:104B800088422FD1FFE70399086A04229043086204
:104B9000019842880399086A104308620399086AD9
:104BA0000822904308620198C2880399086A10435A
:104BB00008620399486840F20012904348600198E7
:104BC000028903994868104348600399486840F295
:104BD0000022904348600198428903994868104335
:104BE0004860FFE7F8E00399086A102290430862E2
:104BF0000399886940F200329043886101980088E7
:104C000002010399086A104308620399086A202286
:104C1000904308620198808802010399086A104352
:104C2000086203986D49884233D1FFE70399086A07
:104C30004022904308620198408802010399086A63
:104C4000104308620399086A802290430862019821
:104C5000C08802010399086A1043086203994868F2
:104C600040F2004290434860019800898200039915
:104C70004868104348600399486840F60002904332
:104C80004860019840898200039948681043486051
:104C9000FFE70398F64988420ED1FFE70399486879
:104CA00040F20042904348600198008982000399D5
:104CB000486810434860FFE78EE00399086A40F2B5
:104CC0000012904308620399C86903229043C861A7
:104CD0000198008802020399086A10430862039948
:104CE000086A40F20022904308620198808802021C
:104CF0000399086A104308620398DC49884235D159
:104D0000FFE70399086A40F2004290430862019865
:104D1000408802020399086A104308620399086AEE
:104D200040F60002904308620198C088020203998D
:104D3000086A104308620399486841F200029043F0
:104D4000486001980089020103994868104348604F
:104D50000399486842F200029043486001984089F4
:104D600002010399486810434860FFE734E0039963
:104D7000086A41F20002904308620399C86940F250
:104D800000329043C8610198008802030399086AC1
:104D9000104308620399086A42F2000290430862D5
:104DA0000198808802030399086A104308620398F7
:104DB000F74988420ED1FFE70399486844F20002A0
:104DC0009043486001980089820103994868104324
:104DD0004860FFE700E0FFE704B07047002C0140A7
:104DE00000400140004401400048014084B003906D
:104DF00002A8018001A90A8000880090032841D8F8
:104E000000998A0001A080188746C04600F006B8C5
:104E100000F010B800F01CB800F026B803998869BB
:104E200070229043886101A8028803998869104321
:104E3000886128E00399886947F2000290438861FD
:104E400001A80088020203998869104388611AE06A
:104E50000399C86970229043C86101A80288039928
:104E6000C8691043C8610EE00399C86947F200029F
:104E70009043C86101A8008802020399C8691043E1
:104E8000C86100E0FFE704B07047000084B0039001
:104E900002A8018001920088009003281CD8009984
:104EA0008A0001A08018874600F006B800F008B814
:104EB00000F00AB800F00CB80198039948630CE0C0
:104EC00001980399886308E001980399C86304E096
:104ED00001980399086400E0FFE704B07047000000
:104EE00084B0039002A8018001A90A800088009084
:104EF000032841D800998A0001A080188746C0463F
:104F000000F006B800F010B800F01CB800F026B8A9
:104F10000399886908229043886101A8028803994F
:104F200088691043886128E00399886940F6000287
:104F30009043886101A800880202039988691043A0
:104F400088611AE00399C86908229043C86101A8E2
:104F500002880399C8691043C8610EE00399C869C3
:104F600040F600029043C86101A80088020203993C
:104F7000C8691043C86100E0FFE704B0704781B022
:104F8000009000990020088000994880009988804E
:104F90000099C880009908810099488101B0704744
:104FA00080B58AB00990099808907A49884226D03D
:104FB000FFE708982C49884229D0FFE708987649EE
:104FC00088422CD0FFE70898714988420FD0FFE74C
:104FD0000898724988422BD0FFE7089870498842A8
:104FE0002FD0FFE708986F49884232D039E0254832
:104FF0000790FFF75DFB0798FFF748FB32E020487A
:105000000690FFF755FB0698FFF740FB2AE01B4888
:105010000590FFF74DFB0598FFF738FB22E040F2C3
:1050200008400490FFF744FB0498FFF72FFB19E0BA
:1050300040F210300390FFF73BFB0398FFF726FB8D
:1050400010E00D480290FFF733FB0298FFF71EFBBC
:1050500008E008480190FFF72BFB0198FFF716FBCB
:1050600000E0FFE70AB080BD00100040002C0140C6
:10507000004001401203000011030000040400007E
:10508000010400000B03000081B000900099086843
:1050900001229043086001B0704781B000900099F0
:1050A000086801221043086001B0704782B0019087
:1050B00000910098008801998862019834498842DB
:1050C00005D0FFE701983349884212D1FFE70199E3
:1050D0000868702290430860009842880199086827
:1050E000104308600098828801990868104308609E
:1050F000FFE7009880680199C862019824498842B6
:1051000019D0FFE701982349884214D0FFE701989E
:10511000214988420FD0FFE70198204988420AD0F0
:10512000FFE701981E49884205D0FFE701981D4915
:1051300088420DD1FFE70199086840F200329043A0
:1051400008600098C2880199086810430860FFE76A
:1051500001980F4988420FD0FFE701980F49884214
:105160000AD0FFE701980E49884205D0FFE7019871
:105170000C49884205D1FFE70098007B019908633C
:10518000FFE70199486901221043486102B0704766
:10519000002C01400004004000200040004001407D
:1051A000004401400048014082B001900091009A03
:1051B0000199C8681043C86002B0704782B001907E
:1051C00000910098C0430199086102B0704784B013
:1051D000039002916946002008700398C068029904
:1051E00008400190039800690299084207D0FFE740
:1051F000019820B1FFE769460120087003E0694685
:1052000000200870FFE76846007804B0704782B05D
:105210000190684601700078012807D1FFE70199E5
:10522000486C48F200021043486406E00199486C5B
:1052300048F2000290434864FFE702B07047000064
:1052400081B0009000990020088000994880009962
:105250008880009A034991600099C880009908737A
:1052600001B07047FFFF000080B588B0079006913D
:105270000020059004900390029007980190374910
:1052800088420AD0FFE70198354988420AD1FFE7F2
:105290000520FFF76DF8059005E00220FFF768F89C
:1052A000059000E0FFE7079800680004002818D583
:1052B000FFE70598400006994A088018B0FBF1F016
:1052C0000290029813490840049002980007400F8A
:1052D000039004A8008803A9098808430799C860B7
:1052E00016E0059806994A088018B0FBF1F0029084
:1052F000029808490840049002980F210840039042
:1053000004A8008803A9098808430799C860FFE733
:1053100008B080BDF0FF000080B584B00390039812
:1053200002900E4988420DD0FFE702980C4988424E
:1053300010D1FFE70C480190FFF7BAF90198FFF789
:10534000A5F908E007480090FFF7B2F90098FFF7C9
:105350009DF900E0FFE704B080BDC0460044004076
:1053600000380140110400000E03000082B00190DB
:10537000009101998868402290438860009A0199C1
:1053800088681043886002B0704782B00190009135
:1053900001998868802290438860009A0199886802
:1053A0001043886002B0704781B00090009908688F
:1053B00001221043086001B0704782B00190009153
:1053C000019908680122904308600199086840F239
:1053D000006290430860009A0199086810430860D1
:1053E00002B0704782B001900091019908680422D0
:1053F00090430860009A019908681043086002B061
:10540000704782B001900091019908680122904391
:1054100008600199486843F2000290434860009A8E
:10542000019948681043486002B0704782B001900B
:10543000009101990868082290430860009A019938
:1054400008681043086002B0704782B00190009174
:10545000019908680122904308600199086841F2A7
:10546000000290430860009A0199086810430860A0
:1054700002B070479854000800000020D0060000D9
:105480005E02000858560008D0060020980C000064
:105490001001000800000000111302011A01042C81
:1054A0000201020B120222011321205B084D042984
:1054B0000C1AA5041301211B0879085AD104290CE0
:1054C0002914291C4102330E1440420FE3FFFF1A36
:1054D000F480092A10012423330323AA0223641E23
:1054E000547493181AA2141AB24CF2143296291456
:1054F000192FB9101102222032642399091BCC0CF8
:105500000822191485EB51DC7B14AEE2892CB9A476
:105510004A3338697851297419043914CA10AC29EE
:105520001429D429346918290C4123DB68FC2597F8
:10553000FF7819EF294739084114C2F5288C3E0A33
:10554000D7282240031266065AA3048109563869F7
:105550000C1485EB51FC7B14AEC00118293829FCD2
:1055600023A08C2350469B201C5C1908291C1A6818
:10557000F532B423D002B20A3223023B1F23AA24FD
:1055800072644BBC220C196BD18BD3042481292467
:10559000B2080B103303241AE814A9241AAABC2950
:1055A00014C12934A9241A2224E31027A9F0411A8E
:1055B0002C7D69485AF40CE9B48B3C0F240B14740D
:1055C0000E240B10999990E9240B141E0524A9B4FC
:1055D000FC24BC3D2429B4E9D809122401B4A9D87B
:1055E000239826F205E9FC1ABBF80912244132047B
:1055F0001351271408ED251408A524140845231475
:105600000895261B08B9141A2910134D2C14086983
:105610002B1B08BD042D01020304481361212A0835
:10562000041AFD041A95041AC9041331221B082D0B
:10563000082904290C2914291C29241402050315FE
:10564000040105022B03016F01150B14D007101A7A
:08565000E8BC01585A1E04C118
:04000005080000CD22
:00000001FF
