:1000000000000220158C00007B5A00004F5E0000AB
:10001000BB6A00006F6F0000CF820000000000008C
:10002000000000000000000000000000FB83000052
:100030000D90000000000000B7900000C390000089
:10004000D5930000DD930000E5930000ED930000E0
:10005000F5930000FD930000059400000D9400004E
:10006000159400001D940000259400002D940000BC
:10007000359400003D940000459400004D9400002C
:10008000559400005D940000659400006D9400009C
:10009000759400007D940000859400008D9400000C
:1000A000959400009D940000A5940000AD9400007C
:1000B000B5940000BD9400009D9A0000C594000016
:1000C000CD940000D5940000DD940000E59400007C
:1000D0009D9A0000ED940000F5940000FD9400004E
:1000E000059500000D9500009D9A000015950000F3
:1000F0001D950000259500002D9500003595000008
:100100009D9A00003D950000459500004D9500002A
:10011000559500005D950000659500006D95000007
:10012000759500007D950000859500008D95000077
:10013000959500009D950000A5950000AD950000E7
:10014000B5950000BD950000C5950000CD95000057
:10015000D5950000DD950000E5950000ED950000C7
:10016000F5950000FD950000059600000D96000035
:10017000159600001D960000259600002D960000A3
:10018000359600003D960000459600004D96000013
:10019000559600005D960000659600006D96000083
:1001A000759600007D960000859600008D960000F3
:1001B000959600009D960000A5960000AD96000063
:1001C000B5960000BD960000C5960000CD960000D3
:1001D000D5960000DD960000E5960000ED96000043
:1001E000F5960000FD960000059700000D970000B1
:1001F000159700001D970000259700002D9700001F
:10020000359700003D970000459700004D9700008E
:10021000559700005D970000659700006D970000FE
:10022000759700007D970000859700008D9700006E
:10023000959700009D970000A5970000AD970000DE
:10024000B5970000BD970000C5970000CD9700004E
:10025000D5970000DD970000E5970000ED970000BE
:10026000F5970000FD970000059800000D9800002C
:10027000159800001D980000259800002D9800009A
:10028000359800003D980000459800004D9800000A
:10029000559800005D980000659800009D9A000048
:1002A0009D9A00009D9A00006D98000075980000CE
:1002B0007D980000859800008D98000095980000BA
:1002C0009D980000A5980000AD980000B59800002A
:1002D000BD980000C5980000CD980000D59800009A
:1002E000DD980000E5980000ED980000F59800000A
:1002F000FD980000059900000D9900001599000077
:100300001D990000259900002D99000035990000E5
:100310003D990000459900004D9900005599000055
:100320005D990000659900006D99000075990000C5
:100330007D990000859900008D9900009599000035
:100340009D990000A5990000AD990000B5990000A5
:10035000BD990000C5990000CD990000D599000015
:10036000DD990000E5990000ED990000F599000085
:10037000FD99000081B0DFF88816C0B251F8202046
:100380000020009001211000036853F080430360B7
:100390001000036853F0805303601068C00F0028FA
:1003A00004D01000036823F000430360DFF88037B7
:1003B0000098984207D20098401C00901068C0F343
:1003C000C0600028F2D00098984201D301210DE0CE
:1003D000002000900098984208D20098401C00909D
:1003E0001068C0F300600028F4D000210800C0B2FB
:1003F00001B0704781B0DFF80816C0B251F8202074
:1004000000200090012011000B6833F080530B6036
:1004100011000B6833F080430B60009942F21073B7
:10042000994208D20099491C00911168C1F30061FA
:100430000029F2D10020C0B201B070473EB50400DF
:10044000DFF8F0032100C9B250F821100D6ADFF87F
:10045000D4092200D2B250F822000540DFF8C809C2
:1004600005400D6268071FD54C21DFF8C029200028
:10047000C0B2484310440069002808D02000C0B230
:1004800001FB00F102EB0100006980470CE0002055
:100490000290002001900020009000230122002102
:1004A0002000C0B200F0C8FC28031DD54C21DFF8A5
:1004B0007C292000C0B248431044006A002806D0BE
:1004C000E4B24C4302EB0400006A80470CE00020D9
:1004D00002900020019000200090002301220421BE
:1004E0002000C0B200F0A8FC37BDE0B5D149020041
:1004F000D2B251F822105FF400320A624C22DFF8C7
:100500002C390100C9B2514319448969002905D029
:10051000C0B250431844806980470BE0002102912B
:100520000021019100210091002301220221C0B28B
:1005300000F082FC07BDE0B5BE490200D2B251F81E
:1005400022105FF480320A624C22DFF8E0380100AA
:10055000C9B251431944C969002905D0C0B25043FA
:100560001844C06980470BE00021029100210191ED
:1005700000210091002301220321C0B200F05CFCA5
:1005800007BD3EB50400AB482100C9B250F82100B8
:10059000DFF89C58016A2200D2B245F822100221ED
:1005A00001624C21DFF884282000C0B24843104487
:1005B0004069002808D02000C0B201FB00F102EB26
:1005C0000100406980470CE000200290002001906B
:1005D000002000900023012201212000C0B200F081
:1005E0002BFC0020E4B245F8240037BD3EB50400E2
:1005F00090482100C9B250F82100DFF83458016A50
:100600002200D2B245F822105FF4801101624C2121
:10061000DFF818282000C0B248431044406A002880
:1006200008D02000C0B201FB00F102EB0100406ADB
:1006300080470CE0002002900020019000200090F4
:100640000023012205212000C0B200F0F5FB0020AC
:10065000E4B245F8240037BD3EB5040075482100DA
:10066000C9B250F82110D1F8085BD1F8000B054051
:1006700015F44035C1F8085BE8031FD54C21DFF8BD
:10068000AC272000C0B248431044406C002808D07A
:100690002000C0B201FB00F102EB0100406C80477A
:1006A0000CE0002002900020019000200090002328
:1006B00001220D212000C0B200F0BEFBA8031DD511
:1006C0004C21DFF868272000C0B248431044806CFA
:1006D000002806D0E4B24C4302EB0400806C804753
:1006E0000CE00020029000200190002000900023E8
:1006F00001220E212000C0B200F09EFB37BDE0B504
:100700004C490200D2B251F8221001220A624C2256
:10071000DFF818370100C9B251431944896A00292A
:1007200005D0C0B250431844806A80470BE00021D6
:100730000291002101910021009100230122062154
:10074000C0B200F079FB07BD3EB504003948210076
:10075000C9B250F82110D1F8FC5AD1F8E00A05408E
:1007600015F45025C1F8FC5A28031FD54C21DFF899
:10077000BC262000C0B248431044806B002808D03B
:100780002000C0B201FB00F102EB0100806B80474A
:100790000CE0002002900020019000200090002337
:1007A00001220A212000C0B200F046FB68031FD5D9
:1007B0004C21DFF878262000C0B248431044C06BBB
:1007C000002808D02000C0B201FB00F102EB0100BC
:1007D000C06B80470CE000200290002001900020B8
:1007E0000090002301220B212000C0B200F024FB66
:1007F000E8031DD54C21DFF834262000C0B2484361
:100800001044006C002806D0E4B24C4302EB040014
:10081000006C80470CE00020029000200190002036
:100820000090002301220C212000C0B200F004FB44
:1008300037BD0000309000002DE9F84304007048F7
:100840002100C9B250F82150DFF8D4052100C9B207
:1008500050F82160D5F8008018F07F0818F10108E1
:10086000D6F83090B06A10EA09091FFA89F9B8F190
:10087000110F02D35FF01008FFE7002719E0B06AFC
:100880000121B9408843B0620FE04C21DFF89C257C
:100890002000C0B2484310580028F0D03800230090
:1008A000DBB201FB03F1515888470120B8403063A7
:1008B0007F1C47455CD24846F840C007F8D52868F9
:1008C000C0F34070002803D0082F01D2012000E0BF
:1008D0000020C0B20028D8D0052F16D14C21DFF857
:1008E0004C252000C0B248431044C06A002808D0FC
:1008F0002000C0B201FB00F102EB0100C06A80479A
:1009000003E0B06A30F02000B062062F16D14C210F
:10091000DFF818252000C0B248431044006B0028BF
:1009200008D02000C0B201FB00F102EB0100006B17
:10093000804703E0B06A30F04000B062072FB4D1C6
:100940004C21DFF8E8242000C0B248431044406B3B
:10095000002808D02000C0B201FB00F102EB01002A
:10096000406B8047A1E7B06A30F08000B0629CE73E
:10097000BDE8F1832DE9F041040021482100C9B20E
:1009800050F82100DFF898142200D2B251F822501A
:10099000066816F07F06761C2F6BA86A07403F0C8E
:1009A0003F04212E01D32026FFE75FF0100823E04B
:1009B000A86A012111FA08F18843A86216E03800FC
:1009C00030FA08F0C00711D54C21DFF86024200070
:1009D000C0B24843104440680028E9D04046230094
:1009E000DBB201FB03F1114449688847012010FA8A
:1009F00008F0286318F10108B045E0D3BDE8F081A4
:100A0000109000002DE9F0410400DFF828042100D7
:100A1000C9B250F82100DFF808142200D2B251F810
:100A20002250066816F07F06761CEF6A686A074057
:100A3000BFB2312E01D33026FFE75FF0200827E058
:100A4000696A0122B8F1200082409143696218E08E
:100A5000B8F120003900C140C80712D54C21DFF899
:100A6000CC232000C0B24843104480680028E7D05F
:100A70004046C0B22300DBB201FB03F11144896898
:100A800088470121B8F120008140E96218F101088E
:100A90004046C0B2B042DBD3BDE8F0812DE9F04161
:100AA0000400DFF890032100C9B250F82100DFF8FC
:100AB00070132200D2B251F82250066816F07F0659
:100AC000761CEF6A686A07403F0C3F04412E01D351
:100AD0004026FFE75FF0300826E0696A012218F13E
:100AE000E00082409143696217E018F1E0003900AC
:100AF000C140C80711D54C21DFF830232000C0B217
:100B000048431044C0680028E7D040462300DBB2C9
:100B100001FB03F11144C9688847012118F1E00085
:100B20008140E96218F10108B045DED3BDE8F081EB
:100B3000404B4C002DE9F8430400DFF8F802210097
:100B4000C9B250F82150B6482100C9B250F821600E
:100B5000D5F8008018F07F0818F10108D6F8309019
:100B6000B06A10EA0909B8F1210F02D35FF020083A
:100B7000FFE7002719E0B06A0121B9408843B0625D
:100B80000FE04C21DFF8A4222000C0B248431058E7
:100B90000028F0D038002300DBB201FB03F15158EC
:100BA00088470120B84030637F1C47455ED24846E5
:100BB000F840C007F8D52868C0F34070002803D07B
:100BC000082F01D2012000E00020C0B20028D8D0B8
:100BD000052F17D14C21DFF854222000C0B2484322
:100BE0001044C06A002808D02000C0B201FB00F108
:100BF00002EB0100C06A8047D3E7B06A30F0200002
:100C0000B062CEE7062F17D14C21DFF8202220005A
:100C1000C0B248431044006B002808D02000C0B286
:100C200001FB00F102EB0100006B8047B9E7B06AFD
:100C300030F04000B062B4E7072FB2D14C21DFF8AA
:100C4000EC212000C0B248431044406B002808D07B
:100C50002000C0B201FB00F102EB0100406B8047B5
:100C60009FE7B06A30F08000B0629AE7BDE8F18398
:100C70002DE9F0410400DFF8BC012100C9B250F8B1
:100C8000210067492200D2B251F82250066816F0BE
:100C90007F06761CEF6A686A0740412E01D3402622
:100CA000FFE75FF0200826E0696A012218F1E00002
:100CB00082409143696217E018F1E0003900C140B9
:100CC000C80711D54C21DFF864212000C0B2484389
:100CD000104440680028E7D040462300DBB201FB07
:100CE00003F1114449688847012118F1E00081406F
:100CF000E96218F10108B045DED3BDE8F0812DE9C5
:100D0000F0410400DFF82C012100C9B250F82100A5
:100D100043492200D2B251F82250066816F07F06ED
:100D2000761C6F6FE86E0740612E01D36026FFE7E7
:100D30005FF0400827E0E96E0122B8F140008240F0
:100D40009143E96618E0B8F140003900C140C80796
:100D500012D54C21DFF8D4202000C0B24843104403
:100D600080680028E7D04046C0B22300DBB201FB18
:100D700003F11144896888470121B8F1400081409E
:100D8000696718F101084046C0B2B042DBD3BDE844
:100D9000F0812DE9F0410400DFF898002100C9B28C
:100DA00050F821001E492200D2B251F822500668A4
:100DB00016F07F06761C2F6FA86E0740802E01D399
:100DC0008026FFE75FF0600825E0A96E012218F198
:100DD000A00082409143A96616E018F1A0003900F6
:100DE000C140C80710D54C21104A2000C0B248436A
:100DF0001044C0680028E8D040462300DBB201FB65
:100E000003F11144C9688847012118F1A00081400D
:100E1000296718F10108B045DFD3BDE8F081000073
:100E2000309000000C14002004000800C00C0020CA
:100E3000EC130020109000002DE9F84F05008B46C0
:100E400016001F00DFF844052900C9B250F82180C0
:100E5000DFF83C052900C9B250F82190D8F800000D
:100E6000C0F300645FF0000A002C07D12800C0B274
:100E7000FFF780FA002801D05FF0010A5046C0B2A7
:100E8000002840F07E825846C0B200286AD002286E
:100E900000F0A58066D3042800F0EA80C0F09F80AF
:100EA000062800F02281C0F0E380082800F05A8173
:100EB000C0F058810A2800F07081C0F053810C28DE
:100EC00000F06B81C0F069810E2800F08D81C0F0C8
:100ED0008B81102800F0A38180F049820A9A0B9937
:100EE0000C98F6B2002E1CD1D9F828301F43C9F84F
:100EF0002870D9F824301A43C9F824202A00D2B225
:100F0000062A03D02A00D2B2072A2AD1D9F86C20A7
:100F10001143C9F86C10D9F868100843C9F8680083
:100F20001FE0D9F8283033EA0707C9F82870D9F844
:100F3000243033EA0202C9F824202A00D2B2062A59
:100F400003D02A00D2B2072A0BD1D9F86C2032EA9A
:100F50000101C9F86C10D9F8681031EA0000C9F82D
:100F6000680004E2F6B2002E1CD1DFF82814280035
:100F7000C0B251F82020DFF820045B46DBB250F805
:100F8000230002432800C0B241F82020D9F8041001
:100F9000DFF808045FFA8BFB50F82B000143C9F817
:100FA00004101BE0D9F80410DFF8F0035A46D2B25F
:100FB00050F822008143C9F80410DFF8D813280044
:100FC000C0B251F82020DFF8D0035FFA8BFB50F855
:100FD0002B0082432800C0B241F82020C7E1F6B2BE
:100FE000002E22D1D8F8000050F40010C8F80000FC
:100FF000DFF8A0132800C0B251F82020DFF89803D2
:101000005B46DBB250F8230002432800C0B241F82F
:101010002020D9F80410DFF884035FFA8BFB50F826
:101020002B000143C9F8041021E0D8F8000030F487
:101030000010C8F80000D9F80410DFF860035A4621
:10104000D2B250F822008143C9F80410DFF84413EB
:101050002800C0B251F82020DFF83C035FFA8BFB78
:1010600050F82B0082432800C0B241F820207EE1D6
:10107000F6B2002E1CD1DFF81C132800C0B251F8C4
:101080002020DFF814035B46DBB250F82300024354
:101090002800C0B241F82020D9F83410DFF8FC0253
:1010A0005FFA8BFB50F82B000143C9F834101BE0AA
:1010B000D9F83410DFF8E4025A46D2B250F82200D0
:1010C0008143C9F83410DFF8CC122800C0B251F8BF
:1010D0002020DFF8C4025FFA8BFB50F82B0082431C
:1010E0002800C0B241F8202041E1F6B2002E1CD108
:1010F000DFF8A0122800C0B251F82020DFF89802D3
:101100005B46DBB250F8230002432800C0B241F82E
:101110002020D9F80010DFF884025FFA8BFB50F82A
:101120002B000143C9F800101BE0D9F80010DFF8CC
:101130006C025A46D2B250F822008143C9F800101E
:10114000DFF850122800C0B251F82020DFF8480222
:101150005FFA8BFB50F82B0082432800C0B241F8A5
:10116000202004E1F6B2002E0BD1D9F82810DFF8C8
:101170002C025FFA8BFB50F82B000143C9F82810B2
:101180000AE0D9F82810DFF814025FFA8BFB50F858
:101190002B008143C9F82810E9E018F134000168F8
:1011A00051F00051016018F52E60016821F00041F6
:1011B0000160F6B2002E0BD1D9F8E01ADFF8DC019D
:1011C0005FFA8BFB50F82B000143C9F8E01A0AE0E4
:1011D000D9F8E01ADFF8C4015FFA8BFB50F82B0056
:1011E0008143C9F8E01AC2E0F6B2002E0BD1D9F85B
:1011F000001BDFF8A8015FFA8BFB50F82B000143BE
:10120000C9F8001B0AE0D9F8001BDFF890015FFA6B
:101210008BFB50F82B008143C9F8001BA7E0F6B206
:10122000002E51D1DFF87801DFF868112A00D2B220
:1012300041F82200D9F828005FF0FF30C9F82800F3
:10124000D9F82410C9F824002900C9B2062903D00E
:101250002900C9B2072907D1D9F86C10C9F86C0068
:10126000D9F86810C9F86800D9F8040050F44C4067
:10127000C9F80400D9F8340050F04040C9F83400EF
:1012800018F13400016851F00051016018F52E602A
:10129000016821F000410160D9F8E00A50F45020C3
:1012A000C9F8E00A4046016851F080610160D8F851
:1012B000000050F40010C8F80000D9F8000B50F4FA
:1012C0004030C9F8000B51E0D9F828000020C9F8D7
:1012D0002800D9F824000020C9F824002800C0B252
:1012E000062803D02800C0B2072809D1D9F86C001D
:1012F0000020C9F86C00D9F868000020C9F868001F
:10130000D9F8040030F44C40C9F80400D9F834008E
:1013100020F04040C9F8340018F13400016851F061
:101320000051016018F52E60016821F00041016054
:10133000D9F8E00A30F45020C9F8E00A40460168C4
:1013400031F080610160D8F8000030F40010C8F876
:101350000000D9F8000B30F44030C9F8000B002031
:10136000DFF830102A00D2B241F82200FFE7002C4B
:1013700007D12800C0B2FFF73DF8002801D05FF088
:10138000010A5046C0B2BDE8F28F00001090000084
:10139000309000000C140020F48D0000748E0000CA
:1013A00007001B0080B50020FFF748F8BFF34F8F00
:1013B00001BD000080B50020FFF797F8BFF34F8F05
:1013C00001BD000080B50020FFF7B5F8BFF34F8FD7
:1013D00001BD000080B50020FFF7D3F8BFF34F8FA9
:1013E00001BD000080B50020FFF700F9BFF34F8F6B
:1013F00001BD000080B50020FFF72EF9BFF34F8F2D
:1014000001BD000080B50020FFF779F9BFF34F8FD1
:1014100001BD000080B50020FFF796F9BFF34F8FA4
:1014200001BD000080B50020FFF706FABFF34F8F23
:1014300001BD000080B50020FFF79CFABFF34F8F7D
:1014400001BD000080B50020FFF7DCFABFF34F8F2D
:1014500001BD000080B50020FFF720FBBFF34F8FD8
:1014600001BD000080B50120FEF7E8FFBFF34F8FFC
:1014700001BD000080B50120FFF737F8BFF34F8FA3
:1014800001BD000080B50120FFF755F8BFF34F8F75
:1014900001BD000080B50120FFF773F8BFF34F8F47
:1014A00001BD000080B50120FFF7A0F8BFF34F8F0A
:1014B00001BD000080B50120FFF7CEF8BFF34F8FCC
:1014C00001BD000080B50120FFF719F9BFF34F8F70
:1014D00001BD000080B50120FFF736F9BFF34F8F43
:1014E00001BD000080B50120FFF7A6F9BFF34F8FC3
:1014F00001BD000080B50120FFF73CFABFF34F8F1C
:1015000001BD000080B50120FFF77CFABFF34F8FCB
:1015100001BD000080B50120FFF7C0FABFF34F8F77
:1015200001BD000080B50220FEF788FFBFF34F8F9A
:1015300001BD000080B50220FEF7D7FFBFF34F8F3B
:1015400001BD000080B50220FEF7F5FFBFF34F8F0D
:1015500001BD000080B50220FFF713F8BFF34F8FE5
:1015600001BD000080B50220FFF740F8BFF34F8FA8
:1015700001BD000080B50220FFF76EF8BFF34F8F6A
:1015800001BD000080B50220FFF7B9F8BFF34F8F0F
:1015900001BD000080B50220FFF7D6F8BFF34F8FE2
:1015A00001BD000080B50220FFF746F9BFF34F8F61
:1015B00001BD000080B50220FFF7DCF9BFF34F8FBB
:1015C00001BD000080B50220FFF71CFABFF34F8F6A
:1015D00001BD000080B50220FFF760FABFF34F8F16
:1015E00001BD000080B50320FEF728FFBFF34F8F39
:1015F00001BD000080B50320FEF777FFBFF34F8FDA
:1016000001BD000080B50320FEF795FFBFF34F8FAB
:1016100001BD000080B50320FEF7B3FFBFF34F8F7D
:1016200001BD000080B50320FEF7E0FFBFF34F8F40
:1016300001BD000080B50320FFF70EF8BFF34F8F08
:1016400001BD000080B50320FFF759F8BFF34F8FAD
:1016500001BD000080B50320FFF776F8BFF34F8F80
:1016600001BD000080B50320FFF7E6F8BFF34F8F00
:1016700001BD000080B50320FFF77CF9BFF34F8F59
:1016800001BD000080B50320FFF7BCF9BFF34F8F09
:1016900001BD000080B50320FFF700FABFF34F8FB4
:1016A00001BD000080B50420FEF7C8FEBFF34F8FD8
:1016B00001BD000080B50420FEF717FFBFF34F8F78
:1016C00001BD000080B50420FEF735FFBFF34F8F4A
:1016D00001BD000080B50420FEF753FFBFF34F8F1C
:1016E00001BD000080B50420FEF780FFBFF34F8FDF
:1016F00001BD000080B50420FEF7AEFFBFF34F8FA1
:1017000001BD000080B50420FEF7F9FFBFF34F8F45
:1017100001BD000080B50420FFF716F8BFF34F8F1E
:1017200001BD000080B50420FFF786F8BFF34F8F9E
:1017300001BD000080B50420FFF71CF9BFF34F8FF7
:1017400001BD000080B50420FFF75CF9BFF34F8FA7
:1017500001BD000080B50420FFF7A0F9BFF34F8F53
:1017600001BD000080B50520FEF768FEBFF34F8F76
:1017700001BD000080B50520FEF7B7FEBFF34F8F17
:1017800001BD000080B50520FEF7D5FEBFF34F8FE9
:1017900001BD000080B50520FEF7F3FEBFF34F8FBB
:1017A00001BD000080B50520FEF720FFBFF34F8F7D
:1017B00001BD000080B50520FEF74EFFBFF34F8F3F
:1017C00001BD000080B50520FEF799FFBFF34F8FE4
:1017D00001BD000080B50520FEF7B6FFBFF34F8FB7
:1017E00001BD000080B50520FFF726F8BFF34F8F3D
:1017F00001BD000080B50520FFF7BCF8BFF34F8F97
:1018000001BD000080B50520FFF7FCF8BFF34F8F46
:1018100001BD000080B50520FFF740F9BFF34F8FF1
:1018200001BD000080B50620FEF708FEBFF34F8F14
:1018300001BD000080B50620FEF757FEBFF34F8FB5
:1018400001BD000080B50620FEF775FEBFF34F8F87
:1018500001BD000080B50620FEF793FEBFF34F8F59
:1018600001BD000080B50620FEF7C0FEBFF34F8F1C
:1018700001BD000080B50620FEF7EEFEBFF34F8FDE
:1018800001BD000080B50620FEF739FFBFF34F8F82
:1018900001BD000080B50620FEF756FFBFF34F8F55
:1018A00001BD000080B50620FFF744F9BFF34F8F5C
:1018B00001BD000080B50620FFF7DAF9BFF34F8FB6
:1018C00001BD000080B50620FFF719FABFF34F8F66
:1018D00001BD000080B50620FFF75BFABFF34F8F14
:1018E00001BD000080B50720FEF7A8FDBFF34F8FB4
:1018F00001BD000080B50720FEF7F7FDBFF34F8F55
:1019000001BD000080B50720FEF715FEBFF34F8F25
:1019100001BD000080B50720FEF733FEBFF34F8FF7
:1019200001BD000080B50720FEF760FEBFF34F8FBA
:1019300001BD000080B50720FEF78EFEBFF34F8F7C
:1019400001BD000080B50720FEF7D9FEBFF34F8F21
:1019500001BD000080B50720FEF7F6FEBFF34F8FF4
:1019600001BD000080B50720FFF7E4F8BFF34F8FFB
:1019700001BD000080B50720FFF77AF9BFF34F8F54
:1019800001BD000080B50720FFF7B9F9BFF34F8F05
:1019900001BD000080B50720FFF7FBF9BFF34F8FB3
:1019A00001BDF0B40246106895681318506803EB47
:1019B0005004C00748BF4D44A3422DD013F8016B1B
:1019C00016F0030004BF13F8010BC01C31090F29E6
:1019D00007D113F8011B0F3103E013F8017B05F861
:1019E000017B401EF9D10029E6D013F8010BC6F3A4
:1019F0008106032E08BF13F8016B00EB062040425E
:101A000028440026B71E8F421EBF10F8017B05F840
:101A1000017B761CF6D1CFE7F0BC02F10C007047D9
:101A20002DE9F041040000200020DFF8A40A210085
:101A3000C9B250F82150DFF89C0A2100C9B250F811
:101A40002160AF6BDFF8900A406C07405FF0000840
:101A500031E001224146C9B22000C0B200F06AFF65
:101A600027E0380030FA08F0C00722D506EB8800DE
:101A7000C06BC0F3001000281BD005EB8800C06BC2
:101A800030F0200005EB8801C863DFF80C1B44220E
:101A90002000C0B25043084450F828000028D8D095
:101AA0002000C0B202FB00F201EB020050F8280057
:101AB000804718F10108B8F1080FD2D3BFF34F8F58
:101AC000BDE8F08180B50021DFF8041A0200D2B22F
:101AD00051F82230D3F89010DFF8FC29126C114035
:101AE00000291AD0D3F8901031F03001C3F89010CB
:101AF0004422DFF8A43A0100C9B251431944096CE9
:101B0000002905D0C0B250431844006C804704E05F
:101B100001221021C0B200F00DFFBFF34F8F01BDB5
:101B2000F8B504000020DFF8A8092100C9B250F878
:101B30002150DFF8A469AF6B706C0740306B07422F
:101B40001CD0A86B30F48050A863DFF84C1A4422F4
:101B50002000C0B250430844006B002808D0200089
:101B6000C0B202FB00F201EB0200006B804705E00F
:101B700001220C212000C0B200F0DCFE706B074295
:101B80001CD0A86B30F40050A863DFF80C1A442274
:101B90002000C0B250430844406B002808D0200009
:101BA000C0B202FB00F201EB0200406B804705E08F
:101BB00001220D212000C0B200F0BCFEB06B074234
:101BC0001CD0A86B30F48040A863DFF8CC19442205
:101BD0002000C0B250430844806B002808D0200089
:101BE000C0B202FB00F201EB0200806B804705E00F
:101BF00001220E212000C0B200F09CFEF06B0742D3
:101C00001AD0A86B30F40040A863DFF88C19442286
:101C10002000C0B250430844C06B002806D0E4B294
:101C2000544301EB0400C06B804705E001220F2103
:101C30002000C0B200F07EFEBFF34F8FF1BD000068
:101C4000F8B504000020DFF888082100C9B250F878
:101C50002150DFF88468AF6B706C0740306A074230
:101C60001CD0A86B30F48070A863DFF82C194422D4
:101C70002000C0B250430844006A002808D0200069
:101C8000C0B202FB00F201EB0200006A804705E0EF
:101C9000012208212000C0B200F04CFE706A074209
:101CA0001CD0A86B30F40070A863DFF8EC18442255
:101CB0002000C0B250430844406A002808D02000E9
:101CC000C0B202FB00F201EB0200406A804705E06F
:101CD000012209212000C0B200F02CFEB06A0742A8
:101CE0001CD0A86B30F48060A863DFF8AC184422E5
:101CF0002000C0B250430844806A002808D0200069
:101D0000C0B202FB00F201EB0200806A804705E0EE
:101D100001220A212000C0B200F00CFEF06A074246
:101D20001AD0A86B30F40060A863DFF86C18442266
:101D30002000C0B250430844C06A002806D0E4B274
:101D4000544301EB0400C06A804705E001220B21E7
:101D50002000C0B200F0EEFDBFF34F8FF1BD80B5A3
:101D60000020FFF75DFE01BD80B50020FFF7AAFE51
:101D700001BD80B50020FFF7D3FE01BD80B5002076
:101D8000FFF75EFF01BD80B50120FFF749FE01BDF1
:101D900080B50120FFF796FE01BD80B50120FFF759
:101DA000BFFE01BD80B50120FFF74AFF01BDDFF88E
:101DB0002417C0B251F820003430016851F080413E
:101DC0000160704781B0DFF80C17C0B251F82000F5
:101DD000416B890F11F001018DF800109DF8001082
:101DE000012904D13830016851F48031016001B01B
:101DF000704770B504000E0015002000C0B2FFF758
:101E0000E1FFDFF8D0062100C9B250F8210001003F
:101E10000A6866F301020A60016865F384010160E3
:101E20002000C0B2FFF7C3FF70BD38B504000D003D
:101E30002000C0B2FFF7C6FFDFF894062100C9B248
:101E400050F82100416B4FF4805212FA05F50D4312
:101E500045632000C0B2FFF7AAFF31BD10B50400F2
:101E60002000C0B2FFF7AEFFDFF868062100C9B25C
:101E700050F8210010F134010A6852F000420A6063
:101E800010F134010A6832F480520A6010F1340112
:101E90000A6832F400520A6010F134010A6832F420
:101EA00080420A603430016831F400410160200052
:101EB000C0B2FFF77CFF10BD70B504000D00160026
:101EC0002000C0B2FFF77EFFDFF804062100C9B290
:101ED00050F82100416BF6B2002E07D14FF480720A
:101EE00012FA05F531EA0505456305E04FF4807205
:101EF00012FA05F50D4345632000C0B2FFF757FF06
:101F000070BDDFF8D035C0B253F82000C9B200EB85
:101F100081001430016862F30F010160704770B5F1
:101F200004000E0015002000C0B2FFF74BFFDFF8E1
:101F3000A4052100C9B250F82100F6B200EB8600DA
:101F40002430016865F30B0101602000C0B2FFF787
:101F50002EFF70BDDFF87825C0B252F82000426B2A
:101F6000012313FA01F1114341637047DFF8602543
:101F7000C0B252F82000426B012313FA01F132EA99
:101F8000010141637047DFF84C35C0B253F82000BF
:101F9000C9B200EB81003C30D2B2016862F3861115
:101FA0000160704770B504000E0015002000C0B23B
:101FB000FFF708FFDFF81C052100C9B250F8210027
:101FC000F6B200EB86003C30EDB2016865F300012B
:101FD00001602000C0B2FFF7EAFE70BDDFF8F43404
:101FE000C0B253F82000C9B200EB81005C30016838
:101FF00062F30F010160704770B504000D00160018
:102000002000C0B2FFF7DEFEDFF8C4042100C9B231
:1020100050F82100C16FF6B2002E07D14FF4807244
:1020200012FA05F531EA0505C56705E04FF480723F
:1020300012FA05F50D43C5672000C0B2FFF7B7FEE1
:1020400070BD70B504000D0016002000C0B2FFF78F
:10205000B9FEDFF87C042100C9B250F82100C16F3D
:10206000F6B2002E06D1012212FA05F531EA050575
:10207000C56704E0012212FA05F50D43C56720008B
:10208000C0B2FFF794FE70BDDFF84434C0B253F81D
:102090002000D0F88030D2B2002A07D1012212FAF3
:1020A00001F133EA0101C0F8801005E0012212FAC3
:1020B00001F11943C0F880107047DFF81824C0B24E
:1020C00052F820008030C9B2026861F30822026031
:1020D000704770B504000D0016002000C0B2FFF775
:1020E00071FEDFF8EC032100C9B250F82100D0F8EE
:1020F0008810F6B2002E08D14022ED0012FA05F544
:1021000031EA0505C0F8885006E04022ED0012FAD9
:1021100005F50D43C0F888502000C0B2FFF747FE18
:1021200070BD70B504000E0015002000C0B2FFF7AE
:1021300049FEDFF8A0032100C9B250F82100F6B231
:10214000002E05D0022E25D013D3032E33D043E02A
:1021500010F188012A00D2B20B6862F304130B60FD
:102160008830EDB26D08EDB2016865F3451101608C
:1021700032E010F188012A00D2B20B6862F30C330E
:102180000B608830EDB26D08EDB2016865F34D313A
:10219000016021E010F188012A00D2B20B6862F3DD
:1021A00014530B608830EDB26D08EDB2016865F331
:1021B0005551016010E010F188012A00D2B20B687D
:1021C00062F31C730B608830EDB26D08EDB20168EC
:1021D00065F35D710160FFE72000C0B2FFF7E7FD26
:1021E00070BD70B504000E0015002000C0B2FFF7EE
:1021F000E9FDB8482100C9B250F82100F6B2002E1E
:1022000005D0022E11D009D3032E15D01BE0883043
:10221000EDB2016865F3C301016014E08830EDB2EE
:10222000016865F3CB2101600DE08830EDB20168F3
:1022300065F3D341016006E08830EDB2016865F3D3
:10224000DB610160FFE72000C0B2FFF7B0FD70BDA9
:10225000A04BC0B253F82000C9B2002905D0022912
:1022600011D009D3032915D01BE08830D2B2016800
:1022700062F38201016014E08830D2B2016862F337
:102280008A2101600DE08830D2B2016862F3924188
:10229000016006E08830D2B2016862F39A610160A1
:1022A000FFE7704770B504000E0015002000C0B2B3
:1022B000FFF788FD87482100C9B250F82100F6B227
:1022C000002E05D0022E11D009D3032E15D01BE00D
:1022D0008830EDB2016865F34101016014E0883097
:1022E000EDB2016865F3492101600DE08830EDB27F
:1022F000016865F35141016006E08830EDB2016884
:1023000065F359610160FFE72000C0B2FFF74FFDA0
:1023100070BD70B504000E0015002000C0B2FFF7BC
:1023200051FD6C482100C9B250F82100F6B2002ED0
:1023300005D0022E11D009D3032E15D01BE0883012
:10234000EDB2016865F30001016014E08830EDB280
:10235000016865F3082101600DE08830EDB2016885
:1023600065F31041016006E08830EDB2016865F365
:1023700018610160FFE72000C0B2FFF718FD70BDD3
:10238000544AC0B252F820008C30026861F3134204
:102390000260704770B504000E0015002000C0B246
:1023A000FFF710FD4B482100C9B250F82100F6B2EA
:1023B000002E05D0022E11D009D3032E15D01BE01C
:1023C0008C30EDB2016865F30001016014E08C30DF
:1023D000EDB2016865F3410101600DE08C30EDB2B2
:1023E000016865F38201016006E08C30EDB201689E
:1023F00065F3C3010160FFE72000C0B2FFF7D7FC1F
:1024000070BD38B504000D002000C0B2FFF7DAFC43
:1024100030482100C9B250F821008C30EDB201687B
:1024200065F3145101602000C0B2FFF7C0FC31BD5C
:1024300038B504000D002000C0B2FFF7C3FC2548EA
:102440002100C9B250F821008C30EDB2016865F36B
:102450004D3101602000C0B2FFF7A9FC31BD70B55D
:1024600004000E0015002000C0B2FFF7ABFC1948B5
:102470002100C9B250F82100F6B2002E05D0022E7C
:1024800011D009D3032E15D01BE08C30EDB20168BA
:1024900065F30821016014E08C30EDB2016865F34A
:1024A000492101600DE08C30EDB2016865F38A21AD
:1024B000016006E08C30EDB2016865F3CB2101606C
:1024C000FFE72000C0B2FFF772FC70BD0000000003
:1024D000AC930000A4930000688D000070B5040068
:1024E0000E0015002000C0B2FFF76CFCDFF8D0082A
:1024F0002100C9B250F82100F6B2002E05D0022EFC
:1025000011D009D3032E15D01BE08C30EDB2016839
:1025100065F30411016014E08C30EDB2016865F3DD
:10252000451101600DE08C30EDB2016865F3861154
:10253000016006E08C30EDB2016865F3C7110160FF
:10254000FFE72000C0B2FFF732FC70BD70B5040099
:102550000D0016002000C0B2FFF734FCDFF864085D
:102560002100C9B250F82100D0F89410F6B2002E24
:1025700007D1012212FA05F531EA0505C0F8945099
:1025800005E0012212FA05F50D43C0F89450200031
:10259000C0B2FFF70CFC70BDC010002070B5040085
:1025A0000D0016002000C0B2FFF70CFCDFF8140885
:1025B0002100C9B250F82100D0F89810F6B2002ED0
:1025C00007D1012212FA05F531EA0505C0F8985045
:1025D00005E0012212FA05F50D43C0F898502000DD
:1025E000C0B2FFF7E4FB70BDF8B504000D002E7813
:1025F0007600771C2A7929782000C0B2FFF791FD78
:102600006A7929782000C0B2FFF7EBFDA87901288C
:1026100006D13100C9B22000C0B2FFF79BFC05E033
:102620003100C9B22000C0B2FFF7A0FCE879012850
:1026300006D13900C9B22000C0B2FFF78BFC05E01B
:102640003900C9B22000C0B2FFF790FC6A7A3100AD
:10265000C9B22000C0B2FFF7A5FC2A7A3100C9B286
:102660002000C0B2FFF7EDFC2A7A3900C9B2200081
:10267000C0B2FFF7E6FC6A893100C9B22000C0B2DF
:10268000FFF7ACFCAA893900C9B22000C0B2FFF73D
:10269000A5FCAA7B3100C9B22000C0B2FFF7ACFC98
:1026A000EA7B3900C9B22000C0B2FFF7A5FC2A7C42
:1026B0003100C9B22000C0B2FFF7E6FC6A7C3900E5
:1026C000C9B22000C0B2FFF7DFFCE87C01281BD1B3
:1026D0006A7D3100C9B22000C0B2FFF737FFEA7D42
:1026E0003100C9B22000C0B2FFF758FFAA7D3900FF
:1026F000C9B22000C0B2FFF729FF2A7E3900C9B253
:102700002000C0B2FFF74AFF012229782000C0B2A2
:10271000FFF7DFFC6A8829782000C0B2FFF7FFFBD3
:10272000EA7C29782000C0B2FFF7F3FDAA7C297863
:102730002000C0B2FFF7B6FD2A7D29782000C0B284
:10274000FFF786FDF1BD70B504000D00160071683D
:102750002000C0B2FFF748FFB2782900C9B22000BC
:10276000C0B2FFF7A9FB32882900C9B22000C0B26D
:10277000FFF7C7FB70BD70B504000D00697820003D
:10278000C0B2FFF7FDFDA9782000C0B2FFF739FE07
:10279000E9782000C0B2FFF74BFE00262DE0686804
:1027A0003100C9B200EB8100827868683100C9B29B
:1027B00010F821102000C0B2FFF7ECFD686831006E
:1027C000C9B200EB8100C27868683100C9B210F864
:1027D00021102000C0B2FFF742FE68683100C9B284
:1027E00000EB8100427868683100C9B210F821100E
:1027F0002000C0B2FFF772FE761C30002978C0B20C
:102800008842CCD370BDDFF8B835C0B253F8200091
:10281000C9B2002905D0022911D009D3032915D046
:102820001BE0A030D2B2016862F30411016014E031
:10283000A030D2B2016862F3451101600DE0A03012
:10284000D2B2016862F38611016006E0A030D2B214
:10285000016862F3C7110160FFE77047DFF8603578
:10286000C0B253F82000C9B2002905D0022911D006
:1028700009D3032915D01BE0A030D2B2016862F35E
:102880000001016014E0A030D2B2016862F341019E
:1028900001600DE0A030D2B2016862F382010160F4
:1028A00006E0A030D2B2016862F3C3010160FFE725
:1028B0007047DFF80C35C0B253F82000C9B20029C8
:1028C00005D002290FD008D3032912D017E0A43075
:1028D000016862F30401016011E0A430016862F351
:1028E0000C2101600BE0A430016862F31441016027
:1028F00005E0A430016862F31C610160FFE77047E6
:1029000070B504000D00160032782900C9B220000D
:10291000C0B2FFF778FF72782900C9B22000C0B2B8
:10292000FFF79CFFB2782900C9B22000C0B2FFF7C0
:10293000C0FF70BD10B4DFF88834C0B253F8203047
:10294000D2B2002A01D1012000E00020C9B2002942
:102950001CD002292AD021D3042937D02ED306290E
:1029600044D03BD3082951D048D30A295ED055D34F
:102970000C296BD062D30E2978D06FD3102900F0C8
:1029800085807BD3112900F089800FE113F13C0190
:10299000C0B20A6860F304120A6007E113F1400153
:1029A000C0B20A6860F304120A60FFE013F1440148
:1029B000C0B20A6860F304120A60F7E013F148013C
:1029C000C0B20A6860F304120A60EFE013F14C0130
:1029D000C0B20A6860F304120A60E7E013F1500124
:1029E000C0B20A6860F304120A60DFE013F1540118
:1029F000C0B20A6860F304120A60D7E013F158010C
:102A0000C0B20A6860F304120A60CFE013F1340127
:102A1000C0B20A6860F310420A60C7E013F13401E3
:102A2000C0B20A6860F351420A60BFE013F134019A
:102A3000C0B20A6860F392420A60B7E013F1340151
:102A4000C0B20A6860F3D3420A60AFE013F1340108
:102A5000C0B20A6860F314520A60A7E013F13401AF
:102A6000C0B20A6860F355520A609FE013F1340166
:102A7000C0B20A6860F396520A6097E013F134011D
:102A8000C0B20A6860F3D7520A608FE013F18C017C
:102A9000C0B20A6860F30C320A6087E013F13C01AF
:102AA0000200D2B20C6862F304140C6013F140010E
:102AB0000200D2B20C6862F304140C6013F14401FA
:102AC0000200D2B20C6862F304140C6013F14801E6
:102AD0000200D2B20C6862F304140C6013F14C01D2
:102AE0000200D2B20C6862F304140C6013F15001BE
:102AF0000200D2B20C6862F304140C6013F15401AA
:102B00000200D2B20C6862F304140C6013F1580195
:102B10000200D2B20C6862F304140C6013F13401A9
:102B20000200D2B20C6862F310440C6013F134015D
:102B30000200D2B20C6862F351440C6013F134010C
:102B40000200D2B20C6862F392440C6013F13401BB
:102B50000200D2B20C6862F3D3440C6013F134016A
:102B60000200D2B20C6862F314540C6013F1340109
:102B70000200D2B20C6862F355540C6013F13401B8
:102B80000200D2B20C6862F396540C6013F1340167
:102B90000200D2B20C6862F3D7540C6013F18C01BE
:102BA000C0B20A6860F30C320A60FFE710BC7047DD
:102BB000DFF80C22C0B252F82000C9B200291AD0A6
:102BC000022924D01DD304292DD026D3062936D09E
:102BD0002FD308293FD038D30A2948D041D30C2914
:102BE00051D04AD30E295AD053D3102963D05CD385
:102BF00011296CD0D7E03C30016831F02001016030
:102C0000D1E04030016831F020010160CBE0443078
:102C1000016831F020010160C5E04830016831F001
:102C200020010160BFE04C30016831F020010160FB
:102C3000B9E05030016831F020010160B3E0543058
:102C4000016831F020010160ADE05830016831F0D9
:102C500020010160A7E03830016831F48071016023
:102C6000A1E03830016831F4007101609BE0383038
:102C7000016831F48061016095E03830016831F419
:102C8000006101608FE03830016831F480510160EB
:102C900089E03830016831F40051016083E0383058
:102CA000016831F4804101607DE03830016831F421
:102CB0000041016077E010F190010A6832F01002E3
:102CC0000A609030016831F0200101606BE010F182
:102CD0003C010A6832F020020A6010F140010A68E3
:102CE00032F020020A6010F144010A6832F020023A
:102CF0000A6010F148010A6832F020020A6010F1FF
:102D00004C010A6832F020020A6010F150010A6892
:102D100032F020020A6010F154010A6832F02002F9
:102D20000A6010F158010A6832F020020A6010F1BE
:102D300038010A6832F480720A6010F138010A68BA
:102D400032F400720A6010F138010A6832F48062CD
:102D50000A6010F138010A6832F400620A6010F16A
:102D600038010A6832F480520A6010F138010A68AA
:102D700032F400520A6010F138010A6832F48042DD
:102D80000A6010F138010A6832F400420A6010F15A
:102D900090010A6832F010020A609030016831F048
:102DA00020010160FFE7704710B4074CC0B2442314
:102DB00058432044C9B240F8212010BC704700009D
:102DC000A4930000AC930000C010002010B5DFF801
:102DD000944820684069C0F3804000281AD02068D9
:102DE0004069C00F002805D05FF0B640DFF87818C2
:102DF0000968486120681430016851F000410160A1
:102E0000DFF868180868002802D00868804701E0E9
:102E100000F0ADF92068C069C0F3804000281AD0E6
:102E20002068C069C00F002805D05FF0B640DFF809
:102E300038180968C86120681C30016851F00041E9
:102E40000160DFF828184868002802D048688047E9
:102E500001E000F0A6F9BFF34F8F10BD38B5002494
:102E6000DFF800582968096BC90F002905D05FF009
:102E7000B641DFF8F42712681163296830310A6817
:102E800052F080720A60296830310A6852F00042BC
:102E90000A602968896AC90F002905D05FF0B64128
:102EA000DFF8C42712689162296828310A6852F451
:102EB00040520A60296828310A6852F400720A6098
:102EC00029682831C0B20A6860F341020A602868A4
:102ED0002830016851F0010101602868283001683C
:102EE00051F000410160052000F0C2FB002801D034
:102EF000012417E05FF0B640DFF86C1709688862BC
:102F000028682830016851F0007101602868283075
:102F1000016831F40071016028682830016851F0BF
:102F2000004101602000C0B232BD38B5DFF834473F
:102F300023689B69DB0F002B05D05FF0B643DFF8F9
:102F400028572D68AB6123681833C0B21D6860F341
:102F500082051D6020681830D2B2036862F3000356
:102F6000036020681830026852F002020260206894
:102F70001830026852F00042026020684069C00FB9
:102F8000002805D05FF0B640DFF8DC2612685061FB
:102F9000DFF8D4261068406930F4802030F0020059
:102FA000C9B250EA410050F0010050F000401168F1
:102FB0004861042000F05CFB32BD10B50024010024
:102FC000C9B2012926D1032000F052FB002800D00D
:102FD00001242000C0B2002872D1DFF888160868EA
:102FE000C068C00F002805D05FF0B640DFF8782633
:102FF0001268D060DFF8700601220368DB6862F3B4
:1030000012430068C36008680C30016851F0004149
:10301000016055E00100C9B2022926D1042000F068
:1030200027FB002800D001242000C0B2002847D18F
:10303000DFF830160868C068C00F002805D05FF0C0
:10304000B640DFF824261268D060DFF81C060222A2
:103050000368DB6862F312430068C36008680C30E1
:10306000016851F0004101602AE0C0B2032826D176
:10307000052000F0FDFA002800D001242000C0B295
:1030800000281DD1DFF8DC150868C068C00F0028D3
:1030900005D05FF0B640DFF8D0251268D060DFF8C9
:1030A000C80503220368DB6862F312430068C3604B
:1030B00008680C30016851F00041016000E0012413
:1030C0002000C0B210BDDFF89C251168C96AC90F85
:1030D000002905D05FF0B641DFF88C351B68D96256
:1030E00011682C31C0B20B6860F345130B60106897
:1030F0002C30016851F000410160704710B4DFF8D6
:1031000064251168C96AC90F002905D05FF0B6416E
:10311000DFF854351B68D96211682C3143780C688C
:1031200063F312440C6011682C3103780C6863F36C
:1031300001040C6011682C3143680C6863F30F24A0
:103140000C6011682C31437A0C6863F304140C6032
:1031500011682C31007A0B6860F345130B6010681E
:103160002C30016851F00041016010BC7047DFF85D
:10317000F40400684069C00F002805D05FF0B64035
:10318000DFF8E41409684861DFF8DC140868406976
:1031900030F4802030F4007050F00040096848613D
:1031A0007047DFF8C0040068C069C00F002805D070
:1031B0005FF0B640DFF8B0140968C861DFF8A81402
:1031C0000868C06930F4802030F4007050F000408E
:1031D0000968C8617047DFF864250300DBB29B080B
:1031E00052F82320C0B2042853D0082851D00C280C
:1031F0004FD010284DD014284BD0182849D01C2867
:1032000047D0202845D0242843D0282841D02C2836
:103210003FD030283DD034283BD0382839D03C2806
:1032200037D0402835D0442833D0482831D04C28D6
:103230002FD050282DD054282BD0582829D05C28A6
:1032400027D0602825D0642823D0682821D06C2876
:103250001FD070281DD074281BD0782819D07C2846
:1032600017D0802815D0852824D0862841D08728DB
:103270005ED088280DD08C280BD0A02809D0B0288B
:1032800007D0B42805D0B82803D0BC2801D0C02866
:103290006CD11068C00F002802D05FF0B6401060FB
:1032A0001000036861F30B230360106850F00040C6
:1032B00010605BE0DFF8AC231068C068C00F002826
:1032C00005D05FF0B640DFF8A0331B68D860DFF8A8
:1032D00098030368DB6833F47063C9B253EA0123CF
:1032E0000068C36010680C30016851F00041016053
:1032F0003CE0DFF870231068C068C00F002805D0DC
:103300005FF0B640DFF860331B68D860DFF8580321
:103310000368DB6833F0F003C9B253EA01130068B5
:10332000C36010680C30016851F0004101601DE07D
:10333000DFF830231068C068C00F002805D05FF0A8
:10334000B640DFF824331B68D860DFF81C0303683D
:10335000DB681B091B01C9B219430068C160106812
:103360000C30016851F000410160FFE7704781B007
:10337000DFF8C8230300DBB29B0852F823200023A8
:103380008DF80030C0B2042800F0228108285CD0FB
:103390000C285AD0102858D0142856D0182854D0A9
:1033A0001C2852D0202850D024284ED028284CD079
:1033B0002C2800F09580302800F09280342800F00E
:1033C0008F80382800F08C803C2800F089804028CD
:1033D00000F08680442800F08380482800F0808038
:1033E0004C2832D0502830D054282ED058282CD0F9
:1033F0005C282AD0602828D0642826D0682824D0C9
:103400006C2822D0702820D074281ED078281CD098
:103410007C281AD0802818D0882800F0D9808C28E1
:1034200000F0D680A02800F09280B02800F0D08074
:10343000B42800F0CD80B82800F0CA80BC2800F085
:10344000C780C02800F0C48003E11068C00F0028C6
:1034500002D05FF0B64010600800C0B2012805D16C
:103460001000036861F30613036034E00800C0B283
:10347000022805D11000036861F3061303602AE0F7
:103480000800C0B2032805D11000036861F30613D9
:10349000036020E00800C0B2042805D110000368D2
:1034A00061F30613036016E00800C0B2052805D1D9
:1034B0001000036861F3061303600CE00800C0B25B
:1034C000002805D11000036861F30613036002E0D1
:1034D00001208DF80000106850F000401060BBE043
:1034E0001068C00F002802D05FF0B64010600800DE
:1034F000C0B2032805D11000036861F3061303600E
:1035000020E00800C0B2042805D11000036861F370
:103510000613036016E00800C0B2052805D11000AC
:10352000036861F3061303600CE00800C0B20028D2
:1035300005D11000036861F30613036002E0012067
:103540008DF80000106850F00040106084E01068B2
:10355000C00F002802D05FF0B64010600800C0B273
:10356000032805D11000036861F3061303602AE005
:103570000800C0B2042805D11000036861F30613E7
:10358000036020E00800C0B2052805D110000368E0
:1035900061F30613036016E00800C0B2062805D1E7
:1035A0001000036861F3061303600CE00800C0B26A
:1035B000002805D11000036861F30613036002E0E0
:1035C00001208DF80000106850F00040106043E0CA
:1035D0001068C00F002802D05FF0B64010600800ED
:1035E000C0B2012805D11000036861F3061303601F
:1035F0002AE00800C0B2022805D11000036861F378
:103600000613036020E00800C0B2032805D11000B3
:10361000036861F30613036016E00800C0B20428D3
:1036200005D11000036861F3061303600CE0080085
:10363000C0B2002805D11000036861F306130360CF
:1036400002E001208DF80000106850F0004010608A
:1036500002E001208DF800009DF8000001B07047E5
:1036600000000000309A0000349A0000F01400209E
:1036700081B00100002000900020C9B201290DD0C6
:1036800005D303291AD029D3052947D036D30120E1
:10369000C0B201B070470099491C009129490968DE
:1036A0004968C1F38001002904D10099264A91425A
:1036B000F1D30120ECE70099491C009120490968E9
:1036C000C969C1F30041002904D100991E4A914201
:1036D000F1D30120DCE70099491C009116490968E3
:1036E0000968C1F34021002904D10099174A914289
:1036F000F1D30120CCE70099491C009110490968D9
:103700004969C1F30041002904D100990E4A914250
:10371000F1D30120BCE70099491C009108490968D0
:10372000896AC1F30041002904D10099064A9142F7
:10373000F1D30120ACE700002C9A0000BC89000006
:10374000309A0000389A0000A1860100414B4C00DD
:1037500070B5DFF800452068C5692068C06805407D
:1037600000261DE02068C26851F8260082432068C8
:10377000C26014E0DFF8E01451F8260005420ED0D4
:10378000DFF8D80450EA064022685061DFF8D02400
:1037900052F836000028E5D052F836008047761CF3
:1037A000102EE7D370BD10B5DFF8A8442168096A70
:1037B000DFF8A4240300DBB252F82320114225D005
:1037C0000100C9B20200D2B252EA016242F4000220
:1037D00052F4004221684A61DFF884240100C9B232
:1037E00002EBC1014968002905D0C0B202EBC0005C
:1037F000406880470AE00023012201212468C0B20A
:103800004001204410F5067000F001F810BDF0B43E
:103810000024002400240027002405685FF0010C28
:103820001CFA02F6761E8E40B5431CFA02F2521EB6
:103830001A4012FA01F12943016016EA010200E080
:103840007F1C03683340934203D00160652FF7D398
:1038500001242000C0B2F0BC704710B4DFF8081497
:103860000A688378146863F3410414600A68037873
:10387000146863F3C3041460096840780A6860F34D
:1038800082020A6010BC7047DFF8C8130A685268E9
:10389000DFF8C433C0B253F8200002430868426026
:1038A000704738B51300C9B2002903D0022926D0C9
:1038B00015D345E0DFF89C432168CA68DFF8981308
:1038C0000500EDB251F825108A43DBB25B1C13F002
:1038D000010313FA00F010432168C86030E0DBB246
:1038E0005B1C13F0010301220121DA4C2468C0B2F1
:1038F0004001204410F50670FFF789FF20E0D54C09
:103900002168CA68D4490500EDB251F825108A43F0
:103910001900C9B2491C11F0010181400A43216814
:10392000CA60DBB25B1C13F0010301220121246891
:10393000C0B24001204410F50670FFF768FFFFE7B2
:1039400031BD0B00DBB2022B06DAC54BC0B203EB74
:10395000C000C9B240F821207047F8B50400002724
:103960002578BC4E306810F128022800C0B28008CB
:103970008000821801236068A17E13FA01F1491EBC
:10398000084206D1A068E17E13FA01F1491E0842FF
:1039900000D00127B4F90C00002807D4B4F90C00BA
:1039A000A17E13FA01F1491E08400AE0B4F90C00A7
:1039B000401E5FF0FF314840A17E13FA01F1491E1D
:1039C0000840002818D1B4F90E00002807D4B4F933
:1039D0000E00E17E13FA01F1491E08400AE0B4F935
:1039E0000E00401E5FF0FF314840E17E13FA01F106
:1039F000491E0840002800D00127B4F91000002813
:103A000007D4B4F91000A17E13FA01F1491E084051
:103A10000AE0B4F91000401E5FF0FF314840A17E7B
:103A200013FA01F1491E0840002818D1B4F9120018
:103A3000002807D4B4F91200E17E13FA01F1491EFF
:103A400008400AE0B4F91200401E5FF0FF31484020
:103A5000E17E13FA01F1491E0840002800D0012739
:103A60006069A17E13FA01F1491E084205D161691E
:103A7000E07E83405B1E194200D001276069002868
:103A800000D101273800C0B2002840F0E08075481E
:103A900001682B00DBB201EB8301E378D1F800C0B1
:103AA00063F3470CC1F800C0E178802909D00068B1
:103AB0002900C9B200EB8100016851F001010160E9
:103AC00008E000682900C9B200EB810001684908DC
:103AD0004900016010680F21EB0013F01803D3F1C7
:103AE0001803994088436178EB0013F01803D3F171
:103AF0001803994008430321EB0013F01803D3F196
:103B00001E0399408843A178EB0013F01803D3F10A
:103B10001E0399400843106063682022002130682A
:103B2000AC465FFA8CFC5FEA4C1C604410F50070F8
:103B3000FFF76DFEA368202200213068AC465FFAD3
:103B40008CFC5FEA4C1C604410F50170FFF75FFECF
:103B5000B4F90C30102200213068AC465FFA8CFCBE
:103B60005FEA4C1C604410F50270FFF750FEB4F998
:103B70000E30102210213068AC465FFA8CFC5FEAF0
:103B80004C1C604410F50270FFF741FEA37E022238
:103B900018213068AC465FFA8CFC5FEA4C1C60442C
:103BA00010F50670FFF733FEE37E02221021306825
:103BB000AC465FFA8CFC5FEA4C1C604410F5067062
:103BC000FFF725FE6369202200213068AC465FFACA
:103BD0008CFC5FEA4C1C604410F50470FFF717FE84
:103BE000B4F91030102200213068AC465FFA8CFC2A
:103BF0005FEA4C1C604410F50370FFF708FEB4F94F
:103C00001230102210213068AC465FFA8CFC5FEA5B
:103C10004C1C604410F50370FFF7F9FD238B102254
:103C200000213068AC465FFA8CFC5FEA4C1C6044B3
:103C300010F50570FFF7EBFD237F012203213068AB
:103C4000EDB26D01284410F50670FFF7E0FD380075
:103C5000C0B2F2BD489A0000348E0000808000801F
:103C600048110020409A0000449A000080B50020CE
:103C7000FFF799FDBFF34F8F01BD000080B5012014
:103C8000FFF791FDBFF34F8F01BD000080B502200B
:103C9000FFF789FDBFF34F8F01BD000080B5032002
:103CA000FFF781FDBFF34F8F01BD000080B50420F9
:103CB000FFF779FDBFF34F8F01BD000080B50520F0
:103CC000FFF771FDBFF34F8F01BD000080B50620E7
:103CD000FFF769FDBFF34F8F01BD000080B50720DE
:103CE000FFF761FDBFF34F8F01BD000080B50820D5
:103CF000FFF759FDBFF34F8F01BD000080B50920CC
:103D0000FFF751FDBFF34F8F01BD000080B50A20C2
:103D1000FFF749FDBFF34F8F01BD000080B50B20B9
:103D2000FFF741FDBFF34F8F01BD000080B50C20B0
:103D3000FFF739FDBFF34F8F01BD000080B50D20A7
:103D4000FFF731FDBFF34F8F01BD000080B50E209E
:103D5000FFF729FDBFF34F8F01BD000080B50F2095
:103D6000FFF721FDBFF34F8F01BD000080B5FFF7C6
:103D7000EFFCBFF34F8F01BD10B50400002060645D
:103D80009FED3D0A200000F0B1FA9FED3B0A14F1CF
:103D9000140000F0ABFA9FED380A14F1280000F08F
:103DA000A5FA10BD90ED0F0AD0ED120A20EE200A00
:103DB000D0ED090A90ED111A00EE201A80ED111ACB
:103DC00007E090ED110ADFED2D0A30EE200A80EDBC
:103DD000110A90ED110ADFED2A0AB4EE600AF1EE45
:103DE00010FAEEDA90ED110AB5EE400AF1EE10FA93
:103DF00008D590ED110ADFED230A30EE200A80EDA0
:103E0000110AEFE77047000010B50400002060645D
:103E10009FED190A200000F069FA9FED170A14F1CE
:103E2000140000F063FA9FED140A14F1280000F06A
:103E30005DFA10BD90ED060AF0EE000A20EE200AB1
:103E4000D0ED070A30EE600AD0ED080A30EE600AC5
:103E5000DFED0D0A20EE200A80ED120A90ED070A30
:103E6000D0ED080A30EE600ADFED080A20EE200AE5
:103E700080ED130A7047000000000000DB0FC9C08E
:103E8000DC0FC940DB0FC940ABAAAA3E3ACD133FB5
:103E900090ED120AD0ED010A20EE200AD0ED130AAF
:103EA00090ED021A00EE810A80ED140A90ED130ADB
:103EB000D0ED010A20EE200AD0ED120A90ED021A90
:103EC00000EEC10A80ED150A704790ED090AD0EDA9
:103ED000010A20EE200AD0ED0A0A90ED021A00EE47
:103EE000C10A80ED160A90ED090AD0ED020A20EE13
:103EF000200AD0ED0A0A90ED011A00EE810A80ED49
:103F0000170A704700210160002141600021816093
:103F10000021C160002181650021C165704700005A
:103F20001EB49FEDBF0A9FEDBE0A9FEDBD0A9FED37
:103F3000BC0ADFEDBB0A9FEDBA1A694600220023D6
:103F4000002481E81C0090ED171ADFEDB61A61EE2F
:103F5000211AB6EE001A90ED162AF0EE082A22EE8B
:103F6000222A32EE612A22EE012AD0ED052A22EE23
:103F7000222AD0ED162AB8EE083A62EE832A72EEB3
:103F8000E12A62EE812A90ED053A62EE832A90EDF5
:103F9000053A61EE831A002180F84410F5EE401ACC
:103FA000F1EE10FA04DD90F84410491C80F844103A
:103FB000B5EE402AF1EE10FA04DD90F84410891CA9
:103FC00080F84410F5EE402AF1EE10FA04DD90F886
:103FD0004410091D80F8441090F8441001290ED0B7
:103FE00026D3032906D01ED305290DD011D30629C7
:103FF00014D01DE0B0EE420AF0EE610A18E0B1EE16
:10400000420AF1EE620A13E0B0EE610AF0EE620AD3
:104010000EE0B1EE610AF1EE420A09E0B0EE620A8A
:10402000F0EE420A04E0B1EE620AF1EE610AFFE747
:1040300070EE201A90ED1B2AB4EE612AF1EE10FA10
:1040400009D5D0ED1B0A20EE800A80EE210AD0EDC2
:104050001B0A70EEC00AD0ED1B1A71EEC01A71EE89
:10406000E01AB5EE002A61EE821A90ED1C2A42EEAB
:10407000011ACDED001A6946DDED001A40EE011A75
:10408000C1ED011AD1ED011A40EE811AC1ED021AFB
:1040900090F84420012A26D0C0F0AA80032A07D035
:1040A000C0F08B80052A37D051D3062A6AD09FE012
:1040B000B0EE001AF0EE601A40EE011A9FED5A0AB7
:1040C00021EE800A90ED041A20EE010A80ED160A16
:1040D0009FED560A20EE800AD0ED040A20EE200A59
:1040E00080ED170A84E030EEC01ADFED4F1A21EEA2
:1040F000211AD0ED041A21EE211A80ED161A30EEA5
:10410000200ADFED4A0A20EE200AD0ED040A20EE54
:10411000200A80ED170A6BE0B8EE001A60EE810A03
:1041200070EEC00A9FED401A60EE810A90ED041A0D
:1041300060EE810AC0ED160ADFED3C0A20EE200A8F
:10414000D0ED040A20EE200A80ED170A50E0B8EE08
:10415000001A60EE810A70EEC00A9FED331A60EE1D
:10416000810A90ED041A60EE810AC0ED160ADFEDB7
:10417000300A20EE200AD0ED040A20EE200A80ED5D
:10418000170A35E030EEC01ADFED271A21EE211AAA
:10419000D0ED041A21EE211A80ED161AB1EE400A74
:1041A00030EE600ADFED210A20EE200AD0ED040A8D
:1041B00020EE200A80ED170A1AE0B0EE001AF0EEA9
:1041C000601A40EE011A9FED180A21EE800A90ED68
:1041D000041A20EE010A80ED160A9FED150A20EE62
:1041E000800AD0ED040A20EE200A80ED170AFFE7CE
:1041F000DFF8882090F84430D35C51F82330036610
:1042000090F8443013441B7A51F82330436690F8F9
:1042100044301A44127C51F82210816617BC704752
:1042200000000000D7B3DD3FABAAAA3E3ACD133F52
:104230003ACD13BF10B504009FED0F0A200000F027
:10424000B5F89FED0D0A14F1240000F0AFF89FEDD2
:104250000A0A14F1480000F049F810BD10B5040036
:104260009FED050A200000F0A1F89FED030A14F16C
:10427000240000F09BF810BD000000004C08002056
:1042800010B5040094ED120AD4ED1B0A20EE200AAA
:1042900084ED170A94ED120AD4ED1B0A20EE200AD1
:1042A00084ED180AE06DE06194ED170AB1EE400A62
:1042B00084ED080AE06C2060606D6060200000F012
:1042C0007EF8A0696066206E206494ED180AB1EE55
:1042D000400A84ED110A206D6062A06DA06214F1A5
:1042E000240000F06CF8E06BA06610BD80ED040ABD
:1042F000704790ED040AD0ED010AB4EE600AF1EEC9
:1043000010FA18D590ED040AD0ED020A30EE200A1A
:10431000D0ED010AB4EE600AF1EE10FA08D590ED86
:10432000040AD0ED020A30EE200A80ED040A26E0ED
:104330004168016123E090ED010AD0ED040AB4EE7A
:10434000600AF1EE10FA18D590ED040AD0ED030AD8
:1043500030EE200AD0ED010AF4EE400AF1EE10FA38
:1043600008D590ED040AD0ED020A30EE600A80ED27
:10437000040A04E04168016101E04168016170479D
:1043800080ED010A704790ED020AD0ED000A20EEA0
:10439000200AF7EE000A90ED021A70EEC10A90EDC5
:1043A000011A00EE810A80ED010A704700210160C8
:1043B0000021416080ED050A80ED060A704790ED0E
:1043C000000AD0ED010A30EE600AD0ED030A90ED4C
:1043D000051A00EE801A80ED051AD0ED050A90ED61
:1043E000071AF4EE410AF1EE10FA02D5D0ED050AF3
:1043F00001E0D0ED070A90ED081AB4EE601AF1EE74
:1044000010FA0ED5D0ED050A90ED071AF4EE410A28
:10441000F1EE10FA02D5D0ED050A04E0D0ED070A5E
:1044200001E0D0ED080AC0ED050AD0ED020A90EDDA
:10443000051A00EE801A80ED061A90ED060AD0EDFE
:10444000070AB4EE600AF1EE10FA02D590ED060A02
:1044500001E090ED070AD0ED080AF4EE400AF1EE13
:1044600010FA0ED590ED060AD0ED070AB4EE600AF8
:10447000F1EE10FA02D590ED060A04E090ED070A7D
:1044800001E090ED080A80ED060A704790ED000A01
:10449000DFED330A20EE200ADFED322A60EE220A39
:1044A000BDEEE01A324911EE102A01EB8202D2ED84
:1044B000001A11EE102A01EB820292ED012AB8EEE9
:1044C000C11A70EEC10A32EE611A41EE201AC0ED37
:1044D000021AF5EE000A30EE200A03E0FFEE000AB1
:1044E00030EE200ADFED200AB4EE600AF1EE10FA99
:1044F000F4DA20EE220AFDEEC00A10EE902A01EB5B
:10450000820292ED001A10EE902A01EB8201D1EDA9
:10451000011AF8EEE00A30EE600A71EEC10A00EE10
:10452000801A80ED011A704781B0B5EE400AF1EEB5
:1045300010FA10DDF6EE001A20EE211A10EE100A25
:104540000C4911EB60010091DDED000A81EE200ABB
:1045500000EEA10A01E09FED050A01B070470000DE
:1045600083F9223E000000440100803F000000006B
:1045700044000020F51DBD1F70B5A2B00400F54D2C
:10458000F5480068029005220221012000F048FA57
:1045900004220821042000F043FA0522052101200D
:1045A00000F03EFA05220421012000F039FA05222C
:1045B0000321022000F034FA07220721032000F033
:1045C0002FFA07220621032000F02AFA00208DF896
:1045D000440000208DF8480000208DF8490001209B
:1045E0008DF84D0001208DF84A0001208DF84B0018
:1045F00000208DF84C0040F6C4163000ADF84E0097
:104600000020ADF8500000208DF8520000208DF8F9
:10461000530000208DF8540000208DF85500002034
:104620008DF8560001208DF8570001208DF85800B4
:1046300000208DF8590000208DF85A0000208DF8D8
:104640005B0000208DF85C00A020ADF84600012042
:104650008DF872003000ADF8700011A81D901CAAF2
:1046600000210120FEF76FF8012200210120FDF753
:1046700030FD01208DF8280000208DF82C0000204E
:104680008DF82D0001208DF8310001208DF82E00CD
:1046900001208DF82F0000208DF830003000ADF89B
:1046A00032000020ADF8340000208DF836000020E4
:1046B0008DF8370000208DF8380000208DF8390083
:1046C00000208DF83A0001208DF83B0001208DF884
:1046D0003C0000208DF83D0000208DF83E000020B9
:1046E0008DF83F0000208DF84000A020ADF82A0092
:1046F00001208DF86A003000ADF868000AA81B9010
:104700001AAA00210120FEF71EF801220121012032
:10471000FDF7DFFC02208DF80C0000208DF8100062
:1047200000208DF8110001208DF8150001208DF872
:10473000120001208DF8130000208DF814003000C5
:10474000ADF816000020ADF8180000208DF81A0012
:1047500000208DF81B0000208DF81C0000208DF833
:104760001D0000208DF81E0001208DF81F00012083
:104770008DF8200000208DF8210000208DF8220007
:1047800000208DF8230000208DF82400A020ADF833
:104790000E0001208DF862003000ADF8600003A823
:1047A000199018AA00210120FDF7CDFF0122022156
:1047B0000120FDF78EFC1EA80021417000218170B0
:1047C0000121C17000218DF8781000214171002174
:1047D00081710121C171012101710021417200210A
:1047E000817201218DF883100221017201218DF85F
:1047F0008510012181730121C173032101730420FC
:104800008DF8000000208DF803000F208DF80100C6
:1048100000208DF802001EA8019069460120FDF7D6
:10482000AAFF012201210120FDF7E3FA02AA0021DB
:104830000120FEF765F815F1A000016851F48071C0
:10484000016015F1A000016851F40071016015F1DB
:10485000A000016851F48061016015F15C000168FD
:1048600066F30F01016015F16400016866F30F0142
:10487000016015F16C00016866F30F010160012110
:104880000120FDF71AFC220010210120FEF78CFA0E
:1048900010210120FEF78CF9002210210120FEF7E3
:1048A00049F8012200210120FEF744F801220121EC
:1048B0000120FEF73FF8012202210120FEF73AF81D
:1048C000012203210120FEF735F8012204210120F5
:1048D000FEF730F8012205210120FEF72BF8012216
:1048E00007210120FEF726F8012207210120FEF70B
:1048F00021F8002200210120FDF745FB00220121C3
:104900000120FDF740FB002202210120FDF73BFBC7
:10491000002203210120FDF736FB002204210120A3
:10492000FDF731FB002205210120FDF72CFB0022C1
:1049300006210120FDF727FB002207210120FDF7BA
:1049400022FB0120FDF78AFA00210120FDF76DFA14
:1049500022B070BD00A00140289A00002DE9F0416E
:104960000400DFF8D8012100C9B250F82150DFF867
:10497000D0012100C9B250F82160D5F890705FF0E5
:1049800000082DE05FF0B64006EB8801086105EBFA
:1049900088001030016831F47021016005EB880057
:1049A0001030016851F4004101600FE0380030FA26
:1049B00008F0C0070AD5DFF88C2110680028E1D084
:1049C0004146C9B22000C0B21268904715F190006C
:1049D0000168012111FA08F13940016018F101085C
:1049E000B8F1200FE2D3BFF34F8FBDE8F08180B55F
:1049F0000020FFF7B3FF01BD80B50120FFF7AEFF38
:104A000001BD80B50220FFF7A9FF01BD80B50320DD
:104A1000FFF7A4FF01BD80B50420FFF79FFF01BD94
:104A200030B4DFF818310400E4B253F82430DFF872
:104A30001041C0B254F820400800C0B203EB80001F
:104A40000069C0F3C030002806D05FF0B6400D000A
:104A5000EDB204EB850420610800C0B203EB8000D6
:104A60001030046862F30A240460C9B203EB8100C9
:104A70001030016851F40041016030BC704730B41F
:104A8000DFF8B8300400E4B253F82430DFF8B04067
:104A9000C0B254F820400800C0B203EB80000069A7
:104AA000C0F3C030002806D05FF0B6400D00EDB274
:104AB00004EB850420610800C0B203EB80001030D5
:104AC0001400E4B2056864F3000505600800C0B294
:104AD00003EB80001030D2B25208D2B2046862F305
:104AE00041040460C9B203EB81001030016851F445
:104AF0000041016030BC704710B4134BC0B253F892
:104B00002000436901248C40A343D2B212FA01F180
:104B10001943416110BC70470B4BC0B253F82000E1
:104B2000D2B2002A04D1012212FA01F1816003E01D
:104B3000012212FA01F1416070470000B8910000B3
:104B4000CC91000010150020E091000010B5DFF8B6
:104B50005C130200D2B251F82220DFF85413030094
:104B6000DBB251F82310096ADFF848331B68194299
:104B700013D01423DFF840430100C9B259436158F0
:104B8000002904D0C0B258432058804705E012F1F4
:104B90001C000168490849000160BFF34F8F10BD38
:104BA0001CB5DFF808130200D2B251F82220DFF85A
:104BB00000130300DBB251F82310096A536A13F0A3
:104BC00001030093DFF8EC325B68194215D014231F
:104BD000DFF8E4420100C9B2594321444968002981
:104BE00005D0C0B2584320444068804705E012F128
:104BF0001C00016831F002010160BFF34F8F13BD4B
:104C000010B5DFF8A8120200D2B251F82220DFF866
:104C1000A0120300DBB251F82310096ADFF89432C6
:104C20001B69194215D01423DFF88C420100C9B268
:104C3000594321440969002905D0C0B25843204492
:104C40000069804705E012F11C00016831F0100195
:104C50000160BFF34F8F10BD1CB5DFF8501202008A
:104C6000D2B251F82220DFF848120300DBB251F82B
:104C70002310096AD36A13F001030093DFF834327A
:104C80009B68194215D01423DFF82C420100C9B2E9
:104C9000594321448968002905D0C0B258432044B3
:104CA0008068804705E012F11C00016831F00401C2
:104CB0000160BFF34F8F13BD1CB5DFF8F011020088
:104CC000D2B251F82220DFF8E8110300DBB251F82C
:104CD0002310096A936A13F001030093DFF8D431BB
:104CE000DB68194214D01423734C0100C9B2594334
:104CF0002144C968002905D0C0B258432044C06887
:104D0000804705E012F11C00016831F008010160E4
:104D1000BFF34F8F13BD80B50020FFF717FF01BD14
:104D200080B50020FFF73CFF01BD80B50020FFF7F4
:104D300067FF01BD80B50020FFF78EFF01BD80B584
:104D40000020FFF7B9FF01BD80B50120FFF7FEFE8F
:104D500001BD80B50120FFF723FF01BD80B5012013
:104D6000FFF74EFF01BD80B50120FFF775FF01BDC4
:104D700080B50120FFF7A0FF01BD80B50220FFF73D
:104D8000E5FE01BD80B50220FFF70AFF01BD80B539
:104D90000220FFF735FF01BD80B50220FFF75CFF61
:104DA00001BD80B50220FFF787FF01BD80B503205C
:104DB000FFF7CCFE01BD80B50320FFF7F1FE01BD7A
:104DC00080B50320FFF71CFF01BD80B50320FFF76E
:104DD00043FF01BD80B50320FFF76EFF01BD10B496
:104DE000324AC0B252F82000002932D002000B78BB
:104DF000146863F35554146010F10C02CB68146806
:104E000063F30F04146002004B685B1E146863F3C5
:104E10001444146002000B7A146863F3861414605F
:104E200002004B7A146863F3C714146002008B7A93
:104E3000146863F30924146010F110020B691468FC
:104E400063F30104146010304969026861F3114290
:104E5000026010BC70471549C0B251F820000830FC
:104E6000016851F0010101607047104AC0B252F868
:104E700020000830026861F31142026070470C4A5A
:104E8000C0B252F82000016670470949C0B251F81B
:104E90002000006E7047064AC0B252F820008069B8
:104EA00001228A401040C840C0B27047949200006E
:104EB000A492000040910000B8120020F8B5040050
:104EC000DFF840032100C9B250F82150DFF8380361
:104ED0002100C9B250F82110CF6DC8690740CF65D5
:104EE000DFF828633068074215D03821DFF8202327
:104EF0002000C0B248431058002806D02000C0B29D
:104F000001FB00F15058804705E015F11C000168D5
:104F10004908490001607068074218D03821DFF85D
:104F2000F0222000C0B2484310444068002808D056
:104F30002000C0B201FB00F102EB01004068804795
:104F400005E015F11C00016831F002010160B06854
:104F5000074218D03821DFF8B8222000C0B24843F9
:104F600010448068002808D02000C0B201FB00F186
:104F700002EB01008068804705E015F11C00016824
:104F800031F004010160F068074218D03821DFF8E1
:104F900080222000C0B248431044C068002808D0D6
:104FA0002000C0B201FB00F102EB0100C0688047A5
:104FB00005E015F11C00016831F00801016030695D
:104FC000074218D03821DFF848222000C0B24843F9
:104FD00010440069002808D02000C0B201FB00F195
:104FE00002EB01000069804705E015F11C00016833
:104FF00031F0100101607069074218D03821DFF8E4
:1050000010222000C0B2484310444069002808D054
:105010002000C0B201FB00F102EB010040698047B3
:1050200005E015F11C00016831F020010160B06954
:10503000074218D03821DFF8D8212000C0B24843F9
:1050400010448069002808D02000C0B201FB00F1A4
:1050500002EB01008069804705E015F11C00016842
:1050600031F480010160F069074218D03821DFF87F
:10507000A0212000C0B248431044C069002808D0D5
:105080002000C0B201FB00F102EB0100C0698047C3
:1050900005E015F11C00016831F400010160306A7F
:1050A000074218D03821DFF868212000C0B24843F9
:1050B0001044006A002808D02000C0B201FB00F1B3
:1050C00002EB0100006A804705E015F11C00016851
:1050D00031F080710160706A074218D03821DFF822
:1050E00030212000C0B248431044406A002808D054
:1050F0002000C0B201FB00F102EB0100406A8047D2
:1051000005E015F11C00016831F000710160B06A22
:10511000074218D03821DFF8F8202000C0B24843F9
:105120001044806A002808D02000C0B201FB00F1C2
:1051300002EB0100806A804705E015F11C00016860
:1051400031F080610160F06A074218D03821DFF841
:10515000C0202000C0B248431044C06A002808D0D4
:105160002000C0B201FB00F102EB0100C06A8047E1
:1051700005E015F11C00016831F000610160306B41
:10518000074218D03821DFF888202000C0B24843F9
:105190001044006B002808D02000C0B201FB00F1D1
:1051A00002EB0100006B804705E015F11C0001686F
:1051B00031F080410160706B074216D03821DFF872
:1051C00050202000C0B248431044406B002806D055
:1051D000E4B24C4302EB0400406B804705E015F15C
:1051E0001C00016821F000410160BFF34F8FF1BD49
:1051F00080B50020FFF762FE01BD80B50120FFF7FA
:105200005DFE01BD8C93000094930000B08E000001
:10521000481200202DE9F0410400DFF8300321009E
:10522000C9B250F82110DFF828032200D2B250F89A
:105230002250EE68DFF81C032200D2B250F82200A0
:105240000640DFF81473386836EA0000E860386812
:10525000064217D01422DFF804332000C0B25043B6
:105260001858002806D02000C0B202FB00F298585F
:10527000804705E011F1100001684908490001600C
:105280003868E8605FF0010821E02969DFF8D002A2
:1052900050F828008143296117E057F8280006429A
:1052A00013D01421DFF8B4222000C0B248431044C8
:1052B00050F828000028E8D02000C0B201FB00F11F
:1052C00002EB010050F82800804718F10108B8F1FE
:1052D000050FE2D3BFF34F8FBDE8F08180B500200A
:1052E000FFF798FF01BD80B50120FFF793FF01BDD7
:1052F00081B000210091DFF85412C0B251F82000B3
:105300000830016851F00401016002E00098401C7F
:10531000009000980A28F9D301B0704710B4DFF864
:105320002C22C0B252F820008A78022A06D110F14D
:105330000802136853F0100313600CE010F1080228
:10534000136833F01003136010F114028B781468A3
:1053500063F3CF34146010F114024B78146863F3D4
:105360001044146010F114020B78146863F3524473
:10537000146010F11402CB78146863F3CB2414602A
:1053800010F114020B79146863F3D544146010F122
:1053900014028B68146863F39F54146010F10802C0
:1053A000C968136861F3D52313600830016851F4AC
:1053B0008061016010BC704710B4644AC0B252F8FA
:1053C000200010F114020B78146863F300041460D9
:1053D00010F114024B78146863F3450414600A78E2
:1053E000012A05D114308978026861F387120260BE
:1053F00010BC704710B4554AC0B252F8202012F1C8
:1054000008000B78046863F34514046008780028EA
:1054100006D112F108008B68046863F3C9140460B4
:1054200012F130004B78046863F30404046012F155
:1054300030008B78046863F30C24046012F13000B0
:10544000CB78046863F31444046012F130000B79E4
:10545000046863F31C64046012F134004B7904683F
:1054600063F30404046012F134008979026861F383
:105470000C22026010BC70473449C0B251F82000C1
:105480000830016851F00101016070472F4AC0B235
:1054900052F820002430026861F31852026070470D
:1054A0002A4AC0B252F820002430026861F3134245
:1054B00002607047254AC0B252F820001030C9B2CD
:1054C000026861F304120260704770B4204B04005C
:1054D000E4B253F82430D2B2002A15D11D4C020098
:1054E000D2B254F822501C4A0E00F6B252F82620CE
:1054F0001543C0B244F820501A691948C9B250F88F
:10550000210002431A6114E01C69154A0D00EDB236
:1055100052F8252094431C610E4A0300DBB252F876
:1055200023300D4CC9B254F821108B43C0B242F85D
:10553000203070BC7047064AC0B252F82000064ABC
:10554000C9B252F82110C160704700005C9300009E
:1055500064930000E81400202891000084130020C8
:105560001091000038B504000D000021200000F06B
:10557000BCF90100C9B200290CD16068400810F4E0
:10558000E070EDB215F03F0505432A000021200030
:1055900000F001FAC0B232BD38B504000D000021A0
:1055A000200000F0A2F90100C9B200290ED1606804
:1055B00040F23F1111EA5001EDB2AD0115F0C00506
:1055C0000D432A000021200000F0E5F9C0B232BDF1
:1055D00038B504000D000021200000F086F901001C
:1055E000C9B200290CD16068C0F34700EDB22D02AA
:1055F00015F4807505432A000021200000F0CBF946
:10560000C0B232BD38B504000D000121200000F009
:105610006CF90100C9B200290CD16068400810F48F
:10562000F070EDB215F01F0505432A00012120009E
:1056300000F0B1F9C0B232BD38B504000D0001214F
:10564000200000F052F90100C9B200290CD16068B5
:10565000C0F34400EDB26D0115F4F07505432A0066
:105660000121200000F097F9C0B232BD38B5040026
:105670000D000221200000F038F90100C9B2002914
:105680000CD16068400810F4E070EDB215F03F05F1
:1056900005432A000221200000F07DF9C0B232BD8E
:1056A00038B504000D000221200000F01EF90100B1
:1056B000C9B200290ED1606840F23F1111EA5001D1
:1056C000EDB2AD0115F0C0050D432A000221200006
:1056D00000F061F9C0B232BD38B504000D000221FE
:1056E000200000F002F90100C9B200290CD1606865
:1056F000C0F34700EDB22D0215F4807505432A0072
:105700000221200000F047F9C0B232BD38B50400D4
:105710000D000321200000F0E8F80100C9B20029C3
:105720000CD16068400810F4F070EDB215F01F0560
:1057300005432A000321200000F02DF9C0B232BD3C
:1057400038B504000D000321200000F0CEF8010060
:10575000C9B200290ED1606840F2DF1111EA500190
:10576000EDB26D0115F020050D432A000321200044
:1057700000F011F9C0B232BD38B504000D000321AC
:10578000200000F0B2F80100C9B200290CD1606815
:10579000C0F34500EDB2AD0115F4E07505432A00F4
:1057A0000321200000F0F7F8C0B232BD38B5040084
:1057B0000D000421200000F098F80100C9B2002972
:1057C0000CD16068400810F4F070EDB215F01F05C0
:1057D00005432A000421200000F0DDF8C0B232BDEC
:1057E00038B504000D000421200000F07EF801000F
:1057F000C9B200290CD16068C0F34400EDB26D015C
:1058000015F4F07505432A000421200000F0C3F8C8
:10581000C0B232BD38B504000D000521200000F0F3
:1058200064F80100C9B200290CD16068400810F486
:10583000FC70EDB215F0070505432A000521200094
:1058400000F0A9F8C0B232BD38B504000D00052142
:10585000200000F04AF80100C9B200290ED16068AA
:1058600040F2C71111EA5001EDB2ED0015F0380514
:105870000D432A000521200000F08DF8C0B232BD92
:1058800038B504000D000521200000F02EF80100BD
:10589000C9B200290CD16068C0F34500EDB2AD017A
:1058A00015F4E07505432A000521200000F073F887
:1058B000C0B232BD010089B290EA1120010089B264
:1058C00090EA1110010089B290EA9100010089B2BA
:1058D00090EA510010F00100704701B49DF80000FB
:1058E000002800D0FEE701B0704738B504000D0075
:1058F000A068002801D1012000E00020C0B2FFF71D
:10590000ECFF2069002801D1012000E00020C0B296
:10591000FFF7E3FFE068002801D1012000E000204C
:10592000C0B2FFF7DAFF002020602000016865F3B5
:10593000CF2101602000016831F480610160200006
:1059400001686FF349010160206880B2FFF7B2FF80
:10595000002804D12000016851F001010160206895
:1059600080B2A1688847002801D1012011E0206998
:10597000804701280CD1E06880476060606880B291
:10598000FFF798FF012801D1002002E0032000E08A
:105990000220C0B232BD70B504000E001500A06830
:1059A000002801D1012000E00020C0B2FFF795FFE0
:1059B0002069002801D1012000E00020C0B2FFF7DB
:1059C0008CFFE068002801D1012000E00020C0B277
:1059D000FFF783FF002020602000016866F3CF21DD
:1059E00001602000016851F48061016020000168BD
:1059F00065F349010160206880B2FFF75BFF002872
:105A000004D12000016851F001010160206880B2DA
:105A1000A1688847002801D101202CE02069804737
:105A2000012827D1E06880476060606880B2FFF796
:105A300041FF01281CD13000C0B20B38032803D32A
:105A40003000C0B21B2801D1002014E03100C9B2DF
:105A50002000FFF74AFF0100C9B200290BD160689E
:105A6000C0F34800A84201D1002004E0042002E075
:105A7000032000E00220C0B270BDFEE710B592B076
:105A80000EA8BE49102200F09FF9BD48006803909F
:105A9000BC4800680290BC4800680190BB480068A0
:105AA00000900BA8BA4991E81C0080E81C00B94896
:105AB000D0E90023CDE90623B748D0E90023CDE99A
:105AC000042308A8B54991E81C0080E81C0004A83C
:105AD0000A90882000F0BCF9882000F0D4F9002258
