:1000000000000220C19000002F5400000367000090
:10001000876C0000BF750000B38600000000000080
:10002000000000000000000000000000CF8700007A
:10003000B994000000000000639500006F95000077
:10004000819800008998000091980000999800001C
:10005000A1980000A9980000B1980000B99800008C
:10006000C1980000C9980000D1980000D9980000FC
:10007000E1980000E9980000F1980000F99800006C
:1000800001990000099900001199000019990000D8
:100090002199000029990000319900003999000048
:1000A00041990000499900005199000059990000B8
:1000B0006199000069990000499F00007199000052
:1000C00079990000819900008999000091990000B8
:1000D000499F000099990000A1990000A99900008A
:1000E000B1990000B9990000499F0000C199000032
:1000F000C9990000D1990000D9990000E199000048
:10010000499F0000E9990000F1990000F999000069
:10011000019A0000099A0000119A0000199A000043
:10012000219A0000299A0000319A0000399A0000B3
:10013000419A0000499A0000519A0000599A000023
:10014000619A0000699A0000719A0000799A000093
:10015000819A0000899A0000919A0000999A000003
:10016000A19A0000A99A0000B19A0000B99A000073
:10017000C19A0000C99A0000D19A0000D99A0000E3
:10018000E19A0000E99A0000F19A0000F99A000053
:10019000019B0000099B0000119B0000199B0000BF
:1001A000219B0000299B0000319B0000399B00002F
:1001B000419B0000499B0000519B0000599B00009F
:1001C000619B0000699B0000719B0000799B00000F
:1001D000819B0000899B0000919B0000999B00007F
:1001E000A19B0000A99B0000B19B0000B99B0000EF
:1001F000C19B0000C99B0000D19B0000D99B00005F
:10020000E19B0000E99B0000F19B0000F99B0000CE
:10021000019C0000099C0000119C0000199C00003A
:10022000219C0000299C0000319C0000399C0000AA
:10023000419C0000499C0000519C0000599C00001A
:10024000619C0000699C0000719C0000799C00008A
:10025000819C0000899C0000919C0000999C0000FA
:10026000A19C0000A99C0000B19C0000B99C00006A
:10027000C19C0000C99C0000D19C0000D99C0000DA
:10028000E19C0000E99C0000F19C0000F99C00004A
:10029000019D0000099D0000119D0000499F000084
:1002A000499F0000499F0000199D0000219D00000A
:1002B000299D0000319D0000399D0000419D0000F6
:1002C000499D0000519D0000599D0000619D000066
:1002D000699D0000719D0000799D0000819D0000D6
:1002E000899D0000919D0000999D0000A19D000046
:1002F000A99D0000B19D0000B99D0000C19D0000B6
:10030000C99D0000D19D0000D99D0000E19D000025
:10031000E99D0000F19D0000F99D0000019E000094
:10032000099E0000119E0000199E0000219E000001
:10033000299E0000319E0000399E0000419E000071
:10034000499E0000519E0000599E0000619E0000E1
:10035000699E0000719E0000799E0000819E000051
:10036000899E0000919E0000999E0000A19E0000C1
:10037000A99E000081B0DFF88816C0B251F8202095
:100380000020009001211000036853F080430360B7
:100390001000036853F0805303601068C00F0028FA
:1003A00004D01000036823F000430360DFF88037B7
:1003B0000098984207D20098401C00901068C0F343
:1003C000C0600028F2D00098984201D301210DE0CE
:1003D000002000900098984208D20098401C00909D
:1003E0001068C0F300600028F4D000210800C0B2FB
:1003F00001B0704781B0DFF80816C0B251F8202074
:1004000000200090012011000B6833F080530B6036
:1004100011000B6833F080430B60009942F21073B7
:10042000994208D20099491C00911168C1F30061FA
:100430000029F2D10020C0B201B070473EB50400DF
:10044000DFF8F0032100C9B250F821100D6ADFF87F
:10045000D4092200D2B250F822000540DFF8C809C2
:1004600005400D6268071FD54C21DFF8C029200028
:10047000C0B2484310440069002808D02000C0B230
:1004800001FB00F102EB0100006980470CE0002055
:100490000290002001900020009000230122002102
:1004A0002000C0B200F0C8FC28031DD54C21DFF8A5
:1004B0007C292000C0B248431044006A002806D0BE
:1004C000E4B24C4302EB0400006A80470CE00020D9
:1004D00002900020019000200090002301220421BE
:1004E0002000C0B200F0A8FC37BDE0B5D149020041
:1004F000D2B251F822105FF400320A624C22DFF8C7
:100500002C390100C9B2514319448969002905D029
:10051000C0B250431844806980470BE0002102912B
:100520000021019100210091002301220221C0B28B
:1005300000F082FC07BDE0B5BE490200D2B251F81E
:1005400022105FF480320A624C22DFF8E0380100AA
:10055000C9B251431944C969002905D0C0B25043FA
:100560001844C06980470BE00021029100210191ED
:1005700000210091002301220321C0B200F05CFCA5
:1005800007BD3EB50400AB482100C9B250F82100B8
:10059000DFF89C58016A2200D2B245F822100221ED
:1005A00001624C21DFF884282000C0B24843104487
:1005B0004069002808D02000C0B201FB00F102EB26
:1005C0000100406980470CE000200290002001906B
:1005D000002000900023012201212000C0B200F081
:1005E0002BFC0020E4B245F8240037BD3EB50400E2
:1005F00090482100C9B250F82100DFF83458016A50
:100600002200D2B245F822105FF4801101624C2121
:10061000DFF818282000C0B248431044406A002880
:1006200008D02000C0B201FB00F102EB0100406ADB
:1006300080470CE0002002900020019000200090F4
:100640000023012205212000C0B200F0F5FB0020AC
:10065000E4B245F8240037BD3EB5040075482100DA
:10066000C9B250F82110D1F8085BD1F8000B054051
:1006700015F44035C1F8085BE8031FD54C21DFF8BD
:10068000AC272000C0B248431044406C002808D07A
:100690002000C0B201FB00F102EB0100406C80477A
:1006A0000CE0002002900020019000200090002328
:1006B00001220D212000C0B200F0BEFBA8031DD511
:1006C0004C21DFF868272000C0B248431044806CFA
:1006D000002806D0E4B24C4302EB0400806C804753
:1006E0000CE00020029000200190002000900023E8
:1006F00001220E212000C0B200F09EFB37BDE0B504
:100700004C490200D2B251F8221001220A624C2256
:10071000DFF818370100C9B251431944896A00292A
:1007200005D0C0B250431844806A80470BE00021D6
:100730000291002101910021009100230122062154
:10074000C0B200F079FB07BD3EB504003948210076
:10075000C9B250F82110D1F8FC5AD1F8E00A05408E
:1007600015F45025C1F8FC5A28031FD54C21DFF899
:10077000BC262000C0B248431044806B002808D03B
:100780002000C0B201FB00F102EB0100806B80474A
:100790000CE0002002900020019000200090002337
:1007A00001220A212000C0B200F046FB68031FD5D9
:1007B0004C21DFF878262000C0B248431044C06BBB
:1007C000002808D02000C0B201FB00F102EB0100BC
:1007D000C06B80470CE000200290002001900020B8
:1007E0000090002301220B212000C0B200F024FB66
:1007F000E8031DD54C21DFF834262000C0B2484361
:100800001044006C002806D0E4B24C4302EB040014
:10081000006C80470CE00020029000200190002036
:100820000090002301220C212000C0B200F004FB44
:1008300037BD0000DC9400002DE9F8430400704847
:100840002100C9B250F82150DFF8D4052100C9B207
:1008500050F82160D5F8008018F07F0818F10108E1
:10086000D6F83090B06A10EA09091FFA89F9B8F190
:10087000110F02D35FF01008FFE7002719E0B06AFC
:100880000121B9408843B0620FE04C21DFF89C257C
:100890002000C0B2484310580028F0D03800230090
:1008A000DBB201FB03F1515888470120B8403063A7
:1008B0007F1C47455CD24846F840C007F8D52868F9
:1008C000C0F34070002803D0082F01D2012000E0BF
:1008D0000020C0B20028D8D0052F16D14C21DFF857
:1008E0004C252000C0B248431044C06A002808D0FC
:1008F0002000C0B201FB00F102EB0100C06A80479A
:1009000003E0B06A30F02000B062062F16D14C210F
:10091000DFF818252000C0B248431044006B0028BF
:1009200008D02000C0B201FB00F102EB0100006B17
:10093000804703E0B06A30F04000B062072FB4D1C6
:100940004C21DFF8E8242000C0B248431044406B3B
:10095000002808D02000C0B201FB00F102EB01002A
:10096000406B8047A1E7B06A30F08000B0629CE73E
:10097000BDE8F1832DE9F041040021482100C9B20E
:1009800050F82100DFF898142200D2B251F822501A
:10099000066816F07F06761C2F6BA86A07403F0C8E
:1009A0003F04212E01D32026FFE75FF0100823E04B
:1009B000A86A012111FA08F18843A86216E03800FC
:1009C00030FA08F0C00711D54C21DFF86024200070
:1009D000C0B24843104440680028E9D04046230094
:1009E000DBB201FB03F1114449688847012010FA8A
:1009F00008F0286318F10108B045E0D3BDE8F081A4
:100A0000BC9400002DE9F0410400DFF82804210027
:100A1000C9B250F82100DFF808142200D2B251F810
:100A20002250066816F07F06761CEF6A686A074057
:100A3000BFB2312E01D33026FFE75FF0200827E058
:100A4000696A0122B8F1200082409143696218E08E
:100A5000B8F120003900C140C80712D54C21DFF899
:100A6000CC232000C0B24843104480680028E7D05F
:100A70004046C0B22300DBB201FB03F11144896898
:100A800088470121B8F120008140E96218F101088E
:100A90004046C0B2B042DBD3BDE8F0812DE9F04161
:100AA0000400DFF890032100C9B250F82100DFF8FC
:100AB00070132200D2B251F82250066816F07F0659
:100AC000761CEF6A686A07403F0C3F04412E01D351
:100AD0004026FFE75FF0300826E0696A012218F13E
:100AE000E00082409143696217E018F1E0003900AC
:100AF000C140C80711D54C21DFF830232000C0B217
:100B000048431044C0680028E7D040462300DBB2C9
:100B100001FB03F11144C9688847012118F1E00085
:100B20008140E96218F10108B045DED3BDE8F081EB
:100B3000404B4C002DE9F8430400DFF8F802210097
:100B4000C9B250F82150B6482100C9B250F821600E
:100B5000D5F8008018F07F0818F10108D6F8309019
:100B6000B06A10EA0909B8F1210F02D35FF020083A
:100B7000FFE7002719E0B06A0121B9408843B0625D
:100B80000FE04C21DFF8A4222000C0B248431058E7
:100B90000028F0D038002300DBB201FB03F15158EC
:100BA00088470120B84030637F1C47455ED24846E5
:100BB000F840C007F8D52868C0F34070002803D07B
:100BC000082F01D2012000E00020C0B20028D8D0B8
:100BD000052F17D14C21DFF854222000C0B2484322
:100BE0001044C06A002808D02000C0B201FB00F108
:100BF00002EB0100C06A8047D3E7B06A30F0200002
:100C0000B062CEE7062F17D14C21DFF8202220005A
:100C1000C0B248431044006B002808D02000C0B286
:100C200001FB00F102EB0100006B8047B9E7B06AFD
:100C300030F04000B062B4E7072FB2D14C21DFF8AA
:100C4000EC212000C0B248431044406B002808D07B
:100C50002000C0B201FB00F102EB0100406B8047B5
:100C60009FE7B06A30F08000B0629AE7BDE8F18398
:100C70002DE9F0410400DFF8BC012100C9B250F8B1
:100C8000210067492200D2B251F82250066816F0BE
:100C90007F06761CEF6A686A0740412E01D3402622
:100CA000FFE75FF0200826E0696A012218F1E00002
:100CB00082409143696217E018F1E0003900C140B9
:100CC000C80711D54C21DFF864212000C0B2484389
:100CD000104440680028E7D040462300DBB201FB07
:100CE00003F1114449688847012118F1E00081406F
:100CF000E96218F10108B045DED3BDE8F0812DE9C5
:100D0000F0410400DFF82C012100C9B250F82100A5
:100D100043492200D2B251F82250066816F07F06ED
:100D2000761C6F6FE86E0740612E01D36026FFE7E7
:100D30005FF0400827E0E96E0122B8F140008240F0
:100D40009143E96618E0B8F140003900C140C80796
:100D500012D54C21DFF8D4202000C0B24843104403
:100D600080680028E7D04046C0B22300DBB201FB18
:100D700003F11144896888470121B8F1400081409E
:100D8000696718F101084046C0B2B042DBD3BDE844
:100D9000F0812DE9F0410400DFF898002100C9B28C
:100DA00050F821001E492200D2B251F822500668A4
:100DB00016F07F06761C2F6FA86E0740802E01D399
:100DC0008026FFE75FF0600825E0A96E012218F198
:100DD000A00082409143A96616E018F1A0003900F6
:100DE000C140C80710D54C21104A2000C0B248436A
:100DF0001044C0680028E8D040462300DBB201FB65
:100E000003F11144C9688847012118F1A00081400D
:100E1000296718F10108B045DFD3BDE8F081000073
:100E2000DC940000B8130020040008001C0C002013
:100E300098130020BC9400002DE9F84F05008B4664
:100E400016001F00DFF844052900C9B250F82180C0
:100E5000DFF83C052900C9B250F82190D8F800000D
:100E6000C0F300645FF0000A002C07D12800C0B274
:100E7000FFF780FA002801D05FF0010A5046C0B2A7
:100E8000002840F07E825846C0B200286AD002286E
:100E900000F0A58066D3042800F0EA80C0F09F80AF
:100EA000062800F02281C0F0E380082800F05A8173
:100EB000C0F058810A2800F07081C0F053810C28DE
:100EC00000F06B81C0F069810E2800F08D81C0F0C8
:100ED0008B81102800F0A38180F049820A9A0B9937
:100EE0000C98F6B2002E1CD1D9F828301F43C9F84F
:100EF0002870D9F824301A43C9F824202A00D2B225
:100F0000062A03D02A00D2B2072A2AD1D9F86C20A7
:100F10001143C9F86C10D9F868100843C9F8680083
:100F20001FE0D9F8283033EA0707C9F82870D9F844
:100F3000243033EA0202C9F824202A00D2B2062A59
:100F400003D02A00D2B2072A0BD1D9F86C2032EA9A
:100F50000101C9F86C10D9F8681031EA0000C9F82D
:100F6000680004E2F6B2002E1CD1DFF82814280035
:100F7000C0B251F82020DFF820045B46DBB250F805
:100F8000230002432800C0B241F82020D9F8041001
:100F9000DFF808045FFA8BFB50F82B000143C9F817
:100FA00004101BE0D9F80410DFF8F0035A46D2B25F
:100FB00050F822008143C9F80410DFF8D813280044
:100FC000C0B251F82020DFF8D0035FFA8BFB50F855
:100FD0002B0082432800C0B241F82020C7E1F6B2BE
:100FE000002E22D1D8F8000050F40010C8F80000FC
:100FF000DFF8A0132800C0B251F82020DFF89803D2
:101000005B46DBB250F8230002432800C0B241F82F
:101010002020D9F80410DFF884035FFA8BFB50F826
:101020002B000143C9F8041021E0D8F8000030F487
:101030000010C8F80000D9F80410DFF860035A4621
:10104000D2B250F822008143C9F80410DFF84413EB
:101050002800C0B251F82020DFF83C035FFA8BFB78
:1010600050F82B0082432800C0B241F820207EE1D6
:10107000F6B2002E1CD1DFF81C132800C0B251F8C4
:101080002020DFF814035B46DBB250F82300024354
:101090002800C0B241F82020D9F83410DFF8FC0253
:1010A0005FFA8BFB50F82B000143C9F834101BE0AA
:1010B000D9F83410DFF8E4025A46D2B250F82200D0
:1010C0008143C9F83410DFF8CC122800C0B251F8BF
:1010D0002020DFF8C4025FFA8BFB50F82B0082431C
:1010E0002800C0B241F8202041E1F6B2002E1CD108
:1010F000DFF8A0122800C0B251F82020DFF89802D3
:101100005B46DBB250F8230002432800C0B241F82E
:101110002020D9F80010DFF884025FFA8BFB50F82A
:101120002B000143C9F800101BE0D9F80010DFF8CC
:101130006C025A46D2B250F822008143C9F800101E
:10114000DFF850122800C0B251F82020DFF8480222
:101150005FFA8BFB50F82B0082432800C0B241F8A5
:10116000202004E1F6B2002E0BD1D9F82810DFF8C8
:101170002C025FFA8BFB50F82B000143C9F82810B2
:101180000AE0D9F82810DFF814025FFA8BFB50F858
:101190002B008143C9F82810E9E018F134000168F8
:1011A00051F00051016018F52E60016821F00041F6
:1011B0000160F6B2002E0BD1D9F8E01ADFF8DC019D
:1011C0005FFA8BFB50F82B000143C9F8E01A0AE0E4
:1011D000D9F8E01ADFF8C4015FFA8BFB50F82B0056
:1011E0008143C9F8E01AC2E0F6B2002E0BD1D9F85B
:1011F000001BDFF8A8015FFA8BFB50F82B000143BE
:10120000C9F8001B0AE0D9F8001BDFF890015FFA6B
:101210008BFB50F82B008143C9F8001BA7E0F6B206
:10122000002E51D1DFF87801DFF868112A00D2B220
:1012300041F82200D9F828005FF0FF30C9F82800F3
:10124000D9F82410C9F824002900C9B2062903D00E
:101250002900C9B2072907D1D9F86C10C9F86C0068
:10126000D9F86810C9F86800D9F8040050F44C4067
:10127000C9F80400D9F8340050F04040C9F83400EF
:1012800018F13400016851F00051016018F52E602A
:10129000016821F000410160D9F8E00A50F45020C3
:1012A000C9F8E00A4046016851F080610160D8F851
:1012B000000050F40010C8F80000D9F8000B50F4FA
:1012C0004030C9F8000B51E0D9F828000020C9F8D7
:1012D0002800D9F824000020C9F824002800C0B252
:1012E000062803D02800C0B2072809D1D9F86C001D
:1012F0000020C9F86C00D9F868000020C9F868001F
:10130000D9F8040030F44C40C9F80400D9F834008E
:1013100020F04040C9F8340018F13400016851F061
:101320000051016018F52E60016821F00041016054
:10133000D9F8E00A30F45020C9F8E00A40460168C4
:1013400031F080610160D8F8000030F40010C8F876
:101350000000D9F8000B30F44030C9F8000B002031
:10136000DFF830102A00D2B241F82200FFE7002C4B
:1013700007D12800C0B2FFF73DF8002801D05FF088
:10138000010A5046C0B2BDE8F28F0000BC940000D4
:10139000DC940000B8130020A0920000209300000D
:1013A00007001B0080B50020FFF748F8BFF34F8F00
:1013B00001BD000080B50020FFF797F8BFF34F8F05
:1013C00001BD000080B50020FFF7B5F8BFF34F8FD7
:1013D00001BD000080B50020FFF7D3F8BFF34F8FA9
:1013E00001BD000080B50020FFF700F9BFF34F8F6B
:1013F00001BD000080B50020FFF72EF9BFF34F8F2D
:1014000001BD000080B50020FFF779F9BFF34F8FD1
:1014100001BD000080B50020FFF796F9BFF34F8FA4
:1014200001BD000080B50020FFF706FABFF34F8F23
:1014300001BD000080B50020FFF79CFABFF34F8F7D
:1014400001BD000080B50020FFF7DCFABFF34F8F2D
:1014500001BD000080B50020FFF720FBBFF34F8FD8
:1014600001BD000080B50120FEF7E8FFBFF34F8FFC
:1014700001BD000080B50120FFF737F8BFF34F8FA3
:1014800001BD000080B50120FFF755F8BFF34F8F75
:1014900001BD000080B50120FFF773F8BFF34F8F47
:1014A00001BD000080B50120FFF7A0F8BFF34F8F0A
:1014B00001BD000080B50120FFF7CEF8BFF34F8FCC
:1014C00001BD000080B50120FFF719F9BFF34F8F70
:1014D00001BD000080B50120FFF736F9BFF34F8F43
:1014E00001BD000080B50120FFF7A6F9BFF34F8FC3
:1014F00001BD000080B50120FFF73CFABFF34F8F1C
:1015000001BD000080B50120FFF77CFABFF34F8FCB
:1015100001BD000080B50120FFF7C0FABFF34F8F77
:1015200001BD000080B50220FEF788FFBFF34F8F9A
:1015300001BD000080B50220FEF7D7FFBFF34F8F3B
:1015400001BD000080B50220FEF7F5FFBFF34F8F0D
:1015500001BD000080B50220FFF713F8BFF34F8FE5
:1015600001BD000080B50220FFF740F8BFF34F8FA8
:1015700001BD000080B50220FFF76EF8BFF34F8F6A
:1015800001BD000080B50220FFF7B9F8BFF34F8F0F
:1015900001BD000080B50220FFF7D6F8BFF34F8FE2
:1015A00001BD000080B50220FFF746F9BFF34F8F61
:1015B00001BD000080B50220FFF7DCF9BFF34F8FBB
:1015C00001BD000080B50220FFF71CFABFF34F8F6A
:1015D00001BD000080B50220FFF760FABFF34F8F16
:1015E00001BD000080B50320FEF728FFBFF34F8F39
:1015F00001BD000080B50320FEF777FFBFF34F8FDA
:1016000001BD000080B50320FEF795FFBFF34F8FAB
:1016100001BD000080B50320FEF7B3FFBFF34F8F7D
:1016200001BD000080B50320FEF7E0FFBFF34F8F40
:1016300001BD000080B50320FFF70EF8BFF34F8F08
:1016400001BD000080B50320FFF759F8BFF34F8FAD
:1016500001BD000080B50320FFF776F8BFF34F8F80
:1016600001BD000080B50320FFF7E6F8BFF34F8F00
:1016700001BD000080B50320FFF77CF9BFF34F8F59
:1016800001BD000080B50320FFF7BCF9BFF34F8F09
:1016900001BD000080B50320FFF700FABFF34F8FB4
:1016A00001BD000080B50420FEF7C8FEBFF34F8FD8
:1016B00001BD000080B50420FEF717FFBFF34F8F78
:1016C00001BD000080B50420FEF735FFBFF34F8F4A
:1016D00001BD000080B50420FEF753FFBFF34F8F1C
:1016E00001BD000080B50420FEF780FFBFF34F8FDF
:1016F00001BD000080B50420FEF7AEFFBFF34F8FA1
:1017000001BD000080B50420FEF7F9FFBFF34F8F45
:1017100001BD000080B50420FFF716F8BFF34F8F1E
:1017200001BD000080B50420FFF786F8BFF34F8F9E
:1017300001BD000080B50420FFF71CF9BFF34F8FF7
:1017400001BD000080B50420FFF75CF9BFF34F8FA7
:1017500001BD000080B50420FFF7A0F9BFF34F8F53
:1017600001BD000080B50520FEF768FEBFF34F8F76
:1017700001BD000080B50520FEF7B7FEBFF34F8F17
:1017800001BD000080B50520FEF7D5FEBFF34F8FE9
:1017900001BD000080B50520FEF7F3FEBFF34F8FBB
:1017A00001BD000080B50520FEF720FFBFF34F8F7D
:1017B00001BD000080B50520FEF74EFFBFF34F8F3F
:1017C00001BD000080B50520FEF799FFBFF34F8FE4
:1017D00001BD000080B50520FEF7B6FFBFF34F8FB7
:1017E00001BD000080B50520FFF726F8BFF34F8F3D
:1017F00001BD000080B50520FFF7BCF8BFF34F8F97
:1018000001BD000080B50520FFF7FCF8BFF34F8F46
:1018100001BD000080B50520FFF740F9BFF34F8FF1
:1018200001BD000080B50620FEF708FEBFF34F8F14
:1018300001BD000080B50620FEF757FEBFF34F8FB5
:1018400001BD000080B50620FEF775FEBFF34F8F87
:1018500001BD000080B50620FEF793FEBFF34F8F59
:1018600001BD000080B50620FEF7C0FEBFF34F8F1C
:1018700001BD000080B50620FEF7EEFEBFF34F8FDE
:1018800001BD000080B50620FEF739FFBFF34F8F82
:1018900001BD000080B50620FEF756FFBFF34F8F55
:1018A00001BD000080B50620FFF744F9BFF34F8F5C
:1018B00001BD000080B50620FFF7DAF9BFF34F8FB6
:1018C00001BD000080B50620FFF719FABFF34F8F66
:1018D00001BD000080B50620FFF75BFABFF34F8F14
:1018E00001BD000080B50720FEF7A8FDBFF34F8FB4
:1018F00001BD000080B50720FEF7F7FDBFF34F8F55
:1019000001BD000080B50720FEF715FEBFF34F8F25
:1019100001BD000080B50720FEF733FEBFF34F8FF7
:1019200001BD000080B50720FEF760FEBFF34F8FBA
:1019300001BD000080B50720FEF78EFEBFF34F8F7C
:1019400001BD000080B50720FEF7D9FEBFF34F8F21
:1019500001BD000080B50720FEF7F6FEBFF34F8FF4
:1019600001BD000080B50720FFF7E4F8BFF34F8FFB
:1019700001BD000080B50720FFF77AF9BFF34F8F54
:1019800001BD000080B50720FFF7B9F9BFF34F8F05
:1019900001BD000080B50720FFF7FBF9BFF34F8FB3
:1019A00001BDF0B40246106895681318506803EB47
:1019B0005004C00748BF4D44A3422DD013F8016B1B
:1019C00016F0030004BF13F8010BC01C31090F29E6
:1019D00007D113F8011B0F3103E013F8017B05F861
:1019E000017B401EF9D10029E6D013F8010BC6F3A4
:1019F0008106032E08BF13F8016B00EB062040425E
:101A000028440026B71E8F421EBF10F8017B05F840
:101A1000017B761CF6D1CFE7F0BC02F10C007047D9
:101A20002DE9F041040000200020DFF8A40A210085
:101A3000C9B250F82150DFF89C0A2100C9B250F811
:101A40002160AF6BDFF8900A406C07405FF0000840
:101A500031E001224146C9B22000C0B200F06AFF65
:101A600027E0380030FA08F0C00722D506EB8800DE
:101A7000C06BC0F3001000281BD005EB8800C06BC2
:101A800030F0200005EB8801C863DFF80C1B44220E
:101A90002000C0B25043084450F828000028D8D095
:101AA0002000C0B202FB00F201EB020050F8280057
:101AB000804718F10108B8F1080FD2D3BFF34F8F58
:101AC000BDE8F08180B50021DFF8041A0200D2B22F
:101AD00051F82230D3F89010DFF8FC29126C114035
:101AE00000291AD0D3F8901031F03001C3F89010CB
:101AF0004422DFF8A43A0100C9B251431944096CE9
:101B0000002905D0C0B250431844006C804704E05F
:101B100001221021C0B200F00DFFBFF34F8F01BDB5
:101B2000F8B504000020DFF8A8092100C9B250F878
:101B30002150DFF8A469AF6B706C0740306B07422F
:101B40001CD0A86B30F48050A863DFF84C1A4422F4
:101B50002000C0B250430844006B002808D0200089
:101B6000C0B202FB00F201EB0200006B804705E00F
:101B700001220C212000C0B200F0DCFE706B074295
:101B80001CD0A86B30F40050A863DFF80C1A442274
:101B90002000C0B250430844406B002808D0200009
:101BA000C0B202FB00F201EB0200406B804705E08F
:101BB00001220D212000C0B200F0BCFEB06B074234
:101BC0001CD0A86B30F48040A863DFF8CC19442205
:101BD0002000C0B250430844806B002808D0200089
:101BE000C0B202FB00F201EB0200806B804705E00F
:101BF00001220E212000C0B200F09CFEF06B0742D3
:101C00001AD0A86B30F40040A863DFF88C19442286
:101C10002000C0B250430844C06B002806D0E4B294
:101C2000544301EB0400C06B804705E001220F2103
:101C30002000C0B200F07EFEBFF34F8FF1BD000068
:101C4000F8B504000020DFF888082100C9B250F878
:101C50002150DFF88468AF6B706C0740306A074230
:101C60001CD0A86B30F48070A863DFF82C194422D4
:101C70002000C0B250430844006A002808D0200069
:101C8000C0B202FB00F201EB0200006A804705E0EF
:101C9000012208212000C0B200F04CFE706A074209
:101CA0001CD0A86B30F40070A863DFF8EC18442255
:101CB0002000C0B250430844406A002808D02000E9
:101CC000C0B202FB00F201EB0200406A804705E06F
:101CD000012209212000C0B200F02CFEB06A0742A8
:101CE0001CD0A86B30F48060A863DFF8AC184422E5
:101CF0002000C0B250430844806A002808D0200069
:101D0000C0B202FB00F201EB0200806A804705E0EE
:101D100001220A212000C0B200F00CFEF06A074246
:101D20001AD0A86B30F40060A863DFF86C18442266
:101D30002000C0B250430844C06A002806D0E4B274
:101D4000544301EB0400C06A804705E001220B21E7
:101D50002000C0B200F0EEFDBFF34F8FF1BD80B5A3
:101D60000020FFF75DFE01BD80B50020FFF7AAFE51
:101D700001BD80B50020FFF7D3FE01BD80B5002076
:101D8000FFF75EFF01BD80B50120FFF749FE01BDF1
:101D900080B50120FFF796FE01BD80B50120FFF759
:101DA000BFFE01BD80B50120FFF74AFF01BDDFF88E
:101DB0002417C0B251F820003430016851F080413E
:101DC0000160704781B0DFF80C17C0B251F82000F5
:101DD000416B890F11F001018DF800109DF8001082
:101DE000012904D13830016851F48031016001B01B
:101DF000704770B504000E0015002000C0B2FFF758
:101E0000E1FFDFF8D0062100C9B250F8210001003F
:101E10000A6866F301020A60016865F384010160E3
:101E20002000C0B2FFF7C3FF70BD38B504000D003D
:101E30002000C0B2FFF7C6FFDFF894062100C9B248
:101E400050F82100416B4FF4805212FA05F50D4312
:101E500045632000C0B2FFF7AAFF31BD10B50400F2
:101E60002000C0B2FFF7AEFFDFF868062100C9B25C
:101E700050F8210010F134010A6852F000420A6063
:101E800010F134010A6832F480520A6010F1340112
:101E90000A6832F400520A6010F134010A6832F420
:101EA00080420A603430016831F400410160200052
:101EB000C0B2FFF77CFF10BD70B504000D00160026
:101EC0002000C0B2FFF77EFFDFF804062100C9B290
:101ED00050F82100416BF6B2002E07D14FF480720A
:101EE00012FA05F531EA0505456305E04FF4807205
:101EF00012FA05F50D4345632000C0B2FFF757FF06
:101F000070BDDFF8D035C0B253F82000C9B200EB85
:101F100081001430016862F30F010160704770B5F1
:101F200004000E0015002000C0B2FFF74BFFDFF8E1
:101F3000A4052100C9B250F82100F6B200EB8600DA
:101F40002430016865F30B0101602000C0B2FFF787
:101F50002EFF70BDDFF87825C0B252F82000426B2A
:101F6000012313FA01F1114341637047DFF8602543
:101F7000C0B252F82000426B012313FA01F132EA99
:101F8000010141637047DFF84C35C0B253F82000BF
:101F9000C9B200EB81003C30D2B2016862F3861115
:101FA0000160704770B504000E0015002000C0B23B
:101FB000FFF708FFDFF81C052100C9B250F8210027
:101FC000F6B200EB86003C30EDB2016865F300012B
:101FD00001602000C0B2FFF7EAFE70BDDFF8F43404
:101FE000C0B253F82000C9B200EB81005C30016838
:101FF00062F30F010160704770B504000D00160018
:102000002000C0B2FFF7DEFEDFF8C4042100C9B231
:1020100050F82100C16FF6B2002E07D14FF4807244
:1020200012FA05F531EA0505C56705E04FF480723F
:1020300012FA05F50D43C5672000C0B2FFF7B7FEE1
:1020400070BD70B504000D0016002000C0B2FFF78F
:10205000B9FEDFF87C042100C9B250F82100C16F3D
:10206000F6B2002E06D1012212FA05F531EA050575
:10207000C56704E0012212FA05F50D43C56720008B
:10208000C0B2FFF794FE70BDDFF84434C0B253F81D
:102090002000D0F88030D2B2002A07D1012212FAF3
:1020A00001F133EA0101C0F8801005E0012212FAC3
:1020B00001F11943C0F880107047DFF81824C0B24E
:1020C00052F820008030C9B2026861F30822026031
:1020D000704770B504000D0016002000C0B2FFF775
:1020E00071FEDFF8EC032100C9B250F82100D0F8EE
:1020F0008810F6B2002E08D14022ED0012FA05F544
:1021000031EA0505C0F8885006E04022ED0012FAD9
:1021100005F50D43C0F888502000C0B2FFF747FE18
:1021200070BD70B504000E0015002000C0B2FFF7AE
:1021300049FEDFF8A0032100C9B250F82100F6B231
:10214000002E05D0022E25D013D3032E33D043E02A
:1021500010F188012A00D2B20B6862F304130B60FD
:102160008830EDB26D08EDB2016865F3451101608C
:1021700032E010F188012A00D2B20B6862F30C330E
:102180000B608830EDB26D08EDB2016865F34D313A
:10219000016021E010F188012A00D2B20B6862F3DD
:1021A00014530B608830EDB26D08EDB2016865F331
:1021B0005551016010E010F188012A00D2B20B687D
:1021C00062F31C730B608830EDB26D08EDB20168EC
:1021D00065F35D710160FFE72000C0B2FFF7E7FD26
:1021E00070BD70B504000E0015002000C0B2FFF7EE
:1021F000E9FDB8482100C9B250F82100F6B2002E1E
:1022000005D0022E11D009D3032E15D01BE0883043
:10221000EDB2016865F3C301016014E08830EDB2EE
:10222000016865F3CB2101600DE08830EDB20168F3
:1022300065F3D341016006E08830EDB2016865F3D3
:10224000DB610160FFE72000C0B2FFF7B0FD70BDA9
:10225000A04BC0B253F82000C9B2002905D0022912
:1022600011D009D3032915D01BE08830D2B2016800
:1022700062F38201016014E08830D2B2016862F337
:102280008A2101600DE08830D2B2016862F3924188
:10229000016006E08830D2B2016862F39A610160A1
:1022A000FFE7704770B504000E0015002000C0B2B3
:1022B000FFF788FD87482100C9B250F82100F6B227
:1022C000002E05D0022E11D009D3032E15D01BE00D
:1022D0008830EDB2016865F34101016014E0883097
:1022E000EDB2016865F3492101600DE08830EDB27F
:1022F000016865F35141016006E08830EDB2016884
:1023000065F359610160FFE72000C0B2FFF74FFDA0
:1023100070BD70B504000E0015002000C0B2FFF7BC
:1023200051FD6C482100C9B250F82100F6B2002ED0
:1023300005D0022E11D009D3032E15D01BE0883012
:10234000EDB2016865F30001016014E08830EDB280
:10235000016865F3082101600DE08830EDB2016885
:1023600065F31041016006E08830EDB2016865F365
:1023700018610160FFE72000C0B2FFF718FD70BDD3
:10238000544AC0B252F820008C30026861F3134204
:102390000260704770B504000E0015002000C0B246
:1023A000FFF710FD4B482100C9B250F82100F6B2EA
:1023B000002E05D0022E11D009D3032E15D01BE01C
:1023C0008C30EDB2016865F30001016014E08C30DF
:1023D000EDB2016865F3410101600DE08C30EDB2B2
:1023E000016865F38201016006E08C30EDB201689E
:1023F00065F3C3010160FFE72000C0B2FFF7D7FC1F
:1024000070BD38B504000D002000C0B2FFF7DAFC43
:1024100030482100C9B250F821008C30EDB201687B
:1024200065F3145101602000C0B2FFF7C0FC31BD5C
:1024300038B504000D002000C0B2FFF7C3FC2548EA
:102440002100C9B250F821008C30EDB2016865F36B
:102450004D3101602000C0B2FFF7A9FC31BD70B55D
:1024600004000E0015002000C0B2FFF7ABFC1948B5
:102470002100C9B250F82100F6B2002E05D0022E7C
:1024800011D009D3032E15D01BE08C30EDB20168BA
:1024900065F30821016014E08C30EDB2016865F34A
:1024A000492101600DE08C30EDB2016865F38A21AD
:1024B000016006E08C30EDB2016865F3CB2101606C
:1024C000FFE72000C0B2FFF772FC70BD0000000003
:1024D00058980000509800001492000070B5040055
:1024E0000E0015002000C0B2FFF76CFCDFF8D0082A
:1024F0002100C9B250F82100F6B2002E05D0022EFC
:1025000011D009D3032E15D01BE08C30EDB2016839
:1025100065F30411016014E08C30EDB2016865F3DD
:10252000451101600DE08C30EDB2016865F3861154
:10253000016006E08C30EDB2016865F3C7110160FF
:10254000FFE72000C0B2FFF732FC70BD70B5040099
:102550000D0016002000C0B2FFF734FCDFF864085D
:102560002100C9B250F82100D0F89410F6B2002E24
:1025700007D1012212FA05F531EA0505C0F8945099
:1025800005E0012212FA05F50D43C0F89450200031
:10259000C0B2FFF70CFC70BD1C10002070B5040029
:1025A0000D0016002000C0B2FFF70CFCDFF8140885
:1025B0002100C9B250F82100D0F89810F6B2002ED0
:1025C00007D1012212FA05F531EA0505C0F8985045
:1025D00005E0012212FA05F50D43C0F898502000DD
:1025E000C0B2FFF7E4FB70BDF8B504000D002E7813
:1025F0007600771C2A7929782000C0B2FFF791FD78
:102600006A7929782000C0B2FFF7EBFDA87901288C
:1026100006D13100C9B22000C0B2FFF79BFC05E033
:102620003100C9B22000C0B2FFF7A0FCE879012850
:1026300006D13900C9B22000C0B2FFF78BFC05E01B
:102640003900C9B22000C0B2FFF790FC6A7A3100AD
:10265000C9B22000C0B2FFF7A5FC2A7A3100C9B286
:102660002000C0B2FFF7EDFC2A7A3900C9B2200081
:10267000C0B2FFF7E6FC6A893100C9B22000C0B2DF
:10268000FFF7ACFCAA893900C9B22000C0B2FFF73D
:10269000A5FCAA7B3100C9B22000C0B2FFF7ACFC98
:1026A000EA7B3900C9B22000C0B2FFF7A5FC2A7C42
:1026B0003100C9B22000C0B2FFF7E6FC6A7C3900E5
:1026C000C9B22000C0B2FFF7DFFCE87C01281BD1B3
:1026D0006A7D3100C9B22000C0B2FFF737FFEA7D42
:1026E0003100C9B22000C0B2FFF758FFAA7D3900FF
:1026F000C9B22000C0B2FFF729FF2A7E3900C9B253
:102700002000C0B2FFF74AFF012229782000C0B2A2
:10271000FFF7DFFC6A8829782000C0B2FFF7FFFBD3
:10272000EA7C29782000C0B2FFF7F3FDAA7C297863
:102730002000C0B2FFF7B6FD2A7D29782000C0B284
:10274000FFF786FDF1BD70B504000D00160071683D
:102750002000C0B2FFF748FFB2782900C9B22000BC
:10276000C0B2FFF7A9FB32882900C9B22000C0B26D
:10277000FFF7C7FB70BD70B504000D00697820003D
:10278000C0B2FFF7FDFDA9782000C0B2FFF739FE07
:10279000E9782000C0B2FFF74BFE00262DE0686804
:1027A0003100C9B200EB8100827868683100C9B29B
:1027B00010F821102000C0B2FFF7ECFD686831006E
:1027C000C9B200EB8100C27868683100C9B210F864
:1027D00021102000C0B2FFF742FE68683100C9B284
:1027E00000EB8100427868683100C9B210F821100E
:1027F0002000C0B2FFF772FE761C30002978C0B20C
:102800008842CCD370BDDFF8B835C0B253F8200091
:10281000C9B2002905D0022911D009D3032915D046
:102820001BE0A030D2B2016862F30411016014E031
:10283000A030D2B2016862F3451101600DE0A03012
:10284000D2B2016862F38611016006E0A030D2B214
:10285000016862F3C7110160FFE77047DFF8603578
:10286000C0B253F82000C9B2002905D0022911D006
:1028700009D3032915D01BE0A030D2B2016862F35E
:102880000001016014E0A030D2B2016862F341019E
:1028900001600DE0A030D2B2016862F382010160F4
:1028A00006E0A030D2B2016862F3C3010160FFE725
:1028B0007047DFF80C35C0B253F82000C9B20029C8
:1028C00005D002290FD008D3032912D017E0A43075
:1028D000016862F30401016011E0A430016862F351
:1028E0000C2101600BE0A430016862F31441016027
:1028F00005E0A430016862F31C610160FFE77047E6
:1029000070B504000D00160032782900C9B220000D
:10291000C0B2FFF778FF72782900C9B22000C0B2B8
:10292000FFF79CFFB2782900C9B22000C0B2FFF7C0
:10293000C0FF70BD10B4DFF88834C0B253F8203047
:10294000D2B2002A01D1012000E00020C9B2002942
:102950001CD002292AD021D3042937D02ED306290E
:1029600044D03BD3082951D048D30A295ED055D34F
:102970000C296BD062D30E2978D06FD3102900F0C8
:1029800085807BD3112900F089800FE113F13C0190
:10299000C0B20A6860F304120A6007E113F1400153
:1029A000C0B20A6860F304120A60FFE013F1440148
:1029B000C0B20A6860F304120A60F7E013F148013C
:1029C000C0B20A6860F304120A60EFE013F14C0130
:1029D000C0B20A6860F304120A60E7E013F1500124
:1029E000C0B20A6860F304120A60DFE013F1540118
:1029F000C0B20A6860F304120A60D7E013F158010C
:102A0000C0B20A6860F304120A60CFE013F1340127
:102A1000C0B20A6860F310420A60C7E013F13401E3
:102A2000C0B20A6860F351420A60BFE013F134019A
:102A3000C0B20A6860F392420A60B7E013F1340151
:102A4000C0B20A6860F3D3420A60AFE013F1340108
:102A5000C0B20A6860F314520A60A7E013F13401AF
:102A6000C0B20A6860F355520A609FE013F1340166
:102A7000C0B20A6860F396520A6097E013F134011D
:102A8000C0B20A6860F3D7520A608FE013F18C017C
:102A9000C0B20A6860F30C320A6087E013F13C01AF
:102AA0000200D2B20C6862F304140C6013F140010E
:102AB0000200D2B20C6862F304140C6013F14401FA
:102AC0000200D2B20C6862F304140C6013F14801E6
:102AD0000200D2B20C6862F304140C6013F14C01D2
:102AE0000200D2B20C6862F304140C6013F15001BE
:102AF0000200D2B20C6862F304140C6013F15401AA
:102B00000200D2B20C6862F304140C6013F1580195
:102B10000200D2B20C6862F304140C6013F13401A9
:102B20000200D2B20C6862F310440C6013F134015D
:102B30000200D2B20C6862F351440C6013F134010C
:102B40000200D2B20C6862F392440C6013F13401BB
:102B50000200D2B20C6862F3D3440C6013F134016A
:102B60000200D2B20C6862F314540C6013F1340109
:102B70000200D2B20C6862F355540C6013F13401B8
:102B80000200D2B20C6862F396540C6013F1340167
:102B90000200D2B20C6862F3D7540C6013F18C01BE
:102BA000C0B20A6860F30C320A60FFE710BC7047DD
:102BB000DFF80C22C0B252F82000C9B200291AD0A6
:102BC000022924D01DD304292DD026D3062936D09E
:102BD0002FD308293FD038D30A2948D041D30C2914
:102BE00051D04AD30E295AD053D3102963D05CD385
:102BF00011296CD0D7E03C30016831F02001016030
:102C0000D1E04030016831F020010160CBE0443078
:102C1000016831F020010160C5E04830016831F001
:102C200020010160BFE04C30016831F020010160FB
:102C3000B9E05030016831F020010160B3E0543058
:102C4000016831F020010160ADE05830016831F0D9
:102C500020010160A7E03830016831F48071016023
:102C6000A1E03830016831F4007101609BE0383038
:102C7000016831F48061016095E03830016831F419
:102C8000006101608FE03830016831F480510160EB
:102C900089E03830016831F40051016083E0383058
:102CA000016831F4804101607DE03830016831F421
:102CB0000041016077E010F190010A6832F01002E3
:102CC0000A609030016831F0200101606BE010F182
:102CD0003C010A6832F020020A6010F140010A68E3
:102CE00032F020020A6010F144010A6832F020023A
:102CF0000A6010F148010A6832F020020A6010F1FF
:102D00004C010A6832F020020A6010F150010A6892
:102D100032F020020A6010F154010A6832F02002F9
:102D20000A6010F158010A6832F020020A6010F1BE
:102D300038010A6832F480720A6010F138010A68BA
:102D400032F400720A6010F138010A6832F48062CD
:102D50000A6010F138010A6832F400620A6010F16A
:102D600038010A6832F480520A6010F138010A68AA
:102D700032F400520A6010F138010A6832F48042DD
:102D80000A6010F138010A6832F400420A6010F15A
:102D900090010A6832F010020A609030016831F048
:102DA00020010160FFE7704710B4074CC0B2442314
:102DB00058432044C9B240F8212010BC704700009D
:102DC00050980000589800001C10002010B5DFF843
:102DD000944820684069C0F3804000281AD02068D9
:102DE0004069C00F002805D05FF0B640DFF87818C2
:102DF0000968486120681430016851F000410160A1
:102E0000DFF868180868002802D00868804701E0E9
:102E100000F0ADF92068C069C0F3804000281AD0E6
:102E20002068C069C00F002805D05FF0B640DFF809
:102E300038180968C86120681C30016851F00041E9
:102E40000160DFF828184868002802D048688047E9
:102E500001E000F0A6F9BFF34F8F10BD38B5002494
:102E6000DFF800582968096BC90F002905D05FF009
:102E7000B641DFF8F42712681163296830310A6817
:102E800052F080720A60296830310A6852F00042BC
:102E90000A602968896AC90F002905D05FF0B64128
:102EA000DFF8C42712689162296828310A6852F451
:102EB00040520A60296828310A6852F400720A6098
:102EC00029682831C0B20A6860F341020A602868A4
:102ED0002830016851F0010101602868283001683C
:102EE00051F000410160052000F0C2FB002801D034
:102EF000012417E05FF0B640DFF86C1709688862BC
:102F000028682830016851F0007101602868283075
:102F1000016831F40071016028682830016851F0BF
:102F2000004101602000C0B232BD38B5DFF834473F
:102F300023689B69DB0F002B05D05FF0B643DFF8F9
:102F400028572D68AB6123681833C0B21D6860F341
:102F500082051D6020681830D2B2036862F3000356
:102F6000036020681830026852F002020260206894
:102F70001830026852F00042026020684069C00FB9
:102F8000002805D05FF0B640DFF8DC2612685061FB
:102F9000DFF8D4261068406930F4802030F0020059
:102FA000C9B250EA410050F0010050F000401168F1
:102FB0004861042000F05CFB32BD10B50024010024
:102FC000C9B2012926D1032000F052FB002800D00D
:102FD00001242000C0B2002872D1DFF888160868EA
:102FE000C068C00F002805D05FF0B640DFF8782633
:102FF0001268D060DFF8700601220368DB6862F3B4
:1030000012430068C36008680C30016851F0004149
:10301000016055E00100C9B2022926D1042000F068
:1030200027FB002800D001242000C0B2002847D18F
:10303000DFF830160868C068C00F002805D05FF0C0
:10304000B640DFF824261268D060DFF81C060222A2
:103050000368DB6862F312430068C36008680C30E1
:10306000016851F0004101602AE0C0B2032826D176
:10307000052000F0FDFA002800D001242000C0B295
:1030800000281DD1DFF8DC150868C068C00F0028D3
:1030900005D05FF0B640DFF8D0251268D060DFF8C9
:1030A000C80503220368DB6862F312430068C3604B
:1030B00008680C30016851F00041016000E0012413
:1030C0002000C0B210BDDFF89C251168C96AC90F85
:1030D000002905D05FF0B641DFF88C351B68D96256
:1030E00011682C31C0B20B6860F345130B60106897
:1030F0002C30016851F000410160704710B4DFF8D6
:1031000064251168C96AC90F002905D05FF0B6416E
:10311000DFF854351B68D96211682C3143780C688C
:1031200063F312440C6011682C3103780C6863F36C
:1031300001040C6011682C3143680C6863F30F24A0
:103140000C6011682C31437A0C6863F304140C6032
:1031500011682C31007A0B6860F345130B6010681E
:103160002C30016851F00041016010BC7047DFF85D
:10317000F40400684069C00F002805D05FF0B64035
:10318000DFF8E41409684861DFF8DC140868406976
:1031900030F4802030F4007050F00040096848613D
:1031A0007047DFF8C0040068C069C00F002805D070
:1031B0005FF0B640DFF8B0140968C861DFF8A81402
:1031C0000868C06930F4802030F4007050F000408E
:1031D0000968C8617047DFF864250300DBB29B080B
:1031E00052F82320C0B2042853D0082851D00C280C
:1031F0004FD010284DD014284BD0182849D01C2867
:1032000047D0202845D0242843D0282841D02C2836
:103210003FD030283DD034283BD0382839D03C2806
:1032200037D0402835D0442833D0482831D04C28D6
:103230002FD050282DD054282BD0582829D05C28A6
:1032400027D0602825D0642823D0682821D06C2876
:103250001FD070281DD074281BD0782819D07C2846
:1032600017D0802815D0852824D0862841D08728DB
:103270005ED088280DD08C280BD0A02809D0B0288B
:1032800007D0B42805D0B82803D0BC2801D0C02866
:103290006CD11068C00F002802D05FF0B6401060FB
:1032A0001000036861F30B230360106850F00040C6
:1032B00010605BE0DFF8AC231068C068C00F002826
:1032C00005D05FF0B640DFF8A0331B68D860DFF8A8
:1032D00098030368DB6833F47063C9B253EA0123CF
:1032E0000068C36010680C30016851F00041016053
:1032F0003CE0DFF870231068C068C00F002805D0DC
:103300005FF0B640DFF860331B68D860DFF8580321
:103310000368DB6833F0F003C9B253EA01130068B5
:10332000C36010680C30016851F0004101601DE07D
:10333000DFF830231068C068C00F002805D05FF0A8
:10334000B640DFF824331B68D860DFF81C0303683D
:10335000DB681B091B01C9B219430068C160106812
:103360000C30016851F000410160FFE7704781B007
:10337000DFF8C8230300DBB29B0852F823200023A8
:103380008DF80030C0B2042800F0228108285CD0FB
:103390000C285AD0102858D0142856D0182854D0A9
:1033A0001C2852D0202850D024284ED028284CD079
:1033B0002C2800F09580302800F09280342800F00E
:1033C0008F80382800F08C803C2800F089804028CD
:1033D00000F08680442800F08380482800F0808038
:1033E0004C2832D0502830D054282ED058282CD0F9
:1033F0005C282AD0602828D0642826D0682824D0C9
:103400006C2822D0702820D074281ED078281CD098
:103410007C281AD0802818D0882800F0D9808C28E1
:1034200000F0D680A02800F09280B02800F0D08074
:10343000B42800F0CD80B82800F0CA80BC2800F085
:10344000C780C02800F0C48003E11068C00F0028C6
:1034500002D05FF0B64010600800C0B2012805D16C
:103460001000036861F30613036034E00800C0B283
:10347000022805D11000036861F3061303602AE0F7
:103480000800C0B2032805D11000036861F30613D9
:10349000036020E00800C0B2042805D110000368D2
:1034A00061F30613036016E00800C0B2052805D1D9
:1034B0001000036861F3061303600CE00800C0B25B
:1034C000002805D11000036861F30613036002E0D1
:1034D00001208DF80000106850F000401060BBE043
:1034E0001068C00F002802D05FF0B64010600800DE
:1034F000C0B2032805D11000036861F3061303600E
:1035000020E00800C0B2042805D11000036861F370
:103510000613036016E00800C0B2052805D11000AC
:10352000036861F3061303600CE00800C0B20028D2
:1035300005D11000036861F30613036002E0012067
:103540008DF80000106850F00040106084E01068B2
:10355000C00F002802D05FF0B64010600800C0B273
:10356000032805D11000036861F3061303602AE005
:103570000800C0B2042805D11000036861F30613E7
:10358000036020E00800C0B2052805D110000368E0
:1035900061F30613036016E00800C0B2062805D1E7
:1035A0001000036861F3061303600CE00800C0B26A
:1035B000002805D11000036861F30613036002E0E0
:1035C00001208DF80000106850F00040106043E0CA
:1035D0001068C00F002802D05FF0B64010600800ED
:1035E000C0B2012805D11000036861F3061303601F
:1035F0002AE00800C0B2022805D11000036861F378
:103600000613036020E00800C0B2032805D11000B3
:10361000036861F30613036016E00800C0B20428D3
:1036200005D11000036861F3061303600CE0080085
:10363000C0B2002805D11000036861F306130360CF
:1036400002E001208DF80000106850F0004010608A
:1036500002E001208DF800009DF8000001B07047E5
:1036600000000000DC9E0000E09E0000B41400207A
:1036700081B00100002000900020C9B201290DD0C6
:1036800005D303291AD029D3052947D036D30120E1
:10369000C0B201B070470099491C009129490968DE
:1036A0004968C1F38001002904D10099264A91425A
:1036B000F1D30120ECE70099491C009120490968E9
:1036C000C969C1F30041002904D100991E4A914201
:1036D000F1D30120DCE70099491C009116490968E3
:1036E0000968C1F34021002904D10099174A914289
:1036F000F1D30120CCE70099491C009110490968D9
:103700004969C1F30041002904D100990E4A914250
:10371000F1D30120BCE70099491C009108490968D0
:10372000896AC1F30041002904D10099064A9142F7
:10373000F1D30120ACE70000D89E0000688E0000A5
:10374000DC9E0000E49E0000A1860100414B4C007D
:1037500010B50400002060649FED240A200000F0F2
:103760008BFC9FED220A14F1140000F085FC9FED04
:103770001F0A14F1280000F07FFC10BD10B50400F2
:10378000002060649FED190A200000F075FC9FED99
:10379000170A14F1140000F06FFC9FED140A14F1E5
:1037A000280000F069FC10BD90ED060AF0EE000A5A
:1037B00020EE200AD0ED070A30EE600AD0ED080AAC
:1037C00030EE600ADFED0A0A20EE200A80ED120AD0
:1037D00090ED070AD0ED080A30EE600ADFED050A29
:1037E00020EE200A80ED130A704700000000000060
:1037F000ABAAAA3E3ACD133F90ED120AD0ED010AD2
:1038000020EE200AD0ED130A90ED021A00EE810A94
:1038100080ED140A90ED130AD0ED010A20EE200A83
:10382000D0ED120A90ED021A00EEC10A80ED150AE1
:10383000704790ED090AD0ED010A20EE200AD0ED84
:103840000A0A90ED021A00EEC10A80ED160A90ED08
:10385000090AD0ED020A20EE200AD0ED0A0A90ED06
:10386000011A00EE810A80ED170A7047DFF89817F9
:1038700090F844208A5C00EB8202926F826190F89B
:1038800044200A44127A00EB8202926FC26190F8DF
:1038900044201144097C00EB8101896F016270476B
:1038A0001EB49FED370A9FED360A9FED350ADFED16
:1038B000341ADFED332A9FED320A694600220023D5
:1038C000002481E81C009FED2E0ADFED2D0A9FEDFC
:1038D0002C1A90ED172A9FED2B3A22EE033AB6EE02
:1038E000002AD0ED163AB0EE084A63EE843A73EE41
:1038F000C33A63EE823A90ED054A63EE843A90ED66
:10390000164AF8EE084A24EE244A34EE434A24EEDE
:10391000024AD0ED054A24EE244AD0ED054A23EEB2
:10392000243A002180F84410B5EE403AF1EE10FA46
:1039300004DD90F84410491C80F84410F5EE403A3C
:10394000F1EE10FA04DD90F84410891C80F8441060
:10395000B5EE404AF1EE10FA04DD90F84410091D6E
:1039600080F8441090F84410012912D02AD303297A
:103970000AD022D3052911D015D3062918D021E069
:1039800000000000D7B3DD3FF0EE631AF0EE432AEB
:1039900018E0F1EE631AF1EE442A13E0F0EE431A58
:1039A000F0EE442A0EE0F1EE431AF1EE632A09E04C
:1039B000F0EE441AF0EE632A04E0F1EE441AF1EE60
:1039C000432AFFE731EEA23AD0ED1B3AF4EE433A38
:1039D000F1EE10FA09D5D0ED1B2A62EEA11AC1EE64
:1039E000831AD0ED1B2A72EEE12AB5EE003A694641
:1039F000F7EE003A73EEE13A73EEE23A63EE833AA1
:103A0000C1ED023AD1ED023A42EE823AC1ED013AFD
:103A1000D1ED013A41EE823ACDED003AD0ED1C3ABB
:103A2000F4EE631AF1EE10FA15D5D0ED1C3AF4EE6F
:103A3000632AF1EE10FA0ED590ED1C0A30EE610A01
:103A400020EE020A90ED1C1A31EE621ABEEE002A38
:103A500021EE021A34E090ED1C2AF4EE421AF1EE47
:103A600010FA13D590ED1C2AF4EE422AF1EE10FA6A
:103A70000CDB90ED1C0A30EE610A20EE030AD0ED5B
:103A80001C0ABDEE002A60EE820A19E090ED1C2AA5
:103A9000F4EE421AF1EE10FA12DB90ED1C2AF4EE6D
:103AA000422AF1EE10FA0BD5D0ED1C0A60EE830A23
:103AB00090ED1C1A31EE621ABDEE002A21EE021AB8
:103AC0009DED002A32EE002A90ED1D3A32EE432A97
:103AD00080ED2B2A91ED012A32EE202A90ED1D3A3D
:103AE00032EE432A80ED2C2A90F84420012A71D02E
:103AF000C0F05E82032A0AD0C0F0F881052A00F0E7
:103B0000CA80C0F02A81062A00F0898150E2B0EE16
:103B1000002AB0EE623A01EE823ADFEDCA1A63EE95
:103B2000211A90ED042A61EE821AC0ED161ADFED1B
:103B3000C61A62EEA11A90ED042A61EE821AC0ED57
:103B4000171ADFF8C02490F84430D35C01EB8303EC
:103B5000D3ED001A71EE801AC0ED251A90F84430AA
:103B600013441B7A01EB8303D3ED001A71EEA01A04
:103B7000C0ED261A90F8443013441B7C01EB8303FC
:103B8000D3ED001A71EE811AC0ED271A90F8443077
:103B9000D35C01EB8303D3ED001A31EEC00A80ED54
:103BA000280A90F8443013441B7A01EB830393ED09
:103BB000000A30EE600A80ED290A90F844301A4479
:103BC000127C01EB820191ED000A30EE410A80ED9A
:103BD0002A0AEDE132EEE12A9FED9A3A22EE032A1B
:103BE00090ED043A22EE032A80ED162A71EEA21A15
:103BF0009FED952A61EE821A90ED042A61EE821AF9
:103C0000C0ED171ADFF8FC2390F84430D35C01EBC9
:103C10008303D3ED001A71EEA01AC0ED251A90F8B7
:103C2000443013441B7A01EB8303D3ED001A71EE89
:103C3000801AC0ED261A90F8443013441B7C01EB27
:103C40008303D3ED001A71EE811AC0ED271A90F8A4
:103C50004430D35C01EB8303D3ED001A71EEE00A2C
:103C6000C0ED280A90F8443013441B7A01EB83031B
:103C7000D3ED000A30EEC00A80ED290A90F84430F6
:103C80001A44127C01EB820191ED000A30EE410AE8
:103C900080ED2A0A8CE1B8EE002A22EE822A32EE6A
:103CA000612ADFED682A22EE222AD0ED042A22EED4
:103CB000222A80ED162A9FED642A61EE821A90ED89
:103CC000042A61EE821AC0ED171ACE4A90F84430E9
:103CD000D35C01EB8303D3ED001A71EE811AC0EDC2
:103CE000251A90F8443013441B7A01EB8303D3ED7B
:103CF000001A71EE801AC0ED261A90F84430134471
:103D00001B7C01EB8303D3ED001A71EEA01AC0ED0A
:103D1000271A90F84430D35C01EB8303D3ED001AEB
:103D200031EEC11A80ED281A90F8443013441B7A02
:103D300001EB830393ED001A31EE400A80ED290A6E
:103D400090F844301A44127C01EB820191ED000A94
:103D500030EE600A80ED2A0A2AE1B8EE002A22EE4F
:103D6000822A32EE612ADFED372A22EE222AD0EDB6
:103D7000042A22EE222A80ED162A9FED9F2A61EE68
:103D8000821A90ED042A61EE821AC0ED171A9D4A3C
:103D900090F84430D35C01EB8303D3ED001A71EE4D
:103DA000811AC0ED251A90F8443013441B7A01EBB8
:103DB0008303D3ED001A71EEA01AC0ED261A90F815
:103DC000443013441B7C01EB8303D3ED001A71EEE6
:103DD000801AC0ED271A90F84430D35C01EB8303BE
:103DE000D3ED001A31EEC11A80ED281A90F8443054
:103DF00013441B7A01EB830393ED001A71EE600A02
:103E0000C0ED290A90F844301A44127C01EB82017B
:103E1000D1ED000A30EEC00A80ED2A0AC8E032EE89
:103E2000E12A9FED083A22EE032A90ED043A22EEB1
:103E3000032A80ED162AF1EE611A71EEE21A9FED67
:103E4000022A03E0ABAAAA3E3ACD133F61EE821AE2
:103E500090ED042A61EE821AC0ED171A694A90F8B3
:103E60004430D35C01EB8303D3ED001A71EEA01A4A
:103E7000C0ED251A90F8443013441B7A01EB8303FC
:103E8000D3ED001A71EE811AC0ED261A90F8443075
:103E900013441B7C01EB8303D3ED001A71EE801AEF
:103EA000C0ED271A90F84430D35C01EB8303D3EDC7
:103EB000001A71EEE00AC0ED280A90F8443013446D
:103EC0001B7A01EB8303D3ED000A70EEC10AC0ED4B
:103ED000290A90F844301A44127C01EB8201D1ED9A
:103EE000000A30EEC00A80ED2A0A61E0B0EE002A36
:103EF000B0EE623A01EE823ADFED401A63EE211A2B
:103F000090ED042A61EE821AC0ED161ADFED3A1A1E
:103F100062EEA11A90ED042A61EE821AC0ED171A22
:103F2000384A90F84430D35C01EB8303D3ED001A98
:103F300071EE801AC0ED251A90F8443013441B7AB4
:103F400001EB8303D3ED001A71EE811AC0ED261A3E
:103F500090F8443013441B7C01EB8303D3ED001A2B
:103F600071EEA01AC0ED271A90F84430D35C01EB33
:103F70008303D3ED001A31EEC00A80ED280A90F8D1
:103F8000443013441B7A01EB830393ED000A30EEB7
:103F9000410A80ED290A90F844301A44127C01EB62
:103FA000820191ED000A30EE600A80ED2A0AFFE7F7
:103FB00017BC704710B504009FED110A200000F0F7
:103FC000BBF89FED0F0A14F1240000F0B5F89FED47
:103FD0000C0A14F1480000F04FF810BD10B50400B1
:103FE0009FED070A200000F0A7F89FED050A14F1E5
:103FF000240000F0A1F810BD3ACD13BFABAAAA3E31
:1040000000000000240800203C08002010B5040037
:1040100094ED120AD4ED1B0A20EE200A84ED170A53
:1040200094ED120AD4ED1B0A20EE200A84ED180A42
:10403000E06DE06194ED170AB1EE400A84ED080AE4
:10404000E06C2060606D6060200000F07EF8A06988
:104050006066206E206494ED180AB1EE400A84ED8B
:10406000110A206D6062A06DA06214F1240000F0BE
:104070006CF8E06BA06610BD80ED040A704790ED0F
:10408000040AD0ED010AB4EE600AF1EE10FA18D578
:1040900090ED040AD0ED020A30EE200AD0ED010ABC
:1040A000B4EE600AF1EE10FA08D590ED040AD0EDF6
:1040B000020A30EE200A80ED040A26E04168016120
:1040C00023E090ED010AD0ED040AB4EE600AF1EEAF
:1040D00010FA18D590ED040AD0ED030A30EE200A4C
:1040E000D0ED010AF4EE400AF1EE10FA08D590ED99
:1040F000040AD0ED020A30EE600A80ED040A04E002
:104100004168016101E041680161704780ED010A89
:10411000704790ED020AD0ED000A20EE200AF7EE7B
:10412000000A90ED021A70EEC10A90ED011A00EE3D
:10413000810A80ED010A7047002101600021416081
:1041400080ED050A80ED060A704790ED000AD0ED7B
:10415000010A30EE600AD0ED030A90ED051A00EE78
:10416000801A80ED051AD0ED050A90ED071AF4EEDD
:10417000410AF1EE10FA02D5D0ED050A01E0D0EDCA
:10418000070A90ED081AB4EE601AF1EE10FA0ED597
:10419000D0ED050A90ED071AF4EE410AF1EE10FA9F
:1041A00002D5D0ED050A04E0D0ED070A01E0D0ED1C
:1041B000080AC0ED050AD0ED020A90ED051A00EEDE
:1041C000801A80ED061A90ED060AD0ED070AB4EECB
:1041D000600AF1EE10FA02D590ED060A01E090EDCA
:1041E000070AD0ED080AF4EE400AF1EE10FA0ED5F7
:1041F00090ED060AD0ED070AB4EE600AF1EE10FA6F
:1042000002D590ED060A04E090ED070A01E090ED7A
:10421000080A80ED060A7047DFED700A20EE200ADA
:10422000DFED6F0A60EE200ABDEEE01A764811EE6F
:10423000101A00EB810191ED000A11EE101A00EB4B
:104240008100D0ED011AB8EEC11A70EEC10A31EE4C
:10425000C01A01EE200A70479FED601AF5EE000AC1
:1042600040EE010A03E0BFEE000A70EE800A9FED07
:104270005D0AF4EE400AF1EE10FAF4DA9FED580A06
:1042800060EE800ABDEEE01A5F4811EE101A00EBF6
:10429000810191ED000A11EE101A00EB8100D0EDC2
:1042A000011AB8EEC11A70EEC10A31EEC01A01EE61
:1042B000200A70470020002100229FED4B1AF5EEE6
:1042C000400AF1EE10FA07D1B5EE400AF1EE10FA0D
:1042D00002D19FED450A64E0F5EE400AF1EE10FAD6
:1042E00002D5F1EE600A0221B5EE400AF1EE10FAB5
:1042F00002D5B1EE400A0422F4EE400AF1EE10FAC3
:1043000006D5B0EE601AF0EE400AB0EE410A012088
:104310000818101880EE200AF7EE000A70EEC00AA6
:104320009FED321ADFED321A40EE011A9FED311A7D
:1043300000EEA11A21EE000AC0B200280BD002281C
:104340000FD009D3042816D010D306281DD017D3B8
:1043500007281FD023E024E0DFED270A30EEC00A53
:104360001FE0DFED260A30EEC00A1AE0DFED220A78
:1043700030EE200A15E0DFED220A30EEC00A10E030
:10438000DFED200A30EE200A0BE0DFED1C0A30EEF4
:10439000200A06E0DFED1B0A30EEC00A01E09FEDC7
:1043A000120A704781B0B5EE400AF1EE10FA10DD46
:1043B000F6EE001A20EE211A10EE100A134911EB46
:1043C00060010091DDED000A81EE200A00EEA10AF5
:1043D00001E09FED050A01B07047000083F9223E1D
:1043E000000000440100803F000000004BC8873DF2
:1043F000A3927A3EDB0F493FDB0FC93FDB0F4940F9
:10440000DB0FC940E4CB96401C000020F51DBD1F0A
:1044100070B5DFF800452068C5692068C0680540B0
:1044200000261DE02068C26851F8260082432068FB
:10443000C26014E0DFF8E01451F8260005420ED007
:10444000DFF8D80450EA064022685061DFF8D02433
:1044500052F836000028E5D052F836008047761C26
:10446000102EE7D370BD10B5DFF8A8442168096AA3
:10447000DFF8A4240300DBB252F82320114225D038
:104480000100C9B20200D2B252EA016242F4000253
:1044900052F4004221684A61DFF884240100C9B265
:1044A00002EBC1014968002905D0C0B202EBC0008F
:1044B000406880470AE00023012201212468C0B23D
:1044C0004001204410F5067000F001F810BDF0B472
:1044D0000024002400240027002405685FF0010C5C
:1044E0001CFA02F6761E8E40B5431CFA02F2521EEA
:1044F0001A4012FA01F12943016016EA010200E0B4
:104500007F1C03683340934203D00160652FF7D3CB
:1045100001242000C0B2F0BC704710B4DFF80814CA
:104520000A688378146863F3410414600A680378A6
:10453000146863F3C3041460096840780A6860F380
:1045400082020A6010BC7047DFF8C8130A6852681C
:10455000DFF8C433C0B253F8200002430868426059
:10456000704738B51300C9B2002903D0022926D0FC
:1045700015D345E0DFF89C432168CA68DFF898133B
:104580000500EDB251F825108A43DBB25B1C13F035
:10459000010313FA00F010432168C86030E0DBB279
:1045A0005B1C13F0010301220121DA4C2468C0B224
:1045B0004001204410F50670FFF789FF20E0D54C3C
:1045C0002168CA68D4490500EDB251F825108A4324
:1045D0001900C9B2491C11F0010181400A43216848
:1045E000CA60DBB25B1C13F00103012201212468C5
:1045F000C0B24001204410F50670FFF768FFFFE7E6
:1046000031BD0B00DBB2022B06DAC54BC0B203EBA7
:10461000C000C9B240F821207047F8B50400002757
:104620002578BC4E306810F128022800C0B28008FE
:104630008000821801236068A17E13FA01F1491EEF
:10464000084206D1A068E17E13FA01F1491E084232
:1046500000D00127B4F90C00002807D4B4F90C00ED
:10466000A17E13FA01F1491E08400AE0B4F90C00DA
:10467000401E5FF0FF314840A17E13FA01F1491E50
:104680000840002818D1B4F90E00002807D4B4F966
:104690000E00E17E13FA01F1491E08400AE0B4F968
:1046A0000E00401E5FF0FF314840E17E13FA01F139
:1046B000491E0840002800D00127B4F91000002846
:1046C00007D4B4F91000A17E13FA01F1491E084085
:1046D0000AE0B4F91000401E5FF0FF314840A17EAF
:1046E00013FA01F1491E0840002818D1B4F912004C
:1046F000002807D4B4F91200E17E13FA01F1491E33
:1047000008400AE0B4F91200401E5FF0FF31484053
:10471000E17E13FA01F1491E0840002800D001276C
:104720006069A17E13FA01F1491E084205D1616951
:10473000E07E83405B1E194200D00127606900289B
:1047400000D101273800C0B2002840F0E080754851
:1047500001682B00DBB201EB8301E378D1F800C0E4
:1047600063F3470CC1F800C0E178802909D00068E4
:104770002900C9B200EB8100016851F0010101601C
:1047800008E000682900C9B200EB8100016849080F
:104790004900016010680F21EB0013F01803D3F1FA
:1047A0001803994088436178EB0013F01803D3F1A4
:1047B0001803994008430321EB0013F01803D3F1C9
:1047C0001E0399408843A178EB0013F01803D3F13E
:1047D0001E0399400843106063682022002130685E
:1047E000AC465FFA8CFC5FEA4C1C604410F500702C
:1047F000FFF76DFEA368202200213068AC465FFA07
:104800008CFC5FEA4C1C604410F50170FFF75FFE02
:10481000B4F90C30102200213068AC465FFA8CFCF1
:104820005FEA4C1C604410F50270FFF750FEB4F9CB
:104830000E30102210213068AC465FFA8CFC5FEA23
:104840004C1C604410F50270FFF741FEA37E02226B
:1048500018213068AC465FFA8CFC5FEA4C1C60445F
:1048600010F50670FFF733FEE37E02221021306858
:10487000AC465FFA8CFC5FEA4C1C604410F5067095
:10488000FFF725FE6369202200213068AC465FFAFD
:104890008CFC5FEA4C1C604410F50470FFF717FEB7
:1048A000B4F91030102200213068AC465FFA8CFC5D
:1048B0005FEA4C1C604410F50370FFF708FEB4F982
:1048C0001230102210213068AC465FFA8CFC5FEA8F
:1048D0004C1C604410F50370FFF7F9FD238B102288
:1048E00000213068AC465FFA8CFC5FEA4C1C6044E7
:1048F00010F50570FFF7EBFD237F012203213068DF
:10490000EDB26D01284410F50670FFF7E0FD3800A8
:10491000C0B2F2BDF49E0000E092000080800080F2
:10492000A4100020EC9E0000F09E000080B5002046
:10493000FFF799FDBFF34F8F01BD000080B5012047
:10494000FFF791FDBFF34F8F01BD000080B502203E
:10495000FFF789FDBFF34F8F01BD000080B5032035
:10496000FFF781FDBFF34F8F01BD000080B504202C
:10497000FFF779FDBFF34F8F01BD000080B5052023
:10498000FFF771FDBFF34F8F01BD000080B506201A
:10499000FFF769FDBFF34F8F01BD000080B5072011
:1049A000FFF761FDBFF34F8F01BD000080B5082008
:1049B000FFF759FDBFF34F8F01BD000080B50920FF
:1049C000FFF751FDBFF34F8F01BD000080B50A20F6
:1049D000FFF749FDBFF34F8F01BD000080B50B20ED
:1049E000FFF741FDBFF34F8F01BD000080B50C20E4
:1049F000FFF739FDBFF34F8F01BD000080B50D20DB
:104A0000FFF731FDBFF34F8F01BD000080B50E20D1
:104A1000FFF729FDBFF34F8F01BD000080B50F20C8
:104A2000FFF721FDBFF34F8F01BD000080B5FFF7F9
:104A3000EFFCBFF34F8F01BD70B5A2B00400DFF8EB
:104A4000F453DFF8F40300680290052202210120EC
:104A500000F056FA04220821042000F051FA052241
:104A60000521012000F04CFA05220421012000F06C
:104A700047FA05220321022000F042FA072207210B
:104A8000032000F03DFA07220621032000F038FA47
:104A900000208DF8440000208DF8480001208DF89A
:104AA000490000208DF84D0001208DF84A000120BA
:104AB0008DF84B0000208DF84C004FF4FA66ADF8ED
:104AC0004E600020ADF8500000208DF8520000200C
:104AD0008DF8530000208DF8540000208DF855000B
:104AE00000208DF8560001208DF8570001208DF828
:104AF000580000208DF8590000208DF85A00002041
:104B00008DF85B0000208DF85C00A020ADF8460019
:104B100001208DF87200ADF8706011A81D901CAADC
:104B200000210120FDF70FFE012200210120FDF7E9
:104B3000D0FA01208DF8280000208DF82C000120EB
:104B40008DF82D0000208DF8310001208DF82E0009
:104B500001208DF82F0000208DF83000ADF8326074
:104B60000020ADF8340000208DF8360000208DF8CC
:104B7000370000208DF8380000208DF83900002023
:104B80008DF83A0001208DF83B0001208DF83C00A3
:104B900000208DF83D0000208DF83E0000208DF8AB
:104BA0003F0000208DF84000A020ADF82A00012031
:104BB0008DF86A00ADF868600AA81B901AAA002157
:104BC0000120FDF7C0FD012201210120FDF781FA3E
:104BD00002208DF80C0000208DF8100001208DF8C7
:104BE000110000208DF8150001208DF81200012021
:104BF0008DF8130000208DF81400ADF81660002029
:104C0000ADF8180000208DF81A0000208DF81B0068
:104C100000208DF81C0000208DF81D0000208DF86C
:104C20001E0001208DF81F0001208DF820000020BB
:104C30008DF8210000208DF8220000208DF823003F
:104C400000208DF82400A020ADF80E0001208DF882
:104C50006200ADF8606003A8199018AA0021012035
:104C6000FDF771FD012202210120FDF732FA1EA895
:104C700000214170002181700121C17000218DF857
:104C8000781000214171002181710121C171012140
:104C90000171002141720021817201218DF8831080
:104CA0000221017201218DF88510012181730121FA
:104CB000C1730321017304208DF8000000208DF8DA
:104CC00003000F208DF8010000208DF802001EA8BF
:104CD000019069460120FDF74EFD012201210120CE
:104CE000FDF787F802AA00210120FDF709FE15F162
:104CF000A000016851F48071016015F1A000016805
:104D000051F40071016015F1A000016851F4806157
:104D1000016015F15C014FF47A700A6860F30F02CC
:104D20000A6015F160010A6860F30F020A6015F16C
:104D300064010A6860F30F020A6015F168010A68ED
:104D400060F30F020A6015F16C010A6860F30F024C
:104D50000A6015F170010A6860F30F020A60012110
:104D60000120FDF7AAF9220010210120FEF71CF80E
:104D700010210120FDF71CFF002210210120FDF76A
:104D8000D9FD012200210120FDF7D4FD01220121DE
:104D90000120FDF7CFFD012202210120FDF7CAFD10
:104DA000012203210120FDF7C5FD0122042101207C
:104DB000FDF7C0FD012205210120FDF7BBFD012209
:104DC00007210120FDF7B6FD012207210120FDF793
:104DD000B1FD002200210120FDF7D5F800220121BC
:104DE0000120FDF7D0F8002202210120FDF7CBF8C9
:104DF000002203210120FDF7C6F800220421012032
:104E0000FDF7C1F8002205210120FDF7BCF80022C2
:104E100006210120FDF7B7F8002207210120FDF748
:104E2000B2F80120FDF71AF800210120FCF7FDFF80
:104E300022B070BD00A00140D49E00002DE9F041D9
:104E40000400DFF8D8012100C9B250F82150DFF882
:104E5000D0012100C9B250F82160D5F890705FF000
:104E600000082DE05FF0B64006EB8801086105EB15
:104E700088001030016831F47021016005EB880072
:104E80001030016851F4004101600FE0380030FA41
:104E900008F0C0070AD5DFF88C2110680028E1D09F
:104EA0004146C9B22000C0B21268904715F1900087
:104EB0000168012111FA08F13940016018F1010877
:104EC000B8F1200FE2D3BFF34F8FBDE8F08180B57A
:104ED0000020FFF7B3FF01BD80B50120FFF7AEFF53
:104EE00001BD80B50220FFF7A9FF01BD80B50320F9
:104EF000FFF7A4FF01BD80B50420FFF79FFF01BDB0
:104F000030B4DFF818310400E4B253F82430DFF88D
:104F10001041C0B254F820400800C0B203EB80003A
:104F20000069C0F3C030002806D05FF0B6400D0025
:104F3000EDB204EB850420610800C0B203EB8000F1
:104F40001030046862F30A240460C9B203EB8100E4
:104F50001030016851F40041016030BC704730B43A
:104F6000DFF8B8300400E4B253F82430DFF8B04082
:104F7000C0B254F820400800C0B203EB80000069C2
:104F8000C0F3C030002806D05FF0B6400D00EDB28F
:104F900004EB850420610800C0B203EB80001030F0
:104FA0001400E4B2056864F3000505600800C0B2AF
:104FB00003EB80001030D2B25208D2B2046862F320
:104FC00041040460C9B203EB81001030016851F460
:104FD0000041016030BC704710B4134BC0B253F8AD
:104FE0002000436901248C40A343D2B212FA01F19C
:104FF0001943416110BC70470B4BC0B253F82000FD
:10500000D2B2002A04D1012212FA01F1816003E038
:10501000012212FA01F1416070470000649600001D
:1050200078960000D41400208C96000010B592B041
:105030000EA8CA49102200F0B7F9C94800680390C9
:10504000C84800680290C84800680190C7480068D6
:1050500000900BA8C64991E81C0080E81C00C548D8
:10506000D0E90023CDE90923C348D0E90023CDE9E5
:10507000072304A8C14991E81C0080E81C0007A888
:105080000690882000F0D4F9882000F0ECF9002286
:1050900011210220FFF734FF002210210220FFF728
:1050A0002FFF00220F210220FFF72AFF00220E21EE
:1050B0000220FFF725FF002000F062FA0EA9002071
:1050C00000F074FA0321002000F028FB02210020E8
:1050D00000F02EFB03A9002000F0B6FA02A9002080
:1050E00000F0B2FA01A9002000F0AEFA69460020F3
:1050F00000F0AAFA01220021002000F02EFB0BA9EB
:10510000002000F0BFFA0221002000F05CFB00202C
:1051100000F0FAFA0121002000F014FB09A9002098
:1051200000F0EEFB012204A9002000F0C7FC0020E3
:105130008DF810004FF41670ADF81E00012204A97E
:10514000002000F0BBFC01208DF810004FF4AF6090
:10515000ADF81E00012204A9002000F0AFFC0121DF
:10516000002000F0C1FB002000F0FBFB8449086830
:105170000830026832F010020260086814300C2215
:10518000036862F34503036008681030026852F058
:105190000402026008682830026852F001020260CE
:1051A0000868C068C0F380000028F9D00868103093
:1051B000026832F00402026008680C30026852F0A3
:1051C0000402026008680830026852F010020260AF
:1051D00003E00868006AC003C00B0868406A10F06A
:1051E0001F0FF6D112B010BD18B591B00DA86549CA
:1051F000102200F0D9F86448006802906348006803
:1052000001906348006800908C2000F011F98C2018
:1052100000F029F900220E210120FFF771FE002283
:105220000F210120FFF76CFE002210210120FFF763
:1052300067FE012000F0A4F90DA9012000F0B6F9E5
:105240000321012000F06AFA0221012000F070FA27
:1052500002A9012000F0F8F901A9012000F0F4F9F9
:105260006946012000F0F0F901220021012000F040
:1052700074FA0AA8474991E81C0080E81C000AA9B2
:10528000012000F0FFF90221012000F09CFA01202A
:1052900000F03AFA0121012000F054FA3E48D0E92A
:1052A0000023CDE905233D48D0E90023CDE90323C0
:1052B00007A83B4991E81C0080E81C0003A809905E
:1052C00005A9012000F01CFB012207A9012000F024
:1052D000F5FB0121012000F007FB012000F041FB5C
:1052E000304908680830026832F01002026008682D
:1052F00014300C22036862F3450303600868103021
:10530000026852F00402026008682830026852F015
:10531000010202600868C068C0F380000028F9D06C
:1053200008681030026832F00402026008680C302D
:10533000026852F00402026008680830026852F005
:105340001002026003E00868006AC003C00B08682E
:10535000406A10F01F0FF6D112B010BDF096000099
:10536000B49E0000B89E0000BC9E0000C09E0000DD
:10537000909700001898000020980000A89700005F
:105380000000002000970000C49E0000C89E00009E
:10539000CC9E00009C9700002898000030980000E8
:1053A000B497000004000020103A07D330B4B1E8ED
:1053B0003810103AA0E83810F9D230BC530724BF97
:1053C000B1E80810A0E8081044BF51F8043B40F8C9
:1053D000043BD20724BF31F8022B20F8022B44BF34
:1053E0000B7803707047121F17D35B0009D151F877
:1053F000043B20F8023B1B0C121F20F8023BF6D2A4
:105400000BE051F8043B00F8013B1B0A20F8023B7B
:105410001B0C121F00F8013BF3D238BF121D521EA5
:1054200024BF11F8013B00F8013BF8D87047FEE7B4
:10543000C0B21B49800851F820100868C00F00282E
:1054400002D05FF0B64008600800026832F4001233
:1054500002600800026852F400120260086850F00E
:10546000004008607047C0B20D49800851F8201014
:105470000868C00F002802D05FF0B640086008003E
:105480000122036862F3010303600800026852F41A
:1054900000120260086850F0004008607047000089
:1054A0003C8F00002DE9F0410400DFF830032100BB
:1054B000C9B250F82110DFF828032200D2B250F808
:1054C0002250EE68DFF81C032200D2B250F822000E
:1054D0000640DFF81473386836EA0000E860386880
:1054E000064217D01422DFF804332000C0B2504324
:1054F0001858002806D02000C0B202FB00F29858CD
:10550000804705E011F11000016849084900016079
:105510003868E8605FF0010821E02969DFF8D0020F
:1055200050F828008143296117E057F82800064207
:1055300013D01421DFF8B4222000C0B24843104435
:1055400050F828000028E8D02000C0B201FB00F18C
:1055500002EB010050F82800804718F10108B8F16B
:10556000050FE2D3BFF34F8FBDE8F08180B5002077
:10557000FFF798FF01BD80B50120FFF793FF01BD44
:1055800081B000210091DFF85412C0B251F8200020
:105590000830016851F00401016002E00098401CED
:1055A000009000980A28F9D301B0704710B4DFF8D2
:1055B0002C22C0B252F820008A78022A06D110F1BB
:1055C0000802136853F0100313600CE010F1080296
:1055D000136833F01003136010F114028B78146811
:1055E00063F3CF34146010F114024B78146863F342
:1055F0001044146010F114020B78146863F35244E1
:10560000146010F11402CB78146863F3CB24146097
:1056100010F114020B79146863F3D544146010F18F
:1056200014028B68146863F39F54146010F108022D
:10563000C968136861F3D52313600830016851F419
:105640008061016010BC704710B4644AC0B252F867
:10565000200010F114020B78146863F30004146046
:1056600010F114024B78146863F3450414600A784F
:10567000012A05D114308978026861F3871202602B
:1056800010BC704710B4554AC0B252F8202012F135
:1056900008000B78046863F3451404600878002858
:1056A00006D112F108008B68046863F3C914046022
:1056B00012F130004B78046863F30404046012F1C3
:1056C00030008B78046863F30C24046012F130001E
:1056D000CB78046863F31444046012F130000B7952
:1056E000046863F31C64046012F134004B790468AD
:1056F00063F30404046012F134008979026861F3F1
:105700000C22026010BC70473449C0B251F820002E
:105710000830016851F00101016070472F4AC0B2A2
:1057200052F820002430026861F31852026070477A
:105730002A4AC0B252F820002430026861F31342B2
:1057400002607047254AC0B252F820001030C9B23A
:10575000026861F304120260704770B4204B0400C9
:10576000E4B253F82430D2B2002A15D11D4C020005
:10577000D2B254F822501C4A0E00F6B252F826203B
:105780001543C0B244F820501A691948C9B250F8FC
:10579000210002431A6114E01C69154A0D00EDB2A4
:1057A00052F8252094431C610E4A0300DBB252F8E4
:1057B00023300D4CC9B254F821108B43C0B242F8CB
:1057C000203070BC7047064AC0B252F82000064A2A
:1057D000C9B252F82110C16070470000089800005B
:1057E00010980000AC140020D49500003013002065
:1057F000BC950000F8B50400DFF818032100C9B219
:1058000050F821502E6916F03F06E86806402E61D8
:10581000002720E0EA6851F827008243EA6019E097
:10582000DFF8F41251F82700064213D01C22DFF8EB
:10583000EC322000C0B25043184450F82700002832
:10584000E8D02000C0B202FB00F203EB020050F8E7
:10585000270080477F1C062FE2D3BFF34F8FF1BD97
:1058600038B5DFF8BC120200D2B251F82220DFF8BE
:10587000A4120300DBB251F82330DFF89C421D690B
:10588000E1690D40A1690D4217D0A1691961DFF8E6
:105890008C321C240100C9B2614319448969002972
:1058A00005D0C0B2604318448069804705E012F11A
:1058B0000C00016831F480710160BFF34F8F31BD7E
:1058C00080B50020FFF796FF01BD80B50020FFF7EF
:1058D000C7FF01BD80B50120FFF78CFF01BD80B57A
:1058E0000120FFF7BDFF01BDDFF83422C0B252F83E
:1058F00020000830C9B2026861F3000202607047FC
:1059000010B4DFF81C22C0B252F8200010F11402CB
:105910000B88146863F30F04146010F108028B788D
:10592000146863F34514146010F10802CB7814680E
:1059300063F30A24146010F108020B79146863F30E
:105940000414146010F108024B79146863F31554C1
:10595000146008308979026861F38612026010BC15
:10596000704781B0DFF8B811C0B251F82020012093
:105970000021009112F108010B6853F480330B6091
:1059800002E00099491C0091009942F2107399427B
:1059900005D29168C1F300410029F2D10020C0B2C4
:1059A00001B07047DFF87811C0B251F8200008301C
:1059B000016851F4003101607047DFF86431C0B212
:1059C00053F82000C9B2002908D0022914D00CD302
:1059D00004291FD017D3052923D029E00C30D2B2D7
:1059E000016862F31041016022E00C30D2B201681C
:1059F00062F3514101601BE00C30D2B2016862F3E6
:105A00009241016014E00C30D2B2016862F3D341DC
:105A100001600DE00C30D2B2016862F314510160F4
:105A200006E00C30D2B2016862F355510160FFE725
:105A300070473B4BC0B253F82030C9B228204143D5
:105A400003EB01004030016862F309010160704717
:105A5000F0B4304BC0B253F8203014782825080039
:105A6000C0B268431844C669107901280ED10800F5
:105A7000C0B2684303EB000792F804C014F10800B9
:105A80001CFA00FC5CEA0606FE610DE00800C0B2EC
:105A9000684303EB00075FF0010C14F108001CFAE7
:105AA00000FC36EA0C06FE61C9B2694303EB010053
:105AB00000EB840051880162F0BC70477CB50400A3
:105AC0000D0016006A8892B229782000C0B2FFF754
:105AD000B0FF00208DF800000FE0A9689DF80020BD
